:020000040002F8
:1060000078F80020DD630200E5630200E763020028
:10601000E9630200EB630200ED6302000000000090
:10602000000000000000000000000000EF6302001C
:10603000F163020000000000F3630200F563020058
:10604000E96A0200416B0200AD6F0200F7630200D3
:10605000F7630200F7630200456A0200F76302007B
:10606000F7630200F7630200F7630200F7630200C0
:10607000F7630200F7630200F7630200F7630200B0
:10608000F7630200CD6B0200F7630200F7630200C2
:10609000F7630200F76302003D6C0200416C0200EE
:1060A000F7630200F7630200F7630200F763020080
:1060B000F7630200F7630200000000000000000028
:1060C000F7630200F7630200F7630200F763020060
:1060D000F7630200F7630200F763020000000000AC
:1060E00000000000000000000000000000000000B0
:1060F00000000000000000000000000000000000A0
:10610000000000000000000000000000000000008F
:10611000000000000000000000000000000000007F
:10612000000000000000000000000000000000006F
:10613000000000000000000000000000000000005F
:10614000000000000000000000000000000000004F
:10615000000000000000000000000000000000003F
:10616000000000000000000000000000000000002F
:10617000000000000000000000000000000000001F
:10618000000000000000000000000000000000000F
:1061900000000000000000000000000000000000FF
:1061A00000000000000000000000000000000000EF
:1061B00000000000000000000000000000000000DF
:1061C00000000000000000000000000000000000CF
:1061D00000000000000000000000000000000000BF
:1061E00000000000000000000000000000000000AF
:1061F000000000000000000000000000000000009F
:10620000DFF80CD000F072FB00480047F59E02005A
:1062100078F8002000B583B002900091019244F21A
:10622000010071466A4601F083FC03B000BD000026
:1062300030B450E8012F93B2C48923448489A34227
:1062400028BF1B1B0489A34202BFBFF32F8F00206E
:1062500007E0C3EA020340E80134002CE9D14FF023
:1062600001000A6030BC704750E8012FC2EA0242C8
:1062700040E801210029F7D1704730B450E8022FDF
:106280001FFAA2F3C488A34202BFBFF32F8F0020DE
:106290000DE0C48923448489A34228BF1B1BC2EAA2
:1062A000034340E80234002CE8D14FF001000A60BB
:1062B00030BC704750E8022FC2EA224240E8022177
:1062C0000029F7D17047034653E8022FD988B2EB73
:1062D000324F4FF0000017BF92B241EA014142EA4B
:1062E000014104E05A68B2EB324F08BF012043E895
:1062F0000212002AE8D1704730B4044654E8000F77
:106300000D4644E80053002BF8D1156030BC7047AF
:1063100030B4044654E8000F40EA010544E8005355
:10632000002BF7D1156030BC704730B4044654E8F8
:10633000000F00EA010544E80053002BF7D1156077
:1063400030BC704730B4044654E8000F80EA0105C1
:1063500044E80053002BF7D1156030BC704730B4CF
:10636000044654E8000F00EB010544E80053002BFD
:10637000F7D1156030BC704730B4044654E8000FC4
:10638000A0EB010544E80053002BF7D1156030BCA9
:10639000704770B404464FF0000054E8006F0D6879
:1063A000AE4207BF44E80023012044E800630E60CA
:1063B000002B1CBF0020F0E770BC704730B40446CF
:1063C00054E8000F88422CBF451A054644E80053A4
:1063D000002BF5D1156030BC70470000064880479F
:1063E00006480047FEE7FEE7FEE7FEE7FEE7FEE7BA
:1063F000FEE7FEE7FEE7FEE7856C020001620200B1
:106400002DE9F05F0546002092469B4688460646E9
:10641000814640241BE0284641464746224600F07C
:106420009DF853465A46C01A914110D3114618465A
:10643000224600F016F82D1A67EB01084F46224657
:106440000120002100F00DF817EB00094E41201E3D
:10645000A4F10104DFDC484631462A464346BDE844
:10646000F09F202A04DB203A00FA02F10020704756
:106470009140C2F1200320FA03F319439040704782
:10648000004870477CE6020040EA01039B0703D006
:1064900009E008C9121F08C0042AFAD203E011F863
:1064A000013B00F8013B521EF9D27047D2B201E025
:1064B00000F8012B491EFBD270470022F6E710B509
:1064C00013460A4604461946FFF7F0FF204610BD62
:1064D000421C10F8011B0029FBD1801A704730B50F
:1064E00004460020034600E05B1C934203D2E05CBC
:1064F000CD5C401BF8D030BD034611F8012B00F8ED
:10650000012B002AF9D11846704700F0004230F004
:1065100000400AD0C10D01F56071C0F3160042EAD7
:106520000151C208400711437047002001467047DF
:1065300030B50B46014600202022012409E021FA53
:1065400002F59D4205D303FA02F5491B04FA02F550
:106550002844151EA2F10102F1DC30BD202A04DB23
:10656000203A21FA02F00021704721FA02F3D040CC
:10657000C2F1200291400843194670472DE9FE4FB1
:10658000804681EA0300C00F0C46009021F00041D4
:1065900023F00045B8EB0200A94105D24046214650
:1065A00090461C460B46024623F00040104347D05D
:1065B000270DC7F30A00C3F30A510290401A019055
:1065C00040286BDAC3F3130040F4801B0098924616
:1065D00020B10023D2EB030A63EB0B0B0198594661
:1065E000C0F140025046FFF73CFF06460D465046BC
:1065F0005946019A00F08CF910EB08006141002423
:1066000087EA115284EAE7731A4340D0009A62B3D2
:10661000019A012A4FEA075215DC001B61EB0201C7
:106620004FF0004202EA0752CDE90042001C41F55A
:10663000801132462B4600F08CF903B0BDE8F08F94
:1066400040462146F9E7001B61EB0201001C41F5C1
:10665000801300185B412018A2F5001747EB0301D7
:1066600040EAD570B6196D4111E06D084FEA360663
:1066700045EAC0754FEA0752001B61EB0201001C9E
:1066800041F5801149084FEA300000195141324666
:106690002B4603B0BDE8F04F00F04CB90098012242
:1066A00040000023D0EB020263EBE0730098214628
:1066B0004FEAE074B8EB000061EB0401E9E783F016
:1066C00000435BE781F0004158E72DE9FE4F81EA86
:1066D000030404F0004421F0004100944FF0000B4B
:1066E00023F0004350EA01045ED052EA03045BD079
:1066F000C3F30A54C1F30A552C44A4F2F3340194B1
:10670000A0FB0254C1F3130141F48011C3F313033E
:1067100043F4801301FB024400FB034E840A970AF2
:1067200044EA815447EA8357A4FB076802958D0A1F
:1067300005FB07854FEA932C04FB0C542705029DAB
:106740004FEA065847EA1637B5EB08056EEB070C1B
:10675000870E920E47EA811742EA8312A7FB0201D5
:10676000B6EB0B0164EB00042B0D43EA0C335E180F
:1067700044EB1C50DA465146E7FB0201C5F3130413
:106780004FEA0B3343EA14534FEA0432019C43EAC5
:106790000603A4F10C040294009CCDE900B400F0BF
:1067A000D8F803B0BDE8F08F00200146F9E72DE9E5
:1067B000F04D81EA030404F0004B21F0004514463B
:1067C0004FF0000A23F0004150EA050220D054EABD
:1067D00001021DD0C5F30A570246C5F31303C1F3E6
:1067E0001300C1F30A5640F4801543F48013A7EB5D
:1067F0000608101BD64608F2FD3873EB050002D3DD
:1068000008F1010801E092185B41B8F1000F03DACA
:1068100000200146BDE8F08D00204FF480110646AF
:1068200084460EE0171B73EB050705D3121B63EBC1
:10683000050306434CEA010C49084FEA3000921860
:106840005B4150EA0107EDD152EA030012D082EA1F
:10685000040083EA0501084305D0101BAB4106D2B2
:106860000122002306E000224FF0004302E06FF017
:10687000010253101AEB06004CEB085110EB0A0012
:1068800041EB0B01BDE8F04D00F054B8C1F30A52E2
:10689000C1F3130140F2FF3341F480119A4202DA4E
:1068A00000200146704740F233439A42A2F233423D
:1068B00002DC5242FFF752BEFFF7D3BD30B5041ED3
:1068C00071F1000404DB4FF00044404264EB01012D
:1068D000141E73F1000405DB1C464FF000435242C6
:1068E00063EB0403994208BF904230BD064C074D4C
:1068F00006E0E06840F0010394E807009847103490
:10690000AC42F6D3FFF780FC7CEF02009CEF020064
:10691000202A06DBCB17203A41FA02F043EAE07363
:1069200006E041FA02F3D040C2F120029140084350
:106930001946704710B5141E73F1000408DA401CA4
:1069400041F1000192185B411A4301D120F001008E
:1069500010BD2DE9F04D92469B4611B1B1FA81F27E
:1069600002E0B0FA80F220329046FFF77AFD04464A
:106970000F4640EA0A0041EA0B0153465A460843D3
:1069800013D0114653EA010019D0C8F14002504615
:10699000FFF7E4FD05460E46504659464246FFF7CE
:1069A00060FD084305D0012004E020463946BDE8DB
:1069B000F08D0020054346EAE0762C4337430A98E1
:1069C0006305E40AA0EB08000022FD0A44EA4754EC
:1069D0000A3002D500200146E9E701051019694196
:1069E000DDE9084500196941BDE8F04DA2E770B541
:1069F0008C1810F8015B15F0070301D110F8013B6A
:106A00002A1106D110F8012B03E010F8016B01F8F0
:106A1000016B5B1EF9D12B0705D40023521E0DD448
:106A200001F8013BFAE710F8013BCB1A921C03E096
:106A300013F8015B01F8015B521EF9D5A142D8D3CE
:106A4000002070BD2DE9F8430025DFF894804FF455
:106A5000807601242F460095304604F06BFA38B159
:106A6000D8F80403204203D0304604F059FA2543F5
:106A7000361D64007F1CB6B2082FEDD34FF4BE74F0
:106A8000204604F057FA48B1204604F049FA45F090
:106A900000456A460121002004F004FA15F0FF0FBA
:106AA00016D0012600242E420ED008EB8401D1F826
:106AB0001005D1F81015C0F304200A4AC1F30141B2
:106AC00052F8242002B190477600641C082CEAD3C7
:106AD000002D02DA684605F0B9FEBDE8F883000033
:106AE0000060004010AE002070B54FF48076304654
:106AF00003F0ACFF114CB50560B1304603F0ADFFBB
:106B00000120C5F80803607920B90120607121686F
:106B1000002088474FF48276304603F097FF002824
:106B20000AD0304603F099FF0220C5F80803216817
:106B3000BDE870400120084770BD0000E8950020C6
:106B40002DE9F041134CD4F80C01002820D000208E
:106B5000C4F80C01D4F80C010F4EB078012815D1FF
:106B60000E480068C00711D00D4F386806F00CFDC4
:106B700048B10C4803F0C3FB050003D10AA2CA21A7
:106B8000FFF748FB3D603069401C30610120A06088
:106B9000BDE8F08100100040DC96002000140040A9
:106BA0000415004074F002002E2E5C2E2E5C2E2E5A
:106BB0005C2E2E5C2E2E5C636F6D6D6F6E5C746947
:106BC0006D655F73796E632E6300000002490248B1
:106BD000091F0968006808476496002000F0ECB9B6
:106BE00070B50E46144900EB400001EBC005144699
:106BF000E86A183520B101280FD0022805D113E02A
:106C0000284600F00DFAA04201D2002411E02246ED
:106C10003146284600F03CFA0BE0284600F000FA26
:106C2000A042F4D20446F2E73146284600F003FAC7
:106C30000446204670BD000048B5002004F0C2BFE5
:106C40000B48D0F80011002911D00022C0F8002113
:106C50000849094B0120897A03EBC10148600748C4
:106C6000C1698B68C3604270054803F06ABB704716
:106C70000070014054B8002000F00140DC96002074
:106C800074F00200F0B5B74AB7494FF0805413686A
:106C9000D4F830010978D4F83421451CC1F303112C
:106CA00006D0844601270025BCF1060F03D00AE078
:106CB00003F0FF0CF6E7B4F82463DFF8B0C2C6F3C4
:106CC0000426CCF80060DEB2062E06D1032904D1DA
:106CD000DFF8A0C2A64ECCF87460461C04D08446EF
:106CE000BCF1060F03D00AE003F0FF0CF8E7D4F87C
:106CF0004462DFF884C2C6F34236CCF80060DEB2EC
:106D0000062E08D1032906D19C4ED6F800C02CF0DF
:106D1000807CC6F800C0461C04D08446BCF1060F37
:106D200003D00BE003F0FF0CF8E74FF08046C6F805
:106D30000C51C6F81051904E361F3560DEB2062E4B
:106D400008D1032906D1DFF830C203260CF1640C08
:106D5000CCF80060DEB2062E11D103290FD1DFF886
:106D600020C20526CCF80060854E78363760844E08
:106D7000083635600CF1040C3F26CCF80060461C48
:106D800006D084464FEA0206BCF1060F04D081E02B
:106D900003F0FF0C0E46F7E7032E7BD0042E79D0CC
:106DA000784E3668DFF8E0C1CCF80060754E361DCD
:106DB00036680CF1040CCCF80060724E0836366868
:106DC0000CF1040CCCF800606E4E0C3636680CF1F9
:106DD000040CCCF800606B4E103636680CF1040CD5
:106DE000CCF80060674E143636680CF1040CCCF811
:106DF0000060644E18363668DFF88CC10CF1200C48
:106E0000CCF800605F4E1C3636680CF1040CCCF8F0
:106E100000605C4E203636680CF1040CCCF8006043
:106E2000584E243636680CF1040CCCF80060554EF0
:106E3000283636680CF1040CCCF80060514E2C3624
:106E400036680CF1040CCCF800604E4E30363668D3
:106E5000DFF834C10CF1400CCCF80060494E3436F8
:106E600036680CF1040CCCF80060464E38363668B3
:106E70000CF1040CCCF80060424E3C3636680CF144
:106E8000040CCCF800603F4E403636680CF1040C20
:106E9000CCF80060461C05D04FEA000CBCF1060F90
:106EA00003D008E003F0FF0CF8E7D4F85842374E5F
:106EB00004F04F043460441C03D00346062B02D078
:106EC00008E0DBB2FAE732490B68DB0702D06FF06B
:106ED00001030B6006280AD1032A08D0042A06D031
:106EE000052A04D02B48016841F4806101602348E1
:106EF0007438016841F470010160BFF34F8FBFF334
:106F00006F8F4FF01021D1F80002002803DBD1F879
:106F10000402002822DA204A176020480368002B68
:106F2000FCD01523C1F800320468002CFCD0C1F855
:106F3000043201680029FCD0156001680029FCD0EA
:106F4000BFF34F8F0D48F0380168154A01F4E06136
:106F500011430160BFF34F8F00BFFDE71249114895
:106F60000860F0BDE00F00F0E80F00F04035014090
:106F70000DF0ADBA00C007403C050040FCED00E05C
:106F8000105600400404001020C50040E40E0040EC
:106F9000000400403C17004004E5014000E40140CB
:106FA0000400FA050090D0034497002001480068CF
:106FB00000470000F095002010B5124C022020611F
:106FC000606111A0A06104F17800E0614FF40070ED
:106FD00020620020A06260620BA1A164E06204F55F
:106FE0001E71E1641021A065C4E91410E06509A1D7
:106FF000E01DFFF781FA08A12046FFF77DFA202067
:10700000A07110BD48B500205465726D696E616C49
:1070100000000000525454005345474745520000B9
:107020000269C1688A4203D88068401A104400E0AF
:10703000501A401E70472DE9F047C468174689462C
:1070400006464FF000083069A04201D9051B02E056
:10705000B168201A0D1AB0686D1E001BA84200D836
:107060000546BD4200D33D4670682A462044494645
:10707000FFF70AFAB0687F1B2C44A844A944A04239
:1070800000D10024F460002FDDD14046BDE8F08738
:107090002DE9F04104468846D4E90207C51BE168A2
:1070A000606816460844B54206D94146FFF7ECF938
:1070B000B819E060BDE8F0812A464146FFF7E4F9DF
:1070C000761B08EB050132466068FFF7DDF9E660E4
:1070D000F0E700000FB4054B10B503A9044A02986D
:1070E00000F00CF910BC5DF814FB0000259A0200BA
:1070F000749600200FB4084B10B504A902AA039897
:1071000000F0FCF8044602A9002000F08EFC2046A6
:1071100010BC5DF814FB00002B7A0200002809DB8C
:1071200000F01F02012191404009800000F1E020A1
:10713000C0F80011704702E008C8121F08C1002AF9
:10714000FAD170477047002001E001C1121F002AE8
:10715000FBD170470121202803DA81400548014016
:1071600003E0402802DA2038814009B1012070474D
:1071700000207047FC06FFBD2DE9FF5F82B00021B3
:10718000DDE90430020DDDF840B0034318D044F6C9
:107190001050A2F2FF3242431514119801281FD05B
:1071A000A5EB0B00401C5FEA000A4FF000064E4FB3
:1071B000DFF83891B046504615D5CAF1000413E007
:1071C000119801244AA3012801D16FEA0B0102980A
:1071D000119AC0E90031C0E9024206B0BDE8F09F53
:1071E000CBF10000DFE704460021404A491842EB9A
:1071F0000450CDE9001012E0E00707D032463B46CC
:1072000040464946FFF761FA8046894632463B468A
:1072100010461946FFF759FA06460F466410002C2F
:10722000EAD1DDE90401DDE90023BAF1000F06DA55
:10723000FFF74BFA42464B46FFF747FA05E0FFF7E8
:10724000B6FA42464B46FFF7B2FA04460E46002213
:10725000284BFFF733FB03D84FF0FF30014607E020
:107260000022254B20463146FFF788F9FFF70EFB39
:10727000102409E0002C0ADB0A220023FFF7C0F8E3
:10728000039B30321A55641E50EA0102F2D1641C8D
:10729000039AC4F111031444119A012A03D0012264
:1072A00008430DD10AE0084304D000204FF0110B31
:1072B000119072E7A3EB0B056D1E0DE05B4504DD3D
:1072C0004FF0000205F1010504E003DA4FF000027F
:1072D000A5F10105002AECD002981199C0E902310C
:1072E000C0E9004579E70000000014400000F03FCD
:1072F000300000000000F0430000E03F2DE9FF4FA8
:1073000095B09B468946064600250FE2252877D191
:1073100000242746F84A0121059400E0044316F8AA
:10732000013F203B01FA03F01042F7D130782A28C0
:1073300011D06FF02F033078A0F13002092A16D84F
:10734000059A44F0020402EB820203EB420210446D
:10735000761C0590EFE759F8042B0592002A03DA12
:10736000504244F40054059044F00204761C3078F6
:107370002E2816D116F8010F44F004042A280DD047
:107380006FF02F023078A0F13003092B09D807EBFA
:10739000870302EB4303C718761CF3E759F8047B15
:1073A000761C30786C280FD006DC4C2817D0682863
:1073B0000DD06A2814D104E0742810D07A280FD197
:1073C0000DE044F400140AE044F4801401E044F4B5
:1073D00040147278824202D104F58014761C761C27
:1073E000307866280BD013DC582877D009DC0028C9
:1073F00075D04528F6D04628F4D047281AD19DE10B
:1074000018E0632835D0642879D0652812D195E139
:10741000702873D008DC6728F1D069286FD06E28F7
:107420000DD06F2806D1B5E073282CD0752875D003
:10743000782874D05A46179990476D1C75E1C4F3AB
:107440000250022809D003280DD0D9F800100428D2
:107450000DD00D6009F1040967E1D9F80010EA17B1
:10746000C1E90052F6E7D9F800100D80F2E70D707F
:10747000F0E719F8041B8DF8001000208DF80100CA
:10748000EA46012003E059F804AB4FF0FF306107F2
:107490004FF0000102D40DE008F101018846B94225
:1074A0000FDA8045F8DB1AF808100029F4D108E05B
:1074B00008F1010188468142FADB1AF80810002918
:1074C000F6D105985B46A0EB080721463846179A87
:1074D00000F094FA284400EB080507E04DE029E1AC
:1074E0000DE01AF8010B5A4617999047B8F10108B8
:1074F000F7D25B4621463846179A13E142E00A224A
:107500000092C4F302524FF0000A022A08D059F840
:1075100004CB032A4FEAEC710AD00DE029E02AE0FF
:1075200009F1070121F00702F2E802C1914609E0E2
:107530000FFA8CFC4FEAEC71042A03D14FFA8CFC51
:107540004FEAEC71002907DA0A460021DCF1000C51
:1075500061EB02012D2202E0220504D52B228DF8D9
:107560000420012203E0E20701D02022F7E7904641
:1075700059E00A2102E010220DE010214FF0000A2C
:1075800000910BE010224FF0000A44F00404082799
:10759000009203E008224FF0000A0092C4F3025266
:1075A000022A05D059F804CB0021032A08D009E0AB
:1075B00009F1070121F00702F2E802C1914605E056
:1075C0001FFA8CFC042A01D10CF0FF0C4FF00008CC
:1075D000220728D5702806D0009B83F0100353EAB9
:1075E0000A0305D00EE040228DF80420012208E0B5
:1075F0005CEA010206D030228DF804208DF80500E7
:1076000002229046009B83F0080353EA0A030AD142
:107610005CEA010201D1620705D530228DF8042011
:107620004FF001087F1E582804D034A003900EA804
:1076300002900DE036A0F9E753466046009AFEF747
:10764000DFFE84460398825C0298401E029002701E
:107650005CEA0100F0D1029806A9081A00F1200A9C
:10766000600702D524F4803400E00127574502DD8D
:10767000A7EB0A0000E0002000EB0A01009005984B
:107680004144401A0590E00306D45B462146179A10
:10769000059800F0B3F90544002706E001A85A4612
:1076A000C05D179990476D1C7F1C4745F6DBE003D2
:1076B0000CD55B462146179A059800F09FF90544C2
:1076C00004E030205A46179990476D1C0099481ED7
:1076D00000900029F5DC08E0029802995A460078EB
:1076E000491C0291179990476D1CBAF10001AAF14B
:1076F000010AF1DC65E10000092801003031323374
:1077000034353637383961626364656600000000DD
:1077100030313233343536373839414243444546C7
:107720000000000000F058F90544761C307800286D
:107730007FF4ECAD19B02846BDE8F08F620700D4A5
:10774000062709F1070222F0070CFCE80223E146B4
:1077500003F000485FEA080C02D00FF2702C0DE035
:107760005FEA045C02D50FF2682C07E05FEAC47C94
:1077700002D00FF2602C01E0AFF2700C4FF0FF3836
:1077800023F00043CDF850C065280CD006DC452816
:1077900009D046281DD047283DD13DE0662818D0A5
:1077A00067287ED138E00021112F01DB112000E095
:1077B000781CCDE9000106A90EA8FFF7DDFCDDE984
:1077C0000F010E9A03910021009207F1010A049122
:1077D0004DE04FF000400097CDE9011006A90EA83A
:1077E000FFF7CAFCDDE90F0203920E9B11990022FC
:1077F000DDF80CA00093049211B9791C00EB010A8A
:10780000B7EB0A0004D4C0F1FF3007F1010A04907D
:10781000AAEB0700019044E0012F00DA01270021C4
:10782000112F01DD112000E03846CDE9000106A945
:107830000EA8FFF7A1FCDDE90F010E9A03910021CC
:1078400004910092BA4621070CD40399514500DAFD
:107850008A46BAF1010F05DD009AAAF10101515CD7
:10786000302908D0B84202DA10F1040F06DA0121FB
:10787000CDE9011015E0AAF10101E9E7002805DCD6
:10788000049901440491AAEB000102E0411C514516
:1078900000DD8A460499401A401C01904FF00040D8
:1078A0000290200704D40198504501DBCDF80480F4
:1078B00000208DF84F0002980DF14F07B0F1004FF6
:1078C00025D02B200E9002984FF0020800280CDAE9
:1078D000404202902D200E9007E00A210298FEF708
:1078E00027FE3031029007F8011DB8F10001A8F120
:1078F0000108F2DC02980028EFD1791E0E9808707A
:10790000307800F0200040F0450007F8020D12A882
:10791000C01B00F107081498007800B1012000EBAB
:107920000A01019801EBE07105984144401A401E9C
:107930000590E00306D45B462146179A059800F0AF
:107940005DF805441498007818B15A461799904785
:107950006D1CE00324D55B462146179A059800F07C
:107960004DF805441CE00498002807DBDDE903011D
:10797000884203DD0098405C179901E01799302098
:107980005A469047049805F10105401C049001985F
:10799000401E019004D12E205A46179990476D1C25
:1079A000BAF10001AAF1010ADDDC05E017F8010BCC
:1079B0005A46179990476D1CB8F10001A8F10108CB
:1079C000F4DC5B462146179A0598ABE62D000000D3
:1079D0002B000000200000002DE9F04104460025A6
:1079E0001E461746880404D405E039462020B047D7
:1079F0006D1C641EF9D52846BDE8F0812DE9F041E3
:107A0000044600251E469046C80301D5302700E0F5
:107A10002027880404D505E041463846B0476D1C50
:107A2000641EF9D52846BDE8F0810A68531C0B6036
:107A30001070704731B500252C462146684602F08B
:107A400021FC00B16D1C641C142CF6D3284638BDF3
:107A500010B501220221002001F0AEF808B107287C
:107A600010D107220221012001F0A6F808B1072851
:107A700008D100210A22084601F09EF808B1072823
:107A800000D1002010BD022000F04ABF70B50024D4
:107A9000064D06E06868012110F8340004F0AAF9E8
:107AA000641C28788442F5D3002070BDF89500202E
:107AB000F8B516460C4605460A2A01D20720F8BD3D
:107AC00004F092FA18B904F055FA0028F7D1134FD0
:107AD000102113487D603C70BE60FEF7EEFC002074
:107AE000C7E904000F4E0DE005EBC40031680091BA
:107AF00081788DF8011000780B4A694604F0CAF9C4
:107B00000028DCD1641EE4B2EED2BDE8F84005489E
:107B10000021064A001D00F05BB90000F895002026
:107B2000E0AE002088E30200F19B020071940200A5
:107B300072B603F099FC00BF03F0CCFA0028FBD129
:107B400011481249401AC408012000EB044010A15A
:107B500003F0DCFB11480068C00700D000BE022023
:107B600000EB04400EA103F0D1FBBFF34F8F0B4895
:107B7000E43801680E4A01F4E06111430160BFF38B
:107B80004F8F00BFFDE7000024F00200ACEF0200C1
:107B9000466174616C206572726F7200F0ED00E0F6
:107BA00053797374656D207265736574000000000D
:107BB0000400FA050EB500210091CDE901106A46D6
:107BC00044F20100FFF7B4FF0EBD10B58268C36830
:107BD000934203D001F00EFF002010BD052010BD20
:107BE00029B112B1531E134203D0092070470E2051
:107BF00070470160838000218160C1600846704742
:107C000010B58268C3689A1A83889A4203D801F033
:107C1000FBFE002010BD042010BD2DE9F0411646EA
:107C2000884607000ED06EB1B868F9683468081A43
:107C30000025844200D30446306030B15FEA08007A
:107C400001D00AE00E20BDE8F0810520FBE708EB3B
:107C5000050138466D1C01F0CDFEA542F7D300208A
:107C60003460F0E72DE9F04116468846070011D050
:107C700086B1B868F9683468081AB9880025081A06
:107C8000401C844200D30446306030B15FEA0800F3
:107C900001D00BE00E20BDE8F0810420FBE700BF1F
:107CA00018F8051038466D1C01F0AEFEA542F7D35A
:107CB00000203460EFE700002DE9F84F254C8146A5
:107CC000924660880E46814241D800274FF6FF78E1
:107CD0008DF80070684600F0FDF822786078A18881
:107CE000884201DA401C00E00020C0B2904204D17A
:107CF0009DF8000000F012F927E06578607888426E
:107D000001DA401C00E0002060709DF8000000F0E7
:107D100005F9454519D0A068B9F1000F40F835A024
:107D20000DD066B16188E068324605FB0100494626
:107D3000FEF7AAFBA06800EBC500868002E000EB1E
:107D4000C50087800020BDE8F88F0420FBE70920EC
:107D5000F9E700001096002010B50E4C03E0401C1F
:107D600000E00020207020786178814210D02278D5
:107D70006188E068A36802FB010003EBC20153F8CD
:107D80003220898890472078A1888842E9DAE6E79E
:107D900010BD00001096002030B5CB0008339DB216
:107DA00093074FF0000401D0072030BD044B9A60C8
:107DB0002A44DA605C701C7058809980002030BDC5
:107DC00010960020014801F092BC00002896002087
:107DD0003AB100680129426100D000210161002010
:107DE000704707207047000038B511480823582213
:107DF000416800910F49006802F0FAF9002815D196
:107E00000D4A69460D4801F077FC04000ED10121AE
:107E10000A4801F0ECFC0123094A1946074801F021
:107E20003EFC0649012008390870204638BD000094
:107E300090E3020000AF0020B5CE0200289600209B
:107E4000FFFF7F0070B50446007F0D4608B100209B
:107E500070BDA26101F0B2FE401941F10001C4E918
:107E60000201206900B125612146BDE87040002073
:107E700005F0B4BC014600200877012005F0AEBC37
:107E800010B501461048FFF7BBFE040019D10F489A
:107E90000F4A0178515C19B1001D04F03FFA02E06D
:107EA0000C3004F097F960B9084907480839FFF722
:107EB0008CFE30B9054901220839044802F054FE0D
:107EC0000446204610BD000068AF00204C960020FC
:107ED000DC95002030B5EFF3108172B60D4A94683E
:107EE000012324B10370002900D162B630BD936034
:107EF0004FF0E023D3F88051074C25401560C3F8BC
:107F00008041D3F8844154605A17C3F88421002279
:107F10000270E8E778AF0020FC06FFBD0B498A68D5
:107F2000002A11D000280FD1EFF3108072B60B6831
:107F30004FF0E022C2F800314B68C2F80431002251
:107F40008A60002800D162B67047000078AF002038
:107F50002DE9F041064608680C46411C4FF0A04749
:107F60004FF0010506D005FA00F1C7F808152068A2
:107F700002F072FF6068411C02D0002102F052FF43
:107F80003168A069C1F82405607D227D3168104305
:107F9000C1F86C05D4E900123068C0F81425C0F8A7
:107FA0000C15207D012815D1A068411C02D00021AC
:107FB00002F038FFE068411C05D08540C7F808553D
:107FC000E06802F049FFD4E902123068C0F80825E1
:107FD000C0F81015BDE8F0812DE9F04106460868AB
:107FE0000C46411C4FF0A0474FF0010506D005FAA2
:107FF00000F1C7F80815206802F038FF6068411CDE
:1080000002D0002102F017FF3168A069C1F82405F1
:10801000607D217D32680843C2F86C05D4E9001206
:108020003068C0F80C15C0F81425207D012815D142
:10803000A068411C02D0002102F0FDFEE068411C56
:1080400005D08540C7F80855E06802F00FFFD4E975
:1080500002123068C0F80825C0F81015BDE8F0819C
:108060007C210148FEF729BA80AD002070B5E0B14F
:10807000DAB1002402E0045D2C44A4B2651C8D42F8
:1080800006D21688A642F6D8061976789E42F2D114
:108090008C420AD2A31C005D9BB200B1401E0004BA
:1080A000000C02D01C188C4201D9002070BD138036
:1080B00070BD2DE9F0418AB006460020ADF81400ED
:1080C0001346102088468DF804000D4606AA01A923
:1080D000184664DFA6B398BB9DF80400022804D0BC
:1080E000042807D0102839D10DE003208DF81000A6
:1080F000022003E005208DF8100004208DF8110007
:10810000002404AF0FE007208DF810000620F5E7EB
:108110003B5D05AA41463046FFF7A8FF641CE4B268
:108120000546022C04D2BDF814000028F0D003E06C
:10813000BDF81400002812D080B2064400240BE0E1
:108140000CE030199DF8042006A9FEF7C8F948B1E3
:108150009DF80400204484B2AC42F2D300200AB05F
:10816000BDE8F0810120FAE7054808B5C168009133
:108170008168684602F0A7F80098FFF75BFC08BD2D
:1081800080AD0020FFF76CBF70B540B10C4D297871
:1081900039B1044604F0F4FD28B1002070BD0E2072
:1081A00070BD082070BDE868062807D2054922681E
:1081B00001EB8001401C0A60E860EEE7042070BD1E
:1081C000CC95002068AD002010B558B103684BB1C4
:1081D00042683AB1044900200124C8600C70C1E92A
:1081E000013210BD0E2010BDCC950020002827D0F4
:1081F000002925D0134A1278002A21D00A46018886
:10820000112911D0302907D0322909D0332917D1AB
:10821000011D104604F082B9011D104604F042BA57
:10822000011D104604F08AB88088B2F8CA1288424C
:1082300006D1002082F8C8024FF6FF70A2F8CA02E9
:1082400070470000CC95002048B1084A137843B12C
:10825000D26832B190F8C8222AB1112070470E209E
:1082600070470820704701F0C1B90000CC9500208C
:108270001CB50288011D04461F2A56D015DC102AA1
:108280001DD03148314BC01AC008032303EB004016
:10829000112A3ED0132A42D01B2A05D1097902297E
:1082A00002D12BA103F032F81CBD212A41D03B2A78
:1082B00045D0562AF8D1A088132176DF24E0A18882
:1082C0002B4A01EB410002EBC000002200F0ACF9A8
:1082D00008B1FFF76FFCFFF747FF082801D204F051
:1082E0002FFF072000F08AFC08B1FFF763FCA1888C
:1082F0002048FFF7A9FF08B1FFF75CFC1E4869465C
:1083000000680090A0888FDF0028CDD0FFF752FCD6
:108310001CBD0B790A8819A103F003F81CBD0023CA
:10832000A0881A4685217FDFEEE731F8040B75DF60
:10833000EAE700200190A08801A98FDFE4E7A08888
:10834000132176DFE0E7000024F00200ACEF02002A
:10835000436F6E6E656374696F6E205265717565EB
:1083600073742074696D6564206F75742E0000004D
:1083700058A50020A08F00204CE2020044697363DE
:108380006F6E6E65637465642E20636F6E6E5F68DA
:10839000616E646C653A20307825782C20726561B6
:1083A000736F6E3A203078257800000010B51A4CB3
:1083B0000188606810290ED011292BD1401E606001
:1083C00028D1FFF745FB002824D02168002921D0BF
:1083D000BDE810400847D0B900210122084600F04E
:1083E000EBFB08B107280FD107220221012000F082
:1083F000E3FB08B1072807D104220221002000F086
:10840000DBFB20B1072802D0216801B188476068F2
:10841000401C606010BD0000C49500202DE9F04FA5
:10842000044686880188424897B0834610290CD0BC
:10843000112950D0103019296AD01A2974D1217A03
:108440000C09042C4DD301224CE0394D083DA8689D
:10845000C0430B9069680BA801F035FF0B990CA87D
:1084600000F04CFE2C220CA96846FEF70DF8002700
:10847000E946A84610E000BF09EB47005FF00005A1
:10848000B0F804A008EB85005146001D01F0EFFE96
:108490006D1C1E2DF6D37F1C0098B842ECD8142E0C
:1084A00005D317B00420BDE8F04FFFF783BB31467A
:1084B000584601F0F2FE314608F1040001F0EDFEED
:1084C000E07B022830D117B03146BDE8F04F1848A4
:1084D000001D01F0E2BE17B03146BDE8F04F01F0DB
:1084E000C6BE0022314601F098FA032C01D30122C6
:1084F00000E000220E4831460C3001F08EFA022CCA
:1085000001D3012200E0002209483146083006E08C
:10851000217A002908D1617AC1F3C002314617B02F
:10852000BDE8F04F01F079BA17B0BDE8F08F000058
:1085300088AD002070B506461E481F4A0D46801AB9
:10854000C0080978032202EB004459B1012922D066
:1085500002292DD1204619A102F0D8FEBDE87040B5
:1085600004F0EEBD204619A102F0D0FE698805F1A5
:108570000E02304600F058F808B1FFF71BFB3046FA
:1085800000F002F908B1FFF715FB2046BDE8704086
:1085900013A102F0BBBEA989A86800F02BF91C4DFD
:1085A00020461CA1EA6802F0B5FEE868401CE860BD
:1085B00070BD000024F00200ACEF02004469736358
:1085C0006F6E6E65637465642E00000044697363AA
:1085D0006F7665727920636F6D706C6574652E00BF
:1085E000436F6E6E656374656420746F2064657696
:1085F0006963652077697468204E6F7264696320CF
:108600005541525420536572766963652E0000000F
:10861000788F00205265636569766520636F756E9B
:108620007465723A0925640050B141802AB15388BB
:10863000C3801388838092880281406901F094BFCF
:108640000E20704730B5144B0D4604000FCB85B09B
:108650008DE80F001ED0EDB1A868D8B1214668465C
:1086600062DF002814D120788DF812000120ADF8C7
:1086700010004FF6FF7060802868E0606868206135
:108680000020A0802081A868606104A8FFF77CFD1D
:1086900005B030BD0E20FBE76CE3020030B50246AA
:1086A00085B008002DD0002A2BD041884FF6FF74EA
:1086B000A14226D09388994223D11588112D14D038
:1086C000392D1ED1818800291BD053898B4218D1A6
:1086D000C168002915D001218DF8001002F11001A8
:1086E0000291D189ADF80C1008E08B4209D1C16824
:1086F000002906D002218DF800104480C268694626
:10870000904705B030BD30B585B00C460546142104
:108710006846FDF7D2FE207804F10E01002830D122
:10872000A08801282DD1A0792A78904229D1002251
:1087300017E002EBC20031F81030022B02D0032BFD
:108740000ED105E001EB40000089ADF8120007E012
:1087500001EB40000389ADF80E304089ADF8100000
:10876000521C207A9042E4D8E868002809D060883A
:10877000ADF8020000208DF80000EA68694628463E
:10878000904705B030BD000010B58AB058B341889D
:10879000A1F57F42FF3A28D0C18831B30446202199
:1087A0006846FDF78AFE01218DF8201000208DF823
:1087B00021000F4ACDE902248DF80010E288ADF8BF
:1087C00012200222ADF81620ADF814008DF810101A
:1087D00008A88DF81110069062886946606901F05A
:1087E000FBFE0AB010BD0E20FBE70820F9E70000F1
:1087F000859A0200F8B507460E46122002F07EFB6D
:10880000B0088500284601F065FC0446324639462A
:10881000FDF73AFE6A46214614480095FFF722FA12
:10882000042801D058B11AE011481249401AC00872
:10883000032101EB004010A102F068FD0FE0164893
:10884000816811B1491C816009E00121816000212A
:10885000124A0846FFF730FA08B1FFF7ABF91220C9
:1088600002F036FB204601F0E5F8F8BDE4A4002054
:1088700024F00200ACEF02005245434549564544FE
:108880002044415441204649464F204255464645E2
:10889000522046554C4C2100788F00203D9102001B
:1088A0000149085C7047000090E202000649095C3B
:1088B0004FF0A040D0F81005C84010F0010000D0E3
:1088C000012080F00100704790E202002DE9FC4198
:1088D0000646C0074FF000050ED0104F00240122BD
:1088E000385D009500231146019502F053FA641C8F
:1088F000042CF4D300F046F8B0070DD5074E002441
:10890000361D0022305D032300951146019502F0CB
:1089100041FA641C042CF4D3BDE8FC818CE2020013
:1089200007490B5C4FF0A041D1F804250120984085
:1089300020EA0203C1F808351040C1F80C05704761
:108940008CE202000249085C012102F0DEBA00005C
:108950008CE202000249085C002102F0D6BA000055
:108960008CE202000649095C4FF0A040D0F80405F3
:10897000C84010F0010000D0012080F001007047D5
:108980008CE2020010B500242046FFF7DBFF641CD8
:10899000042CF9D310BD10B500242046FFF7DAFFF0
:1089A000641C042CF9D310BD10B50246064B4FF0E1
:1089B000FF3000215C5C944201D1084610BD491C87
:1089C0000429F7D310BD000090E2020070B50C4EF0
:1089D0000C004FF0000530600BD0012000F06AF869
:1089E00008B1022004E0002000F064F800B10B2080
:1089F0002070706810B9FFF72BF80546284670BD47
:108A0000C495002010B5002000F032FA08B1062805
:108A100006D1012000F02CFA08B1062800D1002070
:108A200010BD00002DE9F0470D468146FFF7BCFF61
:108A30000446042836D2DFF874801B481C4EA8F187
:108A40000C0725B3012D0ED0022D2BD104EB4400D1
:108A500030444578002D25D0B968002922D0284619
:108A6000BDE8F047084704EB4401755C0E4471789B
:108A700049B10E4A4FF48041093A8068FFF7E2F9A4
:108A800008B987F80390B17808F80410E2E7806825
:108A9000FFF7F0F904EB4401314418F804008D7835
:108AA000A842D7D0BDE8F08794E20200C09500202C
:108AB00038AD0020042801D2FFF7F8BE002070472F
:108AC00070B50F280BD006DC042833D00A282CD030
:108AD0000E2840D103E0102801D011283BD11F49B6
:108AE0001F4A1D48891AC9080378032202EB014472
:108AF0005BB100210170FFF745FF05F0A5F808B153
:108B0000FFF758F8204617A10BE001210170FFF78D
:108B100042FF022005F084F808B1FFF74BF8204629
:108B20001AA1BDE8704002F0F1BBBDE87040002022
:108B300002F0AEBD1F4D002404EB440005EBC00065
:108B40001321408876DF082802D008B1FFF732F8F9
:108B5000641C082CF0DB70BD788F002024F002002C
:108B6000ACEF020053746F7070696E672073796E9A
:108B70006320626561636F6E207472616E736D69EC
:108B80007373696F6E210D0A0000000053746172E7
:108B900074696E672073796E6320626561636F6EBE
:108BA000207472616E736D697373696F6E210D0A43
:108BB0000000000058A5002070B50023042810D242
:108BC0000D4D00EB4004012A02D101290CD00022F6
:108BD000094E00EB4000304461B1012906D0022962
:108BE00006D00723184670BD0E30C2B22A55F9E7E9
:108BF0004270F7E78270F5E738AD0020044A01467D
:108C000000201279D20702D0084600F04DB8704714
:108C1000B495002070B506461E480024C0E90161E5
:108C2000B00720D50025012211462846FFF7C4FFD2
:108C30006D1C0446042D02D2002CF4D013E094B92C
:108C400040F2333204211448FEF732FF04000AD107
:108C5000FEF71CFF040006D10F48104A0021001F38
:108C6000FFF7B6F80446F00712D00120FFF72EFEFA
:108C700074B909480A4A00210C38FFF7A9F8040022
:108C800006D10548074A01210838FFF7A1F8044634
:108C9000204670BDB4950020A0E202007D8F020046
:108CA000259E0200877A02002DE9F05F6E4C054692
:108CB00000266078B34618B184F801B001F09AF844
:108CC0006A4F4FF47A694FF4C87A4FF00108182DB3
:108CD00069D2DFE805F00C1313384754696E727BD4
:108CE000727BC58484848484B3B6B9BCC5C501F0E5
:108CF00081F83868FFF7BEF806465CE00020FFF711
:108D000031FE00284FF0000008D0FFF71BFE022DB7
:108D100002D14FF4E16008E0484606E0FFF71AFE92
:108D2000022D01D1C82000E05046410CC0034FF491
:108D30007A72801841F10001257052000023FDF77E
:108D40005FFB01462AE00020FFF70CFE00284FF0F1
:108D5000000004D0FFF7F6FD4FF44870E5E7FFF799
:108D6000F9FDDFE70020FFF7FDFD00284FF00000D0
:108D700002D0FFF7E7FDCFE7FFF7ECFDD4E70020D7
:108D8000FFF7F0FD00284FF0000002D0FFF7DAFDFA
:108D900001E0FFF7DFFD257040F6CD410022386885
:108DA000FFF750F8064646E00020FFF7B9FD2570B2
:108DB00008E0002051E025703DE084F801800120AA
:108DC000FFF7AEFD002240F26661E8E784F801801B
:108DD0000120FFF7A5FD00224FF40051DFE778687E
:108DE000FFF748F80646D5F1110000D02EB1022059
:108DF000FFF7A8FD84F802B01DE0012816D980B263
:108E0000C8214843C117C90341EA5041C0034FF488
:108E10007A72801841F1000152000023FDF7F0FA48
:108E2000014600227868FFF70DF806460220FFF79A
:108E300091FD84F802803046BDE8F09F00F0DAFF33
:108E4000B9E700F0D7FFB4E700F0D4FF04E000F08A
:108E5000D1FF0020FFF77EFD0120FFF77BFDAAE791
:108E6000FFF799FDA7E70000B495002094E2020007
:108E7000012105F07DB900002DE9F84F0546861C5B
:108E800000208DF8000091460F464FF0010A684619
:108E9000FFF720F81B4C04F21C4860683860D4E9E6
:108EA0000101194F401A3968081A0EE001214046A5
:108EB00001F003FA00F0CCFF0146404601F0FDF955
:108EC000D4E90101401A3968081A401C8642EDD8DD
:108ED000B9F1000F03D0052065F3891002E00620E8
:108EE00065F39F5061683A68114004EB8101C860E6
:108EF0006068304460609DF80000FFF70FF850464E
:108F0000BDE8F88F28B100208496002070B50D468A
:108F100004460A2902D10D21FFF7F8FFA068226854
:108F2000411CA1601554D4E90101814204D32046BB
:108F3000BDE8704001F035BE70BD00000448816896
:108F40004068814201D10120704700207047000035
:108F500028B10020034630B5074800210478426854
:108F600006E000BF02EBC10005789D4203D0491C1A
:108F7000A142F7DB002030BDF895002000780221E7
:108F8000FFF750BD05494FF0FF32082841F8202077
:108F900002D3084480F848207047000010AE00203B
:108FA000F0B54FF0FF3512B10023082601E0082389
:108FB0000C260C4C05E000BF54F823707F1C04D035
:108FC0005B1CB342F8D32846F0BD26185DB286F884
:108FD000305044F82310002AF5D1E11881F84800F8
:108FE000F1E7000010AE00200249084490F930007B
:108FF0007047000010AE002030B589B00D46044621
:1090000020216846FDF759FA94F8C602002300EBC8
:109010008001C1EB801094F8C51204EB400041B10F
:10902000491EC9B201EBC10100EB4101498A491C4B
:1090300000E0C188008961F30F0360F31F43032040
:109040008DF800000548CDE90204054804932A463E
:109050006946806801F0C0FA09B030BD9D950200F4
:10906000CC95002070B5084C050009D0103421685B
:10907000002907D008682060496828468847F6E735
:109080000834F4E770BD0000FCAD0020054A012162
:1090900020B1012805D19170FFF7E4BF5170002085
:1090A000FAE77047FCAD002010B5D0E90234D1E9F1
:1090B0000220D11AA04101D3012010BD002010BD13
:1090C0001CB500200090019001208DF80000694639
:1090D000022067DF002801D0FEF76CFD1CBD10B533
:1090E00002460020138806E0546834F810408C4291
:1090F00003D0401C80B28342F6D810BD73B58CB04B
:109100000646002000900D9880B100246D4621464F
:109110000DA801F0B7F830B1009805EB400084804D
:109120000098401C0090641C142CF0D32C2269463B
:109130003046FDF7A9F90EB070BD00002DE9F04FE3
:10914000A1B0162001F0DAFE4748484A0321101A60
:10915000C00801EB00451F907BE0284644A102F0C7
:10916000D9F8102000F0B6FF04461020209020AA65
:1091700021464648FEF751FD002867D14C210CA836
:10918000FDF79BF91822424906A8FDF77DF9E06832
:10919000FDF7BBF982468B46A068FDF7B6F980461D
:1091A00089466068FDF7B1F906460F462068FDF76D
:1091B000ACF98DE8C00F41EC100B36A153EC102B2D
:1091C00006A8FDF797FF384F30482A2607F110020E
:1091D00006A910383E61FEF745FD042801D028B1EC
:1091E00031E0284631A102F091F82CE02E48354AB2
:1091F00014300178515C19B1001D03F08FF802E0C2
:109200000C3002F0E7FFF0B92049274A1031103244
:10921000A1F120003E61FEF700FDA0B91B492248E4
:109220003A7C1031143001F08FFC06000BD0112E67
:10923000F4D01F98012101EB004023A102F066F851
:109240003046FEF7B7FCB868401EB860204600F014
:10925000F1FB15498A68002A7FF47FAF21B0162000
:10926000BDE8F04F01F034BEACEF020024F0020084
:10927000417070207363686564756C6572206578F1
:1092800065637574653A202564000000E4A400203D
:1092900054E2020077256677612566616225666281
:1092A000632566630A000000788F00205541525400
:1092B000204649464F204255464645522046554C89
:1092C0004C210000DC9500206E72665F6472765F50
:1092D000756172745F7478206661696C6564000002
:1092E00070B588B00646002005900690ADF81410C1
:1092F000ADF816100190029001AA05A9304690DF42
:10930000050021D002F002FD034611481149324602
:10931000401AC108012000EB014004460E4902F04A
:1093200000F8BDF8042012B9BDF8060028B1BDF858
:109330000630204609A101F0F4FFBDF808201AB15B
:109340002046164901F0E6FF08B0284670BD00002F
:10935000B4EF0200ACEF02008CE702005468652015
:109360007265717565737465642054582F52582066
:109370007061636B6574206C656E677468206973D7
:1093800020746F6F206C6F6E672062792025752FB7
:109390002575206F63746574732E0000D8E7020092
:1093A0004188044A01EB410102EBC102014610462B
:1093B000FFF7A9B958A500202DE9F04389B00F4661
:1093C0000546914620216846FDF777F895F8C602D4
:1093D00095F8C54200EB8001C1EB801005EB40061B
:1093E00004EBC40006EB40013279601C0A31904264
:1093F00032D108AB0022284600F0CAFC78B310E056
:10940000401EA04201D1002004E004EBC40006EBA2
:1094100040001C308046024608AB284600F0B8FCED
:1094200090B10020387004208DF8000008984A465A
:10943000CDE903500C4802900C486946806801F061
:10944000CBF809B0BDE8F08395F8C5024146401C51
:10945000641C85F8C502E4B23079A042D0D801205E
:1094600038700020EDE700009D950200CC950020AB
:1094700070B500240F4D10E0686800EBC40630782A
:1094800002F06EFD7178012901D0012100E0002178
:109490004140307800F034FA641C28788442EBDBD9
:1094A000D5E90401084303D0BDE8704004F0B2B927
:1094B00070BD0000F895002030B59FB00C46054601
:1094C0007C216846FCF7F9FFADF8024003208DF8D7
:1094D0000000044801954168002901D0684688478A
:1094E0001FB030BDCC9500202DE9F041044690F826
:1094F000C602884600EB8001C1EB801004EB4006F9
:109500001746304603F03CFC050042D0D4F8CC02AC
:1095100006283ED204EBC0107622A0F8D272D4F80E
:10952000CC02314604EBC01000F53570FCF7ACFFFF
:109530000026B8F1000F06D0D4F8CC0204EBC0101E
:1095400080F8D06206E0D4F8CC12022004EBC111FE
:1095500081F8D002D4F8CC0204EBC010C0F84C5310
:10956000D4F8CC020C4D401CC4F8CC02E968884207
:109570000FD12746002407E007EBC41101F5347032
:10958000D1F84C138847641CE8688442F4D3C7F8C8
:10959000CC62BDE8F0810000CC950020F0B5154606
:1095A0009FB0002281F8C822074691F8C6020C46F7
:1095B00000EB8002C2EB801001EB400003F0E0FB07
:1095C000060009D07C2208496846FCF75DFFADF82B
:1095D000025068460197B0471FB029462046BDE8B3
:1095E000F040FFF769BF0000C0E20200F0B50D4691
:1095F00089B004464FF4BA61FCF75FFF202168464A
:10960000FCF75BFF154E2946B06800F0ADFF00285F
:1096100021D1A4F8CA52C4F8CC0284F8C70284F855
:10962000C60284F8C5020E4801272A460068206059
:1096300002208DF80000ADF810702068CDF81200FF
:109640000848CDE902046946B06800F0C5FF00286B
:1096500001D184F8C87209B0F0BD0000CC9500209B
:1096600068AD00209D95020010B50021024800F071
:1096700035FE80F3100010BD44B500204FF4803259
:109680008A400168C1F848230068C0F80823704781
:109690004FF4A07202EB810189B200F0A1B92DE96B
:1096A000F04105460E464FF4A07000EB860081B2F3
:1096B00028684FF48034B440984622F07F47C0F8C1
:1096C00008432868C0F84843286802F0CCF82868A6
:1096D00000EB8600C0F840752868C0F84443B8F134
:1096E000000F02D02868C0F80443BDE8F08100688C
:1096F000D0F804057047000070B54379234C44F856
:1097000023204279231D03EBC202224C1579204A03
:10971000121BD4082DB10825022000EB04401EA125
:1097200030E005680A88C5F8082590F90420897892
:10973000002A4FEA411104DB02F1E02282F8001412
:1097400005E002F00F0202F1E02282F8141D90F908
:1097500004100122002909DB01F01F0502FA05F5BA
:109760004909890001F1E021C1F800514179002542
:1097700003EBC1010A71417943F83100032000EB8A
:1097800004400EA101F0C2FD284670BD6096002085
:109790000CF00200ACEF020052544320696E737467
:1097A000616E636520616C726561647920696E69C0
:1097B0007469616C697A65642E0000005254433A02
:1097C00020696E697469616C697A65642E000000B5
:1097D00090F90400002809DB00F01F0201219140EC
:1097E0004009800000F1E020C0F8001270470A46EE
:1097F000022100F07BB84FF4827100F0F1B80068EC
:1098000001210160704700680121416070472DE926
:10981000F05F07460C464FF4A07000EB84001FFA7F
:1098200080FA38684FF48036A6409B4622F07F4588
:10983000C0F848633868C0F808633868D0F8048511
:1098400000EB8402D2F84095C2F840855146386852
:1098500002F009F8A9EB080020F07F40012806D1AA
:10986000102002F0BFFA5146386801F0FCFF38685A
:10987000D0F80485C0F84463A5EB080121F07F41CE
:109880003868012900EB840010D0C0F840553868D2
:10989000D0F804156FF07F4C6A1A521E22F07F42F6
:1098A000ACEB0B03934217D362B118E06D1CC0F808
:1098B0004055102002F096FA3868D0F8040540456B
:1098C0000AD10CE000EB84006D1CC0F840553868EC
:1098D000D0F80405884202D00D20BDE8F09F012297
:1098E0003146384600F002F80020F6E70368C3F876
:1098F0004413002A02D00068C0F804137047000027
:109900002DE9F84F0E463449804601EB5001C0075F
:10991000097801D00F0901E001F00F074FF00009AD
:10992000424601204946FCF79CFDDFF8B0A0044602
:109930000D46052F4ED2DFE807F003161B282C003A
:10994000002E47D00121404603F01CFD8DF8009009
:109950006846FEF7BFFA5046D0E904120C4315439F
:10996000CAE9044532E00EB1022114E0002112E000
:109970004EB10321404603F005FD4046BDE8F84FD7
:10998000012104F0A5BB012105E0002E22D1042114
:1099900001E02EB103214046BDE8F84F03F0F2BCD0
:1099A0000021404603F0EEFC0021404604F090FB0D
:1099B0008DF800906846FEF78DFA5046E243D0E9F4
:1099C00004341A4024EA0501CAE904219DF8000084
:1099D000FEF7A4FABDE8F88FE0AE0020F89500206D
:1099E00010B5006842581AB101F03DFF012010BDCA
:1099F000002010BD826883881A4003689A5C0A7050
:109A00008168491C81607047C26883881A40036876
:109A10009954C168491CC16070470AB100F03DBC4F
:109A200000F025BC10B50446C0B2FEF729FA204666
:109A300010BD000010B5002821D0114B0022001FDE
:109A4000196803E0814203D80A4649680029F9D120
:109A500052B11368841A9C4204D100681844106003
:109A6000104602E0506000E0186039B102680B1A3D
:109A7000934203D10B681A4402604968416010BDEB
:109A8000489700200969002900D008477047000066
:109A900070B508880D46A0F52061773916D10C48BD
:109AA0000C49401AC108032000EB01440AA12046DA
:109AB00001F02CFCA88810A1C01E82B20D481346EC
:109AC00042802046BDE8704001F02BBC70BD000014
:109AD00024F00200ACEF0200415454204D545520B4
:109AE00065786368616E676520636F6D706C65741F
:109AF00065642E00788F0020426C65204E555320FF
:109B00006D61782064617461206C656E6774682093
:109B100073657420746F20307825582825642900D7
:109B200010B50949094800F050FC08B1FEF742F8A9
:109B3000F721064800F03DFC002803D0BDE81040A6
:109B4000FEF738B810BD0000919A020018A6002058
:109B500070B50D4601F11004C98A102901D90920F8
:109B600070BD01F0F0FC686030B1E2880023A168AC
:109B700001F04FFD002070BD042070BD70B50D4692
:109B800001F1100489690988102901D9092070BDE3
:109B9000891C01F0D8FC686068B100230222A1682A
:109BA00001F037FDA068E16802230288686801F0CF
:109BB00030FD002070BD042070BD000010B50B48C2
:109BC000FFF795FD094A083AD2E90434C018D2E9F2
:109BD000063244F10001C31A71EB020204D24FF0C5
:109BE0008072801841F1000110BD0000289600200D
:109BF00010B5C0B2FFF7AEF90446007802F0B0F934
:109C000001466078012801D0012000E0002090EAA0
:109C1000010F08D00449D1E90401084303D1BDE88C
:109C2000104003F0F7BD10BDF89500202DE9FC5F52
:109C30000E008346DDE90C47C6F1000098469246C7
:109C4000814600D40846012503E000BF90FBFAF0EE
:109C50006D1C5045FADAA84500D9454624B1002EBE
:109C600001DB780700D5641EB80702D5B8F1000FF4
:109C70000AD0F80708D13CB1A54205D220215846A8
:109C8000641EFFF743F9F6E7002E02DA4E462D2157
:109C900002E0780703D52B215846FFF737F907F084
:109CA000030002280BD1B8F1000F08D13CB1A54246
:109CB00005D230215846641EFFF728F9F6E7CDE9B2
:109CC0000047434652463146584604F055F9BDE830
:109CD000FC9F000070B50D46044600684FF4887183
:109CE00002F034F84FF49071206802F02FF84FF42E
:109CF0009271206802F02AF84FF4A271206802F0F5
:109D000025F84FF4AC71206802F020F82068124961
:109D1000C0F804132068690740F30730090E0028D3
:109D200004DB00F1E02080F8001405E000F00F00F3
:109D300000F1E02080F8141D206840F3073000286F
:109D400009DB00F01F02012191404009800000F171
:109D5000E020C0F8001170BD100342000246002050
:109D60001268530713D502F00300012802D002281D
:109D70000CD105E0C2F383100B68801C184404E08A
:109D80000223086803EB92521044086001207047D8
:109D900010B509892AB1D088491C814218D1002008
:109DA00010BD90F8C62202EB8204C4EB821200EBD5
:109DB000420212899142F2D0491C198090F8C612D1
:109DC00001EB8102C2EB811100EB4100008902E04E
:109DD0001980D088401E5880012010BD007DC0F33E
:109DE000C100012803D0032801D0002070470120C2
:109DF000704700000A4810B5807860B1002401E087
:109E0000022C06D02046FEF79DFD641C042CF7D3DF
:109E100010BD0324F6E7BDE81040FEF7B3BD000017
:109E2000B495002003480179C90702D00078FEF7F5
:109E30003BBF7047B4950020F72101801721418076
:109E4000002101714171FB2181711B21C17170479A
:109E50002DE9FF410026244800F02CFA2248001F7B
:109E6000074600F027FA214C2149A06800900D68B0
:109E700000E000986946284004EB80000C30FFF7B2
:109E80006DFF0028F5D101AA009901EA050304EB52
:109E90008303491CDB6842F82030401C00910228F3
:109EA000F2D3019800F0030001280BD0022810D152
:109EB0000198032101EB90500099BDF80A6001EB75
:109EC000900005E00198BDF80A60C0F383100844D3
:109ED0000090384600F0EBF908B10098A06004B09B
:109EE0003046BDE8F081000040B5002028B10020D8
:109EF000849600200EB54FF48041002001F088FACE
:109F000008B1FDF757FE01F0D7F8FDF76DFF08B176
:109F1000FDF750FE03F0C8FE4FF40064204600F049
:109F2000D9F80646204600F0D5F8054622463146C7
:109F30004D48FDF755FE08B1FDF73CFE4A48224664
:109F400029461030FDF74CFE08B1FDF733FE474AB5
:109F5000C8210820FDF720FF08B1FDF72BFE44497A
:109F60000320FEF757FE08B1FDF724FE69460020E6
:109F7000FEF72CFD08B1FDF71DFE3F4C3D48CDE935
:109F8000000400256846FEF71FF908B1FDF712FE30
:109F900001F048FB08B1FDF70DFE01F0D9FD08B155
:109FA000FDF708FE69460120009501F06DFC08B13F
:109FB000FDF700FE684601F003FD08B1FDF7FAFD6C
:109FC000FFF77EF8FFF7ACFD2C4800902C48CDE958
:109FD0000104254D0024843504EB440005EBC0004A
:109FE0006946FEF72FFB08B1FDF7E4FD641C082C61
:109FF000F2DBFEF7C7F803F077F822A0FDF76AF866
:10A0000029482A49401AC008032101EB004028A131
:10A0100001F07CF903F094F803F016FA122000F036
:10A0200013FF132000F010FF142000F00DFF162086
:10A0300000F00AFFFDF790FE142000F05FFF00BF64
:10A0400001F048F80028FBD1142000F041FF132054
:10A0500000F03EFF01F03EF808B901F0F7FA1320D6
:10A0600000F04CFFE6E70000D4A400204498002054
:10A07000C18A0200A193020070950020358502007C
:10A0800039C30200424C4520554152542063656E4D
:10A090007472616C206578616D706C652073746199
:10A0A000727465642E0D0A0024F00200ACEF020009
:10A0B000424C4520554152542063656E7472616C68
:10A0C000206578616D706C6520737461727465646D
:10A0D0002E000000F0B50B30154D20F007010024D4
:10A0E000144A0FE003688B420BD38B4205D95E1AEA
:10A0F00043184768C3E9006700E04368136002C083
:10A1000004E0021D10680028ECD12046002802D18E
:10A11000286808B10020F0BD064A07481060074AC9
:10A12000121A22F00702C0E9002401202860D7E7B4
:10A130004C970020489700207CB8002078D8002059
:10A140002DE9F047C5881E1DB6FBF5F78946B6FB1D
:10A15000F5F1044605FB176C407916686843DDF895
:10A1600020A0F718001F874200D9C61A166001E028
:10A170002468491E0029FBD1A5EB0C078846B7428D
:10A1800016D818E004EB0C00001D09EB0803BAF127
:10A19000000F3A4602D00146184600E01946FCF787
:10A1A00073F92468F61B4FF0000CB844B54201D98E
:10A1B000374600E02F46002EE4D1BDE8F0870000CE
:10A1C00030B5024651B101F037F90021074C08E0E3
:10A1D00034F821301568AB4202D11160002030BD47
:10A1E000491C8142F4D3052030BD0000000000006E
:10A1F00010B531B1B2FBF3F403FB14241CB10920F8
:10A2000010BD0E2010BD016000214160816082817F
:10A21000C381084610BD70B50C460546FCF708F82A
:10A22000002802D021882868084470BD10B50A882B
:10A2300049888A4203D1FCF73DF8012010BD002077
:10A2400010BD70B50C460546FCF717F8002802D083
:10A2500061882868084470BD10B50A8849888A4218
:10A2600003D1FCF701F8012010BD002010BD01F062
:10A270001F0301229A40D243490900EB8100114695
:10A2800000F021B84A0950F8220001F01F02012114
:10A290009140084000D00120704701F01F030122C7
:10A2A0009A40490900EB8100114600F01CB80021DA
:10A2B00000F00FB8012100F016B808B56A46FCF7A7
:10A2C0004EF8009808BD08B56A46FCF72EF80098CD
:10A2D00008BD08B56A46FCF728F808BD08B56A4607
:10A2E000FCF70AF808BD08B56A46FCF711F80098B3
:10A2F00008BD08B56A46FCF73FF8009808BD38B5B8
:10A30000044600258DF800506846FDF7E3FD2168FE
:10A310006268086890420ED9401E08600178238A5E
:10A32000E26801FB0325227A2168101AC0B20A797B
:10A33000824200D208719DF80000FDF7EFFD28462B
:10A3400038BD38B5054600208DF800000C4668463B
:10A35000FDF7C0FDE868298A201AB0FBF1F12A68F0
:10A360001068431C136001709DF80000FDF7D6FDD6
:10A3700038BD10B530B1017A42680368891AC9B294
:10A380001A6006E00E2010BD03681A68541C1C6099
:10A390001170491EC9B2F7D2006800210171084648
:10A3A00010BDC20800F007030120895C98400840F6
:10A3B000704728B1A1F11702E12A03D307207047A3
:10A3C0000E20704741800020704770B5040010D007
:10A3D000F720A16420806080FB202071002504EB21
:10A3E000C500801DFFF728FD6D1C082DF7D3002048
:10A3F00070BD0E2070BD00002DE9F04185888EB043
:10A400000C46082D7ED20188474E4FF000082429C3
:10A4100040D006DC102909D011290CD023295FD1A6
:10A4200054E03A290DD055295AD12EE00146204654
:10A4300002F020F854E004EBC500801DFFF7FCFC9F
:10A440004EE0294604EBC107408937F8062F8242C7
:10A4500000D810467880172800D217207880A06C8A
:10A4600070B1787960B1D6E90002CDE90002ADF8AB
:10A4700002107888ADF80400A26C20466946904727
:10A4800087F8058087F804802AE00146204602F01C
:10A49000B3F825E0011D2C226846FBF7F5FFBDF857
:10A4A0000000BDF8042004EBC0014A73A26CBAB1ED
:10A4B000D6E90423CDE90B23ADF82E00487B8DF8B7
:10A4C0003000A26C20460BA9904709E004EBC503BD
:10A4D000017A187B884200D201462846FEF700FF29
:10A4E00004EBC504A07A00281AD0E1882846A5DF2D
:10A4F000012590B1112813D001F008FC02460B4849
:10A500000B4900E00CE0401AC0080EB005EB00401B
:10A51000BDE8F04107A100F0FDBE84F80A80E572B5
:10A520000EB0BDE8F08100003CE30200B4EF020091
:10A53000ACEF020073645F626C655F6761747463A3
:10A540005F65786368616E67655F6D74755F72657E
:10A55000717565737428292072657475726E6564EF
:10A560002025732E000000002DE9F0410F46040065
:10A570004FF000050DD002F01BFB39462046FEF7D8
:10A58000AEFD218881421ED1002005464FF6FF76A0
:10A5900009E00E20BDE8F081626832F81020B24276
:10A5A00006D1401C80B28142F6D8206901F018F82B
:10A5B000002021880BE0626832F81020B24204D1FA
:10A5C000616821F810702846E4E7401C80B281429F
:10A5D000F1D80420DEE700002DE9F04791460D4652
:10A5E00004004FF0000742D0EDB302F0E1FA494613
:10A5F0002046FEF774FD2978062902D2218881427F
:10A6000002D10720BDE8F087A16800EB800601EBCE
:10A61000860001F0A2F830B14946284602F0F0FB6E
:10A6200008B13846EEE72978DFF8488058F821204D
:10A630002AB12069B8B1294690470028E2D1A06824
:10A64000294600EB860001F0A7F8070006D029781C
:10A6500058F8210010B1686800F0A5FFA0684946CD
:10A6600000EB860000E002E002F00AFAD9E70E20D3
:10A67000C8E7000054E30200F8B505000C4620D0FE
:10A68000002C1ED02888112806D0A0F130011F29E7
:10A6900002D950381F2814D8AE8820463146FEF71C
:10A6A0001EFDADF80000218881420AD029881129B9
:10A6B00008D0A16800EB800001EB8000314602F079
:10A6C000DFF9F8BD62684FF6FF7122F81010694695
:10A6D000E06801F061F8F8BD2DE9F041044600F1B1
:10A6E000140700F10A05867C007A86B001F10208A1
:10A6F000002814D08BDF14216846FBF7DEFE3346BA
:10A700002A46394640468CDF05218DF8001001901D
:10A71000002804D0616A002901D06846884706B045
:10A72000BDE8F0814FF4C8710182062141815021BA
:10A7300081810021C1817047017DA022C282502207
:10A74000028321F018010022428341F004010175C7
:10A75000012141757047F0B520B11AB1032903D02A
:10A760000720F0BD0E20F0BD04790346051D0CB195
:10A770000420F0BD00211688084633F82170B74246
:10A78000F7D0491C11F0FF01F7D003EB8401641CE2
:10A790002C7012680A60F0BD18B1002141710846A2
:10A7A00070470E20704710B50B46040002D0980782
:10A7B00002D009E00E2010BD580705D4D80603D4F6
:10A7C000180701D4072010BD2046FFF7E5FF580702
:10A7D00001D501206071A271002010BD70B50D4639
:10A7E000040010D00026266066606262EDB1287910
:10A7F0002072287BA074296839B10E2204F114005C
:10A80000FBF742FE04E00E2070BD2046FFF794FFE8
:10A81000A86830B10168C4F80A104068C4F80E0096
:10A8200009E02046FFF77EFF05E0FFF785FF2046A1
:10A83000FFF778FF267204F12800A0641F20A4F817
:10A840004C00002070BD2DE9F04F044689B0002077
:10A8500088460746069014216846FBF72EFE04F151
:10A86000140004902046FFF7B9FA010004F14800F3
:10A87000059011D002208DF80000CDF80480616AA7
:10A8800068468847002005998ADF41462046FFF741
:10A8900023FF09B0BDE8F08FA0790021079161790D
:10A8A000834621B301210691824694F80490002644
:10A8B000B8F81C003546089012E004EB8502D8F881
:10A8C00018000899FDF7F5FB28B1761CF6B2BAF12D
:10A8D000000F0DD002E0BAF1000F06D16D1CEDB2F1
:10A8E0004D45EAD3BAF1000F02D04E4501D009E040
:10A8F00046B19DF8080040F004008DF808000120E2
:10A900007F1C0790CDF80480BBF1000F02D00698A1
:10A91000874203D0079830EA0B0007D000208DF85B
:10A92000000041462046FFF7D7FE02E003208DF8E5
:10A930000000616A09B168468847002005998ADFEE
:10A94000A7E770B50D46014601F108020C1D284627
:10A950000988143586B010291ED01B2907D01D295F
:10A960002DD106B01146BDE87040FFF76CBF06461A
:10A9700014216846241DFBF7A0FD207801281ED174
:10A98000706A00281BD004208DF800000495207800
:10A990008DF80400716A10E0064614216846FBF742
:10A9A0008CFD06208DF80000201D01902088ADF858
:10A9B00008000495716A002901D06846884706B0EE
:10A9C00070BD000030B585B0040025D01421684664
:10A9D000FBF773FD8BDF2046FFF700FA012528B156
:10A9E000616A19B18DF800506846884704F1480142
:10A9F00004F114008ADF044608280FD074B1084817
:10AA000008492246401AC00805EB004006A100F0A4
:10AA100081FC204605B030BD0E20FBE70020F9E7A1
:10AA2000C4EF0200ACEF020073645F626C655F67A5
:10AA300061705F7363616E5F7374617274207265BD
:10AA40007475726E656420307825780000F180405E
:10AA50000068002800D00120704708B500F1804050
:10AA6000002101600068009008BD000070B50D4C29
:10AA70000125207808B185260EE00020A0606060E6
:10AA80002061E060084801F085F9064601F0ACF865
:10AA900008B901F069F9257001F05EF900B1A570FF
:10AAA000304670BDFCAD00208D90020038B5002509
:10AAB0008DF800506846FDF70DFA084CE068401E1E
:10AAC000E060E06828B901F047F910B901F072F9C7
:10AAD000A5709DF80000FDF721FA38BDFCAD0020FF
:10AAE000F0B505460478154889B0164640F824208C
:10AAF000124A0869121DA2F1080742F82400487F93
:10AB0000385520226846FBF7BFFC04942878385C4F
:10AB100048B10EB10A4A00E000226946281D01F042
:10AB200071FB09B0F0BD0EB1064A00E00022694693
:10AB300005F10C0001F090FAF3E70000E095002029
:10AB400035DE0200D9DC020030B40378054CE35C4A
:10AB50001BB130BC001D01F08BBB30BC0C3001F0D0
:10AB6000E5BA0000DC95002030B40378054CE35CC6
:10AB70001BB130BC001D01F07BBB30BC0C3001F0C0
:10AB8000D5BA0000DC9500200FB408B50399002960
:10AB900004D004AA00926A4600F00FF801B05DF8F4
:10ABA00014FB10B582680446002A05D0D4E90403DA
:10ABB000216898470020A06010BD2DE9FC47914610
:10ABC0000C00804676D014F8011B39B125290ED02F
:10ABD0004046FEF79BF920780028F4D198F80C0045
:10ABE000002867D04046BDE8FC47FFF7DABF0020E9
:10ABF000012221782B291BD02D2902D0302908D100
:10AC000002E040F0010001E040F00200641C002A74
:10AC1000EFD100252A290ED02178A1F130020A2A8D
:10AC200011D205EB850201EB4205641C303DF1E7D2
:10AC300040F00400EAE7D9F800100B1DC9F8003015
:10AC40000968641C0D44217800232E290BD114F8C7
:10AC5000011FA1F130020A2A05D203EB830201EBA6
:10AC60004203303BF3E76C290DD068290BD06929EA
:10AC700021D00BDC252918D0582931D063290ED0DA
:10AC8000642915D117E014F8011FECE7702969D089
:10AC9000732932D075291BD0782909D120E0D9F841
:10ACA0000000011DC9F8001001784046FEF72EF99A
:10ACB000641C90E76CE0D9F800100A1DC9F8002068
:10ACC0000968CDE900500A224046FEF7AFFFEFE7E2
:10ACD000D9F800100A1DC9F8002009680A2206E008
:10ACE000D9F800100A1DC9F8002009681022CDE922
:10ACF0000050404603F040F9DAE7D9F80010002789
:10AD00000A1DC9F800200E68C00705D112E04046B0
:10AD1000761C7F1CFEF7FAF831780029F7D104E0A1
:10AD2000202140466D1EFEF7F1F8BD42C0D9002D2E
:10AD3000F6D1BDE74EB13046FBF7CAFB074604E04B
:10AD4000202140466D1EFEF7E1F8BD4206D9002DD8
:10AD5000F6D103E04046761CFEF7D8F8317800299A
:10AD6000F8D1A5E7D9F80000011DC9F80010056861
:10AD700030214046FEF7CAF878214046FEF7C6F873
:10AD800008200021CDE90001034610222946B0E742
:10AD9000BDE8FC8770B541EA4201DDE904564FF099
:10ADA000A04441EA830141EA052104EB800041EA25
:10ADB0000641C0F8001770BD70B541EA4201DDE9F7
:10ADC00004564FF0A04441EA830141EA052104EB17
:10ADD000800041EA0641C0F8001770BD70B541EA35
:10ADE0004201DDE904564FF0A04441EA830141EA03
:10ADF000052104EB800041EA0641C0F8001770BD50
:10AE000070B541EA4201DDE904564FF0A04441EA41
:10AE1000830141EA052104EB800041EA0641C0F8C4
:10AE2000001770BD1CB500220B460092114601921E
:10AE3000FFF7D4FF1CBD1CB500220B460092114643
:10AE40000192FFF7DDFF1CBD4FF0A04202EB800036
:10AE50000321C0F8001770471CB5002100910B4674
:10AE6000012201911146FFF7B9FF1CBD1CB500215D
:10AE700000910B46012201911146FFF7C1FF1CBD55
:10AE80004FF0A04202EB8000D0F8002722F44032BD
:10AE9000C0F80027D0F8002742EA0141C0F80017A7
:10AEA0007047000038B5094B44181B6800936B4687
:10AEB00008E000BF53F82010D1F8205520C2C1F897
:10AEC0002055401C8442F5D838BD00007CE30200C8
:10AED0004FF0A04201218140C2F80C157047420991
:10AEE0004FF0000100D1491E00F01F0001228240F6
:10AEF0000A4201D001207047002070474FF0A04265
:10AF000001218140C2F80815704701224FF0A0438B
:10AF1000824011B1C3F808257047C3F80C2570476B
:10AF2000034908B50844002101600068009008BD8D
:10AF30000060004002494058012800D000207047BE
:10AF40000060004030B5154A01460020D2F8104498
:10AF500023460AE0DB681D79854205D1401C0A289A
:10AF6000F6DB4FF0FF3030BD1B68002BF2D1431CE5
:10AF7000F9D0CB681871D2F8103443B1DB68CC68D3
:10AF80001B682360D2F81024D268116030BDC2F86B
:10AF90001014C96800220A6030BD000028B10020EA
:10AFA0007047FBF71BBE704708B5034A0092402369
:10AFB000024A00F005F808BD1DD2020090AF002043
:10AFC000F0B595B01C4615460F4608461A9E00F08F
:10AFD00003FB182109A8FBF770FA0E96CDE9095476
:10AFE0000023082203A9384600F00BFB05980690C1
:10AFF000BDF81000ADF81C00BDF81200ADF81E0041
:10B0000000208DF821000398082600F00300012895
:10B0100002D0022818D032E003983346850AC0F3E4
:10B02000C2008DF8200003980FA9C0F38314A2007A
:10B03000384600F0E6FA09A8009006AB22460FA9B0
:10B04000284600F025FA1AE00398840DC0F3C200E8
:10B050008DF82000082C01D2254600E00825334653
:10B060002A460FA9384600F0CCFA2E44641B09ABDF
:10B0700006AA29460FA800F073F9002CEAD1384639
:10B0800000F0B0FA15B0F0BD0A4A012902EBC00089
:10B0900007D0022907D0032907D0042907D00020B0
:10B0A000704702207047042070470079704740794C
:10B0B00070470000ACEF020010B5FFF772FF0421EB
:10B0C0000348FFF73FFF02490120C968487110BDDE
:10B0D0009CEF02002DE9F04F8DB0FDF72FFF18B166
:10B0E00000200DB0BDE8F08F7E4C4FF0000BC4F88F
:10B0F00018B4BFF34F8F7C49A06802900D68D84602
:10B10000284004EB80000BE0D4F8180470B96168A3
:10B110000298814201D8A160E2E7284004EB800058
:10B120000C3002A9FEF71AFE0028EDD1002005AA76
:10B13000029901EA050304EB8303491CDB6842F82A
:10B140002030401C02910228F2D3059800F0030041
:10B15000022802D001284DD0AAE005985022810D86
:10B160008946B2EB905F00D850210E4666F39F509F
:10B17000059008315D4800F0E6F9070078D000F04E
:10B180002BFA4346082205A9384600F042FA0299F4
:10B1900008F1080A2940681A8000001D864222D959
:10B1A000504D0C3530B1C2B204EB8101301A9046DB
:10B1B0000C3104E02946F2B2002590462846C6B27A
:10B1C0005346384600F025FA0AEB080325B132460B
:10B1D0002946384600F01DFA029909F1030001EBF7
:10B1E000900002903BE004EB810153463246384622
:10B1F0000C31EFE70598C0F38310062800D3062032
:10B20000059960F38911C1F38310801C05918100B9
:10B21000364800F098F907004AD000F0DDF94346BF
:10B22000082205A9384600F0F4F908F108080026BC
:10B230000FE00298434600EA0501401C04EB81013F
:10B240000290042238460C3100F0E3F908F10408BA
:10B25000761C0598C0F38310B042EAD847B1D4F801
:10B260001054D4F8180478B1384600F0BBF934E033
:10B270001EE0E8684079012804D12A68284639464A
:10B2800012689047E8680568002DF2D1384600F052
:10B29000A9F98DF800B06846FCF71CFED4F8180434
:10B2A00008B90298A0609DF80000FCF737FE14E092
:10B2B000D4F8104405E02168204689688847E06892
:10B2C0000468002CF7D10A480A49401AC008022134
:10B2D00001EB004008A100F019F8FDF72FFE80F007
:10B2E0000100FEE628B100208496002060F00200F4
:10B2F00024F00200ACEF02004261636B656E647380
:10B3000020666C75736865640000000000231A46AF
:10B3100002F050B808B5012300926A4602F04AF8DC
:10B3200008BD1CB5CDE9002302236A4602F042F8AD
:10B330001CBD3EB5069C8DE81C0003236A4602F046
:10B3400039F83EBDF0B587B00DF1300C9CE8F00047
:10B350008DE8FC0006236A4602F02CF807B0F0BD29
:10B360002DE9F0470E4680461C469246082940D8F3
:10B3700094F80C90002020731946104601F028FB29
:10B380000025B54206D218F805201BA12046FFF77C
:10B39000FBFB03E01AA12046FFF7F6FB6D1C082D0E
:10B3A000EFD318A12046FFF7EFFB0025B54212D2DC
:10B3B00018F805707E2F08D8FBF762F80068C05DAA
:10B3C00010F03E0F01D03A4600E02E220EA120469A
:10B3D000FFF7DAFB03E00DA12046FFF7D5FB6D1C5C
:10B3E000082DE3D301222146504601F091FA84F85A
:10B3F0000C90BDE8F0870000202530327800000076
:10B40000202020007C0000002563000020000000B8
:10B41000064910B500200870054800F0E1F8002842
:10B4200003D1044800F011FA002010BD28B100201B
:10B4300060F0020048E5020002480349401AC008D3
:10B44000704700004CF00200ACEF020013B56846F4
:10B45000FEF7B6FE08B100201CBD0248009950F866
:10B4600031001CBDACEF020070B508480125D0F8D2
:10B470001044057007E0E06845712168204649687E
:10B480008847E0680468002CF5D170BD28B1002021
:10B490002DE9FF4781460C9D00200C462F7B287329
:10B4A000984616462946184601F092FA072E42D2CF
:10B4B000DFE806F004090F161F2A36004946284621
:10B4C000FFF762FB37E0494628462268FFF75CFB3E
:10B4D00031E0D4E9002349462846FFF755FB2AE02E
:10B4E000A0680090D4E9002349462846FFF74CFBAA
:10B4F00021E0D4E90201CDE90001D4E90023494665
:10B500002846FFF741FB16E004F1080007C88DE864
:10B510000700D4E9002349462846FFF735FB0AE037
:10B5200004F108000FC88DE80F00D4E90023494654
:10B530002846FFF729FB00222946404601F0E8F99A
:10B540002F73BDE8FF872DE9F041058A80462D1F46
:10B550004819C01CB0FBF5F0C6B24046FEF7CFFE5E
:10B56000041E19D00020207101206071E5800027A1
:10B570002546761EC4F800800BE04046FEF7BFFE6D
:10B5800060B16179491C6171286005467F1CC0F873
:10B590000080B742F1D32046BDE8F081204600F09C
:10B5A00002F80020F8E72DE9F041457901466B1ECD
:10B5B000002201E00968521C9A42FBD30F68014641
:10B5C000002605E038460C68FEF7BBFE2146761CD7
:10B5D000AE42F7D3BDE8F0810121001DFEF76DBE3C
:10B5E000FEF7C7BE10B504460121001DFEF781FE1F
:10B5F00010F0FF0F04D12046BDE81040FFF7D3BF85
:10B6000010BD1CB501920122009201AAFEF798FD1F
:10B610001CBD1CB501920022009201AAFEF790FD0C
:10B620001CBD0000064910B500204870091D0860C7
:10B63000BFF35F8F0349044800F0FAFA002010BD01
:10B640006C960020E0E3020084AF002008B50020E3
:10B650008DF800006846FCF73DFCF1EE100A20F082
:10B660009F00E1EE100ABFF35F8F08494020C1F848
:10B6700080029DF80000FCF751FC00F0B5FA08B11B
:10B6800041DF08BD20BF40BF20BF08BD04E000E08F
:10B6900070B504460C480121FEF720FEBFF35F8F12
:10B6A0000025002809D10120074E042C08D0311FA5
:10B6B0004A781AB1BFF35F8F356070BD0C70487067
:10B6C00001F0E4FDF6E70000709600202DE9F84354
:10B6D0000446002790460E468DF800706846FCF739
:10B6E000F9FB204600F039F838B105279DF8000035
:10B6F000FCF714FC3846BDE8F88320680568B8F10B
:10B70000000F05D10168204600F03FF8216808606D
:10B71000E268012A0CD0022A0ED0042A11D06068F7
:10B72000082A13D005FB02013046FAF7ADFEDDE72B
:10B730006068405D3070D9E7606830F8150030808F
:10B74000D4E7606850F825003060CFE700EBC50112
:10B75000D1E90001C6E90001C8E701680868496845
:10B76000884201D1012070470020704701680A68B3
:10B7700049688068884201D9491C00E00021914253
:10B7800001D101207047002070478068884201D9AC
:10B79000481C7047002070472DE9F84304464FF0DD
:10B7A00000080E468DF800806846FCF793FB2046A3
:10B7B000FFF7DCFF07000AD0207C40B14FF00408FF
:10B7C0009DF80000FCF7AAFB4046BDE8F88320681E
:10B7D000456841682046FFF7D8FF2168486037B1C7
:10B7E000206801682046FFF7D0FF21680860E26802
:10B7F000012A14D0022A16D0042A19D0082A1CD0F3
:10B800006068314605FB0200FAF73EFE204601F073
:10B81000C3F921688A688242D2D28860D0E7616821
:10B8200030784855F2E76168308821F81500EDE777
:10B830006168306841F82500E8E7D6E900016268F0
:10B8400002EBC502C2E90001E0E7826800219160D5
:10B8500082681161826851618268D160826851603A
:10B8600080680160704708B500224250405800903F
:10B8700008BD000020B1034909680160002070473D
:10B880000E207047CCE502002DE9FE4307460E4628
:10B890000846FFF7EFFF00287ED1002500950195AF
:10B8A0004FF4C8708DF800704FF00809ADF804002F
:10B8B00002958DF8029069462020326869DF384988
:10B8C000384A4FF00108891AC90808EB014430B121
:10B8D00000F01CFA024620463349FFF71BFD009595
:10B8E0008DF801508DF80290019502958DF8038036
:10B8F00069464020326869DF30B100F007FA02463D
:10B9000020462A49FFF706FD00958DF80070F720C4
:10B91000ADF802000195029569462320326869DF7F
:10B9200030B100F0F3F9024620462149FFF7F2FC5E
:10B930000095019502958DF80080694601203268D6
:10B9400069DF30B100F0E2F9024620461949FFF7FD
:10B95000E1FC4FF4B0600090019502956946A1208A
:10B96000326869DF30B100F0D1F902462046124951
:10B97000FFF7D0FC0095019502958DF800506946BF
:10B98000A020326869DF30B100F0C0F902462046DD
:10B990000A49FFF7BFFC00E000E00020BDE8FE839D
:10B9A00034F00200ACEF0200C4ED02000CEE020025
:10B9B00058EE020024ED020070ED0200D0EC02000F
:10B9C0002DE9F0410546076860DF804619491A48AD
:10B9D0002A68081AC608BA4219D9022000EB0644A0
:10B9E00016A12046FFF792FC20463A461FA12B687D
:10B9F000FFF797FC4FF08050D0F80C0129688002C7
:10BA000000F10050421A204625A1FFF783FCB8F14F
:10BA100000004FF001040AD000F078F9024604EB70
:10BA200006402AA1FFF776FC4046BDE8F0812F488A
:10BA30000470F9E734F00200ACEF0200496E737550
:10BA40006666696369656E742052414D20616C6C55
:10BA50006F636174656420666F722074686520533B
:10BA60006F66744465766963652E00004368616E95
:10BA70006765207468652052414D2073746172744B
:10BA8000206C6F636174696F6E2066726F6D203019
:10BA900078257820746F20307825782E00000000FB
:10BAA0004D6178696D756D2052414D2073697A65DD
:10BAB00020666F72206170706C69636174696F6E6B
:10BAC00020697320307825782E00000073645F624F
:10BAD0006C655F656E61626C65282920726574759E
