:020000040002F8
:1060000090F30020B9640200C1640200C36402007E
:10601000C5640200C7640200C964020000000000F9
:10602000000000000000000000000000CB6402003F
:10603000CD64020000000000CF640200D1640200C1
:10604000BD6A0200156B0200816F0200D36402007A
:10605000D3640200D3640200196A0200D364020010
:10606000D3640200D3640200D3640200D36402004C
:10607000D3640200D3640200D3640200D36402003C
:10608000D3640200A16B0200D3640200D364020057
:10609000D3640200D3640200116C0200156C02008C
:1060A000D3640200D3640200D3640200D36402000C
:1060B000D3640200D364020000000000000000006E
:1060C000D3640200D3640200D3640200D3640200EC
:1060D000D3640200D3640200D36402000000000015
:1060E00000000000000000000000000000000000B0
:1060F00000000000000000000000000000000000A0
:10610000000000000000000000000000000000008F
:10611000000000000000000000000000000000007F
:10612000000000000000000000000000000000006F
:10613000000000000000000000000000000000005F
:10614000000000000000000000000000000000004F
:10615000000000000000000000000000000000003F
:10616000000000000000000000000000000000002F
:10617000000000000000000000000000000000001F
:10618000000000000000000000000000000000000F
:1061900000000000000000000000000000000000FF
:1061A00000000000000000000000000000000000EF
:1061B00000000000000000000000000000000000DF
:1061C00000000000000000000000000000000000CF
:1061D00000000000000000000000000000000000BF
:1061E00000000000000000000000000000000000AF
:1061F000000000000000000000000000000000009F
:1062000000F002F800F065F80AA090E8000C824463
:106210008344AAF10107DA4501D100F05AF8AFF240
:10622000090EBAE80F0013F0010F18BFFB1A43F074
:1062300001031847807C0000A07C00000A444FF056
:10624000000C10F8013B13F0070408BF10F8014BD5
:106250001D1108BF10F8015B641E05D010F8016B1A
:10626000641E01F8016BF9D113F0080F1EBF10F87E
:10627000014BAD1C0C1B09D16D1E58BF01F801CBA1
:10628000FAD505E014F8016B01F8016B6D1EF9D524
:106290009142D6D370470000002300240025002639
:1062A000103A28BF78C1FBD8520728BF30C148BF79
:1062B0000B6070471FB506F059FF00F0EDFA0400BF
:1062C0000020002106F03CFF401C60601FBD10B59F
:1062D00010BD00F057FB1146FFF7ECFF03F03CF850
:1062E00000F089FB03B4FFF7F2FF03BC00F08CFB66
:1062F00000B583B002900091019244F20100714612
:106300006A4600F061FF03B000BD000030B450E801
:10631000012F93B2C48923448489A34228BF1B1B45
:106320000489A34202BFBFF32F8F002007E0C3EA16
:10633000020340E80134002CE9D14FF001000A606B
:1063400030BC704750E8012FC2EA024240E8012108
:106350000029F7D1704730B450E8022F1FFAA2F39A
:10636000C488A34202BFBFF32F8F00200DE0C48971
:1063700023448489A34228BF1B1BC2EA034340E88D
:106380000234002CE8D14FF001000A6030BC7047A5
:1063900050E8022FC2EA224240E802210029F7D148
:1063A0007047034653E8022FD988B2EB324F4FF0C3
:1063B000000017BF92B241EA014142EA014104E004
:1063C0005A68B2EB324F08BF012043E80212002A9C
:1063D000E8D1704730B4044654E8000F0D4644E855
:1063E0000053002BF8D1156030BC704730B4044620
:1063F00054E8000F40EA010544E80053002BF7D1B0
:10640000156030BC704730B4044654E8000F00EA11
:10641000010544E80053002BF7D1156030BC7047EC
:1064200030B4044654E8000F80EA010544E8005304
:10643000002BF7D1156030BC704730B4044654E8E7
:10644000000F00EB010544E80053002BF7D1156065
:1064500030BC704730B4044654E8000FA0EB01058F
:1064600044E80053002BF7D1156030BC704770B47E
:1064700004464FF0000054E8006F0D68AE4207BFBD
:1064800044E80023012044E800630E60002B1CBF99
:106490000020F0E770BC704730B4044654E8000FA9
:1064A00088422CBF451A054644E80053002BF5D11D
:1064B000156030BC70470000094880470948004714
:1064C000FEE7FEE7FEE7FEE7FEE7FEE7FEE7FEE7A4
:1064D000FEE7FEE704480549054A064B7047000001
:1064E000596C02000162020090B3002090F300207A
:1064F00090D3002090D3002010B500F0CDF9001DFE
:1065000010BD00BF3D6C000053EA020C00F0698032
:106510002DE9F04B4FF00006002B1FBFB3FA83F5B7
:1065200003FA05F424FA05F65E4012BF1643B2FAE8
:1065300082F502FA05F4C5F120051EBF22FA05FC1A
:1065400044EA0C04203556EA044C4FEA144418BFC0
:10655000641C4FF000084FF00009904271EB030CEF
:1065600039D3002919BFB1FA81F701FA07F6B0FA59
:1065700080F700FA07F6C7F120071EBF20FA07FCD4
:1065800046EA0C062037B6FBF4FCA7EB0507103FE4
:1065900007F01F0BCBF120060CFA0BFB2CFA06F6CA
:1065A00044BFB3460026202FA4BF5E464FF0000B29
:1065B0005BEA060C08BF4FF0010B19EB0B09ABFBB4
:1065C000027C48EB0608C01B06FB02CC0BFB03CC8D
:1065D00071EB0C01C1E70B46024641464846BDE857
:1065E000F08B13B54FF000004FF00001AFF30080C7
:1065F000BDE81C407047B2F120030AD5C2F1200368
:1066000001FA02F120FA03F300FA02F041EA030171
:10661000704700FA03F14FF0000070470FB40449CF
:1066200010B503AA029800F03BF910BC5DF814FB0A
:106630004C96002040EA010310B59B070FD1042AB5
:106640000DD310C808C9121F9C42F8D020BA19BA3D
:10665000884201D9012010BD4FF0FF3010BD1AB1A2
:10666000D30703D0521C07E0002010BD10F8013BF7
:1066700011F8014B1B1B07D110F8013B11F8014B1E
:106680001B1B01D1921EF1D1184610BD40EA010337
:10669000024630B59B0710D14FF0013400E008C22C
:1066A00008C91D1B9D4315EAC41FF8D013F0FF0154
:1066B00002F8011B0DD01B0AF8E711F8013B002B73
:1066C00002F8013B05D011F8013B002B02F8013B19
:1066D000F3D130BD10B5431C02E010F8011B71B1BD
:1066E0008107FAD14FF0013202C88C1A8C4314EAA8
:1066F000C211F9D0C01A0A0603D0C01E10BDC01ABC
:1067000010BD0A0401D0801E10BD0902FCD0401E3D
:1067100010BD032A40F2308010F0030C00F0158009
:1067200011F8013BBCF1020F624498BF11F801CB94
:1067300000F8013B38BF11F8013BA2F1040298BFF9
:1067400000F801CB38BF00F8013B11F0030300F063
:106750002580083AC0F0088051F8043B083A51F807
:1067600004CBA0E80810F5E7121D5CBF51F8043B0C
:1067700040F8043BAFF30080D20724BF11F8013B7F
:1067800011F801CB48BF11F8012B24BF00F8013BE1
:1067900000F801CB48BF00F8012B704710B5203A34
:1067A000C0F00B80B1E81850203AA0E81850B1E8CA
:1067B0001850A0E81850BFF4F5AF5FEA027C24BF80
:1067C000B1E81850A0E8185044BF18C918C0BDE877
:1067D00010405FEA827C24BF51F8043B40F8043B40
:1067E00008BF7047D20728BF31F8023B48BF11F8F5
:1067F000012B28BF20F8023B48BF00F8012B70474F
:106800004FF000020429C0F0128010F0030C00F0D9
:106810001B80CCF1040CBCF1020F18BF00F8012B57
:10682000A8BF20F8022BA1EB0C0100F00DB85FEA25
:10683000C17C24BF00F8012B00F8012B48BF00F8F1
:10684000012B70474FF0000200B513469446964660
:10685000203922BFA0E80C50A0E80C50B1F1200173
:10686000BFF4F7AF090728BFA0E80C5048BF0CC021
:106870005DF804EB890028BF40F8042B08BF70477F
:1068800048BF20F8022B11F0804F18BF00F8012BF1
:106890007047704770477047004870474CB30020FE
:1068A000074B70B50D467B4400F015F804462846AA
:1068B00000F024F810B14FF0FF3070BD204670BDDD
:1068C00033260000004870472CB3002001694A1CA1
:1068D00002610878704700B58FB0CDE90131002121
:1068E000059105497944CDE903101146684600F049
:1068F0006EF80FB000BD0000E5FFFFFF007B00F069
:10690000800070474FF0013C50F8042B51F8043BD5
:106910009A4221D1A2EB0C03934313EACC1317D173
:1069200050F8042B51F8043B9A4215D1A2EB0C030A
:10693000934313EACC130BD150F8042B51F8043BCA
:106940009A4209D1A2EB0C03934313EACC13DBD098
:106950004FF00000704700BFD01A01BAB1FA81F1C0
:1069600001F0180122FA01F0CB40C1F12001DBB2A5
:10697000C0B2C01A2CFA01F3D11A914311EAC31123
:10698000E6D170477546FFF79DFFAE4605006946A4
:10699000534620F00700854618B020B5FFF79AFD52
:1069A000BDE820404FF000064FF000074FF0000810
:1069B0004FF0000B21F00701AC46ACE8C009ACE891
:1069C000C009ACE8C009ACE8C0098D4670472DE9A4
:1069D000F04106460024D6E90170F568804630464D
:1069E00003E04146B847641C3046A8470028F8D168
:1069F0002046BDE8F08110B50446AFF30080204684
:106A0000BDE81040FFF76EBC01491820ABBEFEE7A1
:106A100026000200704700002DE9F8430025DFF84A
:106A200094804FF4807601242F460095304603F081
:106A300041FC38B1D8F80403204203D0304603F0BB
:106A40002FFC2543361D64007F1CB6B2082FEDD302
:106A50004FF4BE74204603F02DFC48B1204603F0ED
:106A60001FFC45F000456A460121002003F0E8FBC9
:106A700015F0FF0F16D0012600242E420ED008EB91
:106A80008401D1F81005D1F81015C0F304200A4A8A
:106A9000C1F3014152F8242002B190477600641CF2
:106AA000082CEAD3002D02DA684605F087F9BDE824
:106AB000F883000000600040C8A8002070B54FF4C3
:106AC0008076304603F098F9114CB50560B1304638
:106AD00003F099F90120C5F80803607920B9012075
:106AE00060712168002088474FF48276304603F0B9
:106AF00083F900280AD0304603F085F90220C5F852
:106B000008032168BDE870400120084770BD0000FF
:106B1000CC9500202DE9F041134CD4F80C0100284D
:106B200020D00020C4F80C01D4F80C010F4EB0782E
:106B3000012815D10E480068C00711D00D4F3868E4
:106B400005F04CFE48B10C4802F0AFFD050003D142
:106B50000AA2CA21FFF7CCFB3D603069401C3061BE
:106B60000120A060BDE8F08100100040B496002034
:106B70000014004004150040BCE002002E2E5C2EE4
:106B80002E5C2E2E5C2E2E5C2E2E5C636F6D6D6F38
:106B90006E5C74696D655F73796E632E63000000CF
:106BA00002490248091F0968006808473C9600200E
:106BB00000F0ECB970B50E46144900EB400001EB53
:106BC000C0051446E86A183520B101280FD0022804
:106BD00005D113E0284600F00DFAA04201D20024AE
:106BE00011E022463146284600F03CFA0BE02846E8
:106BF00000F000FAA042F4D20446F2E731462846FB
:106C000000F003FA0446204670BD000000B00020EA
:106C100004F098B90B48D0F80011002911D00022D7
:106C2000C0F800210849094B0120897A03EBC10112
:106C300048600748C1698B68C3604270054802F02C
:106C400056BD7047007001400CB3002000F00140B9
:106C5000B4960020BCE00200F0B5B74AB7494FF047
:106C600080541368D4F830010978D4F83421451CD5
:106C7000C1F3031106D0844601270025BCF1060F9D
:106C800003D00AE003F0FF0CF6E7B4F82463DFF862
:106C9000B0C2C6F30426CCF80060DEB2062E06D1E0
:106CA000032904D1DFF8A0C2A64ECCF87460461CBC
:106CB00004D08446BCF1060F03D00AE003F0FF0CB9
:106CC000F8E7D4F84462DFF884C2C6F34236CCF861
:106CD0000060DEB2062E08D1032906D19C4ED6F8FC
:106CE00000C02CF0807CC6F800C0461C04D084464E
:106CF000BCF1060F03D00BE003F0FF0CF8E74FF0F8
:106D00008046C6F80C51C6F81051904E361F3560BB
:106D1000DEB2062E08D1032906D1DFF830C20326E1
:106D20000CF1640CCCF80060DEB2062E11D1032900
:106D30000FD1DFF820C20526CCF80060854E7836EA
:106D40003760844E083635600CF1040C3F26CCF8D1
:106D50000060461C06D084464FEA0206BCF1060FCE
:106D600004D081E003F0FF0C0E46F7E7032E7BD042
:106D7000042E79D0784E3668DFF8E0C1CCF8006098
:106D8000754E361D36680CF1040CCCF80060724E5E
:106D9000083636680CF1040CCCF800606E4E0C36E8
:106DA00036680CF1040CCCF800606B4E1036366877
:106DB0000CF1040CCCF80060674E143636680CF108
:106DC000040CCCF80060644E18363668DFF88CC1CD
:106DD0000CF1200CCCF800605F4E1C3636680CF1CC
:106DE000040CCCF800605C4E203636680CF1040CC4
:106DF000CCF80060584E243636680CF1040CCCF800
:106E00000060554E283636680CF1040CCCF8006052
:106E1000514E2C3636680CF1040CCCF800604E4E06
:106E200030363668DFF834C10CF1400CCCF8006025
:106E3000494E343636680CF1040CCCF80060464EEE
:106E4000383636680CF1040CCCF80060424E3C3603
:106E500036680CF1040CCCF800603F4E40363668C2
:106E60000CF1040CCCF80060461C05D04FEA000C75
:106E7000BCF1060F03D008E003F0FF0CF8E7D4F8EC
:106E80005842374E04F04F043460441C03D003468C
:106E9000062B02D008E0DBB2FAE732490B68DB07C9
:106EA00002D06FF001030B6006280AD1032A08D034
:106EB000042A06D0052A04D02B48016841F48061D9
:106EC000016023487438016841F470010160BFF328
:106ED0004F8FBFF36F8F4FF01021D1F800020028C1
:106EE00003DBD1F80402002822DA204A1760204888
:106EF0000368002BFCD01523C1F800320468002C75
:106F0000FCD0C1F8043201680029FCD0156001688A
:106F10000029FCD0BFF34F8F0D48F0380168154AA7
:106F200001F4E06111430160BFF34F8F00BFFDE743
:106F3000124911480860F0BDE00F00F0E80F00F0C2
:106F4000403501400DF0ADBA00C007403C0500409F
:106F5000FCED00E0105600400404001020C5004085
:106F6000E40E0040000400403C17004004E50140EE
:106F700000E401400400FA050090D0031C970020B3
:106F80000148006800470000D495002010B5124C5D
:106F900002202061606111A0A06104F17800E0612D
:106FA0004FF4007020620020A06260620BA1A16417
:106FB000E06204F51E71E1641021A065C4E91410BB
:106FC000E06509A1E01DFFF761FB08A12046FFF77E
:106FD0005DFB2020A07110BD00B000205465726DD3
:106FE000696E616C000000005254540053454747DD
:106FF000455200000269C1688A4203D88068401A7D
:10700000104400E0501A401E70472DE9F047C46854
:107010001746894606464FF000083069A04201D95C
:10702000051B02E0B168201A0D1AB0686D1E001B26
:10703000A84200D80546BD4200D33D4670682A46A6
:1070400020444946FFF765FBB0687F1B2C44A844E9
:10705000A944A04200D10024F460002FDDD14046B5
:10706000BDE8F0872DE9F04104468846D4E90207DF
:10707000C51BE168606816460844B54206D941461A
:10708000FFF747FBB819E060BDE8F0812A464146AA
:10709000FFF73FFB761B08EB050132466068FFF700
:1070A00038FBE660F0E700000121202803DA814088
:1070B0000548014003E0402802DA2038814009B148
:1070C0000120704700207047FC06FFBD31B5002548
:1070D0002C462146684602F0ABFA00B16D1C641CD8
:1070E000142CF6D3284638BD10B501220221002009
:1070F00001F090F808B1072810D1072202210120E1
:1071000001F088F808B1072808D100210A220846B2
:1071100001F080F808B1072800D1002010BD02203E
:1071200000F02CBF70B50024064D06E06868012110
:1071300010F8340004F01EF8641C28788442F5D35B
:10714000002070BDE0950020F8B516460C460546B7
:107150000A2A01D20720F8BD04F006F918B904F094
:10716000C9F80028F7D1134F102113487D603C70F7
:10717000BE60FFF745FB0020C7E904000F4E0DE09D
:1071800005EBC4003168009181788DF8011000781A
:107190000B4A694604F03EF80028DCD1641EE4B2D4
:1071A000EED2BDE8F84005480021064A001D00F077
:1071B00087B80000E095002098A9002034D3020091
:1071C000559002002989020072B603F00DFB00BF42
:1071D00003F040F90028FBD111481249401AC408B5
:1071E000012000EB044010A103F050FA11480068A0
:1071F000C00700D000BE022000EB04400EA103F047
:1072000045FABFF34F8F0B48E43801680E4A01F48A
:10721000E06111430160BFF34F8F00BFFDE7000045
:107220006CE00200F4DF0200466174616C2065725C
:10723000726F7200F0ED00E053797374656D207227
:1072400065736574000000000400FA050EB50021A6
:107250000091CDE901106A4644F20100FFF7B4FF46
:107260000EBD10B58268C368934203D001F01EFEC4
:10727000002010BD052010BD29B112B1531E1342CC
:1072800003D0092070470E207047016083800021E1
:107290008160C1600846704710B58268C3689A1A59
:1072A00083889A4203D801F00BFE002010BD042011
:1072B00010BD0000014801F076BC000000960020DF
:1072C0003AB100680129426100D00021016100202B
:1072D000704707207047000038B51148082358222E
:1072E000416800910F49006802F058F9002815D153
:1072F0000D4A69460D4801F05BFC04000ED10121E6
:107300000A4801F0D0FC0123094A1946074801F058
:1073100022FC0649012008390870204638BD0000CB
:107320003CD30200B8A9002029C202000096002028
:10733000FFFF7F0070B50446007F0D4608B10020B6
:1073400070BDA26101F06CFE401941F10001C4E979
:107350000201206900B125612146BDE8704000208E
:1073600005F03ABB014600200877012005F034BB48
:1073700070B50A4E01460A48B578FFF772FF044619
:107380004DB10020B070711C0122C81D02F0B2FD89
:1073900008B1FFF75BFF204670BD00001C9600207F
:1073A00010AA0020F0B5244E89B01F460D000446F7
:1073B00072603FD0A888296882B22048FFF75CFF3E
:1073C000002835D1A889A96882B21C481030FFF77F
:1073D00053FF00282CD1202219496846FFF7DEF917
:1073E00060690690207C00B101208DF814008DF8B2
:1073F0001C70607C00B10E208DF81500E0680290D2
:10740000A068039020680190606800900A480D4AC7
:107410006946083002F03AFD002809D1B0702068B2
:10742000401C05D004490122491CC81D02F062FD20
:1074300009B0F0BD0720FBE71C96002010AA002031
:1074400050D30200EDCC020010B501461048FFF702
:1074500023FF040019D10F480F4A0178515C19B17C
:10746000001D04F013FA02E00C3004F0E9F860B9F2
:10747000084907480839FFF7F4FE30B905490122E9
:107480000839044802F046FD0446204610BD0000BD
:1074900020AA002024960020C095002030B5EFF3EC
:1074A000108172B60D4A9468012324B1037000293B
:1074B00000D162B630BD93604FF0E023D3F8805125
:1074C000074C25401560C3F88041D3F884415460CF
:1074D0005A17C3F8842100220270E8E730AA00207E
:1074E000FC06FFBD0B498A68002A11D000280FD185
:1074F000EFF3108072B60B684FF0E022C2F8003153
:107500004B68C2F8043100228A60002800D162B6BC
:107510007047000030AA00202DE9F04106460868B7
:107520000C46411C4FF0A0474FF0010506D005FA6C
:1075300000F1C7F80815206802F05CFE6068411C85
:1075400002D0002102F044FE3168A069C1F8240590
:10755000607D227D31681043C1F86C05D4E90012CA
:107560003068C0F81425C0F80C15207D012815D10D
:10757000A068411C02D0002102F02AFEE068411CF4
:1075800005D08540C7F80855E06802F033FED4E91D
:1075900002123068C0F80825C0F81015BDE8F08167
:1075A0002DE9F041064608680C46411C4FF0A04703
:1075B0004FF0010506D005FA00F1C7F8081520685C
:1075C00002F022FE6068411C02D0002102F009FE98
:1075D0003168A069C1F82405607D217D32680843C7
:1075E000C2F86C05D4E900123068C0F80C15C0F878
:1075F0001425207D012815D1A068411C02D000214E
:1076000002F0EFFDE068411C05D08540C7F8085541
:10761000E06802F0F9FDD4E902123068C0F80825EC
:10762000C0F81015BDE8F0817C210148FFF70AB9C8
:1076300038A8002070B5E0B1DAB1002402E0045DA2
:107640002C44A4B2651C8D4206D21688A642F6D8F8
:10765000061976789E42F2D18C420AD2A31C005DB4
:107660009BB200B1401E0004000C02D01C188C42DA
:1076700001D9002070BD138070BD2DE9F0418AB0A2
:1076800006460020ADF814001346102088468DF8F9
:1076900004000D4606AA01A9184664DFA6B398BBEC
:1076A0009DF80400022804D0042807D0102839D1FE
:1076B0000DE003208DF81000022003E005208DF876
:1076C000100004208DF81100002404AF0FE0072003
:1076D0008DF810000620F5E73B5D05AA41463046CF
:1076E000FFF7A8FF641CE4B20546022C04D2BDF8E3
:1076F00014000028F0D003E0BDF81400002812D0D8
:1077000080B2064400240BE00CE030199DF8042000
:1077100006A9FEF78FFF48B19DF80400204484B20B
:10772000AC42F2D300200AB0BDE8F0810120FAE7B4
:10773000054808B5C16800918168684601F099FF65
:107740000098FFF7C3FC08BD38A80020FFF76CBF06
:1077500070B540B10C4D297839B1044604F0CAFC2B
:1077600028B1002070BD0E2070BD082070BDE868F3
:10777000062807D20549226801EB8001401C0A60F7
:10778000E860EEE7042070BDB095002020A800203E
:1077900010B558B103684BB142683AB104490020B2
:1077A0000124C8600C70C1E9013210BD0E2010BD6B
:1077B000B0950020002827D0002925D0134A127840
:1077C000002A21D00A460188112911D0302907D07A
:1077D000322909D0332917D1011D104604F056B9BA
:1077E000011D104604F016BA011D104604F05EB8E3
:1077F0008088B2F8CA12884206D1002082F8C802F6
:107800004FF6FF70A2F8CA0270470000B095002042
:1078100048B1084A137843B1D26832B190F8C8220F
:107820002AB1112070470E2070470820704701F0E0
:1078300039B90000B09500201CB50288011D04462E
:107840001F2A56D015DC102A1DD03148314BC01AE2
:10785000C008032303EB0040112A3ED0132A42D074
:107860001B2A05D10979022902D12BA102F00EFFB2
:107870001CBD212A41D03B2A45D0562AF8D1A088E8
:10788000132176DF24E0A1882B4A01EB410002EBB3
:10789000C000002200F0ACF908B1FFF7D7FCFFF7F9
:1078A00047FF082801D204F015FE072000F0D4FCA1
:1078B00008B1FFF7CBFCA1882048FFF7A9FF08B16A
:1078C000FFF7C4FC1E48694600680090A0888FDF5F
:1078D0000028CDD0FFF7BAFC1CBD0B790A8819A18E
:1078E00002F0DFFE1CBD0023A0881A4685217FDF41
:1078F000EEE731F8040B75DFEAE700200190A0887D
:1079000001A98FDFE4E7A088132176DFE0E700001C
:107910006CE00200F4DF0200436F6E6E6563746911
:107920006F6E20526571756573742074696D65643E
:10793000206F75742E00000014A00020848F00209A
:1079400018D20200446973636F6E6E656374656478
:107950002E20636F6E6E5F68616E646C653A2030D6
:107960007825782C20726561736F6E3A2030782507
:107970007800000010B51A4C0188606810290ED0FC
:1079800011292BD1401E606028D1FFF7ADFB0028E4
:1079900024D02168002921D0BDE810400847D0B983
:1079A00000210122084600F035FC08B107280FD15C
:1079B00007220221012000F02DFC08B1072807D181
:1079C00004220221002000F025FC20B1072802D06B
:1079D000216801B188476068401C606010BD0000EC
:1079E000A89500202DE9F04F04468688018842487A
:1079F00097B0834610290CD0112950D01030192986
:107A00006AD01A2974D1217A0C09042C4DD3012291
:107A10004CE0394D083DA868C0430B9069680BA83D
:107A200001F027FE0B990CA800F096FE2C220CA961
:107A30006846FEF7B3FE0027E946A84610E000BFFF
:107A400009EB47005FF00005B0F804A008EB8500E3
:107A50005146001D01F0E1FD6D1C1E2DF6D37F1C6B
:107A60000098B842ECD8142E05D317B00420BDE816
:107A7000F04FFFF7EBBB3146584601F0E4FD3146CD
:107A800008F1040001F0DFFDE07B022830D117B0DF
:107A90003146BDE8F04F1848001D01F0D4BD17B0C5
:107AA0003146BDE8F04F01F0B8BD0022314601F08B
:107AB00010FA032C01D3012200E000220E483146C7
:107AC0000C3001F006FA022C01D3012200E0002262
:107AD00009483146083006E0217A002908D1617A48
:107AE000C1F3C002314617B0BDE8F04F01F0F1B963
:107AF00017B0BDE8F08F000040A8002070B5064622
:107B00001E481F4A0D46801AC0080978032202EB5E
:107B1000004459B1012922D002292DD1204619A1B2
:107B200002F0B4FDBDE8704004F0D4BC204619A1B9
:107B300002F0ACFD698805F10E02304600F058F8FD
:107B400008B1FFF783FB304600F05EF908B1FFF79C
:107B50007DFB2046BDE8704013A102F097BDA989C6
:107B6000A86800F087F91C4D20461CA1AA6802F005
:107B700091FDA868401CA86070BD00006CE0020088
:107B8000F4DF0200446973636F6E6E65637465644D
:107B90002E000000446973636F7665727920636F0D
:107BA0006D706C6574652E00436F6E6E65637465F1
:107BB0006420746F206465766963652077697468F2
:107BC000204E6F7264696320554152542053657290
:107BD000766963652E000000788F0020526563652A
:107BE00069766520636F756E7465723A0925640065
:107BF00050B141802AB15388C38013888380928812
:107C00000281406901F086BE0E20704730B5144BEA
:107C10000D4604000FCB85B08DE80F001ED0EDB1EE
:107C2000A868D8B12146684662DF002814D12078C0
:107C30008DF812000120ADF810004FF6FF70608043
:107C40002868E060686820610020A0802081A86822
:107C5000606104A8FFF77CFD05B030BD0E20FBE796
:107C600018D3020030B5024685B008002DD0002A96
:107C70002BD041884FF6FF74A14226D093889942B9
:107C800023D11588112D14D0392D1ED181880029BA
:107C90001BD053898B4218D1C168002915D001210E
:107CA0008DF8001002F110010291D189ADF80C108D
:107CB00008E08B4209D1C168002906D002218DF865
:107CC00000104480C2686946904705B030BD30B5A9
:107CD00085B00C46054614216846FEF7B3FD2078B2
:107CE00004F10E01002830D1A08801282DD1A079FF
:107CF0002A78904229D1002217E002EBC20031F825
:107D00001030022B02D0032B0ED105E001EB400016
:107D10000089ADF8120007E001EB40000389ADF8DF
:107D20000E304089ADF81000521C207A9042E4D801
:107D3000E868002809D06088ADF8020000208DF8BE
:107D40000000EA6869462846904705B030BD00004B
:107D500070B588B015460E46040012D02021684642
:107D6000FEF770FD19481A49401AC008022101EBBC
:107D70000040F42D07D917A102F088FC072008B0B5
:107D800070BD0E20FBE76288A2F57F43FF3B18D051
:107D9000154ACDE9022401208DF800002289ADF8B2
:107DA00012208DF81010ADF816500022ADF81420F6
:107DB00006968DF8110062886946606901F0E2FD5F
:107DC000DDE70AA102F062FC0820D8E714E0020017
:107DD000F4DF0200436F6E74656E7420746F6F2061
:107DE0006C6F6E672E000000EB8E0200436F6E6EAC
:107DF000656374696F6E2068616E646C6520696E7E
:107E000076616C69642E000010B58AB058B3418861
:107E1000A1F57F42FF3A28D0C18831B30446202122
:107E20006846FEF70FFD01218DF8201000208DF827
:107E300021000F4ACDE902248DF80010E288ADF848
:107E400012200222ADF81620ADF814008DF81010A3
:107E500008A88DF81110069062886946606901F0E3
:107E600091FD0AB010BD0E20FBE70820F9E70000E5
:107E7000EB8E02002DE9F0410F46064613481449E7
:107E80000025401AC008012101EB00480FE0705D99
:107E9000FFF7DAFA040009D0112CF8D040462A4640
:107EA0000CA102F0F7FB2046FFF7D0F96D1CBD4294
:107EB000EDD3F01910F8010C0D2804D10A20FFF7BA
:107EC000C3FA1128FAD0BDE8F08100006CE002008E
:107ED000F4DF02006170705F756172745F707574B9
:107EE000206661696C656420666F7220696E6465E6
:107EF00078203078253034782E0000000149085C65
:107F0000704700003CD202000649095C4FF0A040D7
:107F1000D0F81005C84010F0010000D0012080F01A
:107F2000010070473CD202002DE9FC410646C00723
:107F30004FF000050ED0104F00240122385D00954F
:107F400000231146019502F0FBF8641C042CF4D3C5
:107F500000F046F8B0070DD5074E0024361D00226C
:107F6000305D032300951146019502F0E9F8641C89
:107F7000042CF4D3BDE8FC8138D2020007490B5C25
:107F80004FF0A041D1F804250120984020EA0203D7
:107F9000C1F808351040C1F80C05704738D202000E
:107FA0000249085C012102F070B9000038D20200D9
:107FB0000249085C002102F068B9000038D20200D2
:107FC0000649095C4FF0A040D0F80405C84010F005
:107FD000010000D0012080F00100704738D202007B
:107FE00010B500242046FFF7DBFF641C042CF9D3F6
:107FF00010BD10B500242046FFF7DAFF641C042CE6
:10800000F9D310BD10B50246064B4FF0FF300021EA
:108010005C5C944201D1084610BD491C0429F7D389
:1080200010BD00003CD2020070B50C4E0C004FF0A9
:10803000000530600BD0012000F06AF808B1022082
:1080400004E0002000F064F800B10B20207070689C
:1080500010B9FFF749F80546284670BDA8950020DD
:1080600010B5002000F032FA08B1062806D1012030
:1080700000F02CFA08B1062800D1002010BD000045
:108080002DE9F0470D468146FFF7BCFF0446042862
:1080900036D2DFF874801B481C4EA8F10C0725B3BC
:1080A000012D0ED0022D2BD104EB44003044457835
:1080B000002D25D0B968002922D02846BDE8F04718
:1080C000084704EB4401755C0E44717849B10E4ACF
:1080D0004FF48041093A8068FFF72CF908B987F816
:1080E0000390B17808F80410E2E78068FFF73AF9E6
:1080F00004EB4401314418F804008D78A842D7D02D
:10810000BDE8F08740D20200A4950020F0A700202F
:10811000042801D2FFF7F8BE0020704770B50F2881
:108120000BD006DC042833D00A282CD00E2840D1EE
:1081300003E0102801D011283BD11F491F4A1D48D8
:10814000891AC9080378032202EB01445BB10021BC
:108150000170FFF745FF04F019FD08B1FFF776F84D
:10816000204617A10BE001210170FFF742FF02201A
:1081700004F0F8FC08B1FFF769F820461AA1BDE841
:10818000704002F083BABDE87040002002F040BCAD
:108190001F4D002404EB440005EBC0001321408870
:1081A00076DF082802D008B1FFF750F8641C082CCD
:1081B000F0DB70BD788F00206CE00200F4DF02007D
:1081C00053746F7070696E672073796E6320626597
:1081D00061636F6E207472616E736D697373696F22
:1081E0006E210D0A000000005374617274696E679D
:1081F0002073796E6320626561636F6E20747261B3
:108200006E736D697373696F6E210D0A0000000053
:1082100014A0002070B50023042810D20D4D00EBEF
:108220004004012A02D101290CD00022094E00EBA2
:108230004000304461B1012906D0022906D007234D
:10824000184670BD0E30C2B22A55F9E74270F7E702
:108250008270F5E7F0A70020044A01460020127959
:10826000D20702D0084600F04DB87047989500201C
:1082700070B506461E480024C0E90161B00720D54C
:108280000025012211462846FFF7C4FF6D1C044655
:10829000042D02D2002CF4D013E094B940F2333212
:1082A00004211448FEF750FF04000AD1FEF73AFFFC
:1082B000040006D10F48104A0021001FFFF700F804
:1082C0000446F00712D00120FFF72EFE74B90948CA
:1082D0000A4A00210C38FEF7F3FF040006D10548D6
:1082E000074A01210838FEF7EBFF0446204670BD1F
:1082F000989500204CD20200D98502008992020094
:108300001F7102002DE9F05F6E4C05460026607873
:10831000B34618B184F801B000F09EFF6A4F4FF4E5
:108320007A694FF4C87A4FF00108182D69D2DFE856
:1083300005F00C1313384754696E727B727BC58449
:1083400084848484B3B6B9BCC5C500F085FF3868A1
:10835000FFF708F806465CE00020FFF731FE002832
:108360004FF0000008D0FFF71BFE022D02D14FF4A2
:10837000E16008E0484606E0FFF71AFE022D01D151
:10838000C82000E05046410CC0034FF47A728018B8
:1083900041F10001257052000023FEF7B5F80146B7
:1083A0002AE00020FFF70CFE00284FF0000004D068
:1083B000FFF7F6FD4FF44870E5E7FFF7F9FDDFE75B
:1083C0000020FFF7FDFD00284FF0000002D0FFF76E
:1083D000E7FDCFE7FFF7ECFDD4E70020FFF7F0FD66
:1083E00000284FF0000002D0FFF7DAFD01E0FFF7B0
:1083F000DFFD257040F6CD4100223868FEF79AFF78
:10840000064646E00020FFF7B9FD257008E0002091
:1084100051E025703DE084F801800120FFF7AEFDBA
:10842000002240F26661E8E784F801800120FFF74E
:10843000A5FD00224FF40051DFE77868FEF792FFB8
:108440000646D5F1110000D02EB10220FFF7A8FD9D
:1084500084F802B01DE0012816D980B2C821484333
:10846000C117C90341EA5041C0034FF47A72801822
:1084700041F1000152000023FEF746F801460022B8
:108480007868FEF757FF06460220FFF791FD84F853
:1084900002803046BDE8F09F00F0DEFEB9E700F054
:1084A000DBFEB4E700F0D8FE04E000F0D5FE0020CB
:1084B000FFF77EFD0120FFF77BFDAAE7FFF799FD9F
:1084C000A7E700009895002040D20200012104F0A7
:1084D00019BE00002DE9F84F0546861C00208DF8D6
:1084E000000091460F464FF0010A6846FEF7D6FF9E
:1084F0001B4C04F21C4860683860D4E90101194F34
:10850000401A3968081A0EE00121404601F0ABF824
:1085100000F0D0FE0146404601F0A5F8D4E9010183
:10852000401A3968081A401C8642EDD8B9F1000F8C
:1085300003D0052065F3891002E0062065F39F5003
:1085400061683A68114004EB8101C860606830449A
:1085500060609DF80000FEF7C5FF5046BDE8F88F4B
:10856000E0AB00205C96002070B50D4604460A2959
:1085700002D10D21FFF7F8FFA0682268411CA1601D
:108580001554D4E90101814204D32046BDE870406E
:1085900001F0DDBC70BD0000044881684068814284
:1085A00001D101207047002070470000E0AB00209F
:1085B000034630B5074800210478426806E000BF52
:1085C00002EBC10005789D4203D0491CA142F7DBB4
:1085D000002030BDE095002000780221FFF750BD5B
:1085E00005494FF0FF32082841F8202002D3084403
:1085F00080F8482070470000C8A80020F0B54FF070
:10860000FF3512B10023082601E008230C260C4C8C
:1086100005E000BF54F823707F1C04D05B1CB342FC
:10862000F8D32846F0BD26185DB286F8305044F8DD
:108630002310002AF5D1E11881F84800F1E7000085
:10864000C8A800200249084490F930007047000093
:10865000C8A8002030B589B00D46044620216846E0
:10866000FEF7F0F894F8C602002300EB8001C1EB9E
:10867000801094F8C51204EB400041B1491EC9B204
:1086800001EBC10100EB4101498A491C00E0C188AE
:10869000008961F30F0360F31F4303208DF800008E
:1086A0000548CDE90204054804932A4669468068D6
:1086B00001F068F909B030BD558A0200B09500207C
:1086C00070B5084C050009D010342168002907D086
:1086D00008682060496828468847F6E70834F4E7C8
:1086E00070BD0000B4A80020054A012120B1012876
:1086F00005D19170FFF7E4BF51700020FAE7704791
:10870000B4A8002010B5D0E90234D1E90220D11A72
:10871000A04101D3012010BD002010BD1CB50020D8
:108720000090019001208DF800006946022067DF6B
:10873000002801D0FEF78AFD1CBD10B502460020BE
:10874000138806E0546834F810408C4203D0401C73
:1087500080B28342F6D810BD73B58CB006460020B7
:1087600000900D9880B100246D4621460DA800F0C0
:108770005FFF30B1009805EB400084800098401CFA
:108780000090641C142CF0D32C2269463046FEF76E
:1087900005F80EB070BD000070B588B00646002028
:1087A00005900690ADF81410ADF8161001900290E7
:1087B00001AA05A9304690DF050021D002F066FC31
:1087C0000346114811493246401AC108012000EB06
:1087D000014004460E4901F064FFBDF8042012B9BF
:1087E000BDF8060028B1BDF80630204609A101F009
:1087F00058FFBDF808201AB12046164901F04AFF7B
:1088000008B0284670BD0000FCDF0200F4DF020063
:10881000C4D602005468652072657175657374650D
:10882000642054582F5258207061636B6574206C1B
:10883000656E67746820697320746F6F206C6F6E4B
:10884000672062792025752F2575206F6374657404
:10885000732E000010D702004188044A01EB410149
:1088600002EBC10201461046FFF731BA14A0002006
:108870002DE9F04389B00F46054691462021684610
:10888000FDF7E0FF95F8C60295F8C54200EB8001C0
:10889000C1EB801005EB400604EBC40006EB400181
:1088A0003279601C0A31904232D108AB002228464E
:1088B00000F0A0FC78B310E0401EA04201D10020DF
:1088C00004E004EBC40006EB40001C308046024686
:1088D00008AB284600F08EFC90B1002038700420D0
:1088E0008DF8000008984A46CDE903500C480290E4
:1088F0000C486946806801F045F809B0BDE8F0838E
:1089000095F8C5024146401C641C85F8C502E4B2D6
:108910003079A042D0D8012038700020EDE7000067
:10892000558A0200B095002070B500240F4D10E06C
:10893000686800EBC406307802F0D2FC7178012937
:1089400001D0012100E000214140307800F034FAEC
:10895000641C28788442EBDBD5E90401084303D08A
:10896000BDE8704004F054B870BD0000E0950020F0
:1089700030B59FB00C4605467C216846FDF762FF86
:10898000ADF8024003208DF80000044801954168CD
:10899000002901D0684688471FB030BDB09500203F
:1089A0002DE9F041044690F8C602884600EB8001AC
:1089B000C1EB801004EB40061746304603F09AFBEB
:1089C000050042D0D4F8CC0206283ED204EBC010F9
:1089D0007622A0F8D272D4F8CC02314604EBC01053
:1089E00000F53570FDF795FE0026B8F1000F06D0B2
:1089F000D4F8CC0204EBC01080F8D06206E0D4F8C2
:108A0000CC12022004EBC11181F8D002D4F8CC02C0
:108A100004EBC010C0F84C53D4F8CC020C4D401CF1
:108A2000C4F8CC02E96888420FD12746002407E049
:108A300007EBC41101F53470D1F84C138847641C5E
:108A4000E8688442F4D3C7F8CC62BDE8F081000046
:108A5000B0950020F0B515469FB0002281F8C822DD
:108A6000074691F8C6020C4600EB8002C2EB80106C
:108A700001EB400003F03EFB060009D07C220849D0
:108A80006846FDF78BFEADF8025068460197B04787
:108A90001FB029462046BDE8F040FFF769BF00003F
:108AA0006CD20200F0B50D4689B004464FF4BA61AD
:108AB000FDF7C8FE20216846FDF7C4FE154E294685
:108AC000B06800F027FF002821D1A4F8CA52C4F8EA
:108AD000CC0284F8C70284F8C60284F8C5020E48A6
:108AE00001272A460068206002208DF80000ADF8BA
:108AF00010702068CDF812000848CDE902046946DC
:108B0000B06800F03FFF002801D184F8C87209B0B6
:108B1000F0BD0000B095002020A80020558A02007A
:108B200010B50021024800F0AFFD80F3100010BD29
:108B3000FCAF00204FF480328A400168C1F848231E
:108B40000068C0F8082370474FF4A07202EB81015F
:108B500089B200F0A1B92DE9F04105460E464FF467
:108B6000A07000EB860081B228684FF48034B440D6
:108B7000984622F07F47C0F808432868C0F8484369
:108B8000286802F030F8286800EB8600C0F84075CD
:108B90002868C0F84443B8F1000F02D02868C0F834
:108BA0000443BDE8F0810068D0F804057047000078
:108BB00070B54379234C44F823204279231D03EBFD
:108BC000C202224C1579204A121BD4082DB1082567
:108BD000022000EB04401EA130E005680A88C5F8B9
:108BE000082590F904208978002A4FEA411104DB16
:108BF00002F1E02282F8001405E002F00F0202F117
:108C0000E02282F8141D90F904100122002909DBEA
:108C100001F01F0502FA05F54909890001F1E0217B
:108C2000C1F800514179002503EBC1010A71417976
:108C300043F83100032000EB04400EA101F026FDB3
:108C4000284670BD3896002054E00200F4DF020090
:108C500052544320696E7374616E636520616C7257
:108C60006561647920696E697469616C697A6564AB
:108C70002E0000005254433A20696E697469616C99
:108C8000697A65642E00000090F90400002809DB71
:108C900000F01F02012191404009800000F1E02016
:108CA000C0F8001270470A46022100F07BB84FF46A
:108CB000827100F0F1B8006801210160704700681E
:108CC0000121416070472DE9F05F07460C464FF4E3
:108CD000A07000EB84001FFA80FA38684FF48036E9
:108CE000A6409B4622F07F45C0F848633868C0F82C
:108CF00008633868D0F8048500EB8402D2F8409508
:108D0000C2F840855146386801F06DFFA9EB0800B4
:108D100020F07F40012806D1102002F023FA5146AE
:108D2000386801F060FF3868D0F80485C0F8446303
:108D3000A5EB080121F07F413868012900EB840090
:108D400010D0C0F840553868D0F804156FF07F4C4B
:108D50006A1A521E22F07F42ACEB0B03934217D3E8
:108D600062B118E06D1CC0F84055102002F0FAF90D
:108D70003868D0F8040540450AD10CE000EB8400C7
:108D80006D1CC0F840553868D0F80405884202D000
:108D90000D20BDE8F09F01223146384600F002F870
:108DA0000020F6E70368C3F84413002A02D00068E5
:108DB000C0F80413704700002DE9F84F0E463449FF
:108DC000804601EB5001C007097801D00F0901E08E
:108DD00001F00F074FF00009424601204946FDF718
:108DE0000AFCDFF8B0A004460D46052F4ED2DFE89E
:108DF00007F003161B282C00002E47D00121404607
:108E000003F08AFC8DF800906846FEF747FB504659
:108E1000D0E904120C431543CAE9044532E00EB10F
:108E2000022114E0002112E04EB10321404603F07C
:108E300073FC4046BDE8F84F012104F053B901210D
:108E400005E0002E22D1042101E02EB1032140468D
:108E5000BDE8F84F03F060BC0021404603F05CFC25
:108E60000021404604F03EF98DF800906846FEF778
:108E700015FB5046E243D0E904341A4024EA0501C8
:108E8000CAE904219DF80000FEF72CFBBDE8F88F2D
:108E900098A90020E095002010B5006842581AB14A
:108EA00001F0A1FE012010BD002010BD8268838862
:108EB0001A4003689A5C0A708168491C8160704797
:108EC000C26883881A4003689954C168491CC1600C
:108ED00070470AB100F0B7BB00F09FBB10B5044665
:108EE000C0B2FEF7B1FA204610BD0969002900D0D2
:108EF0000847704770B508880D46A0F5206177399E
:108F000016D10C480C49401AC108032000EB01445B
:108F10000AA1204601F0BAFBA88810A1C01E82B2A7
:108F20000D48134642802046BDE8704001F0B9BBB1
:108F300070BD00006CE00200F4DF020041545420D8
:108F40004D54552065786368616E676520636F6D69
:108F5000706C657465642E00788F0020426C65200B
:108F60004E5553206D61782064617461206C656E8C
:108F70006774682073657420746F203078255828D2
:108F80002564290010B50949094800F0F4FB08B12F
:108F9000FEF75CF9F721064800F0E1FB002803D05A
:108FA000BDE81040FEF752B910BD0000F58E02007A
:108FB000D4A0002070B50D4601F11004C98A102913
:108FC00001D9092070BD01F07EFC686030B1E288F3
:108FD0000023A16801F0DDFC002070BD042070BDFD
:108FE00070B50D4601F1100489690988102901D96D
:108FF000092070BD891C01F066FC686068B100231F
:109000000222A16801F0C5FCA068E1680223028881
:10901000686801F0BEFC002070BD042070BD000037
:1090200010B50B48FFF7BFFD094A083AD2E90434EE
:10903000C018D2E9063244F10001C31A71EB0202F2
:1090400004D24FF08072801841F1000110BD000081
:109050000096002010B5C0B2FFF7AAFA04460078C7
:1090600002F03EF901466078012801D0012000E0BD
:10907000002090EA010F08D00449D1E90401084317
:1090800003D1BDE8104003F0C3BC10BDE095002043
:109090002DE9FC5F0E008346DDE90C47C6F10000B8
:1090A00098469246814600D40846012503E000BF59
:1090B00090FBFAF06D1C5045FADAA84500D94546F8
:1090C00024B1002E01DB780700D5641EB80702D555
:1090D000B8F1000F0AD0F80708D13CB1A54205D27B
:1090E00020215846641EFFF73FFAF6E7002E02DA09
:1090F0004E462D2102E0780703D52B215846FFF775
:1091000033FA07F0030002280BD1B8F1000F08D1A1
:109110003CB1A54205D230215846641EFFF724FA1F
:10912000F6E7CDE90047434652463146584603F03C
:109130007FFFBDE8FC9F000070B50D460446006847
:109140004FF4887101F0C2FF4FF49071206801F074
:10915000BDFF4FF49271206801F0B8FF4FF4A27187
:10916000206801F0B3FF4FF4AC71206801F0AEFF4E
:1091700020681249C0F804132068690740F30730DB
:10918000090E002804DB00F1E02080F8001405E05F
:1091900000F00F0000F1E02080F8141D206840F37B
:1091A0000730002809DB00F01F020121914040092F
:1091B000800000F1E020C0F8001170BD10034200F3
:1091C000024600201268530713D502F0030001285D
:1091D00002D002280CD105E0C2F383100B68801C7A
:1091E000184404E00223086803EB9252104408601C
:1091F0000120704710B509892AB1D088491C8142E5
:1092000018D1002010BD90F8C62202EB8204C4EBF6
:10921000821200EB420212899142F2D0491C19805D
:1092200090F8C61201EB8102C2EB811100EB410004
:10923000008902E01980D088401E5880012010BDAE
:10924000007DC0F3C100012803D0032801D0002015
:1092500070470120704700000A4810B5807860B15F
:10926000002401E0022C06D02046FEF799FE641C83
:10927000042CF7D310BD0324F6E7BDE81040FEF739
:10928000AFBE00009895002003480179C90702D0BD
:109290000078FFF737B8704798950020F7210180D4
:1092A00017214180002101714171FB2181711B2136
:1092B000C17170472DE9FF410026244800F0D0F924
:1092C0002248001F074600F0CBF9214C2149A06835
:1092D00000900D6800E000986946284004EB80008B
:1092E0000C30FFF76DFF0028F5D101AA009901EAC3
:1092F000050304EB8303491CDB6842F82030401C63
:1093000000910228F2D3019800F0030001280BD04D
:10931000022810D10198032101EB90500099BDF86B
:109320000A6001EB900005E00198BDF80A60C0F307
:10933000831008440090384600F08FF908B1009877
:10934000A06004B03046BDE8F0810000F8AF002016
:10935000E0AB00205C9600208AB04FF480410020F2
:1093600001F016FA08B1FDF771FF01F065F8FDF79D
:10937000B3FF08B1FDF76AFF18223E496846FDF7C2
:109380000DFA3D4806903D494FF48060CDE9070154
:10939000099007233A4A06A96846FEF703F808B180
:1093A000FDF754FF37490320FEF762FF08B1FDF7D0
:1093B0004DFF69460020FEF737FE08B1FDF746FF76
:1093C000324C3148CDE9000400256846FEF7E0F94B
:1093D00008B1FDF73BFF01F0E5FA08B1FDF736FFF4
:1093E00001F076FD08B1FDF731FF694601200095D7
:1093F00001F00AFC08B1FDF729FF684601F0A0FC66
:1094000008B1FDF723FFFFF789F9FFF7BBFD2048FF
:1094100000902048CDE901041F4D002404EB4400D6
:1094200005EBC0006946FEF7F1FB08B1FDF70EFF42
:10943000641C082CF2DBFEF789F903F01FF817A073
:10944000FDF7ECF81E481F49401AC008032101EB44
:1094500000401DA101F01AF903F03CF800F0FAFFFA
:109460000028FBD100F0F6FF0028F7D101F0AEFA9A
:10947000F4E7000020D2020014980020149C002081
:10948000EDCB02001D810200598802005495002096
:10949000FD7A0200A9B8020014A00020424C452029
:1094A000554152542063656E7472616C2065786119
:1094B0006D706C6520737461727465642E0D0A00A2
:1094C0006CE00200F4DF0200424C4520554152544A
:1094D0002063656E7472616C206578616D706C6577
:1094E00020737461727465642E0000002DE9F047EA
:1094F000C5881E1DB6FBF5F78946B6FBF5F1044697
:1095000005FB176C407916686843DDF820A0F71852
:10951000001F874200D9C61A166001E02468491E60
:109520000029FBD1A5EB0C078846B74216D818E0F6
:1095300004EB0C00001D09EB0803BAF1000F3A46DA
:1095400002D00146184600E01946FDF7E2F824680B
:10955000F61B4FF0000CB844B54201D9374600E085
:109560002F46002EE4D1BDE8F087000030B502465A
:1095700051B101F021F90021074C08E034F8213005
:109580001568AB4202D11160002030BD491C8142F8
:10959000F4D3052030BD00000000000010B531B14B
:1095A000B2FBF3F403FB14241CB1092010BD0E2000
:1095B00010BD01600021416081608281C381084645
:1095C00010BD70B50C460546FCF7A0FE002802D081
:1095D00021882868084470BD10B50A8849888A42E5
:1095E00003D1FCF7D5FE012010BD002010BD70B5E1
:1095F0000C460546FCF7AFFE002802D061882868BB
:10960000084470BD10B50A8849888A4203D1FCF726
:1096100099FE012010BD002010BD01F01F030122A2
:109620009A40D243490900EB8100114600F021B86D
:109630004A0950F8220001F01F0201219140084020
:1096400000D00120704701F01F0301229A40490910
:1096500000EB8100114600F01CB8002100F00FB8AB
:10966000012100F016B808B56A46FCF7E6FE00983E
:1096700008BD08B56A46FCF7C6FE009808BD08B5E7
:109680006A46FCF7C0FE08BD08B56A46FCF7A2FEB4
:1096900008BD08B56A46FCF7A9FE009808BD08B5E4
:1096A0006A46FCF7D7FE009808BD38B50446002589
:1096B0008DF800506846FDF7F1FE21686268086881
:1096C00090420ED9401E08600178238AE26801FBAF
:1096D0000325227A2168101AC0B20A79824200D288
:1096E00008719DF80000FDF7FDFE284638BD38B52D
:1096F000054600208DF800000C466846FDF7CEFEBA
:10970000E868298A201AB0FBF1F12A681068431C26
:10971000136001709DF80000FDF7E4FE38BD10B540
:1097200030B1017A42680368891AC9B21A6006E04A
:109730000E2010BD03681A68541C1C601170491E6D
:10974000C9B2F7D2006800210171084610BDC208F5
:1097500000F007030120895C98400840704728B159
:10976000A1F11702E12A03D3072070470E207047AA
:1097700041800020704770B5040010D0F720A1642C
:1097800020806080FB202071002504EBC500801D37
:10979000FFF784FD6D1C082DF7D3002070BD0E204F
:1097A00070BD00002DE9F04185888EB00C46082D73
:1097B0007ED20188474E4FF00008242940D006DCB5
:1097C000102909D011290CD023295FD154E03A295E
:1097D0000DD055295AD12EE00146204602F002F95B
:1097E00054E004EBC500801DFFF758FD4EE029460C
:1097F00004EBC107408937F8062F824200D8104693
:109800007880172800D217207880A06C70B1787902
:1098100060B1D6E90002CDE90002ADF80210788807
:10982000ADF80400A26C20466946904787F8058091
:1098300087F804802AE00146204602F095F925E0E9
:10984000011D2C226846FCF7A9FFBDF80000BDF8F9
:10985000042004EBC0014A73A26CBAB1D6E9042318
:10986000CDE90B23ADF82E00487B8DF83000A26CBB
:1098700020460BA9904709E004EBC503017A187B49
:10988000884200D201462846FEF786FF04EBC50455
:10989000A07A00281AD0E1882846A5DF012590B1DA
:1098A000112813D001F0F2FB02460B480B4900E0EF
:1098B0000CE0401AC0080EB005EB0040BDE8F041D6
:1098C00007A100F0E7BE84F80A80E5720EB0BDE89B
:1098D000F0810000E8D20200FCDF0200F4DF0200A9
:1098E00073645F626C655F67617474635F657863FE
:1098F00068616E67655F6D74755F726571756573BC
:109900007428292072657475726E65642025732E23
:10991000000000002DE9F0410F4604004FF0000563
:109920000DD002F0BBFB39462046FEF706FF21882A
:1099300081421ED1002005464FF6FF7609E00E2039
:10994000BDE8F081626832F81020B24206D1401CB6
:1099500080B28142F6D8206901F002F80020218807
:109960000BE0626832F81020B24204D1616821F83D
:1099700010702846E4E7401C80B28142F1D80420F0
:10998000DEE700002DE9F04791460D4604004FF058
:10999000000742D0EDB302F081FB49462046FEF7B6
:1099A000CCFE2978062902D22188814202D10720E3
:1099B000BDE8F087A16800EB800601EB860001F0AE
:1099C0008CF830B14946284602F0D4FB08B138463D
:1099D000EEE72978DFF8488058F821202AB120697D
:1099E000B8B1294690470028E2D1A068294600EB8B
:1099F000860001F091F8070006D0297858F8210078
:109A000010B1686800F08FFFA068494600EB86003F
:109A100000E002E002F0AAFAD9E70E20C8E7000051
:109A200000D30200F8B505000C4620D0002C1ED053
:109A30002888112806D0A0F130011F2902D95038FA
:109A40001F2814D8AE8820463146FEF776FEADF8C2
:109A50000000218881420AD02988112908D0A168F4
:109A600000EB800001EB8000314602F07FFAF8BD88
:109A700062684FF6FF7122F810106946E06801F045
:109A80004BF8F8BD2DE9F041044600F1140700F150
:109A90000A05867C007A86B001F10208002814D0FD
:109AA0008BDF14216846FCF7CDFE33462A46394643
:109AB00040468CDF05218DF800100190002804D06D
:109AC000616A002901D06846884706B0BDE8F08188
:109AD0004FF4C87101820621418118218181002142
:109AE000C1817047017DA022C2825022028321F0F1
:109AF00018010022428341F00401017501214175E2
:109B00007047F0B520B11AB1032903D00720F0BD8A
:109B10000E20F0BD04790346051D0CB10420F0BDF4
:109B200000211688084633F82170B742F7D0491C47
:109B300011F0FF01F7D003EB8401641C2C70126854
:109B40000A60F0BD18B100214171084670470E202F
:109B5000704710B50B46040002D0980702D009E008
:109B60000E2010BD580705D4D80603D4180701D419
:109B7000072010BD2046FFF7E5FF580701D501205B
:109B80006071A271002010BD70B50D46040010D0A8
:109B90000026266066606262EDB128792072287B1B
:109BA000A074296839B10E2204F11400FCF7B1FD4C
:109BB00004E00E2070BD2046FFF794FFA86830B186
:109BC0000168C4F80A104068C4F80E0009E0204695
:109BD000FFF77EFF05E0FFF785FF2046FFF778FFE0
:109BE000267204F12800A0641F20A4F84C00002075
:109BF00070BD2DE9F04F044689B000208846074625
:109C0000069014216846FCF71DFE04F11400049030
:109C10002046FFF715FB010004F14800059011D024
:109C200002208DF80000CDF80480616A68468847FC
:109C3000002005998ADF41462046FFF723FF09B03F
:109C4000BDE8F08FA079002107916179834621B3A7
:109C500001210691824694F804900026B8F81C0071
:109C60003546089012E004EB8502D8F818000899F0
:109C7000FDF703FD28B1761CF6B2BAF1000F0DD046
:109C800002E0BAF1000F06D16D1CEDB24D45EAD3EA
:109C9000BAF1000F02D04E4501D009E046B19DF85F
:109CA000080040F004008DF8080001207F1C079098
:109CB000CDF80480BBF1000F02D00698874203D094
:109CC000079830EA0B0007D000208DF800004146CD
:109CD0002046FFF7D7FE02E003208DF80000616AFE
:109CE00009B168468847002005998ADFA7E770B563
:109CF0000D46014601F108020C1D2846098814355D
:109D000086B010291ED01B2907D01D292DD106B0E1
:109D10001146BDE87040FFF76CBF06461421684647
:109D2000241DFCF78FFD207801281ED1706A0028C1
:109D30001BD004208DF80000049520788DF80400D5
:109D4000716A10E0064614216846FCF77BFD062088
:109D50008DF80000201D01902088ADF808000495C2
:109D6000716A002901D06846884706B070BD0000BE
:109D700030B585B0040025D014216846FCF762FD9B
:109D80008BDF2046FFF75CFA012528B1616A19B123
:109D90008DF800506846884704F1480104F114002A
:109DA0008ADF044608280FD074B1084808492246C3
:109DB000401AC00805EB004006A100F06BFC2046ED
:109DC00005B030BD0E20FBE70020F9E70CE00200F3
:109DD000F4DF020073645F626C655F6761705F73DC
:109DE00063616E5F73746172742072657475726EF4
:109DF000656420307825780000F1804000680028F4
:109E000000D00120704708B500F1804000210160BA
:109E10000068009008BD000070B50D4C0125207849
:109E200008B185260EE00020A06060602061E0603F
:109E3000084801F06FF9064601F096F808B901F0FC
:109E400053F9257001F048F900B1A570304670BD96
:109E5000B4A80020E986020038B500258DF800502E
:109E60006846FDF71BFB084CE068401EE060E068B8
:109E700028B901F031F910B901F05CF9A5709DF82D
:109E80000000FDF72FFB38BDB4A80020F0B5054653
:109E90000478154889B0164640F82420124A08690B
:109EA000121DA2F1080742F82400487F38552022ED
:109EB0006846FCF773FC04942878385C48B10EB10E
:109EC0000A4A00E000226946281D01F0D1FB09B0D2
:109ED000F0BD0EB1064A00E00022694605F10C0013
:109EE00001F07AFAF3E70000C4950020EDCE0200FD
:109EF00091CD020030B40378054CE35C1BB130BC5B
:109F0000001D01F0EBBB30BC0C3001F0CFBA0000FB
:109F1000C095002030B40378054CE35C1BB130BC25
:109F2000001D01F05DBC30BC0C3001F035BB000001
:109F3000C09500200FB408B50399002904D004AAE5
:109F400000926A4600F00FF801B05DF814FB10B5FE
:109F500082680446002A05D0D4E9040321689847A2
:109F60000020A06010BD2DE9FC4791460C00804602
:109F700076D014F8011B39B125290ED04046FEF7E2
:109F8000F3FA20780028F4D198F80C00002867D064
:109F90004046BDE8FC47FFF7DABF002001222178E8
:109FA0002B291BD02D2902D0302908D102E040F006
:109FB000010001E040F00200641C002AEFD10025FE
:109FC0002A290ED02178A1F130020A2A11D205EBFC
:109FD000850201EB4205641C303DF1E740F00400CE
:109FE000EAE7D9F800100B1DC9F800300968641CB5
:109FF0000D44217800232E290BD114F8011FA1F163
:10A0000030020A2A05D203EB830201EB4203303B04
:10A01000F3E76C290DD068290BD0692921D00BDC1E
:10A02000252918D0582931D063290ED0642915D19B
:10A0300017E014F8011FECE7702969D0732932D0BA
:10A0400075291BD0782909D120E0D9F80000011D1D
:10A05000C9F8001001784046FEF786FA641C90E7C4
:10A060006CE0D9F800100A1DC9F800200968CDE994
:10A0700000500A224046FFF70BF8EFE7D9F800102E
:10A080000A1DC9F8002009680A2206E0D9F8001064
:10A090000A1DC9F8002009681022CDE90050404689
:10A0A00002F0C6FFDAE7D9F8001000270A1DC9F848
:10A0B00000200E68C00705D112E04046761C7F1CC8
:10A0C000FEF752FA31780029F7D104E0202140460A
:10A0D0006D1EFEF749FABD42C0D9002DF6D1BDE78D
:10A0E0004EB13046FCF7F6FA074604E02021404620
:10A0F0006D1EFEF739FABD4206D9002DF6D103E0F8
:10A100004046761CFEF730FA31780029F8D1A5E7F1
:10A11000D9F80000011DC9F800100568302140463B
:10A12000FEF722FA78214046FEF71EFA08200021A9
:10A13000CDE90001034610222946B0E7BDE8FC87BF
:10A1400070B541EA4201DDE904564FF0A04441EA0E
:10A15000830141EA052104EB800041EA0641C0F891
:10A16000001770BD70B541EA4201DDE904564FF0B9
:10A17000A04441EA830141EA052104EB800041EA61
:10A180000641C0F8001770BD70B541EA4201DDE933
:10A1900004564FF0A04441EA830141EA052104EB53
:10A1A000800041EA0641C0F8001770BD70B541EA71
:10A1B0004201DDE904564FF0A04441EA830141EA3F
:10A1C000052104EB800041EA0641C0F8001770BD8C
:10A1D0001CB500220B46009211460192FFF7D4FFF6
:10A1E0001CBD1CB500220B46009211460192FFF7E0
:10A1F000DDFF1CBD1CB5002100910B460122019121
:10A200001146FFF7C1FF1CBD1CB5002100910B4694
:10A21000012201911146FFF7C9FF1CBD4FF0A0427A
:10A2200002EB8000D0F8002722F44032C0F800276B
:10A23000D0F8002742EA0141C0F80017704700003B
:10A2400038B5094B44181B6800936B4608E000BF03
:10A2500053F82010D1F8205520C2C1F82055401CD9
:10A260008442F5D838BD000028D3020042094FF0DF
:10A27000000100D1491E00F01F00012282400A4265
:10A2800001D0012070470020704701224FF0A04309
:10A29000824011B1C3F808257047C3F80C257047F8
:10A2A000034908B50844002101600068009008BD1A
:10A2B0000060004002494058012800D0002070474B
:10A2C0000060004030B5154A01460020D2F8104425
:10A2D00023460AE0DB681D79854205D1401C0A2827
:10A2E000F6DB4FF0FF3030BD1B68002BF2D1431C72
:10A2F000F9D0CB681871D2F8103443B1DB68CC6860
:10A300001B682360D2F81024D268116030BDC2F8F7
:10A310001014C96800220A6030BD0000E0AB0020C4
:10A320007047FCF745BC704708B5034A00924023CC
:10A33000024A00F005F808BDB1C5020048AA002095
:10A34000F0B595B01C4615460F4608461A9E00F01B
:10A3500003FB182109A8FCF775FA0E96CDE90954FC
:10A360000023082203A9384600F00BFB059806904D
:10A37000BDF81000ADF81C00BDF81200ADF81E00CD
:10A3800000208DF821000398082600F00300012822
:10A3900002D0022818D032E003983346850AC0F371
:10A3A000C2008DF8200003980FA9C0F38314A20007
:10A3B000384600F0E6FA09A8009006AB22460FA93D
:10A3C000284600F025FA1AE00398840DC0F3C20075
:10A3D0008DF82000082C01D2254600E008253346E0
:10A3E0002A460FA9384600F0CCFA2E44641B09AB6C
:10A3F00006AA29460FA800F073F9002CEAD13846C6
:10A4000000F0B0FA15B0F0BD0A4A012902EBC00015
:10A4100007D0022907D0032907D0042907D000203C
:10A4200070470220704704207047007970474079D8
:10A4300070470000F4DF020010B5FFF772FF04213F
:10A440000348FFF73FFF02490120C968487110BD6A
:10A45000E4DF02002DE9F04F8DB0FEF79DF818B152
:10A4600000200DB0BDE8F08F7E4C4FF0000BC4F81B
:10A4700018B4BFF34F8F7C49A06802900D68D8468E
:10A48000284004EB80000BE0D4F8180470B9616830
:10A490000298814201D8A160E2E7284004EB8000E5
:10A4A0000C3002A9FEF78CFE0028EDD1002005AA91
:10A4B000029901EA050304EB8303491CDB6842F8B7
:10A4C0002030401C02910228F2D3059800F00300CE
:10A4D000022802D001284DD0AAE005985022810D13
:10A4E0008946B2EB905F00D850210E4666F39F502C
:10A4F000059008315D4800F0E6F9070078D000F0DB
:10A500002BFA4346082205A9384600F042FA029980
:10A5100008F1080A2940681A8000001D864222D9E5
:10A52000504D0C3530B1C2B204EB8101301A904667
:10A530000C3104E02946F2B2002590462846C6B206
:10A540005346384600F025FA0AEB080325B1324697
:10A550002946384600F01DFA029909F1030001EB83
:10A56000900002903BE004EB8101534632463846AE
:10A570000C31EFE70598C0F38310062800D30620BE
:10A58000059960F38911C1F38310801C0591810046
:10A59000364800F098F907004AD000F0DDF943464C
:10A5A000082205A9384600F0F4F908F10808002649
:10A5B0000FE00298434600EA0501401C04EB8101CC
:10A5C0000290042238460C3100F0E3F908F1040847
:10A5D000761C0598C0F38310B042EAD847B1D4F88E
:10A5E0001054D4F8180478B1384600F0BBF934E0C0
:10A5F0001EE0E8684079012804D12A6828463946D7
:10A6000012689047E8680568002DF2D1384600F0DE
:10A61000A9F98DF800B06846FCF740FFD4F818049B
:10A6200008B90298A0609DF80000FCF75BFF14E0F9
:10A63000D4F8104405E02168204689688847E0681E
:10A640000468002CF7D10A480A49401AC0080221C0
:10A6500001EB004008A100F019F8FDF79DFF80F024
:10A660000100FEE6E0AB00205C960020A8E00200BE
:10A670006CE00200F4DF02004261636B656E64739C
:10A6800020666C75736865640000000000231A463C
:10A6900002F05AB808B5012300926A4602F054F855
:10A6A00008BD1CB5CDE9002302236A4602F04CF830
:10A6B0001CBD3EB5069C8DE81C0003236A4602F0D3
:10A6C00043F83EBDF0B587B00DF1300C9CE8F000CA
:10A6D0008DE8FC0006236A4602F036F807B0F0BDAC
:10A6E0002DE9F0470E4680461C469246082940D880
:10A6F00094F80C90002020731946104601F0DEFB00
:10A700000025B54206D218F805201BA12046FFF708
:10A7100011FC03E01AA12046FFF70CFC6D1C082D6C
:10A72000EFD318A12046FFF705FC0025B54212D251
:10A7300018F805707E2F08D8FBF7DEFE0068C05DB4
:10A7400010F03E0F01D03A4600E02E220EA1204626
:10A75000FFF7F0FB03E00DA12046FFF7EBFB6D1CBC
:10A76000082DE3D301222146504601F089FB84F8ED
:10A770000C90BDE8F0870000202530327800000002
:10A78000202020007C000000256300002000000045
:10A79000064910B500200870054800F0E1F80028CF
:10A7A00003D1044800F011FA002010BDE0AB0020F6
:10A7B000A8E0020008D5020002480349401AC00878
:10A7C0007047000094E00200F4DF020013B5684611
:10A7D000FEF7CCFE08B100201CBD0248009950F8DD
:10A7E00031001CBDF4DF020070B508480125D0F827
:10A7F0001044057007E0E06845712168204649680B
:10A800008847E0680468002CF5D170BDE0AB0020FB
:10A810002DE9FF4781460C9D00200C462F7B2873B5
:10A82000984616462946184601F048FB072E42D2A4
:10A83000DFE806F004090F161F2A360049462846AD
:10A84000FFF778FB37E0494628462268FFF772FB9E
:10A8500031E0D4E9002349462846FFF76BFB2AE0A4
:10A86000A0680090D4E9002349462846FFF762FB20
:10A8700021E0D4E90201CDE90001D4E900234946F1
:10A880002846FFF757FB16E004F1080007C88DE8DB
:10A890000700D4E9002349462846FFF74BFB0AE0AE
:10A8A00004F108000FC88DE80F00D4E900234946E1
:10A8B0002846FFF73FFB00222946404601F0E0FA18
:10A8C0002F73BDE8FF872DE9F041058A80462D1FD3
:10A8D0004819C01CB0FBF5F0C6B24046FEF7E5FED5
:10A8E000041E19D00020207101206071E58000272E
:10A8F0002546761EC4F800800BE04046FEF7D5FEE4
:10A9000060B16179491C6171286005467F1CC0F8FF
:10A910000080B742F1D32046BDE8F081204600F028
:10A9200002F80020F8E72DE9F041457901466B1E59
:10A93000002201E00968521C9A42FBD30F680146CD
:10A94000002605E038460C68FEF7D1FE2146761C4D
:10A95000AE42F7D3BDE8F0810121001DFEF783BEB2
:10A96000FEF7DDBE10B504460121001DFEF797FE7F
:10A9700010F0FF0F04D12046BDE81040FFF7D3BF11
:10A9800010BD1CB501920122009201AAFEF7AEFD96
:10A990001CBD1CB501920022009201AAFEF7A6FD83
:10A9A0001CBD0000064910B500204870091D086054
:10A9B000BFF35F8F0349044800F0FAFA002010BD8E
:10A9C00044960020A0D302003CAA002008B5002035
:10A9D0008DF800006846FCF761FDF1EE100A20F0EA
:10A9E0009F00E1EE100ABFF35F8F08494020C1F8D5
:10A9F00080029DF80000FCF775FD00F0B5FA08B183
:10AA000041DF08BD20BF40BF20BF08BD04E000E01B
:10AA100070B504460C480121FEF736FEBFF35F8F88
:10AA20000025002809D10120074E042C08D0311F31
:10AA30004A781AB1BFF35F8F356070BD0C704870F3
:10AA400001F0EEFDF6E70000489600202DE9F843FE
:10AA50000446002790460E468DF800706846FCF7C5
:10AA60001DFD204600F039F838B105279DF800009B
:10AA7000FCF738FD3846BDE8F88320680568B8F172
:10AA8000000F05D10168204600F03FF821680860FA
:10AA9000E268012A0CD0022A0ED0042A11D0606884
:10AAA000082A13D005FB02013046FBF732FEDDE732
:10AAB0006068405D3070D9E7606830F8150030801C
:10AAC000D4E7606850F825003060CFE700EBC5019F
:10AAD000D1E90001C6E90001C8E7016808684968D2
:10AAE000884201D1012070470020704701680A6840
:10AAF00049688068884201D9491C00E000219142E0
:10AB000001D101207047002070478068884201D938
:10AB1000481C7047002070472DE9F84304464FF069
:10AB200000080E468DF800806846FCF7B7FC20460A
:10AB3000FFF7DCFF07000AD0207C40B14FF004088B
:10AB40009DF80000FCF7CEFC4046BDE8F883206885
:10AB5000456841682046FFF7D8FF2168486037B153
:10AB6000206801682046FFF7D0FF21680860E2688E
:10AB7000012A14D0022A16D0042A19D0082A1CD07F
:10AB80006068314605FB0200FBF7C3FD204601F07B
:10AB900079FA21688A688242D2D28860D0E76168F7
:10ABA00030784855F2E76168308821F81500EDE704
:10ABB0006168306841F82500E8E7D6E9000162687D
:10ABC00002EBC502C2E90001E0E782680021916062
:10ABD00082681161826851618268D16082685160C7
:10ABE00080680160704708B50022425040580090CC
:10ABF00008BD000020B103490968016000207047CA
:10AC00000E2070478CD502002DE9FE4307460E4604
:10AC10000846FFF7EFFF00287ED10025009501953B
:10AC20004FF4C8708DF800704FF00809ADF80400BB
:10AC300002958DF8029069462020326869DF384914
:10AC4000384A4FF00108891AC90808EB014430B1AD
:10AC500000F01CFA024620463349FFF71BFD009521
:10AC60008DF801508DF80290019502958DF80380C2
:10AC700069464020326869DF30B100F007FA0246C9
:10AC800020462A49FFF706FD00958DF80070F72051
:10AC9000ADF802000195029569462320326869DF0C
:10ACA00030B100F0F3F9024620462149FFF7F2FCEB
:10ACB0000095019502958DF8008069460120326863
:10ACC00069DF30B100F0E2F9024620461949FFF78A
:10ACD000E1FC4FF4B0600090019502956946A12017
:10ACE000326869DF30B100F0D1F9024620461249DE
:10ACF000FFF7D0FC0095019502958DF8005069464C
:10AD0000A020326869DF30B100F0C0F90246204669
:10AD10000A49FFF7BFFC00E000E00020BDE8FE8329
:10AD20007CE00200F4DF0200FCDC020044DD0200F3
:10AD300090DD02005CDC0200A8DC020008DC0200FE
:10AD40002DE9F0410546076860DF804619491A4839
:10AD50002A68081AC608BA4219D9022000EB06442C
:10AD600016A12046FFF792FC20463A461FA12B6809
:10AD7000FFF797FC4FF08050D0F80C012968800253
:10AD800000F10050421A204625A1FFF783FCB8F1DC
:10AD900000004FF001040AD000F078F9024604EBFD
:10ADA00006402AA1FFF776FC4046BDE8F0812F4817
:10ADB0000470F9E77CE00200F4DF0200496E73756D
:10ADC0006666696369656E742052414D20616C6CE2
:10ADD0006F636174656420666F72207468652053C8
:10ADE0006F66744465766963652E00004368616E22
:10ADF0006765207468652052414D207374617274D8
:10AE0000206C6F636174696F6E2066726F6D2030A5
:10AE100078257820746F20307825782E0000000087
:10AE20004D6178696D756D2052414D2073697A6569
:10AE300020666F72206170706C69636174696F6EF7
:10AE400020697320307825782E00000073645F62DB
:10AE50006C655F656E61626C65282920726574752A
:10AE6000726E65642025732E00000000B3960020EA
:10AE700030B51548ADF5017D0078002821D04FF49C
:10AE8000FA7500BFADF8005280A9684661DF38B19D
:10AE9000052816D00DF5017DBDE83040FCF7D6B988
:10AEA0006C460A497DA800F083F806E0D0E900214D
:10AEB000204690477DA800F092F87F980028E1D0C6
:10AEC000F4E70DF5017D30BDB396002090D502006A
:10AED0007CB5194C207808B108207CBD0120A070F9
:10AEE000002001F037FB112819D0002001F04AFBA7
:10AEF00012480026006801908DF800606846FCF753
:10AF0000CDFA0F4901A810DF05000AD000202070FB
:10AF10009DF80000FCF7E6FA2DB128467CBD002024
:10AF20007CBD0120F3E7A670667001F0C3FB012031
:10AF300001F028FBF3E70000B096002024D50200C2
:10AF4000C97102000EB50749684600F031F805E006
:10AF5000D0E900108847684600F041F802980028C0
:10AF6000F6D10EBD40D502000148007870470000C0
:10AF7000B09600201FB568464BDF30B1052814D0CD
:10AF800004B0BDE81040FCF761B9084901A800F021
:10AF90000FF806E0D0E900210098904701A800F0E2
:10AFA0001EF803980028E6D0F4E71FBDACD50200D8
:10AFB000016009684160AFF3008010B5D0E900215D
:10AFC0005368994201D1002104E0D1E90034A34241
:10AFD00002D01946816010BD08314160F0E78168F8
:10AFE00000290BD0026892680A44826041684B686D
:10AFF0009A4203D108314160FFF7DFBF704770B557
:10B000000D460646446804E0B2682946904718B1E8
:10B01000246820680028F7D120682860256070BD6A
:10B0200040680068704741680868002801D00268DD
:10B030000A60704702460020526806E08B4203D146
:10B0400008681060012070471A461368002BF5D17C
:10B05000704700000C4A10B502F594730EE0991A7F
:10B06000C91001EBD171491002EBC1010C68844297
:10B0700001D90B4602E005D201F108029A42EED353
:10B08000002010BD486810BDC0D3020000B5FFF716
:10B09000E1FF002800D1014800BD0000ACD3020050
:10B0A0004058002800D00120704708B500224250C7
:10B0B0004058009008BDD0F80403084000D001209B
:10B0C00070474058002800D00120704708B5002282
:10B0D00042504058009008BD02480068002800D047
:10B0E000012070470004014008480068012110F069
:10B0F000010F06D14FF0E020C02280F800248430F8
:10B10000C1670349012008607047000000E100E0CA
:10B11000180500400649024600200B790BB1852036
:10B1200070470A6001220A7100224A7170470000CC
:10B13000CC950020022010B54107C1F808034FF458
:10B140008270FEF760FE054901200860044801682E
:10B15000C1F300410029FAD110BD00000C000040ED
:10B1600018040040002802D00149800108477047B8
:10B1700071D302002DE9F0410E46054600F006FEAF
:10B180000028284619D0FDF75DFA083800F070FE57
:10B19000032802D001280ED007E04FF0A040D0F8DD
:10B1A0001005E84010F0010F05D003212846BDE846
:10B1B000F041FFF733B80221F8E700F0F3FD002873
:10B1C00022D02846FDF73EFA04464FF4807000EB8B
:10B1D00084000E4F81B207EB8400D0F8102542F0B6
:10B1E0000102C0F810250846FFF75AF8002E0BD0D0
:10B1F0002846FDF727FA064951F82000002803D019
:10B200000120A040C7F80403BDE8F08100600040C1
:10B21000C8A800202DE9FC41DFF8B880044608EBFF
:10B220000400002790F930001346C0170E46401C5A
:10B2300001D008274AE0B0781946C0F34002204602
:10B24000FDF7DCF90546401C3FD0B078410717D424
:10B25000C0070AD04FF0A04000EB8400D0F80017E0
:10B2600021F00201C0F8001707E0002173782046A2
:10B2700000910A460191FEF775FF204600F078FD27
:10B28000B078800718D51448317800EB8500D0F8E5
:10B290001025124B1A40C0F810254FF4F8524FF405
:10B2A000403302EA042203EA01410A43D0F81015B0
:10B2B0000A43C0F8102509E008EB0500327810F8C1
:10B2C000481F41EA8211017000E004273846BDE8BA
:10B2D000FC810000C8A8002000600040FFE0FCFFE7
:10B2E0004FF0A041D1F81015C14011F0010000D07D
:10B2F0000120704770B5194D95F8580008B1082025
:10B3000070BD0024661E2046FEF7B0FF10B128195C
:10B3100080F83060641CE4B2202CF4D30024204672
:10B32000FDF75EF9641CE4B20C2CF8D300200D4943
:10B3300068650B4CC02081F8000401264020891F5D
:10B34000C1F800014FF4BE70FEF7AAFFA004C4F8D4
:10B35000040385F85860002070BD0000C8A80020D4
:10B360000060004006E000E0034890F85800002824
:10B3700000D0012070470000C8A800200121B1EBD7
:10B38000507F01D1012070470020704738B50D462D
:10B3900000F0E0FD040014D000208DF800006846A5
:10B3A000FCF77CF8207928B19DF80000FCF79AF8AA
:10B3B000112038BD0120256020719DF80000FCF7A8
:10B3C00091F8002038BD00000149024801F0F8BCA6
:10B3D00024A90020002000402DE9F0410546007915
:10B3E00016460F4600EB40012D4A01EBC00102EB6F
:10B3F000810494F82A1011B10820BDE8F081294990
:10B4000051F820102868FFF7C1FF08B11120F4E7B8
:10B4100039462846FCF780F86660386920603000BD
:10B420004FF001062FD03F7F4FF48E712868FFF751
:10B430003CFE4FF4A2712868FFF737FE28681A49CE
:10B44000C0F8041328684FEA471140F3073000287A
:10B4500004DB00F1E02080F8001405E000F00F00AC
:10B4600000F1E02080F8141D286840F30730002820
:10B4700009DB00F01F0106FA01F14009800000F12C
:10B48000E020C0F8001128680421C0F80015002051
:10B49000A061E06184F8290044F8140FA675ACE7B8
:10B4A00024A900202CD30200800002002DE9F05FC7
:10B4B000054600794FF4017600EB400303EBC00032
:10B4C000344B03EB80040020636813B12B68C3F88E
:10B4D0000863A3694FF000096BB1E06938B1606897
:10B4E00010B12868C0F804631120BDE8F09FE26144
:10B4F0000120216105E0C4F82490A261E160C4F854
:10B500001C9094F82910014302D1284600F055FF01
:10B5100060680028286803D0C0F804630020E4E7CE
:10B520004FF4A2763146FFF7C0FDB2464FF4927B4E
:10B5300059462868FFF7B4FD06464FF48471286821
:10B54000FFF7AEFD804651462868FFF7A9FD074684
:10B5500048EA07003043EBD056EA070007D12146FE
:10B56000286800F0FBFEA169606A8142E0D8C4F857
:10B5700018900EB10320B8E70FB10F20B5E794F88B
:10B58000291001200029296801D00860C6E7486019
:10B59000C4E7000024A900202DE9F05F05460079EA
:10B5A0000B4600EB400101EBC000244901EB800495
:10B5B000284600F045F810B11120BDE8F09F626107
:10B5C0004FF00009C4F82090A36084F828904FF44D
:10B5D0008E784E4641462868FFF767FD28684FF091
:10B5E000010AC0F808A02146286801F0D5FA606871
:10B5F00008BBD5F800B067690FE000BF94F82800D9
:10B6000008B10F2615E041465846FFF749FD0028CE
:10B61000F4D02146584601F0BFFA206AB842F2D36E
:10B62000574641462868FFF73BFD0028F9D02868B7
:10B63000C760C4F814903046BFE7000024A900207A
:10B64000007900EB400101EBC000044901EB8000F0
:10B650004069002800D001207047000024A9002084
:10B660000149024801F05ABC50A9002000200040C6
:10B670002DE9F0410546164600790F46154A00EBC4
:10B68000C00102EB810494F8201011B10820BDE83C
:10B69000F081114951F820102868FFF777FE08B1B2
:10B6A0001120F4E739462846FBF77AFF66603869CF
:10B6B00020601EB1397F2846FDF73EFD286808212D
:10B6C000C0F800150020A061E0616061012184F8EC
:10B6D0002010DCE750A9002030D302002DE9F05FF4
:10B6E000044600790E4600EBC001DFF8F0A01746D3
:10B6F0000AEB81053046FFF741FEB0B168684FF0B4
:10B7000000084FF4047910B12168C1F80893A869C2
:10B710004FF0000B80B1E86948B1686810B120684B
:10B72000C0F804931120BDE8F09F1020FBE7EF6103
:10B730004FF001082E6102E0EE60C5E9067B0025AE
:10B740004FF488712068FFF7C1FC4FF4A2712068A4
:10B75000FFF7BCFC2068C0F83465C0F83875206875
:10B76000B8F1000F12D0D0F8001241F02001C0F85B
:10B7700000122079D04600EBC0010AEB810040683E
:10B7800038B12068C0F804932846CCE70121016055
:10B79000EFE74FF4887A4FF4A27951462068FFF71B
:10B7A00090FC074649462068FFF78BFC06464FF49D
:10B7B00092712068FFF785FC014647EA06000843BE
:10B7C000EBD0227902EBC20308EB8302C2F818B077
:10B7D00001B10325002ED7D00F25D5E750A90020B1
:10B7E0002DE9F04704460E460079274900EBC000DA
:10B7F00001EB800517463046FFF7C0FD30B120460B
:10B8000000F044F820B11120BDE8F0871020FBE7DC
:10B810006F61AE604FF490774FF0000839462068B2
:10B82000FFF754FC4FF4AC7631462068FFF74EFC2E
:10B830002068AA686969C0F84425C0F848152068DE
:10B840004FF00109C0F808906868D0B9BA4651466F
:10B850002068FFF736FC074631462068FFF731FCC9
:10B860000743F4D010B14FF00F0808E02068C0F88B
:10B870000C9031462068FFF724FC0028F9D0002006
:10B8800068614046C0E7000050A9002000790549E2
:10B8900000EBC00001EB80004069002800D00120CF
:10B8A0007047000050A90020FBF7D0BC2DE9F84FED
:10B8B00005460C460888B5F8CA12884279D195F831
:10B8C000C6024FF0000A00EB8001C1EB801005EBCF
:10B8D00040066088002860D13079E288A71D814643
:10B8E000D1B250FA82F2062A02D80844307111E02F
:10B8F00006203071374838493288401AC108022082
:10B9000000EB014080463549FEF7C4FE404634490D
:10B91000FEF7BCFE48460022D0461BE000EBC0010B
:10B9200002EB820307EB430306EB4101D3F802C0AD
:10B93000C1F80AC0D3F806C0C1F80EC05B894B82BB
:10B94000A1F81480A1F81680A1F81880401CA1F875
:10B950001A80521C31798142E0D895F8C61200EB6A
:10B96000C00001EB8102C2EB811105EB410136F809
:10B9700010000989884210D2307906280DD085F848
:10B98000C50221882846FCF765FE002811D02288D0
:10B990002946BDE8F84FFDF75DB885F8C5A22288B5
:10B9A00069462846FCF764FF28B122882946FDF73E
:10B9B00051F8BDE8F88F9DF800000028F9D02288E2
:10B9C00001212846FCF7ECFF2188284600F082F987
:10B9D000EFE70000F4DF0200F4DF0200D8D5020038
:10B9E00020D6020070B58D88027900EBC504227361
:10B9F000C97BA41D012902D0022904D101E00088DD
:10BA000000E04088208021886088814211D9284642
:10BA1000A5DF0126B0B1112816D0FFF737FB02468B
:10BA20000B480C49401AC00806EB00400AA1FEF77B
:10BA300031FEA179E079814208D92846BDE87040FD
:10BA4000FCF7AABE6671F4E72671F2E770BD00004C
:10BA5000FCDF0200F4DF020073645F626C655F6705
:10BA6000617474635F65786368616E67655F6D7448
:10BA7000755F7265717565737428292072657475B8
:10BA8000726E65642025732E00000000F8B505462F
:10BA90000C460888B5F8CA12884255D195F8C602F6
:10BAA000A21D00EB8001C1EB801005EB400695F86C
:10BAB000C50200EBC00006EB400160880A3138B3D4
:10BAC00029E000BF00EB400302EB43039F88B7F57A
:10BAD000245F0CD06FF4245C17EB0C070AD0012F05
