:020000022000DC
:10600000000001207D0B0300A50B0300A70B03007C
:10601000A90B0300AB0B0300AD0B03000000000055
:10602000000000000000000000000000AF0B0300B3
:10603000B10B030000000000B30B0300B50B03001D
:106040009D5C030099F7020025690300B70B03006C
:10605000B70B0300B70B03002D680300B70B030059
:10606000F5BA020011BB0200B70B0300EDB5020048
:10607000B70B0300B70B0300B70B0300B70B03000C
:10608000B70B03001D360300B70B0300B70B03006B
:10609000B70B0300B70B0300C1AB030085FF020081
:1060A000B70B0300B70B0300B70B0300B70B0300DC
:1060B000B70B0300B70B0300000000000000000056
:1060C000B70B0300B70B0300B70B0300B70B0300BC
:1060D00005B60200B70B0300B70B03000000000079
:1060E00000000000000000000000000000000000B0
:1060F00000000000000000000000000000000000A0
:10610000000000000000000000000000000000008F
:10611000000000000000000000000000000000007F
:10612000000000000000000000000000000000006F
:10613000000000000000000000000000000000005F
:10614000000000000000000000000000000000004F
:10615000000000000000000000000000000000003F
:10616000000000000000000000000000000000002F
:10617000000000000000000000000000000000001F
:10618000000000000000000000000000000000000F
:1061900000000000000000000000000000000000FF
:1061A00000000000000000000000000000000000EF
:1061B00000000000000000000000000000000000DF
:1061C00000000000000000000000000000000000CF
:1061D00000000000000000000000000000000000BF
:1061E00000000000000000000000000000000000AF
:1061F000000000000000000000000000000000009F
:1062000010B5054C237833B9044B13B10448AFF3F0
:1062100000800123237010BD58A000200000000062
:106220003426040008B5034B1BB103490348AFF300
:10623000008008BD000000005CA00020342604009F
:10624000A3F5803A704700BF174B002B08BF134BD4
:106250009D46FFF7F5FF00218B460F461348144A71
:10626000121A14F093FF0E4B002B00D098470D4BE1
:10627000002B00D098470020002104000D000D489D
:10628000002802D00C48AFF3008014F03DFF20003E
:10629000290011F029FA14F023FF00BF00000800C4
:1062A00000000000000000000000012058A00020B5
:1062B00048EC0020000000000000000080B483B023
:1062C00000AF78604FF0A04318460C37BD465DF82C
:1062D000047B704780B584B000AF786008461146F3
:1062E0001A460346FB700B46BB7013467B703B1D82
:1062F0001846FFF7E3FFF860FA78BB785B001A43B3
:106300007B789B001A433B7E1B0242EA03013B7FE2
:106310001B047A681943FB6802F5E07243F8221007
:1063200000BF1037BD4680BD80B584B002AF786035
:1063300000230193002300930023012201217868A8
:10634000FFF7C8FF00BF0837BD4680BD80B584B0E9
:1063500000AF78603B1D1846FFF7B0FFF8607B6820
:10636000012202FA03F31946F86800F019F800BF99
:106370001037BD4680BD80B584B000AF78603B1D4E
:106380001846FFF79BFFF8607B68012202FA03F3CF
:106390001946F86800F013F800BF1037BD4680BDFD
:1063A00080B483B000AF786039607B683A68C3F826
:1063B000082500BF0C37BD465DF8047B704780B4EC
:1063C00083B000AF786039607B683A68C3F80C2509
:1063D00000BF0C37BD465DF8047B704780B582B0C6
:1063E00000AF7860204B1B78002B0ED01F4B1B6832
:1063F0001F4AD35C1846FFF797FF1C4B1B681C4ACB
:10640000D35C1846FFF7A2FF0DE0174B1B7883F013
:106410000103DBB2002B06D0144B1B68144AD35C7B
:106420001846FFF7A8FF114B1B68062B12D10F4B24
:1064300000221A600C4B1B78002B14BF0123002391
:10644000DBB283F00103DBB203F00103DAB2064BE7
:106450001A7004E0054B1B680133044A136000BF47
:106460000837BD4680BD00BF3094002098A00020B2
:10647000FCEC030080B582B000AF0E4A01210E484B
:106480000CF042FB78607B683B603B68002B04D0DB
:106490000A4A5A2138680BF0FFFC094B002240F2EF
:1064A000666118460CF052FB786000BF0837BD46A5
:1064B00080BD00BFDD63020004ED030008ED0300B2
:1064C00078A0002080B582B000AF0023FB7108E007
:1064D000FB79084AD35C1846FFF74DFFFB7901337F
:1064E000FB71FB79062BF3D900BF00BF0837BD460F
:1064F00080BD00BFFCEC030080B588B000AF7860C1
:106500000B46FB7004F07EF8B861BB69002B17D115
:10651000FFF7D8FF2A4B002240F2666118460CF0C4
:1065200015FB78617B69FB60FB68002B04D0254A72
:106530007621F8680BF0B0FC234B01221A7017E0AB
:106540001F4B18460CF035FB78617B693B613B695A
:10655000002B04D01B4A7C2138690BF09DFC1A4BA0
:106560001B78002B04D0FFF7ADFF174B00221A70E9
:106570000023FB831CE0FA8B13469B0013445B0053
:106580001A467B6813441B884FF6FF72934206D06D
:10659000FB8B0E4AD35C1846FFF7D8FE05E0FB8B59
:1065A0000A4AD35C1846FFF7E6FEFB8B0133FB83F8
:1065B000FB8B072BDFD900BF00BF2037BD4680BD56
:1065C00078A0002008ED030031940020FCEC0300CB
:1065D00080B500AF1220FFF7A7FE1320FFF7A4FE3F
:1065E0001620FFF7A1FE0A20FFF79EFE0B20FFF703
:1065F0009BFE0C20FFF798FE1320FFF795FE00BFCF
:1066000080BD000080B582B000AF0346FB71FB790E
:10661000013B032B4ED801A252F823F02D66020055
:106620004F6602007166020093660200244A254B01
:10663000D31ADB081B0443F00303234918460AF06E
:106640002BFF012002F0B0FB00F0F6FB33E01C4A08
:106650001C4BD31ADB081B0443F003031B491846E9
:106660000AF01AFF012002F0C5FB00F0E5FB22E072
:10667000134A144BD31ADB081B0443F003031449D9
:1066800018460AF009FF012002F0C4FB00F0D4FB19
:1066900011E00B4A0B4BD31ADB081B0443F0030336
:1066A0000C4918460AF0F8FE012002F0C3FB00F086
:1066B000C3FB00E000BF00BF0837BD4680BD00BF80
:1066C0003C2704005426040038ED03004CED030081
:1066D00060ED030074ED030080B582B000AF0346A7
:1066E000FB71FB79012B02D0022B0ED01BE0114A6B
:1066F000114BD31ADB081B0443F003030F49184660
:106700000AF0CAFE03F000FF10E00A4A0A4BD31A4F
:10671000DB081B0443F00303094918460AF0BCFEDA
:1067200003F022FF02E003F01FFF00BF00BF0837A5
:10673000BD4680BD3C2704005426040088ED0300BC
:106740009CED030080B582B000AF0346FB71FB797E
:10675000184602F07FFB00BF0837BD4680BD80B5FC
:10676000B4B000AF07F1880207F18C031146184658
:1067700002F0DAFE73233B7200237B607B680533F3
:106780007B60022387F8CF3097F8CF30BB720A23A3
:10679000FB7207F108030433D7F8882007F18C0156
:1067A000184614F0E5FC7A68D7F8883013447B600B
:1067B0007B68DBB27B723A1D07F10803114618466D
:1067C00000F018FB034687F8CE30D7F88830043342
:1067D00007F1D002134497F8CE2003F8C82C3B1DD4
:1067E000184600F07DFD3A1D07F1080311461846D2
:1067F00004F0F8FB00BFD037BD4680BD80B5A4B023
:1068000000AF7860396073233B730023BB60BB68C3
:106810000533BB60022387F88F3097F88F30BB7346
:106820000223FB7307F10C0304333A6879681846B6
:1068300014F09EFCBA683B681344BB60BB68DBB2D3
:106840007B7307F1080207F10C031146184600F0AC
:10685000D1FA034687F88E303B68043307F1900283
:10686000134497F88E2003F8842C07F10803184688
:1068700000F036FD07F1080207F10C031146184637
:1068800004F0B0FB00BF9037BD4680BD80B5BCB002
:1068900000AF78600B467B80002387F8EF300DE077
:1068A00097F8EF3097F8E42007F1F0010B4403F874
:1068B0008C2C97F8EF30013387F8EF3007F1E403C1
:1068C000184604F013FC0346052BE9D197F8EF3086
:1068D0003B6697F86430732B16D0C34AC34BD31A68
:1068E000DB081B0443F00303C14918460AF0D4FD3A
:1068F000BD4ABE4BD31ADB081B0443F00303BD495A
:1069000018460AF0C9FD61E297F865301A463B6EF9
:106910009A4216D0B44AB54BD31ADB081B0443F095
:106920000303B34918460AF0B7FDAF4AAF4BD31A79
:10693000DB081B0443F00303AF4918460AF0ACFD23
:1069400044E23B6E013BC7F8E83007F1600207F113
:1069500064031146184600F04DFA034687F8E73005
:1069600007F16402D7F8E83013441B7897F8E72062
:106970009A4235D09C4A9D4BD31ADB081B0443F046
:10698000030097F8E71007F16402D7F8E8301344E2
:106990001B780A4699490AF0A1FD934A934BD31AF2
:1069A000DB081B0443F003003A6E3B6E94490AF087
:1069B00095FD8D4A8D4BD31ADB081B0443F003036E
:1069C0008B4918460AF068FD874A884BD31ADB08C2
:1069D0001B0443F003038B4918460AF05DFDF5E103
:1069E00097F8663087F8E63097F8E630022B16D035
:1069F0007D4A7E4BD31ADB081B0443F003037C491A
:106A000018460AF049FD784A784BD31ADB081B0474
:106A100043F003037C4918460AF03EFDD6E1724A72
:106A2000724BD31ADB081B0443F003037749184663
:106A30000AF032FD00BF0AF0E5FD0346002BFAD153
:106A4000D7F8E830DBB2033BDBB287F85F300323D3
:106A500087F8EE30B0E1644A644BD31ADB081B04BC
:106A600043F0030397F85F20694918460AF023FDB5
:106A700097F8EE3007F1F002134413F88C3C87F8D6
:106A8000E530594A594BD31ADB081B0443F0030382
:106A900097F8E5205F4918460AF00DFD00BF0AF09F
:106AA000B1FD0346002BFAD197F8E530013B092BE5
:106AB00000F2818101A252F823F000BFE56A0200D2
:106AC0003F6B0200856B0200B76B0200296C02006D
:106AD000756C0200C16C0200116D02004F6D020066
:106AE000856D0200404A414BD31ADB081B0443F07A
:106AF0000303494918460AF0CFFC07F10C03302282
:106B00000021184614F042FB97F8EE30013307F1EC
:106B10006402D11807F10C033022184614F028FB48
:106B200007F10C033021184603F026FC97F85F307C
:106B3000313BDBB287F85F3000F07EF93CE12A4A56
:106B40002A4BD31ADB081B0443F0030333491846CE
:106B50000AF0A2FC07F10C035021184603F0C4FC14
:106B600007F10C0350211846FFF748FE97F85F30F5
:106B7000013BDBB287F85F3097F8EE30013387F8DE
:106B8000EE3019E1184A194BD31ADB081B0443F005
:106B90000303234918460AF07FFC02F0A9F997F88D
:106BA0005F30013BDBB287F85F3097F8EE3001339E
:106BB00087F8EE3000E10C4A0C4BD31ADB081B04BB
:106BC00043F00303174918460AF066FC02F070FA16
:106BD00097F85F30013BDBB287F85F3097F8EE3013
:106BE000013387F8EE30E7E03C2704005426040028
:106BF000B0ED0300CCED0300E4ED0300FCED030079
:106C000024EE030034EE03004CEE030068EE0300B4
:106C100088EE0300A0EE0300B4EE0300D0EE030004
:106C2000ECEE0300FCEE03006A4A6B4BD31ADB0860
:106C30001B0443F00303694918460AF02DFC97F83A
:106C4000EE30013307F1F002134413F88C3C87F85F
:106C5000E53097F8E5301846FFF7D4FC97F85F3039
:106C6000023BDBB287F85F3097F8EE30023387F8EB
:106C7000EE30A1E0574A584BD31ADB081B0443F00F
:106C80000303574918460AF007FC97F8EE30013322
:106C900007F1F002134413F88C3C87F8E53097F8BD
:106CA000E5301846FFF718FD97F85F30023BDBB27E
:106CB00087F85F3097F8EE30023387F8EE307BE0EC
:106CC000444A454BD31ADB081B0443F003034549F0
:106CD00018460AF0E1FB97F8EE30013307F1F002B5
:106CE000134413F88C3C87F8E53097F8E5301846E4
:106CF000FFF728FD00F0A0F897F85F30023BDBB209
:106D000087F85F3097F8EE30023387F8EE3053E0C3
:106D1000304A314BD31ADB081B0443F003033249DA
:106D200018460AF0B9FB012002F0A4F802F0E0F8DE
:106D3000002002F09FF897F85F30013BDBB287F844
:106D40005F3097F8EE30013387F8EE3034E0214AB7
:106D5000214BD31ADB081B0443F0030323491846D5
:106D60000AF09AFB02F098F800F066F897F85F30A6
:106D7000013BDBB287F85F3097F8EE30013387F8DC
:106D8000EE3019E0134A144BD31ADB081B0443F00E
:106D90000303174918460AF07FFBFFF7E0FC97F85A
:106DA0005F30013BDBB287F85F3097F8EE3001339C
:106DB00087F8EE3000E000BF97F85F30002B7FF4DB
:106DC0004AAE07F15F03184600F0B8FAF037BD4647
:106DD00080BD00BF3C270400542604000CEF0300D4
:106DE0001CEF03002CEF030040EF030054EF0300FF
:106DF00064EF030080B485B000AF78603960002391
:106E0000FB730023BB6009E07A68BB6813441A78FF
:106E1000FB7B5340FB73BB680133BB603B681B6863
:106E2000013BBA689A42EFD3FB7B18461437BD4644
:106E30005DF8047B7047000080B5A2B000AF1E4A29
:106E40001E4BD31ADB081B0443F003031C491846EE
:106E50000AF022FB73233B7100233B603B6806333F
:106E60003B60022387F88730FF2387F8863097F846
:106E70008730BB710B23FB7197F886303B723B6800
:106E8000DBB27B713A463B1D11461846FFF7B2FF55
:106E9000034687F8853097F885307B723B46184665
:106EA00000F01EFA3A463B1D1146184604F09AF8C7
:106EB00000BF8837BD4680BD3C270400542604002F
:106EC00080EF030080B5AAB000AF03463960FB71C4
:106ED00073233B75FB790C2B40F08780854A864BEA
:106EE000D31ADB081B0443F00303844918460AF055
:106EF000D3FA00233B613B6906333B61022387F8E9
:106F0000A6303B685B8887F8963097F8A630BB754B
:106F100097F896303B763B685B7A002B03D13B6851
:106F20009B7A002B0FD03B685B7A002B02D00123A9
:106F3000FB7305E03B689B7A002B01D00223FB73B7
:106F40000623FB752BE03B681B79002B01D0012346
:106F5000FB733B685B79002B01D00323FB733B6819
:106F60009B79002B05D03B685B79002B01D0042373
:106F7000FB733B689B79002B09D03B685B79002B46
:106F800005D03B68DB79002B01D00523FB733B6800
:106F90001B7A002B01D00223FB730823FB753B698E
:106FA00001333B613B69DBB27B7507F114030533A9
:106FB00007F10F010122184614F0DAF807F1100268
:106FC00007F1140311461846FFF714FF034687F82C
:106FD000953097F89530BB7607F1100207F114034E
:106FE0001146184603F0FEFF70E1002387F8A73032
:106FF00067E100233B613B6906333B61012387F86E
:10700000A6303B685B8887F8A53097F8A630BB753B
:1070100097F8A530FB75FB79082B5FD0082B00F3A0
:107020002C81052B02D0072B6CD026E13B68043362
:10703000C7F898303B6910333B613B69DBB27B7525
:10704000012387F89F3097F89F303B7607F11403B0
:10705000053397F8A7201201D7F89810114404229D
:10706000184614F085F807F11403093397F8A720A0
:107070001201D7F898100A44111D0422184614F082
:1070800077F807F114030D3397F8A720120108329F
:10709000D7F8981011440422184614F069F807F143
:1070A0001403113397F8A72012010832D7F898106B
:1070B0000A44111D0422184614F05AF807F1100270
:1070C00007F1140311461846FFF794FE034687F8AC
:1070D000973097F8973087F82930E0E0054A064B5B
:1070E000D31ADB081B0443F00303054918460AF0D2
:1070F000D3F9D4E03C2704005426040098EF0300A1
:10710000BCEF03003B680433C7F8A0303B6912337F
:107110003B61032387F89F3097F89F303B763B69AC
:10712000DBB27B7507F11400053097F8A7201346F2
:10713000DB0013445B00D7F8A02013440222194659
:1071400014F016F807F11400073097F8A72013463B
:10715000DB0013445B00D7F8A02013440233022263
:10716000194614F005F807F11400093097F8A72024
:107170001346DB0013445B00D7F8A020134404330C
:107180000222194613F0F4FF07F114000B3097F8B0
:10719000A7201346DB0013445B00D7F8A02013445C
:1071A00006330222194613F0E3FF07F114000D30F5
:1071B00097F8A7201346DB0013445B00D7F8A02004
:1071C000134408330222194613F0D2FF07F11400CA
:1071D0000F3097F8A7201346DB0013445B00D7F865
:1071E000A02013440A330222194613F0C1FF07F10D
:1071F0001400113097F8A7201346DB0013445B00FE
:107200000833D7F8A020134404330222194613F0A0
:10721000AFFF07F11400133097F8A7201346DB00E7
:1072200013445B000833D7F8A0201344063302222E
:10723000194613F09DFF07F11400153097F8A720A9
:107240001346DB0013445B000833D7F8A020134437
:1072500008330222194613F08BFF07F1100207F1E1
:10726000140311461846FFF7C5FD034687F89E3004
:1072700097F89E3087F82B3011E0164A164BD31A38
:10728000DB081B0443F00303144918460AF004F911
:1072900000BF0AF0B7F90346002BFAD100BF07F18F
:1072A0001003184600F01CF807F1100207F1140350
:1072B0001146184603F096FE97F8A730013387F879
:1072C000A73097F8A730042B7FF693AE00BFA837FE
:1072D000BD4680BD3C27040054260400D0EF0300C7
:1072E00080B584B000AF78607B681B687F2B19D9AC
:1072F0000E4A0F4BD31ADB081B0443F003007B68D4
:107300001B681A460B490AF0D6F80423FB60FB6899
:10731000BB60BB68002B05D0074A4FF42371B868E7
:107320000AF0BAFD00BF1037BD4680BD3C270400FF
:1073300054260400D8EF0300E8EF030080B483B0C4
:1073400000AF786000BF0C37BD465DF8047B704726
:1073500080B483B000AF0346FB714FF08042FB79ED
:10736000C2F8203500BF0C37BD465DF8047B70477E
:1073700080B582B000AF00F03DFF78607B683B6075
:107380003B68002B04D0044AD62138680AF084FDFB
:1073900000BF0837BD4680BD0CF0030080B582B049
:1073A00000AF03463960FB71FB79032B05D1A9209F
:1073B000FFF7CEFF00200DF01DFA00BF0837BD46D5
:1073C00080BDB0DF704700BF184666DF704700BF62
:1073D000184680B584B000AF78607B681B7A002BBC
:1073E00018D07B685B8800211846FFF7EEFFF86035
:1073F000FB68002B03D17B6800221A720AE0FB684D
:10740000112B03D17B6801221A7203E07B685B6851
:10741000F868984700BF1037BD4680BD80B582B080
:1074200000AF786039603B681B79012B0BD13B685A
:107430001A887B685B889A4205D17B6801221A72A0
:107440007868FFF7C6FF00BF0837BD4680BD80B42F
:1074500083B000AF7860396000BF0C37BD465DF87F
:10746000047B704780B588B000AF786039603B68B6
:107470001A887B685B889A4235D13B680233FB618E
:10748000FB691B78022B30D1FB691B7A042B07D0D8
:10749000FB691B7A062B03D0FB691B7A052B26D1CF
:1074A00007F1080300221A605A609A60DA6002232A
:1074B0003B724FF4C073BB81FB691B7A052B01D172
:1074C0000023BB813B681B8807F108021146184660
:1074D000FFF777FFB861BB69002B09D07B685B6859
:1074E000B869984704E000BF02E000BF00E000BFB9
:1074F0002037BD4680BD80B584B000AF786039606C
:107500003B68002B40D07B68002B3FD03B68FB6082
:10751000FB681B78DE2B3BD17B689A88FB685B8815
:107520009A4202D1F868FFF754FF7B681B88512B01
:1075300018D0512B2EDC112B1BD0112B2ADC012B48
:1075400002D0022B07D025E07B6804331946F86887
:10755000FFF764FF21E07B6804331946F868FFF702
:1075600076FF1AE07B6804331946F868FFF77AFF64
:1075700013E07B689A88FB685B889A420CD1FB68B1
:107580004FF6FF725A8007E000BF06E000BF04E03C
:1075900000BF02E000BF00E000BF1037BD4680BD65
:1075A00072DF704700BF184673DF704700BF184690
:1075B00080B483B000AF78607B6893F830341846AD
:1075C0000C37BD465DF8047B704780B485B000AFD2
:1075D00078600023FB600AE07A68FB6813441B783C
:1075E000002B01D0012306E0FB680133FB60FB6840
:1075F000052BF1D9002318461437BD465DF8047BEE
:107600007047000080B483B000AF0346FB71FB7984
:107610005A1C084B83FB02135910D317C91A0B4687
:107620009B000B44D11ACBB218460C37BD465DF80F
:10763000047B70476766666680B483B000AF78608D
:1076400039603B68DB7B012B04D13B689A887B68FF
:10765000A3F8242400BF0C37BD465DF8047B7047B7
:1076600080B584B000AF786039607B68002283F811
:107670002E243B689A887B68B3F824349A4216D14A
:107680007B681B7983F00103DBB2002B0FD0012153
:10769000786800F0BDF9F860FB68002B07D07B68C4
:1076A0009B6B002B03D07B689B6BF868984700BFEF
:1076B0001037BD4680BD80B584B000AF78603960BA
:1076C0003B681B88262B1ED13B681B7A012B03D0FD
:1076D0003B681B7A022B17D17B689B781846FFF713
:1076E00091FF03461946786800F092F9F860FB684C
:1076F000002B09D07B689B6B002B05D07B689B6BB4
:10770000F868984700E000BF1037BD4680BD000014
:1077100080B584B000AF78600B46FB707B6803F2E5
:1077200027431846FFF751FF0346FB73FB78013BE5
:10773000032B31D801A252F823F000BF4D7702008D
:107740006F770200817702008D7702007B689B795A
:10775000002B0CD07B6893F8243083F00103DBB25C
:10776000002B04D0FB7B002B01D0012315E07B68AC
:10777000DB79002B04D0FB7B002B01D002230CE033
:107780007B681B7A002B01D0032306E07B685B7AC1
:10779000002B01D0042300E0002318461037BD461B
:1077A00080BD00BF80B483B000AF786039607B6873
:1077B000012283F831207B680022C3F820247B68F3
:1077C00003F226423B685A603B6800229A603B689D
:1077D00002221A703B6880229A81002318460C37D7
:1077E000BD465DF8047B704780B483B000AF78601D
:1077F00039607B68022283F831207B6893F824305B
:10780000002B03D03B6807221A7002E03B6803227A
:107810001A707B681B699AB23B689A817B68002268
:10782000C3F820247B6803F226423B685A607B68D9
:10783000DA683B689A60002318460C37BD465DF84D
:10784000047B704780B582B000AF78607B685B795D
:10785000002B0FD07B6893F82E3483F00103DBB24A
:10786000002B07D07868FFF7A3FE0346002B01D05A
:10787000012300E0002303F00103DBB218460837C0
:10788000BD4680BD80B584B000AF78600B46FB700C
:107890007B68D3F810047B68B3F8143401221946CE
:1078A00010F027F9F860FB68002B02D0FB68FA782B
:1078B0001A707B6803F154007B6803F582617B6872
:1078C0003C331A46FFF76CFE034618461037BD4698
:1078D00080BD80B584B000AF786039607B685A693C
:1078E0003B689A607B689B699AB23B689A817B6827
:1078F00093F82430002B04D07B68062283F83C20C8
:1079000003E07B68012283F83C207868FFF79AFF48
:107910000346002B13D03B6802221A7504217868B5
:10792000FFF7B0FFF860FB68BB60BB68002B01D0BD
:10793000BB680FE07B68052283F8312003E07B6899
:10794000032283F831207B6803F582627B68C3F8E9
:107950002024002318461037BD4680BD80B584B072
:1079600000AF786039607B68DA693B689A607B6851
:107970001B6A9AB23B689A817B6893F82430002B8B
:1079800004D07B68062283F83C2003E07B68012258
:1079900083F83C207868FFF755FF0346002B13D08F
:1079A0003B6802221A7504217868FFF76BFFF860C4
:1079B000FB68BB60BB68002B01D0BB680FE07B6835
:1079C000062283F8312003E07B68042283F831200B
:1079D0007B6803F582627B68C3F820240023184685
:1079E0001037BD4680BD80B483B000AF78607B683F
:1079F0001B68012B03D07B681B68022B01D101237C
:107A000000E0002318460C37BD465DF8047B704744
:107A100080B584B000AF78600B46FB707B681B7844
:107A200083F00103DBB2002B01D0082307E17B6860
:107A3000FA789A707B6803F22643072200211846E1
:107A400013F0A4FB7B689B79002B03D07B689B78A9
:107A5000012B0FD07B68DB79002B03D07B689B78F0
:107A6000012B07D07B68DB79002B14D07B689B78D7
:107A7000022B10D17B685B6B002B08D07B68012246
:107A800083F82D247B685B6B0820984703E07B68B4
:107A9000002283F82D24FB7819467868FFF738FE1A
:107AA00003461A467B689A707B685B6B002B20D07C
:107AB0007B689B78032B03D07B689B78042B18D1C1
:107AC0007B685B79002B14D07B6893F82E3483F0AD
:107AD0000103DBB2002B0CD07B68002283F830243A
:107AE0007B68012283F82F247B685B6B0720984713
:107AF00003E07B68002283F82F247B683C33182244
:107B00000021184613F042FB7B68012283F83C20D9
:107B10007B682C331846FFF766FF0346002B06D020
:107B20007B68DB6ADAB27B6883F8512003E07B680C
:107B3000012283F851207B6893F82430002B12D067
:107B40007B6828331846FFF74EFF0346002B06D00C
:107B50007B689B6ADAB27B6883F8522003E07B681B
:107B6000012283F852207B68002283F850207B6832
:107B70009B78042B31D801A252F823F0D17B02006C
:107B8000917B0200A17B0200B17B0200C17B02005D
:107B90007B683C3319467868FFF704FEF8601DE007
:107BA0007B683C3319467868FFF71EFEF86015E0E5
:107BB0007B683C3319467868FFF78BFEF8600DE070
:107BC0007B683C3319467868FFF7C8FEF86005E02B
:107BD0007B68002283F8312000E000BF7B689B783F
:107BE000002B20D07B6803F154007B68D3F820146D
:107BF0007B683C331A46FFF7D3FCF860FB68002B28
:107C000001D0FB681BE07B6893F854207B6893F8F5
:107C1000303019461046FFF7C7FCF860FB68002BB0
:107C200001D0FB680BE07B685B6B002B06D07B68A8
:107C30005B6B7A6892F8312010469847002318460B
:107C40001037BD4680BD00BF80B584B000AF7860FE
:107C500039603B68FB607B681B88262B10D0262B85
:107C600013DC102B02D0112B05D00EE07968F868D8
:107C7000FFF7E2FC0AE07968F868FFF7F1FC05E03D
:107C80007968F868FFF717FD00E000BF00BF103704
:107C9000BD4680BD13DF704700BF184680B582B077
:107CA00000AF40F6F8731B68B3F1FF3F02D11E4BE3
:107CB0001B6802E040F6F8731B687B607B68B3F1D9
:107CC000FF3F21D0194A1A4BD31ADB081B0443F09B
:107CD00003037A681749184609F0EDFB7868FFF747
:107CE000D9FF38603B68002B0CD0104A104BD31AD8
:107CF000DB081B0443F001030F49184609F0CCFBD5
:107D00003B680DE000230BE0084A094BD31ADB085F
:107D10001B0443F001030949184609F0BDFB042385
:107D200018460837BD4680BD141000109426040084
:107D30005426040084F10300B0F10300E4F10300D1
:107D400080B582B000AF134A134BD31ADB081B0473
:107D500043F00303114A1249184609F0ACFB0F4BDC
:107D60001846FFF797FF78607B68002B0CD0094A14
:107D7000094BD31ADB081B0443F0010309491846D9
:107D800009F08AFB7B6800E0002318460837BD46EF
:107D900080BD00BF94260400542604000060020049
:107DA000FCF10300B0F10300ADDF704700BF1846DF
:107DB000AEDF704700BF1846B0DF704700BF1846FF
:107DC0003CDF704700BF18463DDF704700BF1846D4
:107DD00080B58AB000AF786007F11403102200214B
:107DE000184613F0D3F902233B7502233B8100238D
:107DF0007B8107F11003FB601A4B9B88194A51895C
:107E000007F108021846FFF7CFFF78627B6A002B64
:107E10000ED107F11003184610F083FE0346002B25
:107E200006D0BB7E43F00103BB7600233B8302E018
:107E300040F2FD133B830B4B9B8807F11402114664
:107E40001846FFF7B9FF78627B6A112BF3D03B8BA2
:107E5000002B03D1786800F031FA00E000BF28372A
:107E6000BD4680BDDCA4002080B584B000AF786042
:107E70007B689A88134B9B889A421ED17B68063395
:107E8000FB60FB681B78022B18D1FB685A880D4BEE
:107E9000DB889A4212D1FB681B7A042B0ED0FB6858
:107EA0001B7A062B0AD0FB681B7A052B06D0FB68D1
:107EB00002331846FFF78CFF00E000BF1037BD46C5
:107EC00080BD00BFDCA4002080B483B000AF786028
:107ED0007B689A88034B9A8000BF0C37BD465DF8DB
:107EE000047B7047DCA4002080B483B000AF7860CE
:107EF000084B9A887B689B889A4204D1054B4FF6C1
:107F0000FF729A8000E000BF0C37BD465DF8047B2D
:107F1000704700BFDCA4002080B584B000AF78605B
:107F20007B680633FB60FB681A880B4BDB889A4240
:107F30000DD1094B1B7E002B09D000F027FAB86049
:107F4000BB68002B03D0044B5B690220984700BF3D
:107F50001037BD4680BD00BFDCA4002080B582B0D4
:107F600000AF786039607B68002B1ED07B681B886F
:107F7000532B16D0532B1ADC512B0ED0512B16DC61
:107F8000102B02D0112B04D011E07868FFF79CFF72
:107F90000EE07868FFF7A8FF0AE07868FFF764FF53
:107FA00006E07868FFF7B8FF02E000BF00E000BF1E
:107FB0000837BD4680BD000080B58AB000AF0346DB
:107FC0000A46FB711346BB7103237B8407F10C0344
:107FD00010220021184613F0D9F87B8C3B84202313
:107FE0003B77FB797B77BB79BB77124BDB88BB8117
:107FF0000223BB7300233B8207F120037B6107F15F
:108000001C03BB610B4B9B8807F10C021146184601
:10801000FFF7CEFE78627B6A002B05D13B8C7A8C11
:108020009A4201D00C237B627B6A18462837BD46F2
:1080300080BD00BFDCA4002080B584B000AF4FF04D
:10804000FF310020FFF7C0FEF860FB68BB60BB6833
:10805000002B01D0BB6813E0B1210020FFF7B0FE78
:10806000F860FB687B607B68002B01D07B6807E0D1
:10807000054B5B690120984702200CF0BBFB0023F5
:1080800018461037BD4680BDDCA400204FF0030C1D
:1080900000DF704700BF184680B582B000AF78603F
:1080A0007868FFF7F3FF034618460837BD4680BDE2
:1080B00080B500AF0248FFF7EFFF0346184680BDCA
:1080C000F8A4002080B582B000AF7860044B1B6834
:1080D000044978689847034618460837BD4680BD6E
:1080E000F8A4002000A5002080B582B000AF786021
:1080F000044B5B680449786898470346184608377C
:10810000BD4680BDF8A4002000A5002080B400AFCB
:10811000074B1B68002B05D0054B5B68002B01D07B
:10812000012300E000231846BD465DF8047B70473C
:10813000F8A4002080B584B000AF7860124B1B68B3
:108140005B7E002B01D006231AE07868FFF7BAFFA8
:10815000F860FB68002B04D10B4B1B6801225A7698
:108160000DE0FB680F2B0AD1084A094BD31ADB0834
:108170001B0443F001030749184609F08DF9FB6819
:1081800018461037BD4680BD04A500209426040083
:108190005426040058FC030080B582B000AF144B95
:1081A0001B685B7E002B0ED006210120FFF704FF29
:1081B00078607B68002B04D00D4B1B685B69032043
:1081C0009847002310E00A4B1B6801221A76012110
:1081D0000120FFF7F1FE78607B68002B03D0044B91
:1081E0001B6800221A767B6818460837BD4680BD9A
:1081F00004A5002080B584B000AFFFF74FFDF86004
:10820000FB68BB60BB68002B01D0BB680DE0FFF7CB
:108210004FFFF860FB687B607B68002B01D07B68B8
:1082200003E0FFF78DFDF860FB6818461037BD4688
:1082300080BD000080B584B000AF78603960FFF782
:1082400065FF0346002B32D07868FFF74DFFF860DA
:10825000FB68082B2CD0FB68002B11D1164B1B6838
:1082600000225A7601210220FFF7A6FEF860FB6883
:10827000002B1DD0104B1B685B690320984717E04B
:108280000D4B1B6800225A7606210220FFF794FE50
:10829000F860FB68002B04D0074B1B685B69032068
:1082A0009847054B1B685B690220984700E000BFB8
:1082B0001037BD4680BD00BF04A5002080B584B046
:1082C00000AF78600423FB737B681B7B012B02D01B
:1082D000022B0FD031E0FFF75FFFB860BB68002BC7
:1082E00002D10123FB732BE0BB68112B28D106239D
:1082F000FB7325E07B685B7B142B03D87B685B7B7F
:10830000002B02D10523FB731CE07B6803F10E01F7
:108310007B685B7B1A461A4812F02AFF7B685B7BFE
:108320001A46184B9A611748FFF704FFB860BB68FC
:10833000002B07D10123FB7304E00223FB7302E04F
:1083400000BF00E000BFFB7B012B14D07B681B7BD0
:10835000FA7B11461846FFF72FFEB860BB68002B6A
:1083600004D0094B1B685B6903209847064B1B68C8
:108370005B690220984700BF1037BD4680BD00BF33
:108380000CA5002008A5002004A5002080B582B01F
:1083900000AF064B1B685B6900209847FFF74CFE57
:1083A00078607B6818460837BD4680BD04A500206C
:1083B00080B586B000AFF860B9601346FB80BB683B
:1083C0007B617B69DB68002B03D07B69DB68F86825
:1083D000984700BF1837BD4680BD80B586B000AF56
:1083E000786039607B681A883B689B889A4218D10C
:1083F0003B680A337B617B691A887B689B889A4259
:1084000010D13B689B88FB8102233B737B699B797E
:108410003B747B689B6807F10C02114678689847AB
:1084200000E000BF1837BD4680BD80B584B000AF06
:10843000786039607B681A883B689B889A4219D1BA
:108440003B685A897B689B889A4214D13B68DB89D8
:10845000012B10D13B689B887B8101233B723B68D9
:108460001B7C3B737B689B6807F1080211467868A8
:10847000984700E000BF1037BD4680BD80B586B08C
:1084800000AF786039603B681B78002B58D13B689F
:108490009B8841F60F02934252D13B689B79012B96
:1084A0004ED100233B733B685B88FB810023FB7547
:1084B00024E0FA7D39681346DB0013445B000B446B
:1084C0000E331B8842F61922934214D1FA7D396883
:1084D0001346DB0013445B000B4418331B883B82BC
:1084E000FA7D39681346DB0013445B000B441633F6
:1084F0001B887B8207E0FB7D0133FB753B681B7AA1
:10850000FA7D9A42D5D37B681B884FF6FF7293425F
:108510000DD07B685B88002B09D17B689B88002B82
:1085200005D17B68023307F11002106818607B6880
:108530009B6807F10C0211467868984700BF02E07B
:108540003B681B78022B00BF1837BD4680BD00007A
:1085500080B58CB000AF78600B46FB70FB78FB8574
:10856000FB8DDBB23B72FB8D1B0A9BB2DBB27B72D5
:1085700007F10C0320220021184612F007FE012308
:108580003B730F4B7B617B68BB617B685B88FB83C4
:1085900002237B8407F108037B6200233B840123D1
:1085A0003B777B6818697B681A8807F10C031946CA
:1085B00011F088F8034618463037BD4680BD00BF2D
:1085C000B183020080B584B000AF786039607B6809
:1085D000002B01D10E2325E03B68002B01D10E2397
:1085E00020E00123BB7341F60F03BB817B684FF68C
:1085F000FF721A807B6800225A807B6800229A8072
:108600003B681A687B689A603B685A687B68DA60E6
:108610003B689A687B681A6107F10C03184610F0F2
:1086200041F9034618461037BD4680BD80B483B07B
:1086300000AF786039607B681A883B689B889A42F3
:1086400009D17B684FF6FF721A807B6800225A803E
:108650007B6800229A8000BF0C37BD465DF8047B22
:10866000704780B584B000AF786039607B68002BBC
:108670001ED03B68002B1BD03B68FB607B681B88CF
:10868000392B06D0392B15DC112B0CD0362B05D00D
:1086900010E07968F868FFF7C8FE0CE07968F868C0
:1086A000FFF79BFE07E07968F868FFF7BFFF02E07D
:1086B00000BF00E000BF1037BD4680BD80B582B06E
:1086C00000AF78607B68002B01D10E230CE07B6843
:1086D0001B884FF6FF72934201D1082304E0012169
:1086E0007868FFF735FF034618460837BD4680BD5A
:1086F00080B58AB000AF78607B68002B01D10E2373
:1087000021E07B681B884FF6FF72934201D108235A
:1087100019E007F1080320220021184612F036FD67
:1087200000233B720A4B3B617B687B617B689B88C3
:108730003B837B6818697B681A8807F10803194630
:1087400010F0C0FF034618462837BD4680BD00BF65
:10875000B183020080B584B000AFF8600B467A6048
:108760007B81FB68002B01D10E231FE0FB687A8917
:108770001A807B68002B04D0FB687A680233126889
:108780001A600C4A0C4BD31ADB081B0443F003009D
:10879000FB681B881A46094908F08DFEFB681B69B7
:1087A0007A891146184611F021F803461846103709
:1087B000BD4680BDAC2604005426040034FD0300F1
:1087C00075DF704700BF184676DF704700BF184658
:1087D0007FDF704700BF18468FDF704700BF184625
:1087E00080B582B000AF7860044ABE21786809F095
:1087F00053FB00BF0837BD4680BD00BF74FD0300BA
:1088000080B586B000AF786039602F4A2F4BD31AFD
:10881000DB081B0443F003032D49184608F03CFE17
:108820003B681B78022B3DD0022B49DC002B01D08A
:10883000012B45E0244A254BD31ADB081B0443F0E7
:1088400003032449184608F027FE3B6859883B6813
:108850000E331A46786811F0A5FF78617B693B6199
:108860003B69002B04D01C4AD521386909F014FB60
:10887000786811F079FF78617B69FB60FB68002BF9
:1088800004D0154AD821F86809F006FB0E4A0F4BB0
:10889000D31ADB081B0443F003031049184608F001
:1088A000FBFD0DE0084A094BD31ADB081B0443F01B
:1088B00003030B49184608F0EFFD01F0EFFA00BF83
:1088C00000BF1837BD4680BD34270400542604007D
:1088D00094FD0300ACFD030074FD0300C0FD030024
:1088E000F0FD030080B586B000AF154B3B60154B23
:1088F0007B60154BBB6000237B6119E07A691346EE
:108900005B001344DB00114A13443A4611461846F3
:1089100011F056FE38613B69FB60FB68002B04D008
:108920000B4AFC21F86809F0B7FA7B6901337B61D7
:108930007B69072BE2DD00BF00BF1837BD4680BD55
:1089400001880200E1870200C89D00206CC1002060
:1089500074FD0300F0B58FB004AF786039603B68F8
:108960001B78013B0B2B00F2E18001A252F823F0AF
:10897000A18902002D8B02002D8B0200498B020081
:10898000838A02002D8B02001D8B0200938A020055
:108990002D8B02002D8B02002D8B0200218A0200FC
:1089A0006C4A6D4BD31ADB081B0443F003003B6891
:1089B0005B881A46694908F07EFD3B6859883B6828
:1089C00004331A46786806F05FFBB861BB697B61C7
:1089D0007B69002B05D0624A4FF4AE71786909F0CB
:1089E0005BFA5C4A5C4BD31ADB081B0443F00300C0
:1089F0007B681B881A465B4B1B881946594B9B8F1B
:108A000000930B46584908F07FFD3968786800F0FC
:108A1000EBF800BF08F0F6FD0346002BFAD194E016
:108A20004C4A4D4BD31ADB081B0443F003003B6850
:108A30001B791D463B681B7A1E463B685B791A46CC
:108A40003B689B7919463B68DB791C463B685B7A3F
:108A5000039302940191009233462A46434908F059
:108A6000A1FD00BF08F0CEFD0346002BFAD10C2378
:108A700087F8273097F8273039681846FEF722FA2A
:108A800063E00523BB77BB7F39681846FEF71AFA07
:108A90005BE00C233B623B68DB6807EE903AB8EE84
:108AA000E77ADFED336AC7EE267AC7ED027A3B68D4
:108AB0009B6807EE903AB8EEE77ADFED2D6AC7EED5
:108AC000267AC7ED037A3B685B6807EE903AB8EE0A
:108AD000E77ADFED276AC7EE267AC7ED047A1D4AEA
:108AE0001D4BD31ADB081B0443F00300D7ED027AB9
:108AF000FDEEE77A17EE902AD7ED037AFDEEE77ADE
:108B000017EE901AD7ED047AFDEEE77A17EE903A59
:108B100000930B46174908F0F7FC16E00723FB7794
:108B2000FB7F39681846FEF7CDF90EE0094A0A4B7B
:108B3000D31ADB081B0443F003003B681B781A467A
:108B40000D4908F0B8FC00E000BF00BF2C37BD465F
:108B5000F0BD00BF342704005426040090FE03003B
:108B600074FD03002CC20020BCFE0300E4FE0300E1
:108B70000000804734FF030048FF030080B586B043
:108B800000AF154B7B60154BBB6000237B611AE087
:108B90007A6913461B019B1A9B00114A13443A1D24
:108BA0001146184606F07AF838613B69FB60FB68AD
:108BB000002B05D00B4A40F20E21F86809F06CF941
:108BC0007B6901337B617B69072BE1D900BF00BF63
:108BD0001837BD4680BD00BF55890200C89D0020E2
:108BE0002CC2002074FD030080B588B000AF78600F
:108BF00039603B685B881A4613461B019B1A9B0031
:108C00003A4A1344184606F045F9F861FB69BB611E
:108C1000BB69002B05D0364A4FF40971B86909F0D9
:108C20003BF93B685B881A4613461B019B1A9B0065
:108C30002E4A1344184606F069F9F861FB697B6116
:108C40007B69002B05D02A4A40F22621786909F079
:108C500023F93B685B881A4613461B019B1A9B004D
:108C6000224A1344184606F06FF9F861FB693B612C
:108C70003B69002B05D01E4A4FF40A71386909F090
:108C80000BF93B685B881A4613461B019B1A9B0035
:108C9000164A1344184606F075F9F861FB69FB6043
:108CA000FB68002B05D0124A40F22A21F86809F02F
:108CB000F3F83B685B881A4613461B019B1A9B001E
:108CC0000A4A1344184606F003F9F861FB69BB60D1
:108CD000BB68002B05D0064A4FF40B71B86809F049
:108CE000DBF800BF2037BD4680BD00BF2CC200208E
:108CF00074FD030084B080B584B000AF07F1180C98
:108D00008CE80F000023FB7339E0224A224BD31A70
:108D1000DB081B0443F00300FA7B204913461B01C8
:108D20009B1A9B000B441B881A461D4908F0C3FB85
:108D3000FA7B13461B019B1A9B00184A134407F148
:108D40001801184606F03CF9B860BB68082B0DD036
:108D5000BB68002B0AD0BB687B607B68002B05D00A
:108D6000104A4FF41071786809F096F800BF08F0C7
:108D700049FC0346002BFAD1FB7B0133FB73FB7BE1
:108D8000072BC2D900BF00BF1037BD46BDE88040E9
:108D900004B0704734270400542604002CC200207D
:108DA000ACFF030074FD030080B483B000AF034642
:108DB000FB71074AFB791370054AFB795370044A2B
:108DC000FB79937000BF0C37BD465DF8047B70479C
:108DD0003894002080B483B000AF0346FB71044A8E
:108DE000FB79137200BF0C37BD465DF8047B7047FA
:108DF0003894002080B483B000AF0346FB71044A6E
:108E0000FB79D37000BF0C37BD465DF8047B70471B
:108E10003894002080B483B000AF0346FB71044A4D
:108E2000FB79137100BF0C37BD465DF8047B7047BA
:108E30003894002080B483B000AF0346FB71044A2D
:108E4000FB79937100BF0C37BD465DF8047B70471A
:108E50003894002080B483B000AF7860044A7B6807
:108E6000936100BF0C37BD465DF8047B704700BFBF
:108E70003894002080B483B000AF0346FB71054AEC
:108E8000FB7982F84D3000BF0C37BD465DF8047B9E
:108E9000704700BF3894002080B400AF134B00220D
:108EA0001A70124B00225A70104B00229A700F4B0E
:108EB0000022DA700D4B00221A710C4B00225A71FD
:108EC0000A4B00229A61094B0022DA71074B0022FB
:108ED00083F84C20054B00229A71044B002283F842
:108EE0004D2000BFBD465DF8047B704738940020DC
:108EF0002DE9B04F98B004AF6B4B1B7887F830303A
:108F0000694B5B7887F83130674B9B7887F8323054
:108F1000654B5B7987F83330634BDB7887F8343007
:108F2000614B1B7987F835305F4B9B699BB2FB86A1
:108F30005D4B9B7987F838305B4B1B7A87F839306B
:108F4000594BDB7987F84830574B93F84C3087F80A
:108F50004930554B93F84D3087F84A3001F018FEF0
:108F600002460B465049C1E904234F4BD3E9042381
:108F700012F1080443F100054FF47A524FF0000358
:108F80002046294615F02CFD02460B4612F5FA61E3
:108F9000B96243F10003FB62434BD7E90A12C3E90C
:108FA0000412414BD3E9044522462B464FF0000002
:108FB0004FF00001590141EAD261500102460B46CF
:108FC000B2EB040863EB05094FF000024FF0000319
:108FD0004FEA890343EA98734FEA8802904699461C
:108FE00018EB04033B6149EB05037B614FF0000282
:108FF0004FF00003D7E904452946CB00214643EA58
:1090000051732146CA0012F5FA71396243F1000327
:109010007B62264A4FF00003D7E9080115F0E0FC17
:1090200002460B461046194602460B469418BC6091
:109030005B41FB60D7E9022312EB000A43EB010B13
:109040004FF000024FF000034FEA4B1343EADA639C
:109050004FEA4A121AEB02043C604BEB03037B60BD
:10906000D7E9004523461B18BB612B4641EB0303A0
:10907000FB610D4BD7E90612C3E904120A4BD3E991
:109080000423C7E910236C4607F140030FCB84E8A3
:109090000F0007F130030FCBFFF72CFE00BF503756
:1090A000BD46BDE8B08F00BF38940020A086010007
:1090B0002DE9B04F98B004AFFFF7EEFE6A4B1B7876
:1090C00087F83030684B5B7887F83130664B9B7897
:1090D00087F83230644B5B7987F83330624BDB784A
:1090E00087F83430604B1B7987F835305E4B9B69CD
:1090F0009BB2FB865C4B9B7987F83830002387F85E
:109100003930594BDB7987F84830574B93F84C305E
:1091100087F84930544B93F84D3087F84A3001F0C6
:1091200037FD02460B465049C1E904234E4BD3E9B3
:10913000042312F1080443F100054FF47A524FF072
:1091400000032046294615F04BFC02460B4612F55B
:10915000FA61B96243F10003FB62434BD7E90A129B
:10916000C3E90412404BD3E9044522462B464FF095
:1091700000004FF00001590141EAD261500102465E
:109180000B46B2EB040863EB05094FF000024FF009
:1091900000034FEA890343EA98734FEA8802904636
:1091A000994618EB04033B6149EB05037B614FF0E3
:1091B00000024FF00003D7E904452946CB002146C1
:1091C00043EA51732146CA0012F5FA71396243F13C
:1091D00000037B62254A4FF00003D7E9080115F030
:1091E000FFFB02460B461046194602460B469418F2
:1091F000BC605B41FB60D7E9022312EB000A43EB42
:10920000010B4FF000024FF000034FEA4B1343EA0B
:10921000DA634FEA4A121AEB02043C604BEB030399
:109220007B60D7E9004523461B18BB612B4641EB09
:109230000303FB610C4BD7E90612C3E904120A4B86
:10924000D3E90423C7E910236C4607F140030FCB91
:1092500084E80F0007F130030FCBFFF74BFD00BF91
:109260005037BD46BDE8B08F38940020A08601007D
:1092700080B582B000AF7860044A4FF458717868C6
:1092800008F00AFE00BF0837BD4680BD74FD03002C
:10929000B0B588B002AF78603960964A964BD31A61
:1092A000DB081B0443F003003B681B781A46934914
:1092B00008F001F93B681B78002B07D0002BC0F2A7
:1092C0001181013B012B00F20D8147E03B68598879
:1092D0003B6804331A467868FFF73CFA78617B698B
:1092E0003B613B69002B05D0854A40F272313869F9
:1092F00008F0D2FD7F4A804BD31ADB081B0443F0F1
:1093000003003B685B881A467E4B1B8819467D4BE1
:109310009B8A00930B467C4908F0F6F87868FFF7C3
:10932000E7F978617B69FB60FB68002B05D0744A24
:1093300040F27A31F86808F0AFFD7868FFF7BEF9BF
:1093400078617B69BB60BB68002B00F0CD806C4A04
:1093500040F27E31B86808F09FFDC5E0654A664B73
:10936000D31ADB081B0443F003003B681B791A4641
:10937000664908F0A0F83B681A793B685B881C4690
:10938000104604F055FDF0EE407A614AE3001344C4
:109390000433C3ED007A574A574BD31ADB081B043A
:1093A00043F003003B685B881D463B685B88584A76
:1093B000DB0013440433D3ED007AF5EEC07AF1EE0E
:1093C00010FA10D53B685B88514ADB001344043324
:1093D000D3ED007ABFEE007AF4EEC77AF1EE10FA20
:1093E00001DD4C4A00E04C4A3B685B884849DB00A1
:1093F0000B440433D3ED007AFDEEE77A17EE904A82
:109400003B685B884249DB000B440433D3ED007AB0
:10941000F5EEC07AF1EE10FA16DD3B685B883C4948
:10942000DB000B44043393ED007A3B685B883849DA
:10943000DB000B440433D3ED007AFDEEE77AF8EE5F
:10944000E77A77EE677A15E03B685B883049DB00A6
:109450000B440433D3ED007AFDEEE77AB8EEE77AF9
:109460003B685B882A49DB000B440433D3ED007A68
:1094700077EE677A9FED297A67EE877AFDEEE77AD5
:1094800017EE903A0193009413462A46244908F0B7
:1094900053F83B685B881E4ADB0013440433D3ED6A
:1094A000007A3B685B881C46B0EE670A04F00CFD4E
:1094B00003461A46164B03F834200E4A0E4BD31AB5
:1094C000DB081B0443F003003B685B8819463B68DC
:1094D0005B881A460E4B13F832300A46114907F0E2
:1094E000FDFF02E000BF00E000BF00BF1837BD462F
:1094F000B0BD00BF34270400542604004800040017
:1095000074FD03000CC40020600004008800040007
:1095100024A50020A8000400AC0004000000C842FC
:10952000B0000400D800040080B582B000AF7860BD
:1095300039603B6840221A603B681B681A46044940
:10954000786811F015FE00BF0837BD4680BD00BF2A
:1095500024A5002080B586B000AF164B3B60164BAB
:109560007B60164BBB6000237B611AE07A6913466F
:109570009B0013449B00124A13443A461146184676
:10958000FFF720F838613B69FB60FB68002B05D0D2
:109590000C4A4FF46B71F86808F07EFC7B6901336C
:1095A0007B617B69072BE1D900BF00BF1837BD463F
:1095B00080BD00BF9192020071920200C89D002000
:1095C0000CC4002074FD030080B582B000AF786049
:1095D0007B685B881A4613465B001344DB00124A23
:1095E00013447968184610F059FF7B685B881A4667
:1095F00013461B019B1A9B000C4A134479681846BA
:1096000005F058FA7B685B881A4613469B001344A2
:109610009B00074A134479681846FEF72FFF00BFE6
:109620000837BD4680BD00BF6CC100202CC20020A1
:109630000CC4002090B486B000AF07F1080484E8A1
:109640000300394681E80C000023FB8212E0FB8A0C
:1096500007F11802134413F80F2CFB8A07F11801C5
:109660000B4413F8173C9A4201D0002306E0FB8A12
:109670000133FB82FB8A052BE9D9012318461837F1
:10968000BD4690BC70470000F0B5C7B004AF07F509
:109690008473A3F58273186007F58473A3F584734C
:1096A000196007F58473A3F582731B680433C7F848
:1096B000043107F58473A3F582731B681B88103B84
:1096C000462B00F2D78301A252F823F0E99702005B
:1096D000D99B0200759E0200499D0200759E020002
:1096E000759E0200759E0200759E0200759E020026
:1096F000759E0200759E0200E79C0200759E0200A6
:10970000759E0200759E0200859D0200759E0200F6
:10971000BD9D0200759E0200759E0200759E0200AE
:10972000759E0200759E0200759E0200759E0200E5
:10973000759E0200759E0200759E0200759E0200D5
:10974000759E0200759E0200759E0200759E0200C5
:10975000759E0200759E0200759E0200759E0200B5
:10976000759E0200759E0200759E0200759E0200A5
:10977000759E0200759E0200059E0200759E020005
:10978000759E0200759E0200759E0200759E020085
:10979000759E0200759E0200759E0200759E020075
:1097A000759E0200759E0200759E0200759E020065
:1097B000759E0200759E0200759E0200759E020055
:1097C000759E0200759E0200759E0200759E020045
:1097D000759E0200759E0200759E0200759E020035
:1097E000759E02003D9E0200774A784BD31ADB0833
:1097F0001B0443F0030007F58473A3F582731B6811
:109800005B7A1D4607F58473A3F582731B689B7A08
:109810001E4607F58473A3F582731B68DB7A1A462C
:1098200007F58473A3F582731B681B7B194607F544
:109830008473A3F582731B685B7B1C4607F58473F6
:10984000A3F582731B689B7B0393029401910092A2
:1098500033462A465E4907F0A5FE5B4A5B4BD31AA6
:10986000DB081B0443F0030007F58473A3F5827340
:109870001B689B881A46574907F01DFED7F804312C
:109880001B884FF6FF72934200F0AC800023A7F8CC
:10989000023192E0B7F80221D7F804014E4913468D
:1098A0009B0013445B000B44D3F802201446DA8873
:1098B0001B7A1B041343002163F31701031D0CCB18
:1098C0002046FFF7B7FE0346002B71D0B7F8022100
:1098D000D7F804311888404913469B0013445B00B5
:1098E0000B4402461A80384A384BD31ADB081B0453
:1098F00043F00300B7F80221374913469B00134495
:109900005B000B441B881A46344907F0D4FD2E4AED
:109910002E4BD31ADB081B0443F00300B7F80221D7
:109920002D4913469B0013445B000B4403331B7803
:109930009C46B7F80221284913469B0013445B005C
:109940000B4404331B789E46B7F802212249134684
:109950009B0013445B000B4405331B781C46B7F88F
:1099600002211D4913469B0013445B000B44063340
:109970001B781D46B7F80221174913469B00134474
:109980005B000B4407331B781E46B7F802211249CF
:1099900013469B0013445B000B4408331B7803936E
:1099A000029601950094734662460D4907F0FAFD50
:1099B000B7F802310133A7F80231B7F80231072BAB
:1099C0007FF668AF20E000BF34270400542604006F
:1099D00068010400940104001CC10020A8010400D7
:1099E000C00104000523C7F8FC30D7F8FC30C7F8E5
:1099F000E030D7F8E030002B06D0C44A40F23641C0
:109A0000D7F8E00008F048FA07F58473A3F58273ED
:109A10001B689B881A4613465B001344DB00BC4A54
:109A2000981807F58473A3F582731B689B8800223E
:109A3000194610F0B7FEC7F8FC00D7F8FC30C7F89D
:109A4000DC30D7F8DC30002B06D0B04A40F23F4182
:109A5000D7F8DC0008F020FAAE4AAF4BD31ADB0887
:109A60001B0443F00300D7F804311B881A46AB49A6
:109A700007F021FDD7F804311B881A4613461B0155
:109A80009B1A9B00A64A9818D7F804311B8800221D
:109A9000194605F0F9FAC7F8FC00D7F8FC30C7F80A
:109AA000D830D7F8D830002B06D0984A40F246413B
:109AB000D7F8D80008F0F0F9D7F804311B881A4617
:109AC00013469B0013449B00964A9818D7F804311C
:109AD0001B8800221946FEF73DFEC7F8FC00D7F8A8
:109AE000FC30C7F8D430D7F8D430002B06D0874AE2
:109AF00040F24A41D7F8D40008F0CEF905F004FD51
:109B00000346072B01D800F0C9F907200DF06BFCC4
:109B1000C7F8FC00D7F8FC30C7F8D030D7F8D03001
:109B2000002B06D0794A40F25541D7F8D00008F012
:109B3000B3F94FF4136200217B4811F027FB07F5BE
:109B40008473A3F582731B689B88194676480EF0D0
:109B50003DFFC7F8FC00D7F8FC30C7F8CC30D7F889
:109B6000CC30002B06D0694A40F25A41D7F8CC00DD
:109B700008F092F96D4B1B88A7F8C43007F5847381
:109B8000A3F582731B689B8807F1C402114618462F
:109B9000FEF722FEC7F8FC00D7F8FC30C7F8C83043
:109BA000D7F8C830002B06D0584A40F26441D7F8A5
:109BB000C80008F071F907F15C035021184600F065
:109BC00093FC07F15C0350211846FCF717FE0121B6
:109BD0005748FCF791FC5AE1D7F804311B884FF63F
:109BE000FF7293423CD00023A7F8003133E0B7F86E
:109BF00000214F4913469B0013445B000B441A8815
:109C0000D7F804311B889A4220D1424A424BD31ADA
:109C1000DB081B0443F003034649184607F03CFCED
:109C2000B7F80021424913469B0013445B000B44E4
:109C30004FF6FF721A80374A374BD31ADB081B04E2
:109C400043F003033C49184607F026FCB7F80031FF
:109C50000133A7F80031B7F80031072BC7D911E05D
:109C60000523C7F8FC30D7F8FC30C7F8E430D7F844
:109C7000E430002B06D0254A40F28B41D7F8E400AF
:109C800008F00AF9D7F804311B881A4607F15C037B
:109C90002A49184611F0ECFE07F15C03184600F063
:109CA000CFFF1C4A1C4BD31ADB081B0443F00300F4
:109CB000D7F804311B881A46D7F804311B7920499C
:109CC00007F00CFC07F10C035021184600F00CFCC7
:109CD00007F10C0350211846FCF790FD00211448B1
:109CE000FCF70AFCD3E0D7F804311B79022B40F0D3
:109CF000C380084A084BD31ADB081B0443F0030354
:109D00001049184607F0C8FBB6E000BF74FD030019
:109D10006CC100203427040054260400E80104002C
:109D20002CC200200CC4002088940020B002040043
:109D30001CC1002008020400280204004C02040098
:109D4000600204009002040007F58473A3F5827397
:109D50001B689888002300228521FEF739FDC7F88B
:109D6000FC00D7F8FC30C7F8E830D7F8E830002B13
:109D700000F08480484A40F2AD41D7F8E80008F08E
:109D80008BF87BE0D7F804311A88D7F80431043314
:109D900019461046FEF714FDC7F8FC00D7F8FC3052
:109DA000C7F8EC30D7F8EC30002B69D03A4A40F2D3
:109DB000B441D7F8EC0008F06FF861E0002387F8B1
:109DC000C030002387F8C13007F58473A3F5827390
:109DD0001B689B8807F1C00211461846FEF7FCFC81
:109DE000C7F8FC00D7F8FC30C7F8F030D7F8F030EF
:109DF000002B47D0284A4FF49861D7F8F00008F0BC
:109E00004BF83FE007F58473A3F582731B689B88CA
:109E100013211846FEF7D8FCC7F8FC00D7F8FC3031
:109E2000C7F8F430D7F8F430002B2DD01A4A40F29E
:109E3000C941D7F8F40008F02FF825E007F584733E
:109E4000A3F582731B689B8813211846FEF7BCFCA0
:109E5000C7F8FC00D7F8FC30C7F8F830D7F8F8306E
:109E6000002B13D00C4A40F2D141D7F8F80008F08B
:109E700013F80BE000BF0AE000BF08E000BF06E0F7
:109E800000BF04E000BF02E000BF00E000BF00BF71
:109E900007F58677BD46F0BD74FD030080B584B03C
:109EA00000AF114810F03EFAF860FB68BB60BB6879
:109EB000002B05D00D4A40F2E541B86807F0ECFFF1
:109EC00001200DF090FAF860FB687B607B68002B46
:109ED00005D0064A4FF49D61786807F0DDFF00BFAA
:109EE0001037BD4680BD00BFC0B5002074FD030023
:109EF00080B500AF10F0B1F900BF80BDF0B58BB0F8
:109F000004AF78607B681B78062B5FD801A252F8FB
:109F100023F000BF319F0200CD9F0200CD9F0200C1
:109F2000CD9F0200B19F0200499F0200679F02007F
:109F30002A4A2B4BD31ADB081B0443F0030329499D
:109F4000184607F0A9FA44E07B685B683B613B690F
:109F5000FB60FB68002B3BD0234A40F20551F868B8
:109F600007F09AFF34E07B685B687B611B4A1C4BFF
:109F7000D31ADB081B0443F003007B695B781D46A2
:109F80007B699B781E467B69DB781A467B691B7967
:109F900019467B695B791C467B699B790393029424
:109FA0000191009233462A46104907F0FBFA10E06F
:109FB0000A4A0B4BD31ADB081B0443F003030C497A
:109FC000184607F069FAFFF769FF02E000BF00E0FA
:109FD00000BF00BF1C37BD46F0BD00BF34270400E2
:109FE00054260400B402040074FD0300C4020400FB
:109FF000F402040080B588B000AF3B1D10220021A0
:10A00000184611F0C3F801233B7201233B743B1D3A
:10A01000644A1946644810F026F9B861BB697B614F
:10A020007B69002B05D0614A40F23251786907F014
:10A0300033FF0023FB830CE0FA8B5D4913469B0042
:10A0400013445B000B444FF6FF721A80FB8B013305
:10A05000FB83FB8B072BEFD9554B023300221A6091
:10A06000C3F80320524A9378012161F347039370A8
:10A070004F4B504A03331068186092889A804C4BBB
:10A080000C3300221A60C3F80320494A137B0121D4
:10A0900061F347031373464B464A0D33106818604B
:10A0A00092889A80424B163300221A60C3F803202C
:10A0B0003F4A937D012161F3470393753C4B3D4A31
:10A0C00017331068186092889A80394B2033002229
:10A0D0001A60C3F80320364A92F82030012161F358
:10A0E000470382F82030324B324A2133106818601F
:10A0F00092889A802E4B2A3300221A60C3F80320DC
:10A100002B4A92F82A30012161F3470382F82A3062
:10A11000274B284A2B331068186092889A80244B6A
:10A12000343300221A60C3F80320214A92F83430F5
:10A13000012161F3470382F834301D4B1D4A35334A
:10A140001068186092889A80194B3E3300221A607A
:10A15000C3F80320164A92F83E30012161F3470309
:10A1600082F83E30124B134A3F33106818609288D1
:10A170009A800F4B483300221A60C3F803200C4A20
:10A1800092F84830012161F3470382F84830084BC8
:10A19000084A49331068186092889A8000BF2037B7
:10A1A000BD4680BDFD9E0200C0B5002074FD0300C9
:10A1B0001CC100200403040080B586B000AF10F07D
:10A1C00079FC78617B693B613B69002B05D0164ABD
:10A1D00040F26351386907F05FFE00237B603B1D4E
:10A1E0001946012010F020FD78617B69FB60FB6857
:10A1F000002B05D00C4A40F26951F86807F04CFE7C
:10A200003B1D184610F04EFE78617B69BB60BB6851
:10A21000002B05D0044A40F26D51B86807F03CFEAF
:10A2200000BF1837BD4680BD74FD030080B582B005
:10A2300000AF786039601A4A1A4BD31ADB081B0446
:10A2400043F003031849184607F026F93B681B88BA
:10A2500040F6772293421FD1114A124BD31ADB08E2
:10A260001B0443F003031149184607F015F93B6836
:10A270009B88033B9AB20E4B1A80094A094BD31AAA
:10A28000DB081B0443F00300094B1B881A46084BEC
:10A290001B88084907F022F900BF0837BD4680BD7A
:10A2A00034270400542604000C0304002403040093
:10A2B000DC9D00204003040080B584B000AF12494B
:10A2C00012480EF04CFEF860FB68BB60BB68002BC8
:10A2D00005D00F4A40F28751B86807F0DDFDF7213D
:10A2E0000A480EF068FEF860FB687B607B68002B14
:10A2F00005D0074A40F28A51786807F0CDFD00BFCB
:10A300001037BD4680BD00BF2DA2020074B50020ED
:10A3100074FD030080B584B000AF3B4608220021E5
:10A32000184610F033FF0C4B3B600C4B7B603B46F8
:10A3300018460EF083FAF860FB68BB60BB68002B20
:10A3400005D0074A40F29951B86807F0A5FD00BF53
:10A350001037BD4680BD00BFC9950200C89D0020D2
:10A3600074FD030080B500AFFEF7BCFAFEF706FCF3
:10A37000FFF7F0F800BF80BD90B58BB000AF7860FC
:10A380000B46FB70FFF7B4FD002387F827302BE066
:10A39000002387F826301EE097F8272013465B003D
:10A3A00013445B001A467B68981897F8263097F894
:10A3B000272097F82610C45C444813469B0013449A
:10A3C0005B0003440B44033322461A7097F826308F
:10A3D000013387F8263097F82630052BDCD997F81B
:10A3E0002730013387F8273097F82730072BCFD94C
:10A3F00037480FF0A9FDF861FB69BB61BB69002B11
:10A4000005D0344A4FF4BF61B86907F045FD3048C4
:10A410000FF01AFDF861FB697B617B69002B05D0A9
:10A420002C4A40F2FC51786907F036FD00233B626C
:10A430001BE03A6A13469B0013445B00234A134413
:10A4400003331A46022122480FF0C6FCF861FB696B
:10A45000FB60FB68002B05D01E4A40F20161F868E2
:10A4600007F01AFD3B6A01333B623B6A072BE0DDD4
:10A47000194A1A4BD31ADB081B0443F0030318498B
:10A48000184607F009F80122022111480FF00AFDD1
:10A49000F861FB693B613B69002B05D00D4A40F236
:10A4A0000761386907F0F8FC0B4A0C4BD31ADB083C
:10A4B0001B0443F003030B49184606F0EDFFFFF7BA
:10A4C000EDFC00BF2C37BD4690BD00BF1CC1002075
:10A4D000C0B5002074FD0300342704005426040096
:10A4E000680304007403040080B582B000AF786094
:10A4F00039603A680349786810F03AFE00BF0837BF
:10A50000BD4680BD1CC1002080B582B000AF4FF0B9
:10A51000FF3006F077FA78607B683B603B68002B81
:10A5200005D00D4A40F21D61386807F0B5FC00F017
:10A530005FF90A4A0A4BD31ADB081B0443F00303F2
:10A540000849184606F0A8FF0120FEF743FC00BFAB
:10A550000837BD4680BD00BF74FD030034270400EA
:10A56000542604008403040080B582B000AF06F0D6
:10A570008DFA786000F096F97B683B603B68002BB1
:10A5800005D00C4A40F22C61386807F085FC0A4A75
:10A590000A4BD31ADB081B0443F00303084918468F
:10A5A00006F07AFF0020FEF715FC00BF0837BD4615
:10A5B00080BD00BF74FD030034270400542604004E
:10A5C000AC03040080B582B000AF4FF480520A495A
:10A5D0000A4807F07CFD78607B683B603B68002B95
:10A5E00005D0074A4FF4C861386807F055FC00BF32
:10A5F0000837BD4680BD00BF74A5002064A50020BB
:10A6000074FD030080B58CB000AF3B1D184604F00C
:10A6100093FF7B6818463037BD4680BD80B483B059
:10A6200000AF0346FB71FB7903F1804303F5C043A0
:10A630001A460123136000BF0C37BD465DF8047B4A
:10A64000704780B483B000AF0346FB71FB7903F120
:10A65000804303F5C04318460C37BD465DF8047BC4
:10A660007047000080B485B000AF78600A4A7B680C
:10A6700003F5A27352F8233043F00303FB6006494D
:10A680007B6803F5A273FA6841F8232000BF1437F2
:10A69000BD465DF8047B70470060004080B485B023
:10A6A00000AFF860B96011461A460B46FB711346BD
:10A6B000BB71184AFB6803F5A27352F823301549A1
:10A6C00023F4981323F4F853FA6802F5A27241F8C0
:10A6D0002230104AFB6803F5A27352F82320BB68AE
:10A6E0001B0203F4F851FB791B0403F440331943B4
:10A6F000BB791B0503F480130B4306491A43FB681F
:10A7000003F5A27341F8232000BF1437BD465DF85E
:10A71000047B70470060004080B483B000AF786075
:10A720004FF0A04318460C37BD465DF8047B7047D8
:10A7300080B584B000AF7860084611461A460346DB
:10A74000FB700B46BB7013467B703B1D1846FFF732
:10A75000E3FFF860FA78BB785B001A437B789B00D4
:10A760001A433B7E1B0242EA03013B7F1B047A68CB
:10A770001943FB6802F5E07243F8221000BF10375E
:10A78000BD4680BD80B584B002AF786000230193E0
:10A79000002300930023012201217868FFF7C8FFFE
:10A7A00000BF0837BD4680BD80B584B000AF78607B
:10A7B0003B1D1846FFF7B0FFF860FB68D3F804357F
:10A7C000BB60BB68DA437B68012101FA03F31A40DE
:10A7D000FB68C3F808257B6801229A40BB681A40D1
:10A7E000FB68C3F80C2500BF1037BD4680BD0000D4
:10A7F000B0B586B000AF284B1B78002B47D106F0D0
:10A800004FF9C7E90401D7E9042312F1080443F121
:10A8100000054FF47A524FF000032046294614F009
:10A82000DFF802460B461346FB60FB684FF47A7272
:10A8300002FB03F303F5FA73184AA2FB03239B09F7
:10A8400003F5FA63BB60BB68144AA2FB03239B09B0
:10A850004FF47A7202FB03F3BB600C20FFF7F1FEAA
:10A8600003461946B86805F055FB78607B683B6085
:10A870003B68002B04D00A4A2F21386807F00CFBF4
:10A880006C20FFF7CBFE044B01221A7000E000BFE2
:10A890001837BD46B0BD00BFB4C40020D34D621010
:10A8A0002406040080B400AF034B00221A7000BFDE
:10A8B000BD465DF8047B7047B4C4002080B400AF8F
:10A8C000034B1B781846BD465DF8047B704700BFFC
:10A8D000B4C4002080B582B000AF78607A680C4BB9
:10A8E000A3FB02139B094FF47A7101FB03F3D31A04
:10A8F000002B08D1074B1B68002B04D0054B1B68AD
:10A900001846FFF751FF00BF0837BD4680BD00BFA6
:10A91000D34D6210ACC40020B0B58AB000AF7860EF
:10A920007B68002B14BF01230023DBB27B627B6AB0
:10A93000002B04D1444A5221002007F0ADFA7B6875
:10A940001B78022B22D0022B6FDC002B02D0012BB4
:10A950000ED06AE03D4A3E4BD31ADB081B0443F09D
:10A9600003033C49184606F097FDFFF741FF67E0F7
:10A97000364A374BD31ADB081B0443F0030336492E
:10A98000184606F089FDFFF78DFF59E0FFF796FFA7
:10A990000346002B2FD07B689B680A333B620C2058
:10A9A000FFF74FFE03461946386A05F0B3FAF8611F
:10A9B000FB69002B11D0254A254BD31ADB081B0459
:10A9C00043F00303FA692549184606F074FD00BFF9
:10A9D00006F018FE0346002BFAD1FB69BB61BB6988
:10A9E000002B04D0184A7121B86907F055FA386A6B
:10A9F000FFF770FF02E06C20FFF710FE06F050F842
:10AA0000C7E90401D7E9042312F1080443F1000562
:10AA10004FF47A524FF000032046294613F0E0FF2E
:10AA200002460B461346FB600AE00023BB60BB688E
:10AA3000002B04D1044A8221002007F02DFA00BF28
:10AA400000BF2837BD46B0BD24060400942604008C
:10AA500054260400480604005C0604007406040042
:10AA600080B582B000AF78607B681B680E4A1360C7
:10AA70007B685B680D4A13600B4B1B68002B04D08E
:10AA8000094B1B681846FFF77DFE084B1968002329
:10AA900003220320FFF702FE0320FFF7E3FD00BFC0
:10AAA0000837BD4680BD00BFACC40020B0C4002044
:10AAB000B0B58CB000AF0023FB6118233B6207F1F7
:10AAC0001C031846FFF7CCFF294B07F108041D466D
:10AAD0000FCD0FC42B68236007F10803184605F05B
:10AAE000A9FEF862FB6ABB62BB6A002B04D0214A54
:10AAF000BF21B86A07F0D0F91F4A3B4692E803002D
:10AB00001860043319803B46184605F0F1FEF862E0
:10AB1000FB6A7B627B6A002B04D0164AC721786AE5
:10AB200007F0BAF9154A164BD31ADB081B0443F099
:10AB300003031449184606F0AFFC104A104BD31A11
:10AB4000DB081B0443F003030F49184606F0A4FC7E
:10AB50000A4A0B4BD31ADB081B0443F003030B49CF
:10AB6000184606F099FC00BF3037BD46B0BD00BFA7
:10AB70002407040024060400380704009426040077
:10AB80005426040090060400B4060400E8060400FD
:10AB900080B500AF05F084FF02460B46104619460B
:10ABA00080BD000080B582B000AF0346FB7107484E
:10ABB000074B1B6A5A090123002100F015FC0548C8
:10ABC00001F09EFA00BF0837BD4680BDCC080400E6
:10ABD00020C80020D408040080B584B000AF4FF432
:10ABE00080621249124807F072FAF860FB68BB6095
:10ABF000BB68002B04D00F4A5621B86807F04CF907
:10AC00004FF480720C490D4807F061FAF860FB6858
:10AC10007B607B68002B04D0064A5A21786807F0D5
:10AC20003BF900BF1037BD4680BD00BF60C80020A3
:10AC300050C800206407040078D2002068D20020A9
:10AC400080B5C4B000AF07F58873A3F586731860AC
:10AC500007F58873A3F58673186810F03BFF034669
:10AC6000C7F80C31D7F80C2107F58873A3F5867364
:10AC700007F10C00196810F07BFA07F5867207F1EE
:10AC80000C031146184600F0ADF900BF07F58877B0
:10AC9000BD4680BD80B58AB000AF786039607B6802
:10ACA0007B6200237B843B681B78032B00F2EC80E3
:10ACB00001A252F823F000BFF9AC0200EBAD020094
:10ACC000C9AC0200E1AC0200724A734BD31ADB0834
:10ACD0001B0443F003037149184606F0DDFBD4E082
:10ACE0006C4A6D4BD31ADB081B0443F003036C4919
:10ACF000184606F0D1FBC8E0664A674BD31ADB085A
:10AD00001B0443F003036749184606F0C5FB3B6884
:10AD10009B68022B0AD95F4A5F4BD31ADB081B04DE
:10AD200043F001036049184606F0B6FB3B685968DA
:10AD30003B6808331A465D4807F066FAF861FB691C
:10AD40007B617B69002B04D0594A9E21786907F00A
:10AD5000A3F8FB69002B11D04E4A4F4BD31ADB08E6
:10AD60001B0443F00303FA695249184606F0A3FB9B
:10AD700000BF06F047FC0346002BFAD1454A464B7C
:10AD8000D31ADB081B0443F003003B685B681B78A5
:10AD90001A463B685B681B78474906F09FFB3D4AB3
:10ADA0003D4BD31ADB081B0443F003034349184609
:10ADB00006F072FB424B5B681A460021002007F048
:10ADC00009FBF861FB693B613B69002B04D0384A01
:10ADD000AB21386907F060F83B6859683B689B68AD
:10ADE0001A46786A01F0F8FC4FE02A4A2A4BD31A37
:10ADF000DB081B0443F003033249184606F04CFB02
:10AE0000FF23FB6007F10C031A462F492F4807F078
:10AE1000BAF9F861FB69002B1AD1FB682B4AC2F81A
:10AE2000143A274B01225A70284BD3F8143A1A4689
:10AE30002549274801F0BEFCF861FB69BB61BB698D
:10AE4000002B15D01A4AC521B86907F025F80FE084
:10AE50000523FB610F4A104BD31ADB081B0443F098
:10AE600003031C49184606F017FB154B00221A7005
:10AE7000084A094BD31ADB081B0443F003031649A5
:10AE8000184606F009FB00E000BF00BF2837BD46AA
:10AE900080BD00BF4427040054260400900704002E
:10AEA000B0070400D8070400F807040068D20020A7
:10AEB0006407040000080400340804004408040087
:10AEC00048C800205008040060CE002050C8002070
:10AED000D4080400600804006C08040080B400AFCB
:10AEE00000BFBD465DF8047B7047000080B58CB0A4
:10AEF00000AF7860FFF7F2FFFFF76EFE194A7B683C
:10AF0000536007F1080320220021184610F03EF993
:10AF10000823BB600623FB604FF47A73BB610123F7
:10AF20003B774FF080533B62062387F8253007F1CB
:10AF300008010D4B0D4A0C4801F0A6F9F862FB6AB6
:10AF4000BB62BB6A002B05D0094A4FF48071B86A16
:10AF500006F0A2FF044801F08DFB00BF3037BD466C
:10AF600080BD00BF48C80020D408040095AC020092
:10AF70006407040080B584B000AF786039603B6836
:10AF8000FE2B0BD9114A124BD31ADB081B0443F0DA
:10AF900003033A680F49184606F08DFA0E4B01225A
:10AFA0001A703A6879680D4801F004FCF860FB6893
:10AFB000BB60BB68002B05D0094A40F21B11B86882
:10AFC00006F06AFF00BF1037BD4680BD442704006D
:10AFD000542604007C08040048C80020D40804005B
:10AFE0006407040080B588B000AF7860396007F16D
:10AFF000080304223968184610F0BAF83A687968EC
:10B00000334807F001F9F861FB69BB61BB69002BAC
:10B0100005D0304A40F22911B86906F03DFFFB69BE
:10B02000042B15D12C4A2D4BD31ADB081B0443F0FB
:10B0300003032B49184606F02FFAFB697B617B69F5
:10B04000002B05D0234A4FF49771786906F024FF4E
:10B05000FB69002B2AD1234B1B78DBB283F0010361
:10B06000DBB2002B2FD007F108031A461E491848FF
:10B0700007F089F8F861FB69002B0BD1BB68144A13
:10B08000C2F8103A124BD3F8103A19461648FFF797
:10B0900071FF18E0FB69FB60FB68002B13D00D4AC1
:10B0A0004FF4A671F86806F0F7FE0CE00B23FB6185
:10B0B000FB693B613B69002B05D0064A40F2511108
:10B0C000386906F0E9FE00BF2037BD4680BD00BFED
:10B0D00050C80020640704004427040054260400DC
:10B0E000A408040048C8002060CC002080B584B0CB
:10B0F00000AF78607968044807F02FF8F860FB68C3
:10B1000018461037BD4680BD68D2002080B483B099
:10B1100000AF0346FB7197F90730002B0BDBFB797F
:10B1200003F01F02074997F907305B09012000FA75
:10B1300002F241F8232000BF0C37BD465DF8047BC6
:10B14000704700BF00E100E080B483B000AF034669
:10B150003960FB7197F90730002B0ADB3B68DAB2E4
:10B160000C4997F907305201D2B20B4483F80023FF
:10B170000AE03B68DAB20849FB7903F00F03043BAD
:10B180005201D2B20B441A7600BF0C37BD465DF8AF
:10B19000047B704700E100E000ED00E080B582B084
:10B1A00000AF03460A46FB711346BB71BA7997F9A3
:10B1B000073011461846FFF7C7FF00BF0837BD46E6
:10B1C00080BD80B582B000AF0346FB7197F90730B0
:10B1D0001846FFF79BFF00BF0837BD4680BD80B40F
:10B1E00085B000AFF860B9607A60FB68BA6802F5B4
:10B1F000A872796843F8221000BF1437BD465DF885
:10B20000047B704780B483B000AF786039607B689E
:10B210003A68C3F8042300BF0C37BD465DF8047BD1
:10B22000704780B483B000AF786039607B683A685B
:10B23000C3F8082300BF0C37BD465DF8047B704798
:10B2400080B483B000AF786039607B68D3F80423A2
:10B250003B68134018460C37BD465DF8047B7047C9
:10B2600080B483B000AF78600B467B807B887A68BF
:10B2700013441B6818460C37BD465DF8047B7047C5
:10B2800080B485B000AF78600B467B807B887A689D
:10B29000134400221A607B887A6813441B68FB60A1
:10B2A000FB6800BF1437BD465DF8047B704780B46F
:10B2B00083B000AF78607B68D3F8043518460C374C
:10B2C000BD465DF8047B704780B483B000AF786002
:10B2D00039607B683A68C3F8082500BF0C37BD4663
:10B2E0005DF8047B704780B483B000AF786039604C
:10B2F0007B683A68C3F8442300BF0C37BD465DF84D
:10B30000047B704780B483B000AF786039607B689D
:10B310003A68C3F8482300BF0C37BD465DF8047B8C
:10B320007047000080B586B000AFF860B9607A6001
:10B33000FB685B7919462A4A7B6842F82130FB6832
:10B340005B791946274A0B465B000B4413441B7874
:10B35000002B03D008237B617B693DE0FB6893F9F8
:10B360000420BB689B7819461046FFF717FFFB685F
:10B3700093F904301846FFF724FFFB681A68BB688E
:10B380001B8819461046FFF79FFFFB685B7919463B
:10B39000BB681879134A0B465B000B441344013316
:10B3A00002461A70FB685B791946BB68D8780D4A6B
:10B3B0000B465B000B441344023302461A70FB68D1
:10B3C0005B791946074A0B465B000B441344012284
:10B3D0001A7000237B617B6918461837BD4680BD13
:10B3E00078D3002080D3002080B58AB000AFF86009
:10B3F000B9607A60FB704FF48032BB6802FA03F3E5
:10B40000BB61BB689BB250339BB29B00FB82FB6865
:10B410001B68B9691846FFF775FFFB681B68B969B7
:10B420001846FFF7FEFE7B6823F07F437B60FB68D6
:10B430005B7919462C4A0B465B000B4413440133DD
:10B440001B78002B2CD0FB681B687A68B9681846FB
:10B45000FFF7C5FEFB681B681846FFF728FF386238
:10B460003A6A7B68D31AFB613A6A7B689A4205D2D2
:10B47000FB6903F1FF1303F57F43FB61FB685B7915
:10B480001946194A0B465B000B44134402331B78E0
:10B490001A46FB6993420ADA0D237B627B6A1FE03E
:10B4A000FB681B687A68B9681846FFF798FEFB7856
:10B4B000002B0CD0FB681B68FA8A11461846FFF770
:10B4C000DFFEFB681B68B9691846FFF79BFEFB6847
:10B4D0001B68B9691846FFF706FF00237B627B6A89
:10B4E00018462837BD4680BD80D3002080B588B07F
:10B4F00000AFF860B9607A604FF48033BB614FF4FD
:10B50000A073FB8300237B612CE0B969F868FFF727
:10B5100097FE0346002B1CD0FB8B1946F868FFF7FB
:10B520009FFE0346002B14D0B969F868FFF7EAFEC6
:10B53000B969F868FFF775FEFB8B1946F868FFF7E5
:10B540009FFE294ABB6852F823307A69D2B210466E
:10B550009847BB695B00BB61FB8B0433FB837B6952
:10B5600001337B617A697B689A42CED34FF4807352
:10B57000FB830121F868FFF763FE0346002B12D01E
:10B58000FB8B1946F868FFF76BFE0346002B0AD0C9
:10B59000FB8B1946F868FFF773FE134ABB6852F835
:10B5A0002330042098474FF48273FB830221F8680C
:10B5B000FFF746FE0346002B12D0FB8B1946F868B6
:10B5C000FFF74EFE0346002B0AD0FB8B1946F868A6
:10B5D000FFF756FE044ABB6852F82330052098470F
:10B5E00000BF2037BD4680BD78D3002080B500AFB6
:10B5F000032200210248FFF779FF00BF80BD00BF92
:10B6000000B0004080B500AF042201210248FFF7DE
:10B610006DFF00BF80BD00BF0040024080B483B01A
:10B6200000AF0346FB7197F90730002B0BDBFB796A
:10B6300003F01F02074997F907305B09012000FA60
:10B6400002F241F8232000BF0C37BD465DF8047BB1
:10B65000704700BF00E100E080B483B000AF034654
:10B660003960FB7197F90730002B0ADB3B68DAB2CF
:10B670000C4997F907305201D2B20B4483F80023EA
:10B680000AE03B68DAB20849FB7903F00F03043B98
:10B690005201D2B20B441A7600BF0C37BD465DF89A
:10B6A000047B704700E100E000ED00E080B483B06F
:10B6B00000AF78607B681B0B5BB218460C37BD4649
:10B6C0005DF8047B704780B582B000AF03460A4640
:10B6D000FB711346BB71BA7997F9073011461846CA
:10B6E000FFF7BAFF00BF0837BD4680BD80B582B006
:10B6F00000AF0346FB7197F907301846FFF78EFF3E
:10B7000000BF0837BD4680BD80B483B000AF78600D
:10B710000B46FB70FB787A68134401221A6000BF65
:10B720000C37BD465DF8047B704780B485B000AF30
:10B7300078600B467B807B887A68134400221A600D
:10B740007B887A6813441B68FB60FB6800BF143772
:10B75000BD465DF8047B704780B483B000AF78606D
:10B760000B467B807B887A6813441B68002B14BFD0
:10B7700001230023DBB218460C37BD465DF8047B7D
:10B78000704780B483B000AF786039607B683A68F6
:10B79000C3F8042300BF0C37BD465DF8047B704737
:10B7A00080B483B000AF786039607B683A68C3F8D2
:10B7B000082300BF0C37BD465DF8047B704780B49A
:10B7C00083B000AF786039607B68D3F804233B68AE
:10B7D0001340002B14BF01230023DBB218460C37A3
:10B7E000BD465DF8047B704780B483B000AF7860DD
:10B7F0000B46FB707B68D3F8043523F00302FB781B
:10B8000003F003031A437B68C3F8042500BF0C3719
:10B81000BD465DF8047B704780B483B000AF7860AC
:10B820000B46FB707B68D3F8083523F00302FB78E6
:10B8300003F003031A437B68C3F8082500BF0C37E5
:10B84000BD465DF8047B704780B483B000AF78607C
:10B850000B46FB707B68D3F8103523F00F02FB78A2
:10B8600003F00F031A437B68C3F8102500BF0C37A1
:10B87000BD465DF8047B704780B485B000AFF860CA
:10B880000B467A60FB72FA7AFB6802F5A872796857
:10B8900043F8221000BF1437BD465DF8047B7047A3
:10B8A00080B483B000AF78607B689B0003F5A07321
:10B8B0009BB218460C37BD465DF8047B704780B4D8
:10B8C00083B000AF78604FF480327B6802FA03F3F4
:10B8D00018460C37BD465DF8047B704790B589B0BB
:10B8E00000AFF860B9607A60FB681B791A461346AE
:10B8F0005B0013449B00304A13447B617B691B7AD5
:10B90000002B03D00823FB61FB6950E07B697A6858
:10B910001A60BB685A687B695A600023FB760DE0A9
:10B92000FB681C68FB7E1846FFF7BAFF0346194602
:10B930002046FFF7FAFEFB7E0133FB76FB685B795E
:10B94000FA7E9A42ECD3FB681B681846FFF7AEFEFE
:10B9500003461A46BB68DB7819461046FFF7B3FE6C
:10B96000FB681B681846FFF7A1FE03461846FFF761
:10B97000BDFEFB681A68BB685B7819461046FFF786
:10B9800033FFFB681A68BB689B7819461046FFF7BF
:10B9900043FFFB681A68BB681B7819461046FFF71F
:10B9A00053FF7B6901221A720023FB61FB69184671
:10B9B0002437BD4690BD00BF88D3002080B582B03B
:10B9C00000AF78607B681B6800211846FFF79CFE7B
:10B9D0007B681B791946064A0B465B000B449B00AB
:10B9E0001344083302221A7000BF0837BD4680BDD9
:10B9F00088D3002080B582B000AF78607B681B6878
:10BA00000C211846FFF780FE00BF0837BD4680BDF9
:10BA100090B587B000AFF8607A601A460B46FB72AB
:10BA20001346BB72FB7A1846FFF749FF7861BB7A71
:10BA3000002B11D0FB681C68FB7A1846FFF730FF1B
:10BA4000034619462046FFF770FEFB681B687969BC
:10BA50001846FFF796FE05E0FB681B6879691846F3
:10BA6000FFF79EFEFB681B68F97A7A681846FFF7B5
:10BA700003FF00BF1C37BD4690BD80B586B000AF48
:10BA8000F860B9601346FB710023FB7528E0FB7D6D
:10BA90001846FFF705FF0346BB82FB7D1846FFF7FC
:10BAA0000EFF3861BB8A1946F868FFF755FE03465A
:10BAB000002B12D03969F868FFF781FE0346002B8E
:10BAC0000BD0BB8A1946F868FFF72FFEBB681B68CE
:10BAD000BA685168BA8A10469847FB7D0133FB75F6
