:020000022000DC
:106000000000012091050300B9050300BB05030052
:10601000BD050300BF050300C1050300000000002B
:10602000000000000000000000000000C3050300A5
:10603000C505030000000000C7050300C9050300F3
:106040001D60030019F2020079700300CB05030004
:10605000CB050300CB050300816F0300CB050300D4
:106060005DAA020079AA0200CB05030055A5020033
:10607000CB050300CB050300CB050300CB050300D4
:10608000CB05030079350300CB050300CB050300E6
:10609000CB050300CB050300CDBE030099F9020038
:1060A000CB050300CB050300CB050300CB050300A4
:1060B000CB050300CB05030000000000000000003A
:1060C000CB050300CB050300CB050300CB05030084
:1060D0006DA50200CB050300CB0503000000000006
:1060E00000000000000000000000000000000000B0
:1060F00000000000000000000000000000000000A0
:10610000000000000000000000000000000000008F
:10611000000000000000000000000000000000007F
:10612000000000000000000000000000000000006F
:10613000000000000000000000000000000000005F
:10614000000000000000000000000000000000004F
:10615000000000000000000000000000000000003F
:10616000000000000000000000000000000000002F
:10617000000000000000000000000000000000001F
:10618000000000000000000000000000000000000F
:1061900000000000000000000000000000000000FF
:1061A00000000000000000000000000000000000EF
:1061B00000000000000000000000000000000000DF
:1061C00000000000000000000000000000000000CF
:1061D00000000000000000000000000000000000BF
:1061E00000000000000000000000000000000000AF
:1061F000000000000000000000000000000000009F
:1062000010B5054C237833B9044B13B10448AFF3F0
:1062100000800123237010BDD89B002000000000E7
:10622000BC3F040008B5034B1BB103490348AFF35F
:10623000008008BD00000000DC9B0020BC3F040083
:10624000A3F5803A704700BF174B002B08BF134BD4
:106250009D46FFF7F5FF00218B460F461348144A71
:10626000121A16F01DF90E4B002B00D098470D4B5B
:10627000002B00D098470020002104000D000D489D
:10628000002802D00C48AFF3008016F0C7F82000B9
:10629000290012F0E3F916F0ADF800BF0000080085
:1062A000000000000000000000000120D89B00203A
:1062B000E0DF00200000000000000000B0DF7047B9
:1062C00000BF184666DF704700BF184680B584B02F
:1062D00000AF78607B681B7A002B18D07B685B88E6
:1062E00000211846FFF7EEFFF860FB68002B03D192
:1062F0007B6800221A720AE0FB68112B03D17B68CD
:1063000001221A7203E07B685B68F868984700BF57
:106310001037BD4680BD80B582B000AF786039606F
:106320003B681B79012B0BD13B681A887B685B8823
:106330009A4205D17B6801221A727868FFF7C6FF7E
:1063400000BF0837BD4680BD80B483B000AF786021
:10635000396000BF0C37BD465DF8047B704780B5DF
:1063600088B000AF786039603B681A887B685B88CA
:106370009A4235D13B680233FB61FB691B78022BE3
:1063800030D1FB691B7A042B07D0FB691B7A062BE3
:1063900003D0FB691B7A052B26D107F108030022E5
:1063A0001A605A609A60DA6002233B724FF4C0733D
:1063B000BB81FB691B7A052B01D10023BB813B68A4
:1063C0001B8807F1080211461846FFF777FFB861EE
:1063D000BB69002B09D07B685B68B869984704E00B
:1063E00000BF02E000BF00E000BF2037BD4680BD17
:1063F00080B584B000AF786039603B68002B40D036
:106400007B68002B3FD03B68FB60FB681B78DE2B72
:106410003BD17B689A88FB685B889A4202D1F86816
:10642000FFF754FF7B681B88512B18D0512B2EDCB3
:10643000112B1BD0112B2ADC012B02D0022B07D0F1
:1064400025E07B6804331946F868FFF764FF21E014
:106450007B6804331946F868FFF776FF1AE07B681B
:1064600004331946F868FFF77AFF13E07B689A88CF
:10647000FB685B889A420CD1FB684FF6FF725A802A
:1064800007E000BF06E000BF04E000BF02E000BF7D
:1064900000E000BF1037BD4680BD72DF704700BF0F
:1064A000184673DF704700BF184680B483B000AF52
:1064B00078607B6893F8303418460C37BD465DF839
:1064C000047B704780B485B000AF78600023FB6028
:1064D0000AE07A68FB6813441B78002B01D0012383
:1064E00006E0FB680133FB60FB68052BF1D9002354
:1064F00018461437BD465DF8047B704780B483B0FE
:1065000000AF0346FB71FB795A1C084B83FB021357
:106510005910D317C91A0B469B000B44D11ACBB2A2
:1065200018460C37BD465DF8047B704767666666A3
:1065300080B483B000AF786039603B68DB7B012BAF
:1065400004D13B689A887B68A3F8242400BF0C37E9
:10655000BD465DF8047B704780B584B000AF7860BD
:1065600039607B68002283F82E243B689A887B6818
:10657000B3F824349A4216D17B681B7983F0010367
:10658000DBB2002B0FD00121786800F0BDF9F86074
:10659000FB68002B07D07B689B6B002B03D07B68CC
:1065A0009B6BF868984700BF1037BD4680BD80B52B
:1065B00084B000AF786039603B681B88262B1ED101
:1065C0003B681B7A012B03D03B681B7A022B17D147
:1065D0007B689B781846FFF791FF03461946786859
:1065E00000F092F9F860FB68002B09D07B689B6B88
:1065F000002B05D07B689B6BF868984700E000BFD4
:106600001037BD4680BD000080B584B000AF786013
:106610000B46FB707B6803F227431846FFF752FFD7
:106620000346FB73FB78013B032B31D801A252F8E0
:1066300023F000BF4566020067660200796602002B
:10664000856602007B689B79002B0CD07B6893F8F1
:10665000243083F00103DBB2002B04D0FB7B002B42
:1066600001D0012315E07B68DB79002B04D0FB7B94
:10667000002B01D002230CE07B681B7A002B01D099
:10668000032306E07B685B7A002B01D0042300E043
:10669000002318461037BD4680BD00BF80B483B0CC
:1066A00000AF786039607B68012283F831207B6815
:1066B0000022C3F820247B6803F226423B685A601C
:1066C0003B6800229A603B6802221A703B68802275
:1066D0009A81002318460C37BD465DF8047B70474D
:1066E00080B483B000AF786039607B68022283F8A1
:1066F00031207B6893F82430002B03D03B680722BD
:106700001A7002E03B6803221A707B681B699AB218
:106710003B689A817B680022C3F820247B6803F2DF
:1067200026423B685A607B68DA683B689A600023BF
:1067300018460C37BD465DF8047B704780B582B0C3
:1067400000AF78607B685B79002B0FD07B6893F893
:106750002E3483F00103DBB2002B07D07868FFF7FB
:10676000A4FE0346002B01D0012300E0002303F028
:106770000103DBB218460837BD4680BD80B584B042
:1067800000AF78600B46FB707B68D3F810047B6821
:10679000B3F814340122194612F087F9F860FB6847
:1067A000002B02D0FB68FA781A707B6803F1540062
:1067B0007B6803F582617B683C331A46FFF76DFE08
:1067C000034618461037BD4680BD80B584B000AF83
:1067D000786039607B685A693B689A607B689B691E
:1067E0009AB23B689A817B6893F82430002B04D0DE
:1067F0007B68062283F83C2003E07B68012283F853
:106800003C207868FFF79AFF0346002B13D03B68C3
:1068100002221A7504217868FFF7B0FFF860FB6860
:10682000BB60BB68002B01D0BB680FE07B68052212
:1068300083F8312003E07B68032283F831207B68F2
:1068400003F582627B68C3F82024002318461037C2
:10685000BD4680BD80B584B000AF786039607B688C
:10686000DA693B689A607B681B6A9AB23B689A81D6
:106870007B6893F82430002B04D07B68062283F8D1
:106880003C2003E07B68012283F83C207868FFF716
:1068900055FF0346002B13D03B6802221A750421D2
:1068A0007868FFF76BFFF860FB68BB60BB68002B84
:1068B00001D0BB680FE07B68062283F8312003E03B
:1068C0007B68042283F831207B6803F582627B6851
:1068D000C3F82024002318461037BD4680BD80B47D
:1068E00083B000AF78607B681B68012B03D07B68A6
:1068F0001B68022B01D1012300E0002318460C374E
:10690000BD465DF8047B704780B584B000AF786009
:106910000B46FB707B681B7883F00103DBB2002B16
:1069200001D0082307E17B68FA789A707B6803F24C
:10693000264307220021184615F0B2FD7B689B799B
:10694000002B03D07B689B78012B0FD07B68DB7911
:10695000002B03D07B689B78012B07D07B68DB7909
:10696000002B14D07B689B78022B10D17B685B6B6B
:10697000002B08D07B68012283F82D247B685B6B99
:106980000820984703E07B68002283F82D24FB78D9
:1069900019467868FFF738FE03461A467B689A70F6
:1069A0007B685B6B002B20D07B689B78032B03D02C
:1069B0007B689B78042B18D17B685B79002B14D003
:1069C0007B6893F82E3483F00103DBB2002B0CD0EC
:1069D0007B68002283F830247B68012283F82F240F
:1069E0007B685B6B0720984703E07B68002283F895
:1069F0002F247B683C3318220021184615F050FDE7
:106A00007B68012283F83C207B682C331846FFF713
:106A100066FF0346002B06D07B68DB6ADAB27B6830
:106A200083F8512003E07B68012283F851207B68C2
:106A300093F82430002B12D07B6828331846FFF7D8
:106A40004EFF0346002B06D07B689B6ADAB27B6858
:106A500083F8522003E07B68012283F852207B6890
:106A6000002283F850207B689B78042B31D801A248
:106A700052F823F0C96A0200896A0200996A02008A
:106A8000A96A0200B96A02007B683C33194678683B
:106A9000FFF704FEF8601DE07B683C331946786818
:106AA000FFF71EFEF86015E07B683C3319467868F6
:106AB000FFF78BFEF8600DE07B683C331946786881
:106AC000FFF7C8FEF86005E07B68002283F83120FC
:106AD00000E000BF7B689B78002B20D07B6803F12F
:106AE00054007B68D3F820147B683C331A46FFF7C8
:106AF000D4FCF860FB68002B01D0FB681BE07B68CE
:106B000093F854207B6893F8303019461046FFF70D
:106B1000C8FCF860FB68002B01D0FB680BE07B68C9
:106B20005B6B002B06D07B685B6B7A6892F8312038
:106B300010469847002318461037BD4680BD00BF59
:106B400080B584B000AF786039603B68FB607B68DB
:106B50001B88262B10D0262B13DC102B02D0112BD8
:106B600005D00EE07968F868FFF7E2FC0AE0796882
:106B7000F868FFF7F1FC05E07968F868FFF717FDA2
:106B800000E000BF00BF1037BD4680BD13DF704777
:106B900000BF184680B582B000AF40F6F8731B689E
:106BA000B3F1FF3F02D11E4B1B6802E040F6F873C1
:106BB0001B687B607B68B3F1FF3F21D0194A1A4BF9
:106BC000D31ADB081B0443F003037A6817491846FD
:106BD0000AF07BF97868FFF7D9FF38603B68002B33
:106BE0000CD0104A104BD31ADB081B0443F00103EE
:106BF0000F4918460AF05AF93B680DE000230BE0F4
:106C0000084A094BD31ADB081B0443F00103094966
:106C100018460AF04BF9042318460837BD4680BDD4
:106C2000141000101C400400DC3F04002C01040080
:106C3000580104008C01040080B582B000AF134AF3
:106C4000134BD31ADB081B0443F00303114A124908
:106C500018460AF03AF90F4B1846FFF797FF78608D
:106C60007B68002B0CD0094A094BD31ADB081B04A4
:106C700043F00103094918460AF018F97B6800E05F
:106C8000002318460837BD4680BD00BF1C400400E5
:106C9000DC3F040000600200A4010400580104006D
:106CA000ADDF704700BF1846AEDF704700BF184623
:106CB000B0DF704700BF18463CDF704700BF184682
:106CC0003DDF704700BF184680B58AB000AF7860DE
:106CD00007F1140310220021184615F0E1FB0223EE
:106CE0003B7502233B8100237B8107F11003FB608E
:106CF0001A4B9B88194A518907F108021846FFF779
:106D0000CFFF78627B6A002B0ED107F11003184683
:106D100012F04DFF0346002B06D0BB7E43F001036B
:106D2000BB7600233B8302E040F2FD133B830B4B19
:106D30009B8807F1140211461846FFF7B9FF7862E5
:106D40007B6A112BF3D03B8B002B03D1786800F0CA
:106D500043FA00E000BF2837BD4680BDF49B002009
:106D600080B584B000AF78607B689A88134B9B88AD
:106D70009A421ED17B680633FB60FB681B78022BAE
:106D800018D1FB685A880D4BDB889A4212D1FB68F8
:106D90001B7A042B0ED0FB681B7A062B0AD0FB68EB
:106DA0001B7A052B06D0FB6802331846FFF78CFFD1
:106DB00000E000BF1037BD4680BD00BFF49B00203F
:106DC00080B483B000AF78607B689A88034B9A8068
:106DD00000BF0C37BD465DF8047B7047F49B002074
:106DE00080B483B000AF7860084B9A887B689B883A
:106DF0009A4204D1054B4FF6FF729A8000E000BF23
:106E00000C37BD465DF8047B704700BFF49B002043
:106E100080B584B000AF78607B680633FB60FB68A8
:106E20001A880B4BDB889A420DD1094B1B7E002B35
:106E300009D000F039FAB860BB68002B03D0044BCE
:106E40005B690220984700BF1037BD4680BD00BF78
:106E5000F49B002080B582B000AF786039607B6819
:106E6000002B1ED07B681B88532B16D0532B1ADCAB
:106E7000512B0ED0512B16DC102B02D0112B04D02D
:106E800011E07868FFF79CFF0EE07868FFF7A8FF35
:106E90000AE07868FFF764FF06E07868FFF7B8FF5C
:106EA00002E000BF00E000BF0837BD4680BD000023
:106EB00080B58AB000AF03460A46FB711346BB712A
:106EC00003237B8407F10C0310220021184615F0E0
:106ED000E7FA7B8C3B8420233B77FB797B77BB797C
:106EE000BB77124BDB88BB810223BB7300233B8241
:106EF00007F120037B6107F11C03BB610B4B9B88EF
:106F000007F10C0211461846FFF7CEFE78627B6A45
:106F1000002B05D13B8C7A8C9A4201D00C237B62EA
:106F20007B6A18462837BD4680BD00BFF49B002011
:106F300080B584B000AF184A184BD31ADB081B0485
:106F400043F004031649184609F0B0FF4FF0FF3133
:106F50000020FFF7B5FEF860FB68BB60BB68002B44
:106F600001D0BB6813E0B1210020FFF7A5FEF86057
:106F7000FB687B607B68002B01D07B6807E0094BD6
:106F80005B690120984702200DF0E2FB00231846C0
:106F90001037BD4680BD00BF1C400400DC3F04002C
:106FA000280C0400F49B00204FF0030C00DF704716
:106FB00000BF184680B582B000AF78607868FFF7F0
:106FC000F3FF034618460837BD4680BD80B500AFC5
:106FD0000248FFF7EFFF0346184680BD109C0020D3
:106FE00080B582B000AF7860044B1B6804497868B4
:106FF0009847034618460837BD4680BD109C0020C0
:10700000189C002080B582B000AF7860044B5B68AC
:10701000044978689847034618460837BD4680BD3E
:10702000109C0020189C002080B400AF074B1B6808
:10703000002B05D0054B5B68002B01D0012300E03D
:1070400000231846BD465DF8047B7047109C002065
:1070500080B584B000AF7860124B1B685B7E002B5C
:1070600001D006231AE07868FFF7BAFFF860FB68E2
:10707000002B04D10B4B1B6801225A760DE0FB68F4
:107080000F2B0AD1084A094BD31ADB081B0443F023
:1070900001030749184609F009FFFB681846103735
:1070A000BD4680BD1C9C00201C400400DC3F040049
:1070B0006C0C040080B582B000AF144B1B685B7E83
:1070C000002B0ED006210120FFF7F2FE78607B68CE
:1070D000002B04D00D4B1B685B69032098470023ED
:1070E00010E00A4B1B6801221A7601210120FFF7EC
:1070F000DFFE78607B68002B03D0044B1B68002206
:107100001A767B6818460837BD4680BD1C9C002057
:1071100080B584B000AFFFF73DFDF860FB68BB6051
:10712000BB68002B01D0BB680DE0FFF74FFFF86094
:10713000FB687B607B68002B01D07B6803E0FFF776
:107140007BFDF860FB6818461037BD4680BD000027
:1071500080B584B000AF78603960FFF765FF034603
:10716000002B32D07868FFF74DFFF860FB68082BE2
:107170002CD0FB68002B11D1164B1B6800225A76CD
:1071800001210220FFF794FEF860FB68002B1DD060
:10719000104B1B685B690320984717E00D4B1B6879
:1071A00000225A7606210220FFF782FEF860FB6873
:1071B000002B04D0074B1B685B6903209847054BE5
:1071C0001B685B690220984700E000BF1037BD468E
:1071D00080BD00BF1C9C002080B584B000AF7860EB
:1071E0000423FB737B681B7B012B02D0022B0FD087
:1071F00031E0FFF75FFFB860BB68002B02D10123CD
:10720000FB732BE0BB68112B28D10623FB7325E011
:107210007B685B7B142B03D87B685B7B002B02D1E4
:107220000523FB731CE07B6803F10E017B685B7B2D
:107230001A461A4815F026F97B685B7B1A46184BEC
:107240009A611748FFF704FFB860BB68002B07D1AD
:107250000123FB7304E00223FB7302E000BF00E0A4
:1072600000BFFB7B012B14D07B681B7BFA7B114694
:107270001846FFF71DFEB860BB68002B04D0094B11
:107280001B685B6903209847064B1B685B690220FB
:10729000984700BF1037BD4680BD00BF249C00202A
:1072A000209C00201C9C002080B582B000AF064BC3
:1072B0001B685B6900209847FFF73AFE78607B689F
:1072C00018460837BD4680BD1C9C002080B586B09E
:1072D00000AFF860B9601346FB80BB687B610C4A65
:1072E0000C4BD31ADB081B0443F00403FA880A4949
:1072F000184609F0EAFD7B69DB68002B03D07B6947
:10730000DB68F868984700BF1837BD4680BD00BFEE
:1073100034400400DC3F0400480D040080B586B012
:1073200000AF786039607B681A883B689B889A4216
:1073300018D13B680A337B617B691A887B689B881C
:107340009A4210D13B689B88FB8102233B737B6987
:107350009B793B747B689B6807F10C021146786847
:10736000984700E000BF1837BD4680BD80B584B0A7
:1073700000AF786039607B681A883B689B889A42C6
:1073800019D13B685A897B689B889A4214D13B6823
:10739000DB89012B10D13B689B887B8101233B72E9
:1073A0003B681B7C3B737B689B6807F108021146B6
:1073B0007868984700E000BF1037BD4680BD0000E8
:1073C00080B586B000AF786039603B681B78002BD1
:1073D00063D13B689B8841F60F0293425DD13B68C5
:1073E0009B79012B59D100233B733B685B88FB8160
:1073F0000023FB7524E0FA7D39681346DB00134453
:107400005B000B440E331B8842F61922934214D1C1
:10741000FA7D39681346DB0013445B000B441833D4
:107420001B883B82FA7D39681346DB0013445B00FE
:107430000B4416331B887B8207E0FB7D0133FB7511
:107440003B681B7AFA7D9A42D5D31F4A1F4BD31A49
:10745000DB081B0443F004031D49184609F026FD10
:107460007B681B884FF6FF7293420DD07B685B8868
:10747000002B09D17B689B88002B05D17B680233E8
:1074800007F11002106818607B689B6807F10C0216
:1074900011467868984700BF12E03B681B78022BC2
:1074A00003D03B681B78012B0AD1074A074BD31A3C
:1074B000DB081B0443F004030649184609F0F6FCF8
:1074C00000BF1837BD4680BD34400400DC3F0400D7
:1074D000800D0400A40D040080B58CB000AF78606E
:1074E0000B46FB701F4A204BD31ADB081B0443F0EA
:1074F00004007B685B881A467B681B881B4909F07F
:10750000F7FCFB78FB85FB8DDBB23B72FB8D1B0A26
:107510009BB2DBB27B7207F10C03202200211846DC
:1075200014F0BEFF01233B73114B7B617B68BB6191
:107530007B685B88FB8302237B8407F108037B6203
:1075400000233B8401233B777B6818697B681A889A
:1075500007F10C03194613F0F3FA034618463037C7
:10756000BD4680BD34400400DC3F0400D00D040063
:10757000CD72020080B584B000AF786039607B685E
:10758000002B01D10E2325E03B68002B01D10E23F7
:1075900020E00123BB7341F60F03BB817B684FF6EC
:1075A000FF721A807B6800225A807B6800229A80D2
:1075B0003B681A687B689A603B685A687B68DA6047
:1075C0003B689A687B681A6107F10C03184612F051
:1075D0009BF9034618461037BD4680BD80B483B082
:1075E00000AF786039607B681A883B689B889A4254
:1075F00009D17B684FF6FF721A807B6800225A809F
:107600007B6800229A8000BF0C37BD465DF8047B82
:10761000704780B584B000AF786039607B68002B1C
:107620001ED03B68002B1BD03B68FB607B681B882F
:10763000392B06D0392B15DC112B0CD0362B05D06D
:1076400010E07968F868FFF791FE0CE07968F86857
:10765000FFF764FE07E07968F868FFF7BFFF02E014
:1076600000BF00E000BF1037BD4680BD80B582B0CE
:1076700000AF78607B68002B01D10E230CE07B68A3
:107680001B884FF6FF72934201D1082304E00121C9
:107690007868FFF721FF034618460837BD4680BDCE
:1076A00080B58AB000AF78607B68002B01D10E23D3
:1076B00021E07B681B884FF6FF72934201D10823BB
:1076C00019E007F1080320220021184614F0E8FE13
:1076D00000233B720A4B3B617B687B617B689B8824
:1076E0003B837B6818697B681A8807F10803194691
:1076F00013F026FA034618462837BD4680BD00BF62
:10770000CD72020080B584B000AFF8600B467A609D
:107710007B81FB68002B01D10E2312E0FB687A8984
:107720001A807B68002B04D0FB687A6802331268E9
:107730001A60FB681B697A891146184613F0B4FA7F
:10774000034618461037BD4680BD75DF704700BF41
:10775000184676DF704700BF18467FDF704700BFCE
:1077600018468FDF704700BF184680B483B000AF63
:107770000346FB714FF08042FB79C2F8203500BF11
:107780000C37BD465DF8047B7047000080B582B0C1
:1077900000AFFFF7BDFC78607B683B603B68002B67
:1077A00005D0054A40F24D1138680AF023FB00BFAE
:1077B0000837BD4680BD00BF140E040080B582B0FE
:1077C00000AF03463960FB71FB79032B05D1A9207B
:1077D000FFF7CBFF00200CF0BBFF00BF0837BD4612
:1077E00080BD000080B582B000AF0BF0FDF878607E
:1077F0007B683B603B68002B05D0054A40F22A219C
:1078000038680AF0F7FA00BF0837BD4680BD00BFF0
:10781000140E040080B582B000AF7860044A4FF4C3
:10782000177178680AF0E6FA00BF0837BD4680BDD8
:10783000140E040080B584B000AF114813F0C6FEEA
:10784000F860FB68BB60BB68002B05D00D4A40F2B6
:107850006521B8680AF0CEFA012010F0C7FCF86084
:10786000FB687B607B68002B05D0064A4FF41A71D9
:1078700078680AF0BFFA00BF1037BD4680BD00BF70
:1078800058B20020140E0400F0B58BB004AF78603D
:107890007B681B78062B5FD801A252F823F000BF4B
:1078A000BD78020059790200597902005979020025
:1078B0003D790200D5780200F37802002A4A2B4B6A
:1078C000D31ADB081B0443F003032949184609F0C7
:1078D000EDFA44E07B685B683B613B69FB60FB68F9
:1078E000002B3BD0234A4FF41F71F8680AF082FA4C
:1078F00034E07B685B687B611B4A1C4BD31ADB0856
:107900001B0443F003007B695B781D467B699B7811
:107910001E467B69DB781A467B691B7919467B69B1
:107920005B791C467B699B790393029401910092D9
:1079300033462A46104909F03FFB10E00A4A0B4B38
:10794000D31ADB081B0443F003030C49184609F063
:10795000ADFAFFF76FFF02E000BF00E000BF00BF1D
:107960001C37BD46F0BD00BF1C400400DC3F0400D6
:107970000C100400140E04001C1004004C10040031
:1079800080B58AB000AF3B1D10220021184614F0CC
:1079900087FD01233B7201233B743B1D214A19469D
:1079A000214813F0B3FD38623B6AFB61FB69002B91
:1079B00005D01E4A4FF42A71F8690AF01BFA002319
:1079C0007B6217E01A4A7B6A52F823301A4600217C
:1079D000154813F0AFFB38623B6A7B617B69002B73
:1079E00005D0124A40F2AD2178690AF003FA7B6AA9
:1079F00001337B627B6A032BE4DD012201210A480B
:107A000013F0C4FB38623B6ABB61BB69002B05D035
:107A1000064A40F2B221B8690AF0ECF900BF2837F3
:107A2000BD4680BD8978020058B20020140E0400C3
:107A3000D88F002080B582B000AF78607B685B880B
:107A40001A4613465B001344DB00114A134479685D
:107A5000184613F097FE7B685B881A46342302FBB6
:107A600003F30C4A13447968184606F0F7FC7B6868
:107A70005B881A4613469B0013449B00064A134436
:107A800079681846FFF79CFC00BF0837BD4680BDEB
:107A90006CAC0020CCAC00209CAD0020B0B588B010
:107AA00002AF786039603B681B78002B07D0002B51
:107AB000C0F21381013B012B00F20F8149E03B68CA
:107AC00059883B6804331A467868FFF71BFE7861D3
:107AD0007B693B613B69002B05D0834A40F2DA2188
:107AE00038690AF087F9814A814BD31ADB081B04F5
:107AF00043F004037F49184609F0D8F97868FFF786
:107B0000CFFD78617B69FB60FB68002B05D0764A6E
:107B10004FF43871F8680AF06DF9744A744BD31A4F
:107B2000DB081B0443F004037349184609F0BEF94F
:107B30007868FFF79BFD78617B69BB60BB68002BB1
:107B400000F0CD80684A4FF43971B8680AF052F9F4
:107B5000C5E0664A664BD31ADB081B0443F00300FA
:107B60003B681B791A46654909F0AFF93B681A79F9
:107B70003B685B881C46104605F0BAFDF0EE407A83
:107B80005F4AE30013440433C3ED007A574A584B6D
:107B9000D31ADB081B0443F003003B685B881D46D7
:107BA0003B685B88564ADB0013440433D3ED007A0C
:107BB000F5EEC07AF1EE10FA10D53B685B88504ABA
:107BC000DB0013440433D3ED007ABFEE007AF4EE09
:107BD000C77AF1EE10FA01DD4A4A00E04A4A3B68F2
:107BE0005B884749DB000B440433D3ED007AFDEE9C
:107BF000E77A17EE904A3B685B884149DB000B440B
:107C00000433D3ED007AF5EEC07AF1EE10FA16DD0A
:107C10003B685B883A49DB000B44043393ED007A00
:107C20003B685B883649DB000B440433D3ED007AB4
:107C3000FDEEE77AF8EEE77A77EE677A15E03B68D3
:107C40005B882F49DB000B440433D3ED007AFDEE53
:107C5000E77AB8EEE77A3B685B882949DB000B449A
:107C60000433D3ED007A77EE677A9FED287A67EEDA
:107C7000877AFDEEE77A17EE903A01930094134667
:107C80002A46234909F062F93B685B881C4ADB00FD
:107C900013440433D3ED007A3B685B881C46B0EE96
:107CA000670A05F071FD03461A46154B03F83420A8
:107CB0000E4A0F4BD31ADB081B0443F003003B684A
:107CC0005B8819463B685B881A460D4B13F83230C7
:107CD0000A46104909F00CF902E000BF00E000BFBD
:107CE00000BF1837BD46B0BD140E04001C40040090
:107CF000DC3F04005C10040090100400B810040085
:107D00003C9C0020D8100400DC1004000000C84295
:107D1000E01004000811040080B586B000AF164BD7
:107D20003B60164B7B60164BBB6000237B611AE007
:107D30007A6913469B0013449B00124A13443A4647
:107D400011461846FFF716FC38613B69FB60FB687B
:107D5000002B05D00C4A40F20D31F8680AF04AF8C1
:107D60007B6901337B617B69032BE1D900BF00BFD5
:107D70001837BD4680BD00BF9D7A0200157802000D
:107D8000209900209CAD0020140E040080B586B020
:107D900000AF78603960304A304BD31ADB081B04DF
:107DA00043F003032E49184609F080F83B681B781E
:107DB000022B3FD0022B4BDC002B01D0012B47E0E4
:107DC000254A264BD31ADB081B0443F0030325493D
:107DD000184609F06BF83B6859883B680E331A4621
:107DE000786813F065FE78617B693B613B69002B25
:107DF00005D01D4A40F22631386909F0FBFF78684A
:107E000013F038FE78617B69FB60FB68002B05D0BE
:107E1000154A40F22931F86809F0ECFF0E4A0F4B81
:107E2000D31ADB081B0443F003031049184609F07A
:107E30003DF80DE0084A094BD31ADB081B0443F058
:107E400003030B49184609F031F8FFF7F3FC00BFB4
:107E500000BF1837BD4680BD1C400400DC3F040055
:107E60002C11040044110400140E040058110400E5
:107E70008811040080B5AAB000AF786039607B68D3
:107E80000433C7F8A4307B681B88103B462B00F2F4
:107E9000628201A252F823F0B57F020057810200EE
:107EA00057830200CB8102005783020057830200F0
:107EB0005783020057830200578302005783020052
:107EC00057830200A78102005783020057830200F4
:107ED00057830200FF8102005783020039820200AB
:107EE0005783020057830200578302005783020022
:107EF0005783020057830200578302005783020012
:107F00005783020057830200578302005783020001
:107F100057830200578302005783020057830200F1
:107F200057830200578302005783020057830200E1
:107F300057830200578302005783020057830200D1
:107F4000578302008F82020057830200578302008A
:107F500057830200578302005783020057830200B1
:107F600057830200578302005783020057830200A1
:107F70005783020057830200578302005783020091
:107F80005783020057830200578302005783020081
:107F90005783020057830200578302005783020071
:107FA0005783020057830200578302005783020061
:107FB000118302007B689B881A4613465B001344BA
:107FC000DB00C44A98187B689B880022194613F08E
:107FD0006FFDC7F8A000D7F8A030C7F88830D7F8F1
:107FE0008830002B06D0BC4A40F25931D7F88800BF
:107FF00009F000FFD7F8A4301B881A46342302FB8F
:1080000003F3B64A9818D7F8A4301B880022194603
:1080100006F096FDC7F8A000D7F8A030C7F8843066
:10802000D7F88430002B06D0AB4A40F25D31D7F848
:10803000840009F0DFFED7F8A4301B881A461346E7
:108040009B0013449B00A64A9818D7F8A4301B88BD
:1080500000221946FFF756FBC7F8A000D7F8A0305A
:10806000C7F88030D7F88030002B06D09A4A40F20B
:108070006131D7F8800009F0BDFE06F085FF0346A8
:10808000032B01D8FFF7D6FB072010F0AFF8C7F895
:10809000A000D7F8A030FB67FB6F002B05D08E4AFD
:1080A0004FF45B71F86F09F0A5FE4FF413620021E5
:1080B0008C4814F0F5F97B689B881946894811F0C3
:1080C000CBFCC7F8A000D7F8A030BB67BB6F002B74
:1080D00005D0814A40F27131B86F09F08BFE824AB7
:1080E000824BD31ADB081B0443F004038049184673
:1080F00008F0DCFE7F4B1B88A7F870307B689B88FC
:1081000007F1700211461846FFF72BFBC7F8A000D5
:10811000D7F8A0307B677B6F002B05D06E4A40F20A
:108120007B31786F09F066FED7F8A4301B881A46B9
:1081300007F108037049184614F024FE07F10803FC
:10814000184601F0E9FCD7F8A4301B880121184635
:1081500005F014FC0CE1D7F8A4301B881A4607F18F
:1081600008036649184614F00DFE07F10803184687
:1081700001F0D2FC5C4A5D4BD31ADB081B0443F0D0
:108180000300D7F8A4301B881A46D7F8A4301B790F
:108190005B4908F0ADFED7F8A4301B8800211846D3
:1081A00005F0ECFBE4E0D7F8A4301B79022B40F09B
:1081B000D4804D4A4D4BD31ADB081B0443F0030314
:1081C0005049184608F072FEC7E07B689888002383
:1081D00000228521FFF7C1FAC7F8A000D7F8A03028
:1081E000C7F88C30D7F88C30002B00F0B8803A4AB2
:1081F00040F2A331D7F88C0009F0FCFDAFE0D7F8CE
:10820000A4301A88D7F8A430043319461046FFF773
:108210009CFAC7F8A000D7F8A030C7F89030D7F87C
:108220009030002B00F09D802B4A40F2AA31D7F805
:10823000900009F0DFFD94E02B4A2C4BD31ADB08A9
:108240001B0443F004033049184608F02FFE0023B6
:1082500087F86C30002387F86D307B689B8807F1C6
:108260006C0211461846FFF77CFAC7F8A000D7F851
:10827000A030C7F89430D7F89430002B73D0164A4A
:1082800040F2B631D7F8940009F0B4FD6BE0164A1D
:10829000164BD31ADB081B0443F004031B49184692
:1082A00008F004FE7B689B8813211846FFF751FAFB
:1082B000C7F8A000D7F8A030C7F89830D7F89830A2
:1082C000002B52D0044A40F2BF31D7F8980009F091
:1082D00091FD4AE06CAC0020140E0400CCAC0020F0
:1082E0009CAD0020E88F00201C400400DC3F04000F
:1082F000981104005C120400A4110400B4110400DD
:10830000C8110400F8110400181204002C12040013
:10831000194A1A4BD31ADB081B0443F0040318490B
:10832000184608F0C3FD7B689B8813211846FFF7A9
:1083300010FAC7F8A000D7F8A030C7F89C30D7F8DB
:108340009C30002B13D00F4A40F2C731D7F89C0065
:1083500009F050FD0BE000BF0AE000BF08E000BFDD
:1083600006E000BF04E000BF02E000BF00E000BF85
:1083700000BFA837BD4680BD1C400400DC3F0400A0
:1083800044120400140E040080B586B000AF13F050
:1083900017FD78617B693B613B69002B05D0164A6C
:1083A00040F2DE31386909F025FD00237B603B1D7A
:1083B0001946012013F0BEFD78617B69FB60FB6804
:1083C000002B05D00C4A4FF47971F86809F012FDC2
:1083D0003B1D184613F0ECFE78617B69BB60BB68FF
:1083E000002B05D0044A4FF47A71B86809F002FDF9
:1083F00000BF1837BD4680BD140E040080B582B0A2
:1084000000AF786039603B681B8840F67722934262
:108410001FD1124A124BD31ADB081B0443F003038B
:108420001049184608F042FD3B689B88033B9AB20E
:108430000D4B1A80094A0A4BD31ADB081B0443F080
:108440000300094B1B881A46074B1B88074908F095
:108450004FFD00BF0837BD4680BD00BF1C40040073
:10846000DC3F040060120400349900207C120400F8
:1084700080B584B000AF1249124811F07DFEF8605B
:10848000FB68BB60BB68002B05D00F4A4FF48061CE
:10849000B86809F0AFFCF7210A4811F099FEF860BE
:1084A000FB687B607B68002B05D0074A40F20341E4
:1084B000786809F09FFC00BF1037BD4680BD00BF43
:1084C000FD830200ECAD0020140E040080B584B0E2
:1084D00000AF3B4608220021184613F0E1FF0C4B89
:1084E0003B600C4B7B603B46184611F0D9F9F860B5
:1084F000FB68BB60BB68002B05D0074A40F22B41EC
:10850000B86809F077FC00BF1037BD4680BD00BFDA
:10851000357A020020990020140E040080B584B042
:1085200000AF786039603A687968134809F01AFE3C
:10853000F860FB68042B0AD1104A114BD31ADB08F0
:108540001B0443F003030F49184608F0AFFCFB6817
:10855000002B02D10C4800F0C3FBFB68BB60BB687A
:10856000002B05D0094A40F26A41B86809F042FC84
:1085700000BF1037BD4680BD5C9C00201C4004003D
:10858000DC3F0400E01204003D8D0200140E0400E4
:1085900090B59BB002AF786039603B681B78013BB7
:1085A000072B00F2E48101A252F823F0CD850200EE
:1085B0006F8902006F8902008B890200DF8502004B
:1085C0006F890200A98702001F8702003968786856
:1085D00000F068FA3968786800F08CFAD6E1002378
:1085E00087F85F3095E03C237B657A6D07F10803DF
:1085F0000021184613F054FF3B685B88A7F8403011
:1086000001237B7297F85F303A681B0113440433EF
:108610001B6807EE903AB8EEE77ADFEDDE6AC7EE48
:10862000267AC7ED0C7A97F85F303A681B0113443D
:1086300008331B6807EE903AB8EEE77ADFEDD56AAB
:10864000C7EE267AC7ED0D7A97F85F303A681B01BE
:1086500013440C331B6807EE903AB8EEE77ADFED6F
:10866000CD6AC7EE267AC7ED0E7A97F85F303A6882
:108670001B01134410331B6807EE903AB8EEE77AFB
:10868000DFEDC46AC7EE267AC7ED0F7AC24AC34B44
:10869000D31ADB081B0443F00300D7ED0C7A9FEDDF
:1086A000C07A67EE877AFDEEE77A17EE901AD7ED7B
:1086B0000D7A9FEDBB7A67EE877AFDEEE77A17EECB
:1086C000904AD7ED0E7A9FEDB67A67EE877AFDEE87
:1086D000E77A17EE903AD7ED0F7A9FEDB17A67EE11
:1086E000877AFDEEE77A17EE902A019200932346EF
:1086F0000A46AC4908F02AFC07F1540207F10803C6
:1087000011461846FFF70AFF97F85F30013387F8E4
:108710005F3097F85F30042B7FF665AF36E10C23AE
:10872000BB653B68DB6807EE903AB8EEE77ADFEDB1
:108730009E6AC7EE267AC7ED127A3B689B6807EE01
:10874000903AB8EEE77ADFED986AC7EE267AC7ED81
:10875000137A3B685B6807EE903AB8EEE77ADFED94
:10876000926AC7EE267AC7ED147A8B4A8B4BD31ADE
:10877000DB081B0443F00300D7ED127AFDEEE77A25
:1087800017EE902AD7ED137AFDEEE77A17EE901ADE
:10879000D7ED147AFDEEE77A17EE903A00930B4688
:1087A000824908F0BBFBF1E0002387F85E30D8E097
:1087B0003C237B647A6C07F108030021184613F010
:1087C0006FFE3B685B88A7F8403001233B7297F847
:1087D0005E2039681346DB0013445B000B440A3308
:1087E000B3F9003007EE903AB8EEE77ADFED706A41
:1087F000C7EE267AC7ED037A97F85E2039681346EC
:10880000DB0013445B000B440C33B3F9003007EE7C
:10881000903AB8EEE77ADFED666AC7EE267AC7EDE2
:10882000047A97F85E2039681346DB0013445B0036
:108830000B440E33B3F9003007EE903AB8EEE77A06
:10884000DFED5B6AC7EE267AC7ED057A97F85E2002
:1088500039681346DB0013445B000B440433B3F95F
:10886000003007EE903AB8EEE77ADFED526AC7EED5
:10887000267AC7ED067A97F85E2039681346DB0042
:1088800013445B000B440633B3F9003007EE903A13
:10889000B8EEE77ADFED476AC7EE267AC7ED077ACA
:1088A00097F85E2039681346DB0013445B000B44E5
:1088B0000833B3F9003007EE903AB8EEE77ADFED0F
:1088C0003D6AC7EE267AC7ED087A97F85E203968C8
:1088D0001346DB0013445B000B441033B3F9003044
:1088E00007EE903AB8EEE77AF3EE006AC7EE267A22
:1088F000C7ED097A97F85E2039681346DB00134408
:108900005B000B441233B3F9003007EE903AB8EE37
:10891000E77AF3EE006AC7EE267AC7ED0A7A97F88F
:108920005E2039681346DB0013445B000B441433AC
:10893000B3F9003007EE903AB8EEE77AF3EE006A4A
:10894000C7EE267AC7ED0B7A07F1440207F1080358
:1089500011461846FFF7E2FD97F85E30013387F8BD
:108960005E3097F85E30042B7FF622AF0EE00A4AA5
:108970000A4BD31ADB081B0443F003003B681B7847
:108980001A460D4908F0A1FA00E000BF00BF6437A5
:10899000BD4690BD0000804E1C400400DC3F04003A
:1089A00000007A4470130400000080478413040020
:1089B00000000042000080449813040080B584B099
:1089C00000AF134B3B600023FB6019E0FB683422CF
:1089D00002FB03F30F4A13443A461146184605F0CA
:1089E000EFFEB860BB687B607B68002B05D00A4A4D
:1089F00040F21F51786809F0FDF9FB680133FB6014
:108A0000FB68032BE2D900BF00BF1037BD4680BD15
:108A100091850200CCAC0020140E040080B586B015
:108A200000AF164B3B60164B7B60164BBB600023C0
:108A30007B611AE07A6913465B001344DB00124A3B
:108A400013443A461146184612F040FF38613B691C
:108A5000FB60FB68002B05D00C4A40F23451F868EB
:108A600009F0C8F97B6901337B617B69032BE1DD88
:108A700000BF00BF1837BD4680BD00BF8D7D02001E
:108A800015780200209900206CAC0020140E040020
:108A900080B500AFFFF7C2FFFFF790FFFFF73CF98B
:108AA00000BF80BD80B584B000AF786039603B689E
:108AB00059883B6804331A460A4806F041F8F860C2
:108AC000094A0A4BD31ADB081B0443F003003B6836
:108AD0005B881A46064908F0F8F900BF1037BD4612
:108AE00080BD00BFCCAC00201C400400DC3F040073
:108AF000C013040080B588B000AF786039603B686F
:108B00005B881A46342302FB03F32D4A13441846AC
:108B100005F066FFF861FB69BB61BB69002B05D0FE
:108B2000284A40F25951B86909F064F93B685B88FA
:108B30001A46342302FB03F3214A1344184605F076
:108B40006DFFF861FB697B617B69002B05D01D4AD5
:108B500040F25B51786909F04DF93B685B881A4631
:108B6000342302FB03F3164A1344184605F074FF3E
:108B7000F861FB693B613B69002B05D0114A40F26B
:108B80005D51386909F036F93B685B881A46342331
:108B900002FB03F30A4A1344184605F07BFFF86111
:108BA000FB69FB60FB68002B05D0064A40F25F5171
:108BB000F86809F01FF900BF2037BD4680BD00BF2F
:108BC000CCAC0020140E040084B080B582B000AF9D
:108BD00007F1100C8CE80F000023FB711AE0FB7901
:108BE000342202FB03F3114A134407F11001184623
:108BF00005F06EFF38600E4A0E4BD31ADB081B04DB
:108C000043F003033A680C49184608F05EF9FB7913
:108C10000133FB71FB79032BE1D900BF00BF08379B
:108C2000BD46BDE8804004B0704700BFCCAC00201A
:108C30001C400400DC3F0400F00F040080B584B049
:108C400000AF0023FB601EE01349FA6813465B0087
:108C50001344DB000B4402331B8813211846FEF734
:108C600078FDB860BB68082B0AD0BB687B607B6866
:108C7000002B05D0094A40F27F51786809F0BAF814
:108C8000FB680133FB60FB68032BDDDD00BF00BF29
:108C90001037BD4680BD00BF6CAC0020140E040030
:108CA00080B582B000AF4FF480520A490A4809F0FB
:108CB000BCF978607B683B603B68002B05D0074AB5
:108CC00040F28E51386809F095F800BF0837BD466C
:108CD00080BD00BF6C9C00205C9C0020140E040032
:108CE00080B584B000AF7860114B5B6C002B05D071
:108CF0000F4B5B6C01330E4A536415E00C4B5B6CFD
:108D000001330B4A53640B4A0021002009F010FB89
:108D1000F860FB68BB60BB68002B05D0064A40F2D8
:108D2000A151B86809F066F800BF1037BD4680BD94
:108D3000888F00203D8D0200140E04002DE9F04FB5
:108D4000ADF2DC4D12AF07F59263A3F264431860F5
:108D50000A4607F59263A3F266431A80F7E0002300
:108D600087F88F343C23C7F884341023C7F888343D
:108D700007F2844207F1340319467B4809F0B1F940
:108D80000346002B40F0CF8007F59263A3F25C43CB
:108D90005B78002B35D007F59263A3F25C439B6AA6
:108DA000184616F0B5FC82468B4607F59263A3F28F
:108DB0005C43DB6A184616F0ABFC04460D4607F52B
:108DC0009263A3F25C431B6B184616F0A1FC80462D
:108DD000894607F59263A3F25C435B6B184616F075
:108DE00097FC02460B4607F17000CDE90423CDE95C
:108DF0000289CDE9004552465B465C4913F0C2FF4B
:108E000089E007F59263A3F25C431B78002B00F026
:108E1000828007F59263A3F25C431B8F1E4607F521
:108E20009263A3F25C435B68184616F071FCC7E9D5
:108E3000080107F59263A3F25C439B68184616F09D
:108E400067FCC7E9060107F59263A3F25C43DB68A0
:108E5000184616F05DFCC7E9040107F59263A3F21A
:108E60005C431B69184616F053FCC7E9020107F57D
:108E70009263A3F25C435B69184616F049FCC7E9AC
:108E8000000107F59263A3F25C439B69184616F054
:108E90003FFC82468B4607F59263A3F25C43DB6995
:108EA000184616F035FC8046894607F59263A3F212
:108EB0005C431B6A184616F02BFC04460D4607F56A
:108EC0009263A3F25C435B6A184616F021FC0246EB
:108ED0000B4607F17000CDE91023CDE90E45CDE931
:108EE0000C89CDE90AAB97ED007B8DED087B97ED02
:108EF000027B8DED067B97ED047B8DED047B97ED7A
:108F0000067B8DED027B97ED087B8DED007B324675
:108F1000174913F037FF012387F88F34154B5B6C2B
:108F2000013B144A536497F88F34002B0FD007F19C
:108F30007003184603F0B5FF0346C7F8703407F511
:108F40008E6207F170031146184601F007F8094BCD
:108F50005B6C002B7FF403AF00BF00BF07F29447A8
:108F6000BD46BDE8F08F00BF5C9C0020FC130400F0
:108F700018140400888F002080B582B000AF3548F7
:108F800000F0CAFD344800F0C7FD344B1B78002BBD
:108F900002D0334800F0C0FD304B5B78002B02D08C
:108FA000304800F0B9FD2D4B9B78002B02D02E48A5
:108FB00000F0B2FD294B5B79002B02D02B4800F06A
:108FC000ABFD264BDB78002B02D0294800F0A4FD36
:108FD000224B1B79002B02D0264800F09DFD1F4B31
:108FE0009B69002B19D0244800F096FD1B4B9A6911
:108FF0003B462249184613F0C5FE214A214BD31A9D
:10900000DB081B0443F003033A461F49184607F0E8
:109010005CFF3B46184600F07FFD104B93F84C3048
:10902000002B02D0194800F077FD0C4B1B7A002B67
:1090300002D0174800F070FD084B9B79002B02D03E
:10904000144800F069FD034800F066FD00BF0837D2
:10905000BD4680BD601404008C140400888F00207D
:10906000A0140400BC140400DC140400F814040070
:1090700014150400381504005C150400781504006C
:109080001C400400DC3F0400801504008C15040023
:10909000A0150400C015040080B5A6B000AF07F10C
:1090A0006403184605F088FF0023C7F894301BE0DE
:1090B000D7F894305B0007F19802134433F8303C42
:1090C000A7F89230D7F894305A1CB7F89230384647
:1090D0000A4913F057FE3B46184600F01DFDD7F82D
:1090E00094300133C7F894307B6ED7F894209A42BD
:1090F000DED300BF00BF9837BD4680BDD415040045
:1091000080B58CB000AF3B1D184605F055FF7B685D
:1091100018463037BD4680BD90B5ABB004AF23488C
:1091200000F0FAFC07F16403184605F045FF002340
:10913000C7F894302DE0D7F894305B0007F198021F
:10914000134433F8303CA7F89230B7F89240B7F8A0
:109150009230174ADB00134404331B68184616F09C
:10916000D7FA02460B46B7F89210114810F83110A2
:1091700038460291CDE9002322460E4913F002FE43
:109180003B46184600F0C8FCD7F894300133C7F8C6
:1091900094307B6ED7F894209A42CCD3034800F0E9
:1091A000BBFC00BF9C37BD4690BD00BF60140400EF
:1091B0003C9C0020F815040080B483B000AF034647
:1091C000FB71044AFB79137200BF0C37BD465DF892
:1091D000047B7047888F002080B483B000AF0346C3
:1091E000FB71054AFB7982F84C3000BF0C37BD4655
:1091F0005DF8047B704700BF888F002080B483B087
:1092000000AF0346FB71044AFB79137000BF0C37B3
:10921000BD465DF8047B7047888F002080B483B022
:1092200000AF0346FB71044AFB79537000BF0C3753
:10923000BD465DF8047B7047888F002080B483B002
:1092400000AF0346FB71044AFB79937000BF0C37F3
:10925000BD465DF8047B7047888F002080B483B0E2
:1092600000AF0346FB71044AFB79D37000BF0C3793
:10927000BD465DF8047B7047888F002080B483B0C2
:1092800000AF0346FB71044AFB79137100BF0C3732
:10929000BD465DF8047B7047888F002080B483B0A2
:1092A00000AF0346FB71044AFB79937100BF0C3792
:1092B000BD465DF8047B7047888F002080B483B082
:1092C00000AF7860044A7B68936100BF0C37BD46ED
:1092D0005DF8047B704700BF888F002080B400AF2A
:1092E000134B00221A70124B00225A70104B0022AE
:1092F0009A700F4B0022DA700D4B00221A710C4B42
:1093000000225A710A4B00229A61094B00221A72FC
:10931000074B0022DA71064B002283F84C20044BE5
:1093200000229A7100BFBD465DF8047B704700BF04
:10933000888F00202DE9B04F98B004AF834B1B7885
:1093400087F83030814B5B7887F831307F4B9B78E2
:1093500087F832307D4B5B7987F833307B4BDB7895
:1093600087F83430794B1B7987F83530774B9B6918
:109370009BB2FB86754B9B7987F83830734B1B7A11
:1093800087F83930714BDB7987F848306F4B93F8A9
:109390004C3087F8493007F08DF802460B466B4990
:1093A000C1E90423694BD3E9042312F1080443F112
:1093B00000054FF47A524FF000032046294616F07C
:1093C00027FD02460B4612F5FA61B96243F100032C
:1093D000FB625E4BD7E90A12C3E904125B4BD3E987
:1093E000044522462B464FF000004FF00001590182
:1093F00041EAD261500102460B46B2EB040863EB2E
:1094000005094FF000024FF000034FEA890343EAD9
:1094100098734FEA88029046994618EB04033B6123
:1094200049EB05037B614FF000024FF00003D7E9E1
:1094300004452946CB00214643EA51732146CA0020
:1094400012F5FA71396243F100037B62404A4FF032
:109450000003D7E9080116F0DBFC02460B46104674
:10946000194602460B469418BC605B41FB60D7E985
:10947000022312EB000A43EB010B4FF000024FF006
:1094800000034FEA4B1343EADA634FEA4A121AEB3E
:1094900002043C604BEB03037B60D7E900452346A5
:1094A0001B18BB612B4641EB0303FB61274BD7E93C
:1094B0000612C3E90412254BD3E90423C7E910239C
:1094C000244A254BD31ADB081B0443F003001F4B2F
:1094D000D3E9042313461A46204907F0F6FC1D4A37
:1094E0001D4BD31ADB081B0443F0030397F84920F4
:1094F0001B49184607F0E9FC164A174BD31ADB083C
:109500001B0443F0030397F838201649184607F068
:10951000DCFC104A104BD31ADB081B0443F0030396
:109520000A4A92791049184607F0CFFC6C4607F1B9
:1095300040030FCB84E80F0007F130030FCBFFF798
:1095400043FB00BF5037BD46BDE8B08F888F002079
:10955000A08601001C400400DC3F04003816040013
:109560004C160400641604007C16040080B584B018
:1095700000AF78607B689BB213211846FEF7E9F8CC
:10958000F860FB6843F2020293420AD1164A174B75
:10959000D31ADB081B0443F003031549184607F0F0
:1095A00085FCFB68082B0FD0FB6843F20202934254
:1095B0000AD0FB68BB60BB68002B05D00D4A40F2A7
:1095C000A761B86808F016FC074A084BD31ADB08F5
:1095D0001B0443F003030849184607F067FCFB68C7
:1095E00018461037BD4680BD1C400400DC3F040017
:1095F00090160400140E0400B016040080B483B06A
:1096000000AF0346FB71FB7903F1804303F5C043D0
:109610001A460123136000BF0C37BD465DF8047B7A
:10962000704780B483B000AF0346FB71FB7903F150
:10963000804303F5C04318460C37BD465DF8047BF4
:109640007047000080B485B000AF78600A4A7B683C
:1096500003F5A27352F8233043F00303FB6006497D
:109660007B6803F5A273FA6841F8232000BF143722
:10967000BD465DF8047B70470060004080B485B053
:1096800000AFF860B96011461A460B46FB711346ED
:10969000BB71184AFB6803F5A27352F823301549D1
:1096A00023F4981323F4F853FA6802F5A27241F8F0
:1096B0002230104AFB6803F5A27352F82320BB68DE
:1096C0001B0203F4F851FB791B0403F440331943E4
:1096D000BB791B0503F480130B4306491A43FB684F
:1096E00003F5A27341F8232000BF1437BD465DF88F
:1096F000047B704700600040B0B586B000AF284BD7
:109700001B78002B47D106F0D5FEC7E90401D7E945
:10971000042312F1080443F100054FF47A524FF08C
:1097200000032046294616F073FB02460B461346FB
:10973000FB60FB684FF47A7202FB03F303F5FA73E4
:10974000184AA2FB03239B0903F5FA63BB60BB68BD
:10975000144AA2FB03239B094FF47A7202FB03F322
:10976000BB600C20FFF75DFF03461946B86806F0A2
:10977000DBF878607B683B603B68002B04D00A4ACA
:109780002C21386808F036FB6C20FFF737FF044BBC
:1097900001221A7000E000BF1837BD46B0BD00BFFF
:1097A000C0B60020D34D62103417040080B400AF5F
:1097B000034B00221A7000BFBD465DF8047B704762
:1097C000C0B6002080B400AF034B1B781846BD46DE
:1097D0005DF8047B704700BFC0B60020B0B58AB00A
:1097E00000AF78607B68002B14BF01230023DBB23D
:1097F0007B627B6A002B04D1434A4821002008F099
:10980000F9FA7B681B78022B22D0022B6CDC002B30
:1098100002D0012B0ED067E03C4A3D4BD31ADB0847
:109820001B0443F003033B49184607F03FFBFFF7D7
:1098300063FF64E0354A364BD31ADB081B0443F060
:1098400003033549184607F031FBFFF7AFFF56E039
:10985000FFF7B8FF0346002B2CD07B689B680A33C8
:109860003B620C20FFF7DDFE03461946386A06F01E
:109870005BF8F861FB69002B11D0244A244BD31A02
:10988000DB081B0443F00303FA692449184607F078
:109890001CFB00BF07F0C0FB0346002BFAD1FB699D
:1098A000BB61BB69002B08D0174A6721B86908F073
:1098B000A1FA02E06C20FFF7A1FE06F0FBFDC7E96C
:1098C0000401D7E9042312F1080443F100054FF421
:1098D0007A524FF000032046294616F099FA0246C4
:1098E0000B461346FB600AE00023BB60BB68002BFD
:1098F00004D1054A7521002008F07CFA00BF00BFA2
:109900002837BD46B0BD00BF341704001C4004001A
:10991000DC3F0400581704006C170400841704008F
:10992000B0B58AB000AF0023032218210320FFF74F
:10993000A5FE0320FFF786FE294B07F108041D460C
:109940000FCD0FC42B68236007F10803184606F0FB
:109950007BFC78627B6A3B623B6A002B04D0214A25
:109960009921386A08F046FA1F4A3B4692E80300FC
:109970001860043319803B46184606F0C3FC786231
:109980007B6AFB61FB69002B04D0164AA121F869B0
:1099900008F030FA154A164BD31ADB081B0443F0C3
:1099A00003031449184607F081FA104A104BD31AE2
:1099B000DB081B0443F003030F49184607F076FA4F
:1099C0000A4A0B4BD31ADB081B0443F003030B4971
:1099D000184607F06BFA00BF2837BD46B0BD00BF80
:1099E0003418040034170400481804001C40040014
:1099F000DC3F0400A0170400C4170400F81704009B
:109A0000B0B584B000AF06F055FDC7E90201D7E953
:109A1000022312F1080443F100054FF47A524FF08B
:109A200000032046294616F0F3F902460B4613467A
:109A30007B607B684FF47A7202FB03F303F5FA73E1
:109A40000A4AA2FB03239B093B60094A094BD31A2C
:109A5000DB081B0443F003007B683A68064907F003
:109A600047FA00BF1037BD46B0BD00BFD34D6210EE
:109A70001C400400DC3F04005018040080B582B094
:109A800000AF0346FB710748074B1B6A5A090123C5
:109A9000002100F05DFC054801F0E6FA00BF083740
:109AA000BD4680BD781804002CBA00208018040040
:109AB00080B584B000AF4FF480621249124808F0BC
:109AC000B4FAF860FB68BB60BB68002B04D00F4A97
:109AD0005021B86808F08EF94FF480720C490D4897
:109AE00008F0A3FAF860FB687B607B68002B04D069
:109AF000064A5421786808F07DF900BF1037BD464A
:109B000080BD00BF6CBA00205CBA0020A818040019
:109B100084C4002074C4002080B5C4B000AF07F531
:109B20008873A3F58673186007F58873A3F58673A9
:109B3000186813F059F90346C7F80C31D7F80C210F
:109B400007F58873A3F5867307F10C00196812F006
:109B500099FC07F5867207F10C031146184600F0D0
:109B6000FDF900BF07F58877BD4680BD2DE9F043BC
:109B700089B002AF78600B46FB706B461E46F978E1
:109B80000B46013B7B61CBB20022984691464FF0D9
:109B900000024FF000034FEAC90343EA58734FEA4B
:109BA000C802CBB200221C4615464FF000024FF00F
:109BB0000003EB0043EA5473E2000B460733DB0873
:109BC000DB00ADEB030D02AB00333B61FB781A46C3
:109BD0007968386912F056FC164A174BD31ADB081D
:109BE0001B0443F003007B681B781A467B68013333
:109BF0001B7819467B6802331B7800930B460F498C
:109C000007F08CF9386912F0F1FB0346FB60094A52
:109C1000094BD31ADB081B0443F00303FA68084915
:109C2000184607F052F9FB68B54618461C37BD4682
:109C3000BDE8F0831C400400DC3F0400C4180400AD
:109C4000D018040080B58AB000AF786039607B68B6
:109C50007B6200237B843B681B78032B00F2C98066
:109C600001A252F823F000BFA99C02009B9D0200B4
:109C7000799C0200919C0200614A624BD31ADB0876
:109C80001B0443F003036049184607F00FF9B3E0E3
:109C90005B4A5C4BD31ADB081B0443F003035B49AC
:109CA000184607F003F9A7E0554A564BD31ADB08CC
:109CB0001B0443F003035649184607F0F7F83B68C6
:109CC0009B68022B0AD94E4A4E4BD31ADB081B0461
:109CD00043F001034F49184607F0E8F83B6859681C
:109CE0003B6808331A464C4808F03CFAF861FB69B7
:109CF0007B617B69002B04D0484A9921786908F080
:109D000079F8FB69002B11D03D4A3E4BD31ADB0892
:109D10001B0443F00303FA694149184607F0D5F8DC
:109D200000BF07F079F90346002BFAD1344A354BCE
:109D3000D31ADB081B0443F003003B685B681B7805
:109D40001A463B685B681B78364907F0D1F82C4A05
:109D50002C4BD31ADB081B0443F00303324918468B
:109D600007F0A4F8314B5B681A460021002008F088
:109D7000DFFAF861FB693B613B69002B04D0274A9D
:109D8000A621386908F036F83B6859683B689B683B
:109D90001A46786A01F0D4FC2EE04FF48063FB6031
:109DA00007F10C031A462249224808F09AF9F86193
:109DB000FB69002B17D1FB681E4AC2F8143A1D4BF1
:109DC000D3F8143A1A461A491B4801F0A7FCF86167
:109DD000FB69BB61BB69002B0DD0104ABE21B8697D
:109DE00008F008F807E00523FB61104B00221A7009
:109DF00001E000BF00E000BF00BF2837BD4680BDC6
:109E00001C400400DC3F0400D4180400F4180400D3
:109E10001C1904003C19040074C40020A818040094
:109E200044190400781904008819040054BA002069
:109E30006CC000205CBA00208018040080B58EB091
:109E400000AF7860FFF734FE224A7B68536007F169
:109E50000C0320220021184612F022FB0823FB608D
:109E600006233B614FF47A73FB61012387F82030AE
:109E70004FF080537B62062387F8293007F10C01ED
:109E8000154B164A144801F0B3F978637B6B3B63BA
:109E90003B6B002B04D0124AEF21386B07F0AAFF6E
:109EA0000D4801F09BFB0F4B1B781A460E490A48E0
:109EB00001F034FC78637B6BFB62FB6A002B04D0FF
:109EC000074AF821F86A07F095FF00BF3837BD460A
:109ED00080BD00BF54BA002080180400459C0200D9
:109EE000A8180400369900203899002080B584B065
:109EF00000AF786039603B68FE2B0BD9114A124BDA
:109F0000D31ADB081B0443F003033A680F491846D1
:109F100006F0DBFF0E4B01221A703A6879680D4893
:109F200001F0FCFBF860FB68BB60BB68002B05D050
:109F3000094A4FF48571B86807F05CFF00BF10371D
:109F4000BD4680BD1C400400DC3F040094190400A1
:109F500054BA002080180400A818040080B586B008
:109F600000AF7860396007F10803042239681846A9
:109F700012F088FA3A687968264808F0F3F87861B0
:109F80007B693B613B69002B05D0234A4FF48C7100
:109F9000386907F02FFF7B69042B0AD11F4A204B39
:109FA000D31ADB081B0443F003031E49184606F0CE
:109FB0007DFF7B69002B28D11B4B1B7883F00103AD
:109FC000DBB2002B21D007F108031A4617491148CC
:109FD00008F087F878617B69002B0BD1BB680D4ACC
:109FE000C2F8103A0B4BD3F8103A19460F48FFF756
:109FF0007DFF0AE07B69FB60FB68002B05D0064A09
:10A000004FF49D71F86807F0F5FE00BF1837BD46A4
:10A0100080BD00BF5CBA0020A81804001C400400EA
:10A02000DC3F0400BC19040054BA00206CBE0020C0
:10A0300080B584B000AF786039603A6879680448C8
:10A0400008F04FF8F860FB6818461037BD4680BD31
:10A0500074C4002080B584B000AF7860796804488B
:10A0600008F029F8F860FB6818461037BD4680BD37
:10A0700074C4002080B483B000AF0346FB7197F92D
:10A080000730002B0BDBFB7903F01F02074997F920
:10A0900007305B09012000FA02F241F8232000BFDB
:10A0A0000C37BD465DF8047B704700BF00E100E05F
:10A0B00080B483B000AF03463960FB7197F9073075
:10A0C000002B0ADB3B68DAB20C4997F907305201E2
:10A0D000D2B20B4483F800230AE03B68DAB20849A5
:10A0E000FB7903F00F03043B5201D2B20B441A7602
:10A0F00000BF0C37BD465DF8047B704700E100E00F
:10A1000000ED00E080B582B000AF03460A46FB7167
:10A110001346BB71BA7997F9073011461846FFF715
:10A12000C7FF00BF0837BD4680BD80B582B000AF15
:10A130000346FB7197F907301846FFF79BFF00BFF6
:10A140000837BD4680BD80B485B000AFF860B96007
:10A150007A60FB68BA6802F5A872796843F8221041
:10A1600000BF1437BD465DF8047B704780B483B0F0
:10A1700000AF786039607B683A68C3F8042300BF99
:10A180000C37BD465DF8047B704780B483B000AFE8
:10A19000786039607B683A68C3F8082300BF0C37E1
:10A1A000BD465DF8047B704780B483B000AF786033
:10A1B00039607B68D3F804233B68134018460C379A
:10A1C000BD465DF8047B704780B483B000AF786013
:10A1D0000B467B807B887A6813441B6818460C37D3
:10A1E000BD465DF8047B704780B485B000AF7860F1
:10A1F0000B467B807B887A68134400221A607B8838
:10A200007A6813441B68FB60FB6800BF1437BD46C7
:10A210005DF8047B704780B483B000AF78607B68E2
:10A22000D3F8043518460C37BD465DF8047B7047FB
:10A2300080B483B000AF786039607B683A68C3F857
:10A24000082500BF0C37BD465DF8047B704780B41D
:10A2500083B000AF786039607B683A68C3F8442304
:10A2600000BF0C37BD465DF8047B704780B483B0F7
:10A2700000AF786039607B683A68C3F8482300BF54
:10A280000C37BD465DF8047B7047000080B586B092
:10A2900000AFF860B9607A60FB685B7919462A4ABA
:10A2A0007B6842F82130FB685B791946274A0B46E8
:10A2B0005B000B4413441B78002B03D008237B6105
:10A2C0007B693DE0FB6893F90420BB689B781946E5
:10A2D0001046FFF717FFFB6893F904301846FFF7A5
:10A2E00024FFFB681A68BB681B8819461046FFF7F5
:10A2F0009FFFFB685B791946BB681879134A0B46C8
:10A300005B000B441344013302461A70FB685B790F
:10A310001946BB68D8780D4A0B465B000B441344C2
:10A32000023302461A70FB685B791946074A0B46EE
:10A330005B000B44134401221A7000237B617B698C
:10A3400018461837BD4680BD84C500208CC5002046
:10A3500080B58AB000AFF860B9607A60FB704FF4E6
:10A360008032BB6802FA03F3BB61BB689BB2503317
:10A370009BB29B00FB82FB681B68B9691846FFF71C
:10A3800075FFFB681B68B9691846FFF7FEFE7B681E
:10A3900023F07F437B60FB685B7919462C4A0B46B0
:10A3A0005B000B44134401331B78002B2CD0FB685B
:10A3B0001B687A68B9681846FFF7C5FEFB681B681A
:10A3C0001846FFF728FF38623A6A7B68D31AFB61A8
:10A3D0003A6A7B689A4205D2FB6903F1FF1303F5E1
:10A3E0007F43FB61FB685B791946194A0B465B00AA
:10A3F0000B44134402331B781A46FB6993420ADA72
:10A400000D237B627B6A1FE0FB681B687A68B96872
:10A410001846FFF798FEFB78002B0CD0FB681B68F2
:10A42000FA8A11461846FFF7DFFEFB681B68B96918
:10A430001846FFF79BFEFB681B68B9691846FFF7D3
:10A4400006FF00237B627B6A18462837BD4680BD25
:10A450008CC5002080B588B000AFF860B9607A6024
:10A460004FF48033BB614FF4A073FB8300237B6107
:10A470002CE0B969F868FFF797FE0346002B1CD063
:10A48000FB8B1946F868FFF79FFE0346002B14D09C
:10A49000B969F868FFF7EAFEB969F868FFF775FE71
:10A4A000FB8B1946F868FFF79FFE294ABB6852F8F4
:10A4B00023307A69D2B210469847BB695B00BB6112
:10A4C000FB8B0433FB837B6901337B617A697B6897
:10A4D0009A42CED34FF48073FB830121F868FFF7D3
:10A4E00063FE0346002B12D0FB8B1946F868FFF77A
:10A4F0006BFE0346002B0AD0FB8B1946F868FFF76A
:10A5000073FE134ABB6852F82330042098474FF477
:10A510008273FB830221F868FFF746FE0346002B97
:10A5200012D0FB8B1946F868FFF74EFE0346002B4E
:10A530000AD0FB8B1946F868FFF756FE044ABB6841
:10A5400052F823300520984700BF2037BD4680BD14
:10A5500084C5002080B500AF032200210248FFF728
:10A5600079FF00BF80BD00BF00B0004080B500AFE4
:10A57000042201210248FFF76DFF00BF80BD00BF2C
:10A580000040024080B483B000AF0346FB7197F9EE
:10A590000730002B0BDBFB7903F01F02074997F90B
:10A5A00007305B09012000FA02F241F8232000BFC6
:10A5B0000C37BD465DF8047B704700BF00E100E04A
:10A5C00080B483B000AF03463960FB7197F9073060
:10A5D000002B0ADB3B68DAB20C4997F907305201CD
:10A5E000D2B20B4483F800230AE03B68DAB2084990
:10A5F000FB7903F00F03043B5201D2B20B441A76ED
:10A6000000BF0C37BD465DF8047B704700E100E0F9
:10A6100000ED00E080B483B000AF78607B681B0B76
:10A620005BB218460C37BD465DF8047B704780B5B9
:10A6300082B000AF03460A46FB711346BB71BA797C
:10A6400097F9073011461846FFF7BAFF00BF0837E1
:10A65000BD4680BD80B582B000AF0346FB7197F95F
:10A6600007301846FFF78EFF00BF0837BD4680BD94
:10A6700080B483B000AF78600B46FB70FB787A68DB
:10A68000134401221A6000BF0C37BD465DF8047BFD
:10A69000704780B485B000AF78600B467B807B88C4
:10A6A0007A68134400221A607B887A6813441B6816
:10A6B000FB60FB6800BF1437BD465DF8047B704744
:10A6C00080B483B000AF78600B467B807B887A686B
:10A6D00013441B68002B14BF01230023DBB2184670
:10A6E0000C37BD465DF8047B704780B483B000AF83
:10A6F000786039607B683A68C3F8042300BF0C3780
:10A70000BD465DF8047B704780B483B000AF7860CD
:10A7100039607B683A68C3F8082300BF0C37BD4630
:10A720005DF8047B704780B483B000AF7860396017
:10A730007B68D3F804233B681340002B14BF01232C
:10A740000023DBB218460C37BD465DF8047B70472A
:10A7500080B483B000AF78600B46FB707B68D3F8A1
:10A76000043523F00302FB7803F003031A437B68EC
:10A77000C3F8042500BF0C37BD465DF8047B704765
:10A7800080B483B000AF78600B46FB707B68D3F871
:10A79000083523F00302FB7803F003031A437B68B8
:10A7A000C3F8082500BF0C37BD465DF8047B704731
:10A7B00080B483B000AF78600B46FB707B68D3F841
:10A7C000103523F00F02FB7803F00F031A437B6868
:10A7D000C3F8102500BF0C37BD465DF8047B7047F9
:10A7E00080B485B000AFF8600B467A60FB72FA7AED
:10A7F000FB6802F5A872796843F8221000BF14378D
:10A80000BD465DF8047B704780B483B000AF7860CC
:10A810007B689B0003F5A0739BB218460C37BD46BE
:10A820005DF8047B704780B483B000AF78604FF46C
:10A8300080327B6802FA03F318460C37BD465DF898
:10A84000047B704790B589B000AFF860B9607A605A
:10A85000FB681B791A4613465B0013449B00304A81
:10A8600013447B617B691B7A002B03D00823FB61B7
:10A87000FB6950E07B697A681A60BB685A687B693B
:10A880005A600023FB760DE0FB681C68FB7E1846CF
:10A89000FFF7BAFF034619462046FFF7FAFEFB7E94
:10A8A0000133FB76FB685B79FA7E9A42ECD3FB6856
:10A8B0001B681846FFF7AEFE03461A46BB68DB78F6
:10A8C00019461046FFF7B3FEFB681B681846FFF7F2
:10A8D000A1FE03461846FFF7BDFEFB681A68BB6879
:10A8E0005B7819461046FFF733FFFB681A68BB68B0
:10A8F0009B7819461046FFF743FFFB681A68BB6850
:10A900001B7819461046FFF753FF7B6901221A7224
:10A910000023FB61FB6918462437BD4690BD00BF8C
:10A9200094C5002080B582B000AF78607B681B685A
:10A9300000211846FFF79CFE7B681B791946064AE2
:10A940000B465B000B449B001344083302221A7031
:10A9500000BF0837BD4680BD94C5002080B582B0D9
:10A9600000AF78607B681B680C211846FFF780FEFB
:10A9700000BF0837BD4680BD90B587B000AFF86016
:10A980007A601A460B46FB721346BB72FB7A184676
:10A99000FFF749FF7861BB7A002B11D0FB681C6878
:10A9A000FB7A1846FFF730FF034619462046FFF7AB
:10A9B00070FEFB681B6879691846FFF796FE05E094
:10A9C000FB681B6879691846FFF79EFEFB681B68E9
:10A9D000F97A7A681846FFF703FF00BF1C37BD46B7
:10A9E00090BD80B586B000AFF860B9601346FB71CA
:10A9F0000023FB7528E0FB7D1846FFF705FF0346A3
:10AA0000BB82FB7D1846FFF70EFF3861BB8A1946F3
:10AA1000F868FFF755FE0346002B12D03969F86835
:10AA2000FFF781FE0346002B0BD0BB8A1946F8685E
:10AA3000FFF72FFEBB681B68BA685168BA8A1046D8
:10AA40009847FB7D0133FB75FA7DFB799A42D2D39F
:10AA500000BF00BF1837BD4680BD000080B500AF05
:10AA6000042203490348FFF7BCFF00BF80BD00BFBD
:10AA700094C500200080004080B500AF0422034947
:10AA80000348FFF7AEFF00BF80BD00BFA0C5002098
:10AA90000090004080B483B000AF0346FB7197F98B
:10AAA0000730002B0BDBFB7903F01F02074997F9F6
:10AAB00007305B09012000FA02F241F8232000BFB1
:10AAC0000C37BD465DF8047B704700BF00E100E035
:10AAD00080B483B000AF0346FB7197F90730002BB9
:10AAE00012DBFB7903F01F020A4997F907305B0973
:10AAF000012000FA02F2203341F82320BFF34F8FE8
:10AB000000BFBFF36F8F00BF00BF0C37BD465DF8BD
:10AB1000047B704700E100E080B582B000AF0346DF
:10AB2000FB7197F907301846FFF7B4FF00BF0837ED
:10AB3000BD4680BD80B582B000AF0346FB7197F97A
:10AB400007301846FFF7C4FF00BF0837BD4680BD79
:10AB500080B483B000AF78600B46FB70FB787A68F6
:10AB6000134401221A6000BF0C37BD465DF8047B18
:10AB7000704780B483B000AF78600B46FB70FB7801
:10AB80007A68134418460C37BD465DF8047B70475D
:10AB900080B483B000AF78600B467B807B887A6896
:10ABA000134418460C37BD465DF8047B704780B4EB
:10ABB00083B000AF78607B689B0003F5A0739BB205
:10ABC00018460C37BD465DF8047B704780B582B0EF
:10ABD00000AF78600B46FB707B681B68FA78114603
:10ABE0001846FFF7C6FF034618460837BD4680BD26
:10ABF00090B583B000AF786039607B681C683868B6
:10AC0000FFF7D5FF034619462046FFF7C1FF03466D
:10AC100018460C37BD4690BD80B483B000AF786055
:10AC20000B467B807A887B68134418460C37BD46F8
:10AC30005DF8047B704780B483B000AF78600B464A
:10AC4000FB70FA787B68134418460C37BD465DF8F4
:10AC5000047B704780B483B000AF78600B46FB7014
:10AC6000FA787B6813441A460123136000BF0C373F
:10AC7000BD465DF8047B704780B582B000AF786058
:10AC80007B681B6808211846FFF7E4FF00BF083700
:10AC9000BD4680BD80B582B000AF78600B46FB70CA
:10ACA0007B681B68FA7811461846FFF7C4FF034615
:10ACB00018460837BD4680BD80B582B000AF7860C9
:10ACC0000B467B807B681B687A8811461846FFF725
:10ACD000A3FF034618460837BD4680BD80B483B045
:10ACE00000AF78600B467B807B887A6813441846F7
:10ACF0000C37BD465DF8047B7047000080B483B01C
:10AD000000AF0346FB71FB79034AD35C18460C374E
:10AD1000BD465DF8047B7047401A04002DE9F00F32
:10AD200086B000AF78617969002088468146C7E91E
:10AD300002894FF000004FF00001C7E90001F968F7
:10AD40004E017E607E68B96846EAD1667E60B96869
:10AD500049013960D7E90001C7E902010146B1EBB9
:10AD60000804F96861EB09054FF000004FF000019D
:10AD7000A90141EA9461A001021B61EB05034FF0B8
:10AD800000004FF00001D90041EA5271D0000246A4
:10AD90000B4612EB080A43EB090B4FF000024FF091
:10ADA00000034FEACB1343EA5A634FEACA129246B2
:10ADB0009B46504659464FF000024FF00003C20B2D
:10ADC00042EA4142CB0B134618461837BD46BDE850
:10ADD000F00F704780B582B000AF786079680020CE
:10ADE0000A4603464FF000004FF00001990341EA84
:10ADF00092419003054A4FF0000315F009F802460E
:10AE00000B46134618460837BD4680BD40420F002A
:10AE100080B584B000AF78607B681B68184608F086
:10AE200035FE0346BB60BB68002B01D100231BE04D
:10AE30007B685B6807F108021146184609F01AFDA5
:10AE4000F860FB68002B01D000230DE07B68DB6914
:10AE5000DA680132DA607B689869B9687B685B6A96
:10AE60001A4601F0D2FC012318461037BD4680BDBA
:10AE700080B596B000AF786039607B68FB633B6853
:10AE80001B78042B00F2D78001A252F823F000BFF8
:10AE90001FAF0200CDAE0200A5AE0200C1AF02009E
:10AEA000EDAF0200012387F82C303B685B683B6301
:10AEB0003B689B687B63FB6BDB691B68FA6BD26941
:10AEC000526807F12C0110469847C7E0FB6BDB691D
:10AED00093F82630002B40F0BA80F86BFFF798FF0C
:10AEE000034683F00103DBB2002B00F0B280FB6B62
:10AEF000DB6993F82530002B05D0FB6BDB69012261
:10AF000083F82620A5E00023BB64BB6C002B40F037
:10AF1000A080544AE621002006F06CFF99E03B68CF
:10AF20009A68FB6BDB695B69D31A7B647B6C002BD3
:10AF30003AD0FB6BDB691969FB6BDB697A6C0A44FD
:10AF40001A61002387F820303B685A68FB6BDB6985
:10AF50005B6913447B627B6CBB62FB6BDB69002229
:10AF60005A61FB6B5868FB6BDB691833002219468A
:10AF700009F024FD38653B6D002B0AD00023FB64EB
:10AF8000FB6C002B05D1374A40F20B11002006F074
:10AF900031FFFB6BDB691B68FA6BD269526807F102
:10AFA00020011046984756E000233B643B6C002B81
:10AFB00051D12C4A4FF48A71002006F01BFF4AE061
:10AFC00007F1140300221A605A609A6002233B754D
:10AFD0003B681B793B76FB6BDB691B68FA6BD269BC
:10AFE000526807F114011046984737E03B685A68E9
:10AFF000FB6BDB695B69D31ABB63FB6BDB691969AC
:10B00000FB6BDB69BA6B0A441A6107F10803002283
:10B010001A605A609A6003233B723B685B68FB606E
:10B02000FB6BDB691B68FA6BD269526807F1080198
:10B030001046984712E000237B657B6D002B0CD1F6
:10B04000084A4FF49971002006F0D4FE05E000BFD5
:10B0500004E000BF02E000BF00E000BF00BF5837BF
:10B06000BD4680BDF019040080B588B000AF78609F
:10B070007B689B69DB681B0B5BB21846FFF75AFDC8
:10B080007B689B695B68D3F84C35FB617B68DB6947
:10B090001B69FA699A4227D97B68DB691B69FA69DF
:10B0A000D31ABB6100233B737B68DB699A697B68B9
:10B0B000DB695B6913443B61BB697B617B68DB696E
:10B0C00059697B68DB69BA690A445A617B68DB6944
:10B0D000FA691A617B68DB691B687A68D269526811
:10B0E00007F10C01104698477B689B69DB681B0BD6
:10B0F0005BB21846FFF710FD00BF2037BD4680BD8C
:10B1000080B582B000AF03463960FB803868FFF736
:10B11000ABFF00BF0837BD4680BD80B588B000AF2B
:10B1200078607B68FB6107F015FDB861FB69DB693E
:10B130001B6A1846FFF74EFE03465B087B617B697E
:10B14000052B38BF05237B61FB69DB6993F827304A
:10B1500083F00103DBB2002B45D1FB699B695B687F
:10B160004C211846FFF7F4FCFB699B695B68D3F838
:10B170004C353B61FB691B691B68FA6979691846A4
:10B1800007F092FCFB695B691B683A699A420CD034
:10B19000FB695B693A691A60FB695B69BA695A6065
:10B1A000FB695B6901221A721EE0FB695B695B68DF
:10B1B0001946B86907F0BDFCF860FB695B691B7A4A
:10B1C000002B11D0F868FFF7A9FD0246FB69DB6987
:10B1D0001B6A9A4208D9FB695B6900221A72F869F6
:10B1E000FFF742FF00E000BF2037BD4680BD0000F2
:10B1F00090B59BB000AFF860B9607A603B60BB6807
:10B200005B7F072B07D0FB681B69002B05D0BB6851
:10B210005B7F052B01D90723D9E1FB68DB6993F834
:10B220002730002B01D00823D1E1FB68DB697A6865
:10B230001A60FB68DB6900221A61FB68DB69002287
:10B240009A61FB68DB690022DA61FB68DB69002236
:10B250005A61FB68DB690022DA60FB68DB693A68E7
:10B260005A60FB68DB69BA6812691A62FB68DB69BD
:10B27000002283F82620BB681A7DFB68DB69012A5F
:10B280000CBF01220022D2B283F8252000233B66A6
:10B290000023FB650023BB6500237B65FB689B687F
:10B2A000002B4CD09C4A07F1180392E80300186069
:10B2B00004331980BB685B7F1846FFF71FFD034608
:10B2C000BB7600233B83FB689868FB681A6A07F12A
:10B2D00018031946FEF7DAFFF864FB6C002B01D067
:10B2E000032374E1FB689868BB681B695A09012352
:10B2F0000021FFF72DF8F864FB6C002B01D003232D
:10B3000065E1FB689B6800211846FFF7C3FC3866BF
:10B31000FB689B6808211846FFF7BCFCF865FB68D2
:10B320009B6804211846FFF7B5FCB865FB689B686D
:10B330004FF4A0711846FFF7BFFC786584E0FB6806
:10B34000DB68002B47D000233B7400237B74002371
:10B35000BB740623FB7400237B6104233B74FB68EE
:10B360007B61BB685B7F1846FFF7C8FC0346FB7434
:10B37000FB68DB6807F11001684A1846FFF762FABC
:10B38000F864FB6C002B01D0032320E1FB68D86834
:10B39000BB681A6901230021FFF7EEFAFB68DB683E
:10B3A00000211846FFF712FC3866FB68DB680C21A9
:10B3B0001846FFF70BFCF865FB68DB6810211846A0
:10B3C000FFF704FCB865FB68DB6800211846FFF74F
:10B3D0000FFC786538E0FB681B69002B27D0FB6801
:10B3E000DB6993F8243083F00103DBB2002B11D02A
:10B3F000FB681B694A4A0021184607F033FBF864D2
:10B40000FB6C002B01D0FB6CE1E0FB68DB690122E7
:10B4100083F82420FB685B6900221A72FB685B6971
:10B4200000221A60FB685B6900225A600CE000236E
:10B430003B653B6D002B05D13A4A4FF4F271002079
:10B4400006F0D8FC0323C2E0FB681B69002B6BD11C
:10B4500000237B6610E0FB68DA697B6E08331344D7
:10B46000184602F083FCF864FB6C002B01D0032328
:10B47000ADE07B6E01337B667B6E012BEBD9FB6805
:10B48000DB691C7AFB689B69DB684FF484711846A2
:10B49000FFF724FC03463A6E1946204602F0E4FC0E
:10B4A000F864FB6C002B01D0032390E0FB6D002BB4
:10B4B0000CD0FB68DB691B7AF96D184602F00AFDB7
:10B4C000F864FB6C002B01D0032380E0FB68DB6990
:10B4D0005B7ABA6D796D184602F0C6FCF864FB6CB5
:10B4E000002B01D0032372E0FB689B695B684C333F
:10B4F000002B19D0FB68DB695A7AFB689B695B6893
:10B500004C331946104602F0E5FCF864FB6C002B46
:10B510000AD003235BE000BF381A040001B1020027
:10B520001BB10200F0190400BB685B683B62BB689A
:10B530001B687B62BB689B68BB62BB68DB68FB62A5
:10B54000FB689B69DB684FF488711846FFF7C6FB00
:10B5500003463B6300237B630023BB630023FB6341
:10B56000BB681B7D87F84030BB685B7D87F8413046
:10B57000BB689B697B64BB685B7F87F84830BB68AE
:10B580001B7F87F84930FB68986907F12001FB6849
:10B59000114A00F015FFF864FB6C002B01D0FB6C26
:10B5A00015E0FB681B68184608F044FAF864FB6C69
:10B5B000002B01D0FB6C0AE0FB685B68184609F0C1
:10B5C00085FAFB68DB69012283F82720FB6C1846AB
:10B5D0006C37BD4690BD00BF71AE020080B58AB029
:10B5E00000AF78607B681B68184608F04FFA7862F5
:10B5F0007B68DB69DA680132DA607B6A002B0AD18A
:10B6000000233B623B6A002B05D1434A4FF415717E
:10B61000002006F0EFFB7B689B68002B05D07B6861
:10B620009B681846FFF728FB08E07B68DB68002B67
:10B6300004D07B68DB681846FFF790F97B681B69CC
:10B64000002B2DD17B68DB691B7A184602F061FC68
:10B65000F861FB69002B0CBF01230023DBB2BB6147
:10B66000BB69002B05D12C4A40F26521002006F071
:10B67000C1FB7B68DB695B7A184602F04AFCF86123
:10B68000FB69002B0CBF01230023DBB27B617B69CC
:10B69000002B05D1204A40F26721002006F0AAFBCA
:10B6A0007B68DB697A6A9A617B6898697B685A6A09
:10B6B0000023796A01F03AF838613B69002B0CBF2E
:10B6C00001230023DBB2FB60FB68002B05D1124A8B
:10B6D0004FF41B71002006F08DFB7B681B69002B6B
:10B6E00015D07B68DB691B6A1846FFF773FB0346BE
:10B6F0005B08BB60BB68052B38BF0523BB607B685C
:10B700001B691B687A68B968184607F0CDF900BF55
:10B710002837BD4680BD00BFF019040080B584B055
:10B7200000AFF860B9607A60FB689B697A68B968B5
:10B73000184600F075FF034618461037BD4680BD19
:10B7400080B588B000AFF860B9607A60FB68DB69EB
:10B75000D969FB68DB697A680A44DA61FB68DB69EE
:10B76000DA69FB685B6A9A4237D1FB68DB69DB699F
:10B770007A68D31ABA681344BB60FB68DB6900229D
:10B78000DA61FB681B68B968184608F0B9F9FB680C
:10B79000DB69DA68013ADA60FB68DB69DB68002B99
:10B7A0000ADA0023FB61FB69002B05D1164A4FF42E
:10B7B0002271002006F01EFBFB68DB6993F826303F
:10B7C000002B1CD0F868FFF723FB0346FB76FB68D1
:10B7D000DB69002283F8262011E0FB68DB69DA6967
:10B7E000FB685B6A9A420AD900237B617B69002B64
:10B7F00005D1054A40F29621002006F0FBFA00BF71
:10B800002037BD4680BD00BFF019040080B483B06E
:10B8100000AF0346FB7197F90730002B0BDBFB7978
:10B8200003F01F02074997F907305B09012000FA6E
:10B8300002F241F8232000BF0C37BD465DF8047BBF
:10B84000704700BF00E100E080B483B000AF034662
:10B85000FB7197F90730002B0CDBFB7903F01F021B
:10B86000074997F907305B09012000FA02F26033BB
:10B8700041F8232000BF0C37BD465DF8047B7047BC
:10B8800000E100E080B483B000AF03463960FB7193
:10B8900097F90730002B0ADB3B68DAB20C4997F9BD
:10B8A00007305201D2B20B4483F800230AE03B6810
:10B8B000DAB20849FB7903F00F03043B5201D2B21C
:10B8C0000B441A7600BF0C37BD465DF8047B704709
:10B8D00000E100E000ED00E080B483B000AF7860EC
:10B8E0007B681B0B5BB218460C37BD465DF8047BCA
:10B8F000704780B485B000AF78600B467B807B8852
:10B900007A68134400221A607B887A6813441B68A3
:10B91000FB60FB6800BF1437BD465DF8047B7047D1
:10B9200080B483B000AF78600B467B807B887A68F8
:10B9300013441B68002B14BF01230023DBB21846FD
:10B940000C37BD465DF8047B704780B483B000AF10
:10B9500078600B467B807B887A68134418460C37E6
:10B96000BD465DF8047B704780B483B000AF78605B
:10B9700039607B683A68C3F8042300BF0C37BD46C2
:10B980005DF8047B704780B485B000AF78607B6859
:10B99000D3F88034FB607B68FA68C3F88024FB68C6
:10B9A00018461437BD465DF8047B704780B483B0F9
:10B9B00000AF78607B680822C3F8002500BF0C3711
:10B9C000BD465DF8047B704780B485B000AFF86079
:10B9D000B9607A60FB68BA68C3F80C25FB687A68BE
:10B9E000C3F8142500BF1437BD465DF8047B7047CB
:10B9F00080B485B000AFF860B9607A60FB68BA685F
:10BA0000C3F80825FB687A68C3F8102500BF14370F
:10BA1000BD465DF8047B704780B483B000AF7860AA
:10BA20000B46FB70FB787A68134401221A6000BF52
:10BA30000C37BD465DF8047B704780B483B000AF1F
:10BA400078600B46FB70FA787B68134418460C3715
:10BA5000BD465DF8047B704780B483B000AF78606A
:10BA60000B46FB701346BB70FA78BB781343DBB20E
:10BA70001A467B68C3F86C2500BF0C37BD465DF8DD
:10BA8000047B704780B483B000AF786039607B6816
:10BA90003A68C3F8242500BF0C37BD465DF8047B27
:10BAA000704780B485B000AFF860B9607A60BA685A
:10BAB000FB68C3F84425FB687A68C3F8482500BFD3
:10BAC0001437BD465DF8047B704780B483B000AF87
:10BAD00078607B68D3F84C3518460C37BD465DF866
