:020000022000DC
:1060000000000120CDE80200F5E80200F7E80200F8
:10601000F9E80200FBE80200FDE8020000000000D1
:10602000000000000000000000000000FFE8020087
:1060300001E902000000000003E9020005E9020096
:106040007143030055D50200CD53030007E9020058
:1060500007E9020007E90200D552030007E9020040
:10606000799202009592020007E90200718D020008
:1060700007E9020007E9020007E9020007E9020058
:1060800007E902008118030007E9020007E902009E
:1060900007E9020007E90200959A0300D5DC020037
:1060A00007E9020007E9020007E9020007E9020028
:1060B00007E9020007E902000000000000000000FC
:1060C00007E9020007E9020007E9020007E9020008
:1060D000898D020007E9020007E9020000000000C4
:1060E00000000000000000000000000000000000B0
:1060F00000000000000000000000000000000000A0
:10610000000000000000000000000000000000008F
:10611000000000000000000000000000000000007F
:10612000000000000000000000000000000000006F
:10613000000000000000000000000000000000005F
:10614000000000000000000000000000000000004F
:10615000000000000000000000000000000000003F
:10616000000000000000000000000000000000002F
:10617000000000000000000000000000000000001F
:10618000000000000000000000000000000000000F
:1061900000000000000000000000000000000000FF
:1061A00000000000000000000000000000000000EF
:1061B00000000000000000000000000000000000DF
:1061C00000000000000000000000000000000000CF
:1061D00000000000000000000000000000000000BF
:1061E00000000000000000000000000000000000AF
:1061F000000000000000000000000000000000009F
:1062000010B5054C237833B9044B13B10448AFF3F0
:1062100000800123237010BDD09B002000000000EF
:106220002402040008B5034B1BB103490348AFF334
:10623000008008BD00000000D49B00202402040060
:10624000A3F5803A704700BF174B002B08BF134BD4
:106250009D46FFF7F5FF00218B460F461348144A71
:10626000121A13F0F3FE0E4B002B00D098470D4B83
:10627000002B00D098470020002104000D000D489D
:10628000002802D00C48AFF3008013F09DFE2000E0
:10629000290010F05FFB13F083FE00BF0000080030
:1062A000000000000000000000000120D09B002042
:1062B000C0DA0020000000000000000075DF704719
:1062C00000BF184676DF704700BF18467FDF704773
:1062D00000BF18468FDF704700BF184680B483B0F8
:1062E00000AF78604FF0A04318460C37BD465DF80C
:1062F000047B704780B584B000AF78603B1D1846C2
:10630000FFF7ECFFF8607B68012202FA03F31946FD
:10631000F86800F019F800BF1037BD4680BD80B5A1
:1063200084B000AF78603B1D1846FFF7D7FFF860D8
:106330007B68012202FA03F31946F86800F013F8AB
:1063400000BF1037BD4680BD80B483B000AF786019
:1063500039607B683A68C3F8082500BF0C37BD4632
:106360005DF8047B704780B483B000AF786039601B
:106370007B683A68C3F80C2500BF0C37BD465DF852
:10638000047B704780B582B000AF0AF0B1FC786042
:106390007B683B603B68002B04D0044A7621386858
:1063A00009F0ACFE00BF0837BD4680BD44DC0300E9
:1063B00080B582B000AF7860044AA821786809F0FF
:1063C0009DFE00BF0837BD4680BD00BF44DC030012
:1063D00080B584B000AF104812F00EFFF860FB6883
:1063E000BB60BB68002B04D00C4AB121B86809F02F
:1063F00085FE012010F0A4F8F860FB687B607B68E4
:10640000002B04D0054AB421786809F077FE00BF5C
:106410001037BD4680BD00BF58AD002044DC0300EE
:10642000F0B58BB004AF78607B681B78062B5ED824
:1064300001A252F823F000BF55640200EF6402008D
:10644000EF640200EF640200D36402006D64020096
:1064500089640200294A2A4BD31ADB081B0443F043
:1064600003032849184608F0BFFE43E07B685B68D9
:106470003B613B69FB60FB68002B3AD0224AC82194
:10648000F86809F03BFE34E07B685B687B611B4A7F
:106490001B4BD31ADB081B0443F003007B695B78BA
:1064A0001D467B699B781E467B69DB781A467B69B3
:1064B0001B7919467B695B791C467B699B79039341
:1064C00002940191009233462A46104908F0F8FEE2
:1064D00010E00A4A0A4BD31ADB081B0443F00303FB
:1064E0000B49184608F080FEFFF772FF02E000BF7C
:1064F00000E000BF00BF1C37BD46F0BD7C020400B9
:106500003C02040080DC030044DC030090DC030058
:10651000C0DC030080B58AB000AF3B1D1022002113
:10652000184613F093FD01233B7201233B743B1D7E
:10653000204A1946204812F0FFFD38623B6AFB6191
:10654000FB69002B04D01D4AF421F86909F0D6FD3F
:1065500000237B6216E01A4A7B6A52F823301A46FF
:106560000021154812F00DFC38623B6A7B617B69A3
:10657000002B04D0114AF921786909F0BFFD7B6A2C
:1065800001337B627B6A032BE5DD012201210A488E
:1065900012F023FC38623B6ABB61BB69002B04D05C
:1065A000064AFE21B86909F0A9FD00BF2837BD469B
:1065B00080BD00BF2164020058AD002044DC030010
:1065C000D88F002080B582B000AF78607B685B8890
:1065D0001A4613465B001344DB000B4A13447968E8
:1065E000184612F0C5FE7B685B881A46342302FB0E
:1065F00003F3064A13447968184606F00BF900BF06
:106600000837BD4680BD00BFFCAB00205CAC00205D
:1066100080B586B000AF78603960304A304BD31A0D
:10662000DB081B0443F003032E49184608F0DCFD89
:106630003B681B78022B3FD0022B4BDC002B01D098
:10664000012B47E0254A264BD31ADB081B0443F0F5
:1066500003032549184608F0C7FD3B6859883B6885
:106660000E331A46786813F007F878617B693B614E
:106670003B69002B05D01D4A40F22911386909F009
:106680003DFD786812F0DAFF78617B69FB60FB689A
:10669000002B05D0154A4FF49671F86809F02EFDCD
:1066A0000E4A0F4BD31ADB081B0443F003031049B7
:1066B000184608F099FD0DE0084A094BD31ADB088B
:1066C0001B0443F003030B49184608F08DFDFFF748
:1066D0007FFE00BF00BF1837BD4680BD7C020400AE
:1066E0003C020400D0DC0300E8DC030044DC0300CF
:1066F000FCDC03002CDD030080B5AAB000AF78609D
:1067000039607B680433C7F898307B681B88103B7E
:10671000462B00F2E98101A252F823F03968020009
:1067200079690200E96A0200DF690200E96A020091
:10673000E96A0200E96A0200E96A0200E96A020005
:10674000E96A0200E96A0200BB690200E96A020024
:10675000E96A0200E96A0200116A0200E96A0200BD
:10676000496A0200E96A0200E96A0200E96A020075
:10677000E96A0200E96A0200E96A0200E96A0200C5
:10678000E96A0200E96A0200E96A0200E96A0200B5
:10679000E96A0200E96A0200E96A0200E96A0200A5
:1067A000E96A0200E96A0200E96A0200E96A020095
:1067B000E96A0200E96A0200E96A0200E96A020085
:1067C000E96A0200E96A0200896A0200E96A0200D5
:1067D000E96A0200E96A0200E96A0200E96A020065
:1067E000E96A0200E96A0200E96A0200E96A020055
:1067F000E96A0200E96A0200E96A0200E96A020045
:10680000E96A0200E96A0200E96A0200E96A020034
:10681000E96A0200E96A0200E96A0200E96A020024
:10682000E96A0200E96A0200E96A0200E96A020014
:10683000E96A0200B96A02007B689B881A4613461F
:106840005B001344DB00B14A98187B689B880022E8
:10685000194612F011FFC7F8A000D7F8A030C7F80A
:106860008830D7F88830002B06D0A94A4FF4AE7193
:10687000D7F8880009F042FCD7F898301B881A46F0
:10688000342302FB03F3A34A9818D7F898301B88E7
:106890000022194606F0F2FAC7F8A000D7F8A03097
:1068A000C7F88430D7F88430002B06D0984A4FF4CC
:1068B000B071D7F8840009F021FC06F003FD03460F
:1068C000032B01D8FFF784FD07200FF039FEC7F82E
:1068D000A000D7F8A030C7F88030D7F88030002B60
:1068E00006D08B4A40F26B11D7F8800009F006FC05
:1068F0004FF413620021884813F0A8FB7B689B8843
:106900001946854811F068F9C7F8A000D7F8A030FB
:10691000FB67FB6F002B05D07D4A4FF4B871F86F11
:1069200009F0ECFB7D4B1B88A7F874307B689B88D3
:1069300007F1740211461846FFF7CCFCC7F8A00017
:10694000D7F8A030BB67BB6F002B05D0704A4FF45F
:10695000BD71B86F09F0D2FBD7F898301B881A4682
:1069600007F10C036E49184613F0E2FF07F10C0320
:10697000184601F0B9FCC4E0D7F898301B881A46D5
:1069800007F10C036749184613F0D2FF07F10C0317
:10699000184601F0A9FC644A644BD31ADB081B04B7
:1069A00043F00300D7F898301B881A46D7F8983080
:1069B0001B795F4908F03AFCA3E0D7F898301B79BF
:1069C000022B40F09380584A584BD31ADB081B0423
:1069D00043F003035749184608F006FC86E07B683D
:1069E0009888002300228521FFF770FCC7F8A000DB
:1069F000D7F8A030C7F88C30D7F88C30002B77D080
:106A0000434A4FF4CF71D7F88C0009F077FB6FE061
:106A1000D7F898301A88D7F89830043319461046BA
:106A2000FFF74CFCC7F8A000D7F8A030C7F89030AB
:106A3000D7F89030002B5DD0354A40F2A511D7F839
:106A4000900009F05BFB55E0002387F870300023CD
:106A500087F871307B689B8807F1700211461846F1
:106A6000FFF738FCC7F8A000D7F8A030C7F894307B
:106A7000D7F89430002B3FD0254A40F2B111D7F817
:106A8000940009F03BFB37E07B689B881321184694
:106A9000FFF718FCC7F8A000D7F8A030C7F89C3063
:106AA000D7F89C30002B29D0194A4FF4DD71D7F864
:106AB0009C0009F023FB21E07B689B88132118468A
:106AC000FFF700FCC7F8A000D7F8A030C7F8A43043
:106AD000D7F8A430002B13D00D4A4FF4E171D7F84A
:106AE000A40009F00BFB0BE000BF0AE000BF08E0C8
:106AF00000BF06E000BF04E000BF02E000BF00E00E
:106B000000BF00BFA837BD4680BD00BFFCAB002062
:106B100044DC03005CAC0020E88F0020B0DD030003
:106B20003CDD03004CDD03007C0204003C02040059
:106B300060DD030090DD030080B586B000AF12F089
:106B400023FF78617B693B613B69002B05D0164AC6
:106B500040F2D911386909F0D1FA00237B603B1D5E
:106B60001946012012F0CAFF78617B69FB60FB685F
:106B7000002B05D00C4A40F2DF11F86809F0BEFA8C
:106B80003B1D184613F0EAF878617B69BB60BB686F
:106B9000002B05D0044A40F2E311B86809F0AEFAC0
:106BA00000BF1837BD4680BD44DC030080B582B00D
:106BB00000AF786039603B681B8840F677229342CB
:106BC0001FD1124A124BD31ADB081B0443F00303F4
:106BD0001049184608F008FB3B689B88033B9AB2B3
:106BE0000D4B1A80094A0A4BD31ADB081B0443F0E9
:106BF0000300094B1B881A46074B1B88074908F0FE
:106C000015FB00BF0837BD4680BD00BF7C020400F5
:106C10003C020400B4DD030034990020D0DD030001
:106C200080B584B000AF1249124811F074FAF860D0
:106C3000FB68BB60BB68002B05D00F4A40F2FB111C
:106C4000B86809F05BFAF7210A4811F090FAF86089
:106C5000FB687B607B68002B05D0074A4FF4FF710F
:106C6000786809F04BFA00BF1037BD4680BD00BF01
:106C7000AD6B02002CAD002044DC030080B584B075
:106C800000AF3B4608220021184613F0DFF90C4BF9
:106C90003B600C4B7B603B46184610F0D5FEF8601D
:106CA000FB68BB60BB68002B05D0074A40F2262179
:106CB000B86809F023FA00BF1037BD4680BD00BF99
:106CC000C56502002099002044DC030090B585B022
:106CD00000AF786039603A6879681B4809F0C6FBF4
:106CE000F8601A4A1A4BD31ADB081B0443F003045A
:106CF000154804F0BDFC03461A461649204608F024
:106D000082FAFB68042B0AD1104A114BD31ADB0814
:106D10001B0443F003031049184608F065FAFB68AA
:106D2000002B02D10D4800F009FCFB68BB60BB687A
:106D3000002B05D00A4A40F26521B86809F0DEF957
:106D400000BF1437BD4690BDEC9B00207C020400C0
:106D50003C02040034DE030044DE030099750200A7
:106D600044DC030080B582B000AF78607B685B884C
:106D7000002B12D12D4B1B6A01332C4A13622C4A73
:106D80002C4BD31ADB081B0443F00303274A126A77
:106D90002949184608F037FA43E07B685B88012BE5
:106DA00012D1224B5B6A0133204A5362204A214BA5
:106DB000D31ADB081B0443F003031C4A526A1F4921
:106DC000184608F020FA2CE07B685B88022B12D171
:106DD000164B9B6A0133154A9362154A154BD31A19
:106DE000DB081B0443F00303104A926A1449184657
:106DF00008F009FA15E07B685B88032B11D10B4B77
:106E0000DB6A0133094AD362094A0A4BD31ADB0809
:106E10001B0443F00303054AD26A0A49184608F0E6
:106E2000F2F900BF0837BD4680BD00BF888F002043
:106E30007C0204003C02040064DE030080DE0300E8
:106E40009CDE0300B8DE030080B59AB002AF786024
:106E500039600B20FFF74EFA3868FFF783FF3B6875
:106E60001B78013B072B00F2AD8101A252F823F001
:106E7000916E0200C5710200C5710200E17102004D
:106E8000A36E0200C5710200FF6F0200756F020061
:106E90003968786800F02EFA3968786800F058FA96
:106EA0009FE1002387F85F305FE03C237B657A6DCC
:106EB00007F108030021184613F0C8F83B685B8807
:106EC000A7F8403001237B7297F85F303A681B01C6
:106ED000134404331B6807EE903AB8EEE77ADFED0F
:106EE000C46AC7EE267AC7ED0C7A97F85F303A6825
:106EF0001B01134408331B6807EE903AB8EEE77A9B
:106F0000DFEDBB6AC7EE267AC7ED0D7A97F85F30E2
:106F10003A681B0113440C331B6807EE903AB8EE35
:106F2000E77ADFEDB36AC7EE267AC7ED0E7A97F8F7
:106F30005F303A681B01134410331B6807EE903A28
:106F4000B8EEE77ADFEDAA6AC7EE267AC7ED0F7AC8
:106F500007F1540207F1080311461846FFF7B6FE81
:106F600097F85F30013387F85F3097F85F30042B74
:106F70009BD936E10C23BB653B68DB6807EE903A92
:106F8000B8EEE77ADFED9B6AC7EE267AC7ED127A94
:106F90003B689B6807EE903AB8EEE77ADFED956ABA
:106FA000C7EE267AC7ED137A3B685B6807EE903A26
:106FB000B8EEE77ADFED8F6AC7EE267AC7ED147A6E
:106FC0008D4A8E4BD31ADB081B0443F00300D7ED28
:106FD000127AFDEEE77A17EE902AD7ED137AFDEEDE
:106FE000E77A17EE901AD7ED147AFDEEE77A17EEEE
:106FF000903A00930B46824908F02EF9F1E0002305
:1070000087F85E30D8E03C237B647A6C07F1080394
:107010000021184613F01AF83B685B88A7F8403047
:1070200001233B7297F85E2039681346DB00134456
:107030005B000B440A33B3F9003007EE903AB8EE28
:10704000E77ADFED706AC7EE267AC7ED037A97F824
:107050005E2039681346DB0013445B000B440C339D
:10706000B3F9003007EE903AB8EEE77ADFED656AE3
:10707000C7EE267AC7ED047A97F85E203968134682
:10708000DB0013445B000B440E33B3F9003007EE12
:10709000903AB8EEE77ADFED5B6AC7EE267AC7ED85
:1070A000057A97F85E2039681346DB0013445B00CD
:1070B0000B440433B3F9003007EE903AB8EEE77AA8
:1070C000DFED516AC7EE267AC7ED067A97F85E20A3
:1070D00039681346DB0013445B000B440633B3F9F5
:1070E000003007EE903AB8EEE77ADFED476AC7EE78
:1070F000267AC7ED077A97F85E2039681346DB00D9
:1071000013445B000B440833B3F9003007EE903AA8
:10711000B8EEE77ADFED3C6AC7EE267AC7ED087A6B
:1071200097F85E2039681346DB0013445B000B447C
:107130001033B3F9003007EE903AB8EEE77AF3EE89
:10714000006AC7EE267AC7ED097A97F85E2039689B
:107150001346DB0013445B000B441233B3F90030D9
:1071600007EE903AB8EEE77AF3EE006AC7EE267AB9
:10717000C7ED0A7A97F85E2039681346DB0013449E
:107180005B000B441433B3F9003007EE903AB8EECD
:10719000E77AF3EE006AC7EE267AC7ED0B7A07F1BD
:1071A000440207F1080311461846FFF78FFD97F8D0
:1071B0005E30013387F85E3097F85E30042B7FF63F
:1071C00022AF0EE00C4A0D4BD31ADB081B0443F030
:1071D00003003B681B781A460C4908F014F800E0DD
:1071E00000BF0B20FFF79BF800BF6037BD4680BD96
:1071F0000000804E000080477C0204003C02040036
:10720000D4DE03000000004200008044E8DE0300FA
:1072100080B584B000AF134B3B600023FB6019E0E6
:10722000FB68342202FB03F30F4A13443A4611462B
:10723000184605F075FCB860BB687B607B68002B66
:1072400005D00A4A40F21A31786808F057FFFB6807
:107250000133FB60FB68032BE2D900BF00BF10378E
:10726000BD4680BD496E02005CAC002044DC0300DA
:1072700080B586B000AF164B3B60164B7B60164B5B
:10728000BB6000237B611AE07A6913465B001344FC
:10729000DB00124A13443A461146184612F0FAF837
:1072A00038613B69FB60FB68002B05D00C4A40F25B
:1072B0002F31F86808F022FF7B6901337B617B691D
:1072C000032BE1DD00BF00BF1837BD4680BD00BF06
:1072D00011660200B163020020990020FCAB00207F
:1072E00044DC030080B500AFFFF7C2FFFFF790FF5B
:1072F00000BF80BD80B584B000AF786039603B6866
:107300005B881A46342302FB03F30D4A98183B6846
:1073100059883B6804331A4605F0B0FDF860094A05
:10732000094BD31ADB081B0443F003003B685B885E
:107330001A46064907F067FF00BF1037BD4680BDFB
:107340005CAC00207C0204003C02040010DF03005F
:1073500080B588B000AF786039603B685B881A46BA
:10736000342302FB03F32D4A1344184605F0D6FCE0
:10737000F861FB69BB61BB69002B05D0284A40F26C
:107380005131B86908F0BAFE3B685B881A4634236D
:1073900002FB03F3214A1344184605F0DDFCF861B3
:1073A000FB697B617B69002B05D01D4A40F253319C
:1073B000786908F0A3FE3B685B881A46342302FB19
:1073C00003F3164A1344184605F0E4FCF861FB6920
:1073D0003B613B69002B05D0114A40F255313869B9
:1073E00008F08CFE3B685B881A46342302FB03F3EB
:1073F0000A4A1344184605F0EBFCF861FB69FB6090
:10740000FB68002B05D0064A40F25731F86808F0B7
:1074100075FE00BF2037BD4680BD00BF5CAC0020BC
:1074200044DC030084B080B582B000AF07F1100CDB
:107430008CE80F000023FB711AE0FB79342202FB79
:1074400003F3114A134407F11001184605F0DEFC5E
:1074500038600E4A0E4BD31ADB081B0443F00303BB
:107460003A680C49184607F0CEFEFB790133FB71F0
:10747000FB79032BE1D900BF00BF0837BD46BDE84B
:10748000804004B0704700BF5CAC00207C02040068
:107490003C02040064DC030080B584B000AF00232C
:1074A000FB601EE01349FA6813465B001344DB00DF
:1074B0000B4402331B8813211846FEF703FFB86004
:1074C000BB68082B0AD0BB687B607B68002B05D0AB
:1074D000094A40F27731786808F010FEFB68013302
:1074E000FB60FB68032BDDDD00BF00BF1037BD462E
:1074F00080BD00BFFCAB002044DC030080B582B03F
:1075000000AF4FF480520A490A4808F012FF786031
:107510007B683B603B68002B05D0074A40F2863110
:10752000386808F0EBFD00BF0837BD4680BD00BFDE
:10753000FC9B0020EC9B002044DC030080B584B061
:1075400000AF7860114B5B6C002B05D00F4B5B6C70
:1075500001330E4A536415E00C4B5B6C01330B4A4C
:1075600053640B4A0021002009F066F8F860FB68BC
:10757000BB60BB68002B05D0064A40F29931B86861
:1075800008F0BCFD00BF1037BD4680BD888F0020CD
:107590009975020044DC03002DE9F04FADF2DC4D9B
:1075A00012AF07F59263A3F2644318600A4607F529
:1075B0009263A3F266431A8007E1002387F88F34B1
:1075C0003C23C7F884341023C7F8883407F2844278
:1075D00007F134031946834808F007FF0346002BE0
:1075E00040F0DF80804A814BD31ADB081B0443F054
:1075F00003047C4804F03CF803461A467C492046C4
:1076000007F001FE07F59263A3F25C435B78002B61
:1076100035D007F59263A3F25C439B6A184615F0D8
:107620004FFE82468B4607F59263A3F25C43DB6A0A
:10763000184615F045FE04460D4607F59263A3F281
:107640005C431B6B184615F03BFE8046894607F5E8
:107650009263A3F25C435B6B184615F031FE024661
:107660000B4607F17000CDE90423CDE90289CDE98D
:10767000004552465B465F4913F05AF989E007F529
:107680009263A3F25C431B78002B00F0828007F525
:107690009263A3F25C431B8F1E4607F59263A3F22D
:1076A0005C435B68184615F00BFEC7E9080107F557
:1076B0009263A3F25C439B68184615F001FEC7E98C
:1076C000060107F59263A3F25C43DB68184615F0E8
:1076D000F7FDC7E9040107F59263A3F25C431B6958
:1076E000184615F0EDFDC7E9020107F59263A3F214
:1076F0005C435B69184615F0E3FDC7E9000107F537
:107700009263A3F25C439B69184615F0D9FD82464B
:107710008B4607F59263A3F25C43DB69184615F0CC
:10772000CFFD8046894607F59263A3F25C431B6A4E
:10773000184615F0C5FD04460D4607F59263A3F201
:107740005C435B6A184615F0BBFD02460B4607F129
:107750007000CDE91023CDE90E45CDE90C89CDE9C6
:107760000AAB97ED007B8DED087B97ED027B8DEDED
:10777000067B97ED047B8DED047B97ED067B8DED0D
:10778000027B97ED087B8DED007B32461A4913F0A2
:10779000CFF8012387F88F34184B5B6C013B174AF5
:1077A000536497F88F34002B0FD007F170031846FD
:1077B00003F029FF0346C7F8703407F58E6207F11E
:1077C00070031146184600F0D7FF0C4B5B6C002B82
:1077D0007FF4F3AE00BF00BF07F29447BD46BDE89B
:1077E000F08F00BFEC9B00207C0204003C020400F0
:1077F0004CDF03005CDF030078DF0300888F00208C
:1078000080B582B000AF354800F06EFD344800F01E
:107810006BFD344B1B78002B02D0334800F064FD25
:10782000304B5B78002B02D0304800F05DFD2D4BD3
:107830009B78002B02D02E4800F056FD294B5B7937
:10784000002B02D02B4800F04FFD264BDB78002B9D
:1078500002D0294800F048FD224B1B79002B02D0B2
:10786000264800F041FD1F4B9B69002B19D024488E
:1078700000F03AFD1B4B9A693B462249184613F02B
:1078800057F8214A214BD31ADB081B0443F00303AA
:107890003A461F49184607F0B6FC3B46184600F02A
:1078A00023FD104B93F84C30002B02D0194800F008
:1078B0001BFD0C4B1B7A002B02D0174800F014FD67
:1078C000084B9B79002B02D0144800F00DFD0348B3
:1078D00000F00AFD00BF0837BD4680BDC0DF0300D1
:1078E000ECDF0300888F002000E003001CE00300B1
:1078F0003CE0030058E0030074E0030098E003005C
:10790000BCE00300D8E003007C0204003C02040059
:10791000E0E00300ECE0030000E1030020E10300ED
:1079200080B5A6B000AF07F16403184605F0E2FC8D
:107930000023C7F894301BE0D7F894305B0007F1C0
:107940009802134433F8303CA7F89230D7F89430BB
:107950005A1CB7F8923038460A4912F0E9FF3B4604
:10796000184600F0C1FCD7F894300133C7F89430C2
:107970007B6ED7F894209A42DED300BF00BF9837C1
:10798000BD4680BD34E1030080B483B000AF034640
:10799000FB71044AFB79137200BF0C37BD465DF8DA
:1079A000047B7047888F002080B483B000AF03460B
:1079B000FB71054AFB7982F84C3000BF0C37BD469D
:1079C0005DF8047B704700BF888F002080B483B0CF
:1079D00000AF0346FB71044AFB79137000BF0C37FC
:1079E000BD465DF8047B7047888F002080B483B06B
:1079F00000AF0346FB71044AFB79537000BF0C379C
:107A0000BD465DF8047B7047888F002080B483B04A
:107A100000AF0346FB71044AFB79937000BF0C373B
:107A2000BD465DF8047B7047888F002080B483B02A
:107A300000AF0346FB71044AFB79D37000BF0C37DB
:107A4000BD465DF8047B7047888F002080B483B00A
:107A500000AF0346FB71044AFB79137100BF0C377A
:107A6000BD465DF8047B7047888F002080B483B0EA
:107A700000AF0346FB71044AFB79937100BF0C37DA
:107A8000BD465DF8047B7047888F002080B483B0CA
:107A900000AF7860044A7B68936100BF0C37BD4635
:107AA0005DF8047B704700BF888F002080B400AF72
:107AB000134B00221A70124B00225A70104B0022F6
:107AC0009A700F4B0022DA700D4B00221A710C4B8A
:107AD00000225A710A4B00229A61094B00221A7245
:107AE000074B0022DA71064B002283F84C20044B2E
:107AF00000229A7100BFBD465DF8047B704700BF4D
:107B0000888F00202DE9B04F98B004AF834B1B78CD
:107B100087F83030814B5B7887F831307F4B9B782A
:107B200087F832307D4B5B7987F833307B4BDB78DD
:107B300087F83430794B1B7987F83530774B9B6960
:107B40009BB2FB86754B9B7987F83830734B1B7A59
:107B500087F83930714BDB7987F848306F4B93F8F1
:107B60004C3087F8493006F043FE02460B466B491D
:107B7000C1E90423694BD3E9042312F1080443F15A
:107B800000054FF47A524FF000032046294615F0C5
:107B9000C7FE02460B4612F5FA61B96243F10003D3
:107BA000FB625E4BD7E90A12C3E904125B4BD3E9CF
:107BB000044522462B464FF000004FF000015901CA
:107BC00041EAD261500102460B46B2EB040863EB76
:107BD00005094FF000024FF000034FEA890343EA22
:107BE00098734FEA88029046994618EB04033B616C
:107BF00049EB05037B614FF000024FF00003D7E92A
:107C000004452946CB00214643EA51732146CA0068
:107C100012F5FA71396243F100037B62404A4FF07A
:107C20000003D7E9080115F07BFE02460B4610461B
:107C3000194602460B469418BC605B41FB60D7E9CD
:107C4000022312EB000A43EB010B4FF000024FF04E
:107C500000034FEA4B1343EADA634FEA4A121AEB86
:107C600002043C604BEB03037B60D7E900452346ED
:107C70001B18BB612B4641EB0303FB61274BD7E984
:107C80000612C3E90412254BD3E90423C7E91023E4
:107C9000244A254BD31ADB081B0443F003001F4B77
:107CA000D3E9042313461A46204907F0ACFA1D4ACB
:107CB0001D4BD31ADB081B0443F0030397F849203C
:107CC0001B49184607F09FFA164A174BD31ADB08D0
:107CD0001B0443F0030397F838201649184607F0B1
:107CE00092FA104A104BD31ADB081B0443F003032B
:107CF0000A4A92791049184607F085FA6C4607F14E
:107D000040030FCB84E80F0007F130030FCBFFF7E0
:107D100089FB00BF5037BD46BDE8B08F888F00207B
:107D2000A08601007C0204003C02040058E103002C
:107D30006CE1030084E103009CE1030080B584B0A2
:107D400000AF78607B689BB213211846FEF7BAFA41
:107D5000F860FB6843F2020293420AD1164A174BBD
:107D6000D31ADB081B0443F003031549184607F038
:107D70003BFAFB68082B0FD0FB6843F202029342E8
:107D80000AD0FB68BB60BB68002B05D00D4A40F2EF
:107D90008541B86808F0B2F9074A084BD31ADB08E6
:107DA0001B0443F003030849184607F01DFAFB685B
:107DB00018461037BD4680BD7C0204003C0204001A
:107DC000B0E1030044DC0300D0E1030080B483B0E1
:107DD00000AF0346FB71FB7903F1804303F5C04319
:107DE0001A460123136000BF0C37BD465DF8047BC3
:107DF000704780B483B000AF0346FB71FB7903F199
:107E0000804303F5C04318460C37BD465DF8047B3C
:107E10007047000080B485B000AF78600A4A7B6884
:107E200003F5A27352F8233043F00303FB600649C5
:107E30007B6803F5A273FA6841F8232000BF14376A
:107E4000BD465DF8047B70470060004080B485B09B
:107E500000AFF860B96011461A460B46FB71134635
:107E6000BB71184AFB6803F5A27352F82330154919
:107E700023F4981323F4F853FA6802F5A27241F838
:107E80002230104AFB6803F5A27352F82320BB6826
:107E90001B0203F4F851FB791B0403F4403319432C
:107EA000BB791B0503F480130B4306491A43FB6897
:107EB00003F5A27341F8232000BF1437BD465DF8D7
:107EC000047B704700600040B0B586B000AF284B1F
:107ED0001B78002B47D106F08BFCC7E90401D7E9DA
:107EE000042312F1080443F100054FF47A524FF0D5
:107EF00000032046294615F013FD02460B461346A3
:107F0000FB60FB684FF47A7202FB03F303F5FA732C
:107F1000184AA2FB03239B0903F5FA63BB60BB6805
:107F2000144AA2FB03239B094FF47A7202FB03F36A
:107F3000BB600C20FFF75DFF03461946B86805F0EB
:107F400091FE78607B683B603B68002B04D00A4A56
:107F50002C21386808F0D2F86C20FFF737FF044B6B
:107F600001221A7000E000BF1837BD46B0BD00BF47
:107F7000C0B10020D34D621054E2030080B400AFC2
:107F8000034B00221A7000BFBD465DF8047B7047AA
:107F9000C0B1002080B400AF034B1B781846BD462B
:107FA0005DF8047B704700BFC0B10020B0B58AB057
:107FB00000AF78607B68002B14BF01230023DBB285
:107FC0007B627B6A002B04D1434A4821002008F0E1
:107FD00095F87B681B78022B22D0022B6CDC002BDF
:107FE00002D0012B0ED067E03C4A3D4BD31ADB0890
:107FF0001B0443F003033B49184607F0F5F8FFF76D
:1080000063FF64E0354A364BD31ADB081B0443F0A8
:1080100003033549184607F0E7F8FFF7AFFF56E0CE
:10802000FFF7B8FF0346002B2CD07B689B680A3310
:108030003B620C20FFF7DDFE03461946386A05F067
:1080400011FEF861FB69002B11D0244A244BD31A8E
:10805000DB081B0443F00303FA692449184607F0C0
:10806000D2F800BF07F05CF90346002BFAD1FB6998
:10807000BB61BB69002B08D0174A6721B86908F0BB
:108080003DF802E06C20FFF7A1FE06F0B1FBC7E966
:108090000401D7E9042312F1080443F100054FF469
:1080A0007A524FF000032046294615F039FC02466B
:1080B0000B461346FB600AE00023BB60BB68002B45
:1080C00004D1054A7521002008F018F800BF00BF50
:1080D0002837BD46B0BD00BF54E203007C02040057
:1080E0003C02040078E203008CE20300A4E20300F7
:1080F000B0B58AB000AF0023032218210320FFF798
:10810000A5FE0320FFF786FE294B07F108041D4654
:108110000FCD0FC42B68236007F10803184606F043
:1081200031FA78627B6A3B623B6A002B04D0214AB9
:108130009621386A07F0E2FF1F4A3B4692E80300A7
:108140001860043319803B46184606F079FA7862C5
:108150007B6AFB61FB69002B04D0164A9E21F869FB
:1081600007F0CCFF154A164BD31ADB081B0443F06B
:1081700003031449184607F037F8104A104BD31A76
:10818000DB081B0443F003030F49184607F02CF8E3
:108190000A4A0B4BD31ADB081B0443F003030B49B9
:1081A000184607F021F800BF2837BD46B0BD00BF14
:1081B00054E3030054E2030068E303007C0204007C
:1081C0003C020400C0E20300E4E2030018E3030001
:1081D000B0B584B000AF06F00BFBC7E90201D7E9E8
:1081E000022312F1080443F100054FF47A524FF0D4
:1081F00000032046294615F093FB02460B46134622
:108200007B607B684FF47A7202FB03F303F5FA7329
:108210000A4AA2FB03239B093B60094A094BD31A74
:10822000DB081B0443F003007B683A68064906F04C
:10823000FDFF00BF1037BD46B0BD00BFD34D62107B
:108240007C0204003C02040070E3030080B582B0AD
:1082500000AF0346FB710748074B1B6A5A0901230D
:10826000002100F083FC054801F00CFB00BF08373B
:10827000BD4680BD98E303002CB50020A0E30300B9
:1082800080B584B000AF4FF480621249124808F004
:1082900050F8F860FB68BB60BB68002B04D00F4A45
:1082A0005021B86807F02AFF4FF480720C490D483E
:1082B00008F03FF8F860FB687B607B68002B04D017
:1082C000064A5421786807F019FF00BF1037BD46F1
:1082D00080BD00BF6CB500205CB50020C8E3030082
:1082E00084BF002074BF002080B5C4B000AF07F584
:1082F0008873A3F58673186007F58873A3F58673F2
:10830000186812F047FB0346C7F80C31D7F80C2168
:1083100007F58873A3F5867307F10C00196811F04F
:1083200087FE07F5867207F10C031146184600F028
:1083300023FA00BF07F58877BD4680BD2DE9F043DD
:1083400089B002AF78600B46FB706B461E46F97829
:108350000B46013B7B61CBB20022984691464FF021
:1083600000024FF000034FEAC90343EA58734FEA93
:10837000C802CBB200221C4615464FF000024FF057
:108380000003EB0043EA5473E2000B460733DB08BB
:10839000DB00ADEB030D02AB00333B61FB781A460B
:1083A0007968386911F044FE164A174BD31ADB0876
:1083B0001B0443F003007B681B781A467B6801337B
:1083C0001B7819467B6802331B7800930B460F49D4
:1083D00006F042FF386911F0DFFD0346FB60094AF1
:1083E000094BD31ADB081B0443F00303FA6808495E
:1083F000184606F008FFFB68B54618461C37BD4610
:10840000BDE8F0837C0204003C020400E4E30300C6
:10841000F0E3030080B58AB000AF786039607B6814
:108420007B6200237B843B681B78032B00F2DF8098
:1084300001A252F823F000BF798402006B8502008C
:1084400049840200618402006B4A6C4BD31ADB083A
:108450001B0443F003036A49184606F0C5FEC7E053
:10846000654A664BD31ADB081B0443F003036549D6
:10847000184606F0B9FEBBE05F4A604BD31ADB0832
:108480001B0443F003036049184606F0ADFE3B6849
:108490009B68022B0AD9584A584BD31ADB081B0495
:1084A00043F001035949184606F09EFE3B6859689F
:1084B0003B6808331A46564807F0D8FFF861FB6955
:1084C0007B617B69002B04D0524A9921786907F0BF
:1084D00015FEFB69002B11D0474A484BD31ADB0825
:1084E0001B0443F00303FA694B49184606F08BFE60
:1084F00000BF06F015FF0346002BFAD13E4A3F4B62
:10850000D31ADB081B0443F003003B685B681B784D
:108510001A463B685B681B78404906F087FE364A7E
:10852000364BD31ADB081B0443F003033C491846BF
:1085300006F05AFE3B4B5B681A460021002008F00B
:108540007BF8F861FB693B613B69002B04D0314A41
:10855000A621386907F0D2FD3B6859683B689B68E3
:108560001A46786A01F0FAFC42E0234A234BD31AF8
:10857000DB081B0443F003032B49184606F034FEC6
:108580004FF48063FB6007F10C031A462749284823
:1085900007F02BFFF861FB69002B17D1FB68244A19
:1085A000C2F8143A224BD3F8143A1A461F4921480C
:1085B00001F0C2FCF861FB69BB61BB69002B0AD00A
:1085C000144ABE21B86907F099FD04E00523FB6158
:1085D000144B00221A70084A084BD31ADB081B04FC
:1085E00043F003031449184606F0FEFD00E000BF07
:1085F00000BF2837BD4680BD7C0204003C02040059
:10860000F4E3030014E403003CE403005CE403002F
:1086100074BF0020C8E3030064E4030098E403008F
:10862000A8E4030054B50020B4E403006CBB0020B0
:108630005CB50020A0E30300C4E4030080B58EB065
:1086400000AF7860FFF71CFE224A7B68536007F199
:108650000C0320220021184611F0F8FC0823FB60CF
:1086600006233B614FF47A73FB61012387F82030C6
:108670004FF080537B62062387F8293007F10C0105
:10868000154B164A144801F0C1F978637B6B3B63C4
:108690003B6B002B04D0124AEF21386B07F02EFD04
:1086A0000D4801F0A9FB0F4B1B781A460E490A48EA
:1086B00001F042FC78637B6BFB62FB6A002B04D009
:1086C000074AF821F86A07F019FD00BF3837BD46A0
:1086D00080BD00BF54B50020A0E303001584020054
:1086E000C8E30300369900203899002080B584B093
:1086F00000AF786039603B68FE2B0BD9174A184BE6
:10870000D31ADB081B0443F003033A6815491846E3
:1087100006F079FD144B01221A70104A104BD31A3F
:10872000DB081B0443F003031049184606F05CFD08
:108730003A6879680E4801F0FFFBF860FB68BB609F
:10874000BB68002B05D00B4A4FF48571B86807F061
:10875000D5FC00BF1037BD4680BD00BF7C020400C1
:108760003C020400D4E4030054B50020FCE4030000
:10877000A0E30300C8E3030080B586B000AF7860D3
:10878000396007F1080304223968184611F050FCDB
:108790003A687968264807F069FE78617B693B6131
:1087A0003B69002B05D0234A4FF48C71386907F0E0
:1087B000A5FC7B69042B0AD11F4A204BD31ADB0886
:1087C0001B0443F003031E49184606F00DFD7B69A8
:1087D000002B28D11B4B1B7883F00103DBB2002B4D
:1087E00021D007F108031A461749114807F0FDFD8B
:1087F00078617B69002B0BD1BB680D4AC2F8103A37
:108800000B4BD3F8103A19460F48FFF76FFF0AE0F9
:108810007B69FB60FB68002B05D0064A4FF49D7115
:10882000F86807F06BFC00BF1837BD4680BD00BF7D
:108830005CB50020C8E303007C0204003C02040095
:1088400008E5030054B500206CB9002080B584B061
:1088500000AF786039603A687968044807F0C5FD70
:10886000F860FB6818461037BD4680BD74BF002015
:1088700080B584B000AF78607968044807F09FFD48
:10888000F860FB6818461037BD4680BD74BF0020F5
:1088900080B483B000AF0346FB7197F90730002B1B
:1088A0000BDBFB7903F01F02074997F907305B09DF
:1088B000012000FA02F241F8232000BF0C37BD4628
:1088C0005DF8047B704700BF00E100E080B483B036
:1088D00000AF03463960FB7197F90730002B0ADBC4
:1088E0003B68DAB20C4997F907305201D2B20B4417
:1088F00083F800230AE03B68DAB20849FB7903F009
:108900000F03043B5201D2B20B441A7600BF0C375E
:10891000BD465DF8047B704700E100E000ED00E03B
:1089200080B582B000AF03460A46FB711346BB71A7
:10893000BA7997F9073011461846FFF7C7FF00BF0D
:108940000837BD4680BD80B582B000AF0346FB71DD
:1089500097F907301846FFF79BFF00BF0837BD4661
:1089600080BD80B485B000AFF860B9607A60FB6804
:10897000BA6802F5A872796843F8221000BF14376C
:10898000BD465DF8047B704780B483B000AF78606B
:1089900039607B683A68C3F8042300BF0C37BD46D2
:1089A0005DF8047B704780B483B000AF78603960B5
:1089B0007B683A68C3F8082300BF0C37BD465DF8F2
:1089C000047B704780B483B000AF786039607B6807
:1089D000D3F804233B68134018460C37BD465DF8B6
:1089E000047B704780B483B000AF78600B467B8017
:1089F0007B887A6813441B6818460C37BD465DF8BF
:108A0000047B704780B485B000AF78600B467B80F4
:108A10007B887A68134400221A607B887A68134442
:108A20001B68FB60FB6800BF1437BD465DF8047B24
:108A3000704780B483B000AF78607B68D3F80435AA
:108A400018460C37BD465DF8047B704780B483B090
:108A500000AF786039607B683A68C3F8082500BFCA
:108A60000C37BD465DF8047B704780B483B000AF1F
:108A7000786039607B683A68C3F8442300BF0C37DC
:108A8000BD465DF8047B704780B483B000AF78606A
:108A900039607B683A68C3F8482300BF0C37BD468D
:108AA0005DF8047B7047000080B586B000AFF860C9
:108AB000B9607A60FB685B7919462A4A7B6842F89C
:108AC0002130FB685B791946274A0B465B000B4453
:108AD00013441B78002B03D008237B617B693DE0A6
:108AE000FB6893F90420BB689B7819461046FFF792
:108AF00017FFFB6893F904301846FFF724FFFB6863
:108B00001A68BB681B8819461046FFF79FFFFB6871
:108B10005B791946BB681879134A0B465B000B4416
:108B20001344013302461A70FB685B791946BB682F
:108B3000D8780D4A0B465B000B44134402330246BF
:108B40001A70FB685B791946074A0B465B000B44B9
:108B5000134401221A7000237B617B691846183781
:108B6000BD4680BD84C000208CC0002080B58AB086
:108B700000AFF860B9607A60FB704FF48032BB6878
:108B800002FA03F3BB61BB689BB250339BB29B00FC
:108B9000FB82FB681B68B9691846FFF775FFFB6825
:108BA0001B68B9691846FFF7FEFE7B6823F07F4318
:108BB0007B60FB685B7919462C4A0B465B000B44D3
:108BC000134401331B78002B2CD0FB681B687A6898
:108BD000B9681846FFF7C5FEFB681B681846FFF723
:108BE00028FF38623A6A7B68D31AFB613A6A7B686D
:108BF0009A4205D2FB6903F1FF1303F57F43FB6142
:108C0000FB685B791946194A0B465B000B44134419
:108C100002331B781A46FB6993420ADA0D237B6202
:108C20007B6A1FE0FB681B687A68B9681846FFF723
:108C300098FEFB78002B0CD0FB681B68FA8A114663
:108C40001846FFF7DFFEFB681B68B9691846FFF797
:108C50009BFEFB681B68B9691846FFF706FF0023F7
:108C60007B627B6A18462837BD4680BD8CC00020D9
:108C700080B588B000AFF860B9607A604FF4803397
:108C8000BB614FF4A073FB8300237B612CE0B969C7
:108C9000F868FFF797FE0346002B1CD0FB8B1946A4
:108CA000F868FFF79FFE0346002B14D0B969F868F7
:108CB000FFF7EAFEB969F868FFF775FEFB8B194606
:108CC000F868FFF79FFE294ABB6852F823307A699B
:108CD000D2B210469847BB695B00BB61FB8B043383
:108CE000FB837B6901337B617A697B689A42CED3CF
:108CF0004FF48073FB830121F868FFF763FE03469E
:108D0000002B12D0FB8B1946F868FFF76BFE034669
:108D1000002B0AD0FB8B1946F868FFF773FE134A45
:108D2000BB6852F82330042098474FF48273FB83CA
:108D30000221F868FFF746FE0346002B12D0FB8B9A
:108D40001946F868FFF74EFE0346002B0AD0FB8B4E
:108D50001946F868FFF756FE044ABB6852F82330FC
:108D60000520984700BF2037BD4680BD84C0002045
:108D700080B500AF032200210248FFF779FF00BF52
:108D800080BD00BF00B0004080B500AF04220121CB
:108D90000248FFF76DFF00BF80BD00BF00400240EA
:108DA00080B483B000AF0346FB7197F90730002B06
:108DB0000BDBFB7903F01F02074997F907305B09CA
:108DC000012000FA02F241F8232000BF0C37BD4613
:108DD0005DF8047B704700BF00E100E080B483B021
:108DE00000AF03463960FB7197F90730002B0ADBAF
:108DF0003B68DAB20C4997F907305201D2B20B4402
:108E000083F800230AE03B68DAB20849FB7903F0F3
:108E10000F03043B5201D2B20B441A7600BF0C3749
:108E2000BD465DF8047B704700E100E000ED00E026
:108E300080B483B000AF78607B681B0B5BB21846D0
:108E40000C37BD465DF8047B704780B582B000AF3B
:108E500003460A46FB711346BB71BA7997F907308E
:108E600011461846FFF7BAFF00BF0837BD4680BD60
:108E700080B582B000AF0346FB7197F90730184602
:108E8000FFF78EFF00BF0837BD4680BD80B483B0BA
:108E900000AF78600B46FB70FB787A6813440122C0
:108EA0001A6000BF0C37BD465DF8047B704780B484
:108EB00085B000AF78600B467B807B887A6813446E
:108EC00000221A607B887A6813441B68FB60FB6889
:108ED00000BF1437BD465DF8047B704780B483B093
:108EE00000AF78600B467B807B887A6813441B68F0
:108EF000002B14BF01230023DBB218460C37BD46FC
:108F00005DF8047B704780B483B000AF786039604F
:108F10007B683A68C3F8042300BF0C37BD465DF890
:108F2000047B704780B483B000AF786039607B68A1
:108F30003A68C3F8082300BF0C37BD465DF8047BD0
:108F4000704780B483B000AF786039607B68D3F835
:108F500004233B681340002B14BF01230023DBB222
:108F600018460C37BD465DF8047B704780B483B06B
:108F700000AF78600B46FB707B68D3F8043523F0B4
:108F80000302FB7803F003031A437B68C3F804254C
:108F900000BF0C37BD465DF8047B704780B483B0DA
:108FA00000AF78600B46FB707B68D3F8083523F080
:108FB0000302FB7803F003031A437B68C3F8082518
:108FC00000BF0C37BD465DF8047B704780B483B0AA
:108FD00000AF78600B46FB707B68D3F8103523F048
:108FE0000F02FB7803F00F031A437B68C3F81025C8
:108FF00000BF0C37BD465DF8047B704780B485B078
:1090000000AFF8600B467A60FB72FA7AFB6802F5F3
:10901000A872796843F8221000BF1437BD465DF886
:10902000047B704780B483B000AF78607B689B009E
:1090300003F5A0739BB218460C37BD465DF8047B60
:10904000704780B483B000AF78604FF480327B68A3
:1090500002FA03F318460C37BD465DF8047B7047EF
:1090600090B589B000AFF860B9607A60FB681B7991
:109070001A4613465B0013449B00304A13447B613D
:109080007B691B7A002B03D00823FB61FB6950E04E
:109090007B697A681A60BB685A687B695A600023EA
:1090A000FB760DE0FB681C68FB7E1846FFF7BAFFF5
:1090B000034619462046FFF7FAFEFB7E0133FB7696
:1090C000FB685B79FA7E9A42ECD3FB681B68184612
:1090D000FFF7AEFE03461A46BB68DB78194610461A
:1090E000FFF7B3FEFB681B681846FFF7A1FE0346B7
:1090F0001846FFF7BDFEFB681A68BB685B78194627
:109100001046FFF733FFFB681A68BB689B78194667
:109110001046FFF743FFFB681A68BB681B781946C7
:109120001046FFF753FF7B6901221A720023FB618F
:10913000FB6918462437BD4690BD00BF94C000208F
:1091400080B582B000AF78607B681B68002118464C
:10915000FFF79CFE7B681B791946064A0B465B00AD
:109160000B449B001344083302221A7000BF0837D7
:10917000BD4680BD94C0002080B582B000AF78604D
:109180007B681B680C211846FFF780FE00BF08377C
:10919000BD4680BD90B587B000AFF8607A601A46D2
:1091A0000B46FB721346BB72FB7A1846FFF749FF6A
:1091B0007861BB7A002B11D0FB681C68FB7A1846DB
:1091C000FFF730FF034619462046FFF770FEFB68A5
:1091D0001B6879691846FFF796FE05E0FB681B6877
:1091E00079691846FFF79EFEFB681B68F97A7A6872
:1091F0001846FFF703FF00BF1C37BD4690BD80B582
:1092000086B000AFF860B9601346FB710023FB75B0
:1092100028E0FB7D1846FFF705FF0346BB82FB7D78
:109220001846FFF70EFF3861BB8A1946F868FFF74A
:1092300055FE0346002B12D03969F868FFF781FE0E
:109240000346002B0BD0BB8A1946F868FFF72FFEA8
:10925000BB681B68BA685168BA8A10469847FB7D9C
:109260000133FB75FA7DFB799A42D2D300BF00BF70
:109270001837BD4680BD000080B500AF0422034909
:109280000348FFF7BCFF00BF80BD00BF94C00020B3
:109290000080004080B500AF042203490348FFF777
:1092A000AEFF00BF80BD00BFA0C000200090004006
:1092B00080B483B000AF0346FB7197F90730002BF1
:1092C0000BDBFB7903F01F02074997F907305B09B5
:1092D000012000FA02F241F8232000BF0C37BD46FE
:1092E0005DF8047B704700BF00E100E080B483B00C
:1092F00000AF0346FB7197F90730002B12DBFB79B7
:1093000003F01F020A4997F907305B09012000FAB0
:1093100002F2203341F82320BFF34F8F00BFBFF389
:109320006F8F00BF00BF0C37BD465DF8047B7047F0
:1093300000E100E080B582B000AF0346FB7197F911
:1093400007301846FFF7B4FF00BF0837BD4680BDA1
:1093500080B582B000AF0346FB7197F9073018461D
:10936000FFF7C4FF00BF0837BD4680BD80B483B09F
:1093700000AF78600B46FB70FB787A6813440122DB
:109380001A6000BF0C37BD465DF8047B704780B49F
:1093900083B000AF78600B46FB70FB787A681344AB
:1093A00018460C37BD465DF8047B704780B483B027
:1093B00000AF78600B467B807B887A681344184640
:1093C0000C37BD465DF8047B704780B483B000AFB6
:1093D00078607B689B0003F5A0739BB218460C373E
:1093E000BD465DF8047B704780B582B000AF786001
:1093F0000B46FB707B681B68FA7811461846FFF72E
:10940000C6FF034618460837BD4680BD90B583B0F9
:1094100000AF786039607B681C683868FFF7D5FF5B
:10942000034619462046FFF7C1FF034618460C378E
:10943000BD4690BD80B483B000AF78600B467B80A2
:109440007A887B68134418460C37BD465DF8047B68
:10945000704780B483B000AF78600B46FB70FA7839
:109460007B68134418460C37BD465DF8047B704793
:1094700080B483B000AF78600B46FB70FA787B68ED
:1094800013441A460123136000BF0C37BD465DF834
:10949000047B704780B582B000AF78607B681B6842
:1094A00008211846FFF7E4FF00BF0837BD4680BD1E
:1094B00080B582B000AF78600B46FB707B681B689C
:1094C000FA7811461846FFF7C4FF034618460837D6
:1094D000BD4680BD80B582B000AF78600B467B8012
:1094E0007B681B687A8811461846FFF7A3FF03467E
:1094F00018460837BD4680BD80B483B000AF7860A1
:109500000B467B807B887A68134418460C37BD462F
:109510005DF8047B7047000080B483B000AF034661
:10952000FB71FB79034AD35C18460C37BD465DF8E6
:10953000047B70478CE503002DE9F00F86B000AF87
:1095400078617969002088468146C7E902894FF031
:1095500000004FF00001C7E90001F9684E017E608C
:109560007E68B96846EAD1667E60B96849013960AB
:10957000D7E90001C7E902010146B1EB0804F96827
:1095800061EB09054FF000004FF00001A90141EA2D
:109590009461A001021B61EB05034FF000004FF046
:1095A0000001D90041EA5271D00002460B4612EB8D
:1095B000080A43EB090B4FF000024FF000034FEA9B
:1095C000CB1343EA5A634FEACA1292469B4650466F
:1095D00059464FF000024FF00003C20B42EA4142ED
:1095E000CB0B134618461837BD46BDE8F00F704741
:1095F00080B582B000AF7860796800200A460346E3
:109600004FF000004FF00001990341EA92419003AE
:10961000054A4FF0000314F083F902460B46134647
:1096200018460837BD4680BD40420F0080B584B063
:1096300000AF78607B681B68184608F0ABFB0346F8
:10964000BB60BB68002B01D100231BE07B685B681B
:1096500007F108021146184609F090FAF860FB6815
:10966000002B01D000230DE07B68DB69DA68013252
:10967000DA607B689869B9687B685B6A1A4601F0B2
:10968000D2FC012318461037BD4680BD80B596B088
:1096900000AF786039607B68FB633B681B78042B04
:1096A00000F2D78001A252F823F000BF3B970200DE
:1096B000E9960200C1960200DD97020009980200B7
:1096C000012387F82C303B685B683B633B689B68F1
:1096D0007B63FB6BDB691B68FA6BD269526807F12D
:1096E0002C0110469847C7E0FB6BDB6993F82630E6
:1096F000002B40F0BA80F86BFFF798FF034683F029
:109700000103DBB2002B00F0B280FB6BDB6993F846
:109710002530002B05D0FB6BDB69012283F8262066
:10972000A5E00023BB64BB6C002B40F0A080544A32
:10973000E621002006F0E2FC99E03B689A68FB6BAA
:10974000DB695B69D31A7B647B6C002B3AD0FB6BC3
:10975000DB691969FB6BDB697A6C0A441A610023C7
:1097600087F820303B685A68FB6BDB695B69134400
:109770007B627B6CBB62FB6BDB6900225A61FB6B1B
:109780005868FB6BDB6918330022194609F09AFA16
:1097900038653B6D002B0AD00023FB64FB6C002B6B
:1097A00005D1374A40F20B11002006F0A7FCFB6BF5
:1097B000DB691B68FA6BD269526807F12001104619
:1097C000984756E000233B643B6C002B51D12C4A58
:1097D0004FF48A71002006F091FC4AE007F114036F
:1097E00000221A605A609A6002233B753B681B791D
:1097F0003B76FB6BDB691B68FA6BD269526807F139
:1098000014011046984737E03B685A68FB6BDB69E8
:109810005B69D31ABB63FB6BDB691969FB6BDB69A3
:10982000BA6B0A441A6107F1080300221A605A60F1
:109830009A6003233B723B685B68FB60FB6BDB69F0
:109840001B68FA6BD269526807F108011046984705
:1098500012E000237B657B6D002B0CD1084A4FF48E
:109860009971002006F04AFC05E000BF04E000BF4B
:1098700002E000BF00E000BF00BF5837BD4680BD1A
:109880003CE5030080B588B000AF78607B689B69D9
:10989000DB681B0B5BB21846FFF75AFD7B689B69C0
:1098A0005B68D3F84C35FB617B68DB691B69FA693F
:1098B0009A4227D97B68DB691B69FA69D31ABB61B5
:1098C00000233B737B68DB699A697B68DB695B69B2
:1098D00013443B61BB697B617B68DB6959697B68C9
:1098E000DB69BA690A445A617B68DB69FA691A6103
:1098F0007B68DB691B687A68D269526807F10C01E2
:10990000104698477B689B69DB681B0B5BB2184667
:10991000FFF710FD00BF2037BD4680BD80B582B087
:1099200000AF03463960FB803868FFF7ABFF00BF2C
:109930000837BD4680BD80B588B000AF78607B68D1
:10994000FB6107F08BFAB861FB69DB691B6A18469B
:10995000FFF74EFE03465B087B617B69052B38BF32
:1099600005237B61FB69DB6993F8273083F00103F2
:10997000DBB2002B45D1FB699B695B684C21184623
:10998000FFF7F4FCFB699B695B68D3F84C353B61DE
:10999000FB691B691B68FA697969184607F008FAC0
:1099A000FB695B691B683A699A420CD0FB695B6989
:1099B0003A691A60FB695B69BA695A60FB695B695D
:1099C00001221A721EE0FB695B695B681946B8697F
:1099D00007F033FAF860FB695B691B7A002B11D042
:1099E000F868FFF7A9FD0246FB69DB691B6A9A422A
:1099F00008D9FB695B6900221A72F869FFF742FF18
:109A000000E000BF2037BD4680BD000090B59BB090
:109A100000AFF860B9607A603B60BB685B7F072B82
:109A200007D0FB681B69002B05D0BB685B7F052B4B
:109A300001D90723D9E1FB68DB6993F82730002BB4
:109A400001D00823D1E1FB68DB697A681A60FB6802
:109A5000DB6900221A61FB68DB6900229A61FB68FE
:109A6000DB690022DA61FB68DB6900225A61FB686E
:109A7000DB690022DA60FB68DB693A685A60FB68E0
:109A8000DB69BA6812691A62FB68DB69002283F835
:109A90002620BB681A7DFB68DB69012A0CBF012206
:109AA0000022D2B283F8252000233B660023FB6509
:109AB0000023BB6500237B65FB689B68002B4CD0B3
:109AC0009C4A07F1180392E80300186004331980D8
:109AD000BB685B7F1846FFF71FFD0346BB7600237C
:109AE0003B83FB689868FB681A6A07F118031946FC
:109AF000FEF7DAFFF864FB6C002B01D0032374E15E
:109B0000FB689868BB681B695A0901230021FFF7AD
:109B10002DF8F864FB6C002B01D0032365E1FB6892
:109B20009B6800211846FFF7C3FC3866FB689B68FA
:109B300008211846FFF7BCFCF865FB689B68042108
:109B40001846FFF7B5FCB865FB689B684FF4A07139
:109B50001846FFF7BFFC786584E0FB68DB68002BE4
:109B600047D000233B7400237B740023BB7406237F
:109B7000FB7400237B6104233B74FB687B61BB683F
:109B80005B7F1846FFF7C8FC0346FB74FB68DB6885
:109B900007F11001684A1846FFF762FAF864FB6C97
:109BA000002B01D0032320E1FB68D868BB681A6949
:109BB00001230021FFF7EEFAFB68DB68002118465D
:109BC000FFF712FC3866FB68DB680C211846FFF7CC
:109BD0000BFCF865FB68DB6810211846FFF704FCF6
:109BE000B865FB68DB6800211846FFF70FFC786555
:109BF00038E0FB681B69002B27D0FB68DB6993F812
:109C0000243083F00103DBB2002B11D0FB681B6909
:109C10004A4A0021184607F0A9F8F864FB6C002BAB
:109C200001D0FB6CE1E0FB68DB69012283F82420B2
:109C3000FB685B6900221A72FB685B6900221A608C
:109C4000FB685B6900225A600CE000233B653B6DBA
:109C5000002B05D13A4A4FF4F271002006F04EFA7B
:109C60000323C2E0FB681B69002B6BD100237B66DA
:109C700010E0FB68DA697B6E08331344184602F083
:109C800071FAF864FB6C002B01D00323ADE07B6E0E
:109C900001337B667B6E012BEBD9FB68DB691C7A99
:109CA000FB689B69DB684FF484711846FFF724FC5E
:109CB00003463A6E1946204602F0D2FAF864FB6C6D
:109CC000002B01D0032390E0FB6D002B0CD0FB6830
:109CD000DB691B7AF96D184602F0F8FAF864FB6C40
:109CE000002B01D0032380E0FB68DB695B7ABA6D4F
:109CF000796D184602F0B4FAF864FB6C002B01D0C1
:109D0000032372E0FB689B695B684C33002B19D01E
:109D1000FB68DB695A7AFB689B695B684C331946C0
:109D2000104602F0D3FAF864FB6C002B0AD0032330
:109D30005BE000BF84E503001D9902003799020033
:109D40003CE50300BB685B683B62BB681B687B62E9
:109D5000BB689B68BB62BB68DB68FB62FB689B6996
:109D6000DB684FF488711846FFF7C6FB03463B6378
:109D700000237B630023BB630023FB63BB681B7D65
:109D800087F84030BB685B7D87F84130BB689B69D2
:109D90007B64BB685B7F87F84830BB681B7F87F8B4
:109DA0004930FB68986907F12001FB68114A00F00F
:109DB00015FFF864FB6C002B01D0FB6C15E0FB6811
:109DC0001B68184607F0BAFFF864FB6C002B01D043
:109DD000FB6C0AE0FB685B68184608F0FBFFFB6859
:109DE000DB69012283F82720FB6C18466C37BD46DF
:109DF00090BD00BF8D96020080B58AB000AF78603C
:109E00007B681B68184607F0C5FF78627B68DB69D2
:109E1000DA680132DA607B6A002B0AD100233B62E8
:109E20003B6A002B05D1434A4FF41571002006F020
:109E300065F97B689B68002B05D07B689B6818469A
:109E4000FFF728FB08E07B68DB68002B04D07B6809
:109E5000DB681846FFF790F97B681B69002B2DD152
:109E60007B68DB691B7A184602F04FFAF861FB69E0
:109E7000002B0CBF01230023DBB2BB61BB69002BAD
:109E800005D12C4A40F26521002006F037F97B68A5
:109E9000DB695B7A184602F038FAF861FB69002B3F
:109EA0000CBF01230023DBB27B617B69002B05D152
:109EB000204A40F26721002006F020F97B68DB6928
:109EC0007A6A9A617B6898697B685A6A0023796A22
:109ED00001F03AF838613B69002B0CBF01230023E5
:109EE000DBB2FB60FB68002B05D1124A4FF41B71FB
:109EF000002006F003F97B681B69002B15D07B68F6
:109F0000DB691B6A1846FFF773FB03465B08BB60FF
:109F1000BB68052B38BF0523BB607B681B691B68CA
:109F20007A68B968184606F043FF00BF2837BD4677
:109F300080BD00BF3CE5030080B584B000AFF86091
:109F4000B9607A60FB689B697A68B968184600F066
:109F500075FF034618461037BD4680BD80B588B0F2
:109F600000AFF860B9607A60FB68DB69D969FB68AB
:109F7000DB697A680A44DA61FB68DB69DA69FB68E5
:109F80005B6A9A4237D1FB68DB69DB697A68D31A6E
:109F9000BA681344BB60FB68DB690022DA61FB68C6
:109FA0001B68B968184607F02FFFFB68DB69DA68A1
:109FB000013ADA60FB68DB69DB68002B0ADA002310
:109FC000FB61FB69002B05D1164A4FF4227100207A
:109FD00006F094F8FB68DB6993F82630002B1CD060
:109FE000F868FFF723FB0346FB76FB68DB6900227A
:109FF00083F8262011E0FB68DB69DA69FB685B6A9D
:10A000009A420AD900237B617B69002B05D1054A5E
:10A0100040F29621002006F071F800BF2037BD46BF
:10A0200080BD00BF3CE5030080B483B000AF0346B1
:10A03000FB7197F90730002B0BDBFB7903F01F0254
:10A04000074997F907305B09012000FA02F241F84D
:10A05000232000BF0C37BD465DF8047B704700BF6E
:10A0600000E100E080B483B000AF0346FB7197F9D4
:10A070000730002B0CDBFB7903F01F02074997F92F
:10A0800007305B09012000FA02F2603341F8232017
:10A0900000BF0C37BD465DF8047B704700E100E06F
:10A0A00080B483B000AF03463960FB7197F9073085
:10A0B000002B0ADB3B68DAB20C4997F907305201F2
:10A0C000D2B20B4483F800230AE03B68DAB20849B5
:10A0D000FB7903F00F03043B5201D2B20B441A7612
:10A0E00000BF0C37BD465DF8047B704700E100E01F
:10A0F00000ED00E080B483B000AF78607B681B0B9C
:10A100005BB218460C37BD465DF8047B704780B4DF
:10A1100085B000AF78600B467B807B887A681344FB
:10A1200000221A607B887A6813441B68FB60FB6816
:10A1300000BF1437BD465DF8047B704780B483B020
:10A1400000AF78600B467B807B887A6813441B687D
:10A15000002B14BF01230023DBB218460C37BD4689
:10A160005DF8047B704780B483B000AF78600B4625
:10A170007B807B887A68134418460C37BD465DF8AF
:10A18000047B704780B483B000AF786039607B682F
:10A190003A68C3F8042300BF0C37BD465DF8047B62
:10A1A000704780B485B000AF78607B68D3F88034A6
:10A1B000FB607B68FA68C3F88024FB681846143794
:10A1C000BD465DF8047B704780B483B000AF786013
:10A1D0007B680822C3F8002500BF0C37BD465DF838
:10A1E000047B704780B485B000AFF860B9607A60D6
:10A1F000FB68BA68C3F80C25FB687A68C3F81425B5
:10A2000000BF1437BD465DF8047B704780B485B04D
:10A2100000AFF860B9607A60FB68BA68C3F80825D7
:10A22000FB687A68C3F8102500BF1437BD465DF897
:10A23000047B704780B483B000AF78600B46FB703E
:10A24000FB787A68134401221A6000BF0C37BD46C0
:10A250005DF8047B704780B483B000AF78600B4634
:10A26000FB70FA787B68134418460C37BD465DF8DE
:10A27000047B704780B483B000AF78600B46FB70FE
:10A280001346BB70FA78BB781343DBB21A467B687F
:10A29000C3F86C2500BF0C37BD465DF8047B7047E2
:10A2A00080B483B000AF786039607B683A68C3F8E7
:10A2B000242500BF0C37BD465DF8047B704780B491
:10A2C00085B000AFF860B9607A60BA68FB68C3F81F
:10A2D0004425FB687A68C3F8482500BF1437BD469B
:10A2E0005DF8047B704780B483B000AF78607B6812
:10A2F000D3F84C3518460C37BD465DF8047B7047E3
:10A3000080B485B000AFF860B9607A60BA68FB6865
:10A31000C3F83425FB687A68C3F8382500BF1437C2
:10A32000BD465DF8047B704780B483B000AF034640
:10A33000FB71FB79DB0003F1804303F5F83318462A
:10A340000C37BD465DF8047B704780B483B000AF26
:10A350000346FB71FB79DB00043303F1804303F513
:10A36000F83318460C37BD465DF8047B704780B45F
:10A3700083B000AF0346FB71FB79012202FA03F3BD
:10A3800018460C37BD465DF8047B704780B582B037
:10A3900000AF03460A46FB711346BB71FB791846B2
:10A3A000FFF7E5FF0246BB791946104602F0C0F8F8
:10A3B000034618460837BD4680BD80B582B000AF61
:10A3C0000346FB71FB791846FFF7AEFF03461846BC
:10A3D0000837BD4680BD80B582B000AF0346FB7133
:10A3E000FB791846FFF7B1FF034618460837BD460C
:10A3F00080BD80B483B000AF78600B46FB70FB7803
:10A400007A68134418460C37BD465DF8047B7047E4
:10A4100080B483B000AF78600B467B807B887A681D
:10A42000134418460C37BD465DF8047B704780B472
:10A4300083B000AF78600B46FB70FA787B6802F55A
:10A44000A87253F8223018460C37BD465DF8047BDD
:10A45000704780B483B000AF78607B689B00403366
:10A46000DBB218460C37BD465DF8047B704780B4FC
:10A4700083B000AF78607B689B0003F5A0739BB24C
:10A4800018460C37BD465DF8047B704780B582B036
:10A4900000AF78600B46FB707B681B68FA7811464A
:10A4A0001846FFF7A6FF034618460837BD4680BD8D
:10A4B00090B583B000AF786039607B681C683868FD
:10A4C000FFF7C7FF034619462046FFF792FF0346F2
:10A4D00018460C37BD4690BD90B583B000AF78608C
:10A4E00039607B681C683868FFF7C1FF034619466E
:10A4F0002046FFF78DFF034618460C37BD4690BD3A
:10A5000080B582B000AF78600B46FB707B681B683B
:10A51000FA7811461846FFF78AFF034618460837AF
:10A52000BD4680BD80B483B000AF78604FF0A043DB
:10A5300018460C37BD465DF8047B704780B584B083
:10A5400000AF7860084611461A460346FB700B467A
:10A55000BB7013467B703B1D1846FFF7E3FFF860A6
:10A56000FA78BB785B001A437B789B001A433B7EEA
:10A570001B0242EA03013B7F1B047A681943FB6814
:10A5800002F5E07243F8221000BF1037BD4680BDCF
:10A5900080B584B002AF786000230193002300935C
:10A5A0000023012201217868FFF7C8FF00BF0837A8
:10A5B000BD4680BD80B584B002AF78600B46FB70AD
:10A5C000FB7800220192002200920022002178688C
:10A5D000FFF7B4FF00BF0837BD4680BD80B584B02B
:10A5E00000AF78603B1D1846FFF79CFFF8607B6862
:10A5F000012202FA03F31946F86800F004F800BFDC
:10A600001037BD4680BD80B483B000AF786039603C
:10A610007B683A68C3F8082500BF0C37BD465DF873
:10A62000047B704780B586B000AFF860B9607A608F
:10A630003B60F86801F096FD78617B69002B01D0E2
:10A6400004231CE0FB681B787A68B968184601F09F
:10A6500007FE78617B69002B01D003230FE03B6884
:10A66000002B0BD0FB681B783968184601F02EFED2
:10A6700078617B69002B01D0032300E0002318469A
:10A680001837BD4680BD80B586B000AFF8607A60EF
:10A690003B600B46FB72F86801F09BFE78617B69BA
:10A6A000002B01D004232CE0FB681A78FB7A1146BA
:10A6B0001846FFF76BFE78617B69002B01D00323FE
:10A6C0001FE097F82030002B0AD0FB681B78184653
:10A6D00001F004FF78617B69002B01D0032310E0B7
:10A6E000FB681B781846FFF768FE02467B681A6015
:10A6F000FB681B781846FFF76EFE02463B681A603F
:10A70000002318461837BD4680BD80B584B000AF21
:10A7100078607B681B78184601F028FEF8607B683B
:10A720001B78184601F070FDF8607B6814221A70DF
:10A7300000BF1037BD4680BD80B584B000AF7860E3
:10A740007B681B78184601F091FEF8607B68062252
:10A750001A7000BF1037BD4680BD80B584B000AF11
:10A7600078600023FB6010E07B681A68FB68134484
:10A770001B78132B06D87B681A68FB6813441846AD
:10A78000FFF7C3FFFB680133FB60FB68082BEBDDC1
:10A790000023BB6013E07B681A68BB68134409336D
:10A7A0001B78052B08D87B681A68BB6808331344EC
:10A7B00001331846FFF7C0FFBB680133BB60BB68BD
:10A7C000012BE8DD00BF00BF1037BD4680BD80B55E
:10A7D00084B000AF78607B681B78184601F095FD67
:10A7E000F86000BF1037BD4680BD80B584B000AFB3
:10A7F00078607B681B78184601F0B8FDF86000BFF0
:10A800001037BD4680BD80B584B000AF78600023AE
:10A81000FB6010E07B681A68FB6813441B78132BFD
:10A8200006D87B681A68FB6813441846FFF7CFFF09
:10A83000FB680133FB60FB68072BEBDD00BF00BF4B
:10A840001037BD4680BD80B584B000AF7860082366
:10A85000FB6010E07B681A68FB6813441B78132BBD
:10A8600006D87B681A68FB6813441846FFF7AFFFE9
:10A87000FB680133FB60FB68082BEBDD00BF00BF0A
:10A880001037BD4680BD80B584B000AF7860082326
:10A89000FB6010E07B681A68FB6813441B78132B7D
:10A8A00006D87B681A68FB6813441846FFF79DFFBB
:10A8B000FB680133FB60FB68082BEBDD00BF00BFCA
:10A8C0001037BD4680BDF0B58DB002AF78603960FD
:10A8D0000023BB6100237B6100233B610023FB60FD
:10A8E00000233B6208E07B681A683B6A1344142229
:10A8F0001A703B6A01333B623B6A082BF3DD00238D
:10A90000FB6109E07B681A68FB691344093306227E
:10A910001A70FB690133FB61FB69012BF2DD7B6877
:10A920001B6803F108047B68DB684FF490711846DC
:10A93000FFF719FC05467B68DB6808211846FFF71E
:10A940008AFC0246002329462046FFF76BFE786208
:10A950007B6A002B40F013817B681B681C1D7B68A1
:10A96000DB684FF484711846FFF7FDFB05467B68F2
:10A97000043308211846FFF789FD024600232946C3
:10A980002046FFF74FFE78627B6A002B40F0F9808B
:10A990007B681B685C1D7B68DB684FF48871184618
:10A9A000FFF7E1FB05467B68DB6800211846FFF7EF
:10A9B00052FC06467B68043300211846FFF778FDF9
:10A9C0000346324629462046FFF72CFE78627B6A12
:10A9D000002B40F0D8803B685B69002B71D03B684E
:10A9E000DB69002B6DD07B681B689C1D7B68DB6876
:10A9F0004FF488711846FFF7B6FB05467B680433B1
:10AA000000211846FFF754FD02463B68DB692946E2
:10AA10002046FFF707FE78627B6A002B40F0B58086
:10AA20007B681B6803F109007B681B68597907F193
:10AA3000140307F1180201240094FFF724FE786242
:10AA40007B6A002B40F0A3807B681B6803F10A003F
:10AA50007B681B68997907F10C0307F11002002449
:10AA60000094FFF710FE78627B6A002B40F0918023
:10AA70007B681B689C1C3B685D697B68DB68042104
:10AA80001846FFF7E8FB06467B68043301211846A9
:10AA9000FFF70EFD0346324629462046FFF7C2FD6A
:10AAA00078627B6A002B76D17B681B68D81C3B6878
:10AAB00059697A693B69FFF7B5FD78627B6A002BBB
:10AAC0006BD13B689B69002B02D1FB68002B1FD028
:10AAD0007B681B685C1C7B68DB684FF4A6711846BA
:10AAE000FFF741FB0146FB68002B02D13B689A69E6
:10AAF00000E0FA68FB68002B02D03B689B6900E02D
:10AB000000232046FFF78EFD78627B6A002B46D13A
:10AB10003B681B69002B14D07B681B681D463B6893
:10AB20001C697B68DB6800211846FFF794FB02462E
:10AB3000BB6921462846FFF775FD78627B6A002BCA
:10AB40002FD13B68DB68B3F1FF3F2CD07B681B68DB
:10AB5000DC1D7B68043302211846FFF7BDFC054667
:10AB60003B68DB6818460AF014FA024600232946BF
:10AB70002046FFF757FD78627B6A002B13E000BF89
:10AB800012E000BF10E000BF0EE000BF0CE000BF0D
:10AB90000AE000BF08E000BF06E000BF04E000BF1D
:10ABA00002E000BF00E000BF7B6A002B01D17B6A9E
:10ABB00003E07868FFF7D1FD7B6A18462C37BD4665
:10ABC000F0BD80B483B000AF03463960FB8000BFA6
:10ABD0000C37BD465DF8047B7047000080B58AB035
:10ABE00000AFF860B9607A603B60FB68DB681846CC
:10ABF000FFF780FA034687F82730FB681B6893F855
:10AC00003C30002B01D0082308E1FB681B687A6800
:10AC10005A62FB681B6800229A61FB681B6800226D
:10AC2000DA61FB681B6800221A62FB681B6800225D
:10AC3000DA60FB681B683A685A63FB681B68FF228E
:10AC400083F83A20FB68DB68764A934214BF0123FD
:10AC50000023DBB21946744AFB6842F82130BB6816
:10AC60001B681846FFF7BAFCBB681B681846FFF75D
:10AC70008FFCBB685A68BB6893F82930002B01D061
:10AC8000032300E0002319461046FFF793FCFB68FE
:10AC9000DA68BB685B6A19461046FFF701FBFB6880
:10ACA000D868BB6893F82110BB6893F820301A4627
:10ACB000FFF7E0FAFB68D868BB681968BB685B6897
:10ACC0001A46FFF78FFABB6893F82030012B4BD15F
:10ACD000BB689B68B3F1FF3F05D0BB689B6803214D
:10ACE0001846FFF767FCBB68DB68B3F1FF3F32D063
:10ACF0004E4A07F110031268114619800233120CF4
:10AD00001A700AF06BF838623B6A002B04D03B6A79
:10AD1000082B01D03B6A81E0BB68DB6807F11002B9
:10AD2000114618460AF0C6F838623B6A002B01D07B
:10AD3000032373E0BB68DB6818460AF005F9BB68BB
:10AD4000DB681846FFF724FCBB68DA68FB681B6801
:10AD5000D2B283F83A20FB68D868BB689B681A4671
:10AD60004FF0FF31FFF752FA97F92730022B0AD143
:10AD7000FB68DB682E4918460AF048FB0346002BA7
:10AD800001D011234AE0FB68DB682A491846FFF727
:10AD9000F9F9BB6893F828301A4697F9273011461D
:10ADA0001846FFF77DF997F927301846FFF75AF94B
:10ADB00097F927301846FFF737F9FB68DB68184624
:10ADC000FFF702FA00233B7500237B750023BB7558
:10ADD0000623FB750023BB6101237B750323BB7531
:10ADE000FB68043307F11401134A1846FEF738F9DB
:10ADF000F861FB69002B01D003230FE0B968F86804
:10AE0000FFF761FDF861FB69002B01D0032305E02A
:10AE1000FB681B68012283F83C2000231846283772
:10AE2000BD4680BD00200040ACC00020A0E503006E
:10AE3000E1B3020010034800C3AB020080B586B046
:10AE400000AFF860B9607A60FB681B68DB68002BB4
:10AE500001D0112371E0FB681B68BA68DA60FB68F7
:10AE60001B687A681A61FB681B6800225A617B685C
:10AE7000FF2B06D87B68FB82FB681B6800221A87C1
:10AE80001EE07B68FE332F4AA2FB0323DB093B61F4
:10AE90007A683B69B2FBF3F2FB681B6892B21A87CF
:10AEA000FB681B68198FFB681B681B8F1A467B6841
:10AEB000B3FBF2F000FB02F29B1A9BB20B44FB8245
:10AEC000FB68DB68FA8AB9681846FFF7F8F9FB688F
:10AED000DB684FF4A8711846FFF719F9FB68DB68C7
:10AEE00008211846FFF7A6F97B68FF2B24D900BF7D
:10AEF000FB68DB684FF4A8711846FFF71FF903469B
:10AF000083F00103DBB2002BF2D1FB68DB684FF466
:10AF1000A8711846FFF7FBF8F868FFF794FCFB6888
:10AF2000D868FB681B68DA68FB8AD118FB681B6865
:10AF30001B8F1A46FFF7C3F9002318461837BD4682
:10AF400080BD00BF8180808080B586B000AFF86092
:10AF5000B9607A60FB70FB681B689B69002B01D0AD
:10AF600011235CE0FB681B687A681A63BB68002BDE
:10AF70000AD0FB681B68BA689A61FB68DB687A686C
:10AF8000B9681846FFF7BCF9FB6804331846FEF7AA
:10AF9000D7F8FB6804331846FEF7EEF8FB681B6829
:10AFA00000229A62FB681B680022DA62FB68DB6899
:10AFB0004FF488711846FFF7AAF8FB68DB684FF476
:10AFC000A6711846FFF7A3F8F868FFF71CFCFB68AA
:10AFD0001B6893F83A30FF2B14D07B68043B7B61ED
:10AFE000FB681B6893F83A30184609F0F5FF0346F2
:10AFF0001A4601231360FB68181D00237A69022199
:10B00000FEF7C8F8FB7883F00103DBB2002B05D014
:10B01000FB68DB6800211846FFF70CF9002318468F
:10B020001837BD4680BD80B586B000AFF860B96006
:10B030007A60FB681B68DB69002B0BD1FB681B681F
:10B04000BA68DA61FB68DB687A68B9681846FFF7A6
:10B0500057F903E0FB681B68BA681A62FB681B6853
:10B0600093F83A30FF2B26D0FB68043300211846B2
:10B07000FFF746FA02467B685B001344043B7B61A2
:10B08000FB68181D00237A690221FEF783F8FB682C
:10B090001B6893F83B3083F00103DBB2002B0AD02E
:10B0A000FB681B6893F83A30184609F095FF034691
:10B0B0001A460123136000BF1837BD4680BD80B516
:10B0C0009AB000AF78607B68DB684FF492711846E5
:10B0D000FFF734F80346002B22D07B68DB684FF47F
:10B0E00092711846FFF713F807F1380300221A602F
:10B0F0005A609A60032387F838307B68DB6818460B
:10B10000FFF74FF80346DBB287F83C307B681B68DB
:10B110005B6A7A681268526B07F1380110469847EB
:10B120007B68DB684FF4A6711846FFF707F8034603
:10B13000002B19D07B68DB684FF4A6711846FEF728
:10B14000E6FF07F12C0300221A605A609A6001237F
:10B1500087F82C307B681B685B6A7A681268526BD0
:10B1600007F12C01104698477B68DB684FF4887123
:10B170001846FEF7E3FF0346002B00F09D807B6836
:10B18000DB684FF488711846FEF7C1FF7B68043313
:10B1900000211846FFF7B4F9F8657B6804330121F4
:10B1A0001846FFF7ADF9B8657B681B689B6AFA6DB6
:10B1B000D31A7B657B681B68DB6ABA6DD31A3B6563
:10B1C0007B681B68FA6D9A627B681B68BA6DDA62ED
:10B1D0007B6D002B02D13B6D002B6DD07B681B6813
:10B1E0001B6B7A6D934228BF13467B667A6D7B6E2C
:10B1F000D31A3B66002387F820307B681B689B6965
:10B200007B627B6EBB627B681A687B681B68D26955
:10B210009A617B681B680022DA617B681B681B6A85
:10B22000002B14D07B681A687B681B68126ADA618D
:10B230007B681B6800221A627B68D8687B681B6881
:10B24000D9697B681B681B6B1A46FFF759F87B6846
:10B250001B685B6A7A681268526B07F1200110461E
:10B2600098473B6E002B09D17B681B681B6B7A6D7E
:10B270009A4221D1FA6DBB6D9A421DD107F1140398
:10B2800000221A605A609A6004233B753B6EBB61D2
:10B290007B681B685B6A7A681268526B07F114015D
:10B2A000104698477B681A687B681B68D2699A6168
:10B2B0007B681B680022DA617B68DB684FF4AC7145
:10B2C0001846FEF73BFF0346002B1ED07B68DB6869
:10B2D0004FF4AC711846FEF71AFF02233B727B68ED
:10B2E0001B68DB68FB607B681B681B693B617B68D4
:10B2F0001B680022DA607B681B685B6A7A681268E8
:10B30000526B07F10801104698477B68DB684FF4E1
:10B3100090711846FEF712FF0346002B5CD07B6845
:10B32000DB684FF490711846FEF7F1FE7B68DB682E
:10B330001846FEF7D8FFF8647B681B6859697B687C
:10B340001B68FA6C0A445A617B681B685A697B68FF
:10B350001B681B699A420DD17B68DB684FF4AC71A6
:10B360001846FEF7D4FE7B68DB680C211846FEF712
:10B3700061FF31E07B681B681A697B681B685B6949
:10B38000D31ABB64BB6CFF2B03D87868FFF77BFA3A
:10B3900022E07B681B68DA687B681B685B697968F8
:10B3A0000968098F0B4413447B647B68DB684FF4A6
:10B3B000A8711846FEF7C2FE7B68DB684FF4A871DF
:10B3C0001846FEF7A4FE7B68D8687B681B681B8F55
:10B3D0001A46796CFEF773FF00BF6837BD4680BD23
:10B3E00080B500AF034B1B681846FFF768FE00BF2F
:10B3F00080BD00BFACC0002080B483B000AF7860D7
:10B400004FF0A04318460C37BD465DF8047B7047EB
:10B4100080B584B000AF7860084611461A460346EE
:10B42000FB700B46BB7013467B703B1D1846FFF745
:10B43000E3FFF860FA78BB785B001A437B789B00E7
:10B440001A433B7E1B0242EA03013B7F1B047A68DE
:10B450001943FB6802F5E07243F8221000BF103771
:10B46000BD4680BD80B584B002AF786000230193F3
:10B47000002300930023012201217868FFF7C8FF11
:10B4800000BF0837BD4680BD80B586B000AF03461B
:10B49000FB7100200BF054F878617B693B613B69DC
:10B4A000002B04D00E4A2621386904F027FEFB79D0
:10B4B000002B0DD10BF0CAF978617B69FB60FB684A
:10B4C000002B07D0064A2D21F86804F017FE01E092
:10B4D00000BF00E000BF012318461837BD4680BDFD
:10B4E000A4E5030080B582B000AF0346FB71FB7991
:10B4F000043B0D2B38D801A252F823F063B50200AB
:10B5000069B5020069B5020069B5020069B50200BB
:10B5100069B502005BB5020069B5020069B50200B9
:10B5200069B5020035B5020069B5020069B50200CF
:10B5300055B50200FCF7BAFAFCF7E4FA0D4A0E4BD7
:10B54000D31ADB081B0443F003030C49184603F02D
:10B550004BFE0AE0FCF73CFE07E0002007F07CFA17
:10B5600003E0FBF799FF00E000BF00BF0837BD46CE
:10B5700080BD00BF7C0204003C020400C0E5030063
:10B5800080B584B000AF114903200AF0F3FFF860E2
:10B59000FB68BB60BB68002B04D00D4A7A21B868F9
:10B5A00004F0ACFDFB1C194600200BF0B3F9F86069
:10B5B000FB687B607B68002B04D0054A7D2178689E
:10B5C00004F09CFD00BF1037BD4680BDE5B402000D
:10B5D000A4E5030080B500AF1220FFF743FF14205D
:10B5E000FFF740FF1620FFF73DFF0A20FFF73AFF65
:10B5F0000B20FFF737FF0C20FFF734FF1320FFF776
:10B6000031FF00BF80BD80B485B000AF78600023FB
:10B61000FB60FB680133FB607A68FB6813441B78AE
:10B620000A2BF6D1FB680133FB60FB681846143720
:10B63000BD465DF8047B704780B582B000AF0A4A12
:10B64000C821082004F0BAFF78607B683B603B6843
:10B65000002B04D0054AAD21386804F04FFD00BF2F
:10B660000837BD4680BD00BFB4C00020A4E503007C
:10B6700080B485B000AF78607B689B68FB607B68B6
:10B68000DA68FB68D31A18461437BD465DF8047BA8
:10B69000704780B500AF03F043FE034683F001031B
:10B6A000DBB2002B01D007F07FF900BF80BD0000A6
:10B6B00080B582B000AF07F05FF978607B683B60CF
:10B6C0003B68002B04D0044AC921386804F016FDF9
:10B6D00000BF0837BD4680BDA4E5030080B582B039
:10B6E00000AF4FF48041002003F0D0FA78607B680F
:10B6F0003B603B68002B04D00A4AD021386804F034
:10B70000FDFC03F04BFA084A084BD31ADB081B0474
:10B7100043F003030649184603F066FD00BF0837EF
:10B72000BD4680BDA4E503007C0204003C02040089
:10B73000DCE5030080B590B000AF78600B467B80FD
:10B7400041E397F828300A2B00F0478397F8283018
:10B75000613B162B00F2198301A252F823F000BFBF
:10B76000F7B902008BBD02008BBD0200EBBC0200EA
:10B77000A9B9020083BB0200D9B90200BDB702001B
:10B7800091B802008BBD02008BBD020063B80200BD
:10B7900015BA02008BBD02008BBD020047B8020043
:10B7A00033BA020055BB0200BDBC02008BBD0200D3
:10B7B0008BBD02008BBD020013BC0200BE4ABF4B12
:10B7C000D31ADB081B0443F00303BD49184603F0FA
:10B7D0000BFDBC48FCF788FDBB48FCF785FDB9486C
:10B7E000FCF782FDB948FCF77FFDB948FCF77CFD0A
:10B7F000B848FCF779FDB848FCF776FDB748FCF788
:10B8000073FDB748FCF770FDB648FCF76DFDB64810
:10B81000FCF76AFDB548FCF767FDB548FCF764FD29
:10B82000B448FCF761FDA748FCF75EFDB248FCF7A1
:10B830005BFDA448FCF758FDB048FCF755FDA14856
:10B84000FCF752FDBFE29C4A9C4BD31ADB081B0459
:10B8500043F00303AA49184603F0C6FCFBF7D0FFE8
:10B86000B1E2954A954BD31ADB081B0443F003035E
:10B87000A449184603F0B8FC9248FCF735FDA248ED
:10B88000FCF732FDFCF74CF88E48FCF72DFD9AE2F0
:10B89000894A8A4BD31ADB081B0443F003039B49F4
:10B8A000184603F0A1FC07F124031846FCF7E0FF5B
:10B8B000F86397F82430302B36D0312B67D17E4A8D
:10B8C0007E4BD31ADB081B0443F003039049184650
:10B8D00003F08AFC4FF0FF3002F03CFFF863FB6B93
:10B8E0007B637B6B002B05D08A4A40F23111786B69
:10B8F00004F004FCFCF7E8FA6F4A704BD31ADB083B
:10B900001B0443F003038449184603F06DFC012037
:10B91000FCF73AF86B48FCF7E7FC8048FCF7E4FCDE
:10B920006848FCF7E1FC3EE0634A644BD31ADB084D
:10B930001B0443F003037A49184603F055FC02F058
:10B940004DFFF863FCF71AFBFB6B3B633B6B002B73
:10B9500005D0704A4FF4A271386B04F0CFFB564A01
:10B96000564BD31ADB081B0443F003036D491846FA
:10B9700003F03AFC0020FCF707F85248FCF7B4FC4F
:10B980006948FCF7B1FC4F48FCF7AEFC0BE04A4AB3
:10B990004A4BD31ADB081B0443F0030363491846E0
:10B9A00003F022FC00BF0EE2434A444BD31ADB08EB
:10B9B0001B0443F003035E49184603F015FC41489D
:10B9C000FCF792FC5B48FCF78FFC3E48FCF78CFCD4
:10B9D0000120FBF7E9FFF6E1374A384BD31ADB08C1
:10B9E0001B0443F003035449184603F0FDFB0120F8
:10B9F000FBF7ECFFE7E1304A304BD31ADB081B04BE
:10BA000043F003034D49184603F0EEFB0120FBF71A
:10BA1000EDFFD8E1284A294BD31ADB081B0443F079
:10BA200003034749184603F0DFFB0120FBF7EEFF55
:10BA3000C9E1214A214BD31ADB081B0443F003035D
:10BA40004049184603F0D0FB07F120031846FCF7E5
:10BA50000FFFF86397F82030362B02D0392B0FD028
:10BA60001DE0154A154BD31ADB081B0443F00303F2
:10BA70003549184603F0B8FB0120FBF7D7FF1AE061
:10BA80000D4A0E4BD31ADB081B0443F003032F4966
:10BA9000184603F0A9FB0120FBF7D8FF0BE0064A8C
:10BAA000064BD31ADB081B0443F00303284918464E
:10BAB00003F09AFB00BF86E17C0204003C02040014
:10BAC000F8E503000CE6030038E6030064E6030033
:10BAD00068E6030080E60300A8E60300C4E603006E
