:020000022000DC
:1060000000000120CD890200F5890200F789020015
:10601000F9890200FB890200FD89020000000000EE
:10602000000000000000000000000000FF890200E6
:10603000018A020000000000038A0200058A0200B3
:1060400011E40200C576020049F10200078A02004D
:10605000078A0200078A020051F00200078A020044
:10606000078A0200078A0200078A0200078A0200E4
:10607000078A0200078A0200078A0200078A0200D4
:10608000078A02001DB80200078A0200078A020080
:10609000078A0200078A02009D7B0300A17F02009D
:1060A000078A0200078A0200078A0200078A0200A4
:1060B000078A0200078A02000000000000000000BA
:1060C000078A0200078A0200078A0200078A020084
:1060D000078A0200078A0200078A02000000000007
:1060E00000000000000000000000000000000000B0
:1060F00000000000000000000000000000000000A0
:10610000000000000000000000000000000000008F
:10611000000000000000000000000000000000007F
:10612000000000000000000000000000000000006F
:10613000000000000000000000000000000000005F
:10614000000000000000000000000000000000004F
:10615000000000000000000000000000000000003F
:10616000000000000000000000000000000000002F
:10617000000000000000000000000000000000001F
:10618000000000000000000000000000000000000F
:1061900000000000000000000000000000000000FF
:1061A00000000000000000000000000000000000EF
:1061B00000000000000000000000000000000000DF
:1061C00000000000000000000000000000000000CF
:1061D00000000000000000000000000000000000BF
:1061E00000000000000000000000000000000000AF
:1061F000000000000000000000000000000000009F
:1062000010B5054C237833B9044B13B10448AFF3F0
:1062100000800123237010BDA89B00200000000017
:10622000D4E1030008B5034B1BB103490348AFF3A6
:10623000008008BD00000000AC9B0020D4E10300FA
:10624000A3F5803A704700BF174B002B08BF134BD4
:106250009D46FFF7F5FF00218B460F461348144A71
:10626000121A11F06FFF0E4B002B00D098470D4B08
:10627000002B00D098470020002104000D000D489D
:10628000002802D00C48AFF3008011F019FF200065
:1062900029000EF0F9FB11F0FFFE00BF000008001E
:1062A000000000000000000000000120A89B00206A
:1062B00078BD0020000000000000000080B483B022
:1062C00000AF0346FB71FB79054A012101FA03F394
:1062D000C2F8083500BF0C37BD465DF8047B704737
:1062E00000F0014080B485B000AF0346B9607A6029
:1062F000FB730949FB7BA233BA6841F83320064A95
:10630000FB7BA233DB0013447A685A6000BF14376A
:10631000BD465DF8047B704700F0014080B483B057
:1063200000AF03463960FB710649FB7903F5117331
:106330003A6841F8232000BF0C37BD465DF8047B66
:10634000704700BF00F0014080B483B000AF034647
:10635000FB71FB79012202FA03F318460C37BD46A4
:106360005DF8047B704780B483B000AF0346FB71D7
:10637000FB79012202FA03F318460C37BD465DF89B
:10638000047B704780B582B000AF0346FB71FB7998
:106390001846FFF7D9FF0346C3F31003002B14BFC1
:1063A00001230023DBB218460837BD4680BD00003C
:1063B00080B582B000AF0346FB71FB791846FFF74A
:1063C000C3FF0246054B1B681340002B14BF01237B
:1063D0000023DBB218460837BD4680BDC49B0020B1
:1063E00080B582B000AF0346FB71FB791846FFF71A
:1063F000ABFF0246044B1B681343034A136000BF04
:106400000837BD4680BD00BFC49B002080B582B068
:1064100000AF0346FB71FB791846FFF795FF034673
:10642000DA43044B1B681340024A136000BF08376D
:10643000BD4680BDC49B002090B583B000AF03462D
:10644000FB71094B1B781C46FB791846FFF78BFF45
:1064500003462340002B14BF01230023DBB2184660
:106460000C37BD4690BD00BFC89B002080B582B0F0
:1064700000AF0346FB71FB791846FFF774FF034634
:10648000DAB2054B1B781343DAB2034B1A7000BF24
:106490000837BD4680BD00BFC89B002080B586B0D0
:1064A00000AF786000233B6100237B6104233B61E4
:1064B000224B7B610023FB7335E00023BB7307F1A4
:1064C0000E03184604F00AFEFB7B1846FFF73CFF5C
:1064D00002467B691340002B12D0FB7B1846FFF766
:1064E00067FF034683F00103DBB2002B08D0FB7B80
:1064F0001846FFF775FF7B68FA7B1A7000233B6133
:10650000BB7B184604F0F5FD3B69002B0FD0FB7BED
:106510001846FFF719FF0346DB437A6913407B6196
:10652000FB7B0133FB737B69002BC6D100E000BF0E
:106530003B6918461837BD4680BD00BFFFFF01000C
:1065400080B584B000AF0346FB710023FB60FB798C
:106550001846FFF717FF034683F00103DBB2002B59
:1065600002D00723FB6012E0FB791846FFF7A6FE76
:106570000023FB7207F10B03184604F0AFFDFB7913
:106580001846FFF743FFFB7A184604F0B2FDFB689C
:1065900018461037BD4680BD80B586B000AF0346B3
:1065A000B9607A60FB73BB68002B02D07B68002B5C
:1065B00001D10E2322E000237B61FB7B1846FFF70D
:1065C000E1FE034683F00103DBB2002B02D0072378
:1065D0007B6112E0FB7B1846FFF7EAFE034683F07F
:1065E0000103DBB2002B02D008237B6105E0FB7BBB
:1065F0007A68B9681846FFF775FE7B691846183740
:10660000BD4680BD80B584B000AF03463960FB71E4
:106610000023FB60FB791846FFF7CAFE034683F0B0
:106620000103DBB2002B02D00823FB6004E0FB79FE
:1066300039681846FFF772FEFB6818461037BD46EA
:1066400080BD80B586B000AF786000233B61042335
:106650007B610F233B610023FB7335E00023BB7399
:1066600007F10E03184604F039FDFB7B1846FFF7CF
:106670007AFE02463B691340002B12D0FB7B184682
:10668000FFF7DAFE034683F00103DBB2002B08D0EC
:10669000FB7B1846FFF7EAFE7B68FA7B1A70002343
:1066A0007B61BB7B184604F024FD7B69002B0FD077
:1066B000FB7B1846FFF757FE0346DB433A6913405E
:1066C0003B61FB7B0133FB733B69002BC6D100E0D0
:1066D00000BF7B6918461837BD4680BDA1DF7047F3
:1066E00000BF1846A3DF704700BF184662DF70473F
:1066F00000BF184680B582B000AF294B1A68294BFD
:106700001B689A4248D0264B1A68274913469B00BB
:1067100013449B000B4402331B78002B18D1204BF1
:106720001A68214913469B0013449B000B441888A8
:106730001B4B1A681C4913469B0013449B000B44D7
:1067400004331B8800221946FFF7C8FF786015E064
:10675000134B1A68144913469B0013449B000B44C7
:1067600018880F4B1A6813469B0013449B000E4A6F
:10677000134408331946FFF7B5FF78607B68002B98
:106780000AD1074B1B680133054A1360044B1B6891
:1067900003F00703024A136000BF0837BD4680BDFF
:1067A000709C00206C9C0020CC9B002080B582B0A7
:1067B00000AF786039607B681A883B689B889A4292
:1067C00002D1FFF797FF00E000BF0837BD4680BD4C
:1067D000B0B5ACB000AF786039607B681A883B68B0
:1067E0009B889A4252D17B681B88FB813B685A89FF
:1067F0007B681B8C9A4209D105233B733B6810339D
:1068000007F110040FCB84E80F0037E03B685A898A
:106810007B681B8B9A420AD108233B733B6803F1C8
:10682000100207F1100307CA83E8070026E03B685F
:106830005A897B685B8C9A420ED107233B733B6875
:10684000103307F110041D4628686968AA68EB68D0
:106850000FC42B8A238011E03B685A897B689B8B8D
:106860009A420BD104233B733B6803F1100207F1FA
:1068700010031146A022184611F056FC7B68DB6A13
:1068800007F10C0211467868984700E000BFB03766
:10689000BD46B0BD80B483B000AF786039607B681E
:1068A0001A883B689B889A423FD17B684FF6FF72FB
:1068B0001A807B6800225A807B680022DA827B681B
:1068C00000229A807B680022DA807B6800221A818D
:1068D0007B6800225A817B6800229A817B680022B3
:1068E000DA817B6800221A827B6800225A827B68E8
:1068F00000229A827B6800221A837B6800225A83D6
:106900007B6800229A837B680022DA837B680022FE
:106910001A847B6800225A847B6800229A847B68F0
:106920000022DA847B6800221A8500BF0C37BD463E
:106930005DF8047B7047000080B5AEB000AF7860B2
:1069400039603B681B78002B40F04E813B689B8888
:10695000B3F5806F40F048813B689A797B6893F883
:1069600030309A4240F0408101233B733B685B88A2
:10697000FB810023C7F8B43011E1D7F8B4201346E7
:10698000DB0013445B0008333A6813440633C7F84E
:10699000B0309E4A9E4BD31ADB081B0443F0030021
:1069A000D7F8B0301B88D7F8B4209A4902F0BEFC63
:1069B000D7F8B0301B88A3F20143092B00F2E9801D
:1069C00001A252F823F000BFF16902001F6A020021
:1069D0004D6A0200776A02009F6A0200C76A0200DD
:1069E000F16A02001B6B0200436B02006B6B02003A
:1069F000D7F8B0305B893B82D7F8B0301B89BB84B5
:106A0000824A834BD31ADB081B0443F00300D7F8F8
:106A1000B0301B891A46804902F075FCBAE0D7F8FD
:106A2000B0305B893B84D7F8B0301B89BB86774A8E
:106A3000774BD31ADB081B0443F00300D7F8B030C0
:106A40001B891A46754902F05EFCA3E0D7F8B03006
:106A50005B89FB82D7F8B0301B897B856B4A6C4B16
:106A6000D31ADB081B0443F003037A8D6C491846E4
:106A700002F049FC8EE0D7F8B0305B897B83D7F811
:106A8000B0301B89FB85614A614BD31ADB081B04BC
:106A900043F00303FA8D6349184602F034FCD7F83B
:106AA000B0305B893B83D7F8B0301B89BB85574A30
:106AB000574BD31ADB081B0443F00303BA8D5A4922
:106AC000184602F020FCD7F8B0305B89BB83D7F8BA
:106AD000B0301B893B864D4A4D4BD31ADB081B0453
:106AE00043F003033A8E5149184602F00CFC51E082
:106AF000D7F8B0305B897B82D7F8B0301B89FB8434
:106B0000424A434BD31ADB081B0443F00303FA8CBD
:106B10004749184602F0F7FB3CE0D7F8B0305B89F4
:106B2000FB83D7F8B0301B897B86384A384BD31AA1
:106B3000DB081B0443F003037A8E3E49184602F03B
:106B4000E2FBD7F8B0305B89BB82D7F8B0301B8945
:106B50003B852E4A2E4BD31ADB081B0443F003035C
:106B60003A8D3549184602F0CEFBD7F8B0305B8934
:106B70007B84D7F8B0301B89FB86244A244BD31A78
:106B8000DB081B0443F00303FA8E2C49184602F07D
:106B9000BAFB00BFD7F8B4300133C7F8B4303B6854
:106BA0001B7A1A46D7F8B4309342FFF4E6AE7B68FE
:106BB0001B884FF6FF7293420DD0144A144BD31A20
:106BC000DB081B0443F003031D49184602F08CFB4D
:106BD0007B6800225A807B68DB6A07F10C02114651
:106BE0007868984700BF0CE03B681B78002B08D002
:106BF00000233B737B68DB6A07F10C02114678685F
:106C0000984700BFB837BD4680BD00BF4CE20300C7
:106C1000ECE103002CBD030040BD03005CBD03009C
:106C200074BD03008CBD0300ACBD0300D0BD0300E8
:106C3000F0BD03000CBE030030BE03004CBE0300D9
:106C400068BE030090B58BB000AF78603960404BF0
:106C500007F10C040FCB84E80F007B68002B01D1F7
:106C60000E2371E03B68002B01D10E236CE03B68E2
:106C70001B68002B01D10E2366E07B6800225A803E
:106C80007B680022DA827B6800229A807B6800227F
:106C90001A837B680022DA807B6800225A837B6833
:106CA00000221A817B6800229A837B6800225A8125
:106CB0007B680022DA837B6800229A817B6800224D
:106CC0001A847B680022DA817B6800225A847B6800
:106CD00000221A827B6800229A847B6800225A82F2
:106CE0007B680022DA847B6800229A827B6800221B
:106CF0001A857B684FF6FF721A803B681A687B68BA
:106D0000DA627B6803F1300207F10C031146184682
:106D1000FFF7ECFC78627B6A002B01D07B6A13E002
:106D20007B6A3B623B6A002B01D03B6A0CE07B68CC
:106D300093F83030BB774FF48063BB8307F11C03BB
:106D400018460FF015F8034618462C37BD4690BD7F
:106D500090BE030080B584B000AF786039603B68B6
:106D6000002B1ED07B68002B1BD03B68FB607B6830
:106D70001B88392B06D0392B15DC112B0CD0382B66
:106D800005D010E07968F868FFF722FD0CE079681B
:106D9000F868FFF70BFD07E07968F868FFF77AFD00
:106DA00002E000BF00E000BF1037BD4680BD00001C
:106DB00080B584B000AF0346FB800B46BB80134612
:106DC000FB70FB78FB811C4B1A68531C1A490B6043
:106DD00013469B0013449B00184A1344BB60164B98
:106DE0001B6803F00703144A1360BB68BA885A8112
:106DF000BB680222DA81BB681A1DBB681A61BB68D6
:106E000000229A81BB6801221A72FB89DAB2BB6840
:106E10001A71FB891B0A9BB2DAB2BB685A71BB6854
:106E2000FA881A80BB6801229A70FFF763FC00237E
:106E300018461037BD4680BD6C9C0020CC9B0020BE
:106E400080B582B000AF78607B68002B01D10E2343
:106E500010E07B681B884FF6FF72934201D1082334
:106E600008E07B6818887B689B8901221946FFF738
:106E70009FFF034618460837BD4680BD80B582B0E7
:106E800000AF78607B68002B01D10E2310E07B6897
:106E90001B884FF6FF72934201D1082308E07B68FC
:106EA00018887B681B8901221946FFF781FF03467A
:106EB00018460837BD4680BD80B582B000AF786007
:106EC0007B68002B01D10E2310E07B681B884FF6F6
:106ED000FF72934201D1082308E07B6818887B6821
:106EE0009B8801221946FFF763FF034618460837BF
:106EF000BD4680BD80B582B000AF78607B68002B56
:106F000001D10E2310E07B681B884FF6FF7293427D
:106F100001D1082308E07B6818887B68DB8901229F
:106F20001946FFF745FF034618460837BD4680BDA2
:106F300080B586B000AF786039600C23FB827B6837
:106F4000002B01D10E2327E07B681B884FF6FF72D0
:106F5000934201D108231FE0FB8AF42B01D90723B8
:106F60001AE007F108030C220021184611F0EAF894
:106F700001233B727B68DB8A7B81FB8AFB813B6858
:106F80003B6101237B727B681B8807F10802114675
:106F90001846FFF7A7FB034618461837BD4680BDC5
:106FA000F0B484B000AFF8600B467A607B81FB6878
:106FB000002B01D10E2320E0FB687A891A807B68C0
:106FC000002B19D0FA687B68901C03F1200402465C
:106FD0001946D1F800C04E688D68C968C2F800C073
:106FE00056609560D16010331030A342EFD1024655
:106FF00019685B6811605360002318461037BD465E
:10700000F0BC704780B584B000AF786039603B68F1
:107010005B099B007A681A443B6803F01F03012157
:1070200001FA03F31946104604F04CFDF86000BF66
:107030001037BD4680BD80B584B000AF7860396040
:107040003B685B099B007A681A443B6803F01F03A6
:10705000012101FA03F3DB431946104604F064FDF5
:10706000F86000BF1037BD4680BD80B483B000AF6C
:10707000786039603B685B099B007A6813441A6842
:107080003B6803F01F0322FA03F303F00103002B14
:1070900014BF01230023DBB218460C37BD465DF850
:1070A000047B704780B500AF7C220021024811F0BC
:1070B00049F800BF80BD00BF749C0020B0B58EB001
:1070C00000AF786039600023BB603B68002B1BD0A9
:1070D00000237B6315E03B46796B1846FFF7C5FF3D
:1070E0000346002B0AD0BB685A1CBA607A6B92B276
:1070F0005B0007F138010B4423F82C2C7B6B013328
:107100007B637B6B132BE6D97B681D4607F1080474
:107110000FCC0FC50FCC0FC594E8070085E807001A
:1071200078683837BD46B0BD80B584B000AF7860B0
:107130000023FB600023BB600DE03B1DB9681846CF
:10714000FFF793FF0346002B02D0FB680133FB607F
:10715000BB680133BB60BB68132BEED9FB681846D4
:107160001037BD4680BD000080B582B000AF034639
:10717000FB80FB88132B01D900230AE0FB8819460A
:107180000648FFF73FFFFB8819460548FFF73AFF1F
:10719000012318460837BD4680BD00BF7C9C0020F7
:1071A000789C002080B584B000AF0346FB800023AC
:1071B000FB600CE0FB689B00094A13440433FA8827
:1071C00011461846FFF737FFFB680133FB60FB6889
:1071D0001D2BEFD900BF00BF1037BD4680BD00BFDB
:1071E000749C002080B582B000AF0346FB80FB8812
:1071F00019460348FFF71FFF00BF0837BD4680BD93
:107200007C9C0020B0B59AB000AF1B4B9B68DB4361
:107210003B66194B5A6807F160031146184604F0A3
:1072200083FC3A6E3B4611461846FFF747FF07F1CD
:1072300034043D460FCD0FC40FCD0FC495E80700B1
:1072400084E8070000237B660CE07B6E5B0007F19F
:107250006802134433F8303C1846FFF7A3FF7B6EF7
:1072600001337B667B6B7A6E9A42EED300BF00BF20
:107270006837BD46B0BD00BF749C002080B500AF2C
:10728000FFF710FF00BF80BD80B582B000AF78600F
:107290000B467B8013467B707B78002B05D07B8868
:1072A00019467868FFF7AEFE04E07B8819467868D7
:1072B000FFF7C1FE00BF0837BD4680BD80B584B072
:1072C00000AF786039607B689B88FB817B681B8896
:1072D000103B0A2B77D801A252F823F00973020061
:1072E0003D730200C7730200C7730200C773020038
:1072F000C7730200C7730200C7730200C77302009E
:107300009773020047730200FFF77CFFFB89184662
:10731000FFF72AFF034683F00103DBB2002B03D003
:10732000042002F01BFF4BE07B68DB7B022B47D184
:10733000FB8919462648FFF765FE41E0FB891846A0
:10734000FFF750FF3FE07B681B7AC3F30313DBB208
:107350007B737B7B032B8CBF01230023DAB2FB8979
:1073600019461C48FFF790FF7B7B022B8CBF012343
:107370000023DAB2FB8919461748FFF785FF7B7BAC
:10738000012B8CBF01230023DAB2FB891946134875
:10739000FFF77AFF17E07B681B7A002B12D17B681E
:1073A0005B7AC3F3C003DBB2002B14BF01230023BD
:1073B0003B733A7BFB8919460648FFF765FF01E0FE
:1073C00000BF00E000BF00BF1037BD4680BD00BF5A
:1073D000809C00208C9C0020889C0020849C0020A5
:1073E00080B582B000AF094BDB687B60074B9A68C1
:1073F0003B1D1146184604F097FB7B681846FFF7C3
:1074000093FE034618460837BD4680BD749C002095
:1074100080B584B000AF78600A4BDB68FB60094B35
:107420009A6807F10C031146184604F07DFBFA68D0
:107430007B6811461846FFF741FE78681037BD4655
:1074400080BD00BF749C002080B483B000AF0346B1
:10745000FB7197F90730002B0BDBFB7903F01F0260
:10746000074997F907305B09012000FA02F241F859
:10747000232000BF0C37BD465DF8047B704700BF7A
:1074800000E100E080B483B000AF0346FB7197F9E0
:107490000730002B12DBFB7903F01F020A4997F932
:1074A00007305B09012000FA02F2203341F8232063
:1074B000BFF34F8F00BFBFF36F8F00BF00BF0C370C
:1074C000BD465DF8047B704700E100E080B483B006
:1074D00000AF0346FB7197F90730002B0CDBFB79FB
:1074E00003F01F02074997F907305B09012000FAF2
:1074F00002F2603341F8232000BF0C37BD465DF82F
:10750000047B704700E100E080B483B000AF034625
:107510003960FB7197F90730002B0ADB3B68DAB260
:107520000C4997F907305201D2B20B4483F800237B
:107530000AE03B68DAB20849FB7903F00F03043B29
:107540005201D2B20B441A7600BF0C37BD465DF82B
:10755000047B704700E100E000ED00E032DF70479F
:1075600000BF184642DF704700BF184648DF70472B
:1075700000BF184649DF704700BF18464ADF704712
:1075800000BF184680B483B000AF0346FB71FB799F
:10759000054A012101FA03F3C2F8043500BF0C3794
:1075A000BD465DF8047B704700F0014080B483B0B5
:1075B00000AF0346FB71FB79054A012101FA03F391
:1075C000C2F8083500BF0C37BD465DF8047B704734
:1075D00000F0014080B483B000AF78600E4B1B68B0
:1075E000002B12D10D4B1A687B6813440B4A1360B1
:1075F0000A4B1B680A4A934208D90A4B5B6901226D
:10760000DA60064B00221A6000E000BF0C37BD466E
:107610005DF8047B704700BFAC9D0020889D002072
:107620003F420F00909D002080B483B000AF78608F
:107630000E4B1B68002B12D00D4B1A687B6813444D
:107640000B4A13600A4B1B680A4A934208D30A4B41
:107650005B6901221A61064B00221A6000E000BF3C
:107660000C37BD465DF8047B704700BFAC9D002021
:107670008C9D002080969800909D002080B582B05F
:1076800000AF01210C4804F068FA02460B4BA3FB43
:107690000213D9080B469B000B445B00D31A7B6096
:1076A0007A6813465B0013449B00054A134418464E
:1076B0000837BD4680BD00BF689D0020CDCCCCCC36
:1076C000F09C002080B582B000AF1F4BD3F80C3186
:1076D000002B35D01C4B0022C3F80C211A4BD3F8D9
:1076E0000C311A4B1B78DBB2012B26D1164BD3F889
:1076F000003403F00103012B1FD1134BD3F80435E1
:107700007B60786800F0EEFC0346FB70104B1B8A30
:1077100001339AB20E4B1A82FB78002B09D0FFF787
:10772000ADFF7860084A7B68C2F80435094B002237
:107730001A600121084804F029FA034B01229A60DB
:1077400000BF0837BD4680BD00100040CC9D002022
:10775000888F0020889D0020C09D002080B582B0C9
:1077600000AF0346FB71FB79042B00F2DF8001A21E
:1077700052F823F0897702000D780200C5780200E4
:10778000CB780200DB7802006F4B01225A606E4B0F
:107790000122DA606C4B0022C3F804256A4B0022F8
:1077A000C3F84021684B0022C3F84421674B1B6893
:1077B000002B05D0644B4FF48032C3F8042304E05F
:1077C000614B4FF44032C3F804235F4B4FF4FA721D
:1077D000C3F840255C4B4FF49672C3F844255A4BCE
:1077E0000222C3F80825584B01221A60584B012287
:1077F000C3F8FC2F0820FFF727FE564B00221A6023
:10780000554B00221A6000F041F997E04E4BD3F837
:107810004031002B32D04C4BD3F8043303F4803387
:10782000002B2BD0484B01225A60474B0022C3F853
:107830004021454BD3F8403100F012F9434B1B680F
:10784000002B19D0454B1B68454A12689B1A454AC4
:107850009360424B1B681846FFF7E6FE424B1B68DD
:10786000002B04D0404804F0EAF9404B67E03C4B61
:1078700000221A603E4B62E03C4B60E0324BD3F892
:107880004431002B59D0304BD3F8043303F4003388
:10789000002B52D02C4B0022C3F844212A4BD3F8A2
:1078A00044312C4B1B68334A934205D8274B1B6845
:1078B000002B01D1304B42E0244B1B68002B3CD104
:1078C0002A4B3CE0FFF7FEFE38E000F0C9F84FF429
:1078D0007A70FFF77FFE254B31E01B4B01225A6087
:1078E000194B0022C3F84021174B0022C3F8442152
:1078F000154BD3F84035144A03F2CF33C2F8403564
:10790000114BD3F84435104A03F2CF33C2F8443553
:107910000D4B01221A600F4B1B6803F57A730D4A59
:1079200013604FF47A70FFF755FE07E0134A4FF4E7
:10793000D771134802F028FC00E000BF114B184635
:107940000837BD4680BD00BF00800040AC9D0020D0
:1079500000100040789D0020849D00207C9D002028
:10796000809D0020AC8F0020B49D0020C48F00209B
:10797000BC8F00208F08A107CC8F0020ACBE030075
:1079800078563412D09D002080B582B000AF786068
:107990002F4B0022C3F80C252D4B0122C3F81025D4
:1079A0002B4B0122C3F85026294B0322C3F8342560
:1079B000274B6FF07F42C3F83C25254B254AC3F87F
:1079C0003825234B0022C3F81425214B224AC3F843
:1079D00018251F4A7B68C2F80435204B5A781C4B87
:1079E000C3F824251D4B9B781A061C4BDB781B041F
:1079F0001A431A4B1B791B021343184A52791A4334
:107A0000134BC3F81C25124B0022C3F82C25104B36
:107A10000122C3F83025114B1A780D4BC3F8082505
:107A20000B4B0422C3F80C25094B0022C3F80C2190
:107A3000074B4FF0FF32C3F80823054B0822C3F869
:107A400004230120FFF700FD00BF0837BD4680BDBD
:107A500000100040211001000C0C0401909D00203A
:107A600080B500AF074B01221A61064B4FF0FF3281
:107A7000C3F8082300F01CFD034B00221A7000BF5E
:107A800080BD00BF00100040CC9D002080B582B0BA
:107A900000AF344B00221A60334B1B68002B1CD103
:107AA000324B1B78DBB2012B04D1314BD3F850356C
:107AB000032B52D0FFF7E2FD78607868FFF764FF90
:107AC0002B4B0122C3F80022294B01225A6000F0FF
:107AD00003FC264B01221A703FE0244B1B78DBB2DB
:107AE000012B0DD1224B0022C3F81021204B012283
:107AF0001A6100E000BF1E4BD3F81031002BF9D003
:107B0000FFF7BCFD786000F017FC7868FFF73CFFDA
:107B1000174B0322C3F80022154B01221A6000E024
:107B200000BF134BD3F80031002BF9D0114BDB68A9
:107B3000D3F844351A467B681A600E4B1B69D3F89C
:107B400044257B689A600C4B1B8A01339AB20A4B1E
:107B50001A82064B02221A7000E000BF0837BD46A9
:107B600080BD00BF789D0020AC9D0020CC9D0020F2
:107B700000100040909D0020888F002080B588B0C4
:107B800000AF786039607B68023B062B00F287808B
:107B900001A252F823F000BFB97C0200B97C0200B8
:107BA000B57B0200B57B0200297C0200717C0200DB
:107BB0004D7C0200454B1B68002B7FD1444B1B685A
:107BC000002B1ED0434B1B68042B1AD8414B1B685B
:107BD0000133404A13603F4B1B6802333E4A126830
:107BE00002FB03F33D4A93603C48FFF7C7FC786112
:107BF0007B693B613B69002B10D0386902F0AEFA1B
:107C00000CE03748FFF7BAFCF860FB68BB60BB6864
:107C1000002B04D0B86802F0A1FA00E000BF0121F7
:107C2000304803F0B3FF49E02F4A304BD31ADB084A
:107C30001B0443F001032E49184601F055FB2D4A61
:107C400040F255212C4802F09FFA3AE02B4803F00D
:107C5000F6FF1E4803F0F3FF234A244BD31ADB0838
:107C60001B0443F003032649184601F03DFB28E0BE
:107C70001D4A1E4BD31ADB081B0443F003032149A2
:107C8000184601F031FBFFF775FCF861FB69BB6139
:107C9000BB69002B14D0B86902F060FA10E0124AF8
:107CA000124BD31ADB081B0443F003037A6816490E
:107CB000184601F028FB04E000BF02E000BF00E02E
:107CC00000BF00BF2037BD4680BD00BF709D0020B3
:107CD000AC9D0020849D00207C9D0020AC8F002066
:107CE0009C8F0020749D002094E20300ECE10300CF
:107CF000CCBE0300ACBE0300785634126C9D00204D
:107D0000FCBE03001CBF03003CBF030080B400AFF7
:107D10000F4B1B6901225A600D4B1B690122DA606F
:107D20000B4B1B690022C3F81025094B1B6901226C
:107D3000C3F80425064B1B690322C3F80825044B2E
:107D40001B6901221A6000BFBD465DF8047B7047C5
:107D5000909D002080B400AF234BDB6801225A6065
:107D6000214BDB680122DA601F4BDB680022C3F87D
:107D700010251D4BDB680322C3F808251A4BDB686E
:107D800049F64042C3F84025174BDB684FF0FF32FD
:107D9000C3F84425144BDB684FF0FF32C3F8482585
:107DA000114BDB684FF0FF32C3F84C250E4BDB68FC
:107DB0000E4A934204D00C4BDB680D4A934205D126
:107DC000094BDB6844F62062C3F85025064BDB689C
:107DD0000122C3F80022044BDB6801221A6000BFB5
:107DE000BD465DF8047B7047909D002000A00140D7
:107DF00000B001402DE9B04F8CB000AF00F062FD43
:107E0000C7E90A01D7E90A2349F64041541843F16A
:107E1000000549F640424FF000032046294613F082
:107E2000EFFD02460B461046194602460B464FF040
:107E300000044FF000059D0045EA9275940022462B
:107E40002B4612EB000A43EB010B4FF000024FF000
:107E500000034FEACB0343EA5A734FEACA02924641
:107E60009B46BAEB00086BEB01094FF000024FF0A4
:107E700000034FEA091343EA18734FEA08129046C9
:107E8000994618EB00033B6049EB01037B604FF020
:107E900000024FF00003D7E9004529468B01214637
:107EA00043EA916321468A011C461346C7E9083418
:107EB000D7E90A2312F10801396143F100037B611C
:107EC0004FF000024FF00003D7E9044521460A09AC
:107ED000294642EA017229460B091146D7E90823CF
:107EE00012F10800B86043F10003FB604FF000029C
:107EF0004FF00003D7E9024520460209284642EA2E
:107F00000072284603091346CB1A03F6C413FB611B
:107F1000FB6918463037BD46BDE8B08F80B582B0EA
:107F200000AF786039601A4B1B68002B01D1082321
:107F30002AE0386800F0E4FA0346002B01D007235A
:107F400022E0144B00221A82124B00225A8200F0C7
:107F5000B9FC49F640424FF0000313F051FD0246D0
:107F60000B460C4B5A600C4B1A680C4B1B6979681A
:107F70008A1AC3F85025074A7B689360074B9B7A9F
:107F80001846FFF7FFFA002318460837BD4680BDA4
:107F90006C9D0020888F0020BC9D0020909D0020BB
:107FA00080B58CB000AF464BD3F80031002B3CD0ED
:107FB000434B0022C3F80021424B1B689B681946C3
:107FC000414803F04EFD414B99683F4B1A68404BC6
:107FD0001B698A1AC3F850253C4B5B8A01339AB25D
:107FE0003A4B5A82384B1B68384AD360394803F001
:107FF00026FE394B1B7883F00103DBB2002B14D033
:10800000354B01221A70354B1B68002B0DD007F140
:10801000180300221A605A609A60DA601A612F4BC6
:108020001B6807F1180210469847254BD3F8083112
:10803000002B10D0224B0022C3F80821244B9B7A3E
:108040001846FFF7B3FA254B1B68002B03D0234BD0
:108050001B681E4898471A4BD3F80C31002B1CD0D4
:10806000174B0022C3F80C211B4B1B78002B14D09C
:10807000194B00221A70194B1B68002B0DD03B1DA9
:1080800000221A605A609A60DA601A6101233B711B
:10809000124B1B683A1D10469847094BD3F8103114
:1080A000002B09D0064B0022C3F81021FFF7A2FED7
:1080B000F8620B4AFB6A136000BF3037BD4680BDD3
:1080C00000700140C49D0020BC9D0020888F0020CE
:1080D000909D0020B09D0020B89D0020C89D0020EC
:1080E000809D002080B586B000AF78603B4B1B6858
:1080F000002B01D000236CE07B681B683B613B696F
:1081000003F2D3133B61364BDB68D3F84435FB6095
:10811000FA683B699A4207D93A69FB68D31A03F5B2
:108120001C4340337B6103E03A69FB68D31A7B61EF
:108130007B69042B0BD82B4B5B8A01339AB2294BFA
:108140005A827B689B68274AD360002341E07B69A1
:10815000002B04D07B6949F6404293420BD1214B5E
:108160005B8A01339AB21F4B5A827B689B681D4A17
:10817000D36000232DE07B6949F64042934208D941
:10818000174BDA687B69A3F51C43403BC2F84835BE
:1081900007E0134BDA687B69C3F51C434033C2F830
:1081A00048357B689B685A1C7B689A607B689A6834
:1081B0000C4B9B689A4201D100230AE0074803F068
:1081C00024FD7B681946084803F04BFC00F086F953
:1081D000012318461837BD4680BD00BFB09D002062
:1081E000909D0020888F0020C49D002080B485B021
:1081F00000AF374B9B79FB60354BDB79BB60344B71
:10820000DB7A7B600122FB689A40324BC3F8082579
:108210002F4BDB6803F5A4732E4A1946FB68A23383
:1082200042F833102A4BDB680C332A4A1946FB68A4
:10823000A233DB0013445960254B1B690C33254ADC
:108240001946FB6803F5117342F823100122BB683D
:108250009A40204BC3F808251D4BDB6803F5A47337
:108260001C4A1946BB68A23342F833107B68DB0016
:10827000043303F1804303F5F833164A1946BB680B
:10828000A233DB0013445960114B5B69114A194654
:10829000BB6803F5117342F823100E4A7B68DB00BC
:1082A000134401225A600122FB689A400121BB68F5
:1082B00001FA03F31343074A19467B6803F5007379
:1082C00042F8231000BF1437BD465DF8047B7047A9
:1082D000909D002000F0014080B483B000AF134BAC
:1082E0001B7A7B60124A7B68A233124942F8331032
:1082F0000E4BDB6844330E4A19467B68A233DB0021
:10830000134459600A4A7B6803F51173002142F84F
:10831000231001227B689A40054BC3F8042500BF57
:108320000C37BD465DF8047B704700BF909D002070
:1083300000F001400411004080B483B000AF144B42
:108340009B797B60134A7B68A233134942F8331050
:108350000F4BDB6844330F4A19467B68A233DB00BE
:10836000134459600A4B1B6944330A4A19467B6817
:1083700003F5117342F8231001227B689A40054BE4
:10838000C3F8042500BF0C37BD465DF8047B704779
:10839000909D002000F001400011004080B483B0A7
:1083A00000AF154B5B7A7B60134BDB6803F5A07362
:1083B000124A19467B68A23342F833100E4B1B69F0
:1083C00008330E4A19467B68A233DB001344596018
:1083D0000A4A7B6803F51173002142F82310012239
:1083E0007B689A40054BC3F8042500BF0C37BD4697
:1083F0005DF8047B704700BF909D002000F00140B5
:1084000080B483B000AF7860144B5B6903F582736E
:10841000134A19467B68A23342F833100F4BDB68CE
:108420004C330F4A19467B68A233DB001344596072
:108430000A4B1B6940330A4A19467B6803F51173DE
:1084400042F8231001227B689A40054BC3F80425AB
:1084500000BF0C37BD465DF8047B7047909D00203F
:1084600000F0014080B483B000AF786001227B68E7
:108470009A400E4BC3F808250C4A7B68A2330021B2
:1084800042F83310094A7B68A233DB001344002210
:108490005A60064A7B6803F51173002142F82310E5
:1084A00000BF0C37BD465DF8047B704700F001400B
:1084B00080B483B000AF074B1B7A7B6001227B68DE
:1084C0009A40054BC3F8082500BF0C37BD465DF840
:1084D000047B7047909D002000F0014080B400AF05
:1084E000054B064AD27A1146012243F8312000BFDB
:1084F000BD465DF8047B704700F00140909D002070
:1085000080B584B000AF78600E4B987A0D4B1B6934
:1085100003F5A8737A681946FEF73EF8F860FB6821
:10852000002B01D0FB6809E0064B9A7A054B5B698A
:10853000083319461046FEF765F80346184610370B
:10854000BD4680BD909D002080B58AB000AFF86028
:10855000B9607A60374803F04BFB0346002B07D025
:108560000023FB61FB69002B02D1002001F0F6FD26
:1085700007F117031846FDF791FFB861FB7D184618
:10858000FFF73EFF2C4B1B78DBB2002B03D10023FF
:1085900087F8233002E0012387F8233097F823304F
:1085A000002B11D00120FEF76DFF244B5B690122E7
:1085B0005A60224B5B69D3F80431214B1B687B6204
:1085C0000120FEF741FF0AE01C4B5B6901225A6063
:1085D0001A4B5B69D3F80431194B1B687B6297F81F
:1085E000233083F00103DBB2002B04D0124B1B7845
:1085F000DBB2002BC6D1FB7D1846FFF733FFFB7DB6
:108600001846FDF79DFF0D4BDB68D3F84C25FB6842
:108610001A600A4B1B69D3F84025BB681A607B6857
:108620007A6A1A60034803F00AFB00BF2837BD4688
:1086300080BD00BFD89D0020CC9D0020909D0020D3
:10864000BC9D002080B584B000AF78607B681B685B
:10865000002B0BD07B685B68002B07D07B689B6886
:10866000002B03D07B681B69002B01D1072339E065
:108670007B68082219461D480FF056FD7B689B68F1
:108680001B4A53617B6893F90C20194B1A767B685F
:108690001B69184A13601848FDF7D3FFB860BB6820
:1086A000002B01D003231DE00023FB600FE0FB68DB
:1086B0000F4A134406331846FDF7F0FEB860BB6856
:1086C000002B01D003230DE0FB680133FB60FB6846
:1086D000042BECD9064B5B69084A934201D007236F
:1086E00000E0002318461037BD4680BD9C9D002049
:1086F000909D0020C89D00209B9D0020007001409F
:1087000080B584B000AF78607B68002B03D07B68B5
:108710000133002B01D1072369E0374B1B68002B85
:1087200001D0082363E0FEF71DFFF860FB68002B13
:1087300001D0FB685BE00020FEF710FF0246FB68FB
:108740001343FB60FB68002B01D0FB684FE07B68A4
:1087500001330522194629480FF0E6FC7B681A7898
:10876000274B1A702748FEF701FFF860FB68002BC3
:1087700001D0FB683BE02448FEF700FFF860FB688F
:10878000002B01D0FB6832E0FFF708FEFFF72EFD5B
:108790001B4B93F918301846FEF798FE184B93F9C7
:1087A000183007211846FEF7AFFE154B93F9183025
:1087B0001846FEF749FE124B5B694FF0FF32C3F8D3
:1087C00008230F4B5B691D22C3F804230F4B0022C3
:1087D0001A600F4B00221A700E4803F030FAFFF7B0
:1087E00095FAFFF7B7FA044803F00FFA002318468A
:1087F0001037BD4680BD00BF6C9D0020919D0020BC
:10880000909D00205D7702009C8F0020749D0020C9
:10881000CC9D0020AC9D002080B584B000AF786076
:108820007B68B3F1FF3F16D11E23BB60BB685B08BA
:1088300003F5742303F51073BA68B3FBF2F303F284
:10884000E243144AA2FB0323DB0A40F6C41202FBF4
:1088500003F3FB6004E0104A7B68B2FBF3F3FB60B8
:10886000FB680E4A934201D907230EE00C4AFB68CD
:108870001360FFF7BFFA03460A4A13600A4B00224F
:108880001A600A4803F0C1F9002318461037BD46A4
:1088900080BD00BF5917B7D140420F00FE1FA1078E
:1088A0007C9D0020809D00208C9D0020AC9D0020A0
:1088B00080B500AF024803F0C2F90023184680BD1E
:1088C000AC9D00202DE9B04F90B000AF07F12C0215
:1088D00007F1300107F134031846FFF735FE3B6B13
:1088E0000022BB61FA61D7E90623C7E90E23FB6AC0
:1088F00000221C461546D7E90E23111939616B4138
:108900007B61D7E90434C7E90E34D7E90E0102468A
:108910000B464FF000044FF000059D0045EA9275AC
:10892000940022462B4612EB000A43EB010B4FF05A
:1089300000024FF000034FEACB0343EA5A734FEAB9
:10894000CA0292469B46BAEB00086BEB01094FF056
:1089500000024FF000034FEA091343EA18734FEA8D
:1089600008129046994618EB0003BB6049EB0103DF
:10897000FB604FF000024FF00003D7E902452946A3
:108980008B01214643EA916321468A011C46134626
:10899000C7E90E347B6B00223B627A62D7E90E2373
:1089A000D7E90845214651183960294643EB0101B2
:1089B0007960D7E90034C7E90E34D7E90E231046B1
:1089C00019464037BD46BDE8B08F00000649074A4A
:1089D000074B9B1A03DD043BC858D050FBDC04F066
:1089E000EBFDFDF731FC000080E30300888F0020E1
:1089F000A89B0020FEE7FEE7FEE7FEE7FEE7FEE7B6
:108A0000FEE7FEE7FEE7FEE780B584B000AF7860E2
:108A10007B68002B0AD0074B43F00103FB607B68A7
:108A20009B01BB60FB68B868984700E000BF103747
:108A3000BD4680BD60BF030080B582B000AF7860E6
:108A40007B68002B0AD04FF47A70FFF7DDFF7B685C
:108A5000013B7B607B68002BF5D100E000BF08374D
:108A6000BD4680BD80B500AF0CF09AFA00BF80BD56
:108A700080B588B000AFF860B9607A607B68002B81
:108A800033D00023FB610323BB61BA68FB69134445
:108A90007A68194600200CF033FA7861FA697B692C
:108AA0001344FB617A687B69D31A7B607B69002B76
:108AB00013D1104B1B7883F00103DBB2002B13D1D1
:108AC0000120FFF7B9FFBB69013BBB61BB69002B0C
:108AD00003D1084B00221A7007E0064B01221A70DE
:108AE0007B68002BD1D100E000BF00BF2037BD461E
:108AF00080BD00BFDC9D002080B584B002AF7860EF
:108B00003960064B00934023054A3968786800F0C5
:108B10001DF800BF0837BD4680BD00BF718A020046
:108B2000E09D002080B483B000AF786000BF0C37B8
:108B3000BD465DF8047B704780B483B000AF7860B9
:108B400000BF0C37BD465DF8047B704780B5A0B010
:108B500002AFF860B9607A603B60B86803F03CFD32
:108B60007B68FB643B683B6500237B65002387F8DB
:108B700058300023FB65D7F880303B6600237B67C5
:108B800007F134017B6F0822B86803F0E9FD082380
:108B90007B67FB6B3B643B8FA7F844307B8FA7F868
:108BA0004630012387F8493097F8343003F0030347
:108BB000DBB2012B29D17B6BC3F39523BB6697F8FE
:108BC0003430C3F3C203DBB287F84830BB8EC3F343
:108BD0008313DBB27B667B6E9A0007F11C017B6F0F
:108BE000B86803F0BDFD7B6E9B007A6F13447B6712
:108BF00007F1400207F11C0107F14C0300931346F3
:108C00007A6EB86E00F0ECFE32E097F8343003F084
:108C10000303DBB2022B2BD1FB8EC3F389139BB270
:108C20003B6797F83430C3F3C203DBB287F84830B0
:108C30003B6F082B28BF0823FB6607F114017B6FED
:108C4000FA6EB86803F08CFD7A6FFB6E13447B6795
:108C50003A6FFB6ED31A3B6707F14C0307F14002F2
:108C600007F11400F96E00F05DFF3B6F002BDFD1C0
:108C7000B86803F0C1FC00BF7837BD4680BD80B442
:108C800083B000AF78607B68DB6801225A7100BF57
:108C90000C37BD465DF8047B7047000080B582B09C
:108CA00000AF4FF0FF337B60FFF7DCFE0421054887
:108CB00000F0A8FD78600348FFF7E1FF00BF083728
:108CC000BD4680BD68E3030080B582B000AF786028
:108CD00039607B681B681B6839687868984700BFF3
:108CE0000837BD4680BD80B582B000AF78607B6834
:108CF0001B685B687868984700BF0837BD4680BD31
:108D000080B582B000AF78607B681B689B6878682C
:108D1000984700BF0837BD4680BD80B483B000AF20
:108D200078600B46FB707B68DB68FA781A7100BFCD
:108D30000C37BD465DF8047B704780B483B000AF4C
:108D400078607B68DB681B7918460C37BD465DF898
:108D5000047B704780B483B000AF78607B68DB68C9
:108D600001225A7100BF0C37BD465DF8047B704785
:108D700080B483B000AF78607B68DB685B791846AD
:108D80000C37BD465DF8047B7047000080B584B0A9
:108D900000AF786039600C4B00221A700B4803F06A
:108DA00081FBF860FB68002B01D0FB6808E00848F5
:108DB00003F0DDFF074A084BD31ADB08BB60002332
:108DC00018461037BD4680BD889F00209CE20300F6
:108DD00078BF03009CE20300ECE1030080B400AF25
:108DE000044A054BD31ADB081846BD465DF8047BE0
:108DF000704700BF9CE20300ECE1030080B586B041
:108E000000AF78600B46FB70FB78002B1FD0FFF79C
:108E1000E5FF386100237B6113E07B699B000E4A0C
:108E20001344FB60FB681B881A467B681B689A42E8
:108E300004D17B687A691A60002309E07B690133F9
:108E40007B617A693B699A42E7D3052300E00023FE
:108E500018461837BD4680BDA49B002080B584B05D
:108E600000AF78600B46FB70FA783B1D1146184640
:108E7000FFF7C4FF0346002B07D17B68DB00054AE0
:108E80001344FB60FB681B6800E0002318461037A2
:108E9000BD4680BDECE1030080B485B000AF7860D2
:108EA0000B46FB707B68DB00144A1344BB60FB7805
:108EB000013B032B18D801A252F823F0CD8E0200FB
:108EC000D38E0200D98E0200E18E02000223FB73D2
:108ED0000DE00423FB730AE0BB681B79FB7306E01B
:108EE000BB685B79FB7302E00023FB7300BFFB7B75
:108EF00018461437BD465DF8047B7047ECE103006B
:108F000080B485B000AF786039600023FB737B6864
:108F10001B7803F00403DBB2002B23D07B681B78A3
:108F2000C3F30103DBB2012B02D0022B0CD017E0FC
:108F30003B681B687A681288C2F38312D2B213446A
:108F40009A1C3B681A600BE03B681B687A68528881
:108F5000C2F3891292B213449A1C3B681A6000BF94
:108F60000123FB73FB7B18461437BD465DF8047B79
:108F70007047000080B58AB000AF0023FB843848FA
:108F800002F043FE374802F040FE374B9B683B61DE
:108F9000364B1B68BB613A69BB69134002339B00C7
:108FA000314A134404333B6207F110031946386A0F
:108FB000FFF7A6FF0346002B09D03A69BB691340AF
:108FC00002339B00284A134404333B62ECE700BFA2
:108FD0000023FB6111E03B695A1C3A61BA691340F6
:108FE000FA699200391D0A441F4902339B000B4461
:108FF0005B681360FB690133FB61FB69012BEAD9F4
:109000003B79C3F30103DBB2012B0DD0022B16D148
:109010007B89FB84FB88C3F389139BB203339A08D3
:109020003B6913443B610BE07B89FB84BB88C3F342
:109030008313DBB21A463B6913443B6100E000BF77
:10904000084802F0EFFD78617B69002B02D03B6994
:10905000054A9360FB8C18462837BD4680BD00BF8B
:10906000A0A300209CA30020889F0020DC8F00206C
:1090700080B584B000AF0021074802F0F2FCF86030
:10908000FB68BB60BB6883F310037B607B6818469A
:109090001037BD4680BD00BFA4A3002080B588B0B6
:1090A00000AFF860B9607A603B60FB681B0CBB6185
:1090B000FFF7DEFFF861FB6919043B685A1CBB6AC5
:1090C0001340BA690A431B4902339B000B445A60A0
:1090D0003A68BB6A134002339B00164A13440433B8
:1090E0007B61FB6803F00703D9B27A69137861F3F7
:1090F000C50313707B6803F00F03D9B27A69138834
:1091000061F389131380BB68C3F315017A6913688F
:1091100061F39F2313607A691378012161F30103DE
:1091200013707A6913786FF38203137000BF2037CE
:10913000BD4680BD889F002080B58CB000AFF86030
:10914000B9601346FB71FB680233BB62012387F8E9
:1091500027300023FB7607F11B03184601F0BEFF02
:10916000384B5A68BB681A60374B1A68354B996898
:10917000344B5B68CB1A13440133FB6214E00121CA
:10918000324802F003FDFFF7F5FEF861F9692F4858
:1091900002F0FCFC2C4B1A682A4B9968294B5B683F
:1091A000CB1A13440133FB62BA6AFB6A9A42E6D8CF
:1091B00097F82730002B3BD000237B61FB79002BF5
:1091C00011D03B7D012262F301033B753B7D43F0EF
:1091D00004033B75FB6803F00F03DAB2BB8A62F34A
:1091E0008913BB8210E03B7D022262F301033B75D1
:1091F0003B7D43F004033B75FB68C3F309039AB25C
:10920000FB8A62F38F13FB820E4B5A680E4B1B686E
:10921000134002339B000B4A134404333B627A69C8
:109220003B6A1A60074B5A68BB6A1344054A53608D
:10923000FB7E184601F05DFF97F82730184630375F
:10924000BD4680BD889F0020DC8F0020A4A30020A5
:1092500080B58AB002AFF860B9607A603B60204B9D
:109260001B687B6107F11003012219463868FFF77C
:1092700063FF0346002B24D03B690233FB610023CC
:10928000BB6111E0BB699B007A681A44FB69591CF9
:10929000F96179690B401268124902339B000B4453
:1092A0005A60BB690133BB61BA693B689A42E9D332
:1092B0003A697B69009313463A68B968F868FFF722
:1092C000EDFE084B1B78002B05D000BF00F0A6F880
:1092D0000346002BFAD100BF2037BD4680BD00BF3A
:1092E000DC8F0020889F002080B582B000AF7860BE
:1092F00039600023002239687868FFF7A9FF00BFB2
:109300000837BD4680BD80B586B000AFF860B96053
:109310007A607B687B6107F114020123B968F86801
:10932000FFF796FF00BF1837BD4680BD80B586B0F9
:1093300000AFF860B9607A603B607B683B613B6876
:109340007B6107F110020223B968F868FFF780FF1C
:1093500000BF1837BD4680BD80B588B000AFF8604B
:10936000B9607A603B607B687B613B68BB61BB6ACC
:10937000FB6107F114020323B968F868FFF768FF7F
:1093800000BF2037BD4680BD80B588B000AFF86013
:10939000B9607A603B607B683B613B687B61BB6A1C
:1093A000BB61FB6AFB6107F110020423B968F8682E
:1093B000FFF74EFF00BF2037BD4680BD80B58AB0A5
:1093C00000AFF860B9607A603B607B683B613B68E6
:1093D0007B613B6BBB617B6BFB61BB6B3B62FB6B84
:1093E0007B6207F110020623B968F868FFF730FFC7
:1093F00000BF2837BD4680BD80B400AF064B9A68D9
:10940000054B5B689A420CBF01230023DBB2184670
:10941000BD465DF8047B7047889F002080B598B0FA
:1094200000AFFFF7E9FF0346002B01D00023ABE1BB
:10943000924B0022C3F81824BFF34F8F00BF8F4B0D
:109440009B683B618E4B1B683B643A693B6C1340E5
:1094500002339B00894A134404337B640023FB6579
:109460000023BB650023FB6307F110031946786CEA
:10947000FFF746FD0346002B19D0804BD3F8183474
:10948000002B14D17D4B5A683B699A4205D87B4B1F
:109490005B687A4A9360002376E13A693B6C13403B
:1094A00002339B00754A134404337B64DCE70023DA
:1094B0007B6511E03B695A1C3A613A6C13407A6D46
:1094C0009200391D0A446D4902339B000B445B68CE
:1094D00013607B6D01337B657B6D012BEAD93B7992
:1094E00003F00303DBB2022B40F09280FB88C3F34E
:1094F00089139BB27B63FB88C3F389139BB2502B08
:1095000028BF50239BB23B633B6BC3F309039AB262
:10951000FB8862F38F13FB803B6B0833FB623B7964
:10952000C3F3C203DBB2FB63F96A564802F0C6FF1D
:10953000F865FB6D002B00F0C680F86D03F04CF869
:10954000391DBB6D0822F86D03F0F4F8BB6D0833CC
:10955000BB653B69DA433B6C134001339B00BB6244
:109560003A6BBB6A9A423DD9BB6A002B08D03A6974
:109570003B6C134002339B00404A1344043300E029
:10958000414B3B62BB6A002B02D0BB6ADBB201E0FD
:109590003B6BDBB2FB77BB6A002B01D03A4B00E0A0
:1095A0000023BB61BB6A002B06D03B6BDAB2BB6AFF
:1095B000DBB2D31ADBB200E00023FB75FA7FBB6D90
:1095C000396AF86D03F0B6F8FB7FBA6D1344BB65DA
:1095D000BB69002B15D0FA7DBB6DB969F86D03F03E
:1095E000A9F80EE03A693B6C134002339B00234A12
:1095F000134404337B62BB6D3A6B796AF86D03F0F8
:1096000099F87B6B03339A083B6913443B615AE03A
:109610003B7903F00303DBB2012B54D1BB88C3F3C6
:109620008313DBB2062B28BF0623DAB2BB8862F3B2
:109630008913BB80BB88C3F38313DBB20233BB63E4
:109640003B79C3F3C203DBB2FB63BB6B9B001946E0
:109650000C4802F033FFF865FB6D002B33D0F86D3A
:1096600002F0BAFF391DBB6D0822F86D03F062F8F5
:10967000BB6D0833BB6500237B651CE0889F002021
:10968000DC8F00209CE20300949F00203B695A1C61
:109690003A613A6C134002339B003D4A1344191D52
:1096A000BB6D0422F86D03F045F8BB6D0433BB6558
:1096B0007B6D01337B65BB88C3F38313DBB21A4632
:1096C0007B6D9342E2D3FB6D002B3DD0304BD3F842
:1096D00010343B652E4BD3F81834002B1BD0F86D9B
:1096E00002F08AFF4AE0002387F84F30386DFFF719
:1096F0003FFB0346002B02D0012387F84F3097F839
:109700004F30002B03D0F96D386DFFF7DDFA3B6D5C
:10971000DB681B683B653B6D002BE4D1F86D02F004
:109720006BFF0023FB70FB1C184601F0D7FC184BA5
:10973000D3F81834002B02D13B69154A9360FB78AB
:10974000184601F0D6FC19E0114BD3F81034BB6475
:1097500006E0B86CFFF7D4FABB6CDB681B68BB642F
:10976000BB6C002BF5D10B4A0B4BD31ADB081B0447
:1097700043F0020309491846FFF7B6FDFFF73CFE28
:10978000034683F00103DBB218466037BD4680BD57
:10979000889F00201CE20300ECE1030088BF030067
:1097A00080B584B000AF0023FB6020E0144BD3F8F9
:1097B0001034BB600123FB710EE0B868FFF7BDFAFF
:1097C00003461A46FB68934202D10023FB7106E070
:1097D000BB68DB681B68BB60BB68002BEDD1FB7905
:1097E000002B01D0FB6807E0FB680133FB60FB68DE
:1097F000092BDBDD4FF0FF3318461037BD4680BD27
:10980000889F002080B584B000AF78600B46FB7065
:10981000FFF7C6FFF860FB68B3F1FF3F01D1FB68BB
:1098200022E0FB68DBB219467868FFF776FA104B46
:10983000D3F81034002B08D10D4A7B68C2F81034DD
:109840007B68DB6800221A600DE0094BD3F8103406
:10985000DA687B68DB6812681A60054BD3F810344D
:10986000DB687A681A60FB6818461037BD4680BD11
:10987000889F002080B582B000AF0D4BD3F8103424
:109880007B600B4B01221A7009E07868FFF762FADF
:109890007868FFF728FA7B68DB681B687B607B6869
:1098A000002BF2D100BF00BF0837BD4680BD00BF0E
:1098B000889F002080B483B000AF7860396000BF1B
:1098C0000C37BD465DF8047B7047000090B585B04D
:1098D00002AF786039607B68DB88002B0AD07B6838
:1098E000DB881A461F4B009313461F4A1F493868EE
:1098F00002F07AFA7B681B7A052B2ED07B685B7AA4
:10990000002B12D07B689B881A467B681B7A19460D
:109910001046FFF7C1FA03461A46154B53F822309A
:109920001A461449386802F05FFA7B681B681946CA
:109930003868FFF7BFFF7B681B7A1A460E4B53F857
:1099400022407B689B8800211846FFF787FA034670
:1099500022460A49386802F047FA00BF0C37BD4674
:1099600090BD00BFBCBF0300CCBF030004C0030018
:10997000F48F00201CC00300E08F002020C00300F3
:1099800080B584B000AFF860B9601346FB71FB6826
:109990001B7A052B0FD0FB685B7A002B06D00D4B92
:1099A0001B681A460C49B86802F01EFA0B49B868E1
:1099B00002F01AFA06E0FB79002B03D00749B868D9
:1099C00002F012FAB86802F0F6F900BF1037BD468F
:1099D00080BD00BFF48F00201CC003002CC003001A
:1099E000B0B58AB004AFF860B9607A603B60BB6A1A
:1099F0001B7BFB75BB6A00221A73B96A3868FFF7D4
:109A000065FF7B68062B7FD801A252F823F000BFC8
:109A10002D9A0200379A0200479A02005B9A0200D0
:109A2000799A0200A19A0200D19A0200F968B86AF4
:109A300002F0DAF969E0BB681B681A46F968B86A8F
:109A400002F0D2F961E0BB681A68BB6804331B6896
:109A5000F968B86A02F0C8F957E0BB681A68BB68D1
:109A600004331968BB6808331B6800930B46F96818
:109A7000B86A02F0B9F948E0BB681968BB680433FA
:109A80001868BB6808331B68BA680C321268019208
:109A9000009303460A46F968B86A02F0A5F934E073
:109AA000BB681868BB6804331C68BB6808331B6854
:109AB000BA680C321268B9681031096802910192D3
:109AC000009323460246F968B86A02F08DF91CE05B
:109AD000BB681C68BB6804331D68BB6808331B681F
:109AE000BA680C321268B96810310968B868143065
:109AF000006803900291019200932B462246F96878
:109B0000B86A02F071F900E000BF0022B96A386853
:109B1000FFF736FFBB6AFA7D1A7300BF1837BD46E0
:109B2000B0BD00BF80B586B000AFF860B9607A60A4
:109B30003B60BB68082B5CD83B681B7BFB743B68B5
:109B400000221A7339687868FFF7C0FE00237B6132
:109B500014E07A69BB689A4209D2FA687B691344B7
:109B60001B781A462549386802F03EF903E024497B
:109B7000386802F039F97B6901337B617B69072B17
:109B8000E7D92049386802F02FF900237B6124E0EF
:109B90007A69BB689A4219D2FA687B6913441B78C8
:109BA000BB74BB7C7E2B0AD8BB7C0133164A1344A2
:109BB0001B7803F09703002B01D0BB7C00E02E2321
:109BC0001A461249386802F00FF903E01049386864
:109BD00002F00AF97B6901337B617B69072BD7D9D6
:109BE000012239687868FFF7CBFE3B68FA7C1A736C
:109BF00000E000BF1837BD4680BD00BF30C0030085
:109C000038C003003CC00300B4DD030040C00300C3
:109C100044C0030080B485B000AF0346FB71FB79FC
:109C20005B08DBB21A460C4B9B5CFB73FB7903F0C1
:109C30000103002B03D0FB7B1B09DBB203E0FB7BA2
:109C400003F00F03DBB2BB73BB7B18461437BD4672
:109C50005DF8047B704700BFE0A3002080B485B0AE
:109C600000AF03460A46FB711346BB71FB7903F054
:109C70000103002B01D00F2300E0F023FB73FB79DD
:109C800003F00103002B03D0BB791B01DBB200E022
:109C9000BB79BB73FB795B08DBB21A460F4B9A5C4E
:109CA000FB795B08DBB21946FB7B1340DAB20B4B46
:109CB0005A54FB795B08DBB21A46084B9A5CFB7975
:109CC0005B08DBB21946BB7B1343DAB2034B5A5431
:109CD00000BF1437BD465DF8047B7047E0A3002049
:109CE00080B485B000AF0346FB710023FB600FE03A
:109CF0000E4B1A68FB68DB001344BB60BB681B7823
:109D0000FA799A4201D1BB6809E0FB680133FB6034
:109D1000074B1B781A46FB689342E9DB0023184681
:109D20001437BD465DF8047B704700BFA8A3002030
:109D3000ACA3002080B584B000AF03460A46FB7197
:109D40001346BB71FB791846FFF7CAFFF860FB6842
:109D5000002B09D0FB685B68002B05D0FB685B68B3
:109D6000B979FA791046984700BF1037BD4680BDD3
:109D70002DE9F04F89B000AF03460A46FB75134644
:109D8000BB75FB7D1846FFF745FF0346042B00F229
:109D9000B58001A252F823F0AD9D02001D9E020085
:109DA000359E02005D9E02006F9E0200BB7D002B6F
:109DB00000F0A180FB7D01211846FFF74FFF002333
:109DC000FB7707F11F03184601F088F9F97D4FF082
:109DD00001024FF00003A1F12004C1F1200003FAB9
:109DE00001F902FA04F449EA040922FA00F049EA06
:109DF000000902FA01F8444BD3E9002348EA0201C2
:109E0000B96049EA0303FB603F4BD7E90212C3E99B
:109E10000012FB7F184601F06CF96CE0BB7D002B53
:109E200001D0022200E00022FB7D11461846FFF718
:109E300015FF63E0BB7D002B0AD0FB7D0321184694
:109E4000FFF70CFFFB7D01211846FFF773FF55E07C
:109E5000FB7D01211846FFF701FF4FE0BB7D002B82
:109E60004BD1FB7D04211846FFF7F8FE45E0BB7D92
:109E7000002B05D0FB7D03211846FFF7EFFE3DE0E8
:109E8000FB7D00211846FFF7E9FEFB7D0021184607
:109E9000FFF750FF0023BB7707F11E03184601F0C0
:109EA0001DF9F97D4FF001024FF00003A1F12006EA
:109EB000C1F1200003FA01F502FA06F6354322FA51
:109EC00000F0054302FA01F46FEA040A6FEA050B99
:109ED0000D4BD3E900230AEA020139600BEA0303C0
:109EE0007B60094BD7E90012C3E90012BB7F18461B
:109EF00001F0FFF802E000BF00E000BF00BF243720
:109F0000BD46BDE8F08F00BFD8A3002080B582B069
:109F100000AF0648064B1B685B080022194600F09C
:109F200029FF786000BF0837BD4680BDB8A3002078
:109F3000B0A3002080B586B000AF786000237B61BD
:109F400024E01B4B1A687B69DB0013443B613B69CF
:109F50001B78184604F0E3FF0346FB733B695B780C
:109F6000012B0CBF01230023DBB21A46FB7B9A4274
:109F70000CBF01230023BB733B691B78BA7B1146DE
:109F80001846FFF7F5FE7B6901337B61094B1B78AF
:109F90001A467B699342D4DB074BD3E90023134372
:109FA00001D0FFF7B3FF00BF1837BD4680BD00BF2B
:109FB000A8A30020ACA30020D8A3002080B584B0C3
:109FC00000AF78600B46FB707B68DBB21846FFF78A
:109FD00087FEF860FB681B78184604F0A0FF034674
:109FE000FB72FB685B78012B0CBF01230023DBB203
:109FF0001A46FB7A9A420CBF01230023BB72BB7A3C
:10A00000002B06D0054BD3E90023134301D1FFF702
:10A010007DFF00BF1037BD4680BD00BFD8A3002024
:10A0200080B58AB000AFF8600B467A60FB727B683F
:10A03000092B01D807235BE004F08CFE034683F074
:10A040000103DBB2002B09D004F02AFE78627B6AA0
:10A050003B623B6A002B01D03B6A49E0264AFB6821
:10A060001360264AFB7A1370254A7B68136010221E
:10A07000002124480EF066F823494FF000024FF00B
:10A080000003C1E9002328E0FB7ADB00FA681344EF
:10A09000FB6103233B7500237B75BB7D6FF30003DE
:10A0A000BB75BB7D6FF34103BB75BB7D6FF3820353
:10A0B000BB75FB699B787B75FB691B78184607F1BC
:10A0C0001403124A194604F057FE78627B6ABB619A
:10A0D000BB69002B01D0BB690AE0FB7A5A1EFA72F9
:10A0E000002BD1D10A4A00210A4800F021FE034684
:10A0F00018462837BD4680BDA8A30020ACA3002089
:10A10000B0A30020E0A30020D8A30020BD9F020040
:10A11000359F020054C0030080B582B000AF002319
:10A120007B600CE00B4B1A687B68DB0013441B78E8
:10A130000121184604F090FE7B6801337B60064BDA
:10A140001B781A467B689342ECD3002318460837E5
:10A15000BD4680BDA8A30020ACA3002080B586B07A
:10A1600000AF78600023FB6000233B617B687B616C
:10A1700007F10C031A46002144F2010000F028F810
:10A1800000BF1837BD4680BD00B583B00290009176
:10A19000019244F2010071466A4600F019F803B0DA
:10A1A00000BD00BF80B400AFBFF34F8F00BF064BB0
:10A1B000DB6803F4E0620449044B1343CB60BFF354
:10A1C0004F8F00BF00BFFDE700ED00E00400FA057F
:10A1D00080B584B000AFF860B9607A6072B600BF35
:10A1E000FFF748FB00BFFFF719F90346002BFAD130
:10A1F0000F4A104BD31ADB081B0443F001030E492E
:10A200001846FFF771F80D4B1B6803F00103002B94
:10A2100000D000BE064A074BD31ADB081B0443F0EC
:10A22000020307491846FFF75FF8FFF7BBFF00BFBF
:10A230001CE20300ECE1030058C00300F0ED00E075
:10A2400064C0030080B485B000AF78607B689B6811
:10A25000FB607B68DA68FB68D31A18461437BD4682
:10A260005DF8047B704780B483B000AF78600B4624
:10A27000FB707B681A687B68DB68796889880B40AB
:10A280001344FA781A707B68DB685A1C7B68DA60C2
:10A2900000BF0C37BD465DF8047B704780B485B0C5
:10A2A00000AFF8600B467A607B81FB681A68FB6838
:10A2B00099687B890B44F96889880B4013441A78A4
:10A2C0007B681A7000BF1437BD465DF8047B704789
:10A2D00080B582B000AF786039603A680021786854
:10A2E000FFF7DCFF7B689B685A1C7B689A6000BFA5
:10A2F0000837BD4680BD80B485B000AFF860B96056
:10A300001346FB80BB68002B01D10E2319E0FB88AC
:10A31000002B05D0FB885A1EFB881340002B01D070
:10A3200009230EE0FB68BA681A60FB88013B9AB209
:10A33000FB689A80FB6800229A60FB680022DA6062
:10A34000002318461437BD465DF8047B704780B57E
:10A3500082B000AF78600B46FB707868FFF772FF41
:10A3600002467B689B889A4206D8FB781946786833
:10A37000FFF779FF002300E0042318460837BD46A5
:10A3800080BD80B582B000AF786039607868FFF733
:10A3900059FF0346002B05D039687868FFF798FF0E
:10A3A000002300E0052318460837BD4680BD80B570
:10A3B00088B000AFF860B9607A60FB68002B01D10B
:10A3C0000E2331E07B68002B01D10E232CE0F868CE
:10A3D000FFF738FFB8617B681B687B610023FB6176
:10A3E000BA697B69934228BF13463B617B68BA69AF
:10A3F0001A60BB69002B01D1052315E0BB68002B57
:10A400000AD1002310E0FB695A1CFA61BA681344B0
:10A410001946F868FFF75CFFFA693B699A42F2D384
:10A420007B683A691A60002318462037BD4680BD14
:10A4300090B589B000AFF860B9607A60FB68002B16
:10A4400001D10E2338E07B68002B01D10E2333E0CD
:10A45000FB689B881C46F868FFF7F4FE0346E31A86
:10A460000133BB617B681B687B610023FB61BA69B8
:10A470007B69934228BF13463B617B68BA691A60C7
:10A48000BB69002B01D1042316E0BB68002B0BD164
:10A49000002311E0FB695A1CFA61BA6813441B7867
:10A4A0001946F868FFF7DFFEFA693B699A42F1D373
:10A4B0007B683A691A60002318462437BD4690BD70
:10A4C00080B483B000AF78607B6803F00303002B97
:10A4D0000CBF01230023DBB218460C37BD465DF8E4
:10A4E000047B704780B483B000AF0346FB71FB79F7
:10A4F0009AB2074B1B889A4203D2FB790133DBB235
:10A5000000E0002318460C37BD465DF8047B704719
:10A51000FCA3002080B582B000AF0A4B1B78FB7112
:10A52000094B1B78DBB21846FFF7DCFF03461A46DF
:10A53000FB7993420CBF01230023DBB21846083796
:10A54000BD4680BDF8A30020F9A3002080B483B0ED
:10A5500000AF094B1B78FB71084B1B78DBB2FA7913
:10A560009A420CBF01230023DBB218460C37BD46CC
:10A570005DF8047B704700BFF8A30020F9A300201A
:10A5800080B584B000AF03463A60FB800B46BB80C9
:10A59000BB8801339BB2DB00FB813868FFF790FF7B
:10A5A000034683F00103DBB2002B01D0072314E044
:10A5B0000C4A3B681360FB893A6813440A4A1360EB
:10A5C0000A4B00221A700A4B00221A70094AFB88B3
:10A5D0001380094ABB881380002318461037BD46F4
:10A5E00080BD00BFF0A30020F4A30020F9A3002049
:10A5F000F8A30020FAA30020FCA3002080B586B0B9
:10A6000000AFF8600B467A607B81304B1B887A89FB
:10A610009A4254D84FF6FF737B8200237B7407F174
:10A620001103184600F05AFDFFF774FF0346002B94
:10A630000DD1274B1B78DBB27B82254B1B78DBB21D
:10A640001846FFF74FFF03461A46214B1A707B7CD2
:10A65000184600F04EFD7B8A4FF6FF7293422BD0D6
:10A660001C4B1A687B8ADB0013447A681A60FB680B
:10A67000002B17D07B89002B14D0174B1B687A8ACC
:10A680001249098801FB02F213447A89F9681846D5
:10A690000DF04AFD0F4B1A687B8ADB0013447A8960
:10A6A0009A8006E00B4B1A687B8ADB001344002279
:10A6B0009A8000237B6104E004237B6101E009238D
:10A6C0007B617B6918461837BD4680BDFAA3002020
:10A6D000F9A30020F0A30020F4A3002080B400AF71
:10A6E00000231846BD465DF8047B704780B584B0F2
:10A6F00000AF29E01D4B1B78DBB2FB811C4B1B68B4
:10A70000FA891C49098801FB02F21344BB601A4B09
:10A710001A68FB89DB0013449B88FB80164B1A6880
:10A72000FB89DB0013441B683B60FA883B681146D9
:10A73000B86898470D4B1B78DBB21846FFF7D2FE7E
:10A7400003461A46094B1A70FFF7C8FF034683F009
:10A750000103DBB2002B04D0FFF7F8FE0346002B09
:10A76000C8D000BF1037BD4680BD00BFF8A3002091
:10A77000F4A30020FAA30020F0A300202DE9B04F9D
:10A7800082B000AF144801F02DF8034600221C46A9
:10A790001546124BD3E9002314EB020A45EB030BD9
:10A7A000C7E900AB0E4BD3E90023D7E90001904283
:10A7B00071EB030307D2D7E9002312F1807843F14C
:10A7C0000009C7E90089D7E9002310461946083770
:10A7D000BD46BDE8B08F00BF1890002008A400203F
:10A7E00010A4002080B489B000AF786039607B6825
:10A7F000FB613B68BB61FB69D3E90223C7E9042322
:10A80000BB69D3E90223C7E90223D7E90423D7E9C7
:10A810000201904271EB03032CBF01230023DBB242
:10A8200018462437BD465DF8047B70472DE9B043D8
:10A8300084B000AF78600023FB73274B1B78002B9C
:10A8400044D07B68002B41D07B681B7FDBB2002BA0
:10A850003CD0FFF793FF7B68D3E90223904271EB72
:10A8600003032CD37B681B69002B02D17B68002279
:10A870001A777B685B697A689269104698477B68AB
:10A880001B69002B22D07B681B7FDBB2002B1DD005
:10A890007B68D3E902237968096900200C460546E4
:10A8A00012EB040843EB05097B68C3E902897B6866
:10A8B00019460A4802F0BDFA0123FB7306E07B68E3
:10A8C0001946064802F0B5FA0123FB73FB7B1846D4
:10A8D0001037BD46BDE8B08304A4002084C0030047
:10A8E0002DE9B04388B000AF786039600D23FB617B
:10A8F0003B6800221A707B68D3E90245FFF73EFFF0
:10A9000002460B46B4EB020865EB0309C7E904896C
:10A91000D7E90423012A73F100031BDB3B69B3F57C
:10A92000350F05D300F06CFA0246144B134403E0D4
:10A930007B68D3E902231346FB604FF49603FA6861
:10A9400000210F4800F05CFEF861FB69002B05D187
:10A9500001230EE000210A4800F01EFFFB690D2BC9
:10A9600006D17868FFF762FF03461A463B681A7003
:10A97000002318462037BD46BDE8B083FFFFB40072
:10A980001890002080B582B000AF044802F07BFA36
:10A9900078607B6818460837BD4680BD84C00300D8
:10A9A00080B582B000AF044802F088FA78607B6816
:10A9B00018460837BD4680BD84C0030080B582B00C
:10A9C00000AFFFF7DFFF78607B68002B02D07B6869
:10A9D00000221A777B68002BF3D100BF00BF083735
:10A9E000BD4680BD80B400AF074BD3E9002312F110
:10A9F000807043F10001044BC3E9000100BFBD4674
:10AA00005DF8047B704700BF08A4002080B582B0C9
:10AA100000AF7860074B1B68002B07D0054B1B6805
:10AA20001846FFF703FF034B00221A6000BF0837E8
:10AA3000BD4680BD00A4002080B582B000AF786024
:10AA4000FFF79CFE02460B460349C1E9002300BF05
:10AA50000837BD4680BD00BF10A4002080B584B07B
:10AA600000AF7860FFF79CFFF8600023FB72FB6883
:10AA7000002B44D0294B1B68002B02D10123FB7211
:10AA800018E0FB68D3E90201244B1B68D3E90223D9
:10AA9000904271EB03030DD20123FB721F4B1B6825
:10AAA0001B7FDBB2002B05D01C4B1B6819461C48D2
:10AAB00002F0BFF9FB7A002B29D0FFF763FFF860A3
:10AAC00007F10A031946F868FFF70AFF0346002B4F
:10AAD00011D0124B1B68002B02D1786800F0D4FC17
:10AAE0000E4AFB681360BB7A83F00103DBB2002BD4
:10AAF000B8D000BF0EE0094B00221A60B2E7074B46
:10AB00001B68002B05D1786800F0CCFC01E000BF89
:10AB100000E000BF00BF1037BD4680BD00A400208C
:10AB200084C0030080B586B000AF78602D4A07F17D
:10AB30000C031946104600F065FF786149E07B6917
:10AB40001B78022B2DD0022B31DC002B02D0012BE5
:10AB500014D02CE07B695B681B7FDBB283F00103C0
:10AB6000DBB2002B25D07B695B6801221A777B69F9
:10AB70005B6819461C4802F05CF91AE07B695A6868
:10AB80001A4B1B689A4203D1184B00221A6011E03D
:10AB90007B695B681946144802F09DF90346FB7413
:10ABA00008E0FFF70BFF124B01221A7002E000BF12
:10ABB00000E000BF0B4A07F10C031946104600F0F5
:10ABC0003BFF084A07F10C031946104600F01AFF34
:10ABD00078617B69002BB2D100BF00BF1837BD463A
:10ABE00080BD00BF70A4002084C0030000A400202A
:10ABF00004A4002080B582B000AF7860786800F0CF
:10AC0000BDFD0346002B01D0FFF7ECFE0021786864
:10AC100000F0D4FD0346002B02D07868FFF7F6FE63
:10AC20000121786800F0CAFD0346002B02D0786845
:10AC3000FFF702FF7868FFF775FF7868FFF70EFFF0
:10AC400000BF0837BD4680BD80B500AF024800F0A8
:10AC5000D7FD00BF80BD00BF1890002080B584B034
:10AC600000AF03463960FB71114A07F1080319462A
:10AC7000104600F098FEF860FB68002B13D0FB68CC
:10AC8000FA791A70FB683A685A60094A07F10803B2
:10AC90001946104600F0A1FE0346002B01D0FFF735
:10ACA000D3FF002300E0042318461037BD4680BDC3
:10ACB00070A4002080B582B000AF164B1B683B60CB
:10ACC000154808235822154900F03BFE78607B6840
:10ACD000002B01D07B6819E03B46114A1946114808
:10ACE00000F06AFB78607B68002B01D07B680DE088
:10ACF00001210C4800F032FD01230B4A01210948D3
:10AD000000F0DEFB094B01221A707B6818460837F9
:10AD1000BD4680BD80C0030070A4002018A40020A0
:10AD2000F5AB020018900020FFFF7F0004A4002074
:10AD300080B487B000AFF8600B467A60FB727B6826
:10AD4000002B01D107230FE0FB681B687B617B6947
:10AD50007A685A61FB7A012B0CBF01230023DBB216
:10AD60001A467B691A61002318461C37BD465DF8F8
:10AD7000047B70472DE9B04386B000AFF860B9603E
:10AD80007A60FB687B617B691B7FDBB2002B01D0A3
:10AD900000231DE07B697A689A61FFF7EFFC0246A9
:10ADA0000B46B96800200C46054612EB040843EB3D
:10ADB00005097B69C3E902897B691B69002B02D005
:10ADC0007B69BA681A6179690020FFF747FF03467B
:10ADD00018461837BD46BDE8B08380B584B000AFD3
:10ADE00078607B68FB60FB6800221A77F9680120B5
:10ADF000FFF734FF034618461037BD4680BD0000FC
:10AE000080B500AF024800F0EDFC0346184680BD57
:10AE10001890002080B586B000AFF860B960134686
:10AE2000FB7100237B61FB681B781A46104B9B5C0F
:10AE3000002B08D0FB680433FA79B968184605F08E
:10AE40005DFB78610EE0FB681B781A46084B9B5C43
:10AE5000002B07D1FB680C33FA79B968184604F067
:10AE6000FFFC78617B6918461837BD4680BD00BF7E
:10AE7000F4A4002080B584B000AF78600023FB7399
:10AE80007B681B781A460F4B9B5C002B07D07B68B6
:10AE90000433184605F0C4FB0346FB730DE07B68E2
:10AEA0001B781A46074B9B5C002B06D17B680C3342
:10AEB000184604F041FD0346FB73FB7B1846103730
:10AEC000BD4680BDF4A4002080B586B000AFF86018
:10AED000B9601346FB7100237B61FB681B781A463F
:10AEE000104B9B5C002B08D0FB680433FA79B968DF
:10AEF000184605F0B1FB78610EE0FB681B781A4636
:10AF0000084B9B5C002B07D1FB680C33FA79B968BE
:10AF1000184604F073FD78617B6918461837BD4602
:10AF200080BD00BFF4A4002080B586B000AF78607B
:10AF3000104B1B78FB7579680F48FFF722FA3861D0
:10AF4000FB7D002B10D00B4B00221A7001220B4905
:10AF50000B48FFF7B9FFF860FB68BB60BB68002BCC
:10AF600002D0B868FFF7FAF83B6918461837BD46B3
:10AF700080BD00BF89A400208CA4002088A40020EC
:10AF80002090002080B584B000AF0346FB71FB79B0
:10AF900019461148FFF7DBF9F860FB68002B15D163
:10AFA0000E48FFF767FF034683F00103DBB2002B77
:10AFB0000CD00B490848FFF7E4F90346002B05D1F4
:10AFC000012207490548FFF725FFF860FB6818468E
:10AFD0001037BD4680BD00BF9CA4002020900020FB
:10AFE00084A4002080B483B000AFEFF310833B60F3
:10AFF0003B687B6072B600BF7B6818460C37BD4665
:10B000005DF8047B704780B400AF62B600BF00BF3C
:10B01000BD465DF8047B704780B584B000AF7860B2
:10B02000FFF7E0FFF860164B9B68002B1BD1144B19
:10B0300001229A60134BD3F88020134B1340104A1F
:10B040001360104B104AC3F880200E4BD3F88430A5
:10B050000B4A53600B4B4FF0FF32C3F884207B68E0
:10B0600000221A7002E07B6801221A70FB68002B34
:10B0700001D1FFF7C8FF002318461037BD4680BD39
:10B08000ACA4002000E100E0FC06FFBD80B584B068
:10B0900000AF0346FB710F4B9B68002B15D0FB796B
:10B0A000002B12D1FFF79EFFF8600B4A094B1B687B
:10B0B0001360094A074B5B685360064B00229A6095
:10B0C000FB68002B01D1FFF79EFF002318461037C5
:10B0D000BD4680BDACA4002000E100E080B582B098
:10B0E00000AF78607868FFF797FF00BF0837BD466C
:10B0F00080BD80B582B000AF0346FB71FB79184676
:10B10000FFF7C4FF00BF0837BD4680BD80B483B0E1
:10B1100000AF0346FB7197F90730002B0BDBFB797F
:10B1200003F01F02074997F907305B09012000FA75
:10B1300002F241F8232000BF0C37BD465DF8047BC6
:10B14000704700BF00E100E080B483B000AF034669
:10B15000FB7197F90730002B0CDBFB7903F01F0222
:10B16000074997F907305B09012000FA02F24033E2
:10B1700041F8232000BF0C37BD465DF8047B7047C3
:10B1800000E100E080B483B000AF03463960FB719A
:10B1900097F90730002B0ADB3B68DAB20C4997F9C4
:10B1A00007305201D2B20B4483F800230AE03B6817
:10B1B000DAB20849FB7903F00F03043B5201D2B223
:10B1C0000B441A7600BF0C37BD465DF8047B704710
:10B1D00000E100E000ED00E080B582B000AF034682
:10B1E0000A46FB711346BB71BA7997F907301146CD
:10B1F0001846FFF7C7FF00BF0837BD4680BD80B5C2
:10B2000082B000AF0346FB7197F907301846FFF78D
:10B210007DFF00BF0837BD4680BD000080B584B00B
:10B2200000AF78607B68002B0AD0074B43F0010326
:10B23000FB607B689B01BB60FB68B868984700E0D7
:10B2400000BF1037BD4680BDE0C0030080B485B0AC
:10B2500000AFF860B9607A60FB68BA6802F5A8725E
:10B26000796843F8221000BF1437BD465DF8047BAF
:10B27000704780B483B000AF786039607B683A680B
:10B2800002F5A87253F8223018460C37BD465DF817
:10B29000047B704780B483B000AF786039607B680E
:10B2A0003A68C3F8042300BF0C37BD465DF8047B41
:10B2B000704780B483B000AF786039607B683A68CB
:10B2C000C3F8082300BF0C37BD465DF8047B704708
:10B2D00080B483B000AF78600B467B807B887A684F
:10B2E00013441B6818460C37BD465DF8047B704755
:10B2F00080B485B000AF78600B467B807B887A682D
:10B30000134400221A607B887A6813441B68FB6030
:10B31000FB6800BF1437BD465DF8047B704780B4FE
:10B3200083B000AF78607B68D3F8043518460C37DB
:10B33000BD465DF8047B704780B483B000AF786091
:10B3400039607B683A68C3F8082500BF0C37BD46F2
:10B350005DF8047B704780B483B000AF78600B4623
:10B36000FB70FA787B6813441A460123136000BF10
:10B370000C37BD465DF8047B704780B483B000AFE6
:10B38000786039607B683A68C3F8442300BF0C37A3
:10B39000BD465DF8047B704780B483B000AF786031
:10B3A00039607B683A68C3F8482300BF0C37BD4654
:10B3B0005DF8047B7047000080B586B000AFF86090
:10B3C000B9607A60FB685B791946294A7B6842F864
:10B3D0002130FB685B79274ADB0013441B79002B83
:10B3E0000ED008237B61244A244BD31ADB081B04AC
:10B3F00043F0020322491846FDF776FF7B6932E0ED
:10B40000FB681A68BB681B8819461046FFF794FF53
:10B41000FB6893F90420BB689B7819461046FFF738
:10B42000DBFEFB6893F904301846FFF7E8FEFB6883
:10B430005B79104ADB00134401221A71FB685B79C7
:10B4400019460C4AFB6842F8313000237B610A4AF6
:10B450000A4BD31ADB081B0443F0030309491846BF
:10B46000FDF742FF7B6918461837BD4680BD00BF17
:10B47000B8A40020BCA400202CE20300ECE10300EF
:10B4800090C00300B4C0030080B582B000AF786004
:10B490007B681B6800211846FFF75DFF00BF083777
:10B4A000BD4680BD80B582B000AF78607B681B6808
:10B4B00004211846FFF74FFF00BF0837BD4680BD87
:10B4C00080B586B000AFF860B9607A60FB704FF469
:10B4D0008032BB6802FA03F37B61BB6850339BB2D6
:10B4E0009B007B827B6823F07F437B60FB681B684B
:10B4F00079691846FFF7DDFEFB681B687969184615
:10B50000FFF74AFFFB681B687A8A11461846FFF767
:10B51000EFFEFB681B687A68B9681846FFF796FE6D
:10B52000FB681B6879691846FFF727FFFB78002B3B
:10B5300005D0FB681B6879691846FFF7ABFE00BFB2
:10B540001837BD4680BD80B584B000AFF860B960E3
:10B550001346FB71FB681B68B9681846FFF70DFFBF
:10B56000FB79002B05D0FB681B68B9681846FFF70C
:10B5700091FE00BF1037BD4680BD80B582B000AFE0
:10B58000786039607B681B6839681846FFF704FFEC
:10B590007B681B6839681846FFF78BFE00BF0837C9
:10B5A000BD4680BD80B582B000AF78600B467B8021
:10B5B0007B681B687A8811461846FFF789FE0346A8
:10B5C000002B08D07B681B687A8811461846FFF765
:10B5D0008FFE012300E0002318460837BD4680BDDA
:10B5E00080B483B000AF786039607A683B68D31A62
:10B5F00023F07F4318460C37BD465DF8047B704747
:10B6000080B58AB000AFF860B9607A603B604FF4F3
:10B610008032BB6802FA03F37B62BB6850339BB293
:10B620009B007B847B6823F07F437B60796AF868AA
:10B63000FFF7A3FFFB681B681846FFF770FEF86171
:10B64000FB681B68B9681846FFF713FEB861FB6812
:10B650001B68FA69B9681846FFF7F8FDFB681B68B4
:10B660007A8C11461846FFF743FEF969B869FFF76F
:10B67000B7FF0346012B09D11020FFF7CFFDFB6870
:10B680001B687A8C11461846FFF732FEFB681B6870
:10B690001846FFF744FEF861F9697868FFF7A0FFE4
:10B6A0007861FB681B68796A1846FFF766FE7B695C
:10B6B000012B15D1FB6818687B6801331A46B968FD
:10B6C000FFF7C4FD1020FFF7A9FDFB681B681846B3
:10B6D000FFF725FE0246FB69934235D00D2339E082
:10B6E000FB681B687A68B9681846FFF7AFFDFB680E
:10B6F0001B681846FFF713FEF8617B68013BF96988
:10B700001846FFF76DFF78613B68C3F1FF1303F53F
:10B710007F437A699A4201D90D231BE07B69002B94
:10B7200012D1FB6818687B6801331A46B968FFF7C5
:10B730008DFDFB681B681846FFF7F1FD0246FB69AB
:10B74000934201D00D2305E00122796AF868FFF7E2
:10B75000FAFE002318462837BD4680BD80B582B06A
:10B7600000AF78600B46FB70FB781A4602217868C0
:10B77000FFF7E9FE00BF0837BD4680BD80B582B047
:10B7800000AF78604FF482717868FFF70BFF0346D3
:10B7900018460837BD4680BD80B582B000AF7860DE
:10B7A00039604FF480323B6802FA03F31946786837
:10B7B000FFF7E3FE00BF0837BD4680BD80B584B00B
:10B7C00000AF786039603B6850339BB29B00FB81CF
:10B7D000FB8919467868FFF7E5FE034618461037DF
:10B7E000BD4680BD80B582B000AF78607B681B68C5
:10B7F0001846FFF794FD034618460837BD4680BD3E
:10B8000080B582B000AF78607B6893F90430184649
:10B81000FFF79AFC00BF0837BD4680BD80B500AF7A
:10B82000034B1B68034A12681046984700BF80BD4F
:10B83000B8A40020BCA4002080B487B000AF78601A
:10B8400039607B6853E8011F8AB2D889024498891D
:10B85000824228BF121A1889824202BFBFF32F8F7B
:10B86000002307E0C2EA010243E801200028E9D1F1
:10B870004FF00103FB737861B9603A61BA683B68C5
:10B880001A60FB7BDBB218461C37BD465DF8047BB3
:10B89000704780B485B000AF7860796851E8013FA7
:10B8A000C3EA034341E80132002AF7D1FA60BB60E2
:10B8B00000BF1437BD465DF8047B704780B487B085
:10B8C00000AF786039607B6853E8021F1FFAA1F26D
:10B8D000D888824202BFBFF32F8F00230DE0D889A2
:10B8E00002449889824228BF121AC1EA024243E800
:10B8F00002200028E8D14FF00103FB737861B960A2
:10B900003A61BA683B681A60FB7BDBB218461C37A9
:10B91000BD465DF8047B704780B485B000AF7860A9
:10B92000796851E8023FC3EA234341E80232002A22
:10B93000F7D1FA60BB6000BF1437BD465DF8047BE9
:10B94000704780B485B000AFF860B96011461A4600
:10B950000B46FB801346BB80BB68002B01D10E2336
:10B960001BE0FB88BA88B3FBF2F101FB02F29B1AE1
:10B970009BB2002B01D009230FE0FB68BA681A6064
:10B98000FB6800225A60FB6800229A60FB68FA8814
:10B990009A81FB68BA88DA81002318461437BD46BD
:10B9A0005DF8047B704780B584B000AF7860396083
:10B9B0003B6819467868FFF73FFF0346002B07D026
:10B9C0007B681B683A6812881344FB60FB6800E0E0
:10B9D000002318461037BD4680BD80B582B000AF49
:10B9E000786039603B681A883B685B889A4204D16A
:10B9F0007868FFF74EFF012300E000231846083760
:10BA0000BD4680BD80B584B000AF786039603B68CA
:10BA100019467868FFF752FF0346002B07D07B6872
:10BA20001B683A6852881344FB60FB6800E00023FF
:10BA300018461037BD4680BD80B582B000AF786033
:10BA400039603B681A883B685B889A4204D1786801
:10BA5000FFF762FF012300E0002318460837BD46C8
:10BA600080BD90B486B000AF786039607B683A687A
:10BA700053E8004F104643E8000191F0000FF7D162
:10BA80007C613861F9607B6918461837BD4690BC07
:10BA9000704790B486B000AF786039607B683A68D0
:10BAA00053E8004F44EA020043E8000191F0000F20
:10BAB000F6D17C613861F9607B6918461837BD465C
:10BAC00090BC704790B486B000AF786039607B68F6
:10BAD0003A6853E8004F44EA020043E8000191F05D
