:020000022000DC
:1060000000000120ED8802001589020017890200B6
:10601000198902001B8902001D890200000000008E
:106020000000000000000000000000001F890200C6
:106030002189020000000000238902002589020056
:1060400031E302003575020069F002002789020081
:10605000278902002789020071EF020027890200C8
:106060002789020027890200278902002789020068
:106070002789020027890200278902002789020058
:10608000278902003DB70200278902002789020004
:106090002789020027890200ED6B0300657E02005C
:1060A0002789020027890200278902002789020028
:1060B000278902002789020000000000000000007C
:1060C0002789020027890200278902002789020008
:1060D00027890200278902002789020000000000AA
:1060E00000000000000000000000000000000000B0
:1060F00000000000000000000000000000000000A0
:10610000000000000000000000000000000000008F
:10611000000000000000000000000000000000007F
:10612000000000000000000000000000000000006F
:10613000000000000000000000000000000000005F
:10614000000000000000000000000000000000004F
:10615000000000000000000000000000000000003F
:10616000000000000000000000000000000000002F
:10617000000000000000000000000000000000001F
:10618000000000000000000000000000000000000F
:1061900000000000000000000000000000000000FF
:1061A00000000000000000000000000000000000EF
:1061B00000000000000000000000000000000000DF
:1061C00000000000000000000000000000000000CF
:1061D00000000000000000000000000000000000BF
:1061E00000000000000000000000000000000000AF
:1061F000000000000000000000000000000000009F
:1062000010B5054C237833B9044B13B10448AFF3F0
:1062100000800123237010BD989B00200000000027
:10622000DCD0030008B5034B1BB103490348AFF3AF
:10623000008008BD000000009C9B0020DCD0030013
:10624000A3F5803A704700BF174B002B08BF134BD4
:106250009D46FFF7F5FF00218B460F461348144A71
:10626000121A10F085FF0E4B002B00D098470D4BF3
:10627000002B00D098470020002104000D000D489D
:10628000002802D00C48AFF3008010F02FFF200050
:1062900029000DF0EDF810F015FF00BF0000080018
:1062A000000000000000000000000120989B00207A
:1062B0005CBF0020000000000000000080B483B03C
:1062C00000AF0346FB71FB79054A012101FA03F394
:1062D000C2F8083500BF0C37BD465DF8047B704737
:1062E00000F0014080B485B000AF0346B9607A6029
:1062F000FB730949FB7BA233BA6841F83320064A95
:10630000FB7BA233DB0013447A685A6000BF14376A
:10631000BD465DF8047B704700F0014080B483B057
:1063200000AF03463960FB710649FB7903F5117331
:106330003A6841F8232000BF0C37BD465DF8047B66
:10634000704700BF00F0014080B483B000AF034647
:10635000FB71FB79012202FA03F318460C37BD46A4
:106360005DF8047B704780B483B000AF0346FB71D7
:10637000FB79012202FA03F318460C37BD465DF89B
:10638000047B704780B582B000AF0346FB71FB7998
:106390001846FFF7D9FF0346C3F31003002B14BFC1
:1063A00001230023DBB218460837BD4680BD00003C
:1063B00080B582B000AF0346FB71FB791846FFF74A
:1063C000C3FF0246054B1B681340002B14BF01237B
:1063D0000023DBB218460837BD4680BDB49B0020C1
:1063E00080B582B000AF0346FB71FB791846FFF71A
:1063F000ABFF0246044B1B681343034A136000BF04
:106400000837BD4680BD00BFB49B002080B582B078
:1064100000AF0346FB71FB791846FFF795FF034673
:10642000DA43044B1B681340024A136000BF08376D
:10643000BD4680BDB49B002090B583B000AF03463D
:10644000FB71094B1B781C46FB791846FFF78BFF45
:1064500003462340002B14BF01230023DBB2184660
:106460000C37BD4690BD00BFB89B002080B582B000
:1064700000AF0346FB71FB791846FFF774FF034634
:10648000DAB2054B1B781343DAB2034B1A7000BF24
:106490000837BD4680BD00BFB89B002080B586B0E0
:1064A00000AF786000233B6100237B6104233B61E4
:1064B000224B7B610023FB7335E00023BB7307F1A4
:1064C0000E03184604F09AFDFB7B1846FFF73CFFCD
:1064D00002467B691340002B12D0FB7B1846FFF766
:1064E00067FF034683F00103DBB2002B08D0FB7B80
:1064F0001846FFF775FF7B68FA7B1A7000233B6133
:10650000BB7B184604F085FD3B69002B0FD0FB7B5D
:106510001846FFF719FF0346DB437A6913407B6196
:10652000FB7B0133FB737B69002BC6D100E000BF0E
:106530003B6918461837BD4680BD00BFFFFF01000C
:1065400080B584B000AF0346FB710023FB60FB798C
:106550001846FFF717FF034683F00103DBB2002B59
:1065600002D00723FB6012E0FB791846FFF7A6FE76
:106570000023FB7207F10B03184604F03FFDFB7983
:106580001846FFF743FFFB7A184604F042FDFB680C
:1065900018461037BD4680BD80B586B000AF0346B3
:1065A000B9607A60FB73BB68002B02D07B68002B5C
:1065B00001D10E2322E000237B61FB7B1846FFF70D
:1065C000E1FE034683F00103DBB2002B02D0072378
:1065D0007B6112E0FB7B1846FFF7EAFE034683F07F
:1065E0000103DBB2002B02D008237B6105E0FB7BBB
:1065F0007A68B9681846FFF775FE7B691846183740
:10660000BD4680BD80B584B000AF03463960FB71E4
:106610000023FB60FB791846FFF7CAFE034683F0B0
:106620000103DBB2002B02D00823FB6004E0FB79FE
:1066300039681846FFF772FEFB6818461037BD46EA
:1066400080BD80B586B000AF786000233B61042335
:106650007B610F233B610023FB7335E00023BB7399
:1066600007F10E03184604F0C9FCFB7B1846FFF740
:106670007AFE02463B691340002B12D0FB7B184682
:10668000FFF7DAFE034683F00103DBB2002B08D0EC
:10669000FB7B1846FFF7EAFE7B68FA7B1A70002343
:1066A0007B61BB7B184604F0B4FC7B69002B0FD0E8
:1066B000FB7B1846FFF757FE0346DB433A6913405E
:1066C0003B61FB7B0133FB733B69002BC6D100E0D0
:1066D00000BF7B6918461837BD4680BDA1DF7047F3
:1066E00000BF1846A3DF704700BF184662DF70473F
:1066F00000BF184680B582B000AF354B1A68354BE5
:106700001B689A425FD0324B1A68334913469B008C
:1067100013449B000B4402331B78002B18D12C4BE5
:106720001A682D4913469B0013449B000B4418889C
:10673000274B1A68284913469B0013449B000B44BF
:1067400004331B8800221946FFF7C8FF786015E064
:106750001F4B1A68204913469B0013449B000B44AF
:1067600018881B4B1A6813469B0013449B001A4A57
:10677000134408331946FFF7B5FF78607B68002B98
:1067800016D1164A164BD31ADB081B0443F0040338
:106790001449184602F038FD0D4B1B6801330C4AB2
:1067A00013600B4B1B6803F00703094A13600AE0F0
:1067B0000A4A0B4BD31ADB081B0443F004030A49B3
:1067C000184602F021FD00BF0837BD4680BD00BF5E
:1067D000609C00205C9C0020BC9B002054D10300E6
:1067E000F4D0030068AC03008CAC030080B582B029
:1067F00000AF786039607B681A883B689B889A4252
:1068000002D1FFF777FF00E000BF0837BD4680BD2B
:10681000B0B5ACB000AF786039607B681A883B686F
:106820009B889A4252D17B681B88FB813B685A89BE
:106830007B681B8C9A4209D105233B733B6810335C
:1068400007F110040FCB84E80F0037E03B685A894A
:106850007B681B8B9A420AD108233B733B6803F188
:10686000100207F1100307CA83E8070026E03B681F
:106870005A897B685B8C9A420ED107233B733B6835
:10688000103307F110041D4628686968AA68EB6890
:106890000FC42B8A238011E03B685A897B689B8B4D
:1068A0009A420BD104233B733B6803F1100207F1BA
:1068B00010031146A022184610F04CFC7B68DB6ADE
:1068C00007F10C0211467868984700E000BFB03726
:1068D000BD46B0BD80B483B000AF786039607B68DE
:1068E0001A883B689B889A423FD17B684FF6FF72BB
:1068F0001A807B6800225A807B680022DA827B68DB
:1069000000229A807B680022DA807B6800221A814C
:106910007B6800225A817B6800229A817B68002272
:10692000DA817B6800221A827B6800225A827B68A7
:1069300000229A827B6800221A837B6800225A8395
:106940007B6800229A837B680022DA837B680022BE
:106950001A847B6800225A847B6800229A847B68B0
:106960000022DA847B6800221A8500BF0C37BD46FE
:106970005DF8047B7047000080B5AEB000AF786072
:106980003960B54AB54BD31ADB081B0443F0040346
:10699000B349184602F038FC3B681B78002B40F0E6
:1069A0007B813B689B88B3F5806F40F075813B68C5
:1069B0009A797B6893F830309A4240F06D810123D8
:1069C0003B733B685B88FB81A34AA44BD31ADB086B
:1069D0001B0443F004003B681B7A1A46A14902F0ED
:1069E00022FC0023C7F8B43011E1D7F8B4201346D5
:1069F000DB0013445B0008333A6813440633C7F8DE
:106A0000B030954A954BD31ADB081B0443F00300C2
:106A1000D7F8B0301B88D7F8B420934902F016FCA1
:106A2000D7F8B0301B88A3F20143092B00F2E980AC
:106A300001A252F823F000BF616A02008F6A0200CF
:106A4000BD6A0200E76A02000F6B0200376B0200AA
:106A5000616B02008B6B0200B36B0200DB6B020008
:106A6000D7F8B0305B893B82D7F8B0301B89BB8444
:106A7000794A7A4BD31ADB081B0443F00300D7F89A
:106A8000B0301B891A46794902F0CDFBBAE0D7F83D
:106A9000B0305B893B84D7F8B0301B89BB866E4A27
:106AA0006E4BD31ADB081B0443F00300D7F8B03059
:106AB0001B891A466E4902F0B6FBA3E0D7F8B03046
:106AC0005B89FB82D7F8B0301B897B85624A634BB8
:106AD000D31ADB081B0443F003037A8D654918467B
:106AE00002F0A1FB8EE0D7F8B0305B897B83D7F84A
:106AF000B0301B89FB85584A584BD31ADB081B045E
:106B000043F00303FA8D5C49184602F08CFBD7F87A
:106B1000B0305B893B83D7F8B0301B89BB854E4AC8
:106B20004E4BD31ADB081B0443F00303BA8D5349C1
:106B3000184602F078FBD7F8B0305B89BB83D7F8F2
:106B4000B0301B893B86444A444BD31ADB081B04F4
:106B500043F003033A8E4A49184602F064FB51E0C1
:106B6000D7F8B0305B897B82D7F8B0301B89FB84C3
:106B7000394A3A4BD31ADB081B0443F00303FA8C5F
:106B80004049184602F04FFB3CE0D7F8B0305B8933
:106B9000FB83D7F8B0301B897B862F4A2F4BD31A43
:106BA000DB081B0443F003037A8E3749184602F0D2
:106BB0003AFBD7F8B0305B89BB82D7F8B0301B897D
:106BC0003B85254A254BD31ADB081B0443F00303FE
:106BD0003A8D2E49184602F026FBD7F8B0305B8973
:106BE0007B84D7F8B0301B89FB861B4A1B4BD31A1A
:106BF000DB081B0443F00303FA8E2549184602F014
:106C000012FB00BFD7F8B4300133C7F8B4303B688B
:106C10001B7A1A46D7F8B4309342FFF4E6AE7B688D
:106C20001B884FF6FF7293420DD00B4A0B4BD31AC1
:106C3000DB081B0443F003031649184602F0E4FA8C
:106C40007B6800225A807B68DB6A07F10C021146E0
:106C50007868984700BF37E054D10300F4D00300B0
:106C6000DCAC0300FCAC030014AD030028AD030052
:106C700044AD03005CAD030074AD030094AD0300AC
:106C8000B8AD0300D8AD0300F4AD030018AE0300A7
:106C900034AE030050AE03003B681B78002B13D0CA
:106CA0000B4A0C4BD31ADB081B0443F004030A49BC
:106CB000184602F0A9FA00233B737B68DB6A07F1F0
:106CC0000C0211467868984700BFB837BD4680BDB2
:106CD00054D10300F4D0030078AE030090B58BB01C
:106CE00000AF78603960404B07F10C040FCB84E8AB
:106CF0000F007B68002B01D10E2371E03B68002B55
:106D000001D10E236CE03B681B68002B01D10E23E0
:106D100066E07B6800225A807B680022DA827B680A
:106D200000229A807B6800221A837B680022DA8026
:106D30007B6800225A837B6800221A817B680022CC
:106D40009A837B6800225A817B680022DA837B6801
:106D500000229A817B6800221A847B680022DA81F3
:106D60007B6800225A847B6800221A827B6800229A
:106D70009A847B6800225A827B680022DA847B68CE
:106D800000229A827B6800221A857B684FF6FF7288
:106D90001A803B681A687B68DA627B6803F130020C
:106DA00007F10C0311461846FFF7A0FC78627B6AD6
:106DB000002B01D07B6A13E07B6A3B623B6A002BAD
:106DC00001D03B6A0CE07B6893F83030BB774FF41E
:106DD0008063BB8307F11C0318460DF0D9FC034602
:106DE00018462C37BD4690BD9CAE030080B584B0DC
:106DF00000AF786039603B68002B1ED07B68002BA9
:106E00001BD03B68FB607B681B88392B06D0392B75
:106E100015DC112B0CD0382B05D010E07968F86800
:106E2000FFF7F6FC0CE07968F868FFF7DFFC07E095
:106E30007968F868FFF74EFD02E000BF00E000BF90
:106E40001037BD4680BDF0B484B000AFF8600B468B
:106E50007A607B81FB68002B01D10E2320E0FB6868
:106E60007A891A807B68002B19D0FA687B68901C9D
:106E700003F1200402461946D1F800C04E688D681F
:106E8000C968C2F800C056609560D16010331030F8
:106E9000A342EFD1024619685B681160536000237A
:106EA00018461037BD46F0BC704780B584B000AFBF
:106EB000786039603B685B099B007A681A443B68DC
:106EC00003F01F03012101FA03F31946104604F0F1
:106ED00089FDF86000BF1037BD4680BD80B584B025
:106EE00000AF786039603B685B099B007A681A44A0
:106EF0003B6803F01F03012101FA03F3DB4319464A
:106F0000104604F0A1FDF86000BF1037BD4680BDFB
:106F100080B483B000AF786039603B685B099B0048
:106F20007A6813441A683B6803F01F0322FA03F3DC
:106F300003F00103002B14BF01230023DBB218462A
:106F40000C37BD465DF8047B7047000080B500AF8C
:106F50007C220021024810F00BF900BF80BD00BF69
:106F6000649C0020B0B58EB000AF7860396000231B
:106F7000BB603B68002B1BD000237B6315E03B46C6
:106F8000796B1846FFF7C4FF0346002B0AD0BB6895
:106F90005A1CBA607A6B92B25B0007F138010B445D
:106FA00023F82C2C7B6B01337B637B6B132BE6D993
:106FB0007B681D4607F108040FCC0FC50FCC0FC529
:106FC00094E8070085E8070078683837BD46B0BD0B
:106FD00080B584B000AF78600023FB600023BB6005
:106FE0000DE03B1DB9681846FFF792FF0346002BE2
:106FF00002D0FB680133FB60BB680133BB60BB6838
:10700000132BEED9FB6818461037BD4680BD000033
:1070100080B582B000AF0346FB80FB88132B01D9FB
:1070200000230AE0FB8819460648FFF73EFFFB886D
:1070300019460548FFF739FF012318460837BD46B2
:1070400080BD00BF6C9C0020689C002080B584B08F
:1070500000AF0346FB800023FB600CE0FB689B0055
:10706000094A13440433FA8811461846FFF736FFDD
:10707000FB680133FB60FB681D2BEFD900BF00BF2D
:107080001037BD4680BD00BF649C002080B582B033
:1070900000AF0346FB80FB8819460348FFF71EFF3D
:1070A00000BF0837BD4680BD6C9C0020B0B59AB0CB
:1070B00000AF1B4B9B68DB433B66194B5A6807F1DB
:1070C00060031146184604F0BFFC3A6E3B46114679
:1070D0001846FFF747FF07F134043D460FCD0FC4B4
:1070E0000FCD0FC495E8070084E8070000237B66F6
:1070F0000CE07B6E5B0007F16802134433F8303C10
:107100001846FFF7A3FF7B6E01337B667B6B7A6EBD
:107110009A42EED300BF00BF6837BD46B0BD00BF86
:10712000649C002080B500AFFFF710FF00BF80BD5A
:1071300080B582B000AF78600B467B8013467B70D1
:107140007B78002B05D07B8819467868FFF7ADFE69
:1071500004E07B8819467868FFF7C0FE00BF083757
:10716000BD4680BD80B584B000AF786039607B6873
:107170009B88FB817B681B88103B0A2B77D801A278
:1071800052F823F0B1710200E57102006F72020043
:107190006F7202006F7202006F7202006F72020063
:1071A0006F7202006F7202003F720200EF71020004
:1071B000FFF77CFFFB891846FFF72AFF034683F0A1
:1071C0000103DBB2002B03D0042002F057FF4BE099
:1071D0007B68DB7B022B47D1FB8919462648FFF7EA
:1071E00064FE41E0FB891846FFF750FF3FE07B68F3
:1071F0001B7AC3F30313DBB27B737B7B032B8CBF44
:1072000001230023DAB2FB8919461C48FFF790FFDF
:107210007B7B022B8CBF01230023DAB2FB8919464A
:107220001748FFF785FF7B7B012B8CBF01230023D1
:10723000DAB2FB8919461348FFF77AFF17E07B683B
:107240001B7A002B12D17B685B7AC3F3C003DBB2DD
:10725000002B14BF012300233B733A7BFB891946A3
:107260000648FFF765FF01E000BF00E000BF00BF78
:107270001037BD4680BD00BF709C00207C9C002064
:10728000789C0020749C002080B582B000AF094B30
:10729000DB687B60074B9A683B1D1146184604F07B
:1072A000D3FB7B681846FFF793FE03461846083762
:1072B000BD4680BD649C002080B483B000AF03460F
:1072C000FB7197F90730002B0BDBFB7903F01F02F2
:1072D000074997F907305B09012000FA02F241F8EB
:1072E000232000BF0C37BD465DF8047B704700BF0C
:1072F00000E100E080B483B000AF0346FB7197F972
:107300000730002B12DBFB7903F01F020A4997F9C3
:1073100007305B09012000FA02F2203341F82320F4
:10732000BFF34F8F00BFBFF36F8F00BF00BF0C379D
:10733000BD465DF8047B704700E100E080B483B097
:1073400000AF0346FB7197F90730002B0CDBFB798C
:1073500003F01F02074997F907305B09012000FA83
:1073600002F2603341F8232000BF0C37BD465DF8C0
:10737000047B704700E100E080B483B000AF0346B7
:107380003960FB7197F90730002B0ADB3B68DAB2F2
:107390000C4997F907305201D2B20B4483F800230D
:1073A0000AE03B68DAB20849FB7903F00F03043BBB
:1073B0005201D2B20B441A7600BF0C37BD465DF8BD
:1073C000047B704700E100E000ED00E032DF704731
:1073D00000BF184642DF704700BF184648DF7047BD
:1073E00000BF184649DF704700BF18464ADF7047A4
:1073F00000BF184680B483B000AF0346FB71FB7931
:10740000054A012101FA03F3C2F8043500BF0C3725
:10741000BD465DF8047B704700F0014080B483B046
:1074200000AF0346FB71FB79054A012101FA03F322
:10743000C2F8083500BF0C37BD465DF8047B7047C5
:1074400000F0014080B483B000AF78600E4B1B6841
:10745000002B12D10D4B1A687B6813440B4A136042
:107460000A4B1B680A4A934208D30A4B5B69012204
:10747000DA60064B00221A6000E000BF0C37BD4600
:107480005DF8047B704700BF9C9D0020789D002024
:1074900080969800809D002080B483B000AF786013
:1074A0000E4B1B68002B12D00D4B1A687B681344DF
:1074B0000B4A13600A4B1B680A4A934208D30A4BD3
:1074C0005B6901221A61064B00221A6000E000BFCE
:1074D0000C37BD465DF8047B704700BF9C9D0020C3
:1074E0007C9D002080969800809D002080B582B011
:1074F00000AF01210C4804F0C0FA02460B4BA3FB7D
:107500000213D9080B469B000B445B00D31A7B6027
:107510007A6813465B0013449B00054A13441846DF
:107520000837BD4680BD00BF589D0020CDCCCCCCD7
:10753000E09C002080B582B000AF1F4BD3F80C3127
:10754000002B35D01C4B0022C3F80C211A4BD3F86A
:107550000C311A4B1B78DBB2012B26D1164BD3F81A
:10756000003403F00103012B1FD1134BD3F8043572
:107570007B60786800F018FD0346FB70104B1B8A97
:1075800001339AB20E4B1A82FB78002B09D0FFF719
:10759000ADFF7860084A7B68C2F80435094B0022C9
:1075A0001A600121084804F081FA034B01229A6015
:1075B00000BF0837BD4680BD00100040BC9D0020C4
:1075C000888F0020789D0020B09D002080B582B07B
:1075D00000AF0346FB71FB79042B00F2DF8001A2B0
:1075E00052F823F0F97502007D760200357702002B
:1075F0003B7702004B7702006F4B01225A606E4BC3
:107600000122DA606C4B0022C3F804256A4B002289
:10761000C3F84021684B0022C3F84421674B1B6824
:10762000002B05D0644B4FF48032C3F8042304E0F0
:10763000614B4FF44032C3F804235F4B4FF4FA72AE
:10764000C3F840255C4B4FF49672C3F844255A4B5F
:107650000222C3F80825584B01221A60584B012218
:10766000C3F8FC2F0820FFF727FE564B00221A60B4
:10767000554B00221A6000F041F997E04E4BD3F8C9
:107680004031002B32D04C4BD3F8043303F4803319
:10769000002B2BD0484B01225A60474B0022C3F8E5
:1076A0004021454BD3F8403100F012F9434B1B68A1
:1076B000002B19D0454B1B68454A12689B1A454A56
:1076C0009360424B1B681846FFF7E6FE424B1B686F
:1076D000002B04D0404804F042FA404B67E03C4B9A
:1076E00000221A603E4B62E03C4B60E0324BD3F824
:1076F0004431002B59D0304BD3F8043303F400331A
:10770000002B52D02C4B0022C3F844212A4BD3F833
:1077100044312C4B1B68334A934205D8274B1B68D6
:10772000002B01D1304B42E0244B1B68002B3CD195
:107730002A4B3CE0FFF7FEFE38E000F0C9F84FF4BA
:107740007A70FFF77FFE254B31E01B4B01225A6018
:10775000194B0022C3F84021174B0022C3F84421E3
:10776000154BD3F84035144A03F2CF33C2F84035F5
:10777000114BD3F84435104A03F2CF33C2F84435E5
:107780000D4B01221A600F4B1B6803F57A730D4AEB
:1077900013604FF47A70FFF755FE07E0134A4FF479
:1077A000D871134802F080FC00E000BF114B18466E
:1077B0000837BD4680BD00BF008000409C9D002072
:1077C00000100040689D0020749D00206C9D0020EA
:1077D000709D0020AC8F0020A49D0020C48F00204D
:1077E000BC8F00208F08A107CC8F0020F4AE0300CF
:1077F00078563412C09D002080B582B000AF78600A
:107800002F4B0022C3F80C252D4B0122C3F8102565
:107810002B4B0122C3F85026294B0322C3F83425F1
:10782000274B6FF07F42C3F83C25254B254AC3F810
:107830003825234B0022C3F81425214B224AC3F8D4
:1078400018251F4A7B68C2F80435204B5A781C4B18
:10785000C3F824251D4B9B781A061C4BDB781B04B0
:107860001A431A4B1B791B021343184A52791A43C5
:10787000134BC3F81C25124B0022C3F82C25104BC8
:107880000122C3F83025114B1A780D4BC3F8082597
:107890000B4B0422C3F80C25094B0022C3F80C2122
:1078A000074B4FF0FF32C3F80823054B0822C3F8FB
:1078B00004230120FFF700FD00BF0837BD4680BD4F
:1078C00000100040211001000C0C0401809D0020DC
:1078D00080B500AF074B01221A61064B4FF0FF3213
:1078E000C3F8082300F046FD034B00221A7000BFC6
:1078F00080BD00BF00100040BC9D002080B582B05C
:1079000000AF344B00221A60334B1B68002B1CD194
:10791000324B1B78DBB2012B04D1314BD3F85035FD
:10792000032B52D0FFF7E2FD78607868FFF764FF21
:107930002B4B0122C3F80022294B01225A6000F090
:107940002DFC264B01221A703FE0244B1B78DBB242
:10795000012B0DD1224B0022C3F81021204B012214
:107960001A6100E000BF1E4BD3F81031002BF9D094
:10797000FFF7BCFD786000F041FC7868FFF73CFF42
:10798000174B0322C3F80022154B01221A6000E0B6
:1079900000BF134BD3F80031002BF9D0114BDB683B
:1079A000D3F844351A467B681A600E4B1B69D3F82E
:1079B00044257B689A600C4B1B8A01339AB20A4BB0
:1079C0001A82064B02221A7000E000BF0837BD463B
:1079D00080BD00BF689D00209C9D0020BC9D0020B4
:1079E00000100040809D0020888F002080B588B066
:1079F00000AF786039607B68023B062B00F29D8007
:107A000001A252F823F000BF557B0200557B020013
:107A1000257A0200257A0200C57A02000D7B020059
:107A2000E97A0200504B1B68002B40F095804F4BC9
:107A30001B68002B33D04E4B1B68042B2FD84C4BAC
:107A40001B6801334A4A1360494B1B680233494A99
:107A5000126802FB03F3484A93604748FFF7C6FCED
:107A600078617B69002B11D0444A454BD31ADB085F
:107A70001B0443F003037A694249184601F0D3FB23
:107A800000BF01F05BFC0346002BFAD17B693B6130
:107A90003B69002B10D0386902F0F0FA0CE03A484C
:107AA000FFF7A4FCF860FB68BB60BB68002B04D048
:107AB000B86802F0E3FA00E000BF0121334803F0A8
:107AC000F5FF49E02D4A2E4BD31ADB081B0443F087
:107AD00001032F49184601F097FB2E4A40F25D2121
:107AE0002D4802F0E1FA3AE02C4804F038F81E483C
:107AF00004F035F8214A224BD31ADB081B0443F06B
:107B000003032749184601F07FFB28E01B4A1C4B62
:107B1000D31ADB081B0443F003032249184601F083
:107B200073FBFFF75FFCF861FB69BB61BB69002B6E
:107B300014D0B86902F0A2FA10E0104A104BD31A20
:107B4000DB081B0443F003037A681749184601F069
:107B50006AFB04E000BF02E000BF00E000BF00BF1E
:107B60002037BD4680BD00BF609D00209C9D002049
:107B7000749D00206C9D0020AC8F00209CD10300E0
:107B8000F4D0030014AF03009C8F0020649D0020FC
:107B900030AF0300F4AE0300785634125C9D002031
:107BA00060AF030080AF0300A0AF030080B400AF5C
:107BB0000F4B1B6901225A600D4B1B690122DA60D1
:107BC0000B4B1B690022C3F81025094B1B690122CE
:107BD000C3F80425064B1B690322C3F80825044B90
:107BE0001B6901221A6000BFBD465DF8047B704727
:107BF000809D002080B400AF234BDB6801225A60D7
:107C0000214BDB680122DA601F4BDB680022C3F8DE
:107C100010251D4BDB680322C3F808251A4BDB68CF
:107C200049F64042C3F84025174BDB684FF0FF325E
:107C3000C3F84425144BDB684FF0FF32C3F84825E6
:107C4000114BDB684FF0FF32C3F84C250E4BDB685D
:107C50000E4A934204D00C4BDB680D4A934205D187
:107C6000094BDB6844F62062C3F85025064BDB68FD
:107C70000122C3F80022044BDB6801221A6000BF16
:107C8000BD465DF8047B7047809D002000A0014048
:107C900000B001402DE9B04F8CB000AF00F0A2FD64
:107CA000C7E90A01D7E90A2349F64041541843F1CC
:107CB000000549F640424FF000032046294612F0E5
:107CC0003DFE02460B461046194602460B464FF053
:107CD00000044FF000059D0045EA9275940022468D
:107CE0002B4612EB000A43EB010B4FF000024FF062
:107CF00000034FEACB0343EA5A734FEACA029246A3
:107D00009B46BAEB00086BEB01094FF000024FF005
:107D100000034FEA091343EA18734FEA081290462A
:107D2000994618EB00033B6049EB01037B604FF081
:107D300000024FF00003D7E9004529468B01214698
:107D400043EA916321468A011C461346C7E9083479
:107D5000D7E90A2312F10801396143F100037B617D
:107D60004FF000024FF00003D7E9044521460A090D
:107D7000294642EA017229460B091146D7E9082330
:107D800012F10800B86043F10003FB604FF00002FD
:107D90004FF00003D7E9024520460209284642EA8F
:107DA0000072284603091346CB1A03F6C413FB617D
:107DB000084A094BD31ADB081B0443F00403FA6991
:107DC0000649184601F02FFAFB6918463037BD46C0
:107DD000BDE8B08F9CD10300F4D00300B0AF030026
:107DE00080B582B000AF786039601A4B1B68002BF9
:107DF00001D108232AE0386800F0E4FA0346002B9A
:107E000001D0072322E0144B00221A82124B0022D9
:107E10005A8200F0E7FC49F640424FF0000312F0AE
:107E20008DFD02460B460C4B5A600C4B1A680C4BEE
:107E30001B6979688A1AC3F85025074A7B689360E2
:107E4000074B9B7A1846FFF7D5FA002318460837E8
:107E5000BD4680BD5C9D0020888F0020AC9D002029
:107E6000809D002080B58CB000AF464BD3F8003128
:107E7000002B3CD0434B0022C3F80021424B1B682F
:107E80009B681946414803F07CFD414B99683F4B84
:107E90001A68404B1B698A1AC3F850253C4B5B8A11
:107EA00001339AB23A4B5A82384B1B68384AD36036
:107EB000394803F054FE394B1B7883F00103DBB2E1
:107EC000002B14D0354B01221A70354B1B68002B48
:107ED0000DD007F1180300221A605A609A60DA6028
:107EE0001A612F4B1B6807F1180210469847254B63
:107EF000D3F80831002B10D0224B0022C3F8082100
:107F0000244B9B7A1846FFF789FA254B1B68002BF8
:107F100003D0234B1B681E4898471A4BD3F80C31EB
:107F2000002B1CD0174B0022C3F80C211B4B1B78D5
:107F3000002B14D0194B00221A70194B1B68002B10
:107F40000DD03B1D00221A605A609A60DA601A61F7
:107F500001233B71124B1B683A1D10469847094B91
:107F6000D3F81031002B09D0064B0022C3F81021A2
:107F7000FFF790FEF8620B4AFB6A136000BF3037D0
:107F8000BD4680BD00700140B49D0020AC9D002026
:107F9000888F0020809D0020A09D0020A89D0020AB
:107FA000B89D0020709D002080B586B000AF78603D
:107FB0003B4B1B68002B01D000236CE07B681B68E7
:107FC0003B613B6903F2D3133B61364BDB68D3F86B
:107FD0004435FB60FA683B699A4207D93A69FB6805
:107FE000D31A03F51C4340337B6103E03A69FB6815
:107FF000D31A7B617B69042B0BD82B4B5B8A013333
:108000009AB2294B5A827B689B68274AD360002327
:1080100041E07B69002B04D07B6949F640429342E2
:108020000BD1214B5B8A01339AB21F4B5A827B687A
:108030009B681D4AD36000232DE07B6949F64042CE
:10804000934208D9174BDA687B69A3F51C43403B80
:10805000C2F8483507E0134BDA687B69C3F51C4367
:108060004033C2F848357B689B685A1C7B689A602D
:108070007B689A680C4B9B689A4201D100230AE006
:10808000074803F052FD7B681946084803F079FC65
:1080900000F086F9012318461837BD4680BD00BFA1
:1080A000A09D0020809D0020888F0020B49D00208E
:1080B00080B485B000AF374B9B79FB60354BDB79E3
:1080C000BB60344BDB7A7B600122FB689A40324B09
:1080D000C3F808252F4BDB6803F5A4732E4A194615
:1080E000FB68A23342F833102A4BDB680C332A4A70
:1080F0001946FB68A233DB0013445960254B1B690A
:108100000C33254A1946FB6803F5117342F8231016
:108110000122BB689A40204BC3F808251D4BDB6841
:1081200003F5A4731C4A1946BB68A23342F8331006
:108130007B68DB00043303F1804303F5F833164A10
:108140001946BB68A233DB0013445960114B5B69CD
:10815000114A1946BB6803F5117342F823100E4A01
:108160007B68DB00134401225A600122FB689A40BD
:108170000121BB6801FA03F31343074A19467B68E0
:1081800003F5007342F8231000BF1437BD465DF8B5
:10819000047B7047809D002000F0014080B483B0D4
:1081A00000AF134B1B7A7B60124A7B68A2331249E3
:1081B00042F833100E4BDB6844330E4A19467B6895
:1081C000A233DB00134459600A4A7B6803F511733C
:1081D000002142F8231001227B689A40054BC3F826
:1081E000042500BF0C37BD465DF8047B704700BF17
:1081F000809D002000F001400411004080B483B055
:1082000000AF144B9B797B60134A7B68A233134900
:1082100042F833100F4BDB6844330F4A19467B6832
:10822000A233DB00134459600A4B1B6944330A4AEA
:1082300019467B6803F5117342F8231001227B680D
:108240009A40054BC3F8042500BF0C37BD465DF8C6
:10825000047B7047809D002000F001400011004029
:1082600080B483B000AF154B5B7A7B60134BDB6847
:1082700003F5A073124A19467B68A23342F8331003
:108280000E4B1B6908330E4A19467B68A233DB008C
:10829000134459600A4A7B6803F51173002142F8C0
:1082A000231001227B689A40054BC3F8042500BFC8
:1082B0000C37BD465DF8047B704700BF809D0020F1
:1082C00000F0014080B483B000AF7860144B5B696C
:1082D00003F58273134A19467B68A23342F83310C0
:1082E0000F4BDB684C330F4A19467B68A233DB0027
:1082F000134459600A4B1B6940330A4A19467B688C
:1083000003F5117342F8231001227B689A40054B54
:10831000C3F8042500BF0C37BD465DF8047B7047E9
:10832000809D002000F0014080B483B000AF7860F1
:1083300001227B689A400E4BC3F808250C4A7B68E3
:10834000A233002142F83310094A7B68A233DB00D4
:10835000134400225A60064A7B6803F5117300211A
:1083600042F8231000BF0C37BD465DF8047B704710
:1083700000F0014080B483B000AF074B1B7A7B60F4
:1083800001227B689A40054BC3F8082500BF0C37D3
:10839000BD465DF8047B7047809D002000F00140E1
:1083A00080B400AF054B064AD27A1146012243F849
:1083B000312000BFBD465DF8047B704700F00140EE
:1083C000809D002080B584B000AF78600E4B987A15
:1083D0000D4B1B6903F5A8737A681946FEF7DCF8A4
:1083E000F860FB68002B01D0FB6809E0064B9A7A25
:1083F000054B5B69083319461046FEF703F903463F
:1084000018461037BD4680BD809D002080B58AB0DB
:1084100000AFF860B9607A604E4803F079FB03461C
:10842000002B07D000237B627B6A002B02D1002047
:1084300001F024FE07F113031846FEF72FF8386207
:108440003B6A002B0CBF01230023DBB2FB61FB69FD
:10845000002B02D1002001F011FEFB7C1846FFF733
:1084600031FF3D4B93F918301846FEF743FF3A4B66
:108470005B69D3F80031002B14BF01230023FB7686
:10848000354B5B690022C3F80421334B5B69012241
:108490005A6000E000BF304B5B69D3F80431002B19
:1084A000F8D02D4B1B69D3F84035012B05D92A4B49
:1084B000DB68D3F84C35012B10D8274B5B690022C1
:1084C000C3F80421244B5B6901225A6000E000BF1D
:1084D000214B5B69D3F80431002BF8D0FB7E002BD5
:1084E00004D01E4B1B689B687B6102E01C4B1B6821
:1084F0007B61FA7E184B5B69D3F800319A42B6D1A2
:10850000154BDB68D3F84C35012BB0D9124B93F9DE
:1085100018301846FEF7D0FEFB7C1846FFF704FF24
:10852000FB7C1846FEF70CF80B4BDB68D3F84C25A8
:10853000FB681A60084B1B69D3F84025BB681A60BA
:108540007A697B681A60034803F009FB00BF28378B
:10855000BD4680BDC89D0020809D0020B49D0020A8
:10856000AC9D002080B584B000AF78607B681B684C
:10857000002B0BD07B685B68002B07D07B689B6867
:10858000002B03D07B681B69002B01D1072339E046
:108590007B68082219461D480EF0DCFD7B689B684D
:1085A0001B4A53617B6893F90C20194B1A767B6840
:1085B0001B69184A13601848FEF743F8B860BB6897
:1085C000002B01D003231DE00023FB600FE0FB68BC
:1085D0000F4A134406331846FDF760FFB860BB68C6
:1085E000002B01D003230DE0FB680133FB60FB6827
:1085F000042BECD9064B5B69084A934201D0072350
:1086000000E0002318461037BD4680BD8C9D002039
:10861000809D0020B89D00208B9D002000700140AF
:1086200080B584B000AF78607B68002B03D07B6896
:108630000133002B01D1072369E0374B1B68002B66
:1086400001D0082363E0FEF7C5FEF860FB68002B4D
:1086500001D0FB685BE00020FEF7B8FE0246FB6835
:108660001343FB60FB68002B01D0FB684FE07B6885
:1086700001330522194629480EF06CFD7B681A78F3
:10868000274B1A702748FEF7A9FEF860FB68002BFD
:1086900001D0FB683BE02448FEF7A8FEF860FB68C9
:1086A000002B01D0FB6832E0FFF7DAFDFFF700FD99
:1086B0001B4B93F918301846FEF740FE184B93F900
:1086C000183007211846FEF757FE154B93F918305E
:1086D0001846FEF7F1FD124B5B694FF0FF32C3F80D
:1086E00008230F4B5B691D22C3F804230F4B0022A4
:1086F0001A600F4B00221A700E4803F030FAFFF791
:1087000055FAFFF777FA044803F00FFA00231846EA
:108710001037BD4680BD00BF5C9D0020819D0020BC
:10872000809D0020CD7502009C8F0020649D00205C
:10873000BC9D00209C9D002080B584B000AF786077
:108740007B68B3F1FF3F16D11E23BB60BB685B089B
:1087500003F5742303F51073BA68B3FBF2F303F265
:10876000E243144AA2FB0323DB0A40F6C41202FBD5
:1087700003F3FB6004E0104A7B68B2FBF3F3FB6099
:10878000FB680E4A934201D907230EE00C4AFB68AE
:108790001360FFF77FFA03460A4A13600A4B002270
:1087A0001A600A4803F0C1F9002318461037BD4685
:1087B00080BD00BF5917B7D140420F00FE1FA1076F
:1087C0006C9D0020709D00207C9D00209C9D0020C1
:1087D00080B500AF024803F0C2F90023184680BDFF
:1087E0009C9D00202DE9B04F90B000AF07F12C0206
:1087F00007F1300107F134031846FFF707FE3B6B22
:108800000022BB61FA61D7E90623C7E90E23FB6AA0
:1088100000221C461546D7E90E23111939616B4118
:108820007B61D7E90434C7E90E34D7E90E0102466B
:108830000B464FF000044FF000059D0045EA92758D
:10884000940022462B4612EB000A43EB010B4FF03B
:1088500000024FF000034FEACB0343EA5A734FEA9A
:10886000CA0292469B46BAEB00086BEB01094FF037
:1088700000024FF000034FEA091343EA18734FEA6E
:1088800008129046994618EB0003BB6049EB0103C0
:10889000FB604FF000024FF00003D7E90245294684
:1088A0008B01214643EA916321468A011C46134607
:1088B000C7E90E347B6B00223B627A62D7E90E2354
:1088C000D7E90845214651183960294643EB010193
:1088D0007960D7E90034C7E90E34D7E90E23104692
:1088E00019464037BD46BDE8B08F00000649074A2B
:1088F000074B9B1A03DD043BC858D050FBDC04F047
:10890000EBFDFDF7A1FC0000C8D20300888F00201A
:10891000989B0020FEE7FEE7FEE7FEE7FEE7FEE7A6
:10892000FEE7FEE7FEE7FEE780B584B000AF7860C3
:108930007B68002B0AD0074B43F00103FB607B6888
:108940009B01BB60FB68B868984700E000BF103728
:10895000BD4680BDD0AF030080B582B000AF786067
:108960007B68002B0AD04FF47A70FFF7DDFF7B683D
:10897000013B7B607B68002BF5D100E000BF08372E
:10898000BD4680BD80B500AF0AF0C4FF00BF80BD0A
:1089900080B588B000AFF860B9607A607B68002B62
:1089A00033D00023FB610323BB61BA68FB69134426
:1089B0007A68194600200AF05DFF7861FA697B69E0
:1089C0001344FB617A687B69D31A7B607B69002B57
:1089D00013D1104B1B7883F00103DBB2002B13D1B2
:1089E0000120FFF7B9FFBB69013BBB61BB69002BED
:1089F00003D1084B00221A7007E0064B01221A70BF
:108A00007B68002BD1D100E000BF00BF2037BD46FE
:108A100080BD00BFCC9D002080B584B002AF7860DF
:108A20003960064B00934023054A3968786800F0A6
:108A30001DF800BF0837BD4680BD00BF9189020008
:108A4000D09D002080B483B000AF786000BF0C37A9
:108A5000BD465DF8047B704780B483B000AF78609A
:108A600000BF0C37BD465DF8047B704780B5A0B0F1
:108A700002AFF860B9607A603B60B86803F03CFD13
:108A80007B68FB643B683B6500237B65002387F8BC
:108A900058300023FB65D7F880303B6600237B67A6
:108AA00007F134017B6F0822B86803F0E9FD082361
:108AB0007B67FB6B3B643B8FA7F844307B8FA7F849
:108AC0004630012387F8493097F8343003F0030328
:108AD000DBB2012B29D17B6BC3F39523BB6697F8DF
:108AE0003430C3F3C203DBB287F84830BB8EC3F324
:108AF0008313DBB27B667B6E9A0007F11C017B6FF0
:108B0000B86803F0BDFD7B6E9B007A6F13447B67F2
:108B100007F1400207F11C0107F14C0300931346D3
:108B20007A6EB86E00F0ECFE32E097F8343003F065
:108B30000303DBB2022B2BD1FB8EC3F389139BB251
:108B40003B6797F83430C3F3C203DBB287F8483091
:108B50003B6F082B28BF0823FB6607F114017B6FCE
:108B6000FA6EB86803F08CFD7A6FFB6E13447B6776
:108B70003A6FFB6ED31A3B6707F14C0307F14002D3
:108B800007F11400F96E00F05DFF3B6F002BDFD1A1
:108B9000B86803F0C1FC00BF7837BD4680BD80B423
:108BA00083B000AF78607B68DB6801225A7100BF38
:108BB0000C37BD465DF8047B7047000080B582B07D
:108BC00000AF4FF0FF337B60FFF7DCFE0421054868
:108BD00000F0A8FD78600348FFF7E1FF00BF083709
:108BE000BD4680BDB0D2030080B582B000AF7860D2
:108BF00039607B681B681B6839687868984700BFD4
:108C00000837BD4680BD80B582B000AF78607B6814
:108C10001B685B687868984700BF0837BD4680BD11
:108C200080B582B000AF78607B681B689B6878680D
:108C3000984700BF0837BD4680BD80B483B000AF01
:108C400078600B46FB707B68DB68FA781A7100BFAE
:108C50000C37BD465DF8047B704780B483B000AF2D
:108C600078607B68DB681B7918460C37BD465DF879
:108C7000047B704780B483B000AF78607B68DB68AA
:108C800001225A7100BF0C37BD465DF8047B704766
:108C900080B483B000AF78607B68DB685B7918468E
:108CA0000C37BD465DF8047B7047000080B584B08A
:108CB00000AF786039600C4B00221A700B4803F04B
:108CC00081FBF860FB68002B01D0FB6808E00848D6
:108CD00003F0DDFF074A084BD31ADB08BB60002313
:108CE00018461037BD4680BD789F0020A4D10300F0
:108CF000E8AF0300A4D10300F4D0030080B400AFB8
:108D0000044A054BD31ADB081846BD465DF8047BC0
:108D1000704700BFA4D10300F4D0030080B586B033
:108D200000AF78600B46FB70FB78002B1FD0FFF77D
:108D3000E5FF386100237B6113E07B699B000E4AED
:108D40001344FB60FB681B881A467B681B689A42C9
:108D500004D17B687A691A60002309E07B690133DA
:108D60007B617A693B699A42E7D3052300E00023DF
:108D700018461837BD4680BD949B002080B584B04E
:108D800000AF78600B46FB70FA783B1D1146184621
:108D9000FFF7C4FF0346002B07D17B68DB00054AC1
:108DA0001344FB60FB681B6800E000231846103783
:108DB000BD4680BDF4D0030080B485B000AF7860BC
:108DC0000B46FB707B68DB00144A1344BB60FB78E6
:108DD000013B032B18D801A252F823F0ED8D0200BD
:108DE000F38D0200F98D0200018E02000223FB7355
:108DF0000DE00423FB730AE0BB681B79FB7306E0FC
:108E0000BB685B79FB7302E00023FB7300BFFB7B55
:108E100018461437BD465DF8047B7047F4D0030054
:108E200080B485B000AF786039600023FB737B6845
:108E30001B7803F00403DBB2002B23D07B681B7884
:108E4000C3F30103DBB2012B02D0022B0CD017E0DD
:108E50003B681B687A681288C2F38312D2B213444B
:108E60009A1C3B681A600BE03B681B687A68528862
:108E7000C2F3891292B213449A1C3B681A6000BF75
:108E80000123FB73FB7B18461437BD465DF8047B5A
:108E90007047000080B58AB000AF0023FB843848DB
:108EA00002F043FE374802F040FE374B9B683B61BF
:108EB000364B1B68BB613A69BB69134002339B00A8
:108EC000314A134404333B6207F110031946386AF0
:108ED000FFF7A6FF0346002B09D03A69BB69134090
:108EE00002339B00284A134404333B62ECE700BF83
:108EF0000023FB6111E03B695A1C3A61BA691340D7
:108F0000FA699200391D0A441F4902339B000B4441
:108F10005B681360FB690133FB61FB69012BEAD9D4
:108F20003B79C3F30103DBB2012B0DD0022B16D129
:108F30007B89FB84FB88C3F389139BB203339A08B4
:108F40003B6913443B610BE07B89FB84BB88C3F323
:108F50008313DBB21A463B6913443B6100E000BF58
:108F6000084802F0EFFD78617B69002B02D03B6975
:108F7000054A9360FB8C18462837BD4680BD00BF6C
:108F800090A300208CA30020789F0020DC8F00207D
:108F900080B584B000AF0021074802F0F2FCF86011
:108FA000FB68BB60BB6883F310037B607B6818467B
:108FB0001037BD4680BD00BF94A3002080B588B0A7
:108FC00000AFF860B9607A603B60FB681B0CBB6166
:108FD000FFF7DEFFF861FB6919043B685A1CBB6AA6
:108FE0001340BA690A431B4902339B000B445A6081
:108FF0003A68BB6A134002339B00164A1344043399
:109000007B61FB6803F00703D9B27A69137861F3D7
:10901000C50313707B6803F00F03D9B27A69138814
:1090200061F389131380BB68C3F315017A69136870
:1090300061F39F2313607A691378012161F30103BF
:1090400013707A6913786FF38203137000BF2037AF
:10905000BD4680BD789F002080B58CB000AFF86021
:10906000B9601346FB71FB680233BB62012387F8CA
:1090700027300023FB7607F11B03184601F0BEFFE3
:10908000384B5A68BB681A60374B1A68354B996879
:10909000344B5B68CB1A13440133FB6214E00121AB
:1090A000324802F003FDFFF7F5FEF861F9692F4839
:1090B00002F0FCFC2C4B1A682A4B9968294B5B6820
:1090C000CB1A13440133FB62BA6AFB6A9A42E6D8B0
:1090D00097F82730002B3BD000237B61FB79002BD6
:1090E00011D03B7D012262F301033B753B7D43F0D0
:1090F00004033B75FB6803F00F03DAB2BB8A62F32B
:109100008913BB8210E03B7D022262F301033B75B1
:109110003B7D43F004033B75FB68C3F309039AB23C
:10912000FB8A62F38F13FB820E4B5A680E4B1B684F
:10913000134002339B000B4A134404333B627A69A9
:109140003B6A1A60074B5A68BB6A1344054A53606E
:10915000FB7E184601F05DFF97F827301846303740
:10916000BD4680BD789F0020DC8F002094A30020A6
:1091700080B58AB002AFF860B9607A603B60204B7E
:109180001B687B6107F11003012219463868FFF75D
:1091900063FF0346002B24D03B690233FB610023AD
:1091A000BB6111E0BB699B007A681A44FB69591CDA
:1091B000F96179690B401268124902339B000B4434
:1091C0005A60BB690133BB61BA693B689A42E9D313
:1091D0003A697B69009313463A68B968F868FFF703
:1091E000EDFE084B1B78002B05D000BF00F0A6F861
:1091F0000346002BFAD100BF2037BD4680BD00BF1B
:10920000DC8F0020789F002080B582B000AF7860AE
:1092100039600023002239687868FFF7A9FF00BF92
:109220000837BD4680BD80B586B000AFF860B96034
:109230007A607B687B6107F114020123B968F868E2
:10924000FFF796FF00BF1837BD4680BD80B586B0DA
:1092500000AFF860B9607A603B607B683B613B6857
:109260007B6107F110020223B968F868FFF780FFFD
:1092700000BF1837BD4680BD80B588B000AFF8602C
:10928000B9607A603B607B687B613B68BB61BB6AAD
:10929000FB6107F114020323B968F868FFF768FF60
:1092A00000BF2037BD4680BD80B588B000AFF860F4
:1092B000B9607A603B607B683B613B687B61BB6AFD
:1092C000BB61FB6AFB6107F110020423B968F8680F
:1092D000FFF74EFF00BF2037BD4680BD80B58AB086
:1092E00000AFF860B9607A603B607B683B613B68C7
:1092F0007B613B6BBB617B6BFB61BB6B3B62FB6B65
:109300007B6207F110020623B968F868FFF730FFA7
:1093100000BF2837BD4680BD80B400AF064B9A68B9
:10932000054B5B689A420CBF01230023DBB2184651
:10933000BD465DF8047B7047789F002080B598B0EB
:1093400000AFFFF7E9FF0346002B01D00023ABE19C
:10935000924B0022C3F81824BFF34F8F00BF8F4BEE
:109360009B683B618E4B1B683B643A693B6C1340C6
:1093700002339B00894A134404337B640023FB655A
:109380000023BB650023FB6307F110031946786CCB
:10939000FFF746FD0346002B19D0804BD3F8183455
:1093A000002B14D17D4B5A683B699A4205D87B4B00
:1093B0005B687A4A9360002376E13A693B6C13401C
:1093C00002339B00754A134404337B64DCE70023BB
:1093D0007B6511E03B695A1C3A613A6C13407A6D27
:1093E0009200391D0A446D4902339B000B445B68AF
:1093F00013607B6D01337B657B6D012BEAD93B7973
:1094000003F00303DBB2022B40F09280FB88C3F32E
:1094100089139BB27B63FB88C3F389139BB2502BE8
:1094200028BF50239BB23B633B6BC3F309039AB243
:10943000FB8862F38F13FB803B6B0833FB623B7945
:10944000C3F3C203DBB2FB63F96A564802F0C6FFFE
:10945000F865FB6D002B00F0C680F86D03F04CF84A
:10946000391DBB6D0822F86D03F0F4F8BB6D0833AD
:10947000BB653B69DA433B6C134001339B00BB6225
:109480003A6BBB6A9A423DD9BB6A002B08D03A6955
:109490003B6C134002339B00404A1344043300E00A
:1094A000414B3B62BB6A002B02D0BB6ADBB201E0DE
:1094B0003B6BDBB2FB77BB6A002B01D03A4B00E081
:1094C0000023BB61BB6A002B06D03B6BDAB2BB6AE0
:1094D000DBB2D31ADBB200E00023FB75FA7FBB6D71
:1094E000396AF86D03F0B6F8FB7FBA6D1344BB65BB
:1094F000BB69002B15D0FA7DBB6DB969F86D03F01F
:10950000A9F80EE03A693B6C134002339B00234AF2
:10951000134404337B62BB6D3A6B796AF86D03F0D8
:1095200099F87B6B03339A083B6913443B615AE01B
:109530003B7903F00303DBB2012B54D1BB88C3F3A7
:109540008313DBB2062B28BF0623DAB2BB8862F393
:109550008913BB80BB88C3F38313DBB20233BB63C5
:109560003B79C3F3C203DBB2FB63BB6B9B001946C1
:109570000C4802F033FFF865FB6D002B33D0F86D1B
:1095800002F0BAFF391DBB6D0822F86D03F062F8D6
:10959000BB6D0833BB6500237B651CE0789F002012
:1095A000DC8F0020A4D10300849F00203B695A1C5B
:1095B0003A613A6C134002339B003D4A1344191D33
:1095C000BB6D0422F86D03F045F8BB6D0433BB6539
:1095D0007B6D01337B65BB88C3F38313DBB21A4613
:1095E0007B6D9342E2D3FB6D002B3DD0304BD3F823
:1095F00010343B652E4BD3F81834002B1BD0F86D7C
:1096000002F08AFF4AE0002387F84F30386DFFF7F9
:109610003FFB0346002B02D0012387F84F3097F819
:109620004F30002B03D0F96D386DFFF7DDFA3B6D3D
:10963000DB681B683B653B6D002BE4D1F86D02F0E5
:109640006BFF0023FB70FB1C184601F0D7FC184B86
:10965000D3F81834002B02D13B69154A9360FB788C
:10966000184601F0D6FC19E0114BD3F81034BB6456
:1096700006E0B86CFFF7D4FABB6CDB681B68BB6410
:10968000BB6C002BF5D10B4A0B4BD31ADB081B0428
:1096900043F0020309491846FFF7B6FDFFF73CFE09
:1096A000034683F00103DBB218466037BD4680BD38
:1096B000789F002024D10300F4D00300F8AF03000A
:1096C00080B584B000AF0023FB6020E0144BD3F8DA
:1096D0001034BB600123FB710EE0B868FFF7BDFAE0
:1096E00003461A46FB68934202D10023FB7106E051
:1096F000BB68DB681B68BB60BB68002BEDD1FB79E6
:10970000002B01D0FB6807E0FB680133FB60FB68BE
:10971000092BDBDD4FF0FF3318461037BD4680BD07
:10972000789F002080B584B000AF78600B46FB7056
:10973000FFF7C6FFF860FB68B3F1FF3F01D1FB689C
:1097400022E0FB68DBB219467868FFF776FA104B27
:10975000D3F81034002B08D10D4A7B68C2F81034BE
:109760007B68DB6800221A600DE0094BD3F81034E7
:10977000DA687B68DB6812681A60054BD3F810342E
:10978000DB687A681A60FB6818461037BD4680BDF2
:10979000789F002080B582B000AF0D4BD3F8103415
:1097A0007B600B4B01221A7009E07868FFF762FAC0
:1097B0007868FFF728FA7B68DB681B687B607B684A
:1097C000002BF2D100BF00BF0837BD4680BD00BFEF
:1097D000789F002080B483B000AF7860396000BF0C
:1097E0000C37BD465DF8047B7047000090B585B02E
:1097F00002AF786039607B68DB88002B0AD07B6819
:10980000DB881A461F4B009313461F4A1F493868CE
:1098100002F07AFA7B681B7A052B2ED07B685B7A84
:10982000002B12D07B689B881A467B681B7A1946EE
:109830001046FFF7C1FA03461A46154B53F822307B
:109840001A461449386802F05FFA7B681B681946AB
:109850003868FFF7BFFF7B681B7A1A460E4B53F838
:1098600022407B689B8800211846FFF787FA034651
:1098700022460A49386802F047FA00BF0C37BD4655
:1098800090BD00BF2CB003003CB0030074B00300D7
:10989000F48F00208CB00300E08F002090B0030014
:1098A00080B584B000AFF860B9601346FB71FB6807
:1098B0001B7A052B0FD0FB685B7A002B06D00D4B73
:1098C0001B681A460C49B86802F01EFA0B49B868C2
:1098D00002F01AFA06E0FB79002B03D00749B868BA
:1098E00002F012FAB86802F0F6F900BF1037BD4670
:1098F00080BD00BFF48F00208CB003009CB003003B
:10990000B0B58AB004AFF860B9607A603B60BB6AFA
:109910001B7BFB75BB6A00221A73B96A3868FFF7B4
:1099200065FF7B68062B7FD801A252F823F000BFA9
:109930004D99020057990200679902007B99020035
:1099400099990200C1990200F1990200F968B86A78
:1099500002F0DAF969E0BB681B681A46F968B86A70
:1099600002F0D2F961E0BB681A68BB6804331B6877
:10997000F968B86A02F0C8F957E0BB681A68BB68B2
:1099800004331968BB6808331B6800930B46F968F9
:10999000B86A02F0B9F948E0BB681968BB680433DB
:1099A0001868BB6808331B68BA680C3212680192E9
:1099B000009303460A46F968B86A02F0A5F934E054
:1099C000BB681868BB6804331C68BB6808331B6835
:1099D000BA680C321268B9681031096802910192B4
:1099E000009323460246F968B86A02F08DF91CE03C
:1099F000BB681C68BB6804331D68BB6808331B6800
:109A0000BA680C321268B96810310968B868143045
:109A1000006803900291019200932B462246F96858
:109A2000B86A02F071F900E000BF0022B96A386834
:109A3000FFF736FFBB6AFA7D1A7300BF1837BD46C1
:109A4000B0BD00BF80B586B000AFF860B9607A6085
:109A50003B60BB68082B5CD83B681B7BFB743B6896
:109A600000221A7339687868FFF7C0FE00237B6113
:109A700014E07A69BB689A4209D2FA687B69134498
:109A80001B781A462549386802F03EF903E024495C
:109A9000386802F039F97B6901337B617B69072BF8
:109AA000E7D92049386802F02FF900237B6124E0D0
:109AB0007A69BB689A4219D2FA687B6913441B78A9
:109AC000BB74BB7C7E2B0AD8BB7C0133164A134483
:109AD0001B7803F09703002B01D0BB7C00E02E2302
:109AE0001A461249386802F00FF903E01049386845
:109AF00002F00AF97B6901337B617B69072BD7D9B7
:109B0000012239687868FFF7CBFE3B68FA7C1A734C
:109B100000E000BF1837BD4680BD00BFA0B0030005
:109B2000A8B00300ACB00300B8CC0300B0B0030091
:109B3000B4B0030080B485B000AF0346FB71FB797D
:109B40005B08DBB21A460C4B9B5CFB73FB7903F0A2
:109B50000103002B03D0FB7B1B09DBB203E0FB7B83
:109B600003F00F03DBB2BB73BB7B18461437BD4653
:109B70005DF8047B704700BFD0A3002080B485B09F
:109B800000AF03460A46FB711346BB71FB7903F035
:109B90000103002B01D00F2300E0F023FB73FB79BE
:109BA00003F00103002B03D0BB791B01DBB200E003
:109BB000BB79BB73FB795B08DBB21A460F4B9A5C2F
:109BC000FB795B08DBB21946FB7B1340DAB20B4B27
:109BD0005A54FB795B08DBB21A46084B9A5CFB7956
:109BE0005B08DBB21946BB7B1343DAB2034B5A5412
:109BF00000BF1437BD465DF8047B7047D0A300203A
:109C000080B485B000AF0346FB710023FB600FE01A
:109C10000E4B1A68FB68DB001344BB60BB681B7803
:109C2000FA799A4201D1BB6809E0FB680133FB6015
:109C3000074B1B781A46FB689342E9DB0023184662
:109C40001437BD465DF8047B704700BF98A3002021
:109C50009CA3002080B584B000AF03460A46FB7188
:109C60001346BB71FB791846FFF7CAFFF860FB6823
:109C7000002B09D0FB685B68002B05D0FB685B6894
:109C8000B979FA791046984700BF1037BD4680BDB4
:109C90002DE9F04F89B000AF03460A46FB75134625
:109CA000BB75FB7D1846FFF745FF0346042B00F20A
:109CB000B58001A252F823F0CD9C02003D9D020028
:109CC000559D02007D9D02008F9D0200BB7D002BF3
:109CD00000F0A180FB7D01211846FFF74FFF002314
:109CE000FB7707F11F03184601F088F9F97D4FF063
:109CF00001024FF00003A1F12004C1F1200003FA9A
:109D000001F902FA04F449EA040922FA00F049EAE6
:109D1000000902FA01F8444BD3E9002348EA0201A2
:109D2000B96049EA0303FB603F4BD7E90212C3E97C
:109D30000012FB7F184601F06CF96CE0BB7D002B34
:109D400001D0022200E00022FB7D11461846FFF7F9
:109D500015FF63E0BB7D002B0AD0FB7D0321184675
:109D6000FFF70CFFFB7D01211846FFF773FF55E05D
:109D7000FB7D01211846FFF701FF4FE0BB7D002B63
:109D80004BD1FB7D04211846FFF7F8FE45E0BB7D73
:109D9000002B05D0FB7D03211846FFF7EFFE3DE0C9
:109DA000FB7D00211846FFF7E9FEFB7D00211846E8
:109DB000FFF750FF0023BB7707F11E03184601F0A1
:109DC0001DF9F97D4FF001024FF00003A1F12006CB
:109DD000C1F1200003FA01F502FA06F6354322FA32
:109DE00000F0054302FA01F46FEA040A6FEA050B7A
:109DF0000D4BD3E900230AEA020139600BEA0303A1
:109E00007B60094BD7E90012C3E90012BB7F1846FB
:109E100001F0FFF802E000BF00E000BF00BF243700
:109E2000BD46BDE8F08F00BFC8A3002080B582B05A
:109E300000AF0648064B1B685B080022194600F07D
:109E400029FF786000BF0837BD4680BDA8A3002069
:109E5000A0A3002080B586B000AF786000237B61AE
:109E600024E01B4B1A687B69DB0013443B613B69B0
:109E70001B78184604F0E3FF0346FB733B695B78ED
:109E8000012B0CBF01230023DBB21A46FB7B9A4255
:109E90000CBF01230023BB733B691B78BA7B1146BF
:109EA0001846FFF7F5FE7B6901337B61094B1B7890
:109EB0001A467B699342D4DB074BD3E90023134353
:109EC00001D0FFF7B3FF00BF1837BD4680BD00BF0C
:109ED00098A300209CA30020C8A3002080B584B0D4
:109EE00000AF78600B46FB707B68DBB21846FFF76B
:109EF00087FEF860FB681B78184604F0A0FF034655
:109F0000FB72FB685B78012B0CBF01230023DBB2E3
:109F10001A46FB7A9A420CBF01230023BB72BB7A1C
:109F2000002B06D0054BD3E90023134301D1FFF7E3
:109F30007DFF00BF1037BD4680BD00BFC8A3002015
:109F400080B58AB000AFF8600B467A60FB727B6820
:109F5000092B01D807235BE004F08CFE034683F055
:109F60000103DBB2002B09D004F02AFE78627B6A81
:109F70003B623B6A002B01D03B6A49E0264AFB6802
:109F80001360264AFB7A1370254A7B6813601022FF
:109F9000002124480DF0ECF823494FF000024FF067
:109FA0000003C1E9002328E0FB7ADB00FA681344D0
:109FB000FB6103233B7500237B75BB7D6FF30003BF
:109FC000BB75BB7D6FF34103BB75BB7D6FF3820334
:109FD000BB75FB699B787B75FB691B78184607F19D
:109FE0001403124A194604F057FE78627B6ABB617B
:109FF000BB69002B01D0BB690AE0FB7A5A1EFA72DA
:10A00000002BD1D10A4A00210A4800F021FE034664
:10A0100018462837BD4680BD98A300209CA3002089
:10A02000A0A30020D0A30020C8A30020DD9E020032
:10A03000559E0200C4B0030080B582B000AF00237B
:10A040007B600CE00B4B1A687B68DB0013441B78C9
:10A050000121184604F090FE7B6801337B60064BBB
:10A060001B781A467B689342ECD3002318460837C6
:10A07000BD4680BD98A300209CA3002080B586B07B
:10A0800000AF78600023FB6000233B617B687B614D
:10A0900007F10C031A46002144F2010000F028F8F1
:10A0A00000BF1837BD4680BD00B583B00290009157
:10A0B000019244F2010071466A4600F019F803B0BB
:10A0C00000BD00BF80B400AFBFF34F8F00BF064B91
:10A0D000DB6803F4E0620449044B1343CB60BFF335
:10A0E0004F8F00BF00BFFDE700ED00E00400FA0560
:10A0F00080B584B000AFF860B9607A6072B600BF16
:10A10000FFF748FB00BFFFF719F90346002BFAD110
:10A110000F4A104BD31ADB081B0443F001030E490E
:10A120001846FFF771F80D4B1B6803F00103002B75
:10A1300000D000BE064A074BD31ADB081B0443F0CD
:10A14000020307491846FFF75FF8FFF7BBFF00BFA0
:10A1500024D10300F4D00300C8B00300F0ED00E008
:10A16000D4B0030080B485B000AF78607B689B6892
:10A17000FB607B68DA68FB68D31A18461437BD4663
:10A180005DF8047B704780B483B000AF78600B4605
:10A19000FB707B681A687B68DB68796889880B408C
:10A1A0001344FA781A707B68DB685A1C7B68DA60A3
:10A1B00000BF0C37BD465DF8047B704780B485B0A6
:10A1C00000AFF8600B467A607B81FB681A68FB6819
:10A1D00099687B890B44F96889880B4013441A7885
:10A1E0007B681A7000BF1437BD465DF8047B70476A
:10A1F00080B582B000AF786039603A680021786835
:10A20000FFF7DCFF7B689B685A1C7B689A6000BF85
:10A210000837BD4680BD80B485B000AFF860B96036
:10A220001346FB80BB68002B01D10E2319E0FB888D
:10A23000002B05D0FB885A1EFB881340002B01D051
:10A2400009230EE0FB68BA681A60FB88013B9AB2EA
:10A25000FB689A80FB6800229A60FB680022DA6043
:10A26000002318461437BD465DF8047B704780B55F
:10A2700082B000AF78600B46FB707868FFF772FF22
:10A2800002467B689B889A4206D8FB781946786814
:10A29000FFF779FF002300E0042318460837BD4686
:10A2A00080BD80B582B000AF786039607868FFF714
:10A2B00059FF0346002B05D039687868FFF798FFEF
:10A2C000002300E0052318460837BD4680BD80B551
:10A2D00088B000AFF860B9607A60FB68002B01D1EC
:10A2E0000E2331E07B68002B01D10E232CE0F868AF
:10A2F000FFF738FFB8617B681B687B610023FB6157
:10A30000BA697B69934228BF13463B617B68BA698F
:10A310001A60BB69002B01D1052315E0BB68002B37
:10A320000AD1002310E0FB695A1CFA61BA68134491
:10A330001946F868FFF75CFFFA693B699A42F2D365
:10A340007B683A691A60002318462037BD4680BDF5
:10A3500090B589B000AFF860B9607A60FB68002BF7
:10A3600001D10E2338E07B68002B01D10E2333E0AE
:10A37000FB689B881C46F868FFF7F4FE0346E31A67
:10A380000133BB617B681B687B610023FB61BA6999
:10A390007B69934228BF13463B617B68BA691A60A8
:10A3A000BB69002B01D1042316E0BB68002B0BD145
:10A3B000002311E0FB695A1CFA61BA6813441B7848
:10A3C0001946F868FFF7DFFEFA693B699A42F1D354
:10A3D0007B683A691A60002318462437BD4690BD51
:10A3E00080B483B000AF78607B6803F00303002B78
:10A3F0000CBF01230023DBB218460C37BD465DF8C5
:10A40000047B704780B483B000AF0346FB71FB79D7
:10A410009AB2074B1B889A4203D2FB790133DBB215
:10A4200000E0002318460C37BD465DF8047B7047FA
:10A43000ECA3002080B582B000AF0A4B1B78FB7103
:10A44000094B1B78DBB21846FFF7DCFF03461A46C0
:10A45000FB7993420CBF01230023DBB21846083777
:10A46000BD4680BDE8A30020E9A3002080B483B0EE
:10A4700000AF094B1B78FB71084B1B78DBB2FA79F4
:10A480009A420CBF01230023DBB218460C37BD46AD
:10A490005DF8047B704700BFE8A30020E9A300201B
:10A4A00080B584B000AF03463A60FB800B46BB80AA
:10A4B000BB8801339BB2DB00FB813868FFF790FF5C
:10A4C000034683F00103DBB2002B01D0072314E025
:10A4D0000C4A3B681360FB893A6813440A4A1360CC
:10A4E0000A4B00221A700A4B00221A70094AFB8894
:10A4F0001380094ABB881380002318461037BD46D5
:10A5000080BD00BFE0A30020E4A30020E9A3002059
:10A51000E8A30020EAA30020ECA3002080B586B0C9
:10A5200000AFF8600B467A607B81304B1B887A89DC
:10A530009A4254D84FF6FF737B8200237B7407F155
:10A540001103184600F05AFDFFF774FF0346002B75
:10A550000DD1274B1B78DBB27B82254B1B78DBB2FE
:10A560001846FFF74FFF03461A46214B1A707B7CB3
:10A57000184600F04EFD7B8A4FF6FF7293422BD0B7
:10A580001C4B1A687B8ADB0013447A681A60FB68EC
:10A59000002B17D07B89002B14D0174B1B687A8AAD
:10A5A0001249098801FB02F213447A89F9681846B6
:10A5B0000CF0D0FD0F4B1A687B8ADB0013447A89BC
:10A5C0009A8006E00B4B1A687B8ADB00134400225A
:10A5D0009A8000237B6104E004237B6101E009236E
:10A5E0007B617B6918461837BD4680BDEAA3002011
:10A5F000E9A30020E0A30020E4A3002080B400AF82
:10A6000000231846BD465DF8047B704780B584B0D2
:10A6100000AF29E01D4B1B78DBB2FB811C4B1B6894
:10A62000FA891C49098801FB02F21344BB601A4BEA
:10A630001A68FB89DB0013449B88FB80164B1A6861
:10A64000FB89DB0013441B683B60FA883B681146BA
:10A65000B86898470D4B1B78DBB21846FFF7D2FE5F
:10A6600003461A46094B1A70FFF7C8FF034683F0EA
:10A670000103DBB2002B04D0FFF7F8FE0346002BEA
:10A68000C8D000BF1037BD4680BD00BFE8A3002082
:10A69000E4A30020EAA30020E0A300202DE9B04FAE
:10A6A00082B000AF144801F02DF8034600221C468A
:10A6B0001546124BD3E9002314EB020A45EB030BBA
:10A6C000C7E900AB0E4BD3E90023D7E90001904264
:10A6D00071EB030307D2D7E9002312F1807843F12D
:10A6E0000009C7E90089D7E9002310461946083751
:10A6F000BD46BDE8B08F00BF18900020F8A3002031
:10A7000000A4002080B489B000AF786039607B6815
:10A71000FB613B68BB61FB69D3E90223C7E9042302
:10A72000BB69D3E90223C7E90223D7E90423D7E9A8
:10A730000201904271EB03032CBF01230023DBB223
:10A7400018462437BD465DF8047B70472DE9B043B9
:10A7500084B000AF78600023FB73274B1B78002B7D
:10A7600044D07B68002B41D07B681B7FDBB2002B81
:10A770003CD0FFF793FF7B68D3E90223904271EB53
:10A7800003032CD37B681B69002B02D17B6800225A
:10A790001A777B685B697A689269104698477B688C
:10A7A0001B69002B22D07B681B7FDBB2002B1DD0E6
:10A7B0007B68D3E902237968096900200C460546C5
:10A7C00012EB040843EB05097B68C3E902897B6847
:10A7D00019460A4802F0BDFA0123FB7306E07B68C4
:10A7E0001946064802F0B5FA0123FB73FB7B1846B5
:10A7F0001037BD46BDE8B083F4A30020F4B00300D9
:10A800002DE9B04388B000AF786039600D23FB615B
:10A810003B6800221A707B68D3E90245FFF73EFFD0
:10A8200002460B46B4EB020865EB0309C7E904894D
:10A83000D7E90423012A73F100031BDB3B69B3F55D
:10A84000350F05D300F06CFA0246144B134403E0B5
:10A850007B68D3E902231346FB604FF49603FA6842
:10A8600000210F4800F05CFEF861FB69002B05D168
:10A8700001230EE000210A4800F01EFFFB690D2BAA
:10A8800006D17868FFF762FF03461A463B681A70E4
:10A89000002318462037BD46BDE8B083FFFFB40053
:10A8A0001890002080B582B000AF044802F07BFA17
:10A8B00078607B6818460837BD4680BDF4B0030059
:10A8C00080B582B000AF044802F088FA78607B68F7
:10A8D00018460837BD4680BDF4B0030080B582B08D
:10A8E00000AFFFF7DFFF78607B68002B02D07B684A
:10A8F00000221A777B68002BF3D100BF00BF083716
:10A90000BD4680BD80B400AF074BD3E9002312F1F0
:10A91000807043F10001044BC3E9000100BFBD4654
:10A920005DF8047B704700BFF8A3002080B582B0BB
:10A9300000AF7860074B1B68002B07D0054B1B68E6
:10A940001846FFF703FF034B00221A6000BF0837C9
:10A95000BD4680BDF0A3002080B582B000AF786016
:10A96000FFF79CFE02460B460349C1E9002300BFE6
:10A970000837BD4680BD00BF00A4002080B584B06C
:10A9800000AF7860FFF79CFFF8600023FB72FB6864
:10A99000002B44D0294B1B68002B02D10123FB72F2
:10A9A00018E0FB68D3E90201244B1B68D3E90223BA
:10A9B000904271EB03030DD20123FB721F4B1B6806
:10A9C0001B7FDBB2002B05D01C4B1B6819461C48B3
:10A9D00002F0BFF9FB7A002B29D0FFF763FFF86084
:10A9E00007F10A031946F868FFF70AFF0346002B30
:10A9F00011D0124B1B68002B02D1786800F0D4FCF8
:10AA00000E4AFB681360BB7A83F00103DBB2002BB4
:10AA1000B8D000BF0EE0094B00221A60B2E7074B26
:10AA20001B68002B05D1786800F0CCFC01E000BF6A
:10AA300000E000BF00BF1037BD4680BDF0A300207E
:10AA4000F4B0030080B586B000AF78602D4A07F1FE
:10AA50000C031946104600F065FF786149E07B69F8
:10AA60001B78022B2DD0022B31DC002B02D0012BC6
:10AA700014D02CE07B695B681B7FDBB283F00103A1
:10AA8000DBB2002B25D07B695B6801221A777B69DA
:10AA90005B6819461C4802F05CF91AE07B695A6849
:10AAA0001A4B1B689A4203D1184B00221A6011E01E
:10AAB0007B695B681946144802F09DF90346FB74F4
:10AAC00008E0FFF70BFF124B01221A7002E000BFF3
:10AAD00000E000BF0B4A07F10C031946104600F0D6
:10AAE0003BFF084A07F10C031946104600F01AFF15
:10AAF00078617B69002BB2D100BF00BF1837BD461B
:10AB000080BD00BF60A40020F4B00300F0A30020CB
:10AB1000F4A3002080B582B000AF7860786800F0C0
:10AB2000BDFD0346002B01D0FFF7ECFE0021786845
:10AB300000F0D4FD0346002B02D07868FFF7F6FE44
:10AB40000121786800F0CAFD0346002B02D0786826
:10AB5000FFF702FF7868FFF775FF7868FFF70EFFD1
:10AB600000BF0837BD4680BD80B500AF024800F089
:10AB7000D7FD00BF80BD00BF1890002080B584B015
:10AB800000AF03463960FB71114A07F1080319460B
:10AB9000104600F098FEF860FB68002B13D0FB68AD
:10ABA000FA791A70FB683A685A60094A07F1080393
:10ABB0001946104600F0A1FE0346002B01D0FFF716
:10ABC000D3FF002300E0042318461037BD4680BDA4
:10ABD00060A4002080B582B000AF164B1B683B60BC
:10ABE000154808235822154900F03BFE78607B6821
:10ABF000002B01D07B6819E03B46114A19461148E9
:10AC000000F06AFB78607B68002B01D07B680DE068
:10AC100001210C4800F032FD01230B4A01210948B3
:10AC200000F0DEFB094B01221A707B6818460837DA
:10AC3000BD4680BDF0B0030060A4002008A4002041
:10AC400015AB020018900020FFFF7F00F4A3002046
:10AC500080B487B000AFF8600B467A60FB727B6807
:10AC6000002B01D107230FE0FB681B687B617B6928
:10AC70007A685A61FB7A012B0CBF01230023DBB2F7
:10AC80001A467B691A61002318461C37BD465DF8D9
:10AC9000047B70472DE9B04386B000AFF860B9601F
:10ACA0007A60FB687B617B691B7FDBB2002B01D084
:10ACB00000231DE07B697A689A61FFF7EFFC02468A
:10ACC0000B46B96800200C46054612EB040843EB1E
:10ACD00005097B69C3E902897B691B69002B02D0E6
:10ACE0007B69BA681A6179690020FFF747FF03465C
:10ACF00018461837BD46BDE8B08380B584B000AFB4
:10AD000078607B68FB60FB6800221A77F968012095
:10AD1000FFF734FF034618461037BD4680BD0000DC
:10AD200080B500AF024800F0EDFC0346184680BD38
:10AD30001890002080B586B000AFF860B960134667
:10AD4000FB7100237B61FB681B781A46104B9B5CF0
:10AD5000002B08D0FB680433FA79B968184605F06F
:10AD60005DFB78610EE0FB681B781A46084B9B5C24
:10AD7000002B07D1FB680C33FA79B968184604F048
:10AD8000FFFC78617B6918461837BD4680BD00BF5F
:10AD9000E4A4002080B584B000AF78600023FB738A
:10ADA0007B681B781A460F4B9B5C002B07D07B6897
:10ADB0000433184605F0C4FB0346FB730DE07B68C3
:10ADC0001B781A46074B9B5C002B06D17B680C3323
:10ADD000184604F041FD0346FB73FB7B1846103711
:10ADE000BD4680BDE4A4002080B586B000AFF86009
:10ADF000B9601346FB7100237B61FB681B781A4620
:10AE0000104B9B5C002B08D0FB680433FA79B968BF
:10AE1000184605F0B1FB78610EE0FB681B781A4616
:10AE2000084B9B5C002B07D1FB680C33FA79B9689F
:10AE3000184604F073FD78617B6918461837BD46E3
:10AE400080BD00BFE4A4002080B586B000AF78606C
:10AE5000104B1B78FB7579680F48FFF722FA3861B1
:10AE6000FB7D002B10D00B4B00221A7001220B49E6
:10AE70000B48FFF7B9FFF860FB68BB60BB68002BAD
:10AE800002D0B868FFF7FAF83B6918461837BD4694
:10AE900080BD00BF79A400207CA4002078A40020FD
:10AEA0002090002080B584B000AF0346FB71FB7991
:10AEB00019461148FFF7DBF9F860FB68002B15D144
:10AEC0000E48FFF767FF034683F00103DBB2002B58
:10AED0000CD00B490848FFF7E4F90346002B05D1D5
:10AEE000012207490548FFF725FFF860FB6818466F
:10AEF0001037BD4680BD00BF8CA4002020900020EC
:10AF000074A4002080B483B000AFEFF310833B60E3
:10AF10003B687B6072B600BF7B6818460C37BD4645
:10AF20005DF8047B704780B400AF62B600BF00BF1D
:10AF3000BD465DF8047B704780B584B000AF786093
:10AF4000FFF7E0FFF860164B9B68002B1BD1144BFA
:10AF500001229A60134BD3F88020134B1340104A00
:10AF60001360104B104AC3F880200E4BD3F8843086
:10AF70000B4A53600B4B4FF0FF32C3F884207B68C1
:10AF800000221A7002E07B6801221A70FB68002B15
:10AF900001D1FFF7C8FF002318461037BD4680BD1A
:10AFA0009CA4002000E100E0FC06FFBD80B584B059
:10AFB00000AF0346FB710F4B9B68002B15D0FB794C
:10AFC000002B12D1FFF79EFFF8600B4A094B1B685C
:10AFD0001360094A074B5B685360064B00229A6076
:10AFE000FB68002B01D1FFF79EFF002318461037A6
:10AFF000BD4680BD9CA4002000E100E080B582B089
:10B0000000AF78607868FFF797FF00BF0837BD464C
:10B0100080BD80B582B000AF0346FB71FB79184656
:10B02000FFF7C4FF00BF0837BD4680BD80B483B0C2
:10B0300000AF0346FB7197F90730002B0BDBFB7960
:10B0400003F01F02074997F907305B09012000FA56
:10B0500002F241F8232000BF0C37BD465DF8047BA7
:10B06000704700BF00E100E080B483B000AF03464A
:10B07000FB7197F90730002B0CDBFB7903F01F0203
:10B08000074997F907305B09012000FA02F24033C3
:10B0900041F8232000BF0C37BD465DF8047B7047A4
:10B0A00000E100E080B483B000AF03463960FB717B
:10B0B00097F90730002B0ADB3B68DAB20C4997F9A5
:10B0C00007305201D2B20B4483F800230AE03B68F8
:10B0D000DAB20849FB7903F00F03043B5201D2B204
:10B0E0000B441A7600BF0C37BD465DF8047B7047F1
:10B0F00000E100E000ED00E080B582B000AF034663
:10B100000A46FB711346BB71BA7997F907301146AD
:10B110001846FFF7C7FF00BF0837BD4680BD80B5A2
:10B1200082B000AF0346FB7197F907301846FFF76E
:10B130007DFF00BF0837BD4680BD000080B584B0EC
:10B1400000AF78607B68002B0AD0074B43F0010307
:10B15000FB607B689B01BB60FB68B868984700E0B8
:10B1600000BF1037BD4680BD50B1030080B485B02C
:10B1700000AFF860B9607A60FB68BA6802F5A8723F
:10B18000796843F8221000BF1437BD465DF8047B90
:10B19000704780B483B000AF786039607B683A68EC
:10B1A00002F5A87253F8223018460C37BD465DF8F8
:10B1B000047B704780B483B000AF786039607B68EF
:10B1C0003A68C3F8042300BF0C37BD465DF8047B22
:10B1D000704780B483B000AF786039607B683A68AC
:10B1E000C3F8082300BF0C37BD465DF8047B7047E9
:10B1F00080B483B000AF78600B467B807B887A6830
:10B2000013441B6818460C37BD465DF8047B704735
:10B2100080B485B000AF78600B467B807B887A680D
:10B22000134400221A607B887A6813441B68FB6011
:10B23000FB6800BF1437BD465DF8047B704780B4DF
:10B2400083B000AF78607B68D3F8043518460C37BC
:10B25000BD465DF8047B704780B483B000AF786072
:10B2600039607B683A68C3F8082500BF0C37BD46D3
:10B270005DF8047B704780B483B000AF78600B4604
:10B28000FB70FA787B6813441A460123136000BFF1
:10B290000C37BD465DF8047B704780B483B000AFC7
:10B2A000786039607B683A68C3F8442300BF0C3784
:10B2B000BD465DF8047B704780B483B000AF786012
:10B2C00039607B683A68C3F8482300BF0C37BD4635
:10B2D0005DF8047B7047000080B586B000AFF86071
:10B2E000B9607A60FB685B791946294A7B6842F845
:10B2F0002130FB685B79274ADB0013441B79002B64
:10B300000ED008237B61244A244BD31ADB081B048C
:10B3100043F0020322491846FDF776FF7B6932E0CD
:10B32000FB681A68BB681B8819461046FFF794FF34
:10B33000FB6893F90420BB689B7819461046FFF719
:10B34000DBFEFB6893F904301846FFF7E8FEFB6864
:10B350005B79104ADB00134401221A71FB685B79A8
:10B3600019460C4AFB6842F8313000237B610A4AD7
:10B370000A4BD31ADB081B0443F0030309491846A0
:10B38000FDF742FF7B6918461837BD4680BD00BFF8
:10B39000A8A40020ACA4002034D10300F4D0030002
:10B3A00000B1030024B1030080B582B000AF786023
:10B3B0007B681B6800211846FFF75DFF00BF083758
:10B3C000BD4680BD80B582B000AF78607B681B68E9
:10B3D00004211846FFF74FFF00BF0837BD4680BD68
:10B3E00080B586B000AFF860B9607A60FB704FF44A
:10B3F0008032BB6802FA03F37B61BB6850339BB2B7
:10B400009B007B827B6823F07F437B60FB681B682B
:10B4100079691846FFF7DDFEFB681B6879691846F5
:10B42000FFF74AFFFB681B687A8A11461846FFF748
:10B43000EFFEFB681B687A68B9681846FFF796FE4E
:10B44000FB681B6879691846FFF727FFFB78002B1C
:10B4500005D0FB681B6879691846FFF7ABFE00BF93
:10B460001837BD4680BD80B584B000AFF860B960C4
:10B470001346FB71FB681B68B9681846FFF70DFFA0
:10B48000FB79002B05D0FB681B68B9681846FFF7ED
:10B4900091FE00BF1037BD4680BD80B582B000AFC1
:10B4A000786039607B681B6839681846FFF704FFCD
:10B4B0007B681B6839681846FFF78BFE00BF0837AA
:10B4C000BD4680BD80B582B000AF78600B467B8002
:10B4D0007B681B687A8811461846FFF789FE034689
:10B4E000002B08D07B681B687A8811461846FFF746
:10B4F0008FFE012300E0002318460837BD4680BDBB
:10B5000080B483B000AF786039607A683B68D31A42
:10B5100023F07F4318460C37BD465DF8047B704727
:10B5200080B58AB000AFF860B9607A603B604FF4D4
:10B530008032BB6802FA03F37B62BB6850339BB274
:10B540009B007B847B6823F07F437B60796AF8688B
:10B55000FFF7A3FFFB681B681846FFF770FEF86152
:10B56000FB681B68B9681846FFF713FEB861FB68F3
:10B570001B68FA69B9681846FFF7F8FDFB681B6895
:10B580007A8C11461846FFF743FEF969B869FFF750
:10B59000B7FF0346012B09D11020FFF7CFFDFB6851
:10B5A0001B687A8C11461846FFF732FEFB681B6851
:10B5B0001846FFF744FEF861F9697868FFF7A0FFC5
:10B5C0007861FB681B68796A1846FFF766FE7B693D
:10B5D000012B15D1FB6818687B6801331A46B968DE
:10B5E000FFF7C4FD1020FFF7A9FDFB681B68184694
:10B5F000FFF725FE0246FB69934235D00D2339E063
:10B60000FB681B687A68B9681846FFF7AFFDFB68EE
:10B610001B681846FFF713FEF8617B68013BF96968
:10B620001846FFF76DFF78613B68C3F1FF1303F520
:10B630007F437A699A4201D90D231BE07B69002B75
:10B6400012D1FB6818687B6801331A46B968FFF7A6
:10B650008DFDFB681B681846FFF7F1FD0246FB698C
:10B66000934201D00D2305E00122796AF868FFF7C3
:10B67000FAFE002318462837BD4680BD80B582B04B
:10B6800000AF78600B46FB70FB781A4602217868A1
:10B69000FFF7E9FE00BF0837BD4680BD80B582B028
:10B6A00000AF78604FF482717868FFF70BFF0346B4
:10B6B00018460837BD4680BD80B582B000AF7860BF
:10B6C00039604FF480323B6802FA03F31946786818
:10B6D000FFF7E3FE00BF0837BD4680BD80B584B0EC
:10B6E00000AF786039603B6850339BB29B00FB81B0
:10B6F000FB8919467868FFF7E5FE034618461037C0
:10B70000BD4680BD80B582B000AF78607B681B68A5
:10B710001846FFF794FD034618460837BD4680BD1E
:10B7200080B582B000AF78607B6893F9043018462A
:10B73000FFF79AFC00BF0837BD4680BD80B500AF5B
:10B74000034B1B68034A12681046984700BF80BD30
:10B75000A8A40020ACA4002080B487B000AF78601B
:10B7600039607B6853E8011F8AB2D88902449889FE
:10B77000824228BF121A1889824202BFBFF32F8F5C
:10B78000002307E0C2EA010243E801200028E9D1D2
:10B790004FF00103FB737861B9603A61BA683B68A6
:10B7A0001A60FB7BDBB218461C37BD465DF8047B94
:10B7B000704780B485B000AF7860796851E8013F88
:10B7C000C3EA034341E80132002AF7D1FA60BB60C3
:10B7D00000BF1437BD465DF8047B704780B487B066
:10B7E00000AF786039607B6853E8021F1FFAA1F24E
:10B7F000D888824202BFBFF32F8F00230DE0D88983
:10B8000002449889824228BF121AC1EA024243E8E0
:10B8100002200028E8D14FF00103FB737861B96082
:10B820003A61BA683B681A60FB7BDBB218461C378A
:10B83000BD465DF8047B704780B485B000AF78608A
:10B84000796851E8023FC3EA234341E80232002A03
:10B85000F7D1FA60BB6000BF1437BD465DF8047BCA
:10B86000704780B485B000AFF860B96011461A46E1
:10B870000B46FB801346BB80BB68002B01D10E2317
:10B880001BE0FB88BA88B3FBF2F101FB02F29B1AC2
:10B890009BB2002B01D009230FE0FB68BA681A6045
:10B8A000FB6800225A60FB6800229A60FB68FA88F5
:10B8B0009A81FB68BA88DA81002318461437BD469E
:10B8C0005DF8047B704780B584B000AF7860396064
:10B8D0003B6819467868FFF73FFF0346002B07D007
:10B8E0007B681B683A6812881344FB60FB6800E0C1
:10B8F000002318461037BD4680BD80B582B000AF2A
:10B90000786039603B681A883B685B889A4204D14A
:10B910007868FFF74EFF012300E000231846083740
:10B92000BD4680BD80B584B000AF786039603B68AB
:10B9300019467868FFF752FF0346002B07D07B6853
:10B940001B683A6852881344FB60FB6800E00023E0
:10B9500018461037BD4680BD80B582B000AF786014
:10B9600039603B681A883B685B889A4204D17868E2
:10B97000FFF762FF012300E0002318460837BD46A9
:10B9800080BD90B486B000AF786039607B683A685B
:10B9900053E8004F104643E8000191F0000FF7D143
:10B9A0007C613861F9607B6918461837BD4690BCE8
:10B9B000704790B486B000AF786039607B683A68B1
:10B9C00053E8004F44EA020043E8000191F0000F01
:10B9D000F6D17C613861F9607B6918461837BD463D
:10B9E00090BC704790B486B000AF786039607B68D7
:10B9F0003A6853E8004F44EA020043E8000191F03E
:10BA0000000FF6D17C613861F9603B691846183740
:10BA1000BD4690BC704790B486B000AF7860396086
:10BA20007B683A6853E8004F04EA020043E80001EB
:10BA300091F0000FF6D17C613861F9607B6918469E
:10BA40001837BD4690BC704790B486B000AF7860A0
:10BA500039607B683A6853E8004F04EA020043E823
:10BA6000000191F0000FF6D17C613861F9603B690B
:10BA700018461837BD4690BC704790B486B000AFEA
:10BA8000786039607B683A6853E8004F04EB020045
:10BA900043E8000191F0000FF6D17C613861F96054
:10BAA0007B6918461837BD4690BC704790B486B085
:10BAB00000AF786039607B683A6853E8004F04EB68
:10BAC000020043E8000191F0000FF6D17C6138617B
:10BAD000F9603B6918461837BD4690BC704790B472
