:020000022000DC
:10600000000001207D6E0200A56E0200A76E020056
:10601000A96E0200AB6E0200AD6E0200000000002F
:10602000000000000000000000000000AF6E020051
:10603000B16E020000000000B36E0200B56E0200F7
:1060400025A80200756A020055B00200B76E020072
:10605000B76E0200B76E020011AC0200B76E02000C
:10606000B76E0200B76E0200B76E0200B76E020094
:10607000B76E0200B76E0200B76E0200B76E020084
:10608000B76E0200A1900200B76E0200B76E020068
:10609000B76E0200B76E020029F30200B16B020076
:1060A000B76E0200B76E0200B76E0200B76E020054
:1060B000B76E0200B76E0200000000000000000092
:1060C000B76E0200B76E0200B76E0200B76E020034
:1060D000B76E0200B76E0200B76E0200000000004B
:1060E00000000000000000000000000000000000B0
:1060F00000000000000000000000000000000000A0
:10610000000000000000000000000000000000008F
:10611000000000000000000000000000000000007F
:10612000000000000000000000000000000000006F
:10613000000000000000000000000000000000005F
:10614000000000000000000000000000000000004F
:10615000000000000000000000000000000000003F
:10616000000000000000000000000000000000002F
:10617000000000000000000000000000000000001F
:10618000000000000000000000000000000000000F
:1061900000000000000000000000000000000000FF
:1061A00000000000000000000000000000000000EF
:1061B00000000000000000000000000000000000DF
:1061C00000000000000000000000000000000000CF
:1061D00000000000000000000000000000000000BF
:1061E00000000000000000000000000000000000AF
:1061F000000000000000000000000000000000009F
:1062000010B5054C237833B9044B13B10448AFF3F0
:1062100000800123237010BDB8970020000000000B
:106220009C49030008B5034B1BB103490348AFF376
:10623000008008BD00000000BC9700209C490300BE
:10624000A3F5803A704700BF174B002B08BF134BD4
:106250009D46FFF7F5FF00218B460F461348144A71
:10626000121A09F063FA0E4B002B00D098470D4B21
:10627000002B00D098470020002104000D000D489D
:10628000002802D00C48AFF3008009F00DFA20007E
:10629000290006F0C1FD09F0F3F900BF0000080075
:1062A000000000000000000000000120B89700205E
:1062B0003CB9002000000000000000004B0901F084
:1062C0001F024FF0010C0CFA02F100EB830002F008
:1062D00097BF00BF01F01F02012303FA02F24B092E
:1062E00000EB8300D14302F097BF00BF4B0901F0E0
:1062F0001F0150F82300C84000F00100704700BFA4
:106300002DE9F04F0388B0F80490103B99B0074690
:106310000A2B12D8DFE803F02871111111111111A5
:106320001178140046484946FFF7C8FF45484946DA
:10633000FFF7C4FFFB7B022B7CD019B0BDE8F08FC8
:10634000037A41483F2B4FEA1314494665D9FFF7BA
:10635000B5FF3E484946FFF7B1FF3D48494619B0F1
:10636000BDE8F04FFFF7AABF3A4A9368DB430093BA
:106370005168684602F050FF009B0193019B9BB35C
:106380004FF000084446214601A8FFF7AFFF30B1A7
:1063900018AB03EB480308F1010823F8284C01343B
:1063A000142CF0D1CDF834800DAD0FCD02AC0FC45C
:1063B0000FCD0FC495E8070084E80700B8F1000F7F
:1063C00012D0254E0DF10A0B4FF0000A3BF8025F88
:1063D0001C4C204629460434FFF77CFFA642F8D126
:1063E0000AF1010AC245F1D1B9F1130F9AD904207B
:1063F00002F056F819B0BDE8F08F1148494619B0BF
:10640000BDE8F04FFFF766BF037A002B95D1437AC2
:106410000D481B074946F2D5A1E7FFF75BFF032CA8
:1064200097D00A484946FFF755FF022C95D00848F7
:106430004946E4E709484946FFF740FF7DE700BFCA
:10644000DC970020D8970020EC970020E8970020E8
:10645000E4970020D497002050980020E097002077
:1064600002487C22002109F061B900BFD4970020C6
:1064700030B50C4B83B0DA6800929968684602F038
:10648000CBFE0025009B01932C46214601A8013438
:10649000FFF72CFF00B10135142CF6D1284603B0CC
:1064A00030BD00BFD497002032DF704742DF704715
:1064B00048DF704749DF70474ADF704708B5831EE1
:1064C000062B4BD8DFE803F00D0D0404320E230039
:1064D0002948FFF7F1FF00283AD1284A1368013311
:1064E000136008BD264B27482749C01AC00800047E
:1064F00040F0030000F01AFFFFF7DCFF0028F0D0A7
:10650000BDE80840214A40F2E91101F0D9BF1C4A18
:106510001C481F4B1F49801AC008002200041A7033
:10652000BDE8084040F0030000F000BF144B1548E0
:106530001949C01AC008000440F0010000F0F6FE3E
:10654000BDE80840114A15484FF4ED7101F0B8BF9D
:106550000E4A4FF4E97101F0B3FFBEE7084A094B58
:106560000F499B1ADB081B04024643F00300BDE8F9
:10657000084000F0AFBF00BF908F0020509800206F
:10658000B44903004C4A0300783203000832030088
:106590001C99002058320300283203007856341228
:1065A000983203001E4B10B4002201240321C3F8CB
:1065B0000C25C3F81045C3F85046C3F834156FF0E6
:1065C0007F41C3F83C151749C3F838151649C3F87D
:1065D0001425C3F818151549C3F804054878C3F8FD
:1065E0002405D1F8020000BAC3F81C05C3F82C2515
:1065F000C3F830450C78C3F808450421C3F80C15DE
:106600004FF0FF300821C3F80C21C3F80803C3F88A
:106610000413074B02221A605DF8044B704700BF59
:1066200000100040211001000C0C040158980020BB
:1066300000E100E02DE9F04385B0042800F2EE818E
:10664000DFE800F03D03151B1F00B74BD3F84021D6
:1066500022B1D3F80423D00300F18C81B24BD3F8DC
:10666000442122B1D3F80423910300F13F81AF4BC1
:10667000D3F80C21002A40F09C80AD4805B0BDE85D
:10668000F083A94BAB49012000225860C3F8402198
:10669000C3F84421D3F8402502F2CF32C3F8402595
:1066A000D3F8442502F2CF32C3F8442518600B68B2
:1066B0009F4803F57A730B6005B0BDE8F0839A4BF1
:1066C0009D49002201205860D860C3F80425C3F812
:1066D0004021C3F844210A78002A7AD04FF480324E
:1066E000C3F80423904B914A4FF4FA74C3F8404521
:1066F0004FF49674C3F8444501200224C3F80845BA
:106700001860C2F8FC0F8D4B4FF4807018608948F8
:1067100009788B4E0023036000295FD0317801296E
:10672000C8B200F0F380874802F0D0FD044600288C
:1067300000F04681844DDFF814C2AA79E968DFF8D9
:106740002C82D30001F1440003F18043296903F551
:10675000F83302F5117E012707FA02F24431C3F83B
:106760001085C3F814054CF82E102046CCF80425EB
:10677000FFF718FF6D4A0323C2F800321760D2F802
:10678000003123B900BFD2F80031002BFAD0EA68FB
:106790006748D2F8442522602A69D2F84425A260CD
:1067A0006A69D2F8042562600223337005B0BDE83F
:1067B000F0830021624AC3F80C11D3F80C1112784F
:1067C000012A3FD0594B5A4801229A6005B0BDE8D2
:1067D000F0834FF44032C3F8042383E73378012B6E
:1067E00004D1D2F85035032B3FF447AF554802F09F
:1067F0006DFD0446002800F0EB802046FFF7D2FE36
:1068000051484A4B027A514DDFF864C10121C3F867
:1068100000125960D0E90340D30003F1804303F52F
:10682000F83302F511774430443401FA02F2C3F828
:1068300010C5C3F8144545F82700C5F804253C48A1
:1068400031701BE7D3F80024D207BBD5404FD3F8F3
:1068500004953B78002B44D13B4DD9F80040EA68C1
:10686000D2F8443504F2D5149C423DBFC3F51C4612
:1068700040363619E61A002E33D049F640418E4292
:106880002FD086BFA6F51C414039891BC2F8481598
:10689000D2F8481549F64042914200F2A1802D4AB3
:1068A0002D49A2EB01084FEAD8084FEA08482B49C6
:1068B000AD7AC1F800902246244C0121397048F08D
:1068C000030044F835102649009600F0C1FF1D482A
:1068D00002F0FCFC0446002800F09B80134BC3F838
:1068E0000445204A1368013313606BE70022114905
:1068F000C3F8442109681C4AD3F8443191420E4937
:1069000002D80B78002B69D00B78B0E6C2F81031B2
:106910001061D2F81031002B7FF405AF00BFD2F820
:106920001031002BFAD0FEE600800040001000403D
:1069300080980020209900208898002000E100E045
:1069400078980020544A03005898002000F0014035
:10695000169900204C4A0300B449030024990020F2
:10696000B83203007C9800208F08A1070011004076
:10697000041100402D492E4A097A01200024586054
:10698000C3F84041D3F840312A4B106100FA01F1BD
:106990004FF0FF35C2F80853C3F80815D2F80415B4
:1069A000254802F0BBFC254A254B14701B78254A6C
:1069B00014605BB1244A254B126825489A605DE655
:1069C000244A40F2AB1101F07BFDB3E6224855E6C4
:1069D000204A40F2911101F073FD0EE71F484DE689
:1069E0001F4ADFF88C801F490096A8EB02084FEA87
:1069F000D8084FEA0848224648F00100039300F007
:106A000027FF144A4FF41471002001F059FD039B35
:106A10004DE7104ACA2101F053FD5FE712480D4AC5
:106A200040F23F1101F04CFD104827E65898002035
:106A30000010004000F00140544A03007898002004
:106A4000889800202099002018990020A08F00200D
:106A5000888F002008320300808F0020788F00206C
:106A6000B4490300A83203007856341280980020FD
:106A70004C4A0300414BD3F80C2162B10021404A3B
:106A8000C3F80C11D3F80C111278012A04D03B4B37
:106A900001229A6070477047D3F80024D207F6D5D8
:106AA0002DE9F043374FD3F804853B7885B0002BB0
:106AB00040D1DFF8F890D8F80050D9F80C20D2F87F
:106AC000443505F2D5159D423DBFC3F51C44403405
:106AD0006419EC1A74B349F640418C422AD086BF3F
:106AE000A4F51C414039091BC2F84815D2F84815D5
:106AF00049F64042914227D8234E244AB61AF60856
:106B00003604234999F80AC0C1F800802A46214D6D
:106B10000121397046F0030045F83C101E490094ED
:106B200000F096FE1D4802F0D1FB044608B3134B5B
:106B3000C3F804451A4A1368013313600F4B01224E
:106B40009A6005B0BDE8F083104A0F4E15490094D5
:106B5000B61AF60836042A4646F00100039300F000
:106B600077FE114A4FF41471002001F0A9FC039B39
:106B7000C7E70D4ACA2101F0A3FCD8E70010004086
:106B800078980020169900204C4A0300B44903006D
:106B90002499002000F00140B8320300544A030059
:106BA0007C980020A8320300083203005898002087
:106BB0000E4AD2F8003103B9704710B40C4B0D499E
:106BC0009B7ADB0003F1804303F5F83300240120B6
:106BD000C2F8004158600968074A084B886810608D
:106BE0001C7007485DF8044B02F098BB0070014030
:106BF00058980020249900205498002016990020CD
:106C0000544A030010B50F4C01462022204608F0DC
:106C10007FFDE3682BB163691BB10B4BA2699A42FC
:106C200002D00723184610BD084802F031FB034686
:106C30000028F7D0064A40F2123101F041FC00234F
:106C4000184610BD5898002000700140544A0300B7
:106C5000083203002DE9F047704C2378002B40F0F8
:106C6000C480FFF723FC034610B11846BDE8F08747
:106C7000FFF71AFC03460028F7D16948FFF718FC14
:106C800003460028F1D16748FFF716FC03460028A9
:106C9000EBD1654A654992F809E0D76815694FEA72
:106CA000CE0000F1804000F5F8300EF5117607F5C2
:106CB000A07CC0F810C505F1080CC0F814C541F857
:106CC000263092F80690D67905F10C084FEAC90CE7
:106CD000012505FA0EF00CF1804CC1F804050CF505
:106CE000F83C05FA09F0C1F8080509F5117A07F52D
:106CF000A4790C37CCF8109592F80AE0CCF814750A
:106D00004FEAC60C41F82A80494F05FA06F80CF103
:106D1000804CC1F808850CF5F83C40EA08004FEAC1
:106D2000CE084744CCF8109506F51176CCF81475CA
:106D300001EBCE0C0EF5007E976941F82670CCF879
:106D4000045041F82E0092F91C10002956DB394EF0
:106D500001F01F074809BD4000F16007314446F8C3
:106D60002750E02681F80063324941F820509069AD
:106D7000314EDFF8D4E0314F01214FF0FF35C0F83C
:106D80000853C0F804130020CEF8000030701669D4
:106D9000387071601669F16016690327C6F810052E
:106DA000C6F80415C6F808753160D6687160D668F3
:106DB000F160D26849F64041C2F81005C2F8087582
:106DC000C2F840151E49C2F844558A42C2F84855D7
:106DD000C2F84C550DD001F580518A4209D00121ED
:106DE000C2F80012116021703FE708231846BDE881
:106DF000F08744F62061C2F85015F0E7114801F021
:106E00000F010844E021017692F91C000028AEDB56
:106E100000F01F018D404009A6E700BF1C9900202B
:106E200035660200908F00205898002000F0014045
:106E300004F0014000E100E08898002078980020EC
:106E400000A00140FCEC00E0509800200549064BF2
:106E5000064AB2FBF0F24FF0010C83F800C00020AC
:106E60000A607047189900208898002040420F005F
:106E7000014B002018707047889800200649074A87
:106E8000074B9B1A03DD043BC858D050FBDC03F0D2
:106E900009F9FFF7D9F900004C4B0300788F002067
:106EA000B8970020FEE7FEE7FEE7FEE7FEE7FEE715
:106EB000FEE7FEE7FEE7FEE7704700BF00B583B0E0
:106EC000044B0093044A402300F036F803B05DF809
:106ED00004FB00BFDD6E02002C99002002B32DE9F7
:106EE000F843114B114E88461446032743F001091D
:106EF0000025224608EB0501002006F031F9034683
:106F0000E41A4FF47A401D4423B9337833B1C847AB
:106F1000013F06D001233370002CEAD1BDE8F8838D
:106F200070473770BDE8F8830033030028990020CC
:106F3000704700BF06F0EAB9F0B595B008460024E6
:106F40000E4617461D4602F0FDFD1A9A0D92234685
:106F5000082205A93046CDE9095408978DF82C4040
:106F60000C9402F053FEDDE906219DF814308DF8F3
:106F70001140CDE9021203F00302012A28D0022AAF
:106F800004D0304602F0E2FD15B0F0BDBDF8165059
:106F9000C3F3C203C5F389158DF810300827082DF7
:106FA0002C4628BF08243B4622460EA9304602F054
:106FB0002DFE2D1B08AB02AA21460EA8274400F087
:106FC000FDFF002DEBD1304602F0C0FD15B0F0BD45
:106FD000BDF814100598C1F38312C3F3C203C0F3C4
:106FE0009525C1F383148DF810300EA93046920018
:106FF000082302F00BFE08AB0093224602AB0EA959
:10700000284600F065FF304602F0A0FD15B0F0BD47
:1070100008B5FFF78FFF0448042100F0D5FE034BAD
:1070200001225A7108BD00BF344B0300B08F00200D
:10703000064B074810B500221A7002F019FD0446ED
:1070400010B9044802F0A0FF204610BD3C9A002071
:10705000684A03003C33030030B499B10D490E4D2A
:10706000491BC90813D00D4C002302E0013399429B
:107070000AD034F823208242F8D1184655F830005F
:1070800030BC7047044DF9E7002030BC704708461B
:10709000F6E700BF544A0300B4490300B897002044
:1070A000094B013903EBC00003290BD8DFE801F0DD
:1070B0000402080604207047022070474079704798
:1070C0000079704700207047B44903002DE9F04370
:1070D000904CD4E901239A4285B060D00023C4F8D3
:1070E0001834BFF34F8FA568EAB2D31C04EB8301B9
:1070F00014F82330580718D566680B7803F003039B
:10710000012B42D0022B03D14B88023505EB93159E
:10711000EAB2D4F81804D31C04EB830128B9AE42B8
:1071200039D914F823305B07E7D404EB82026B1CD7
:10713000DBB2D26804EB830302F00301DB680229AF
:10714000CDE9012305F102062DD0012900F092803E
:10715000D4F810543DB12B6828469B689847EB68DB
:107160001D68002DF7D16C486C4B6D49C01AC008E2
:10717000000440F0020000F0D9F8D4E90130C01A50
:1071800018BF012005B0BDE8F0830B880235C3F3BA
:1071900083131D44BCE7A66005B0BDE8F083002062
:1071A00005B0BDE8F083BDF806305E48C3F389182A
:1071B0004546502D28BF502505F1080165F38F1372
:1071C000C1F30901ADF8063002F054FC074600286F
:1071D000BED002F0B7FC0023082201A9384602F015
:1071E000E1FCF343DBB20133B5EB830F4FEA8302DB
:1071F0007ED9F1B25FFA82F9033104EB810138469E
:107200000823A5EB090502F0CDFCEDB209F1080356
:10721000454903F0FC032A46384602F0C3FC08F156
:10722000030806EB9806D4F81834002B6ED1D4F876
:10723000105465B1EB685A7928463946002A61D066
:107240002B681B689847EB681D68002DF2D1384603
:1072500002F07CFC00230DF103008DF8033001F0F7
:1072600083FDD4F8183403B9A6609DF8030001F03B
:10727000A1FD82E7BDF804202A48C2F38313062B40
:1072800028BF062363F38912023303F00F0189003C
:10729000ADF8042002F0EEFB074600283FF458AF9B
:1072A00002F050FC0023082201A9384602F07AFCC3
:1072B000BDF8043013F4707FB5D06FF001094FF0C2
:1072C0000808A9EB0509F1B203314346042204EB97
:1072D0008101384602F066FCBDF804300136C3F384
:1072E000831309EB0602934208F10408EBD89AE7EE
:1072F000F1B203312A4604EB81010823384602F03B
:1073000051FC8CE71D68002D94D1A0E7384602F0AF
:107310001DFC32E73C9A0020DC490300B44903001D
:1073200024330300684A0300489A00202DE9F04FF7
:10733000DFF89CA187B0002306460DF10B008DF805
:107340000B30019101F010FDDAE9018303F5807340
:10735000A3EB0803012B00F281800AF21C450AF519
:1073600083670AF214441AE0BDF80E30C3F38913A0
:1073700003334FEA11490BEB930B204601F07CFFDE
:10738000494600283AD02846CAF808B001F050FF14
:10739000DAE9012303F580739B1A012B5FD80121E1
:1073A000284601F045FF384601F05AFF204601F01B
:1073B00057FFDAF80830DAB2D11C0AEB810C1AF860
:1073C000211001F00400490728D40AEB82015A1C5D
:1073D000C9680391D2B201F003000AEB82020128CE
:1073E000D16803F1020B31D00228BDD0204601F054
:1073F00043FF4FF0000949460028C4D12846C5E79D
:10740000BCF802300EEB9313DAB2D11C0AEB810CFC
:107410001AF8211001F004000028D6D09CF80010C2
:1074200001F0030101290AD0022903F1020E02F141
:107430000301E5D00AEB810C0028EFD1C5E7BCF8C9
:1074400000200233C2F383121344DDE7BDF80C3091
:10745000C3F383134FEA11499B448EE74246D3B2EC
:107460000333023205219DF80B004AF82310CAF8B5
:10747000042001F09FFC0021144801F0B7FE80F3C6
:107480001001F300019A03F0380343F0010308F1FF
:10749000010043EA8223C0B25FFA88F209040AEBD2
:1074A0008000033241EA1641C1604AF822309AF85E
:1074B000003013B907B0BDE8F08FFFF707FE0028D2
:1074C000F8D0FFF703FE0028F7D1F3E7589E00201D
:1074D0003C9A00202DE9F04FDFF8ACB187B00023D3
:1074E00006460DF10B008DF80B30CDE9001201F0CE
:1074F0003BFCDBE9018303F58073A3EB0803022B5C
:1075000000F281800BF21C450BF583670BF21444EB
:107510001AE0BDF80E20C2F3891203324FEA114A75
:1075200009EB9209204601F0A7FE514600283AD007
:107530002846CBF8089001F07BFEDBE9012303F538
:1075400080739B1A022B5FD80121284601F070FE40
:10755000384601F085FE204601F082FEDBF8083057
:10756000DAB2D11C0BEB810C1BF8211001F00400E6
:10757000490728D40BEB82015A1CC9680391D2B287
:1075800001F003000BEB82020128D16803F102092C
:1075900031D00228BDD0204601F06EFE4FF0000A27
:1075A00051460028C4D12846C5E7BCF802300EEB8E
:1075B0009313DAB2D11C0BEB810C1BF8211001F0F4
:1075C00004000028D6D09CF8001001F00301012926
:1075D0000AD0022903F1020E02F10301E5D00BEB00
:1075E000810C0028EFD1C5E7BCF800200233C2F3BC
:1075F00083121344DDE7BDF80C20C2F383124FEA77
:10760000114A91448EE74246D3B2033303324521F7
:107610009DF80B004BF82310CBF8042001F0CAFBB7
:1076200008F10203DBB20BEB8303019ADA6000215D
:10763000144801F0DBFD80F31001F300009A03F021
:10764000380343F0410308F1010043EA8223C0B24A
:107650005FFA88F209040BEB8000033241EA16411D
:10766000C1604BF822309BF8003013B907B0BDE879
:10767000F08FFFF72BFD0028F8D0FFF727FD00283B
:10768000F7D1F3E7589E00203C9A00202DE9F04FF7
:10769000DFF8B8B189B0002406460DF1130003935A
:1076A000CDE901128DF8134001F05EFBDBF80830E4
:1076B000DBF8047003F58073DB1B032B00F2818081
:1076C0000BF21C450BF583680BF214441AE0BDF86D
:1076D0001630C3F3891303334FEA11490AEB930AB7
:1076E000204601F0C9FD494600283AD02846CBF88B
:1076F00008A001F09DFDDBE9012303F580739B1ACF
:10770000032B5FD80121284601F092FD404601F08D
:10771000A7FD204601F0A4FDDBF80830DAB2D11C49
:107720000BEB810C1BF8211001F00400490728D451
:107730000BEB82015A1CC9680591D2B201F003001B
:107740000BEB82020128D16803F1020A31D0022832
:10775000BDD0204601F090FD4FF0000949460028B9
:10776000C4D12846C5E7BCF802300EEB9313DAB259
:10777000D11C0BEB810C1BF8210000F00400002849
:10778000D6D09CF8001001F0030101290AD002298B
:1077900003F1020E02F10301E5D00BEB810C00288E
:1077A000EFD1C5E7BCF800200233C2F383121344C3
:1077B000DDE7BDF81430C3F383134FEA11499A444F
:1077C0008EE73A46D3B20333043285219DF8130085
:1077D0004BF82310CBF8042001F0ECFABB1CDBB211
:1077E0000BEB8303029ADA60FB1CDBB20BEB830327
:1077F000039ADA600021144801F0F8FC80F31001CC
:10780000F300019A03F0380343F08103781C43EA44
:107810008223C0B2FAB209040BEB8000033241EAC2
:107820001641C1604BF822309BF8003013B909B003
:10783000BDE8F08FFFF74AFC0028F8D0FFF746FCC0
:107840000028F7D1F3E700BF589E00203C9A0020A3
:107850002DE9F04F89B0DFF8B0B10393064600235D
:107860000DF113008DF81330CDE9011201F07CFA0F
:10787000DBF80830DBF8047003F58073DB1B042BA6
:1078800078D80BF21C450BF583680BF2144419E011
:10789000BDF81630C3F3891303334FEA114A09EBDD
:1078A0009309204601F0E8FC514608B1CBF8089056
:1078B000284601F0BDFCDBE9012303F580739B1A28
:1078C000042B58D80121284601F0B2FC404601F0B3
:1078D000C7FC204601F0C4FCDBF80830DAB2D11C4A
:1078E0000BEB810C1BF8211001F00400490721D497
:1078F0000BEB820203F10209D26805920133DBB27D
:107900000BEB830302F00302012AD9682AD0022A72
:10791000BED04FF0000AC4E7BCF802300EEB931360
:10792000DAB2D11C0BEB810C1BF8210000F0040033
:107930000028DDD09CF8001001F0030101290AD0D5
:10794000022903F1020E02F10301E5D00BEB810CD9
:107950000028EFD1CCE7BCF800200233C2F3831239
:107960001344DDE7BDF81430C3F383134FEA114A23
:10797000994496E73A46D3B203330532C5219DF8C0
:1079800013004BF82310CBF8042001F013FABB1CB2
:10799000DBB20BEB8303029ADA60FB1CDBB20BEB6E
:1079A0008303039ADA603B1DDBB20BEB8303129A6D
:1079B000DA600021134801F019FC80F31001F20095
:1079C000019B02F0380242F0C102781C42EA832295
:1079D000C0B2FBB2033309040BEB800041EA16414D
:1079E000C1604BF823209BF8003013B909B0BDE803
:1079F000F08FFFF76BFB0028F8D0FFF767FB00283C
:107A0000F7D1F3E7589E00203C9A00202DE9F04F73
:107A100089B0DFF8C4B10393064600230DF11300CB
:107A20008DF81330CDE9011201F09EF9DBF8083032
:107A3000DBF8047003F58073DB1B052B78D80BF2A1
:107A40001C450BF583680BF2144419E0BDF81630A1
:107A5000C3F3891303334FEA11490AEB930A204613
:107A600001F00AFC08B1CBF808A04946284601F00D
:107A7000DFFBDBE9012303F580739B1A052B58D844
:107A80000121284601F0D4FB404601F0E9FB2046E5
:107A900001F0E6FBDBF80830DAB2D11C0BEB810C0D
:107AA0001BF8211001F00400490721D40BEB8202DE
:107AB000591CD2680592C9B202F003020BEB810196
:107AC000012AC96803F1020A2AD0022ABED04FF067
:107AD0000009C4E7BCF802300EEB9313DAB2D11CF4
:107AE0000BEB810C1BF8210000F004000028DDD016
:107AF0009CF8001001F0030101290AD0022903F1CA
:107B0000020E02F10301E5D00BEB810C0028EFD14E
:107B1000CCE7BCF800200233C2F383121344DDE744
:107B2000BDF81430C3F383134FEA11499A4496E722
:107B30003A46D3B20333063240F205119DF81300E2
:107B40004BF82310CBF8042001F034F9BB1CDBB256
:107B50000BEB8303029ADA60FB1CDBB20BEB8303B3
:107B6000039ADA603B1DDBB20BEB8303129ADA60F7
:107B70007B1DDBB20BEB8303139ADA6000211548FF
:107B800001F034FB80F31001F30003F03803019A95
:107B900043F4807343F00103781C43EA8223C0B2AC
:107BA000FAB209040BEB8000033241EA1641C160CE
:107BB0004BF822309BF8003013B909B0BDE8F08FC4
:107BC000FFF784FA0028F8D0FFF780FA0028F7D1F1
:107BD000F3E700BF589E00203C9A00202DE9F04FAB
:107BE00089B0DFF8E0B10393064600230DF11300DE
:107BF0008DF81330CDE9011201F0B6F8DBF808304A
:107C0000DBF8047003F58073DB1B072B7AD80BF2CB
:107C10001C450BF583680BF214441BE0BDF81630CD
:107C2000C3F3891303334FEA11490AEB930A204641
:107C300001F022FB08B1CBF808A04946284601F024
:107C4000F7FADBF80830DBF8042003F580739B1AA1
:107C5000072B58D80121284601F0EAFA404601F0E6
:107C6000FFFA204601F0FCFADBF80830DAB2D11C4A
:107C70000BEB810C1BF8211001F00400490721D403
:107C80000BEB8202591CD2680592C9B202F00302C2
:107C90000BEB8101012AC96803F1020A2AD0022AEA
:107CA000BCD04FF00009C2E7BCF802300EEB9313D2
:107CB000DAB2D11C0BEB810C1BF8210000F00400A0
:107CC0000028DDD09CF8001001F0030101290AD042
:107CD000022903F1020E02F10301E5D00BEB810C46
:107CE0000028EFD1CCE7BCF800200233C2F38312A6
:107CF0001344DDE7BDF81430C3F383134FEA114991
:107D00009A4494E73A46D3B20333083240F28511DD
:107D10009DF813004BF82310CBF8042001F04AF82B
:107D2000BB1CDBB20BEB8303029ADA60FB1CDBB2F9
:107D30000BEB8303039ADA603B1DDBB20BEB83038F
:107D4000129ADA607B1DDBB20BEB8303139ADA60C5
:107D5000BB1DDBB20BEB8303149ADA60FB1DDBB2B5
:107D60000BEB8303159ADA600021154801F03EFA07
:107D700080F31001F30003F03803019A43F4C07359
:107D800043F00103781C43EA8222C0B2FBB2033302
:107D900009040BEB800041EA1641C1604BF8232037
:107DA0009BF8003013B909B0BDE8F08FFFF78EF9EA
:107DB0000028F8D0FFF78AF90028F7D1F3E700BFD1
:107DC000589E00203C9A002030B4154DD5F8101470
:107DD0000446002071B10B4601E01B6853B1DB681B
:107DE0001A798242F9D101300A28F3D14FF0FF30DD
:107DF00030BC7047E3681871D5F810344BB1DA68BD
:107E0000E36812681A60D5F81034DB681C6030BC77
:107E10007047C5F81044E268136030BC704700BF7B
:107E20003C9A002038B5084BD3F8104401251D704A
:107E30004CB1E3685D71236820465B689847E3684E
:107E40001C68002CF5D138BD3C9A002030B5C388A1
:107E500085B004460D4623BB237A052B1FD0627ADA
:107E600082B9144AA08852F8232003920021FFF718
:107E7000F3F8039A10490346284605B0BDE83040A0
:107E800001F074BA1946A088FFF70AF90B4B0C49A8
:107E900053F82020284601F069FA237AE1E705B07B
:107EA00030BD08490091084A0849284601F05EFAA9
:107EB000D2E700BF1034030074330300EC33030037
:107EC000703303006833030048330300503303006A
:107ED0002DE9F04385B01D460C9C002394F80C90CE
:107EE000237380460E46174621462846FFF7AEFF0D
:107EF000062F09D8DFE807F0042E343B444F1F005B
:107F00004146204601F032FA2B7A052B05D06B7AD8
:107F10005BB92749204601F029FA204601F01AFAF8
:107F200084F80C9005B0BDE8F083224A224920462F
:107F300001F01CFAEDE77369039333690293F36868
:107F40000193B3680093D6E900234146204601F02F
:107F50000DFAD9E732684146204601F007FAD3E727
:107F6000D6E900234146204601F000FACCE7B36889
:107F70000093D6E900234146204601F0F7F9C3E714
:107F8000F3680193B3680093D6E900234146204685
:107F900001F0ECF9B8E733690293F3680193B36831
:107FA0000093D6E900234146204601F0DFF9ABE714
:107FB000743203006833030070330300082900D9CA
:107FC00070472DE9F04F1D4683B000241B7B2C73B6
:107FD0000E4607462946104690460193DFF8D0B07A
:107FE000DFF8D0A0FFF732FF05E03A5D013401F081
:107FF000BDF9082C09D0A64251462846F5D8594665
:10800000013401F0B3F9082CF5D12449DFF8A8B008
:10801000234CDFF8A8A0284601F0A8F94FF000098A
:1080200017E017F80910481C7E294FF02E02C0B245
:1080300006D810F80A2012F0970F14BF0A462E2215
:108040002146284609F1010901F090F9B9F1080F1C
:108050000AD04E45E5D85946284609F1010901F0F4
:1080600085F9B9F1080FF4D198F80830052B02D042
:1080700098F809305BB90B49284601F077F9284692
:1080800001F068F9019B2B7303B0BDE8F08F064A3D
:108090000649284601F06AF9EDE700BF8C3303007A
:1080A000903303007432030068330300703303001D
:1080B00088330300803303007C33030078450300DA
:1080C00038B5174B1D783DB3164A1168C0B200236E
:1080D0000C4604E00133AB4204F108041CD011F853
:1080E00033209042F6D102F089FD6378A3F10103B9
:1080F000B3FA83F35B09834200D038BD0A4BD3E95E
:1081000000231343F9D1094B094819680022BDE83F
:108110003840490800F05ABD00231B78FFDE00BF3D
:10812000F49E0020389F0020209F0020F89E002011
:10813000009F00202DE9F04FDFF8788298F800309A
:1081400083B0002B00F02B81DFF86C92954F964E98
:1081500000254FF0010AD7F800B01BF8350002F0F7
:108160004DFD1BF835400BEBC50361085B7816F835
:1081700001C014F0010EA3F10103B3FA83F314BF9D
:108180004FEA1C120CF00F025B09042A00F2EA808D
:10819000DFE802F0725F33200300834240F09F80EB
:1081A000BEF1000F0CBFF0230F230CEA030C0CBF31
:1081B0000323302343EA0C03735498F8002001355D
:1081C0009542C8DBD9E90023134340F0DE8003B0B9
:1081D000BDE8F08F834200F0C580BEF1000F0CBFF8
:1081E000F0230F230CEA030C0CBF0423402343EAC3
:1081F0000C03735498F80020E1E7834240F0B58007
:10820000BEF1000F0CBFF0230F230CEA030C98F80B
:1082100000200CBF0323302343EA0C037354002ACD
:10822000D0D0D7F800C00023614603E0934201F1AB
:108230000801C4D01CF83300A04203F10103F5D1BA
:108240004B68002BBBD020460121984798F80020AE
:10825000B5E7834219BF00231A4620230222BEF14C
:10826000000F16BF1A46F0230F230CEA03031A432C
:10827000725498F80020A2E7834273D14FF00003B4
:10828000BEF1000F8DF8073014BF0F23F0230CEA66
:10829000030C14BF1023012343EA0C030DF1070064
:1082A000735400F061FDA4F12003C4F120022AFA06
:1082B00002F20AFA03F31343D9F800209DF80700ED
:1082C0000AFA04F42243C9F80020D9F80420134321
:1082D000C9F8043000F06EFD98F800206FE7BEF199
:1082E000000F14BF0F23F0230CEA030398F800C01B
:1082F0007354BCF1000F12D038680023024603E02B
:10830000634502F108020AD010F83310A14203F1CC
:108310000103F5D1536813B10021204698474FF06F
:1083200000030DF107008DF8073000F01DFDA4F1EA
:108330002003C4F120022AFA02F20AFA03F31343DB
:10834000D9F800209DF807000AFA04F422EA040292
:10835000C9F80020D9F8042022EA0303C9F8043040
:1083600000F028FD98F8002029E7BEF1000F0CBFAF
:10837000F0230F230CEA030C0CBF0123102343EA64
:108380000C03735498F8002019E7084B0848196843
:108390000022490803B0BDE8F04F00F017BCDFF839
:1083A00018900FE7389F0020289F0020F89E00209B
:1083B000009F0020F49E0020209F0020092A3FD922
:1083C000F0B583B0144605460E4602F0B7FA88B3FE
:1083D000204B214A1E70214B1560002120481C6053
:1083E000102207F0A3F91F4B00200021741EC3E9DF
:1083F0000001E4B236B31C4F05EBC404032602E0CF
:10840000A5421FD01C469DF8063094F802C0207883
:108410008DF8046023F007033A4601A98DF8063071
:108420008DF805C002F094FAA4F108030028E7D003
:1084300003B0F0BD02F02EFA0028C9D003B0F0BDA1
:1084400007207047094A0A48002103B0BDE8F04000
:1084500000F0AEBBF49E0020389F0020F89E002064
:10846000289F0020209F0020C1800200358102004B
:108470003034030070B5084D2B785BB1074E0024F3
:108480003368012113F8340002F056FB2B780134D5
:10849000A342F5D8002070BDF49E0020389F002034
:1084A00000B585B00346002101AA44F20100CDE9E0
:1084B0000111039300F012F805B05DF804FB00BF52
:1084C00000B583B002900091019244F20100714620
:1084D0006A4600F003F803B000BD00BF10B572B6E5
:1084E000FFF7A0FCFEF7F2FD0028FBD1104B114C6A
:1084F0001149E41AE408240444F00100FEF716FFD1
:108500000E4BD3F8F030DB0700D500BE0C4944F029
:108510000200FEF70BFFBFF34F8F0849094BCA68F3
:1085200002F4E0621343CB60BFF34F8F00BFFDE75F
:10853000B4490300DC4903003434030000ED00E0DB
:10854000403403000400FA0559B142B1531E1A40E9
:1085500005D1826001608380C260104670470920A7
:1085600070470E20704700BF10B48468C26803468D
:108570008088121B904203D204205DF8044B7047A0
:10858000DC681A6820401154DA680132DA60002091
:108590005DF8044B704700BF03468068DA6890427C
:1085A0000DD010B49C689A8818682240825C0A70CA
:1085B0009A6801329A6000205DF8044B70470520EC
:1085C000704700BF00B3FAB130B48468C36815685F
:1085D0001B1B1360D3B1E1B19D4228BF1D467DB185
:1085E000013901EB050C8468838823400468E35C4F
:1085F00001F8013F8368614503F101038360F2D113
:108600001560002030BC70470E207047052030BC3C
:108610007047084630BC704718B312B330B5846851
:108620008388C568013423445B1B15681360D3B18C
:10863000D9B19D4228BF1D4685B1013901EB050E18
:10864000C468838811F801CF2340046804F803C08C
:10865000C368714503F10103C360F1D115600020C7
:1086600030BD0E207047042030BD084630BD00BF2D
:10867000844612F0030014D14B1C10B4DB000A4CEA
:108680009BB213442260094A1360094A094B1070D7
:108690001870094A094BA2F800C019805DF8044B14
:1086A00070470720704700BF449F0020409F002074
:1086B0003C9F00204C9F0020489F00204A9F0020A4
:1086C0002DE9F043DFF8C480B8F800308B4283B066
:1086D00003D2092003B0BDE8F083002605460DF162
:1086E00007008DF807600C46174600F03DFB234B52
:1086F00023491A78234B0888197881425FFA81FC54
:1087000038BF0CF10106D2B238BFF6B2B2422DD05A
:108710001E781978DFF87890CAB2884286BF013295
:10872000D2B200229DF807001A70F6B200F042FBA8
:10873000D9F8003043F8367003EBC603F70005B1F3
:1087400024B90020988003B0BDE8F0830E4BB8F840
:1087500000001B68294606FB0030224606F0D8FFC1
:10876000D9F800301F440020BC80B3E79DF8070013
:1087700000F020FB042003B0BDE8F0834C9F0020F4
:108780004A9F00203C9F0020409F0020489F0020DF
:10879000449F00202DE9F84F1A4C1B4D22782B786E
:1087A0009A4224D0DFF868A0DFF86890174FDFF80E
:1087B00068B04FF000082378DAF800103888D9F84C
:1087C000006051F8332001EBC30C03FB0060BCF8E0
:1087D000041090472278BBF80010D3B201339142C5
:1087E000DBB206D9237023782A789A42E3D1BDE818
:1087F000F88F84F8008022782B789A42DBD1BDE88C
:10880000F88F00BF4C9F00203C9F0020489F002015
:10881000449F0020409F00204A9F002030B48D6874
:108820008468C368CA68A54272EB03032CBF0120A9
:10883000002030BC704700BF2DE9F04F2DED028BBA
:1088400083B008EE100A00F0E9FB40B1954AD2E986
:10885000003113F1807341F10001C2E9003118EEDB
:10886000100A002100F0F6FB8F4D60B12B6853B168
:108870008E4B2C681B7823B11CB1237F002B40F05A
:10888000218100232B6018EE100A012100F0E2FB89
:10889000002840F0EB80864801A900F065FC002824
:1088A00036D0844C814F824E09E033B301A9304663
:1088B00000F08CFC01A9304600F056FC40B3037870
:1088C000012B11D0022BF0D120464FF0000801F00F
:1088D00093FB30B180F81C80204601F08DFB00280E
:1088E000F8D101233B70E1E72B684168994200F021
:1088F000AF80204601F08AFBD8E743681A7F002A40
:10890000D4D101221A774168204601F061FBCDE7FE
:10891000684FDFF8AC81DFF88C912FE0384601F02A
:108920006BFB04464046644ED4E902BA00F0A2FB59
:10893000D9E900133268401843F10003904272688D
:1089400073EB020203D210F1807043F10003BBEB22
:1089500000006AEB0303012873F1000331DBB0F57B
:10896000350F6AD2A2684FF496030021404600F00A
:10897000CFFAE8B10D2828D000232B60384601F04B
:1089800041FB2B68002866D0002BC7D02B68846879
:108990009968C268DB688C4272EB03030CD22B68C7
:1089A0001B7F002BBAD02968384601F011FBB5E7D0
:1089B0002B68002B47D02C6003B0BDEC028BBDE8C8
:1089C000F08F0021404600F039FB384B1B78002B1C
:1089D000D2D0237F002BCFD0404600F04BFBD9F8FC
:1089E0000030D6E90012C018D9F8043043F1000372
:1089F000884273EB020203D210F1807043F100034E
:108A0000D4E902128842934147D3236903B92377FB
:108A1000D4E9053098472369002BADD0227F002A86
:108A2000AAD0A268D318A360E36843F10003E3600F
:108A30002146384601F0CCFA9EE7404600F01AFB8A
:108A40001E4A02448FE718EE100A00F02FFAB2E730
:108A500000232B602AE7002BAED118EE100A03B0DA
:108A6000BDEC028BBDE8F04F00F024BA1448124E62
:108A700000F000FB0B4B1A685B688018D6E9001207
:108A800043F10003884273EB020203D210F18070BD
:108A900043F10003C6E90003FDE62146384601F034
:108AA00097FA69E7589F0020D89F0020609F002018
:108AB000BC9F002060340300D09F0020FFFFB40063
:108AC000B88F00201B4800F0D5FA1B4B1B4A1968D1
:108AD0005B684018D2E9001243F10003884273EB4F
:108AE000020203D210F1807043F10003D4E90212B4
:108AF0008842934119D3236903B92377D4E9053018
:108B000098472269002A3FF4BCAE237F002B3FF434
:108B1000B8AEA3680A489B18A360E36843F100035A
:108B20002146E36001F054FAABE60548214601F026
:108B30004FFAA6E6B88F0020589F0020D09F002053
:108B40006034030010B5134B13491C68134882B0FE
:108B500008235822019400F0ADFA044610B12046D3
:108B600002B010BD0E4A0F4801A900F03BF90446BF
:108B70000028F4D10B48012100F046FA01231946E0
:108B8000094A084800F09AF9084B012220461A7059
:108B900002B010BD5C340300649F0020BC9F002025
:108BA00039880200B88F0020FFFF7F00609F0020FF
:108BB0004AB1A1F101010368B1FA81F14909C3E9A0
:108BC0000412002070470720704700BF037F0BB1DD
:108BD0000020704730B5044683B0A2611A480D46A4
:108BE00000F048FA194B1A685B688018184AD2E9F5
:108BF000001243F10003884273EB020203D210F12A
:108C0000807043F100032818226943F10003C4E98E
:108C1000020302B125610F4801A900F063FA03467F
:108C200048B100250B481D705C6001A900F08CFA6A
:108C300020B903B030BD042003B030BD024800F0BD
:108C40001DFA284603B030BDB88F0020589F002081
:108C5000D09F0020BC9F002030B5044683B0002583
:108C60000C48257701A900F03DFA80B103460122A6
:108C7000027001A907485C6000F066FA08B903B009
:108C800030BD054800F0FAF9284603B030BD042095
:108C900003B030BDBC9F0020B88F002070B5104DD0
:108CA000014610482E78FFF777FC04460EB920469F
:108CB00070BD0D480D490378CB5C0D4900222A7028
:108CC000012243B1043002F0FDFE0028EFD0FFF78F
:108CD000E7FB204670BD0C3002F018FCF5E700BF42
:108CE000EC9F0020DC9F0020C08F00204CA00020C3
:108CF00000A0002070B501461548FFF735FC04467A
:108D000008B1204670BD134D134E2B78F35CA3B110
:108D1000281D02F0C9FE0028F3D110490C48FFF7C6
:108D20003BFC0028EDD12B780C49F35C53B1BDE836
:108D300070400B48012202F05FBE05F10C0002F00A
:108D4000D9FBE8E7BDE870400648012202F066BBA7
:108D5000F09F0020C08F00204CA0002004A0002025
:108D6000C48F0020CC8F002070B4EFF3108472B653
:108D70000D4B9A68AAB9012199600C490C4ED1F8A3
:108D8000805035401D60C1F88060D1F884505D602E
:108D90004FF0FF33C1F88430027004B962B670BC82
:108DA000704701230370F8E708A0002000E100E00D
:108DB000FC06FFBD094B9A687AB170B910B4EFF3A5
:108DC000108172B6064A1C6814605C685460986032
:108DD00001B962B65DF8044B7047704708A00020E7
:108DE00000E100E010B5294C437944F82320284CD9
:108DF00004EBC3031B79002B3BD103680A88C3F83B
:108E0000082590F904308A78002B2ADB03F16043AF
:108E1000520103F56143D2B283F8002390F9043084
:108E2000002B09DB1B494FEA531C012203F01F03EF
:108E300002FA03F341F82C304279174B44F8320020
:108E40001648181A04EBC201C0084FF0010C0004C8
:108E500081F804C040F003001149FEF767FA0020D2
:108E600010BD104903F00F0352011944D2B20A7623
:108E7000D4E70A4B08480C49C01AC008000440F067
:108E80000200FEF753FA082010BD00BF1CA000200E
:108E900014A0002000E100E0EC490300B449030005
:108EA00090340300FCEC00E06C3403000368012202
:108EB0001A607047036801225A60704770B40568F1
:108EC0004FF480348C40C5F80843056801F1500C1C
:108ED000C5F848434FEA8C0C05681FFA8CFC002645
:108EE00045F80C6083B055F80C500195019D05685C
:108EF00001F5A87122F07F4245F821200268C2F8EE
:108F0000444313B10368C3F8044303B070BC704713
:108F10002DE9F0474FF4803622F07F4702688E40FB
:108F2000C2F848630268C2F80863026802EB810C69
:108F3000044601F15005D2F80405DCF84025CCF8D0
:108F40004005AD00ADB2121A20684FF0000840F89D
:108F5000058082B04059009022F07F42012A00989B
:108F60008A46994641D02268D2F80455C2F8446333
:108F70007A1B22F07F42012A0AF5A87125D02368C6
:108F800043F821702068D0F804557B1BC9F1FF120B
:108F9000013B02F57F4223F07F439A4211D343B154
:108FA000C0F8446323680020C3F8046302B0BDE83E
:108FB000F087013740F821702068D0F804359D42D1
:108FC000EED00D2002B0BDE8F0872368013743F8EA
:108FD00021700C4B4FF4806043F0010398472068E8
:108FE000D0F804359D42DBD0EBE7064A4FF48060B1
:108FF00042F001029047226842F8058052590192DE
:10900000019AB0E7B034030002680223C2F8443387
:1090100011B10268C2F80433704700BF0368D3F887
:10902000040100B97047002282B0C3F80421D3F8CC
:1090300004310193019B012002B0704702684FF494
:10904000803303FA01F1C2F848130368C3F8081328
:10905000704700BF50318900036889B2585800B981
:10906000704700225A5082B05B580193019B012047
:1090700002B070470368D3F80405704790F90430D4
:10908000002B09DB5A09054803F01F030121403278
:1090900001FA03F340F82230704700BF00E100E01E
:1090A000024A034B10681B68184700BF14A0002039
:1090B0001CA0002099B110B4B2FBF3F403FB1424FC
:1090C000A4B244B9C0E9001484608281C3812046FF
:1090D0005DF8044B704709205DF8044B70470E2083
:1090E000704700BF10B483B050E8013F1FFA83FC03
:1090F000C489A4448489A44528BFACEB040C04892A
:10910000A44502BFBFF32F8F002207E0CCEA030C77
:1091100040E801C4002CE7D14FF001028DF8032094
:109120000193019C9DF803200C6032B1006810FA95
:1091300084F003B05DF8044B704702F0FF0318465B
:1091400003B05DF8044B70470A884B889A4201D0FF
:109150000020704750E8012FC2EA024240E8012394
:10916000002BF7D10120704710B483B050E8023FC4
:109170001FFAA3FCC488A44502BFBFF32F8F0022AF
:109180000EE0C489A4448489A44528BFACEB040C38
:10919000C3EA0C4C40E802C4002CE7D14FF00102B6
:1091A0008DF803200193019C9DF803200C6032B1DF
:1091B000006800EB144003B05DF8044B704702F008
:1091C000FF03184603B05DF8044B70470A884B88CC
:1091D0009A4201D00020704750E8022FC2EA224292
:1091E00040E80223002BF7D101207047034653E8E3
:1091F000000F0A4643E8002C9CF0000FF7D170479F
:10920000034653E8002F42EA010043E8000C9CF0BB
:10921000000FF6D1704700BF034653E8002F02EA63
:10922000010043E8000C9CF0000FF6D1704700BF2E
:10923000034653E8002F02EB010043E8000C9CF0CA
:10924000000FF6D1704700BF034653E8002FA2EB92
:10925000010043E8000C9CF0000FF6D1704700BFFE
:109260000346012253E8001F41EA020043E8000CD4
:109270009CF0000FF6D170470346002253E8000F20
:1092800000EA020143E8001C9CF0000FF6D1704791
:10929000D0B110B4D0E90112521A0468D2B2531EF0
:1092A0002160DBB252B101680A6803F1FF3C541C33
:1092B0000C6013705FFA8CF3FF2BF4D1036800206D
:1092C00018715DF8044B70470E20704730B583B0BD
:1092D000044600250DF107008DF80750FFF744FD07
:1092E000D4E900311A688A4210D9511E19602168E8
:1092F000A3680D6812F8012C208A5B1BE56800FB4F
:1093000002550A79DBB29A4238BF0B719DF807000B
:10931000FFF750FD284603B030BD00BF30B505460D
:1093200083B00DF1070000230C468DF80730FFF7DE
:109330001BFD2A681368591C1160E9682A8A641A9F
:10934000B4FBF2F41C709DF80700FFF733FD03B087
:1093500030BD00BF826842B110B504464369016860
:10936000006998470023A36010BD70470EB400B594
:1093700082B0039921B104AB01AA019300F0B6F8C1
:1093800002B05DF804EB03B0704700BF2DE9F04F69
:10939000154683B0A942DDF830900D9A0F46064677
:1093A0009A46C0F09E800B464FF00108B3FBF5F3E0
:1093B0009D4208F10108F9D9D04538BFD04612F0D6
:1093C0000103019302D1B9F1000F67D1B268BAF17C
:1093D000010F4FF0010406D90AF1FF3ABAF1010F6B
:1093E00005FB04F4F8D8B7FBF4F39D4205D805FB60
:1093F00004F4B7FBF4F39D42F9D9DFF8ECA007E0E1
:10940000AC42B4FBF5F31AD3B2681C46B7FBF3F3D6
:109410001AF803B0BBF10A0F04FB137728D03368A6
:10942000511CB16003F802B0D6E901329A42E7D389
:109430003046FFF78FFFB4FBF5F3AC42E4D2019B5B
:109440009BB1B9F1000F10D02024C84509F1FF39B4
:109450000BD2B3683268591CB160D454D6E90132DA
:109460009A4214D2B9F1000FEFD103B0BDE8F08FEA
:10947000511C3368B1604FF00D019954D6E90132A7
:109480009A42CCD33046FFF765FFB268C7E7304653
:10949000FFF760FFB9F1000FD7D1E6E793071AD4C1
:1094A0002024B268C84502F1010190D23368B1604E
:1094B0009C54D6E901329A4209F1FF3903D2B9F13D
:1094C000000FEFD183E73046FFF744FFB268B9F1F0
:1094D000000FE7D17BE7BAF1000F0CBF3024202446
:1094E000DFE74FF0010867E7B8340300002900F018
:1094F0005C822DE9F04FDFF870950D7885B0064657
:1095000090460C464FF00D0A0FE00A2DB36800F0AC
:109510008E803268591CB160D554D6E901329A4226
:1095200080F081802578002D69D00134002D66D02F
:10953000252DEAD10027234614F8012B2D2A6CD0C3
:10954000302A6DD02B2A61D02A2A7FD0A2F1300197
:1095500009294FF000050BD805EB850502EB450501
:1095600013F8012FA2F130010929A5F13005F3D933
:109570002E2A1C4675D0002301E014F8012F02F0BA
:10958000FB016829F9D0252A00F08681583AD1B22A
:10959000202930D8202A2ED8DFE812F021002D0013
:1095A0002D002D002D002D002D002D002D002D0053
:1095B0002D00FE0079002D002D002D002D007900DA
:1095C0002D002D002D002D002D002D00BD002D00A3
:1095D0002D001A012D0016012D002D002100D8F8B4
:1095E00000101022081DC8F8000009683046CDE9B7
:1095F0000057FFF7CBFE01342578002D95D1337B42
:10960000002B40F0438105B0BDE8F08F234614F8ED
:10961000012B2D2A47F0040792D147F001078AE772
:1096200047F0020787E73046FFF794FE7AE7326893
:10963000591CB16002F803A0D6E901239342FFF45C
:1096400068AF3046FFF786FEB36862E7D8F80020BF
:10965000111DC8F8001015685A782E2A03F101046C
:1096600089D16278A2F13003092B04F101044FF093
:10967000000384D803EB830302EB430314F8012FA8
:10968000A2F130010929A3F13003F3D977E7D8F823
:109690000020111DC8F80010D2F800B08BEAEB7260
:1096A000A2EBEB72092A40F3DB81DFF8C0C3012093
:1096B00011466329ACFB02E200F101004FEAD2023D
:1096C000F6DC9842024638BF1A460292002D00F09E
:1096D0001E81BBF1000FC0F22E817A0700F12B81B1
:1096E000B80740F12A81002B40F02781BBF1000F21
:1096F000C0F27D817A0700F18D8107F00302022A12
:1097000000F05D81CDE9005759460A223046FFF747
:109710003DFE013470E7D8F800301A1DC8F800206B
:109720001F68B3683268581C3021B060D154D6E944
:109730000123934280F0FA80591C3268B16078218D
:10974000D154D6E901329A4280F0EB800F2F03D931
:109750003B461B090F2BFCD84FF0805506E00F2D20
:109760004FEA15137FF647AFB2681D46B7FBF5F316
:1097700019F803B0BBF10A0F05FB137777D03368F4
:10978000511CB16003F802B0D6E901329A42E6D327
:109790003046FFF7DFFDE2E7D8F800301A1DC8F8C1
:1097A00000201D78B3680A2D00F03A813268591CF8
:1097B000B160D554D6E901329A42FFF41CAF30466D
:1097C000FFF7C8FD013417E7D8F800100A2209E7AF
:1097D000D8F800301A1DC8F8002017F00107D3F898
:1097E00000B064D1BBF1000F03D0584606F050FC26
:1097F0000746BD4215D9202201E0BD4211D0B16813
:109800003368481CB0605A54D6E90130984205F1DB
:10981000FF35F2D33046FFF79DFDBD424FF02002E9
:10982000EDD19BF80050002D3FF4E5AE0A2DB06855
:109830000FD03368421CB2601D54D6E90130984203
:1098400080F0B4801BF8015F002D3FF4D4AE0A2DE8
:10985000EFD13368421CB26003F800A0D6E90130B2
:109860009842E6D33046FFF775FDB068E1E733680C
:10987000511CB16003F802A0D6E901329A42FFF40C
:109880007EAF3046FFF766FDB26878E7304605B038
:10989000BDE8F04FFFF75EBDB3683168581CB0609B
:1098A000CA54D6E901329A4289D20134A4E69BF81F
:1098B0000030002B00F0D680B0685F46CBF101028B
:1098C0000A2B02EB070B5ED0411CB16031680B54D0
:1098D000D6E90130984248D217F8013F002BEFD16A
:1098E0005D457FF688AE202702E05D453FF483AEFC
:1098F000B2683368511CB1609F54D6E901329A4274
:1099000005F1FF35F1D33046FFF724FDEDE7B80749
:1099100005D5002B3FF4EAAEF9073FF5E7AE002589
:10992000E4E63046FFF716FDB2680FE73046FFF772
:1099300011FDB36800E7013DD2E6F9073FF5D6AE69
:10994000002DECD020220299A942BFF4CFAEB1681D
:10995000481CB06030684254D6E90101814205F1EB
:10996000FF356CD2002DEED1D9E730460292FFF7D9
:10997000F1FC17F8013F002BB2D0029AB0680A2B15
:1099800002EB070BA0D1411CB160316801F800A0C7
:10999000D6E90110884297D33046CDE90232FFF76D
:1099A000D9FCDDE90232B0688EE770473046FFF738
:1099B000D1FC1BF8015F002D7FF438AF1BE6002BB4
:1099C0007FF4A0AE8DB1302202998D427FF69AAE1F
:1099D000B168481CB06030684254D6E90101814248
:1099E00005F1FF3535D2002DEED100258AE6B168AC
:1099F0003268481CB060CBF1000B2D205054D6E9E2
:109A000001219142FFF479AE30460393FFF7A2FCA7
:109A1000039B72E6B1683268481CB0602B20EDE70A
:109A20003268591CB16002F803A0D6E901239342C1
:109A3000FFF4BCAE3046FFF78DFCB368B6E63046A7
:109A40000393FFF787FC039B2022002D7FF47BAF5D
:109A500065E730460393FFF77DFC039B3022C2E7A6
:109A600001202EE69B463BE7B8340300CDCCCCCC9E
:109A7000FFF70EBC2DE9F041058A0331043D4E1974
:109A80008046B6FBF5F6FFF721FCA0B3F6B24FF423
:109A90008073013E04468380C580C0F800802BD0CF
:109AA0000346002508E06279AE4202F101026271CC
:109AB0003860C0F800801FD040461F46FFF706FC04
:109AC000013503460028EED16779791E17D022466A
:109AD000013399421268FBD1D2F800805FB1266849
:109AE000002501E034463668214640460135FFF73F
:109AF00015FCAF42F6D800242046BDE8F08120686E
:109B00002146FFF70BFCF6E7F8B546790146701ED3
:109B100013D00A460023013398421268FBD117681C
:109B200056B10D68002401E029462D6838460134FD
:109B3000FFF7F4FBA642F7D8F8BDBDE8F840086887
:109B4000FFF7ECBB01210430FFF772BB2DE9F041B8
:109B5000012104460430FFF777FB10F0FF0301D02A
:109B6000BDE8F0816779791E16D02246013399420B
:109B70001268FBD1D2F80080002FF1D026680025B2
:109B800001E034463668214640460135FFF7C6FB02
:109B9000AF42F6D8BDE8F08120682146BDE8F0412B
:109BA000FFF7BCBB2DE9F8438846C788417907FB1E
:109BB00001F1043902EB030C1E1D6145154638BF47
:109BC000CD1AB7420446B6FBF7F207FB126002D883
:109BD000013A2468FCD13E1AAE4228BF2E469DB100
:109BE0004FF000090430AD1B324608EB0901204458
:109BF00005F08EFDAF42B14424683E464FF00000B0
:109C000028BF2E46002DEDD1BDE8F8832DE9F8439D
:109C10000446C788407907FB00F0043802EB030CC8
:109C20001E1D6045154638BFC51AB7428846B6FBAB
:109C3000F7F107FB116202D801392468FCD1BE1A82
:109C4000AE4228BF2E469DB14FF00009111DAD1B3D
:109C50003246214408EB090005F05AFDAF42B144F9
:109C600024683E464FF0000228BF2E46002DEDD15D
:109C7000BDE8F88333DF704741DF7047064A074B82
:109C800010B5002414701C60BFF35F8F04490548B1
:109C900000F088F9204610BD29A000202CA000204B
:109CA000D434030020A0002000B583B000230DF1C0
:109CB00007008DF80730FFF757F8F1EE103A23F060
:109CC0009F03E1EE103ABFF35F8F0B4B4022C3F8C6
:109CD00084219DF80700FFF76DF805F01FFB28B9F8
:109CE00020BF40BF20BF03B05DF804FB03B05DF8A8
:109CF00004EBFFF7C1BF00BF00E100E070B5284EE4
:109D0000044601213046FFF771FABFF35F8FD0B9E7
:109D1000042C40D0234B1A7862BB234D01222C70B7
:109D20001A70224C636823B90EE000F045F96368AD
:109D300053B11B682878984703462046002BF4D17E
:109D4000BFF35F8F336070BDFEF76CF8FDF7BEF9AF
:109D50000028FBD12B78023B012B0FD905F0DEFA4E
:109D6000D8B94FF080430122C3F80025BFF34F8FCD
:109D700020BFFDE7BFF35F8F306070BDBFF34F8F33
:109D80000B490C4BCA6802F4E0621343CB60BFF38B
:109D90004F8F00BFFDE7044DC3E7FFF76BFFE0E720
:109DA0002CA0002029A0002028A0002020A0002016
:109DB00000ED00E00400FA0570B5044682B000250D
:109DC0000DF107000E468DF80750FEF7CDFF236812
:109DD000A26818685968914238BF4D1CA84212D039
:109DE000586859688A420BD800225A60E268531EAC
:109DF000072B19D8DFE803F04540183B1818183333
:109E000001315960F2E7217C002941D158685D6831
:109E1000AA423AD859602268A16813688B4234BFBD
:109E2000013300231360E1E76368314600FB023031
:109E300005F06EFC2268136851688B4282BFA068EF
:109E400001300918CB1A91689DF80700994238BF74
:109E50009360FEF7AFFF0024204602B070BD636838
:109E600096ED007B03EBC00080ED007BE2E76368CA
:109E7000326843F82020DDE76368328823F8102039
:109E8000D8E7636832781A54D4E701355D60C2E7D9
:109E90009DF80700FEF78EFF0424204602B070BD37
:109EA00070B5044682B000230DF107000D468DF811
:109EB00007301646FEF758FF23681868596888422D
:109EC00011D019682EB91A68A068824238BF561C92
:109ED0001E60E268531E072B0DD8DFE803F0411A1D
:109EE0000C260C0C0C329DF80700FEF763FF0524CE
:109EF000204602B070BD6368284601FB023105F0C0
:109F000007FC9DF80700FEF755FF0024204602B02D
:109F100070BD63689DF8070033F811302B80FEF7A1
:109F200049FF0024204602B070BD63689DF8070019
:109F300053F821302B60FEF73DFF0024204602B08D
:109F400070BD63689DF8070003EBC101D1E90023F0
:109F5000C5E90023FEF72EFF0024204602B070BDA5
:109F600063689DF807005B5C2B70FEF723FF0024FD
:109F7000204602B070BD00BF036818685B68C01A55
:109F8000B0FA80F0400970478268002393608268CD
:109F90001361826853618268D3608268536082680B
:109FA0001360704701600B6843604A68934204BFC6
:109FB00000234360704700BF436843B10268916863
:109FC0000B4443605268934204BF002343607047D0
:109FD00070B54468064620680D4618B908E0246844
:109FE000206828B1B368294698470028F7D120682F
:109FF0002860256070BD00BF4368186808B102681A
:10A000001A60704743681868704700BF4368186853
:10A0100018B908E00346006828B18142FAD10A68FD
:10A020001A600120704770471049A1F5947205E04D
:10A0300052F83330984238BF61460CD2A1EB020C83
:10A040004FEADC7303EBEC035B10914202EBC30CB1
:10A05000EED80748704702D90CF10802EEE7DCF8A9
:10A060000400034B002808BF18467047143A030049
:10A07000D838030070B5161E07DD0C468D1914F88C
:10A08000010BFEF737FEA542F9D1304670BD00BF87
:10A0900010B50C462046FEF701FE0528FAD0012037
:10A0A00010BD00BF10B44FF08053D3F830315A1CAC
:10A0B00004BF4FF0704393F8E03F062B08D14FF0F8
:10A0C0008053B34AD3F82433C3F30423C2F8403592
:10A0D0004FF0704393F8E02F062A00F01B814FF0F9
:10A0E0008053D3F830315C1C04BF4FF0704393F8B9
:10A0F000E03F062B09D14FF080534FF08042D3F858
:10A100004432C3F34233C2F83C354FF0704393F806
:10A11000E02F062A00F0E9804FF08053D3F8303169
:10A12000581C04BF4FF0704393F8E03F062B08D152
:10A130004FF080430022C3F80C21C3F81021C3F86C
:10A1400038254FF0704393F8E02F062A00F0AA80DC
:10A150004FF08052D2F83031591C20D0062BD2F863
:10A16000342126D08B4AD2F8883043F47003C2F8E9
:10A170008830BFF34F8FBFF36F8F4FF01023D3F8AA
:10A180000022002AC0F22281D3F80432002BC0F250
:10A190001D81814B814A1A605DF8044B70474FF076
:10A1A000704292F8E01FD2F8E82F0629DAD1C2F304
:10A1B0000312033A032A40F2C4804FF08053784AD6
:10A1C000D3F80414C2F82015D3F80814C2F82415E3
:10A1D000D3F80C14C2F82815D3F81014C2F82C15B3
:10A1E000D3F81414C2F83015D3F81814C2F8341583
:10A1F000D3F81C14C2F84015D3F82014C2F8441543
:10A20000D3F82414C2F84815D3F82814C2F84C1512
:10A21000D3F82C14C2F85015D3F83014C2F85415E2
:10A22000D3F83414C2F86015D3F83814C2F86415A2
:10A23000D3F83C14C2F86815D3F84014C2F86C1572
:10A24000D3F84414D3F83031C2F870155C1C04BF45
:10A250004FF0704393F8E03F062B83D14FF08052CC
:10A260004FF08041D2F85832D2F8302103F04F033A
:10A27000501CC1F8E43E69D0062A7FF473AFD1F8D0
:10A280000034DA076ED44FF08053D3F83431033BF7
:10A29000032B50D9434AD2F83C3743F48063C2F8C9
:10A2A0003C375FE7D3F8E83FC3F30313033B032BCB
:10A2B0003FF64EAF3C4AD25C22B14FF080420321C0
:10A2C000C2F8A015394AD35C002B3FF441AF384B9C
:10A2D0000524012000213F22C3F81046C3F8880658
:10A2E000C3F81816C3F8142632E7D3F8E83FC3F3CF
:10A2F0000313033B032B3FF60FAF2E4AD35C002B17
:10A300003FF40AAF234AD2F8FC3023F08073C2F83E
:10A31000FC3001E7D3F8E83FC3F30313033B032BFF
:10A320003FF6DDAE244AD35C002B3FF4D8AE234B7E
:10A33000234A5A67D3E6234AD35C002B3FF412AF7B
:10A34000A8E721498A5C002A80D036E74FF07043A5
:10A3500093F8E03F062B7FF405AFD1F80034DB071C
:10A360007FF500AF4FF080534FF08042D3F830318B
:10A370006FF00101062BC2F800147FF4F3AE4FF02A
:10A380008053D3F83431033B032B83D8D3E700BF8A
:10A390000030014000ED00E0D48F00200090D00399
:10A3A00000C00040001000401C3A03001C3A0300AB
:10A3B000005000401C3A03001C3A030000C0074054
:10A3C0000DF0ADBA183A0300143A0300184A0123FD
:10A3D000C2F80435D2F80034002BFBD04FF0102324
:10A3E0001521134AC3F80012D2F80034002BFBD019
:10A3F0004FF0102315210E4AC3F80412D2F800348E
:10A40000002BFBD000230A49C2F80435D1F80034F0
:10A41000002BFBD0BFF34F8F0649074BCA6802F4ED
:10A42000E0621343CB60BFF34F8F00BFFDE700BF77
:10A4300000E0014000ED00E00400FA054FF0A0420A
:10A44000044B1B5CD2F80405D840C04300F0010067
:10A45000704700BF243A0300044A115C01234FF007
:10A46000A0428B40C2F80C35704700BF243A03006D
:10A47000044A115C01234FF0A0428B40C2F808351A
:10A48000704700BF243A03004FF0A04310B44FF4CC
:10A4900080204FF400344FF400214FF48012C3F8B1
:10A4A0000845C3F80805C3F80815C3F808255DF882
:10A4B000044B70474FF0A04310B44FF480204FF48A
:10A4C00000344FF400214FF48012C3F80C45C3F858
:10A4D0000C05C3F80C15C3F80C255DF8044B704748
:10A4E000074B4FF0A041185CD1F80435012282409F
:10A4F00022EA03001340C1F80805C1F80C35704783
:10A50000243A03004FF0A042044B1B5CD2F8100524
:10A51000D840C04300F00100704700BF203A03005C
:10A520000D2809D00E2809D00F2809D010280CBFFB
:10A5300003204FF0FF307047002070470120704724
:10A5400002207047014B185C704700BF203A03009F
:10A55000C20710B41AD54FF0A04303224FF40031C4
:10A56000C3F844274FF48024C3F84827C3F84C2786
:10A57000C3F85027C3F808154FF480124FF4002198
:10A58000C3F80845C3F80815C3F8082583070AD59A
:10A590004FF0A0430C22C3F83427C3F83827C3F880
:10A5A0003C27C3F840275DF8044B704710B568B9E5
:10A5B0000E4CA368012262703BB1D3E90023002056
:10A5C000A2609847A368002BF7D110BD0128FCD1E9
:10A5D000064C2369A070002BF7D0D3E9002301209B
:10A5E000226198472369002BF7D110BD30A00020CD
:10A5F00070B910B5074CA368012262703BB1D3E972
:10A6000000230020A2609847A368002BF7D110BD5B
:10A61000704700BF30A0002030B5012883B004D0BF
:10A62000032821D0B0B103B030BD294C00230DF177
:10A6300007008DF80730FEF797FB23786BB3E368CC
:10A640009DF8070001221344E360A270FEF7B2FBFD
:10A6500003B030BD1F4B0122C3F88020BFF34F8FE2
:10A66000BFF36F8F03B030BD194C00F0B3F8002377
:10A670000DF107008DF80730FEF776FBE368013B2C
:10A68000E360E3681BB9144BD3F80054C5B19DF8DF
:10A690000700FEF78FFB03B030BD10486360A36076
:10A6A0002361E36000F08AF804F038FE60B10A4AE2
:10A6B00001232370D2F80024002AC0D0A370BEE783
:10A6C00000F09AF8A570E2E700F084F8EFE700BF29
:10A6D00030A0002000E100E000000140ADA5020034
:10A6E00030B50A4B0A4C53F8213054F82110027847
:10A6F00085B0D0E901548DF80020C26801958DF82D
:10A70000084003926846984705B030BD48A0002035
:10A7100044A0002030B50A4B0A4C53F8213054F8BD
:10A720002110027885B0D0E901548DF80020C2686C
:10A7300001958DF8084003926846984705B030BDF2
:10A7400048A0002044A00020F0B5174B06784F7FAA
:10A7500043F826201446154B154A9F5505460869AF
:10A7600042F826008C46BCE80F0089B0EE46AEE801
:10A770000F009CE80F008EE80F0004964FB1002CEC
:10A780000C4A694608BF2246281D01F04DF809B061
:10A79000F0BD002C084A694608BF224605F10C00AE
:10A7A00000F06EFD09B0F0BD48A000204CA00020D4
:10A7B00044A00020E1A6020015A70200044A137974
:10A7C00023B9012110609180184670478520704799
:10A7D00050A00020074B1A68D20704D4C02283F887
:10A7E000002301221A604FF080430122C3F818258C
:10A7F000704700BF00E100E04FF0804202210023DB
:10A80000C2F8081382B0C2F80431D2F804310193BF
:10A8100001230199D360D2F81834DB03FBD402B0D2
:10A82000704700BF10B54FF0804382B0D3F80021CD
:10A8300062B10021164AC3F80011D3F80011507913
:10A8400000910121009CC3F80813A8B14FF0804388
:10A85000D3F80421CAB10022C3F80421D3F804219B
:10A86000019202210A4A0198C3F8081313680120D3
:10A8700002B0BDE8104018471368517198474FF077
:10A880008043D3F80421002AE5D102B010BD00BFF7
:10A8900050A0002030B5254C94F8583083B0002BE0
:10A8A00040D16FF02F0004F1300304F1500C001B75
:10A8B0004FF0FF31C21821FA02F2D20748BF1970D7
:10A8C00001336345F6D14FF0FF304FF0FF314FF0C9
:10A8D000FF33C4E900010422002115482365C4E9BF
:10A8E0000233C4E90433C4E90633C4E90833C4E9D4
:10A8F0000A3304F01BFF0F4BC02283F806234022CB
:10A900001A600D4B0020C3F87C01D3F87C21019222
:10A91000019D4FF00042012184F85810C3F8042330
:10A9200003B030BD082003B030BD00BF58A00020E8
:10A93000ACA0002000E100E000600040034B93F871
:10A940005800003818BF0120704700BF58A00020F1
:10A9500070B5774B03EB000E9EF930C0BCF1000FD1
:10A9600001DB082070BD91F802C01CF0020FCCF38F
:10A9700040055DD11C6A013400F0D2805C6A01346C
:10A9800000F0C4804FF00C0E4FF00A0C53F82C402E
:10A99000013459D00CF10104744547D253F82460B6
:10A9A000013600F0AB800CF1020474453ED253F83E
:10A9B0002460013600F0A2800CF10306764535D202
:10A9C00053F8264001343ED00CF1040676452DD2D2
:10A9D00053F82640013436D00CF10506764525D2D1
:10A9E00053F8264001342ED00CF1060676451DD2D0
:10A9F00053F82640013426D00CF10706764515D2CF
:10AA000053F8264001341ED00CF1080676450DD2CD
:10AA100053F82640013416D00CF1090CF44505D248
:10AA2000DC6A013408BF4FF00B0C0DD0042070BD60
:10AA30001C68013464D05C6801346ED04FF0080E9D
:10AA40004FF0020CA2E7B44643F82C201A184FFA34
:10AA50008CFE82F830E015B99C448CF848008A7866
:10AA6000540715D4D50740D5820002F1A042D2F890
:10AA7000004724F00204C2F800472E4DC40800F03D
:10AA8000070C2E5D012202FA0CF232432A558A7815
:10AA900012F002021CD04FEA8E0303F1804303F54B
:10AAA000C0430978D3F8104524F4473424F44074A3
:10AAB000C3F8104502020904D3F8100501F440312F
:10AAC00002F4F8520A430243C3F81025002070BD77
:10AAD000AEF1080E43FA8EF30C7893F8501010463E
:10AAE00041EA841283F8502070BD4A784FF0A044A8
:10AAF00000F5E075920044F82520BEE7A446A3E7E0
:10AB00001A6000228EF830209646A8E74FF0090C14
:10AB10008EF830C05A62E6469EE74FF0010C93E78C
:10AB20004FF0080C8EF830C01A62E64694E700BF7A
:10AB300058A00020ACA0002030B42E4C04EB000C38
:10AB400082B09CF93030072B1EDD083B44FA83F3BA
:10AB500093F850309B09032B41D0012B0CBF4FF4CD
:10AB600000334FF44033800000F1A040D0F80027BC
:10AB700022F44032C0F80027D0F800271343C0F871
:10AB8000003702B030BC7047DAB2072AF9D8980013
:10AB900000F1804003F1400200F5C04052B2920043
:10ABA000D0F8105592B202F1804202F5C04245F051
:10ABB0000105C0F810550020106012680192019A3A
:10ABC0000029DED09CF9302054F82220002AD8D069
:10ABD0000949012202FA03F3C1F80433D1E74FF027
:10ABE000A043D3F81035C34003F0010302331B0424
:10ABF000B9E700BF58A00020006000404FF0A0431C
:10AC0000D3F8103523FA00F000F00100704700BFC0
:10AC1000F0B585B01D4A00230193D2F80011012937
:10AC200000F0E5811E46194BD3F80421012A00F0FB
:10AC3000CF81164BD3F80821012A00F0B881134BBD
:10AC4000D3F80C21012A00F0A381104BD3F8102176
:10AC5000012A00F08E810D4BD3F81421012A00F057
:10AC600079810A4BD3F81821012A00F06481074B3F
:10AC7000D3F81C21012A0BD0044BD3F87C21012AE4
:10AC800000F0C28126BB05B0F0BD00BF00600040EF
:10AC9000D3F804231206EFD50022C3F81C21D3F801
:10ACA0001C110291D3F87C110298012946F080060C
:10ACB0000ED1C3F87C21D3F87C2103924FF0A0433E
:10ACC000039AD3F820250192C3F8202546F00046C8
:10ACD000BE4F00240125A30003F180432E4203F55B
:10ACE000C0434FEA45050BD0D3F8100557F8242090
:10ACF000D3F81015C0F30420C1F3014102B190470D
:10AD00000134082CE7D1002EBDDAB04C01254FF0FC
:10AD1000A04694F95000471C3DD0C0F3C20304AADA
:10AD20001344C1B213F80C2C00F0070305FA03F327
:10AD30001A4200F03F002ED0830003F1A04305FA31
:10AD400000F7D3F80027D3F800C72CF4403CC3F831
:10AD500000C7C2F30142D3F800C7022A0CBF4FF468
:10AD6000403E4FF4003E4CEA0E0CC3F800C72318D7
:10AD7000C6F8207593F9303054F823305BB1890957
:10AD8000032900F06581022A00F05F81032A02D1C5
:10AD9000022900F05D8194F95100411C3DD0C0F3BF
:10ADA000C20304AA1344C1B213F80C2C00F0070329
:10ADB00005FA03F31A4200F03F002ED0830003F19E
:10ADC000A04305FA00F7D3F80027D3F800C72CF406
:10ADD000403CC3F800C7C2F30142D3F800E7022A9F
:10ADE0000CBF4FF4403C4FF4003C4CEA0E0CC3F84F
:10ADF00000C72318C6F8207593F9303054F8233073
:10AE00005BB18909032900F01981022A00F013813E
:10AE1000032A02D1022900F0118194F95200421C48
:10AE20003DD0C0F3C20304AA1344C1B213F80C2CE2
:10AE300000F0070305FA03F31A4200F03F002ED09A
:10AE4000830003F1A04305FA00F7D3F80027D3F8F5
:10AE500000C72CF4403CC3F800C7C2F30142D3F84A
:10AE600000E7022A0CBF4FF4403C4FF4003C4CEA90
:10AE70000E0CC3F800C72318C6F8207593F93030BC
:10AE800054F823305BB18909032900F0D280022AEB
:10AE900000F0CC80032A02D1022900F0CA8094F984
:10AEA0005300431C3DD0C0F3C20304AA1344C1B2F3
:10AEB00013F80C2C00F0070305FA03F31A4200F014
:10AEC0003F002ED0830003F1A04305FA00F7D3F82A
:10AED0000027D3F800C72CF4403CC3F800C7C2F3E6
:10AEE0000142D3F800E7022A0CBF4FF4403C4FF474
:10AEF000003C4CEA0E0CC3F800C72318C6F82075B6
:10AF000093F9303054F823305BB18909032900F0FC
:10AF10009A80022A00F09480032A02D1022900F0CC
:10AF20009280D6F820350193C6F82035002B7FF4A7
:10AF3000F0AE05B0F0BDD3F8042351067FF597AE0F
:10AF40000022C3F81821D3F818310293029B46F06F
:10AF500040068CE6D3F8042390067FF582AE0022EB
:10AF6000C3F81421D3F814310293029B46F0200653
:10AF700077E6D3F80423D4067FF56DAE0022C3F83C
:10AF80001021D3F810310293029B46F0100662E6BE
:10AF9000D3F8042315077FF558AE0022C3F80C211F
:10AFA000D3F80C310293029B46F008064DE6D3F825
:10AFB000042357077FF543AE0022C3F80821D3F8D6
:10AFC00008310293029B46F0040638E658A00020A0
:10AFD000D3F8042392077FF52CAE0022C3F8042196
:10AFE000D3F804310293029B46F0020621E6D2F820
:10AFF000046316F001063FF416AEC2F80031D2F831
:10B0000000310293029B0EE60022C3F87C21D3F8A4
:10B010007C2103924FF0A043039AD3F8202501929C
:10B02000C3F82025002E3FF470AE4FE601297FF4CF
:10B0300036AF984733E701297FF4EFAE9847ECE647
:10B0400001297FF46EAF98476BE701297FF4A3AE27
:10B050009847A0E6014B1B68184700BFB4A000202A
:10B06000104B98421BD130B583B000230DF107007F
:10B070008DF807300D46FDF777FE0B4B9DF8070066
:10B080001C793CB901221D601A71FDF793FE204620
:10B0900003B030BDFDF78EFE112003B030BD00209F
:10B0A000704700BF00200040B4A000200000000056
:10B0B00010B5714AD2F8043399058AB068D5D2F830
:10B0C0002431002B64D00023C2F82431D2F824317B
:10B0D00001934FF40171694B0198C2F8081393F87A
:10B0E000291009B901215160634902228DF8182005
:10B0F000D1F88024C1F880249FED5D7B9969D868E0
:10B10000CDE9081283ED067BD3E90012079006A86B
:10B110009047594AD2F81C31C3B1584B5869196A43
:10B1200088426AD993F8281001F0FF00002964D101
:10B13000C2F81C01D2F81C11039103999C68186A8B
:10B14000196A205C01311962C2F81C054A4AD2F81A
:10B150004431DBB10021494BC2F84411D2F844011B
:10B1600093F829100090009809B1012111609A69A3
:10B1700062B1D8685C6A00210122CDE907049961B7
:10B180008DF8182006A8D3E9001290470AB010BD28
:10B19000394AD2F804335B07BBD5D2F80831002B0B
:10B1A000B7D0364B996900293ED00021C2F808116A
:10B1B000D2F8081104910499D868596AD2F8182570
:10B1C00042545A6A996901325A625A6A8A42A0D133
:10B1D000DA69002A31D09A611A69D8685C6ADA6043
:10B1E000002101220894D961596207905C681968AE
:10B1F0008DF8182006A8A0478BE71F4A0020C2F848
:10B200001C01D2F81C210292029A5A69002A9DD090
:10B21000D3E901215C698DF81800CDE90714586164
:10B22000196806A8904791E7C2F80811D2F80801FA
:10B2300005900598D2F81825C7E793F8292012B988
:10B240000D4A012151600C4A4FF40171C2F80813F4
:10B25000D8685C6A0021012299618DF81820D3E931
:10B260000012CDE9070406A8904752E7AFF300802B
:10B27000000000000000000000200040C0A00020EE
:10B280002DE9F041604E90F804802C2303FB086305
:10B2900082B093F82A30002B40F0898005460C4696
:10B2A00000685A491746FFF7DBFE00287BD1236868
:10B2B000591C0CD04FF0A041012202FA03F3C1F84F
:10B2C0000835236803F5E073032241F823206368FF
:10B2D0005A1C06D003F5E0734FF0A042002142F85B
:10B2E00023102B68A269C3F82425227D637D1343B4
:10B2F0002A68C2F86C35D4E900122B68C3F814250B
:10B30000C3F80C15237D012B5CD02C2303FB08F321
:10B31000F21857602269F25097B32A68237F002100
:10B32000C2F81C11D2F81C210092009A2A68C2F8B7
:10B330004411D2F844210192019A2A683449C2F892
:10B3400004132A6842F3073100294FEA123232DB34
:10B3500001F160415B0101F56141DBB281F800332D
:10B360002B6843F30732002A4FEA133109DB294CDB
:10B370005209012301F01F0103FA01F144F82210E0
:10B380002B680422C3F800252C2303FB0866012246
:10B390000023C6E9063386F82930736186F82A202F
:10B3A00002B0BDE8F081112002B0BDE8F0810820B4
:10B3B00002B0BDE8F081184902F00F025B01DBB278
:10B3C0008B54CDE7A368591C06D003F5E0734FF00A
:10B3D000A042002142F82310E3685A1C0DD04FF020
:10B3E000A041012202FA03F3C1F80835E36803F52E
:10B3F000E073032241F82320E3682A68A168C2F8B9
:10B400000835C2F8101580E7C0A00020B1B00200D6
:10B410008000020000E100E014ED00E02DE9F041C1
:10B42000334C90F804E02C2303FB0E438446586908
:10B4300084B000284ED15A619960186283F82800C0
:10B44000DCF80020C2F81C01D2F81C210292029AFA
:10B45000DCF8002001219160DCF800209D68C2F832
:10B460001C01D2F81C1101910199196A6E5C196ACC
:10B4700001311962C2F81C655A6812B104B0BDE806
:10B48000F0815E691A6ADCF8001096421BD9074603
:10B4900002E093F828200ABBD1F81C21002AF8D03A
:10B4A000C1F81C71D1F81C210392039A1A6A15F88D
:10B4B00002801A6A01321A62C1F81C851A6A964221
:10B4C000EAD8DCF80010D1F81C31002BFBD00123A6
:10B4D000CB6004E0112004B0BDE8F0810F202C23E4
:10B4E00003FB0E440023636104B0BDE8F08100BF9C
:10B4F000C0A000200279044B2C2101FB02335869C3
:10B50000003818BF01207047C0A0002070B5664DFC
:10B5100090F804E02C2303FB0E5388B05E68844649
:10B5200026B103684FF40170C3F808032C2404FB10
:10B530000E539869A0B1D869002840F0A580196120
:10B54000DA612C2202FB0E525368002B4BD0DCF840
:10B5500000304FF40172C3F80423002008B070BD1E
:10B560009A61D9605862D86193F82930002BE8D1EC
:10B57000DCF80020C2F82431D2F824210192019A8B
:10B58000DCF80020C2F80831D2F808310293DCF868
:10B590000030029A01221A609CF8043004FB035325
:10B5A00093F82930002BCCD1DCF80010C1F82431FD
:10B5B000D1F8241104910499DCF80010C1F8083185
:10B5C000D1F808310593059BDCF800301A609CF82F
:10B5D000043004FB035484F829202C2202FB0E5271
:10B5E0005368002BB3D1DCF80010C1F84431D1F816
:10B5F00044310393039BDCF80030D3F82411D3F8D3
:10B600000841D3F8440154B9002834D10029F4D0BA
:10B610002C2303FB0E550023AB6103209EE700297A
:10B62000F6D150BB9169C3F8080181B1D3F8081174
:10B6300006910699D468516AD3F818356354536A51
:10B64000916901335362536A9942D4D806E0D3F822
:10B65000081107910799D3F81835536A2C2303FB77
:10B660000E55002295F82930AA61B3B1DCF80030FC
:10B6700001221A6072E70029CAD12C2303FB0E5560
:10B680000023AB610F2069E766B1DCF800304FF4AE
:10B690000172C3F80423112060E7DCF800300122B6
:10B6A0005A605BE7112059E7C0A0002000000000AD
:10B6B00010B55B4BD3F824218AB0002A58D0002261
:10B6C000C3F82421D3F82411049102228DF8182004
:10B6D0000499544AD3F88014C3F880149FED4E7B2C
:10B6E0000991D3F83C45D06882ED067BCDE907048B
:10B6F000D2E9001306A89847494BD3F8442152B128
:10B700000021484AC3F84411D3F8440191690390D9
:10B710000398002961D1424BD3F8202162B1002067
:10B72000C3F82001D3F82021029201213D4A029C56
:10B73000D9605169002943D1394BD3F85821AAB1B6
:10B740000020C3F85801D3F85811364A01910199E5
:10B75000516959B1D3F84C458DF81800D2E901313F
:10B760005061CDE9071406A8116898470AB010BDCA
:10B77000D3F810110029BFD0C3F81021D3F810114D
:10B78000284C05910599A169D3F83C058842B3D1AD
:10B79000E169002933D0C4E90612D3F8002222F06F
:10B7A0002002C3F80022E2680792012122698DF885
:10B7B0001810089063682168E26006A898479BE724
:10B7C000D3F84C458DF81800D2E901315061CDE92C
:10B7D000071406A811689847AEE79FED0F7BD3F8D2
:10B7E0003C45D0684FF0010CCDE9070482ED067BA3
:10B7F000D2E900138DF818C006A898478BE7E268D5
:10B80000A1610123CDE907208DF8183006A8D4E9FD
:10B810000013984770E700BF000000000000000020
:10B8200000200040F0A000202DE9F04307796D4E84
:10B8300007EBC70306EB830387B093F82030002B98
:10B8400040F0A38004460D46006867499046FFF724
:10B8500007FC002840F095802B68591C4FEAC70967
:10B860000CD04FF0A041012202FA03F3C1F80835D1
:10B870002B6803F5E073032241F823206B685A1C00
:10B8800006D003F5E0734FF0A042002142F82310E8
:10B890002368AA69C3F824252B7D6A7D1A4323688F
:10B8A000C3F86C25D5E900312268C2F80C35C2F81E
:10B8B00014152B7D012B73D009EB070206EB8203D5
:10B8C000C3F804802B6946F82230B8F1000F47D046
:10B8D00021682B7F0022C1F81021D1F810110191AD
:10B8E00001992168C1F82021D1F820110291029913
:10B8F0002168C1F82421D1F824110391039921680A
:10B90000C1F84421D1F84411049104992168C1F887
:10B910005821D1F858210592059A22683349C2F876
:10B920000413226842F3073100294FEA123230DB58
:10B9300001F160415B0101F56141DBB281F8003347
:10B94000226842F30733002B4FEA123109DB284DFE
:10B950005B09012201F01F0102FA01F145F82310F1
:10B9600022684F4406EB87060121002386F8201049
:10B970000821C2F80015C6E90633736107B0BDE8B7
:10B98000F083112007B0BDE8F083082007B0BDE8C0
:10B99000F083184902F00F025B01DBB28B54CFE752
:10B9A000AB68591C06D003F5E0734FF0A0420021AC
:10B9B00042F82310EB685A1C0DD04FF0A041012231
:10B9C00002FA03F3C1F80835EB6803F5E0730322CC
:10B9D00041F82320EB682268A968C2F80835C2F84C
:10B9E000101569E7F0A00020B1B602001003420074
:10B9F00000E100E014ED00E001F0604CBCF1005FFC
:10BA000030D170B590F804E0264C0EEBCE0C04EB70
:10BA10008C0C0346DCF8140082B04FEACE050028F7
:10BA20003BD1CCF81420CCF808101A68C2F82001D9
:10BA3000D2F820210192019A1A68C2F85801D2F86E
:10BA400058210092009A1A68DCF81460C2F8441574
:10BA5000C2F848651A6801219160DCF804201AB127
:10BA600002B070BD102070471A6800E0C0B9D2F86B
:10BA70002011D2F858010029F8D088B90121D160ED
:10BA80001B68D3F85821002AFBD005EB0E0304EB0A
:10BA9000830300225A6102B070BD112002B070BD54
:10BAA0000F20F2E7F0A000200379054A03EBC3035F
:10BAB00002EB83035869003818BF0120704700BFAC
:10BAC000F0A0002001F06043B3F1005F62D1F0B458
:10BAD00090F804C0484C0CEBCC0304EB830382B019
