:020000022000DC
:10600000000001209DB00200C5B00200C7B0020030
:10601000C9B00200CBB00200CDB002000000000009
:10602000000000000000000000000000CFB00200EF
:10603000D1B0020000000000D3B00200D5B00200D1
:10604000D90C0300459D0200111A0300D7B00200CD
:10605000D7B00200D7B0020019190300D7B0020070
:1060600095670200B1670200D7B00200D7B0020006
:10607000D7B00200D7B00200D7B00200D7B00200FC
:10608000D7B0020085E00200D7B00200D7B002000E
:10609000D7B00200D7B00200CD8C0300D5A4020017
:1060A000D7B00200D7B00200D7B00200D7B00200CC
:1060B000D7B00200D7B002000000000000000000CE
:1060C000D7B00200D7B00200D7B00200D7B00200AC
:1060D000D7B00200D7B00200D7B002000000000025
:1060E00000000000000000000000000000000000B0
:1060F00000000000000000000000000000000000A0
:10610000000000000000000000000000000000008F
:10611000000000000000000000000000000000007F
:10612000000000000000000000000000000000006F
:10613000000000000000000000000000000000005F
:10614000000000000000000000000000000000004F
:10615000000000000000000000000000000000003F
:10616000000000000000000000000000000000002F
:10617000000000000000000000000000000000001F
:10618000000000000000000000000000000000000F
:1061900000000000000000000000000000000000FF
:1061A00000000000000000000000000000000000EF
:1061B00000000000000000000000000000000000DF
:1061C00000000000000000000000000000000000CF
:1061D00000000000000000000000000000000000BF
:1061E00000000000000000000000000000000000AF
:1061F000000000000000000000000000000000009F
:1062000010B5054C237833B9044B13B10448AFF3F0
:1062100000800123237010BDB89B00200000000007
:1062200014F5030008B5034B1BB103490348AFF352
:10623000008008BD00000000BC9B002014F5030096
:10624000A3F5803A704700BF174B002B08BF134BD4
:106250009D46FFF7F5FF00218B460F461348144A71
:10626000121A13F00BF80E4B002B00D098470D4B71
:10627000002B00D098470020002104000D000D489D
:10628000002802D00C48AFF3008012F0B5FF2000C8
:1062900029000FF08FFD12F09BFF00BF00000800E7
:1062A000000000000000000000000120B89B00205A
:1062B00094DA0020000000000000000080B483B0E9
:1062C00000AF0346FB7197F90730002B0BDBFB791E
:1062D00003F01F02074997F907305B09012000FA14
:1062E00002F241F8232000BF0C37BD465DF8047B65
:1062F000704700BF00E100E080B483B000AF034608
:106300003960FB7197F90730002B0ADB3B68DAB282
:106310000C4997F907305201D2B20B4483F800239D
:106320000AE03B68DAB20849FB7903F00F03043B4B
:106330005201D2B20B441A7600BF0C37BD465DF84D
:10634000047B704700E100E000ED00E080B483B022
:1063500000AF78607B681B0B5BB218460C37BD46FC
:106360005DF8047B704780B582B000AF03460A46F3
:10637000FB711346BB71BA7997F90730114618467D
:10638000FFF7BAFF00BF0837BD4680BD80B582B0B9
:1063900000AF0346FB7197F907301846FFF78EFFF1
:1063A00000BF0837BD4680BD80B483B000AF7860C1
:1063B0000B46FB70FB787A68134401221A6000BF19
:1063C0000C37BD465DF8047B704780B485B000AFE4
:1063D00078600B467B807B887A68134400221A60C1
:1063E0007B887A6813441B68FB60FB6800BF143726
:1063F000BD465DF8047B704780B483B000AF786021
:106400000B467B807B887A6813441B68002B14BF83
:1064100001230023DBB218460C37BD465DF8047B30
:10642000704780B483B000AF786039607B683A68A9
:10643000C3F8042300BF0C37BD465DF8047B7047EA
:1064400080B483B000AF786039607B683A68C3F885
:10645000082300BF0C37BD465DF8047B704780B44D
:1064600083B000AF786039607B68D3F804233B6861
:106470001340002B14BF01230023DBB218460C3756
:10648000BD465DF8047B704780B483B000AF786090
:106490000B46FB707B68D3F8043523F00302FB78CE
:1064A00003F003031A437B68C3F8042500BF0C37CD
:1064B000BD465DF8047B704780B483B000AF786060
:1064C0000B46FB707B68D3F8083523F00302FB789A
:1064D00003F003031A437B68C3F8082500BF0C3799
:1064E000BD465DF8047B704780B483B000AF786030
:1064F0000B46FB707B68D3F8103523F00F02FB7856
:1065000003F00F031A437B68C3F8102500BF0C3754
:10651000BD465DF8047B704780B485B000AFF8607D
:106520000B467A60FB72FA7AFB6802F5A87279680A
:1065300043F8221000BF1437BD465DF8047B704756
:1065400080B483B000AF78607B689B0003F5A073D4
:106550009BB218460C37BD465DF8047B704780B48B
:1065600083B000AF78604FF480327B6802FA03F3A7
:1065700018460C37BD465DF8047B704790B589B06E
:1065800000AFF860B9607A60FB681B791A46134661
:106590005B0013449B00304A13447B617B691B7A88
:1065A000002B03D00823FB61FB6950E07B697A680C
:1065B0001A60BB685A687B695A600023FB760DE05D
:1065C000FB681C68FB7E1846FFF7BAFF03461946B6
:1065D0002046FFF7FAFEFB7E0133FB76FB685B7912
:1065E000FA7E9A42ECD3FB681B681846FFF7AEFEB2
:1065F00003461A46BB68DB7819461046FFF7B3FE20
:10660000FB681B681846FFF7A1FE03461846FFF714
:10661000BDFEFB681A68BB685B7819461046FFF739
:1066200033FFFB681A68BB689B7819461046FFF772
:1066300043FFFB681A68BB681B7819461046FFF7D2
:1066400053FF7B6901221A720023FB61FB69184624
:106650002437BD4690BD00BFD49B002080B582B0DA
:1066600000AF78607B681B6800211846FFF79CFE2E
:106670007B681B791946064A0B465B000B449B005E
:106680001344083302221A7000BF0837BD4680BD8C
:10669000D49B002080B582B000AF78607B681B6817
:1066A0000C211846FFF780FE00BF0837BD4680BDAD
:1066B00090B587B000AFF8607A601A460B46FB725F
:1066C0001346BB72FB7A1846FFF749FF7861BB7A25
:1066D000002B11D0FB681C68FB7A1846FFF730FFCF
:1066E000034619462046FFF770FEFB681B68796970
:1066F0001846FFF796FE05E0FB681B6879691846A7
:10670000FFF79EFEFB681B68F97A7A681846FFF768
:1067100003FF00BF1C37BD4690BD80B586B000AFFB
:10672000F860B9601346FB710023FB7528E0FB7D20
:106730001846FFF705FF0346BB82FB7D1846FFF7AF
:106740000EFF3861BB8A1946F868FFF755FE03460D
:10675000002B12D03969F868FFF781FE0346002B41
:106760000BD0BB8A1946F868FFF72FFEBB681B6881
:10677000BA685168BA8A10469847FB7D0133FB75A9
:10678000FA7DFB799A42D2D300BF00BF1837BD46CD
:1067900080BD000080B500AF042203490348FFF725
:1067A000BCFF00BF80BD00BFD49B00200080004024
:1067B00080B500AF042203490348FFF7AEFF00BFD6
:1067C00080BD00BFE09B00200090004080B483B0FB
:1067D00000AF0346FB7197F90730002B0BDBFB7909
:1067E00003F01F02074997F907305B09012000FAFF
:1067F00002F241F8232000BF0C37BD465DF8047B50
:10680000704700BF00E100E080B483B000AF0346F2
:10681000FB7197F90730002B12DBFB7903F01F02A5
:106820000A4997F907305B09012000FA02F2203388
:1068300041F82320BFF34F8F00BFBFF36F8F00BF1E
:1068400000BF0C37BD465DF8047B704700E100E0F7
:1068500080B582B000AF0346FB7197F90730184648
:10686000FFF7B4FF00BF0837BD4680BD80B582B0DA
:1068700000AF0346FB7197F907301846FFF7C4FFD6
:1068800000BF0837BD4680BD80B483B000AF7860DC
:106890000B46FB70FB787A68134401221A6000BF34
:1068A0000C37BD465DF8047B704780B483B000AF01
:1068B00078600B46FB70FB787A68134418460C37F7
:1068C000BD465DF8047B704780B483B000AF78604C
:1068D0000B467B807B887A68134418460C37BD468C
:1068E0005DF8047B704780B483B000AF78607B684C
:1068F0009B0003F5A0739BB218460C37BD465DF8AC
:10690000047B704780B582B000AF78600B46FB70A7
:106910007B681B68FA7811461846FFF7C6FF0346E6
:1069200018460837BD4680BD90B583B000AF78608B
:1069300039607B681C683868FFF7D5FF0346194645
:106940002046FFF7C1FF034618460C37BD4690BDF1
:1069500080B483B000AF78600B467B807B887A6818
:10696000134418460C37BD465DF8047B70470000A1
:1069700080B483B000AF0346FB71FB79034AD35C5C
:1069800018460C37BD465DF8047B70478CCD03007C
:106990002DE9F00F86B000AF786179690020884654
:1069A0008146C7E902894FF000004FF00001C7E9B6
:1069B0000001F9684E017E607E68B96846EAD166DA
:1069C0007E60B96849013960D7E90001C7E9020171
:1069D0000146B1EB0804F96861EB09054FF00000CE
:1069E0004FF00001A90141EA9461A001021B61EB93
:1069F00005034FF000004FF00001D90041EA527149
:106A0000D00002460B4612EB080A43EB090B4FF08D
:106A100000024FF000034FEACB1343EA5A634FEAF8
:106A2000CA1292469B46504659464FF000024FF01C
:106A30000003C20B42EA4142CB0B134618461837FB
:106A4000BD46BDE8F00F704780B582B000AF7860FA
:106A5000796800200A4603464FF000004FF000011D
:106A6000990341EA92419003054A4FF0000315F063
:106A7000CFFF02460B46134618460837BD4680BD79
:106A800040420F0080B584B000AF78607B681B681F
:106A9000184607F081FD0346BB60BB68002B01D19F
:106AA00000231BE07B685B6807F10802114618466B
:106AB00008F066FCF860FB68002B01D000230DE0B5
:106AC0007B68DB69DA680132DA607B689869B968EB
:106AD0007B685B6A1A4601F0A5FB01231846103754
:106AE000BD4680BD80B596B000AF786039607B68E8
:106AF000FB633B681B78042B00F2D78001A252F89D
:106B000023F000BF936B0200416B0200196B02007F
:106B1000356C0200616C0200012387F82C303B6861
:106B20005B683B633B689B687B63FB6BDB691B6853
:106B3000FA6BD269526807F12C0110469847C7E0FA
:106B4000FB6BDB6993F82630002B40F0BA80F86BC2
:106B5000FFF798FF034683F00103DBB2002B00F040
:106B6000B280FB6BDB6993F82530002B05D0FB6B03
:106B7000DB69012283F82620A5E00023BB64BB6CFF
:106B8000002B40F0A080544AE621002005F0B8FE1A
:106B900099E03B689A68FB6BDB695B69D31A7B649D
:106BA0007B6C002B3AD0FB6BDB691969FB6BDB69F3
:106BB0007A6C0A441A61002387F820303B685A68CF
:106BC000FB6BDB695B6913447B627B6CBB62FB6BB9
:106BD000DB6900225A61FB6B5868FB6BDB69183379
:106BE0000022194608F070FC38653B6D002B0AD076
:106BF0000023FB64FB6C002B05D1374A40F20B11DC
:106C0000002005F07DFEFB6BDB691B68FA6BD26927
:106C1000526807F120011046984756E000233B6474
:106C20003B6C002B51D12C4A4FF48A71002005F0A7
:106C300067FE4AE007F1140300221A605A609A6066
:106C400002233B753B681B793B76FB6BDB691B685A
:106C5000FA6BD269526807F114011046984737E081
:106C60003B685A68FB6BDB695B69D31ABB63FB6BE0
:106C7000DB691969FB6BDB69BA6B0A441A6107F1BE
:106C8000080300221A605A609A6003233B723B6833
:106C90005B68FB60FB6BDB691B68FA6BD26952684F
:106CA00007F108011046984712E000237B657B6DD1
:106CB000002B0CD1084A4FF49971002005F020FEFA
:106CC00005E000BF04E000BF02E000BF00E000BF3D
:106CD00000BF5837BD4680BD44CD030080B588B0A5
:106CE00000AF78607B689B69DB681B0B5BB2184662
:106CF000FFF7BCFD7B689B695B68D3F84C35FB6193
:106D00007B68DB691B69FA699A4227D97B68DB6972
:106D10001B69FA69D31ABB6100233B737B68DB698B
:106D20009A697B68DB695B6913443B61BB697B6182
:106D30007B68DB6959697B68DB69BA690A445A6117
:106D40007B68DB69FA691A617B68DB691B687A68B2
:106D5000D269526807F10C01104698477B689B691D
:106D6000DB681B0B5BB21846FFF772FD00BF2037D4
:106D7000BD4680BD80B582B000AF03463960FB8060
:106D80003868FFF7ABFF00BF0837BD4680BD80B550
:106D900088B000AF78607B68FB6106F061FCB86189
:106DA000FB69DB691B6A1846FFF74EFE03465B086A
:106DB0007B617B69052B38BF05237B61FB69DB6940
:106DC00093F8273083F00103DBB2002B45D1FB6938
:106DD0009B695B684C211846FFF756FDFB699B6970
:106DE0005B68D3F84C353B61FB691B691B68FA692A
:106DF0007969184606F0DEFBFB695B691B683A6936
:106E00009A420CD0FB695B693A691A60FB695B695D
:106E1000BA695A60FB695B6901221A721EE0FB695C
:106E20005B695B681946B86906F009FCF860FB69A4
:106E30005B691B7A002B11D0F868FFF7A9FD0246A9
:106E4000FB69DB691B6A9A4208D9FB695B6900220E
:106E50001A72F869FFF742FF00E000BF2037BD4615
:106E600080BD000090B59BB000AFF860B9607A605B
:106E70003B60BB685B7F072B07D0FB681B69002B5F
:106E800005D0BB685B7F052B01D907237FE1FB6839
:106E9000DB6993F82730002B01D0082377E1FB68EA
:106EA000DB697A681A60FB68DB6900221A61FB689B
:106EB000DB6900229A61FB68DB690022DA61FB680A
:106EC000DB6900225A61FB68DB690022DA60FB683B
:106ED000DB693A685A60FB68DB69BA6812691A6252
:106EE000FB68DB69002283F82620BB681A7DFB68FB
:106EF000DB69012A0CBF01220022D2B283F82520CF
:106F000000233B660023FB650023BB6500237B65F4
:106F1000FB68DB68002B47D000233B7400237B74A5
:106F20000023BB740623FB7400237B6104233B74A2
:106F3000FB687B61BB685B7F1846FFF719FD034662
:106F4000FB74FB68DB6807F11001934A1846FFF7F2
:106F500015FBF864FB6C002B01D0032317E1FB68E1
:106F6000D868BB681A6901230021FFF7A1FBFB6801
:106F7000DB6800211846FFF7C5FC3866FB68DB6854
:106F80000C211846FFF7BEFCF865FB68DB68102192
:106F90001846FFF7B7FCB865FB68DB6800211846A8
:106FA000FFF7C2FC786538E0FB681B69002B27D02F
:106FB000FB68DB6993F8243083F00103DBB2002B1C
:106FC00011D0FB681B69754A0021184606F0D0FAFB
:106FD000F864FB6C002B01D0FB6CD8E0FB68DB692C
:106FE000012283F82420FB685B6900221A72FB6887
:106FF0005B6900221A60FB685B6900225A600CE042
:1070000000233B653B6D002B05D1654A4FF4F271BF
:10701000002005F075FC0323B9E0FB681B69002B19
:1070200062D100237B6610E0FB68DA697B6E08336F
:107030001344184601F0AAFCF864FB6C002B01D045
:107040000323A4E07B6E01337B667B6E012BEBD9BF
:10705000FB68DB691C7AFB689B69DB684FF4847111
:107060001846FFF775FC03463A6E1946204601F0B4
:107070000BFDF864FB6C002B01D0032387E0FB6D54
:10708000002B0CD0FB68DB691B7AF96D184601F008
:1070900031FDF864FB6C002B01D0032377E0FB6823
:1070A000DB695B7ABA6D796D184601F0EDFCF86426
:1070B000FB6C002B01D0032369E0FB689B695B68D4
:1070C0004C33002B10D0FB68DB695A7AFB689B6954
:1070D0005B684C331946104601F00CFDF864FB6CFC
:1070E000002B01D0032352E0BB685B683B62BB68A6
:1070F0001B687B62BB689B68BB62BB68DB68FB622A
:10710000FB689B69DB684FF488711846FFF720FC29
:1071100003463B6300237B630023BB630023FB63C5
:10712000BB681B7D87F84030BB685B7D87F84130CA
:10713000BB689B697B64BB685B7F87F84830BB6832
:107140001B7F87F84930FB68986907F12001FB68CD
:10715000144A00F0A9FEF864FB6C002B01D0FB6C14
:1071600015E0FB681B68184607F0EAF9F864FB6C49
:10717000002B01D0FB6C0AE0FB685B68184608F046
:107180002BFAFB68DB69012283F82720FB6C184689
:107190006C37BD4690BD00BF756D02008F6D02005B
:1071A00044CD0300E56A020080B58AB000AF786084
:1071B0007B681B68184607F0EFF978627B68DB692B
:1071C000DA680132DA607B6A002B0AD100233B6265
:1071D0003B6A002B05D13E4A4FF41571002005F0A3
:1071E0008FFB7B68DB68002B04D07B68DB6818466C
:1071F000FFF750FA7B681B69002B2DD17B68DB6998
:107200001B7A184601F095FCF861FB69002B0CBF56
:1072100001230023DBB2BB61BB69002B05D12C4AE3
:1072200040F26521002005F06BFB7B68DB695B7A2F
:10723000184601F07EFCF861FB69002B0CBF0123AE
:107240000023DBB27B617B69002B05D1204A40F231
:107250006721002005F054FB7B68DB697A6A9A613C
:107260007B6898697B685A6A0023796A00F086FF18
:1072700038613B69002B0CBF01230023DBB2FB60AC
:10728000FB68002B05D1124A4FF41B71002005F05A
:1072900037FB7B681B69002B15D07B68DB691B6A99
:1072A0001846FFF7D1FB03465B08BB60BB68052BA4
:1072B00038BF0523BB607B681B691B687A68B968A7
:1072C000184606F077F900BF2837BD4680BD00BFDD
:1072D00044CD030080B584B000AFF860B9607A6037
:1072E000FB689B697A68B968184600F0C1FE0346DE
:1072F00018461037BD4680BD80B588B000AFF86035
:10730000B9607A60FB68DB69D969FB68DB697A6818
:107310000A44DA61FB68DB69DA69FB685B6A9A42F6
:1073200037D1FB68DB69DB697A68D31ABA68134422
:10733000BB60FB68DB690022DA61FB681B68B96827
:10734000184607F063F9FB68DB69DA68013ADA602E
:10735000FB68DB69DB68002B0ADA0023FB61FB6951
:10736000002B05D1164A4FF42271002005F0C8FA0F
:10737000FB68DB6993F82630002B1CD0F868FFF718
:1073800081FB0346FB76FB68DB69002283F826203D
:1073900011E0FB68DB69DA69FB685B6A9A420AD92B
:1073A00000237B617B69002B05D1054A40F29621C1
:1073B000002005F0A5FA00BF2037BD4680BD00BF04
:1073C00044CD030080B483B000AF0346FB7197F94E
:1073D0000730002B0BDBFB7903F01F02074997F9FD
:1073E00007305B09012000FA02F241F8232000BFB8
:1073F0000C37BD465DF8047B704700BF00E100E03C
:1074000080B483B000AF0346FB7197F90730002BBF
:107410000CDBFB7903F01F02074997F907305B0982
:10742000012000FA02F2603341F8232000BF0C373C
:10743000BD465DF8047B704700E100E080B483B096
:1074400000AF03463960FB7197F90730002B0ADB68
:107450003B68DAB20C4997F907305201D2B20B44BB
:1074600083F800230AE03B68DAB20849FB7903F0AD
:107470000F03043B5201D2B20B441A7600BF0C3703
:10748000BD465DF8047B704700E100E000ED00E0E0
:1074900080B483B000AF78607B681B0B5BB218468A
:1074A0000C37BD465DF8047B704780B485B000AFF3
:1074B00078600B467B807B887A68134400221A60D0
:1074C0007B887A6813441B68FB60FB6800BF143735
:1074D000BD465DF8047B704780B483B000AF786030
:1074E0000B467B807B887A6813441B68002B14BF93
:1074F00001230023DBB218460C37BD465DF8047B40
:10750000704780B483B000AF78600B467B807B8887
:107510007A68134418460C37BD465DF8047B704703
:1075200080B483B000AF786039607B683A68C3F894
:10753000042300BF0C37BD465DF8047B704780B460
:1075400085B000AF78607B68D3F88034FB607B68DF
:10755000FA68C3F88024FB6818461437BD465DF806
:10756000047B704780B483B000AF78607B680822EA
:10757000C3F8002500BF0C37BD465DF8047B70479B
:1075800080B485B000AFF860B9607A60FB68BA6813
:10759000C3F80C25FB687A68C3F8142500BF1437BC
:1075A000BD465DF8047B704780B483B000AF78605F
:1075B0000B46FB70FB787A68134401221A6000BF07
:1075C0000C37BD465DF8047B704780B483B000AFD4
:1075D00078600B46FB70FA787B68134418460C37CA
:1075E000BD465DF8047B704780B483B000AF78601F
:1075F0000B46FB701346BB70FA78BB781343DBB2C3
:107600001A467B68C3F86C2500BF0C37BD465DF891
:10761000047B704780B483B000AF786039607B68CA
:107620003A68C3F8242500BF0C37BD465DF8047BDB
:10763000704780B485B000AFF860B9607A60BA680E
:10764000FB68C3F84425FB687A68C3F8482500BF87
:107650001437BD465DF8047B704780B483B000AF3B
:1076600078607B68D3F84C3518460C37BD465DF81A
:10767000047B704780B485B000AFF860B9607A6071
:10768000BA68FB68C3F83425FB687A68C3F8382504
:1076900000BF1437BD465DF8047B704780B483B0EB
:1076A00000AF0346FB71FB79DB0003F1804303F578
:1076B000F83318460C37BD465DF8047B704780B43C
:1076C00083B000AF0346FB71FB79DB00043303F1A9
:1076D000804303F5F83318460C37BD465DF8047B4C
:1076E000704780B483B000AF0346FB71FB79012281
:1076F00002FA03F318460C37BD465DF8047B704769
:1077000080B582B000AF03460A46FB711346BB71D9
:10771000FB791846FFF7E5FF0246BB79194610468C
:1077200001F01AFB034618460837BD4680BD80B5F8
:1077300082B000AF0346FB71FB791846FFF7AEFF3E
:10774000034618460837BD4680BD80B582B000AFFD
:107750000346FB71FB791846FFF7B1FF0346184655
:107760000837BD4680BD80B483B000AF78600B465B
:10777000FB70FB787A68134418460C37BD465DF8F9
:10778000047B704780B483B000AF78600B46FB7019
:10779000FA787B6802F5A87253F8223018460C3745
:1077A000BD465DF8047B704780B483B000AF78605D
:1077B0007B689B004033DBB218460C37BD465DF852
:1077C000047B704780B582B000AF78600B46FB70D9
:1077D0007B681B68FA7811461846FFF7C4FF03461A
:1077E00018460837BD4680BD90B583B000AF7860BD
:1077F00039607B681C683868FFF7D6FF0346194676
:107800002046FFF7B0FF034618460C37BD4690BD33
:1078100080B582B000AF78600B46FB707B681B6858
:10782000FA7811461846FFF7ADFF034618460837A9
:10783000BD4680BD80B483B000AF78604FF0A043F8
:1078400018460C37BD465DF8047B704780B584B0A0
:1078500000AF7860084611461A460346FB700B4697
:10786000BB7013467B703B1D1846FFF7E3FFF860C3
:10787000FA78BB785B001A437B789B001A433B7E07
:107880001B0242EA03013B7F1B047A681943FB6831
:1078900002F5E07243F8221000BF1037BD4680BDEC
:1078A00080B584B002AF7860002301930023009379
:1078B0000023012201217868FFF7C8FF00BF0837C5
:1078C000BD4680BD80B584B002AF78600B46FB70CA
:1078D000FB780022019200220092002200217868A9
:1078E000FFF7B4FF00BF0837BD4680BD80B584B048
:1078F00000AF78603B1D1846FFF79CFFF8607B687F
:10790000012202FA03F31946F86800F004F800BFF8
:107910001037BD4680BD80B483B000AF7860396059
:107920007B683A68C3F8082500BF0C37BD465DF890
:10793000047B704780B586B000AFF860B9607A60AC
:107940003B60F86801F022F878617B69002B01D078
:1079500004231CE0FB681B787A68B968184601F0BC
:1079600093F878617B69002B01D003230FE03B681B
:10797000002B0BD0FB681B783968184601F0BAF869
:1079800078617B69002B01D0032300E000231846B7
:107990001837BD4680BD80B586B000AFF8607A600C
:1079A0003B600B46FB72F86801F027F978617B6950
:1079B000002B01D004232CE0FB681A78FB7A1146D7
:1079C0001846FFF79DFE78617B69002B01D00323E9
:1079D0001FE097F82030002B0AD0FB681B78184670
:1079E00001F090F978617B69002B01D0032310E04E
:1079F000FB681B781846FFF79AFE02467B681A6000
:107A0000FB681B781846FFF7A0FE02463B681A6029
:107A1000002318461837BD4680BD80B584B000AF3E
:107A200078607B681B78184601F0B4F8F8607B68D2
:107A30001B78184600F0FCFFF8607B6814221A706F
:107A400000BF1037BD4680BD80B584B000AF786000
:107A50007B681B78184601F01DF9F8607B680622E8
:107A60001A7000BF1037BD4680BD80B584B000AF2E
:107A700078600023FB6010E07B681A68FB681344A1
:107A80001B78132B06D87B681A68FB6813441846CA
:107A9000FFF7C3FFFB680133FB60FB68082BEBDDDE
:107AA0000023BB6013E07B681A68BB68134409338A
:107AB0001B78052B08D87B681A68BB680833134409
:107AC00001331846FFF7C0FFBB680133BB60BB68DA
:107AD000012BE8DD00BF00BF1037BD4680BD80B57B
:107AE00084B000AF78607B681B78184601F021F8FD
:107AF000F86000BF1037BD4680BD80B584B000AFD0
:107B000078607B681B78184601F044F8F86000BF85
:107B10001037BD4680BD80B584B000AF78600023CB
:107B2000FB6010E07B681A68FB6813441B78132B1A
:107B300006D87B681A68FB6813441846FFF7CFFF26
:107B4000FB680133FB60FB68072BEBDD00BF00BF68
:107B50001037BD4680BD80B584B000AF7860082383
:107B6000FB6010E07B681A68FB6813441B78132BDA
:107B700006D87B681A68FB6813441846FFF7AFFF06
:107B8000FB680133FB60FB68082BEBDD00BF00BF27
:107B90001037BD4680BD80B584B000AF7860082343
:107BA000FB6010E07B681A68FB6813441B78132B9A
:107BB00006D87B681A68FB6813441846FFF79DFFD8
:107BC000FB680133FB60FB68082BEBDD00BF00BFE7
:107BD0001037BD4680BDF0B58DB002AF786039601A
:107BE0000023BB6100237B6100233B610023FB601A
:107BF00000233B6208E07B681A683B6A1344142246
:107C00001A703B6A01333B623B6A082BF3DD0023A9
:107C1000FB6109E07B681A68FB691344093306229B
:107C20001A70FB690133FB61FB69012BF2DD7B6894
:107C30001B6803F108047B68DB684FF490711846F9
:107C4000FFF75FFC05467B68DB6808211846FFF7F5
:107C5000BCFC0246002329462046FFF76BFE7862F3
:107C60007B6A002B40F0F4807B681B681C1D7B68DE
:107C7000DB684FF484711846FFF743FC05467B68C8
:107C8000043308211846FFF79DFD024600232946CC
:107C90002046FFF74FFE78627B6A002B40F0DA80C7
:107CA0007B681B685C1D7B68DB684FF48871184635
:107CB000FFF727FC05467B68DB6800211846FFF7C5
:107CC00084FC06467B68043300211846FFF78CFDD0
:107CD0000346324629462046FFF72CFE78627B6A2F
:107CE000002B40F0B9803B685B69002B70D03B688B
:107CF000DB69002B6CD07B681B689C1D7B68DB6894
:107D00004FF488711846FFF7FCFB05467B68043387
:107D100000211846FFF768FD02463B68DB692946EB
:107D20002046FFF707FE78627B6A002B40F09680C2
:107D30007B681B6803F109007B681B68597907F1B0
:107D4000140307F1180201240094FFF724FE78625F
:107D50007B6A002B40F084807B681B6803F10A007B
:107D60007B681B68997907F10C0307F11002002466
:107D70000094FFF710FE78627B6A002B72D17B685B
:107D80001B689C1C3B685D697B68DB6804211846A6
:107D9000FFF71BFC06467B68043301211846FFF7FA
:107DA00023FD0346324629462046FFF7C3FD78628D
:107DB0007B6A002B58D17B681B68D81C3B685969CB
:107DC0007A693B69FFF7B6FD78627B6A002B4DD17B
:107DD0003B689B69002B02D1FB68002B1FD07B689E
:107DE0001B685C1C7B68DB684FF4A6711846FFF7C4
:107DF00088FB0146FB68002B02D13B689A6900E0D2
:107E0000FA68FB68002B02D03B689B6900E0002306
:107E10002046FFF78FFD78627B6A002B28D13B68F4
:107E20001B69002B26D07B681B681D463B681C69BC
:107E30007B68DB6800211846FFF7C7FB0246BB6979
:107E400021462846FFF776FD78627B6A002B12E018
:107E500000BF10E000BF0EE000BF0CE000BF0AE072
:107E600000BF08E000BF06E000BF04E000BF02E082
:107E700000BF00E000BF7B6A002B01D17B6A03E0FA
:107E80007868FFF7F2FD7B6A18462C37BD46F0BDD7
:107E900080B483B000AF03463960FB8000BF0C376D
:107EA000BD465DF8047B704780B58AB000AFF860CE
:107EB000B9607A603B60FB68DB681846FFF7E8FA58
:107EC000034687F82730FB681B6893F83C30002B8B
:107ED00001D00823BEE0FB681B687A685A62FB6821
:107EE0001B6800229A61FB681B680022DA61FB684C
:107EF0001B6800221A62FB681B680022DA60FB68BC
:107F00001B683A685A63FB681B68FF2283F83A20B3
:107F1000FB68DB68514A934214BF01230023DBB2A4
:107F200019464F4AFB6842F82130BB681B68184667
:107F3000FFF7DCFCBB681B681846FFF7B1FCBB68A9
:107F40005A68BB6893F82930002B01D0032300E066
:107F5000002319461046FFF7B5FCFB68DA68BB68DA
:107F60005B6A19461046FFF755FBFB68D868BB688B
:107F700093F82110BB6893F820301A46FFF734FBC2
:107F8000FB68D868BB681968BB685B681A46FFF76E
:107F9000F7FABB6893F82030012B01D1072359E091
:107FA00097F92730022B0AD1FB68DB682D49184668
:107FB00009F04EFD0346002B01D011234AE0FB6877
:107FC000DB6829491846FFF7ABFABB6893F82830FD
:107FD0001A4697F9273011461846FFF72FFA97F9F6
:107FE00027301846FFF70CFA97F927301846FFF7A5
:107FF000E9F9FB68DB681846FFF7B4FA00233B7623
:1080000000237B760023BB760623FB760023FB61EF
:1080100001237B760323BB76FB68043307F1180149
:10802000124A1846FEF7AAFA38623B6A002B01D0C2
:1080300003230FE0B968F868FFF7CDFD38623B6AAB
:10804000002B01D0032305E0FB681B68012283F8A5
:108050003C20002318462837BD4680BD0020004044
:10806000EC9B00208585020010034800917E0200F1
:1080700080B586B000AFF860B9607A60FB681B68B5
:10808000DB68002B01D0112371E0FB681B68BA6824
:10809000DA60FB681B687A681A61FB681B6800225B
:1080A0005A617B68FF2B06D87B68FB82FB681B68E4
:1080B00000221A871EE07B68FE332F4AA2FB0323AF
:1080C000DB093B617A683B69B2FBF3F2FB681B6832
:1080D00092B21A87FB681B68198FFB681B681B8F9D
:1080E0001A467B68B3FBF2F000FB02F29B1A9BB2CC
:1080F0000B44FB82FB68DB68FA8AB9681846FFF715
:1081000098FAFB68DB684FF4A8711846FFF7CDF9C1
:10811000FB68DB6808211846FFF746FA7B68FF2BEF
:1081200024D900BFFB68DB684FF4A8711846FFF73D
:10813000D3F9034683F00103DBB2002BF2D1FB68D5
:10814000DB684FF4A8711846FFF7AFF9F868FFF73E
:1081500002FDFB68D868FB681B68DA68FB8AD118E7
:10816000FB681B681B8F1A46FFF763FA002318464B
:108170001837BD4680BD00BF8180808080B584B047
:1081800000AFF860B9607A60FB70FB681B689B69A0
:10819000002B01D0112341E0FB681B687A681A6349
:1081A000BB68002B0AD0FB681B68BA689A61FB6841
:1081B000DB687A68B9681846FFF75CFAFB68043335
:1081C0001846FEF74BFAFB6804331846FEF762FACE
:1081D000FB681B6800229A62FB681B680022DA6257
:1081E000FB68DB684FF488711846FFF75EF9FB689F
:1081F000DB684FF4A6711846FFF757F9F868FFF7E8
:108200008AFCFB7883F00103DBB2002B05D0FB680E
:10821000DB6800211846FFF7C7F90023184610371E
:10822000BD4680BD80B584B000AFF860B9607A60AB
:10823000FB681B68DB69002B0BD1FB681B68BA6805
:10824000DA61FB68DB687A68B9681846FFF712FAEA
:1082500003E0FB681B68BA681A6200BF1037BD46AE
:1082600080BD80B59AB000AF78607B68DB684FF462
:1082700092711846FFF730F90346002B22D07B6835
:10828000DB684FF492711846FFF70FF907F13803D6
:1082900000221A605A609A60032387F838307B689E
:1082A000DB681846FFF74BF90346DBB287F83C3032
:1082B0007B681B685B6A7A681268526B07F1380149
:1082C000104698477B68DB684FF4A6711846FFF7A5
:1082D00003F90346002B19D07B68DB684FF4A671C5
:1082E0001846FFF7E2F807F12C0300221A605A60E3
:1082F0009A60012387F82C307B681B685B6A7A6878
:108300001268526B07F12C01104698477B68DB68B6
:108310004FF488711846FFF7DFF80346002B00F092
:108320009D807B68DB684FF488711846FFF7BDF8C5
:108330007B68043300211846FFF76AFAF8657B680A
:10834000043301211846FFF763FAB8657B681B68A0
:108350009B6AFA6DD31A7B657B681B68DB6ABA6D12
:10836000D31A3B657B681B68FA6D9A627B681B6851
:10837000BA6DDA627B6D002B02D13B6D002B6DD0A4
:108380007B681B681B6B7A6D934228BF13467B6624
:108390007A6D7B6ED31A3B66002387F820307B68AA
:1083A0001B689B697B627B6EBB627B681A687B681B
:1083B0001B68D2699A617B681B680022DA617B685E
:1083C0001B681B6A002B14D07B681A687B681B68CB
:1083D000126ADA617B681B6800221A627B68D868BF
:1083E0007B681B68D9697B681B681B6B1A46FFF7A3
:1083F00041F97B681B685B6A7A681268526B07F107
:108400002001104698473B6E002B09D17B681B6802
:108410001B6B7A6D9A4221D1FA6DBB6D9A421DD1C8
:1084200007F1140300221A605A609A6004233B7516
:108430003B6EBB617B681B685B6A7A681268526B33
:1084400007F11401104698477B681A687B681B681F
:10845000D2699A617B681B680022DA617B68DB68FD
:108460004FF4AC711846FFF737F80346002B1ED0C7
:108470007B68DB684FF4AC711846FFF716F80223EF
:108480003B727B681B68DB68FB607B681B681B6951
:108490003B617B681B680022DA607B681B685B6A53
:1084A0007A681268526B07F10801104698477B689A
:1084B000DB684FF490711846FFF70EF80346002B67
:1084C0005CD07B68DB684FF490711846FEF7EDFFD7
:1084D0007B68DB681846FFF7C0F8F8647B681B68A8
:1084E00059697B681B68FA6C0A445A617B681B688F
:1084F0005A697B681B681B699A420DD17B68DB68EF
:108500004FF4AC711846FEF7D0FF7B68DB680C2196
:108510001846FFF749F831E07B681B681A697B68E9
:108520001B685B69D31ABB64BB6CFF2B03D87868EC
:10853000FFF731FB22E07B681B68DA687B681B6809
:108540005B6979680968098F0B4413447B647B6815
:10855000DB684FF4A8711846FEF7BEFF7B68DB6846
:108560004FF4A8711846FEF7A0FF7B68D8687B68B7
:108570001B681B8F1A46796CFFF75BF800BF6837E2
:10858000BD4680BD80B500AF034B1B681846FFF7A2
:1085900068FE00BF80BD00BFEC9B002080B483B0AC
:1085A00000AF78604FF0A04318460C37BD465DF829
:1085B000047B704780B584B000AF786008461146F0
:1085C0001A460346FB700B46BB7013467B703B1D7F
:1085D0001846FFF7E3FFF860FA78BB785B001A43B0
:1085E0007B789B001A433B7E1B0242EA03013B7FE0
:1085F0001B047A681943FB6802F5E07243F8221005
:1086000000BF1037BD4680BD80B584B002AF786032
:1086100000230193002300930023012201217868A5
:10862000FFF7C8FF00BF0837BD4680BD80B500AF6B
:108630001220FFF7E9FF1420FFF7E6FF1620FFF7EF
:10864000E3FF0A20FFF7E0FF0B20FFF7DDFF0C2020
:10865000FFF7DAFF1320FFF7D7FF00BF80BD000050
:1086600080B483B000AF0346FB71FB79054A01215A
:1086700001FA03F3C2F8043500BF0C37BD465DF8BC
:10868000047B704700F0014080B483B000AF034624
:10869000FB71FB79054A012101FA03F3C2F80835A1
:1086A00000BF0C37BD465DF8047B704700F0014009
:1086B00080B485B000AF0346B9607A60FB730949A6
:1086C000FB7BA233BA6841F83320064AFB7BA23316
:1086D000DB0013447A685A6000BF1437BD465DF86A
:1086E000047B704700F0014080B483B000AF0346C4
:1086F0003960FB710649FB7903F511733A6841F85B
:10870000232000BF0C37BD465DF8047B704700BFD7
:1087100000F0014080B483B000AF78600B46FB707E
:10872000094AFB7803F5007352F823100648FB78DA
:108730007A680A4303F5007340F8232000BF0C3722
:10874000BD465DF8047B704700F0014080B483B003
:1087500000AF0346FB71054AFB79012142F8331053
:1087600000BF0C37BD465DF8047B704700F0014048
:1087700080B483B000AF0346FB71064AFB79DB008F
:10878000134401225A6000BF0C37BD465DF8047BDC
:10879000704700BF00F0014080B483B000AF0346D3
:1087A000FB71FB79012202FA03F318460C37BD4630
:1087B0005DF8047B704780B483B000AF0346FB7163
:1087C000FB79012202FA03F318460C37BD465DF827
:1087D000047B704780B582B000AF0346FB71FB7924
:1087E0001846FFF7D9FF0346C3F31003002B14BF4D
:1087F00001230023DBB218460837BD4680BD80B494
:1088000083B000AF78607B685B0C5B04002B0CBF0F
:1088100001230023DBB218460C37BD465DF8047B0C
:10882000704780B582B000AF0346FB71FB791846F4
:10883000FFF7B2FF03461846FFF7E1FF034618466D
:108840000837BD4680BD80B582B000AF0346FB71DE
:10885000FB791846FFF7AFFF034603F00F03002B29
:1088600014BF01230023DBB218460837BD4680BD84
:1088700080B582B000AF0346FB71FB791846FFF765
:108880008BFF0246054B1B681340002B14BF0123CE
:108890000023DBB218460837BD4680BDF49B00209C
:1088A00080B582B000AF0346FB71FB791846FFF735
:1088B00073FF0246044B1B681343034A136000BF57
:1088C0000837BD4680BD00BFF49B002080B582B054
:1088D00000AF0346FB71FB791846FFF75DFF0346C7
:1088E000DA43044B1B681340024A136000BF083789
:1088F000BD4680BDF49B002090B583B000AF034619
:10890000FB71094B1B781C46FB791846FFF753FF98
:1089100003462340002B14BF01230023DBB218467B
:108920000C37BD4690BD00BFF89B002080B582B0DB
:1089300000AF0346FB71FB791846FFF73CFF034687
:10894000DAB2054B1B781343DAB2034B1A7000BF3F
:108950000837BD4680BD00BFF89B002080B582B0BF
:1089600000AF0346FB71FB791846FFF724FF03466F
:10897000DB43DAB2044B1B781340DAB2024B1A70B5
:1089800000BF0837BD4680BDF89B002080B586B08B
:1089900000AF786000233B6100237B6104233B61CF
:1089A000224B7B610023FB7335E00023BB7307F18F
:1089B0000E03184604F0C6FFFB7B1846FFF7ECFEDB
:1089C00002467B691340002B12D0FB7B1846FFF751
:1089D0004FFF034683F00103DBB2002B08D0FB7B83
:1089E0001846FFF75DFF7B68FA7B1A7000233B6136
:1089F000BB7B184604F0B1FF3B69002B0FD0FB7B1B
:108A00001846FFF7C9FE0346DB437A6913407B61D2
:108A1000FB7B0133FB737B69002BC6D100E000BFF9
:108A20003B6918461837BD4680BD00BFFFFF0100F7
:108A300080B584B000AF0346FB710023FB60FB7977
:108A40001846FFF7C7FE034683F00103DBB2002B95
:108A500002D00723FB6012E0FB791846FFF714FEF3
:108A60000023FB7207F10B03184604F06BFFFB7940
:108A70001846FFF72BFFFB7A184604F06EFFFB68E1
:108A800018461037BD4680BD80B586B000AF03469E
:108A9000B9607A60FB73BB68002B02D07B68002B47
:108AA00001D10E2322E000237B61FB7B1846FFF7F8
:108AB00091FE034683F00103DBB2002B02D00723B3
:108AC0007B6112E0FB7B1846FFF7D2FE034683F082
:108AD0000103DBB2002B02D008237B6105E0FB7BA6
:108AE0007A68B9681846FFF7E3FD7B6918461837BE
:108AF000BD4680BD80B584B000AF03463960FB71D0
:108B00000023FB60FB791846FFF7B2FE034683F0B3
:108B10000103DBB2002B02D00823FB6004E0FB79E9
:108B200039681846FFF7E0FDFB6818461037BD4668
:108B300080BD80B584B000AF0346FB710023FB60AD
:108B4000FB791846FFF76DFE034683F00103DBB2A5
:108B5000002B02D00723FB6017E0FB791846FFF7D4
:108B600039FE0346002B0CD0FB791846FFF780FE38
:108B7000034683F00103DBB2002B02D00823FB6025
:108B800003E0FB791846FFF76BFDFB6818461037CA
:108B9000BD4680BD80B584B000AF0346FB710023A5
:108BA000FB60FB791846FFF73CFE034683F00103A8
:108BB000DBB2002B02D00723FB6019E0FB791846DB
:108BC000FFF708FE0346002B0CD0FB791846FFF791
:108BD0004FFE034683F00103DBB2002B02D00823D3
:108BE000FB6005E0FB791846FFF74EFD0023FB60B4
:108BF000FB6818461037BD4680BD80B586B000AF13
:108C0000786000233B6104237B610F233B610023D9
:108C1000FB7335E00023BB7307F10E03184604F025
:108C200091FEFB7B1846FFF7C6FD02463B691340E9
:108C3000002B12D0FB7B1846FFF75EFE034683F045
:108C40000103DBB2002B08D0FB7B1846FFF76EFE5A
:108C50007B68FA7B1A7000237B61BB7B184604F0AB
:108C60007CFE7B69002B0FD0FB7B1846FFF7A3FD32
:108C70000346DB433A6913403B61FB7B0133FB73E3
:108C80003B69002BC6D100E000BF7B69184618374E
:108C9000BD4680BD80B584B000AF0346FB710023A4
:108CA000FB60FB791846FFF7CEFD034683F0010316
:108CB000DBB2002B01D00723FB60FB791846FFF7DE
:108CC0001BFE034683F00103DBB2002B02D0082316
:108CD000FB6012E0FB791846FFF74AFD0023FB72A8
:108CE00007F10B03184604F02DFEFB791846FFF739
:108CF00035FEFB7A184604F030FEFB681846103744
:108D0000BD4680BD80B584B000AF0346FB71002333
:108D1000FB60FB791846FFF796FD034683F00103DD
:108D2000DBB2002B02D00723FB6010E0FB79184672
:108D3000FFF7E2FD034683F00103DBB2002B02D014
:108D40000823FB6003E0FB791846FFF7FFFCFB6894
:108D500018461037BD4680BD80B584B000AF78603E
:108D60000B46FB700023FB60FB781846FFF76BFD9A
:108D7000034683F00103DBB2002B02D00723FB6024
:108D800028E0FB781846FFF7B7FD034683F00103A0
:108D9000DBB2002B02D00823FB601BE07868FFF7F2
:108DA0002EFD034683F00103DBB2002B02D0072324
:108DB000FB600FE00023FB7207F10B03184604F081
:108DC000C1FDFB7819467868FFF7A4FCFB7A1846CA
:108DD00004F0C3FDFB6818461037BD4680BDA1DF17
:108DE000704700BF1846A3DF704700BF184662DF18
:108DF000704700BF1846000080B582B000AF294B15
:108E00001A68294B1B689A4248D0264B1A68274992
:108E100013469B0013449B000B4402331B78002B2A
:108E200018D1204B1A68214913469B0013449B001C
:108E30000B4418881B4B1A681C4913469B001344AB
:108E40009B000B4404331B8800221946FFF7C7FF21
:108E5000786015E0134B1A68144913469B001344BD
:108E60009B000B4418880F4B1A6813469B00134451
:108E70009B000E4A134408331946FFF7B4FF78608D
:108E80007B68002B0AD1074B1B680133054A13602E
:108E9000044B1B6803F00703024A136000BF083746
:108EA000BD4680BDA09C00209C9C0020FC9B002017
:108EB00080B582B000AF786039607B681A883B6803
:108EC0009B889A4202D1FFF797FF00E000BF083766
:108ED000BD4680BD80B5ACB000AF786039607B68BE
:108EE0001A883B689B889A4253D17B681B88FB8118
:108EF0003B685A897B681B8C9A420CD105233B73D3
:108F00003B6803F1100207F1100311465022184686
:108F100010F0A6F935E03B685A897B681B8B9A42B2
:108F20000AD108233B733B6803F1100207F11003D9
:108F300007CA83E8070024E03B685A897B685B8C9A
:108F40009A420CD107233B733B6803F1100207F1EF
:108F5000100311465A22184610F082F911E03B68BE
:108F60005A897B689B8B9A420BD104233B733B68E5
:108F700003F1100207F110031146A022184610F069
:108F80006FF97B68DB6A07F10C0211467868984735
:108F900000E000BFB037BD4680BD80B483B000AFF5
:108FA000786039607B681A883B689B889A423FD119
:108FB0007B684FF6FF721A807B6800225A807B68BC
:108FC0000022DA827B6800229A807B680022DA80A5
:108FD0007B6800221A817B6800225A817B6800220C
:108FE0009A817B680022DA817B6800221A827B6882
:108FF00000225A827B6800229A827B6800221A83B0
:109000007B6800225A837B6800229A837B68002257
:10901000DA837B6800221A847B6800225A847B688A
:1090200000229A847B680022DA847B6800221A85F9
:1090300000BF0C37BD465DF8047B704780B5AEB00D
:1090400000AF786039603B681B78002B40F04E81A0
:109050003B689B88B3F5806F40F048813B689A7904
:109060007B6893F830309A4240F0408101233B7393
:109070003B685B88FB810023C7F8B43011E1D7F867
:10908000B4201346DB0013445B0008333A681344F2
:109090000633C7F8B0309E4A9E4BD31ADB081B0438
:1090A00043F00300D7F8B0301B88D7F8B4209A49B2
:1090B00002F0A4FCD7F8B0301B88A3F20143092BBF
:1090C00000F2E98001A252F823F000BFF5900200FF
:1090D00023910200519102007B910200A3910200B2
:1090E000CB910200F59102001F920200479202000C
:1090F0006F920200D7F8B0305B893B82D7F8B0306E
:109100001B89BB84824A834BD31ADB081B0443F0C0
:109110000300D7F8B0301B891A46804902F05BFC87
:10912000BAE0D7F8B0305B893B84D7F8B0301B8900
:10913000BB86774A774BD31ADB081B0443F0030046
:10914000D7F8B0301B891A46754902F044FCA3E0F9
:10915000D7F8B0305B89FB82D7F8B0301B897B85AC
:109160006B4A6C4BD31ADB081B0443F003037A8D64
:109170006C49184602F02FFC8EE0D7F8B0305B89BE
:109180007B83D7F8B0301B89FB85614A614BD31ACA
:10919000DB081B0443F00303FA8D6349184602F011
:1091A0001AFCD7F8B0305B893B83D7F8B0301B8905
:1091B000BB85574A574BD31ADB081B0443F0030304
:1091C000BA8D5A49184602F006FCD7F8B0305B89D0
:1091D000BB83D7F8B0301B893B864D4A4D4BD31A21
:1091E000DB081B0443F003033A8E5149184602F092
:1091F000F2FB51E0D7F8B0305B897B82D7F8B03012
:109200001B89FB84424A434BD31ADB081B0443F0FF
:109210000303FA8C4749184602F0DDFB3CE0D7F81F
:10922000B0305B89FB83D7F8B0301B897B86384A26
:10923000384BD31ADB081B0443F003037A8E3E49F4
:10924000184602F0C8FBD7F8B0305B89BB82D7F86C
:10925000B0301B893B852E4A2E4BD31ADB081B04EA
:1092600043F003033A8D3549184602F0B4FBD7F8B2
:10927000B0305B897B84D7F8B0301B89FB86244AE9
:10928000244BD31ADB081B0443F00303FA8E2C494A
:10929000184602F0A0FB00BFD7F8B4300133C7F87E
:1092A000B4303B681B7A1A46D7F8B4309342FFF4C7
:1092B000E6AE7B681B884FF6FF7293420DD0144ACE
:1092C000144BD31ADB081B0443F003031D49184653
:1092D00002F072FB7B6800225A807B68DB6A07F130
:1092E0000C0211467868984700BF0CE03B681B7879
:1092F000002B08D000233B737B68DB6A07F10C026C
:1093000011467868984700BFB837BD4680BD00BF9A
:1093100094F503002CF50300B0CD0300C4CD030089
:10932000E0CD0300F8CD030010CE030030CE0300E3
:1093300054CE030074CE030090CE0300B4CE0300DD
:10934000D0CE0300ECCE030090B58BB000AF7860B8
:109350003960404B07F10C040FCB84E80F007B68A9
:10936000002B01D10E2371E03B68002B01D10E23AD
:109370006CE03B681B68002B01D10E2366E07B6824
:1093800000225A807B680022DA827B6800229A8061
:109390007B6800221A837B680022DA807B680022C7
:1093A0005A837B6800221A817B6800229A837B683B
:1093B00000225A817B680022DA837B6800229A812E
:1093C0007B6800221A847B680022DA817B68002295
:1093D0005A847B6800221A827B6800229A847B6808
:1093E00000225A827B680022DA847B6800229A82FB
:1093F0007B6800221A857B684FF6FF721A803B68F3
:109400001A687B68DA627B6803F1300207F10C03AB
:1094100011461846FFF7EBFC78627B6A002B01D0FF
:109420007B6A13E07B6A3B623B6A002B01D03B6A9C
:109430000CE07B6893F83030BB774FF48063BB83DC
:1094400007F11C0318460DF027FD034618462C377C
:10945000BD4690BD14CF030080B584B000AF7860E6
:1094600039603B68002B1ED07B68002B1BD03B680B
:10947000FB607B681B88392B06D0392B15DC112B40
:109480000CD0382B05D010E07968F868FFF722FD82
:109490000CE07968F868FFF70BFD07E07968F86879
:1094A000FFF77BFD02E000BF00E000BF1037BD46C4
:1094B00080BD000080B584B000AF0346FB800B4642
:1094C000BB801346FB70FB78FB811C4B1A68531C56
:1094D0001A490B6013469B0013449B00184A13441F
:1094E000BB60164B1B6803F00703144A1360BB688C
:1094F000BA885A81BB680222DA81BB681A1DBB6830
:109500001A61BB6800229A81BB6801221A72FB892A
:10951000DAB2BB681A71FB891B0A9BB2DAB2BB686C
:109520005A71BB68FA881A80BB6801229A70FFF7EB
:1095300063FC002318461037BD4680BD9C9C00206C
:10954000FC9B002080B582B000AF78607B68002B68
:1095500001D10E2310E07B681B884FF6FF72934207
:1095600001D1082308E07B6818887B689B89012269
:109570001946FFF79FFF034618460837BD4680BDD2
:1095800080B582B000AF78607B68002B01D10E23DC
:1095900010E07B681B884FF6FF72934201D10823CD
:1095A00008E07B6818887B681B8901221946FFF751
:1095B00081FF034618460837BD4680BD80B582B09E
:1095C00000AF78607B68002B01D10E2310E07B6830
:1095D0001B884FF6FF72934201D1082308E07B6895
:1095E00018887B689B8801221946FFF763FF0346B2
:1095F00018460837BD4680BD80B582B000AF7860A0
:109600007B68002B01D10E2310E07B681B884FF68E
:10961000FF72934201D1082308E07B6818887B68B9
:10962000DB8901221946FFF745FF03461846083734
:10963000BD4680BD80B586B000AF7860396020231C
:10964000FB827B68002B01D10E2327E07B681B88FF
:109650004FF6FF72934201D108231FE0FB8AF42BDF
:1096600001D907231AE007F108030C22002118464C
:109670000FF004FE01233B727B68DB8A7B81FB8A4F
:10968000FB813B683B6101237B727B681B8807F190
:10969000080211461846FFF7A6FB0346184618377E
:1096A000BD4680BDF0B484B000AFF8600B467A6070
:1096B0007B81FB68002B01D10E2320E0FB687A89B7
:1096C0001A807B68002B19D0FA687B68901C03F124
:1096D000200402461946D1F800C04E688D68C9685A
:1096E000C2F800C056609560D16010331030A342BC
:1096F000EFD1024619685B68116053600023184679
:109700001037BD46F0BC704780B584B000AF7860BC
:1097100039603B685B099B007A681A443B6803F038
:109720001F03012101FA03F31946104604F016FE47
:10973000F86000BF1037BD4680BD80B584B000AF73
:10974000786039603B685B099B007A681A443B6823
:1097500003F01F03012101FA03F3DB43194610460E
:1097600004F02EFEF86000BF1037BD4680BD80B407
:1097700083B000AF786039603B685B099B007A6812
:1097800013441A683B6803F01F0322FA03F303F043
:109790000103002B14BF01230023DBB218460C3752
:1097A000BD465DF8047B704780B500AF7C22002188
:1097B00002480FF063FD00BF80BD00BFA49C0020E5
:1097C000B0B58EB000AF786039600023BB603B68F5
:1097D000002B1BD000237B6315E03B46796B1846BA
:1097E000FFF7C5FF0346002B0AD0BB685A1CBA60BE
:1097F0007A6B92B25B0007F138010B4423F82C2CF2
:109800007B6B01337B637B6B132BE6D97B681D4637
:1098100007F108040FCC0FC50FCC0FC594E8070063
:1098200085E8070078683837BD46B0BD80B584B09C
:1098300000AF78600023FB600023BB600DE03B1DA0
:10984000B9681846FFF793FF0346002B02D0FB6868
:109850000133FB60BB680133BB60BB68132BEED9DF
:10986000FB6818461037BD4680BD000080B582B049
:1098700000AF0346FB80FB88132B01D900230AE0CD
:10988000FB8819460648FFF73FFFFB881946054845
:10989000FFF73AFF012318460837BD4680BD00BFD9
:1098A000AC9C0020A89C002080B584B000AF03468B
:1098B000FB800023FB600CE0FB689B00094A13441B
:1098C0000433FA8811461846FFF737FFFB68013367
:1098D000FB60FB681D2BEFD900BF00BF1037BD46F2
:1098E00080BD00BFA49C002080B582B000AF0346BD
:1098F000FB80FB8819460348FFF71FFF00BF0837AE
:10990000BD4680BDAC9C0020B0B59AB000AF1B4BEB
:109910009B68DB433B66194B5A6807F160031146AD
:10992000184604F04DFD3A6E3B4611461846FFF7C7
:1099300047FF07F134043D460FCD0FC40FCD0FC4D0
:1099400095E8070084E8070000237B660CE07B6E47
:109950005B0007F16802134433F8303C1846FFF708
:10996000A3FF7B6E01337B667B6B7A6E9A42EED3EC
:1099700000BF00BF6837BD46B0BD00BFA49C00203B
:1099800080B500AFFFF710FF00BF80BD80B582B08B
:1099900000AF78600B467B8013467B707B78002B92
:1099A00005D07B8819467868FFF7AEFE04E07B8817
:1099B00019467868FFF7C1FE00BF0837BD4680BD75
:1099C00080B584B000AF786039607B689B88FB818C
:1099D0007B681B88103B0A2B79D801A252F823F030
:1099E0000D9A0200459A0200CF9A0200CF9A020017
:1099F000CF9A0200CF9A0200CF9A0200CF9A0200BB
:109A0000CF9A02009F9A02004F9A0200FFF77CFF54
:109A1000FB891846FFF72AFF034683F00103DBB2F8
:109A2000002B05D02C4AF021042002F069FF4BE006
:109A30007B68DB7B022B47D1FB8919462748FFF760
:109A400063FE41E0FB891846FFF74EFF3FE07B686D
:109A50001B7AC3F30313DBB27B737B7B032B8CBFBB
:109A600001230023DAB2FB8919461D48FFF78EFF58
:109A70007B7B022B8CBF01230023DAB2FB891946C2
:109A80001848FFF783FF7B7B012B8CBF012300234A
:109A9000DAB2FB8919461448FFF778FF17E07B68B4
:109AA0001B7A002B12D17B685B7AC3F3C003DBB255
:109AB000002B14BF012300233B733A7BFB8919461B
:109AC0000748FFF763FF01E000BF00E000BF00BFF1
:109AD0001037BD4680BD00BF24CF0300B09C0020DE
:109AE000BC9C0020B89C0020B49C002080B582B0B3
:109AF00000AF094BDB687B60074B9A683B1D114642
:109B0000184604F05DFC7B681846FFF78FFE03469D
:109B100018460837BD4680BDA49C002080B483B0A1
:109B200000AF0346FB7197F90730002B0BDBFB7985
:109B300003F01F02074997F907305B09012000FA7B
:109B400002F241F8232000BF0C37BD465DF8047BCC
:109B5000704700BF00E100E080B483B000AF03466F
:109B6000FB7197F90730002B12DBFB7903F01F0222
:109B70000A4997F907305B09012000FA02F2203305
:109B800041F82320BFF34F8F00BFBFF36F8F00BF9B
:109B900000BF0C37BD465DF8047B704700E100E074
:109BA00080B483B000AF0346FB7197F90730002BF8
:109BB0000CDBFB7903F01F02074997F907305B09BB
:109BC000012000FA02F2603341F8232000BF0C3775
:109BD000BD465DF8047B704700E100E080B483B0CF
:109BE00000AF03463960FB7197F90730002B0ADBA1
:109BF0003B68DAB20C4997F907305201D2B20B44F4
:109C000083F800230AE03B68DAB20849FB7903F0E5
:109C10000F03043B5201D2B20B441A7600BF0C373B
:109C2000BD465DF8047B704700E100E000ED00E018
:109C300032DF704700BF184642DF704700BF18464A
:109C400048DF704700BF184649DF704700BF18461D
:109C50004ADF704700BF184680B483B000AF0346A8
:109C6000FB71FB79054A012101FA03F3C2F80435BF
:109C700000BF0C37BD465DF8047B704700F0014023
:109C800080B483B000AF0346FB71FB79054A012124
:109C900001FA03F3C2F8083500BF0C37BD465DF882
:109CA000047B704700F0014080B483B000AF78605F
:109CB0000E4B1B68002B12D10D4B1A687B681344A6
:109CC0000B4A13600A4B1B680A4A934208D30A4B9B
:109CD0005B690122DA60064B00221A6000E000BFD7
:109CE0000C37BD465DF8047B704700BFD49D002053
:109CF000B49D002080969800B89D002080B582B069
:109D000000AF01210C4804F074FB02460B4BA3FB8F
:109D10000213D9080B469B000B445B00D31A7B60EF
:109D20007A6813465B0013449B00054A13441846A7
:109D30000837BD4680BD00BF989D0020CDCCCCCC5F
:109D4000209D002080B582B000AF274BD3F80C31A6
:109D5000002B44D0244B0022C3F80C21224BD3F813
:109D60000C31224B1B78DBB2012B32D11E4BD3F8C6
:109D7000003403F00103012B2BD11B4BD3F8043526
:109D80007B607B681B68022B25DD786800F03EFD58
:109D90000346FB700121164804F044FBFB78002BBE
:109DA00012D07B681B681A46124B1A607B689B684E
:109DB000114A1360FFF7A2FF78600B4A7B68C2F874
:109DC00004350E4B00221A6001210D4804F02AFBD5
:109DD00002E000BF00E000BF034B01229A6000BF19
:109DE0000837BD4680BD00BF001000400C9E00201B
:109DF000009E0020189E00201C9E0020B49D002084
:109E0000E89D002080B582B000AF0346FB71FB796E
:109E1000042B00F2CB8001A252F823F0319E020005
:109E2000B59E0200459F02004B9F02005B9F02000F
:109E3000654B01225A60644B0122DA60624B0022BA
:109E4000C3F80425604B0022C3F840215E4B00227A
:109E5000C3F844215D4B1B68002B05D05A4B4FF4CF
:109E60008032C3F8042304E0574B4FF44032C3F868
:109E70000423554B4FF4FA72C3F84025524B4FF46C
:109E80009672C3F84425504B0222C3F808254E4B66
:109E900001221A604E4B0122C3F8FC2F0820FFF765
:109EA0003DFE4C4B00221A604B4B00221A6000F022
:109EB00029F983E0444BD3F84031002B1ED0424BAC
:109EC000D3F8043303F48033002B17D03E4B012228
:109ED0005A603D4B0022C3F840213B4BD3F8403140
:109EE00000F0FAF8394B1B68002B05D03B4B1B6880
:109EF0003B4A93603B4B62E03B4B60E0324BD3F814
:109F00004431002B59D0304BD3F8043303F40033E1
:109F1000002B52D02C4B0022C3F844212A4BD3F8FB
:109F200044312C4B1B68314A934205D8274B1B68A0
:109F3000002B01D12E4B42E0244B1B68002B3CD15F
:109F4000294B3CE0FFF7FEFE38E000F0C5F84FF487
:109F50007A70FFF7A9FE244B31E01B4B01225A60B7
:109F6000194B0022C3F84021174B0022C3F84421AB
:109F7000154BD3F84035144A03F2CF33C2F84035BD
:109F8000114BD3F84435104A03F2CF33C2F84435AD
:109F90000D4B01221A600F4B1B6803F57A730D4AB3
:109FA00013604FF47A70FFF77FFE07E0114A4FF419
:109FB000CA71114802F0A4FC00E000BF0F4B184624
:109FC0000837BD4680BD00BF00800040D49D002002
:109FD00000100040A89D0020B09D0020AC9D0020F6
:109FE000988F0020A88F0020B08F00208F08A10735
:109FF000B88F00206CCF030078563412109E0020DA
:10A0000080B582B000AF78602F4B0022C3F80C25DA
:10A010002D4B0122C3F810252B4B0122C3F85026EB
:10A02000294B0322C3F83425274B6FF07F42C3F836
:10A030003C25254B254AC3F83825234B0022C3F87D
:10A040001425214B224AC3F818251F4A7B68C2F801
:10A050000435204B5A781C4BC3F824251D4B9B78A4
:10A060001A061C4BDB781B041A431A4B1B791B0284
:10A070001343184A52791A43134BC3F81C25124B49
:10A080000022C3F82C25104B0122C3F83025114BB8
:10A090001A780D4BC3F808250B4B0422C3F80C2586
:10A0A000094B0022C3F80C21074B4FF0FF32C3F8D5
:10A0B0000823054B0822C3F804230120FFF72EFDD7
:10A0C00000BF0837BD4680BD0010004021100100D0
:10A0D0000C0C0401B89D002080B500AF074B012295
:10A0E0001A61064B4FF0FF32C3F8082300F09EFDC3
:10A0F000034B00221A7000BF80BD00BF001000405B
:10A100000C9E002080B582B000AF334B00221A6055
:10A11000324B1B68002B1CD1314B1B78DBB2012B5F
:10A1200004D1304BD3F85035032B50D0FFF7E6FD68
:10A1300078607868FFF764FF2A4B0122C3F8002299
:10A14000284B01225A6000F083FC254B01221A7033
:10A150003DE0234B1B78DBB2012B0DD1214B0022BC
:10A16000C3F810211F4B01221A6100E000BF1D4BF4
:10A17000D3F81031002BF9D0FFF7C0FD786000F064
:10A1800099FC7868FFF73CFF164B0322C3F80022C6
:10A19000144B01221A6000E000BF124BD3F80031CB
:10A1A000002BF9D0104BDB68D3F844351A467B6896
:10A1B0001A600D4B1B69D3F844257B689A60012116
:10A1C0000A4804F02FF9064B02221A7000E000BF83
:10A1D0000837BD4680BD00BFA89D0020D49D00204B
:10A1E0000C9E002000100040B89D0020009E002022
:10A1F00080B588B000AF786039607B68023B062B81
:10A2000000F2918001A252F823F000BF41A30200A6
:10A2100041A3020029A2020029A20200ABA202006F
:10A22000F3A20200CFA202004A4B1B68002B40F0B1
:10A230008980494B1B68002B21D0484B1B68042B9D
:10A240001DD8464B1B680133444A1360434B1B68BF
:10A250000233434A126802FB03F3424A93604148C7
:10A26000FFF7F6FC78617B693B613B69002B16D0F8
:10A270003D4A40F22A21386902F042FB0FE03B4898
:10A28000FFF7E6FCF860FB68BB60BB68002B07D0FB
:10A29000354A40F22F21B86802F032FB00E000BFDF
:10A2A0000121334804F0BEF84CE0324A324BD31A55
:10A2B000DB081B0443F001033049184601F07CFB26
:10A2C000294A4FF40E712E4802F01AFB3DE02D484A
:10A2D00004F001F91F4804F0FEF8264A264BD31A71
:10A2E000DB081B0443F003032749184601F064FB15
:10A2F0002BE0204A204BD31ADB081B0443F0030356
:10A300002249184601F058FBFFF79EFCF861FB69F3
:10A31000BB61BB69002B17D0134A4FF41171B869A8
:10A3200002F0EEFA10E0134A134BD31ADB081B04B9
:10A3300043F003037A681649184601F04CFB04E029
:10A3400000BF02E000BF00E000BF00BF2037BD46F5
:10A3500080BD00BFA09D0020D49D0020B09D0020A6
:10A36000AC9D0020988F00206CCF0300888F0020C8
:10A37000A49D0020ECF503002CF503008CCF030016
:10A38000785634129C9D0020BCCF0300DCCF030024
:10A39000FCCF030080B400AF0F4B1B6901225A6051
:10A3A0000D4B1B690122DA600B4B1B690022C3F8BD
:10A3B0001025094B1B690122C3F80425064B1B69B4
:10A3C0000322C3F80825044B1B6901221A6000BF51
:10A3D000BD465DF8047B7047B89D002080B400AF97
:10A3E0001B4BDB6801225A60194BDB680122DA60E3
:10A3F000174BDB680022C3F81025154BDB680322DE
:10A40000C3F80825124BDB6849F64042C3F84025E3
:10A410000F4BDB684FF0FF32C3F844250C4BDB6871
:10A420004FF0FF32C3F84825094BDB684FF0FF328D
:10A43000C3F84C25064BDB680122C3F80022044B0D
:10A44000DB6801221A6000BFBD465DF8047B7047DF
:10A45000B89D002080B582B000AF78603960174B9E
:10A460001B68002B01D1082323E0386800F006FCAC
:10A470000346002B01D007231BE00021104803F006
:10A480003CFF00210F4803F038FF0F4BD3E90023B6
:10A4900011460E4B1B697A68521AC3F85025796829
:10A4A0000B4803F02AFF094B9B7A1846FFF7D4FBB1
:10A4B000002318460837BD4680BD00BF9C9D002084
:10A4C000009E0020049E0020E09D0020B89D0020FA
:10A4D000FC9D00202DE9B04FA4B000AFB04BD3F8E5
:10A4E0000031002B43D0AF4B1B689A68AE4B1B6802
:10A4F000D31A002218461146AC4BC3E900010121D2
:10A50000AB4803F08FFFA84B1968A84BD3E9002391
:10A510001346CB1A1946A74803F0EFFEA64BDA689C
:10A520000023C2F84835A54803F0D5FF9C4A002314
:10A53000C2F80031A24B1B7883F00103DBB2002B81
:10A5400015D09F4A012313709E4B1B68002B0ED021
:10A5500007F168020023136053609360D3601361B6
:10A560005361984B1A6807F16803184690478C4B63
:10A57000D3F80831002B2ED0894A0023C2F80831C5
:10A580008D4B9B7A1846FFF77BFB8E4B1B68002B8D
:10A5900021D007F150020023136053609360D36011
:10A5A00013615361022387F85030874B1B68BB65EA
:10A5B000804B1B68FB65854B1B689BB2A7F860301E
:10A5C0007B4B1B689BB2A7F862307E4B1A6807F181
:10A5D000500318469047724BD3F80C31002B20D013
:10A5E0006F4A0023C2F80C31754B1B78002B18D032
:10A5F000734A00231370734B1B68002B11D007F1B3
:10A6000038020023136053609360D3601361536179
:10A61000012387F838306B4B1A6807F13803184666
:10A6200090475F4BD3F81031002B03D05C4A0023D6
:10A63000C2F810315A4BD3F81431002B00F0DE80F1
:10A64000574A0023C2F814315B4B1B69D3F85435C9
:10A65000C7F88C30584BDB68D3F85435052B17D925
:10A66000554BDB68D3F8542549F640439A420FD046
:10A67000514BDB68D3F84835002B1BD04E4BDB68C1
:10A68000D3F854254C4BDB68D3F848359A4211D1A6
:10A69000494B1A6901235365474B1B69D3F854256D
:10A6A000D7F88C30934205D0434B1B69D3F854350F
:10A6B000C7F88C30D7F88C3000223B617A61D7E93B
:10A6C0000423C7E92023394BD3E900231046194658
:10A6D000D7E92023141843EB0105C7E92045D7E942
:10A6E000200102460B464FF000044FF000059D008C
:10A6F00045EA9275940022462B4612EB000A43EB82
:10A70000010B4FF000024FF000034FEACB0343EA86
:10A710005A734FEACA0292469B46BAEB00086BEBAB
:10A7200001094FF000024FF000034FEA091343EA1A
:10A7300018734FEA08129046994618EB0003BB6065
:10A7400049EB0103FB604FF000024FF00003D7E933
:10A75000024529468B01214643EA916321468A013D
:10A760001C461346C7E92034134BDB68D3F8543535
:10A770000022BB61FA61D7E92023D7E906452146CB
:10A7800051183960294643EB01017960D7E900345B
:10A79000C7E920340B4B1B68002B2FD018E000BFFB
:10A7A00000700140EC9D0020F49D0020E09D002001
:10A7B000049E0020089E0020B89D0020D89D002007
:10A7C000DC9D0020F89D0020FC9D0020009E0020C4
:10A7D00007F1200300221A605A609A60DA601A6159
:10A7E0005A61032387F82030D7E92023C7E90A23D9
:10A7F000054B1B6807F120021046984700BF9037B1
:10A80000BD46BDE8B08F00BFF89D002080B588B080
:10A8100000AF78600023FB76444B1B68002B01D00F
:10A8200000237FE07B681B68FB61FB6903F2D313A5
:10A83000FB61FB6949F6404293420BD9FB69A3F5E2
:10A840001C43403BFB617B689B685A1C7B689A6099
:10A850000123FB76364BDB68D3F844357B617A699C
:10A86000FB69D31A3B613B69002B04D03B6949F675
:10A870004042934205D101212E4803F0D3FD00232D
:10A8800050E0FB7E002B06D07B6949F60D429342D7
:10A8900001D9002346E03B69002B0BDA3B6903F545
:10A8A0001C434033224AD268C2F84835012000F0E8
:10A8B0004BF807E01E4BDB683A69C3F848250020D7
:10A8C00000F042F81A4BDB68D3F8483549F63F42AE
:10A8D000934294BF01230023DBB2FB60FB68002B93
:10A8E00005D1154A40F25331002002F009F80F4813
:10A8F00003F0D7FD7B681946104803F0E6FC0C4BCB
:10A90000DB68D3F8443519460D4803F0F6FC084BD4
:10A910001B69D3F8443519460A4803F0EEFC00F0F1
:10A920009BF9012318462037BD4680BDD89D0020E5
:10A93000B89D0020049E00206CCF0300EC9D0020F9
:10A94000F09D0020F49D002080B487B000AF034646
:10A95000FB713D4B9B797B613B4BDB793B613A4B18
:10A96000DB7AFB6001227B699A40384BC3F80825EB
:10A97000354BDB6803F5A473344A19467B69A2336F
:10A9800042F83310304BDB680C33304A19467B6990
:10A99000A233DB0013445960FB79002B0AD02A4B09
:10A9A0001B690833294A19467B6903F5117342F87C
:10A9B000231006E0254A7B6903F51173002142F854
:10A9C000231001223B699A40204BC3F808251E4BF7
:10A9D000DB6803F5A4731D4A19463B69A23342F8AC
:10A9E0003310FB68DB00043303F1804303F5F833D5
:10A9F000164A19463B69A233DB0013445960124BD7
:10AA00005B69124A19463B6903F5117342F823103A
:10AA10000E4AFB68DB00134401225A6001227B6965
:10AA20009A4001213B6901FA03F31343074A19468F
:10AA3000FB6803F5007342F8231000BF1C37BD46C6
:10AA40005DF8047B704700BFB89D002000F0014016
:10AA500080B483B000AF144B1B7A7B60134A7B68D1
:10AA6000A233134942F833100F4BDB6844330F4ACB
:10AA700019467B68A233DB00134459600A4B1B69FB
:10AA800044330A4A19467B6803F5117342F82310D0
:10AA900001227B689A40054BC3F8042500BF0C37A0
:10AAA000BD465DF8047B7047B89D002000F0014072
:10AAB0000411004080B483B000AF144B9B797B60DD
:10AAC000134A7B68A233134942F833100F4BDB68FB
:10AAD00044330F4A19467B68A233DB0013445960A4
:10AAE0000A4B1B6944330A4A19467B6803F5117304
:10AAF00042F8231001227B689A40054BC3F80425D5
:10AB000000BF0C37BD465DF8047B7047B89D002040
:10AB100000F001400011004080B483B000AF154B3D
:10AB20005B7A7B60134BDB6803F5A073124A19460E
:10AB30007B68A23342F833100E4B1B6908330E4A70
:10AB400019467B68A233DB00134459600A4A7B68CC
:10AB500003F51173002142F8231001227B689A400B
:10AB6000054BC3F8042500BF0C37BD465DF8047BD8
:10AB7000704700BFB89D002000F0014080B483B052
:10AB800000AF7860144B5B6903F58273134A194672
:10AB90007B68A23342F833100F4BDB684C330F4A0B
:10ABA00019467B68A233DB00134459600A4B1B69CA
:10ABB00040330A4A19467B6803F5117342F82310A3
:10ABC00001227B689A40054BC3F8042500BF0C376F
:10ABD000BD465DF8047B7047B89D002000F0014041
:10ABE00080B483B000AF786001227B689A400E4B3E
:10ABF000C3F808250C4A7B68A233002142F83310C1
:10AC0000094A7B68A233DB00134400225A60064ADB
:10AC10007B6803F51173002142F8231000BF0C3745
:10AC2000BD465DF8047B704700F0014080B483B0FE
:10AC300000AF074B1B7A7B6001227B689A40054B73
:10AC4000C3F8082500BF0C37BD465DF8047B70478C
:10AC5000B89D002000F0014080B400AF054B064ACB
:10AC6000D27A1146012243F8312000BFBD465DF87B
:10AC7000047B704700F00140B89D002080B584B08F
:10AC800000AF78600E4B987A0D4B1B6903F5A873E3
:10AC90007A681946FDF7F8FEF860FB68002B01D0D2
:10ACA000FB6809E0064B9A7A054B5B690833194645
:10ACB0001046FDF71FFF034618461037BD4680BDFE
:10ACC000B89D002080B58AB000AFF860B9607A60A6
:10ACD000384803F0D9FB0346002B0AD000237B62DF
:10ACE0007B6A002B05D1344A40F2EA31002001F0A2
:10ACF00007FE07F117031846FDF748FE38623B6A66
:10AD0000002B0CBF01230023DBB2FB61FB69002B8E
:10AD100005D1294A40F2EF31002001F0F1FDFB7D21
:10AD20001846FFF72BFF254B93F918301846FEF70E
:10AD300013FF224B5B690022C3F804211F4B5B69A0
:10AD400001225A6000E000BF1C4B5B69D3F804315C
:10AD5000002BF8D01A4BD3E900231346BB61174BE5
:10AD600093F918301846FEF7D9FE144BDB68D3F878
:10AD70004C35012BD7D9FB7D1846FFF731FFFB7D02
:10AD80001846FDF755FE0D4BDB68D3F84C25FB68E4
:10AD90001A600A4B1B69D3F84025BB681A60BA6970
:10ADA0007B681A60034803F096FB00BF2837BD4656
:10ADB00080BD00BF209E00206CCF0300B89D002006
:10ADC000E09D002080B584B000AF78607B681B6890
:10ADD000002B0BD07B685B68002B07D07B689B68DF
:10ADE000002B03D07B681B69002B01D1072339E0BE
:10ADF0007B68082219461D480EF032FA7B689B6872
:10AE00001B4A53617B6893F90C20194B1A767B68B7
:10AE10001B69184A13601848FDF7EFFEB860BB685D
:10AE2000002B01D003231DE00023FB600FE0FB6833
:10AE30000F4A134406331846FDF7A8FDB860BB68F7
:10AE4000002B01D003230DE0FB680133FB60FB689E
:10AE5000042BECD9064B5B69084A934201D00723C7
:10AE600000E0002318461037BD4680BDC49D002079
:10AE7000B89D0020F89D0020C39D00200070014077
:10AE800080B584B000AF78607B68002B03D07B680E
:10AE90000133002B01D1072367E0364B1B68002BE1
:10AEA00001D0082361E0FEF7C7FEF860FB68002BC5
:10AEB00001D0FB6859E00020FEF7BAFE0246FB68AD
:10AEC0001343FB60FB68002B01D0FB684DE07B68FF
:10AED00001330522194628480EF0C2F97B681A781A
:10AEE000264B1A702648FEF7ABFEF860FB68002B75
:10AEF00001D0FB6839E02348FEF7AAFEF860FB6842
:10AF0000002B01D0FB6830E0FFF706FE1B4B93F9E6
:10AF100018301846FEF744FE184B93F918300721F5
:10AF20001846FEF75BFE154B93F918301846FEF7EE
:10AF3000F5FD124B5B694FF0FF32C3F808230F4B4E
:10AF40005B693D22C3F804230F4B00221A600F4BAC
:10AF500000221A700E4803F0BEFAFFF71BFAFFF743
:10AF60003DFA044803F09DFA002318461037BD4609
:10AF700080BD00BF9C9D0020B99D0020B89D002091
:10AF8000059E0200888F0020A49D00200C9E0020BA
:10AF9000D49D00202DE9B04F90B000AF07F12C02F6
:10AFA00007F1300107F134031846FFF78BFE3B6BC6
:10AFB0000022BB61FA61D7E90623C7E90E23FB6AC9
:10AFC000DA171C461546D7E90E23111939616B4172
:10AFD0007B61D7E90434C7E90E34D7E90E01024694
:10AFE0000B464FF000044FF000059D0045EA9275B6
:10AFF000940022462B4612EB000A43EB010B4FF064
:10B0000000024FF000034FEACB0343EA5A734FEAC2
:10B01000CA0292469B46BAEB00086BEB01094FF05F
:10B0200000024FF000034FEA091343EA18734FEA96
:10B0300008129046994618EB0003BB6049EB0103E8
:10B04000FB604FF000024FF00003D7E902452946AC
:10B050008B01214643EA916321468A011C4613462F
:10B06000C7E90E347B6B00223B627A62D7E90E237C
:10B07000D7E90845214651183960294643EB0101BB
:10B080007960D7E90034C7E90E34D7E90E231046BA
:10B0900019464037BD46BDE8B08F00000649074A53
:10B0A000074B9B1A03DD043BC858D050FBDC04F06F
:10B0B000EBFEFBF7C9F8000014F70300888F0020AF
:10B0C000B89B0020FEE7FEE7FEE7FEE7FEE7FEE7AF
:10B0D000FEE7FEE7FEE7FEE780B584B000AF7860EC
:10B0E0007B68002B0AD0074B43F00103FB607B68B1
:10B0F0009B01BB60FB68B868984700E000BF103751
:10B10000BD4680BD20D0030080B582B000AF78601E
:10B110007B68002B0AD04FF47A70FFF7DDFF7B6865
:10B12000013B7B607B68002BF5D100E000BF083756
:10B13000BD4680BD80B500AF0AF0C6FF00BF80BD30
:10B1400080B588B000AFF860B9607A607B68002B8A
:10B1500033D00023FB610323BB61BA68FB6913444E
:10B160007A68194600200AF05FFF7861FA697B6906
:10B170001344FB617A687B69D31A7B607B69002B7F
:10B1800013D1104B1B7883F00103DBB2002B13D1DA
:10B190000120FFF7B9FFBB69013BBB61BB69002B15
:10B1A00003D1084B00221A7007E0064B01221A70E7
:10B1B0007B68002BD1D100E000BF00BF2037BD4627
:10B1C00080BD00BF249E002080B584B002AF7860AF
:10B1D0003960064B00934023054A3968786800F0CF
:10B1E0001DF800BF0837BD4680BD00BF41B1020059
:10B1F000289E002080B483B000AF786000BF0C3779
:10B20000BD465DF8047B704780B483B000AF7860C2
:10B2100000BF0C37BD465DF8047B704780B5A0B019
:10B2200002AFF860B9607A603B60B86803F020FE56
:10B230007B68FB643B683B6500237B65002387F8E4
:10B2400058300023FB65D7F880303B6600237B67CE
:10B2500007F134017B6F0822B86803F0CDFE0823A4
:10B260007B67FB6B3B643B8FA7F844307B8FA7F871
:10B270004630012387F8493097F8343003F0030350
:10B28000DBB2012B29D17B6BC3F39523BB6697F807
:10B290003430C3F3C203DBB287F84830BB8EC3F34C
:10B2A0008313DBB27B667B6E9A0007F11C017B6F18
:10B2B000B86803F0A1FE7B6E9B007A6F13447B6736
:10B2C00007F1400207F11C0107F14C0300931346FC
:10B2D0007A6EB86E00F008FF32E097F8343003F071
:10B2E0000303DBB2022B2BD1FB8EC3F389139BB27A
:10B2F0003B6797F83430C3F3C203DBB287F84830BA
:10B300003B6F082B28BF0823FB6607F114017B6FF6
:10B31000FA6EB86803F070FE7A6FFB6E13447B67B9
:10B320003A6FFB6ED31A3B6707F14C0307F14002FB
:10B3300007F11400F96E00F079FF3B6F002BDFD1AD
:10B34000B86803F0A5FD00BF7837BD4680BD80B466
:10B3500083B000AF78607B68DB6801225A7100BF60
:10B360000C37BD465DF8047B7047000080B582B0A5
:10B3700000AF4FF0FF337B60FFF7DCFE0421054890
:10B3800000F0C4FD78600348FFF7E1FF00BF083715
:10B39000BD4680BDFCF6030080B582B000AF78608A
:10B3A00039607B681B681B6839687868984700BFFC
:10B3B0000837BD4680BD80B582B000AF78607B683D
:10B3C0001B685B687868984700BF0837BD4680BD3A
:10B3D00080B582B000AF78607B681B689B68786836
:10B3E000984700BF0837BD4680BD80B483B000AF2A
:10B3F00078600B46FB707B68DB68FA781A7100BFD7
:10B400000C37BD465DF8047B704780B483B000AF55
:10B4100078607B68DB681B7918460C37BD465DF8A1
:10B42000047B704780B483B000AF78607B68DB68D2
:10B4300001225A7100BF0C37BD465DF8047B70478E
:10B4400080B483B000AF78607B68DB685B791846B6
:10B450000C37BD465DF8047B7047000080B584B0B2
:10B4600000AF786039600C4B00221A700B4803F073
:10B4700065FCF860FB68002B01D0FB6808E0084819
:10B4800004F0DDF8074A084BD31ADB08BB60002341
:10B4900018461037BD4680BDD09F0020F4F503004C
:10B4A00038D00300F4F503002CF5030080B400AF9E
:10B4B000044A054BD31ADB081846BD465DF8047BE9
:10B4C000704700BFF4F503002CF5030080B586B08B
:10B4D00000AF78600B46FB70FB78002B1FD0FFF7A6
:10B4E000E5FF386100237B6113E07B699B000E4A16
:10B4F0001344FB60FB681B881A467B681B689A42F2
:10B5000004D17B687A691A60002309E07B69013302
:10B510007B617A693B699A42E7D3052300E0002307
:10B5200018461837BD4680BDB89B002080B584B052
:10B5300000AF78600B46FB70FA783B1D1146184649
:10B54000FFF7C4FF0346002B07D17B68DB00054AE9
:10B550001344FB60FB681B6800E0002318461037AB
:10B56000BD4680BD2CF5030080B485B000AF786087
:10B570000B46FB707B68DB00144A1344BB60FB780E
:10B58000013B032B18D801A252F823F09DB502000D
:10B59000A3B50200A9B50200B1B502000223FB73F6
:10B5A0000DE00423FB730AE0BB681B79FB7306E024
:10B5B000BB685B79FB7302E00023FB7300BFFB7B7E
:10B5C00018461437BD465DF8047B70472CF5030020
:10B5D00080B485B000AF786039600023FB737B686E
:10B5E0001B7803F00403DBB2002B23D07B681B78AD
:10B5F000C3F30103DBB2012B02D0022B0CD017E006
:10B600003B681B687A681288C2F38312D2B2134473
:10B610009A1C3B681A600BE03B681B687A6852888A
:10B62000C2F3891292B213449A1C3B681A6000BF9D
:10B630000123FB73FB7B18461437BD465DF8047B82
:10B640007047000080B58AB000AF0023FB84384803
:10B6500002F027FF374802F024FF374B9B683B611D
:10B66000364B1B68BB613A69BB69134002339B00D0
:10B67000314A134404333B6207F110031946386A18
:10B68000FFF7A6FF0346002B09D03A69BB691340B8
:10B6900002339B00284A134404333B62ECE700BFAB
:10B6A0000023FB6111E03B695A1C3A61BA691340FF
:10B6B000FA699200391D0A441F4902339B000B446A
:10B6C0005B681360FB690133FB61FB69012BEAD9FD
:10B6D0003B79C3F30103DBB2012B0DD0022B16D152
:10B6E0007B89FB84FB88C3F389139BB203339A08DD
:10B6F0003B6913443B610BE07B89FB84BB88C3F34C
:10B700008313DBB21A463B6913443B6100E000BF80
:10B71000084802F0D3FE78617B69002B02D03B69B8
:10B72000054A9360FB8C18462837BD4680BD00BF94
:10B73000E8A30020E4A30020D09F0020C88F0020B1
:10B7400080B584B000AF0021074802F0BEFDF8606C
:10B75000FB68BB60BB6883F310037B607B681846A3
:10B760001037BD4680BD00BFECA3002080B588B077
:10B7700000AFF860B9607A603B60FB681B0CBB618E
:10B78000FFF7DEFFF861FB6919043B685A1CBB6ACE
:10B790001340BA690A431B4902339B000B445A60A9
:10B7A0003A68BB6A134002339B00164A13440433C1
:10B7B0007B61FB6803F00703D9B27A69137861F300
:10B7C000C50313707B6803F00F03D9B27A6913883D
:10B7D00061F389131380BB68C3F315017A69136899
:10B7E00061F39F2313607A691378012161F30103E8
:10B7F00013707A6913786FF38203137000BF2037D8
:10B80000BD4680BDD09F002080B58CB000AFF860F1
:10B81000B9601346FB71FB680233BB62012387F8F2
:10B8200027300023FB7607F11B03184602F08AF845
:10B83000384B5A68BB681A60374B1A68354B9968A1
:10B84000344B5B68CB1A13440133FB6214E00121D3
:10B85000324802F0E7FDFFF7F5FEF861F9692F487D
:10B8600002F0E0FD2C4B1A682A4B9968294B5B6863
:10B87000CB1A13440133FB62BA6AFB6A9A42E6D8D8
:10B8800097F82730002B3BD000237B61FB79002BFE
:10B8900011D03B7D012262F301033B753B7D43F0F8
:10B8A00004033B75FB6803F00F03DAB2BB8A62F353
:10B8B0008913BB8210E03B7D022262F301033B75DA
:10B8C0003B7D43F004033B75FB68C3F309039AB265
:10B8D000FB8A62F38F13FB820E4B5A680E4B1B6878
:10B8E000134002339B000B4A134404333B627A69D2
:10B8F0003B6A1A60074B5A68BB6A1344054A536097
:10B90000FB7E184602F029F897F8273018463037A2
:10B91000BD4680BDD09F0020C88F0020ECA3002032
:10B9200080B58AB002AFF860B9607A603B60204BA6
:10B930001B687B6107F11003012219463868FFF785
:10B9400063FF0346002B24D03B690233FB610023D5
:10B95000BB6111E0BB699B007A681A44FB69591C02
:10B96000F96179690B401268124902339B000B445C
:10B970005A60BB690133BB61BA693B689A42E9D33B
:10B980003A697B69009313463A68B968F868FFF72B
:10B99000EDFE084B1B78002B05D000BF00F0C2F86D
:10B9A0000346002BFAD100BF2037BD4680BD00BF43
:10B9B000C88F0020D09F002080B582B000AF786093
:10B9C00039600023002239687868FFF7A9FF00BFBB
:10B9D0000837BD4680BD80B586B000AFF860B9605D
:10B9E0007A607B687B6107F114020123B968F8680B
:10B9F000FFF796FF00BF1837BD4680BD80B586B003
:10BA000000AFF860B9607A603B607B683B613B687F
:10BA10007B6107F110020223B968F868FFF780FF25
:10BA200000BF1837BD4680BD80B588B000AFF86054
:10BA3000B9607A603B607B687B613B68BB61BB6AD5
:10BA4000FB6107F114020323B968F868FFF768FF88
:10BA500000BF2037BD4680BD80B588B000AFF8601C
:10BA6000B9607A603B607B683B613B687B61BB6A25
:10BA7000BB61FB6AFB6107F110020423B968F86837
:10BA8000FFF74EFF00BF2037BD4680BD80B58AB0AE
:10BA900000AFF860B9607A603B607B687B613B68AF
:10BAA000BB613B6BFB617B6B3B62BB6B7B6207F1FA
:10BAB00014020523B968F868FFF732FF00BF283782
:10BAC000BD4680BD80B58AB000AFF860B9607A60CD
:10BAD0003B607B683B613B687B613B6BBB617B6B25
