:020000022000DC
:10600000000001202D06030055060300570603007B
:10601000590603005B0603005D0603000000000054
:106020000000000000000000000000005F06030008
:10603000610603000000000063060300650603001C
:10604000B9600300B5F20200157103006706030092
:1060500067060300670603001D7003006706030060
:106060003DAA020059AA02006706030035A50200F6
:106070006706030067060300670603006706030060
:106080006706030015360300670603006706030072
:10609000670603006706030025BF030035FA020008
:1060A0006706030067060300670603006706030030
:1060B0006706030067060300000000000000000000
:1060C0006706030067060300670603006706030010
:1060D0004DA50200670603006706030000000000EC
:1060E00000000000000000000000000000000000B0
:1060F00000000000000000000000000000000000A0
:10610000000000000000000000000000000000008F
:10611000000000000000000000000000000000007F
:10612000000000000000000000000000000000006F
:10613000000000000000000000000000000000005F
:10614000000000000000000000000000000000004F
:10615000000000000000000000000000000000003F
:10616000000000000000000000000000000000002F
:10617000000000000000000000000000000000001F
:10618000000000000000000000000000000000000F
:1061900000000000000000000000000000000000FF
:1061A00000000000000000000000000000000000EF
:1061B00000000000000000000000000000000000DF
:1061C00000000000000000000000000000000000CF
:1061D00000000000000000000000000000000000BF
:1061E00000000000000000000000000000000000AF
:1061F000000000000000000000000000000000009F
:1062000010B5054C237833B9044B13B10448AFF3F0
:1062100000800123237010BDD89B002000000000E7
:106220000C40040008B5034B1BB103490348AFF30E
:10623000008008BD00000000DC9B00200C40040032
:10624000A3F5803A704700BF174B002B08BF134BD4
:106250009D46FFF7F5FF00218B460F461348144A71
:10626000121A16F049F90E4B002B00D098470D4B2F
:10627000002B00D098470020002104000D000D489D
:10628000002802D00C48AFF3008016F0F3F820008D
:10629000290012F031FA16F0D9F800BF000008000A
:1062A000000000000000000000000120D89B00203A
:1062B000E8DF0020000000000000000080B483B090
:1062C00000AF0346FB714FF08042FB79C2F82035E6
:1062D00000BF0C37BD465DF8047B704780B500AF4A
:1062E000064A074BD31ADB081B0443F00303054996
:1062F00018460AF029FE00BF80BD00BF6C400400B4
:106300002C400400DC01040080B582B000AF0346DD
:106310003960FB71FB79032B05D1A920FFF7CEFF74
:1063200000200EF063FA00BF0837BD4680BDB0DF25
:10633000704700BF184666DF704700BF184680B53B
:1063400084B000AF78607B681B7A002B18D07B6824
:106350005B8800211846FFF7EEFFF860FB68002B12
:1063600003D17B6800221A720AE0FB68112B03D16B
:106370007B6801221A7203E07B685B68F8689847C3
:1063800000BF1037BD4680BD80B582B000AF7860D9
:1063900039603B681B79012B0BD13B681A887B68FD
:1063A0005B889A4205D17B6801221A727868FFF7F0
:1063B000C6FF00BF0837BD4680BD80B483B000AFC4
:1063C0007860396000BF0C37BD465DF8047B7047CC
:1063D00080B588B000AF786039603B681A887B6808
:1063E0005B889A4235D13B680233FB61FB691B78BD
:1063F000022B30D1FB691B7A042B07D0FB691B7A77
:10640000062B03D0FB691B7A052B26D107F1080365
:1064100000221A605A609A60DA6002233B724FF4DD
:10642000C073BB81FB691B7A052B01D10023BB81A3
:106430003B681B8807F1080211461846FFF777FFF3
:10644000B861BB69002B09D07B685B68B869984765
:1064500004E000BF02E000BF00E000BF2037BD46FF
:1064600080BD80B584B000AF786039603B68002B98
:1064700040D07B68002B3FD03B68FB60FB681B78FB
:10648000DE2B3BD17B689A88FB685B889A4202D1FD
:10649000F868FFF754FF7B681B88512B18D0512BED
:1064A0002EDC112B1BD0112B2ADC012B02D0022B4E
:1064B00007D025E07B6804331946F868FFF764FFCE
:1064C00021E07B6804331946F868FFF776FF1AE08D
:1064D0007B6804331946F868FFF77AFF13E07B689E
:1064E0009A88FB685B889A420CD1FB684FF6FF7272
:1064F0005A8007E000BF06E000BF04E000BF02E0F2
:1065000000BF00E000BF1037BD4680BD72DF70479E
:1065100000BF184673DF704700BF184680B483B0D1
:1065200000AF78607B6893F8303418460C37BD466E
:106530005DF8047B704780B485B000AF78600023BD
:10654000FB600AE07A68FB6813441B78002B01D0DB
:10655000012306E0FB680133FB60FB68052BF1D9E2
:10656000002318461437BD465DF8047B70470000D1
:1065700080B483B000AF0346FB71FB795A1C084B13
:1065800083FB02135910D317C91A0B469B000B4407
:10659000D11ACBB218460C37BD465DF8047B704764
:1065A0006766666680B483B000AF786039603B6828
:1065B000DB7B012B04D13B689A887B68A3F82424F9
:1065C00000BF0C37BD465DF8047B704780B584B0D2
:1065D00000AF786039607B68002283F82E243B6826
:1065E0009A887B68B3F824349A4216D17B681B7969
:1065F00083F00103DBB2002B0FD00121786800F09B
:10660000BDF9F860FB68002B07D07B689B6B002B03
:1066100003D07B689B6BF868984700BF1037BD4676
:1066200080BD80B584B000AF786039603B681B885E
:10663000262B1ED13B681B7A012B03D03B681B7AAB
:10664000022B17D17B689B781846FFF791FF034612
:106650001946786800F092F9F860FB68002B09D0C1
:106660007B689B6B002B05D07B689B6BF868984719
:1066700000E000BF1037BD4680BD000080B584B08B
:1066800000AF78600B46FB707B6803F22743184627
:10669000FFF751FF0346FB73FB78013B032B31D817
:1066A00001A252F823F000BFB9660200DB660200C7
:1066B000ED660200F96602007B689B79002B0CD026
:1066C0007B6893F8243083F00103DBB2002B04D005
:1066D000FB7B002B01D0012315E07B68DB79002BCD
:1066E00004D0FB7B002B01D002230CE07B681B7ADB
:1066F000002B01D0032306E07B685B7A002B01D0DE
:10670000042300E0002318461037BD4680BD00BFBB
:1067100080B483B000AF786039607B68012283F871
:1067200031207B680022C3F820247B6803F22642D4
:106730003B685A603B6800229A603B6802221A70EC
:106740003B6880229A81002318460C37BD465DF8CD
:10675000047B704780B483B000AF786039607B6899
:10676000022283F831207B6893F82430002B03D079
:106770003B6807221A7002E03B6803221A707B68AC
:106780001B699AB23B689A817B680022C3F8202477
:106790007B6803F226423B685A607B68DA683B6894
:1067A0009A60002318460C37BD465DF8047B70479D
:1067B00080B582B000AF78607B685B79002B0FD02A
:1067C0007B6893F82E3483F00103DBB2002B07D0F3
:1067D0007868FFF7A3FE0346002B01D0012300E0F9
:1067E000002303F00103DBB218460837BD4680BD25
:1067F00080B584B000AF78600B46FB707B68D3F83F
:1068000010047B68B3F814340122194612F079F9A8
:10681000F860FB68002B02D0FB68FA781A707B687E
:1068200003F154007B6803F582617B683C331A46B0
:10683000FFF76CFE034618461037BD4680BD80B595
:1068400084B000AF786039607B685A693B689A60B1
:106850007B689B699AB23B689A817B6893F8243085
:10686000002B04D07B68062283F83C2003E07B6881
:10687000012283F83C207868FFF79AFF0346002B3B
:1068800013D03B6802221A7504217868FFF7B0FF25
:10689000F860FB68BB60BB68002B01D0BB680FE0F1
:1068A0007B68052283F8312003E07B68032283F8AC
:1068B00031207B6803F582627B68C3F820240023C3
:1068C00018461037BD4680BD80B584B000AF7860F3
:1068D00039607B68DA693B689A607B681B6A9AB2A8
:1068E0003B689A817B6893F82430002B04D07B6846
:1068F000062283F83C2003E07B68012283F83C20D9
:106900007868FFF755FF0346002B13D03B6802223F
:106910001A7504217868FFF76BFFF860FB68BB60AD
:10692000BB68002B01D0BB680FE07B68062283F8B0
:10693000312003E07B68042283F831207B6803F573
:1069400082627B68C3F82024002318461037BD46B6
:1069500080BD80B483B000AF78607B681B68012B7A
:1069600003D07B681B68022B01D1012300E00023C8
:1069700018460C37BD465DF8047B704780B584B07F
:1069800000AF78600B46FB707B681B7883F00103D7
:10699000DBB2002B01D0082307E17B68FA789A70FC
:1069A0007B6803F2264307220021184615F0A4FD58
:1069B0007B689B79002B03D07B689B78012B0FD0E1
:1069C0007B68DB79002B03D07B689B78012B07D099
:1069D0007B68DB79002B14D07B689B78022B10D16D
:1069E0007B685B6B002B08D07B68012283F82D2429
:1069F0007B685B6B0820984703E07B68002283F884
:106A00002D24FB7819467868FFF738FE03461A46AE
:106A10007B689A707B685B6B002B20D07B689B78CF
:106A2000032B03D07B689B78042B18D17B685B79A0
:106A3000002B14D07B6893F82E3483F00103DBB273
:106A4000002B0CD07B68002283F830247B68012265
:106A500083F82F247B685B6B0720984703E07B68F3
:106A6000002283F82F247B683C331822002118462B
:106A700015F042FD7B68012283F83C207B682C33B3
:106A80001846FFF766FF0346002B06D07B68DB6ADB
:106A9000DAB27B6883F8512003E07B68012283F837
:106AA00051207B6893F82430002B12D07B68283368
:106AB0001846FFF74EFF0346002B06D07B689B6A03
:106AC000DAB27B6883F8522003E07B68012283F806
:106AD00052207B68002283F850207B689B78042B2F
:106AE00031D801A252F823F03D6B0200FD6A02008A
:106AF0000D6B02001D6B02002D6B02007B683C33A6
:106B000019467868FFF704FEF8601DE07B683C33A7
:106B100019467868FFF71EFEF86015E07B683C3385
:106B200019467868FFF78BFEF8600DE07B683C3310
:106B300019467868FFF7C8FEF86005E07B68002218
:106B400083F8312000E000BF7B689B78002B20D0C9
:106B50007B6803F154007B68D3F820147B683C33D6
:106B60001A46FFF7D3FCF860FB68002B01D0FB68E6
:106B70001BE07B6893F854207B6893F8303019460B
:106B80001046FFF7C7FCF860FB68002B01D0FB68DC
:106B90000BE07B685B6B002B06D07B685B6B7A68D5
:106BA00092F8312010469847002318461037BD460A
:106BB00080BD00BF80B584B000AF786039603B68AD
:106BC000FB607B681B88262B10D0262B13DC102B38
:106BD00002D0112B05D00EE07968F868FFF7E2FCCF
:106BE0000AE07968F868FFF7F1FC05E07968F86871
:106BF000FFF717FD00E000BF00BF1037BD4680BDA6
:106C0000ADDF704700BF1846AEDF704700BF1846C3
:106C1000B0DF704700BF18463CDF704700BF184622
:106C20003DDF704700BF184680B58AB000AF78607E
:106C300007F1140310220021184615F05DFC022311
:106C40003B7502233B8100237B8107F11003FB602E
:106C50001A4B9B88194A518907F108021846FFF719
:106C6000CFFF78627B6A002B0ED107F11003184624
:106C700012F0C9FF0346002B06D0BB7E43F0010390
:106C8000BB7600233B8302E040F2FD133B830B4BBA
:106C90009B8807F1140211461846FFF7B9FF786286
:106CA0007B6A112BF3D03B8B002B03D1786800F06B
:106CB00007FA00E000BF2837BD4680BD34A00020A1
:106CC00080B584B000AF78607B689A88134B9B884E
:106CD0009A421ED17B680633FB60FB681B78022B4F
:106CE00018D1FB685A880D4BDB889A4212D1FB6899
:106CF0001B7A042B0ED0FB681B7A062B0AD0FB688C
:106D00001B7A052B06D0FB6802331846FFF78CFF71
:106D100000E000BF1037BD4680BD00BF34A000209A
:106D200080B483B000AF78607B689A88034B9A8008
:106D300000BF0C37BD465DF8047B704734A00020CF
:106D400080B483B000AF7860084B9A887B689B88DA
:106D50009A4204D1054B4FF6FF729A8000E000BFC3
:106D60000C37BD465DF8047B704700BF34A000209F
:106D700080B584B000AF78607B680633FB60FB6849
:106D80001A880B4BDB889A420DD1094B1B7E002BD6
:106D900009D000F0FDF9B860BB68002B03D0044BAC
:106DA0005B690220984700BF1037BD4680BD00BF19
:106DB00034A0002080B582B000AF786039607B6875
:106DC000002B1ED07B681B88532B16D0532B1ADC4C
:106DD000512B0ED0512B16DC102B02D0112B04D0CE
:106DE00011E07868FFF79CFF0EE07868FFF7A8FFD6
:106DF0000AE07868FFF764FF06E07868FFF7B8FFFD
:106E000002E000BF00E000BF0837BD4680BD0000C3
:106E100080B58AB000AF03460A46FB711346BB71CA
:106E200003237B8407F10C0310220021184615F080
:106E300063FB7B8C3B8420233B77FB797B77BB799F
:106E4000BB77124BDB88BB810223BB7300233B82E1
:106E500007F120037B6107F11C03BB610B4B9B888F
:106E600007F10C0211461846FFF7CEFE78627B6AE6
:106E7000002B05D13B8C7A8C9A4201D00C237B628B
:106E80007B6A18462837BD4680BD00BF34A000206D
:106E900080B584B000AF184A184BD31ADB081B0426
:106EA00043F00403164918460AF04EF84FF0FF313C
:106EB0000020FFF7B5FEF860FB68BB60BB68002BE5
:106EC00001D0BB6813E0B1210020FFF7A5FEF860F8
:106ED000FB687B607B68002B01D07B6807E0094B77
:106EE0005B690120984702200DF080FC00231846C2
:106EF0001037BD4680BD00BF6C4004002C4004002C
:106F0000DC0D040034A0002080B582B000AF7860B2
:106F1000044B1B68044978689847034618460837AD
:106F2000BD4680BD50A0002058A0002080B582B092
:106F300000AF7860044B5B68044978689847034663
:106F400018460837BD4680BD50A0002058A000203C
:106F500080B400AF074B1B68002B05D0054B5B6866
:106F6000002B01D0012300E000231846BD465DF848
:106F7000047B704750A0002080B584B000AF7860DB
:106F8000124B1B685B7E002B01D006231AE0786849
:106F9000FFF7BAFFF860FB68002B04D10B4B1B68AE
:106FA00001225A760DE0FB680F2B0AD1084A094BE3
:106FB000D31ADB081B0443F001030749184609F004
:106FC000C3FFFB6818461037BD4680BD5CA000209B
:106FD0006C4004002C400400200E040080B582B0F8
:106FE00000AF144B1B685B7E002B0ED006210120E6
:106FF000FFF70EFF78607B68002B04D00D4B1B68F9
:107000005B6903209847002310E00A4B1B680122AC
:107010001A7601210120FFF7FBFE78607B68002BC8
:1070200003D0044B1B6800221A767B681846083789
:10703000BD4680BD5CA0002080B584B000AF786004
:107040003960FFF785FF0346002B32D07868FFF7E1
:107050006DFFF860FB68082B2CD0FB68002B11D16A
:10706000164B1B6800225A7601210220FFF7D0FE42
:10707000F860FB68002B1DD0104B1B685B69032078
:10708000984717E00D4B1B6800225A760621022014
:10709000FFF7BEFEF860FB68002B04D0074B1B68AF
:1070A0005B6903209847054B1B685B690220984782
:1070B00000E000BF1037BD4680BD00BF5CA00020CF
:1070C00080B584B000AF78600423FB737B681B7BC2
:1070D000012B02D0022B0FD031E0FFF77FFFB86009
:1070E000BB68002B02D10123FB732BE0BB68112B83
:1070F00028D10623FB7325E07B685B7B142B03D828
:107100007B685B7B002B02D10523FB731CE07B6853
:1071100003F10E017B685B7B1A461A4815F0DEF915
:107120007B685B7B1A46184B9A611748FFF724FF70
:10713000B860BB68002B07D10123FB7304E0022376
:10714000FB7302E000BF00E000BFFB7B012B14D00B
:107150007B681B7BFA7B11461846FFF759FEB86027
:10716000BB68002B04D0094B1B685B690320984760
:10717000064B1B685B690220984700BF1037BD466D
:1071800080BD00BF64A0002060A000205CA00020A3
:1071900080B582B000AF064B1B685B690020984742
:1071A000FFF776FE78607B6818460837BD4680BDDD
:1071B0005CA0002080B586B000AFF860B9601346CF
:1071C000FB80BB687B610C4A0C4BD31ADB081B04A9
:1071D00043F00403FA880A49184609F0C4FE7B69A3
:1071E000DB68002B03D07B69DB68F868984700BF39
:1071F0001837BD4680BD00BF844004002C40040009
:10720000FC0E040080B586B000AF786039607B6802
:107210001A883B689B889A4218D13B680A337B6185
:107220007B691A887B689B889A4210D13B689B884F
:10723000FB8102233B737B699B793B747B689B6872
:1072400007F10C0211467868984700E000BF183734
:10725000BD4680BD80B584B000AF786039607B6882
:107260001A883B689B889A4219D13B685A897B6887
:107270009B889A4214D13B68DB89012B10D13B6873
:107280009B887B8101233B723B681B7C3B737B6843
:107290009B6807F1080211467868984700E000BF34
:1072A0001037BD4680BD000080B586B000AF786065
:1072B00039603B681B78002B63D13B689B8841F6A3
:1072C0000F0293425DD13B689B79012B59D100237A
:1072D0003B733B685B88FB810023FB7524E0FA7DF0
:1072E00039681346DB0013445B000B440E331B88E4
:1072F00042F61922934214D1FA7D39681346DB0015
:1073000013445B000B4418331B883B82FA7D3968B9
:107310001346DB0013445B000B4416331B887B824F
:1073200007E0FB7D0133FB753B681B7AFA7D9A42CF
:10733000D5D31F4A1F4BD31ADB081B0443F00403A9
:107340001D49184609F000FE7B681B884FF6FF7246
:1073500093420DD07B685B88002B09D17B689B88AA
:10736000002B05D17B68023307F11002106818600A
:107370007B689B6807F10C0211467868984700BF4C
:1073800012E03B681B78022B03D03B681B78012B73
:107390000AD1074A074BD31ADB081B0443F0040346
:1073A0000649184609F0D0FD00BF1837BD4680BD1C
:1073B000844004002C400400340F0400580F0400E3
:1073C00080B58CB000AF78600B46FB701F4A204B35
:1073D000D31ADB081B0443F004007B685B881A4661
:1073E0007B681B881B4909F0D1FDFB78FB85FB8D71
:1073F000DBB23B72FB8D1B0A9BB2DBB27B7207F1E7
:107400000C0320220021184615F076F801233B7367
:10741000114B7B617B68BB617B685B88FB830223CC
:107420007B8407F108037B6200233B8401233B77C5
:107430007B6818697B681A8807F10C03194613F0FA
:10744000ABFB034618463037BD4680BD8440040080
:107450002C400400840F0400B571020080B584B094
:1074600000AF786039607B68002B01D10E2325E0E6
:107470003B68002B01D10E2320E00123BB7341F6B2
:107480000F03BB817B684FF6FF721A807B68002276
:107490005A807B6800229A803B681A687B689A60F1
:1074A0003B685A687B68DA603B689A687B681A6157
:1074B00007F10C03184612F053FA0346184610372A
:1074C000BD4680BD80B483B000AF786039607B6812
:1074D0001A883B689B889A4209D17B684FF6FF72F5
:1074E0001A807B6800225A807B6800229A8000BF45
:1074F0000C37BD465DF8047B704780B584B000AFA3
:10750000786039607B68002B1ED03B68002B1BD055
:107510003B68FB607B681B88392B06D0392B15DC58
:10752000112B0CD0362B05D010E07968F868FFF7E6
:1075300091FE0CE07968F868FFF764FE07E079686F
:10754000F868FFF7BFFF02E000BF00E000BF1037A0
:10755000BD4680BD80B582B000AF78607B68002BEF
:1075600001D10E230CE07B681B884FF6FF7293421B
:1075700001D1082304E001217868FFF721FF0346C9
:1075800018460837BD4680BD80B58AB000AF786028
:107590007B68002B01D10E2321E07B681B884FF60E
:1075A000FF72934201D1082319E007F1080320225A
:1075B0000021184614F0A0FF00233B720A4B3B61E8
:1075C0007B687B617B689B883B837B6818697B68F1
:1075D0001A8807F10803194613F0DEFA0346184625
:1075E0002837BD4680BD00BFB571020080B584B0AC
:1075F00000AFF8600B467A607B81FB68002B01D1FD
:107600000E2312E0FB687A891A807B68002B04D075
:10761000FB687A68023312681A60FB681B697A8912
:107620001146184613F06CFB034618461037BD464A
:1076300080BD75DF704700BF184676DF704700BF1A
:1076400018467FDF704700BF18468FDF704700BFC6
:107650001846000080B582B000AF0BF013FA7860D6
:107660007B683B603B68002B04D0044A812138686A
:107670000AF00EFC00BF0837BD4680BDC80F0400ED
:1076800080B582B000AF7860044AB32178680AF010
:10769000FFFB00BF0837BD4680BD00BFC80F040018
:1076A00080B584B000AF104813F0BCFFF860FB68F1
:1076B000BB60BB68002B04D00C4ABC21B8680AF040
:1076C000E7FB012010F0E0FDF860FB687B607B6861
:1076D000002B04D0054ABF2178680AF0D9FB00BF0F
:1076E0001037BD4680BD00BF58B20020C80F04004F
:1076F000F0B58BB004AF78607B681B78062B5ED842
:1077000001A252F823F000BF25770200BF770200E4
:10771000BF770200BF770200A37702003D77020027
:1077200059770200294A2A4BD31ADB081B0443F07D
:1077300003032849184609F007FC43E07B685B68AF
:107740003B613B69FB60FB68002B3AD0224AD321A6
:10775000F8680AF09DFB34E07B685B687B611B4A3C
:107760001B4BD31ADB081B0443F003007B695B78D7
:107770001D467B699B781E467B69DB781A467B69D0
:107780001B7919467B695B791C467B699B7903935E
:1077900002940191009233462A46104909F05AFC9E
:1077A00010E00A4A0A4BD31ADB081B0443F0030318
:1077B0000B49184609F0C8FBFFF772FF02E000BF53
:1077C00000E000BF00BF1C37BD46F0BD6C400400A8
:1077D0002C40040004100400C80F0400141004001E
:1077E0004410040080B58AB000AF3B1D1022002178
:1077F000184614F081FE01233B7201233B743B1DAC
:10780000214A1946214813F0ADFE38623B6AFB61FC
:10781000FB69002B04D01E4AFF21F8690AF038FBEF
:1078200000237B6217E01B4A7B6A52F823301A461A
:107830000021164813F0AAFC38623B6A7B617B6921
:10784000002B05D0124A4FF4827178690AF020FBB0
:107850007B6A01337B627B6A032BE4DD0122012119
:107860000A4813F0BFFC38623B6ABB61BB69002B5E
:1078700005D0074A40F20911B8690AF009FB00BFB8
:107880002837BD4680BD00BFF176020058B2002007
:10789000C80F0400D88F002080B582B000AF786098
:1078A0007B685B881A4613465B001344DB00114A71
:1078B00013447968184613F091FF7B685B881A4679
:1078C000342302FB03F30C4A13447968184606F08C
:1078D00013FE7B685B881A4613469B0013449B008B
:1078E000064A134479681846FFF7DEFC00BF0837E4
:1078F000BD4680BDACB000200CB10020DCB1002042
:10790000B0B588B002AF786039603B681B78002B57
:1079100007D0002BC0F21381013B012B00F20F8135
:1079200049E03B6859883B6804331A467868FFF79A
:107930005DFE78617B693B613B69002B05D0834A22
:1079400040F2311138690AF0A3FA814A814BD31A07
:10795000DB081B0443F004037F49184609F0F4FADE
:107960007868FFF711FE78617B69FB60FB68002B8C
:1079700005D0764A40F23711F8680AF089FA744A5D
:10798000744BD31ADB081B0443F0040373491846F5
:1079900009F0DAFA7868FFF7DDFD78617B69BB6092
:1079A000BB68002B00F0CD80684A40F23B11B868FC
:1079B0000AF06EFAC5E0664A664BD31ADB081B0470
:1079C00043F003003B681B791A46654909F0CBFA7E
:1079D0003B681A793B685B881C46104605F078FEC8
:1079E000F0EE407A5F4AE30013440433C3ED007ABB
:1079F000574A584BD31ADB081B0443F003003B687B
:107A00005B881D463B685B88564ADB0013440433A1
:107A1000D3ED007AF5EEC07AF1EE10FA10D53B689E
:107A20005B88504ADB0013440433D3ED007ABFEE89
:107A3000007AF4EEC77AF1EE10FA01DD4A4A00E06E
:107A40004A4A3B685B884749DB000B440433D3ED6B
:107A5000007AFDEEE77A17EE904A3B685B88414971
:107A6000DB000B440433D3ED007AF5EEC07AF1EE7F
:107A700010FA16DD3B685B883A49DB000B4404339F
:107A800093ED007A3B685B883649DB000B44043396
:107A9000D3ED007AFDEEE77AF8EEE77A77EE677AD3
:107AA00015E03B685B882F49DB000B440433D3EDC2
:107AB000007AFDEEE77AB8EEE77A3B685B88294901
:107AC000DB000B440433D3ED007A77EE677A9FED49
:107AD000287A67EE877AFDEEE77A17EE903A0193FF
:107AE000009413462A46234909F07EFA3B685B88D6
:107AF0001C4ADB0013440433D3ED007A3B685B88F7
:107B00001C46B0EE670A05F02FFE03461A46154BD9
:107B100003F834200E4A0F4BD31ADB081B0443F042
:107B200003003B685B8819463B685B881A460D4B2F
:107B300013F832300A46104909F028FA02E000BF73
:107B400000E000BF00BF1837BD46B0BDC80F04003D
:107B50006C4004002C400400541004008810040001
:107B6000B01004007CA00020D0100400D410040049
:107B70000000C842D81004000011040080B586B08F
:107B800000AF164B3B60164B7B60164BBB6000236F
:107B90007B611AE07A6913469B0013449B00124AEA
:107BA00013443A4611461846FFF758FC38613B69C2
:107BB000FB60FB68002B05D00C4A4FF4B271F868EB
:107BC0000AF066F97B6901337B617B69032BE1D99C
:107BD00000BF00BF1837BD4680BD00BF017902005D
:107BE0008176020020990020DCB10020C80F04003B
:107BF00080B586B000AF78603960304A304BD31A18
:107C0000DB081B0443F003032E49184609F09CF9D6
:107C10003B681B78022B3FD0022B4BDC002B01D0A2
:107C2000012B47E0254A264BD31ADB081B0443F0FF
:107C300003032549184609F087F93B6859883B68D2
:107C40000E331A46786813F05FFF78617B693B61F9
:107C50003B69002B05D01D4A40F27D1138690AF0BE
:107C600017F9786813F032FF78617B69FB60FB6875
:107C7000002B05D0154A4FF4C071F8680AF008F9D6
:107C80000E4A0F4BD31ADB081B0443F003031049C1
:107C9000184609F059F90DE0084A094BD31ADB08D8
:107CA0001B0443F003030B49184609F04DF9FFF795
:107CB000F7FC00BF00BF1837BD4680BD6C40040014
:107CC0002C400400241104003C110400C80F0400DF
:107CD000501104008011040080B5AAB000AF786094
:107CE00039607B680433C7F8A4307B681B88103B7D
:107CF000462B00F2628201A252F823F0197E0200A4
:107D0000BB7F0200BB8102002F800200BB8102000A
:107D1000BB810200BB810200BB810200BB8102006B
:107D2000BB810200BB8102000B800200BB8102000C
:107D3000BB810200BB81020063800200BB810200A4
:107D40009D800200BB810200BB810200BB8102005A
:107D5000BB810200BB810200BB810200BB8102002B
:107D6000BB810200BB810200BB810200BB8102001B
:107D7000BB810200BB810200BB810200BB8102000B
:107D8000BB810200BB810200BB810200BB810200FB
:107D9000BB810200BB810200BB810200BB810200EB
:107DA000BB810200BB810200F3800200BB810200A4
:107DB000BB810200BB810200BB810200BB810200CB
:107DC000BB810200BB810200BB810200BB810200BB
:107DD000BB810200BB810200BB810200BB810200AB
:107DE000BB810200BB810200BB810200BB8102009B
:107DF000BB810200BB810200BB810200BB8102008B
:107E0000BB810200BB810200BB810200BB8102007A
:107E1000BB810200758102007B689B881A4613466D
:107E20005B001344DB00C44A98187B689B880022DF
:107E3000194613F069FEC7F8A000D7F8A030C7F8BC
:107E40008830D7F88830002B06D0BC4A4FF4D87160
:107E5000D7F888000AF01CF8D7F8A4301B881A4617
:107E6000342302FB03F3B64A9818D7F8A4301B88D2
:107E70000022194606F0B2FEC7F8A000D7F8A030DD
:107E8000C7F88430D7F88430002B06D0AB4A4FF4C3
:107E9000DA71D7F8840009F0FBFFD7F8A4301B880B
:107EA0001A4613469B0013449B00A64A9818D7F81D
:107EB000A4301B8800221946FFF798FBC7F8A000E2
:107EC000D7F8A030C7F88030D7F88030002B06D024
:107ED0009A4A4FF4DC71D7F8800009F0D9FF07F017
:107EE000A1F80346032B01D8FFF7DAFB072010F0B7
:107EF000CBF9C7F8A000D7F8A030FB67FB6F002BC9
:107F000005D08E4A40F2C311F86F09F0C1FF4FF45B
:107F1000136200218C4814F0EFFA7B689B881946A5
:107F2000894811F0C5FDC7F8A000D7F8A030BB679D
:107F3000BB6F002B05D0814A4FF4E471B86F09F094
:107F4000A7FF824A824BD31ADB081B0443F00403C9
:107F50008049184608F0F8FF7F4B1B88A7F870305F
:107F60007B689B8807F1700211461846FFF76DFB8E
:107F7000C7F8A000D7F8A0307B677B6F002B05D037
:107F80006E4A4FF4E971786F09F082FFD7F8A43098
:107F90001B881A4607F108037049184614F01EFFA3
:107FA00007F10803184601F09DFDD7F8A4301B889F
:107FB0000121184605F0D2FC0CE1D7F8A4301B884B
:107FC0001A4607F108036649184614F007FF07F13F
:107FD0000803184601F086FD5C4A5D4BD31ADB08A6
:107FE0001B0443F00300D7F8A4301B881A46D7F8C7
:107FF000A4301B795B4908F0C9FFD7F8A4301B886F
:108000000021184605F0AAFCE4E0D7F8A4301B795B
:10801000022B40F0D4804D4A4D4BD31ADB081B0491
:1080200043F003035049184608F08EFFC7E07B6811
:108030009888002300228521FFF703FBC7F8A000E2
:10804000D7F8A030C7F88C30D7F88C30002B00F070
:10805000B8803A4A4FF4FD71D7F88C0009F018FF48
:10806000AFE0D7F8A4301A88D7F8A4300433194603
:108070001046FFF7DEFAC7F8A000D7F8A030C7F81F
:108080009030D7F89030002B00F09D802B4A40F2C2
:108090000121D7F8900009F0FBFE94E02B4A2C4B0D
:1080A000D31ADB081B0443F004033049184608F0D8
:1080B0004BFF002387F86C30002387F86D307B6816
:1080C0009B8807F16C0211461846FFF7BEFAC7F805
:1080D000A000D7F8A030C7F89430D7F89430002B20
:1080E00073D0164A40F20D21D7F8940009F0D0FE63
:1080F0006BE0164A164BD31ADB081B0443F004034B
:108100001B49184608F020FF7B689B8813211846FE
:10811000FFF793FAC7F8A000D7F8A030C7F8983057
:10812000D7F89830002B52D0044A40F21621D7F8E5
:10813000980009F0ADFE4AE0ACB00020C80F040082
:108140000CB10020DCB10020E88F00206C4004005E
:108150002C40040090110400541204009C110400EF
:10816000AC110400C0110400F0110400101204004E
:1081700024120400194A1A4BD31ADB081B0443F0DB
:1081800004031849184608F0DFFE7B689B8813211A
:108190001846FFF752FAC7F8A000D7F8A030C7F882
:1081A0009C30D7F89C30002B13D00F4A40F21E2190
:1081B000D7F89C0009F06CFE0BE000BF0AE000BF9E
:1081C00008E000BF06E000BF04E000BF02E000BF1F
:1081D00000E000BF00BFA837BD4680BD6C40040072
:1081E0002C4004003C120400C80F040080B586B087
:1081F00000AF13F011FE78617B693B613B69002B96
:1082000005D0164A40F23521386909F041FE0023B5
:108210007B603B1D1946012013F0B8FE78617B6935
:10822000FB60FB68002B05D00C4A40F23B21F8684C
:1082300009F02EFE3B1D184613F0E6FF78617B69BE
:10824000BB60BB68002B05D0044A40F23F21B868F0
:1082500009F01EFE00BF1837BD4680BDC80F0400E0
:1082600080B582B000AF786039603B681B8840F60B
:10827000772293421FD1124A124BD31ADB081B04F8
:1082800043F003031049184608F05EFE3B689B88E4
:10829000033B9AB20D4B1A80094A0A4BD31ADB08EA
:1082A0001B0443F00300094B1B881A46074B1B882D
:1082B000074908F06BFE00BF0837BD4680BD00BF10
:1082C0006C4004002C400400581204003499002033
:1082D0007412040080B584B000AF1249124811F046
:1082E00077FFF860FB68BB60BB68002B05D00F4AC6
:1082F00040F25721B86809F0CBFDF7210A4811F088
:1083000093FFF860FB687B607B68002B05D0074A11
:1083100040F25A21786809F0BBFD00BF1037BD4616
:1083200080BD00BF618202002CB20020C80F040093
:1083300080B584B000AF3B4608220021184614F0F7
:10834000DBF80C4B3B600C4B7B603B46184611F056
:10835000D3FAF860FB68BB60BB68002B05D0074A06
:1083600040F28221B86809F093FD00BF1037BD4686
:1083700080BD00BF9978020020990020C80F04003A
:1083800080B584B000AF786039603A687968134886
:1083900009F036FFF860FB68042B0AD1104A114B34
:1083A000D31ADB081B0443F003030F49184608F0F7
:1083B000CBFDFB68002B02D10C4800F0C3FBFB682F
:1083C000BB60BB68002B05D0094A40F2C121B868E8
:1083D00009F05EFD00BF1037BD4680BD9CA00020A7
:1083E0006C4004002C400400D8120400A18B020051
:1083F000C80F040090B59BB002AF786039603B684D
:108400001B78013B072B00F2E48101A252F823F014
:1084100031840200D3870200D3870200EF87020075
:1084200043840200D38702000D8602008385020088
:108430003968786800F068FA3968786800F08CFA72
:10844000D6E1002387F85F3095E03C237B657A6DA9
:1084500007F108030021184614F04EF83B685B88CA
:10846000A7F8403001237B7297F85F303A681B0110
:10847000134404331B6807EE903AB8EEE77ADFED59
:10848000DE6AC7EE267AC7ED0C7A97F85F303A6855
:108490001B01134408331B6807EE903AB8EEE77AE5
:1084A000DFEDD56AC7EE267AC7ED0D7A97F85F3013
:1084B0003A681B0113440C331B6807EE903AB8EE80
:1084C000E77ADFEDCD6AC7EE267AC7ED0E7A97F828
:1084D0005F303A681B01134410331B6807EE903A73
:1084E000B8EEE77ADFEDC46AC7EE267AC7ED0F7AF9
:1084F000C24AC34BD31ADB081B0443F00300D7ED79
:108500000C7A9FEDC07A67EE877AFDEEE77A17EE78
:10851000901AD7ED0D7A9FEDBB7A67EE877AFDEE64
:10852000E77A17EE904AD7ED0E7A9FEDB67A67EEAE
:10853000877AFDEEE77A17EE903AD7ED0F7A9FED46
:10854000B17A67EE877AFDEEE77A17EE902A01920C
:10855000009323460A46AC4908F046FD07F1540251
:1085600007F1080311461846FFF70AFF97F85F3036
:10857000013387F85F3097F85F30042B7FF665AFE3
:1085800036E10C23BB653B68DB6807EE903AB8EE3A
:10859000E77ADFED9E6AC7EE267AC7ED127A3B686E
:1085A0009B6807EE903AB8EEE77ADFED986AC7EE7F
:1085B000267AC7ED137A3B685B6807EE903AB8EE0F
:1085C000E77ADFED926AC7EE267AC7ED147A8B4A16
:1085D0008B4BD31ADB081B0443F00300D7ED127A50
:1085E000FDEEE77A17EE902AD7ED137AFDEEE77AE3
:1085F00017EE901AD7ED147AFDEEE77A17EE903A5F
:1086000000930B46824908F0D7FCF1E0002387F87D
:108610005E30D8E03C237B647A6C07F108030021CC
:10862000184613F069FF3B685B88A7F840300123C8
:108630003B7297F85E2039681346DB0013445B00F9
:108640000B440A33B3F9003007EE903AB8EEE77AFC
:10865000DFED706AC7EE267AC7ED037A97F85E20E1
:1086600039681346DB0013445B000B440C33B3F949
:10867000003007EE903AB8EEE77ADFED666AC7EEB3
:10868000267AC7ED047A97F85E2039681346DB0036
:1086900013445B000B440E33B3F9003007EE903AFD
:1086A000B8EEE77ADFED5B6AC7EE267AC7ED057AAA
:1086B00097F85E2039681346DB0013445B000B44D7
:1086C0000433B3F9003007EE903AB8EEE77ADFED05
:1086D000526AC7EE267AC7ED067A97F85E203968A7
:1086E0001346DB0013445B000B440633B3F9003040
:1086F00007EE903AB8EEE77ADFED476AC7EE267AE2
:10870000C7ED077A97F85E2039681346DB001344FB
:108710005B000B440833B3F9003007EE903AB8EE33
:10872000E77ADFED3D6AC7EE267AC7ED087A97F85B
:108730005E2039681346DB0013445B000B441033A2
:10874000B3F9003007EE903AB8EEE77AF3EE006A3C
:10875000C7EE267AC7ED097A97F85E203968134686
:10876000DB0013445B000B441233B3F9003007EE17
:10877000903AB8EEE77AF3EE006AC7EE267AC7EDD4
:108780000A7A97F85E2039681346DB0013445B00D1
:108790000B441433B3F9003007EE903AB8EEE77AA1
:1087A000F3EE006AC7EE267AC7ED0B7A07F14402B2
:1087B00007F1080311461846FFF7E2FD97F85E300F
:1087C000013387F85E3097F85E30042B7FF622AFD6
:1087D0000EE00A4A0A4BD31ADB081B0443F00300DD
:1087E0003B681B781A460D4908F0BDFB00E000BF4E
:1087F00000BF6437BD4690BD0000804E6C40040051
:108800002C40040000007A446813040000008047F4
:108810007C13040000000042000080449013040018
:1088200080B584B000AF134B3B600023FB6019E0C0
:10883000FB68342202FB03F30F4A13443A46114605
:10884000184606F00BF8B860BB687B607B68002BAD
:1088500005D00A4A40F27631786809F019FBFB68C6
:108860000133FB60FB68032BE2D900BF00BF103768
:10887000BD4680BDF58302000CB10020C80F040086
:1088800080B586B000AF164B3B60164B7B60164B35
:10889000BB6000237B611AE07A6913465B001344D6
:1088A000DB00124A13443A461146184613F03AF8D0
:1088B00038613B69FB60FB68002B05D00C4A40F235
:1088C0008B31F86809F0E4FA7B6901337B617B69DD
:1088D000032BE1DD00BF00BF1837BD4680BD00BFE0
:1088E000F17B02008176020020990020ACB00020CC
:1088F000C80F040080B500AFFFF7C2FFFFF790FF7D
:10890000FFF73CF900BF80BD80B584B000AF786050
:1089100039603B6859883B6804331A460A4806F0B8
:108920005DF9F860094A0A4BD31ADB081B0443F0CF
:1089300003003B685B881A46064908F014FB00BF39
:108940001037BD4680BD00BF0CB100206C40040054
:108950002C400400B813040080B588B000AF7860E4
:1089600039603B685B881A46342302FB03F32D4AC7
:108970001344184606F082F8F861FB69BB61BB69D5
:10898000002B05D0284A4FF46C71B86909F080FAC1
:108990003B685B881A46342302FB03F3214A1344E5
:1089A000184606F089F8F861FB697B617B69002B4A
:1089B00005D01D4A40F2B231786909F069FA3B6886
:1089C0005B881A46342302FB03F3164A1344184605
:1089D00006F090F8F861FB693B613B69002B05D01C
:1089E000114A4FF46D71386909F052FA3B685B889F
:1089F0001A46342302FB03F30A4A1344184606F0CE
:108A000097F8F861FB69FB60FB68002B05D0064A0C
:108A100040F2B631F86809F03BFA00BF2037BD4696
:108A200080BD00BF0CB10020C80F040084B080B529
:108A300082B000AF07F1100C8CE80F000023FB712F
:108A40001AE0FB79342202FB03F3114A134407F1C5
:108A50001001184606F08AF838600E4A0E4BD31AF9
:108A6000DB081B0443F003033A680C49184608F07E
:108A70007AFAFB790133FB71FB79032BE1D900BF53
:108A800000BF0837BD46BDE8804004B0704700BF56
:108A90000CB100206C4004002C400400E80F0400DE
:108AA00080B584B000AF0023FB601EE01349FA6874
:108AB00013465B001344DB000B4402331B88132175
:108AC0001846FEF7BAFDB860BB68082B0AD0BB6831
:108AD0007B607B68002B05D0094A40F2D63178686C
:108AE00009F0D6F9FB680133FB60FB68032BDDDD81
:108AF00000BF00BF1037BD4680BD00BFACB0002036
:108B0000C80F040080B582B000AF4FF480520A490C
:108B10000A4809F0D8FA78607B683B603B68002B14
:108B200005D0074A40F2E531386809F0B1F900BFD5
:108B30000837BD4680BD00BFACA000209CA000202F
:108B4000C80F040080B584B000AF7860114B5B6C37
:108B5000002B05D00F4B5B6C01330E4A536415E0BC
:108B60000C4B5B6C01330B4A53640B4A0021002011
:108B700009F02CFCF860FB68BB60BB68002B05D0DB
:108B8000064A4FF47E71B86809F082F900BF1037C9
:108B9000BD4680BD888F0020A18B0200C80F040055
:108BA0002DE9F04FADF2DC4D12AF07F59263A3F261
:108BB000644318600A4607F59263A3F266431A807D
:108BC000F7E0002387F88F343C23C7F88434102360
:108BD000C7F8883407F2844207F1340319467B480A
:108BE00009F0CDFA0346002B40F0CF8007F59263E1
:108BF000A3F25C435B78002B35D007F59263A3F2B8
:108C00005C439B6A184616F0ABFD82468B4607F51F
:108C10009263A3F25C43DB6A184616F0A1FD04469A
:108C20000D4607F59263A3F25C431B6B184616F0E2
:108C300097FD8046894607F59263A3F25C435B6B20
:108C4000184616F08DFD02460B4607F17000CDE97F
:108C50000423CDE90289CDE9004552465B465C49D3
:108C600014F0BCF889E007F59263A3F25C431B782B
:108C7000002B00F0828007F59263A3F25C431B8F08
:108C80001E4607F59263A3F25C435B68184616F034
:108C900067FDC7E9080107F59263A3F25C439B688F
:108CA000184616F05DFDC7E9060107F59263A3F2C9
:108CB0005C43DB68184616F053FDC7E9040107F56D
:108CC0009263A3F25C431B69184616F049FDC7E99D
:108CD000020107F59263A3F25C435B69184616F044
:108CE0003FFDC7E9000107F59263A3F25C439B696E
:108CF000184616F035FD82468B4607F59263A3F2BF
:108D00005C43DB69184616F02BFD8046894607F563
:108D10009263A3F25C431B6A184616F021FD0446D9
:108D20000D4607F59263A3F25C435B6A184616F0A2
:108D300017FD02460B4607F17000CDE91023CDE97F
:108D40000E45CDE90C89CDE90AAB97ED007B8DEDA1
:108D5000087B97ED027B8DED067B97ED047B8DED17
:108D6000047B97ED067B8DED027B97ED087B8DED07
:108D7000007B3246174914F031F8012387F88F340D
:108D8000154B5B6C013B144A536497F88F34002BEE
:108D90000FD007F17003184604F073F80346C7F8C4
:108DA000703407F58E6207F170031146184601F022
:108DB000C5F8094B5B6C002B7FF403AF00BF00BF0D
:108DC00007F29447BD46BDE8F08F00BF9CA000208D
:108DD000F413040010140400888F002080B582B0C2
:108DE00000AF354800F07EFE344800F07BFE344B87
:108DF0001B78002B02D0334800F074FE304B5B78B8
:108E0000002B02D0304800F06DFE2D4B9B78002BDC
:108E100002D02E4800F066FE294B5B79002B02D071
:108E20002B4800F05FFE264BDB78002B02D0294850
:108E300000F058FE224B1B79002B02D0264800F090
:108E400051FE1F4B9B69002B19D0244800F04AFEAD
:108E50001B4B9A693B462249184613F0BFFF214A33
:108E6000214BD31ADB081B0443F003033A461F4986
:108E7000184608F078F83B46184600F033FE104BD1
:108E800093F84C30002B02D0194800F02BFE0C4B0D
:108E90001B7A002B02D0174800F024FE084B9B7968
:108EA000002B02D0144800F01DFE034800F01AFE0B
:108EB00000BF0837BD4680BD581404008414040068
:108EC000888F002098140400B4140400D414040003
:108ED000F01404000C1504003015040054150400AF
:108EE000701504006C4004002C4004007815040048
:108EF0008415040098150400B815040080B5A6B0C8
:108F000000AF07F16403184606F0A4F80023C7F881
:108F100094301BE0D7F894305B0007F198021344BB
:108F200033F8303CA7F89230D7F894305A1CB7F891
:108F3000923038460A4913F051FF3B46184600F07C
:108F4000D1FDD7F894300133C7F894307B6ED7F851
:108F500094209A42DED300BF00BF9837BD4680BD43
:108F6000CC15040080B58CB000AF3B1D184606F050
:108F700071F87B6818463037BD4680BD90B5ABB000
:108F800004AF234800F0AEFD07F16403184606F075
:108F900061F80023C7F894302DE0D7F894305B00D7
:108FA00007F19802134433F8303CA7F89230B7F831
:108FB0009240B7F89230174ADB00134404331B6821
:108FC000184616F0CDFB02460B46B7F89210114832
:108FD00010F8311038460291CDE9002322460E499F
:108FE00013F0FCFE3B46184600F07CFDD7F89430A9
:108FF0000133C7F894307B6ED7F894209A42CCD3D3
:10900000034800F06FFD00BF9C37BD4690BD00BF18
:10901000581404007CA00020F015040080B483B034
:1090200000AF0346FB71044AFB79137200BF0C3793
:10903000BD465DF8047B7047888F002080B483B004
:1090400000AF0346FB71054AFB7982F84C3000BF44
:109050000C37BD465DF8047B704700BF888F002049
:1090600080B483B000AF0346FB71044AFB791370F0
:1090700000BF0C37BD465DF8047B7047888F002029
:1090800080B483B000AF0346FB71044AFB79537090
:1090900000BF0C37BD465DF8047B7047888F002009
:1090A00080B483B000AF0346FB71044AFB79937030
:1090B00000BF0C37BD465DF8047B7047888F0020E9
:1090C00080B483B000AF0346FB71044AFB79D370D0
:1090D00000BF0C37BD465DF8047B7047888F0020C9
:1090E00080B483B000AF0346FB71044AFB7913716F
:1090F00000BF0C37BD465DF8047B7047888F0020A9
:1091000080B483B000AF0346FB71044AFB799371CE
:1091100000BF0C37BD465DF8047B7047888F002088
:1091200080B483B000AF7860044A7B68936100BF6D
:109130000C37BD465DF8047B704700BF888F002068
:1091400080B400AF134B00221A70124B00225A70E9
:10915000104B00229A700F4B0022DA700D4B002248
:109160001A710C4B00225A710A4B00229A61094B6A
:1091700000221A72074B0022DA71064B002283F894
:109180004C20044B00229A7100BFBD465DF8047B61
:10919000704700BF888F00202DE9B04F98B004AF12
:1091A000834B1B7887F83030814B5B7887F8313000
:1091B0007F4B9B7887F832307D4B5B7987F8333073
:1091C0007B4BDB7887F83430794B1B7987F8353067
:1091D000774B9B699BB2FB86754B9B7987F8383040
:1091E000734B1B7A87F83930714BDB7987F848303D
:1091F0006F4B93F84C3087F8493007F0A9F90246D5
:109200000B466B49C1E90423694BD3E9042312F1EE
:10921000080443F100054FF47A524FF00003204652
:10922000294616F01DFE02460B4612F5FA61B96298
:1092300043F10003FB625E4BD7E90A12C3E9041253
:109240005B4BD3E9044522462B464FF000004FF01C
:109250000001590141EAD261500102460B46B2EBCE
:10926000040863EB05094FF000024FF000034FEADA
:10927000890343EA98734FEA88029046994618EBAF
:1092800004033B6149EB05037B614FF000024FF0A3
:109290000003D7E904452946CB00214643EA517330
:1092A0002146CA0012F5FA71396243F100037B626C
:1092B000404A4FF00003D7E9080116F0D1FD0246FD
:1092C0000B461046194602460B469418BC605B419B
:1092D000FB60D7E9022312EB000A43EB010B4FF0CE
:1092E00000024FF000034FEA4B1343EADA634FEA00
:1092F0004A121AEB02043C604BEB03037B60D7E994
:10930000004523461B18BB612B4641EB0303FB6161
:10931000274BD7E90612C3E90412254BD3E90423EE
:10932000C7E91023244A254BD31ADB081B0443F05A
:1093300003001F4BD3E9042313461A46204907F0C4
:1093400012FE1D4A1D4BD31ADB081B0443F0030316
:1093500097F849201B49184607F005FE164A174B97
:10936000D31ADB081B0443F0030397F8382016498F
:10937000184607F0F8FD104A104BD31ADB081B04FF
:1093800043F003030A4A92791049184607F0EBFDAF
:109390006C4607F140030FCB84E80F0007F1300360
:1093A0000FCBFFF743FB00BF5037BD46BDE8B08F82
:1093B000888F0020A08601006C4004002C4004002F
:1093C00030160400441604005C16040074160400F1
:1093D00080B584B000AF78607B689BB213211846DB
:1093E000FEF72BF9F860FB6843F2020293420AD1C0
:1093F000164A174BD31ADB081B0443F00303154925
:10940000184607F0A1FDFB68082B0FD0FB6843F25C
:10941000020293420AD0FB68BB60BB68002B05D0F8
:109420000D4A40F2FE41B86808F032FD074A084B89
:10943000D31ADB081B0443F003030849184607F05E
:1094400083FDFB6818461037BD4680BD6C400400A4
:109450002C40040088160400C80F0400A81604005D
:1094600080B483B000AF0346FB71FB7903F1804306
:1094700003F5C0431A460123136000BF0C37BD46F5
:109480005DF8047B704780B483B000AF0346FB7186
:10949000FB7903F1804303F5C04318460C37BD4602
:1094A0005DF8047B7047000080B485B000AF786041
:1094B0000A4A7B6803F5A27352F8233043F0030392
:1094C000FB6006497B6803F5A273FA6841F8232024
:1094D00000BF1437BD465DF8047B70470060004054
:1094E00080B485B000AFF860B96011461A460B46EB
:1094F000FB711346BB71184AFB6803F5A27352F85F
:109500002330154923F4981323F4F853FA6802F52D
:10951000A27241F82230104AFB6803F5A27352F898
:109520002320BB681B0203F4F851FB791B0403F4EE
:1095300040331943BB791B0503F480130B430649E1
:109540001A43FB6803F5A27341F8232000BF1437C8
:10955000BD465DF8047B70470060004080B483B076
:1095600000AF78604FF0A04318460C37BD465DF859
:10957000047B704780B584B000AF78600846114620
:109580001A460346FB700B46BB7013467B703B1DAF
:109590001846FFF7E3FFF860FA78BB785B001A43E0
:1095A0007B789B001A433B7E1B0242EA03013B7F10
:1095B0001B047A681943FB6802F5E07243F8221035
:1095C00000BF1037BD4680BD80B584B002AF786063
:1095D00000230193002300930023012201217868D6
:1095E000FFF7C8FF00BF0837BD4680BD80B584B017
:1095F00000AF78603B1D1846FFF7B0FFF860FB68CE
:10960000D3F80435BB60BB68DA437B68012101FAFB
:1096100003F31A40FB68C3F808257B6801229A40CF
:10962000BB681A40FB68C3F80C2500BF1037BD4665
:1096300080BD0000B0B586B000AF284B1B78002B72
:1096400047D106F085FFC7E90401D7E9042312F1E9
:10965000080443F100054FF47A524FF0000320460E
:10966000294616F0FDFB02460B461346FB60FB68DD
:109670004FF47A7202FB03F303F5FA73184AA2FB64
:1096800003239B0903F5FA63BB60BB68144AA2FB82
:1096900003239B094FF47A7202FB03F3BB600C2097
:1096A000FFF7F1FE03461946B86806F08BF97860BB
:1096B0007B683B603B68002B04D00A4A2F21386846
:1096C00008F0E6FB6C20FFF7CBFE044B01221A707A
:1096D00000E000BF1837BD46B0BD00BFC8B60020CF
:1096E000D34D62102C17040080B400AF034B00224E
:1096F0001A7000BFBD465DF8047B7047C8B60020F5
:1097000080B400AF034B1B781846BD465DF8047B60
:10971000704700BFC8B6002080B582B000AF786047
:109720007A680A4BA3FB02139B094FF47A7101FB81
:1097300003F3D31A002B04D1054B1B681846FFF71F
:1097400055FF00BF0837BD4680BD00BFD34D621036
:10975000C0B60020B0B58AB000AF78607B68002B3F
:1097600014BF01230023DBB27B627B6A002B04D190
:10977000444A4F21002008F08BFB7B681B78022BAA
:1097800022D0022B6FDC002B02D0012B0ED06AE01E
:109790003D4A3E4BD31ADB081B0443F003033C490C
:1097A000184607F0D1FBFFF745FF67E0364A374B15
:1097B000D31ADB081B0443F003033649184607F0AD
:1097C000C3FBFFF791FF59E0FFF79AFF0346002B19
:1097D0002FD07B689B680A333B620C20FFF753FE57
:1097E00003461946386A06F0EDF8F861FB69002B6C
:1097F00011D0254A254BD31ADB081B0443F0030381
:10980000FA692549184607F0AEFB00BF07F052FC85
:109810000346002BFAD1FB69BB61BB69002B04D066
:10982000184A6E21B86908F033FB386AFFF774FFF5
:1098300002E06C20FFF714FE06F08AFEC7E904017F
:10984000D7E9042312F1080443F100054FF47A52DA
:109850004FF000032046294616F002FB02460B4655
:109860001346FB600AE00023BB60BB68002B04D1F9
:10987000044A7F21002008F00BFB00BF00BF2837FF
:10988000BD46B0BD2C1704006C4004002C40040001
:1098900050170400641704007C17040080B582B0E0
:1098A00000AF78607B681B680C4A13607B685B685C
:1098B0000B4A1360094B1B681846FFF785FE084BDF
:1098C0001968002303220320FFF70AFE0320FFF795
:1098D000EBFD00BF0837BD4680BD00BFC0B600200D
:1098E000C4B60020B0B58CB000AF2F4A07F11C03FE
:1098F00092E8030083E8030007F11C031846FFF712
:10990000CDFF2A4B07F108041D460FCD0FC42B686D
:10991000236007F10803184606F0E4FCF862FB6ACE
:10992000BB62BB6A002B04D0214AB921B86A08F097
:10993000AFFA204A3B4692E80300186004331980CE
:109940003B46184606F02CFDF862FB6A7B627B6A98
:10995000002B04D0164AC121786A08F099FA164AF9
:10996000164BD31ADB081B0443F0030314491846B3
:1099700007F0EAFA104A114BD31ADB081B0443F034
:1099800003031049184607F0DFFA0B4A0B4BD31AB2
:10999000DB081B0443F003030B49184607F0D4FA15
:1099A00000BF3037BD46B0BD2C1804003418040089
:1099B0002C170400481804006C4004002C400400DC
:1099C00098170400BC170400F0170400B0B584B069
:1099D00000AF06F0BDFDC7E90201D7E9022312F18D
:1099E000080443F100054FF47A524FF0000320467B
:1099F000294616F035FA02460B4613467B607B6813
:109A00004FF47A7202FB03F303F5FA730A4AA2FBDE
:109A100003239B093B60094A094BD31ADB081B044B
:109A200043F003007B683A68064907F0AFFA00BFCD
:109A30001037BD46B0BD00BFD34D62106C4004006E
:109A40002C4004005018040080B582B000AF0346DB
:109A5000FB710748074B1B6A5A090123002100F0DC
:109A600067FC054801F0F0FA00BF0837BD4680BD2D
:109A70007818040034BA00208018040080B584B03F
:109A800000AF4FF480621249124808F01CFBF860E6
:109A9000FB68BB60BB68002B04D00F4A5021B8683C
:109AA00008F0F6F94FF480720C490D4808F00BFBF2
:109AB000F860FB687B607B68002B04D0064A542169
:109AC000786808F0E5F900BF1037BD4680BD00BFDB
:109AD00074BA002064BA0020A81804008CC40020C6
:109AE0007CC4002080B5C4B000AF07F58873A3F52F
:109AF0008673186007F58873A3F58673186813F0EA
:109B00009FF90346C7F80C31D7F80C2107F5887385
:109B1000A3F5867307F10C00196812F0DFFC07F556
:109B2000867207F10C031146184600F007FA00BFD1
:109B300007F58877BD4680BD2DE9F04389B002AFB7
:109B400078600B46FB706B461E46F9780B46013B6E
:109B50007B61CBB20022984691464FF000024FF055
:109B600000034FEAC90343EA58734FEAC802CBB275
:109B700000221C4615464FF000024FF00003EB0098
:109B800043EA5473E2000B460733DB08DB00ADEB1E
:109B9000030D02AB00333B61FB781A4679683869E4
:109BA00012F09CFC164A174BD31ADB081B0443F037
:109BB00003007B681B781A467B6801331B781946C3
:109BC0007B6802331B7800930B460F4907F0F4F9CA
:109BD000386912F037FC0346FB60094A094BD31A77
:109BE000DB081B0443F00303FA680849184607F032
:109BF000BAF9FB68B54618461C37BD46BDE8F08388
:109C00006C4004002C400400C4180400D018040068
:109C100080B58AB000AF786039607B687B620023D2
:109C20007B843B681B78032B00F2C98001A252F8A9
:109C300023F000BF759C0200679D0200459C020056
:109C40005D9C0200614A624BD31ADB081B0443F09F
:109C500003036049184607F077F9B3E05B4A5C4BB1
:109C6000D31ADB081B0443F003035B49184607F0D3
:109C70006BF9A7E0554A564BD31ADB081B0443F097
:109C800003035649184607F05FF93B689B68022BAF
:109C90000AD94E4A4E4BD31ADB081B0443F001038A
:109CA0004F49184607F050F93B6859683B6808333C
:109CB0001A464C4808F0A4FAF861FB697B617B699D
:109CC000002B04D0484A9921786908F0E1F8FB6933
:109CD000002B11D03D4A3E4BD31ADB081B0443F046
:109CE0000303FA694149184607F03DF900BF07F040
:109CF000E1F90346002BFAD1344A354BD31ADB087D
:109D00001B0443F003003B685B681B781A463B6802
:109D10005B681B78364907F039F92C4A2C4BD31A6B
:109D2000DB081B0443F003033249184607F00CF923
:109D3000314B5B681A460021002008F047FBF861B0
:109D4000FB693B613B69002B04D0274AA621386997
:109D500008F09EF83B6859683B689B681A46786A29
:109D600001F0DEFC2EE04FF48063FB6007F10C0392
:109D70001A462249224808F002FAF861FB69002BD2
:109D800017D1FB681E4AC2F8143A1D4BD3F8143A97
:109D90001A461A491B4801F0B1FCF861FB69BB6126
:109DA000BB69002B0DD0104ABE21B86908F070F8CD
:109DB00007E00523FB61104B00221A7001E000BF91
:109DC00000E000BF00BF2837BD4680BD6C400400E6
:109DD0002C400400D4180400F41804001C190400DA
:109DE0003C1904007CC40020A81804004419040095
:109DF00078190400881904005CBA002074C000209F
:109E000064BA00208018040080B400AF00BFBD46D3
:109E10005DF8047B7047000080B58EB000AF7860BD
:109E2000FFF7F2FFFFF72AFE224A7B68536007F133
:109E30000C0320220021184612F05EFB0823FB6071
:109E400006233B614FF47A73FB61012387F82030CE
:109E50004FF080537B62062387F8293007F10C010D
:109E6000154B164A144801F0B3F978637B6B3B63DA
:109E70003B6B002B04D0124AF621386B08F008F82F
:109E80000D4801F09BFB0F4B1B781A460E490A4800
:109E900001F034FC78637B6BFB62FB6A002B04D01F
:109EA000074AFF21F86A07F0F3FF00BF3837BD46C5
:109EB00080BD00BF5CBA002080180400119C020025
:109EC000A8180400369900203899002080B584B085
:109ED00000AF786039603B68FE2B0BD9114A124BFA
:109EE000D31ADB081B0443F003033A680F491846F2
:109EF00007F039F80E4B01221A703A6879680D485C
:109F000001F0FCFBF860FB68BB60BB68002B05D070
:109F1000094A40F21111B86807F0BAFF00BF1037C4
:109F2000BD4680BD6C4004002C4004009419040020
:109F30005CBA002080180400A818040080B586B020
:109F400000AF7860396007F10803042239681846C9
:109F500012F0C4FA3A687968264808F051F9786135
:109F60007B693B613B69002B05D0234A40F21F11FE
:109F7000386907F08DFF7B69042B0AD11F4A204BFB
:109F8000D31ADB081B0443F003031E49184606F0EE
:109F9000DBFF7B69002B28D11B4B1B7883F001036F
:109FA000DBB2002B21D007F108031A4617491148EC
:109FB00008F0E5F878617B69002B0BD1BB680D4A8E
:109FC000C2F8103A0B4BD3F8103A19460F48FFF776
:109FD0007DFF0AE07B69FB60FB68002B05D0064A29
:109FE00040F24111F86807F053FF00BF1837BD4633
:109FF00080BD00BF64BA0020A81804006C400400B3
:10A000002C400400BC1904005CBA002074BE00207F
:10A0100080B584B000AF786039603A6879680448E8
:10A0200008F0ADF8F860FB6818461037BD4680BDF3
:10A030007CC4002080B584B000AF786079680448A3
:10A0400008F087F8F860FB6818461037BD4680BDF9
:10A050007CC4002080B483B000AF0346FB7197F945
:10A060000730002B0BDBFB7903F01F02074997F940
:10A0700007305B09012000FA02F241F8232000BFFB
:10A080000C37BD465DF8047B704700BF00E100E07F
:10A0900080B483B000AF03463960FB7197F9073095
:10A0A000002B0ADB3B68DAB20C4997F90730520102
:10A0B000D2B20B4483F800230AE03B68DAB20849C5
:10A0C000FB7903F00F03043B5201D2B20B441A7622
:10A0D00000BF0C37BD465DF8047B704700E100E02F
:10A0E00000ED00E080B582B000AF03460A46FB7188
:10A0F0001346BB71BA7997F9073011461846FFF736
:10A10000C7FF00BF0837BD4680BD80B582B000AF35
:10A110000346FB7197F907301846FFF79BFF00BF16
:10A120000837BD4680BD80B485B000AFF860B96027
:10A130007A60FB68BA6802F5A872796843F8221061
:10A1400000BF1437BD465DF8047B704780B483B010
:10A1500000AF786039607B683A68C3F8042300BFB9
:10A160000C37BD465DF8047B704780B483B000AF08
:10A17000786039607B683A68C3F8082300BF0C3701
:10A18000BD465DF8047B704780B483B000AF786053
:10A1900039607B68D3F804233B68134018460C37BA
:10A1A000BD465DF8047B704780B483B000AF786033
:10A1B0000B467B807B887A6813441B6818460C37F3
:10A1C000BD465DF8047B704780B485B000AF786011
:10A1D0000B467B807B887A68134400221A607B8858
:10A1E0007A6813441B68FB60FB6800BF1437BD46E8
:10A1F0005DF8047B704780B483B000AF78607B6803
:10A20000D3F8043518460C37BD465DF8047B70471B
:10A2100080B483B000AF786039607B683A68C3F877
:10A22000082500BF0C37BD465DF8047B704780B43D
:10A2300083B000AF786039607B683A68C3F8442324
:10A2400000BF0C37BD465DF8047B704780B483B017
:10A2500000AF786039607B683A68C3F8482300BF74
:10A260000C37BD465DF8047B7047000080B586B0B2
:10A2700000AFF860B9607A60FB685B7919462A4ADA
:10A280007B6842F82130FB685B791946274A0B4608
:10A290005B000B4413441B78002B03D008237B6125
:10A2A0007B693DE0FB6893F90420BB689B78194605
:10A2B0001046FFF717FFFB6893F904301846FFF7C5
:10A2C00024FFFB681A68BB681B8819461046FFF715
:10A2D0009FFFFB685B791946BB681879134A0B46E8
:10A2E0005B000B441344013302461A70FB685B7930
:10A2F0001946BB68D8780D4A0B465B000B441344E3
:10A30000023302461A70FB685B791946074A0B460E
:10A310005B000B44134401221A7000237B617B69AC
:10A3200018461837BD4680BD8CC5002094C5002056
:10A3300080B58AB000AFF860B9607A60FB704FF406
:10A340008032BB6802FA03F3BB61BB689BB2503337
:10A350009BB29B00FB82FB681B68B9691846FFF73C
:10A3600075FFFB681B68B9691846FFF7FEFE7B683E
:10A3700023F07F437B60FB685B7919462C4A0B46D0
:10A380005B000B44134401331B78002B2CD0FB687B
:10A390001B687A68B9681846FFF7C5FEFB681B683A
:10A3A0001846FFF728FF38623A6A7B68D31AFB61C8
:10A3B0003A6A7B689A4205D2FB6903F1FF1303F501
:10A3C0007F43FB61FB685B791946194A0B465B00CA
:10A3D0000B44134402331B781A46FB6993420ADA92
:10A3E0000D237B627B6A1FE0FB681B687A68B96893
:10A3F0001846FFF798FEFB78002B0CD0FB681B6813
:10A40000FA8A11461846FFF7DFFEFB681B68B96938
:10A410001846FFF79BFEFB681B68B9691846FFF7F3
:10A4200006FF00237B627B6A18462837BD4680BD45
:10A4300094C5002080B588B000AFF860B9607A603C
:10A440004FF48033BB614FF4A073FB8300237B6127
:10A450002CE0B969F868FFF797FE0346002B1CD083
:10A46000FB8B1946F868FFF79FFE0346002B14D0BC
:10A47000B969F868FFF7EAFEB969F868FFF775FE91
:10A48000FB8B1946F868FFF79FFE294ABB6852F814
:10A4900023307A69D2B210469847BB695B00BB6132
:10A4A000FB8B0433FB837B6901337B617A697B68B7
:10A4B0009A42CED34FF48073FB830121F868FFF7F3
:10A4C00063FE0346002B12D0FB8B1946F868FFF79A
:10A4D0006BFE0346002B0AD0FB8B1946F868FFF78A
:10A4E00073FE134ABB6852F82330042098474FF498
:10A4F0008273FB830221F868FFF746FE0346002BB8
:10A5000012D0FB8B1946F868FFF74EFE0346002B6E
:10A510000AD0FB8B1946F868FFF756FE044ABB6861
:10A5200052F823300520984700BF2037BD4680BD34
:10A530008CC5002080B500AF032200210248FFF740
:10A5400079FF00BF80BD00BF00B0004080B500AF04
:10A55000042201210248FFF76DFF00BF80BD00BF4C
:10A560000040024080B483B000AF0346FB7197F90E
:10A570000730002B0BDBFB7903F01F02074997F92B
:10A5800007305B09012000FA02F241F8232000BFE6
:10A590000C37BD465DF8047B704700BF00E100E06A
:10A5A00080B483B000AF03463960FB7197F9073080
:10A5B000002B0ADB3B68DAB20C4997F907305201ED
:10A5C000D2B20B4483F800230AE03B68DAB20849B0
:10A5D000FB7903F00F03043B5201D2B20B441A760D
:10A5E00000BF0C37BD465DF8047B704700E100E01A
:10A5F00000ED00E080B483B000AF78607B681B0B97
:10A600005BB218460C37BD465DF8047B704780B5D9
:10A6100082B000AF03460A46FB711346BB71BA799C
:10A6200097F9073011461846FFF7BAFF00BF083701
:10A63000BD4680BD80B582B000AF0346FB7197F97F
:10A6400007301846FFF78EFF00BF0837BD4680BDB4
:10A6500080B483B000AF78600B46FB70FB787A68FB
:10A66000134401221A6000BF0C37BD465DF8047B1D
:10A67000704780B485B000AF78600B467B807B88E4
:10A680007A68134400221A607B887A6813441B6836
:10A69000FB60FB6800BF1437BD465DF8047B704764
:10A6A00080B483B000AF78600B467B807B887A688B
:10A6B00013441B68002B14BF01230023DBB2184690
:10A6C0000C37BD465DF8047B704780B483B000AFA3
:10A6D000786039607B683A68C3F8042300BF0C37A0
:10A6E000BD465DF8047B704780B483B000AF7860EE
:10A6F00039607B683A68C3F8082300BF0C37BD4651
:10A700005DF8047B704780B483B000AF7860396037
:10A710007B68D3F804233B681340002B14BF01234C
:10A720000023DBB218460C37BD465DF8047B70474A
:10A7300080B483B000AF78600B46FB707B68D3F8C1
:10A74000043523F00302FB7803F003031A437B680C
:10A75000C3F8042500BF0C37BD465DF8047B704785
:10A7600080B483B000AF78600B46FB707B68D3F891
:10A77000083523F00302FB7803F003031A437B68D8
:10A78000C3F8082500BF0C37BD465DF8047B704751
:10A7900080B483B000AF78600B46FB707B68D3F861
:10A7A000103523F00F02FB7803F00F031A437B6888
:10A7B000C3F8102500BF0C37BD465DF8047B704719
:10A7C00080B485B000AFF8600B467A60FB72FA7A0D
:10A7D000FB6802F5A872796843F8221000BF1437AD
:10A7E000BD465DF8047B704780B483B000AF7860ED
:10A7F0007B689B0003F5A0739BB218460C37BD46DF
:10A800005DF8047B704780B483B000AF78604FF48C
:10A8100080327B6802FA03F318460C37BD465DF8B8
:10A82000047B704790B589B000AFF860B9607A607A
:10A83000FB681B791A4613465B0013449B00304AA1
:10A8400013447B617B691B7A002B03D00823FB61D7
:10A85000FB6950E07B697A681A60BB685A687B695B
:10A860005A600023FB760DE0FB681C68FB7E1846EF
:10A87000FFF7BAFF034619462046FFF7FAFEFB7EB4
:10A880000133FB76FB685B79FA7E9A42ECD3FB6876
:10A890001B681846FFF7AEFE03461A46BB68DB7816
:10A8A00019461046FFF7B3FEFB681B681846FFF712
:10A8B000A1FE03461846FFF7BDFEFB681A68BB6899
:10A8C0005B7819461046FFF733FFFB681A68BB68D0
:10A8D0009B7819461046FFF743FFFB681A68BB6870
:10A8E0001B7819461046FFF753FF7B6901221A7245
:10A8F0000023FB61FB6918462437BD4690BD00BFAD
:10A900009CC5002080B582B000AF78607B681B6872
:10A9100000211846FFF79CFE7B681B791946064A02
:10A920000B465B000B449B001344083302221A7051
:10A9300000BF0837BD4680BD9CC5002080B582B0F1
:10A9400000AF78607B681B680C211846FFF780FE1B
:10A9500000BF0837BD4680BD90B587B000AFF86036
:10A960007A601A460B46FB721346BB72FB7A184696
:10A97000FFF749FF7861BB7A002B11D0FB681C6898
:10A98000FB7A1846FFF730FF034619462046FFF7CB
:10A9900070FEFB681B6879691846FFF796FE05E0B4
:10A9A000FB681B6879691846FFF79EFEFB681B6809
:10A9B000F97A7A681846FFF703FF00BF1C37BD46D7
:10A9C00090BD80B586B000AFF860B9601346FB71EA
:10A9D0000023FB7528E0FB7D1846FFF705FF0346C3
:10A9E000BB82FB7D1846FFF70EFF3861BB8A194614
:10A9F000F868FFF755FE0346002B12D03969F86856
:10AA0000FFF781FE0346002B0BD0BB8A1946F8687E
:10AA1000FFF72FFEBB681B68BA685168BA8A1046F8
:10AA20009847FB7D0133FB75FA7DFB799A42D2D3BF
:10AA300000BF00BF1837BD4680BD000080B500AF25
:10AA4000042203490348FFF7BCFF00BF80BD00BFDD
:10AA50009CC500200080004080B500AF042203495F
:10AA60000348FFF7AEFF00BF80BD00BFA8C50020B0
:10AA70000090004080B483B000AF0346FB7197F9AB
:10AA80000730002B0BDBFB7903F01F02074997F916
:10AA900007305B09012000FA02F241F8232000BFD1
:10AAA0000C37BD465DF8047B704700BF00E100E055
:10AAB00080B483B000AF0346FB7197F90730002BD9
:10AAC00012DBFB7903F01F020A4997F907305B0993
:10AAD000012000FA02F2203341F82320BFF34F8F08
:10AAE00000BFBFF36F8F00BF00BF0C37BD465DF8DE
:10AAF000047B704700E100E080B582B000AF034600
:10AB0000FB7197F907301846FFF7B4FF00BF08370D
:10AB1000BD4680BD80B582B000AF0346FB7197F99A
:10AB200007301846FFF7C4FF00BF0837BD4680BD99
:10AB300080B483B000AF78600B46FB70FB787A6816
:10AB4000134401221A6000BF0C37BD465DF8047B38
:10AB5000704780B483B000AF78600B46FB70FB7821
:10AB60007A68134418460C37BD465DF8047B70477D
:10AB700080B483B000AF78600B467B807B887A68B6
:10AB8000134418460C37BD465DF8047B704780B40B
:10AB900083B000AF78607B689B0003F5A0739BB225
:10ABA00018460C37BD465DF8047B704780B582B00F
:10ABB00000AF78600B46FB707B681B68FA78114623
:10ABC0001846FFF7C6FF034618460837BD4680BD46
:10ABD00090B583B000AF786039607B681C683868D6
:10ABE000FFF7D5FF034619462046FFF7C1FF03468E
:10ABF00018460C37BD4690BD80B483B000AF786076
:10AC00000B467B807A887B68134418460C37BD4618
:10AC10005DF8047B704780B483B000AF78600B466A
:10AC2000FB70FA787B68134418460C37BD465DF814
:10AC3000047B704780B483B000AF78600B46FB7034
:10AC4000FA787B6813441A460123136000BF0C375F
:10AC5000BD465DF8047B704780B582B000AF786078
:10AC60007B681B6808211846FFF7E4FF00BF083720
:10AC7000BD4680BD80B582B000AF78600B46FB70EA
:10AC80007B681B68FA7811461846FFF7C4FF034635
:10AC900018460837BD4680BD80B582B000AF7860E9
:10ACA0000B467B807B681B687A8811461846FFF745
:10ACB000A3FF034618460837BD4680BD80B483B065
:10ACC00000AF78600B467B807B887A681344184617
:10ACD0000C37BD465DF8047B7047000080B483B03C
:10ACE00000AF0346FB71FB79034AD35C18460C376F
:10ACF000BD465DF8047B7047401A04002DE9F00F53
:10AD000086B000AF78617969002088468146C7E93E
:10AD100002894FF000004FF00001C7E90001F96817
:10AD20004E017E607E68B96846EAD1667E60B96889
:10AD300049013960D7E90001C7E902010146B1EBD9
:10AD40000804F96861EB09054FF000004FF00001BD
:10AD5000A90141EA9461A001021B61EB05034FF0D8
:10AD600000004FF00001D90041EA5271D0000246C4
:10AD70000B4612EB080A43EB090B4FF000024FF0B1
:10AD800000034FEACB1343EA5A634FEACA129246D2
:10AD90009B46504659464FF000024FF00003C20B4D
:10ADA00042EA4142CB0B134618461837BD46BDE870
:10ADB000F00F704780B582B000AF786079680020EE
:10ADC0000A4603464FF000004FF00001990341EAA4
:10ADD00092419003054A4FF0000315F041F80246F6
:10ADE0000B46134618460837BD4680BD40420F004B
:10ADF00080B584B000AF78607B681B68184608F0A7
:10AE000093FE0346BB60BB68002B01D100231BE00F
:10AE10007B685B6807F108021146184609F078FD67
:10AE2000F860FB68002B01D000230DE07B68DB6934
:10AE3000DA680132DA607B689869B9687B685B6AB6
:10AE40001A4601F0D2FC012318461037BD4680BDDA
:10AE500080B596B000AF786039607B68FB633B6873
:10AE60001B78042B00F2D78001A252F823F000BF18
:10AE7000FFAE0200ADAE020085AE0200A1AF02003F
:10AE8000CDAF0200012387F82C303B685B683B6341
:10AE90003B689B687B63FB6BDB691B68FA6BD26961
:10AEA000526807F12C0110469847C7E0FB6BDB693D
:10AEB00093F82630002B40F0BA80F86BFFF798FF2C
:10AEC000034683F00103DBB2002B00F0B280FB6B82
:10AED000DB6993F82530002B05D0FB6BDB69012281
:10AEE00083F82620A5E00023BB64BB6C002B40F058
:10AEF000A080544AE621002006F0CAFF99E03B6892
:10AF00009A68FB6BDB695B69D31A7B647B6C002BF3
:10AF10003AD0FB6BDB691969FB6BDB697A6C0A441D
:10AF20001A61002387F820303B685A68FB6BDB69A5
:10AF30005B6913447B627B6CBB62FB6BDB69002249
:10AF40005A61FB6B5868FB6BDB69183300221946AA
:10AF500009F082FD38653B6D002B0AD00023FB64AD
:10AF6000FB6C002B05D1374A40F20B11002006F094
:10AF70008FFFFB6BDB691B68FA6BD269526807F1C4
:10AF800020011046984756E000233B643B6C002BA1
:10AF900051D12C4A4FF48A71002006F079FF4AE023
:10AFA00007F1140300221A605A609A6002233B756D
:10AFB0003B681B793B76FB6BDB691B68FA6BD269DC
:10AFC000526807F114011046984737E03B685A6809
:10AFD000FB6BDB695B69D31ABB63FB6BDB691969CC
:10AFE000FB6BDB69BA6B0A441A6107F108030022A4
:10AFF0001A605A609A6003233B723B685B68FB608F
:10B00000FB6BDB691B68FA6BD269526807F10801B8
:10B010001046984712E000237B657B6D002B0CD116
:10B02000084A4FF49971002006F032FF05E000BF96
:10B0300004E000BF02E000BF00E000BF00BF5837DF
:10B04000BD4680BDF019040080B588B000AF7860BF
:10B050007B689B69DB681B0B5BB21846FFF75AFDE8
:10B060007B689B695B68D3F84C35FB617B68DB6967
:10B070001B69FA699A4227D97B68DB691B69FA69FF
:10B08000D31ABB6100233B737B68DB699A697B68D9
:10B09000DB695B6913443B61BB697B617B68DB698E
:10B0A00059697B68DB69BA690A445A617B68DB6964
:10B0B000FA691A617B68DB691B687A68D269526831
:10B0C00007F10C01104698477B689B69DB681B0BF6
:10B0D0005BB21846FFF710FD00BF2037BD4680BDAC
:10B0E00080B582B000AF03463960FB803868FFF757
:10B0F000ABFF00BF0837BD4680BD80B588B000AF4C
:10B1000078607B68FB6107F073FDB861FB69DB6900
:10B110001B6A1846FFF74EFE03465B087B617B699E
:10B12000052B38BF05237B61FB69DB6993F827306A
:10B1300083F00103DBB2002B45D1FB699B695B689F
:10B140004C211846FFF7F4FCFB699B695B68D3F858
:10B150004C353B61FB691B691B68FA6979691846C4
:10B1600007F0F0FCFB695B691B683A699A420CD0F6
:10B17000FB695B693A691A60FB695B69BA695A6085
:10B18000FB695B6901221A721EE0FB695B695B68FF
:10B190001946B86907F01BFDF860FB695B691B7A0B
:10B1A000002B11D0F868FFF7A9FD0246FB69DB69A7
:10B1B0001B6A9A4208D9FB695B6900221A72F86916
:10B1C000FFF742FF00E000BF2037BD4680BD000012
:10B1D00090B59BB000AFF860B9607A603B60BB6827
:10B1E0005B7F072B07D0FB681B69002B05D0BB6872
:10B1F0005B7F052B01D90723D9E1FB68DB6993F855
:10B200002730002B01D00823D1E1FB68DB697A6885
:10B210001A60FB68DB6900221A61FB68DB690022A7
:10B220009A61FB68DB690022DA61FB68DB69002256
:10B230005A61FB68DB690022DA60FB68DB693A6807
:10B240005A60FB68DB69BA6812691A62FB68DB69DD
:10B25000002283F82620BB681A7DFB68DB69012A7F
:10B260000CBF01220022D2B283F8252000233B66C6
:10B270000023FB650023BB6500237B65FB689B689F
:10B28000002B4CD09C4A07F1180392E80300186089
:10B2900004331980BB685B7F1846FFF71FFD034628
:10B2A000BB7600233B83FB689868FB681A6A07F14A
:10B2B00018031946FEF7DAFFF864FB6C002B01D087
:10B2C000032374E1FB689868BB681B695A09012372
:10B2D0000021FFF72DF8F864FB6C002B01D003234D
:10B2E00065E1FB689B6800211846FFF7C3FC3866E0
:10B2F000FB689B6808211846FFF7BCFCF865FB68F3
:10B300009B6804211846FFF7B5FCB865FB689B688D
:10B310004FF4A0711846FFF7BFFC786584E0FB6826
:10B32000DB68002B47D000233B7400237B74002391
:10B33000BB740623FB7400237B6104233B74FB680E
:10B340007B61BB685B7F1846FFF7C8FC0346FB7454
:10B35000FB68DB6807F11001684A1846FFF762FADC
:10B36000F864FB6C002B01D0032320E1FB68D86854
:10B37000BB681A6901230021FFF7EEFAFB68DB685E
:10B3800000211846FFF712FC3866FB68DB680C21C9
:10B390001846FFF70BFCF865FB68DB6810211846C0
:10B3A000FFF704FCB865FB68DB6800211846FFF76F
:10B3B0000FFC786538E0FB681B69002B27D0FB6821
:10B3C000DB6993F8243083F00103DBB2002B11D04A
:10B3D000FB681B694A4A0021184607F091FBF86494
:10B3E000FB6C002B01D0FB6CE1E0FB68DB69012208
:10B3F00083F82420FB685B6900221A72FB685B6992
:10B4000000221A60FB685B6900225A600CE000238E
:10B410003B653B6D002B05D13A4A4FF4F271002099
:10B4200006F036FD0323C2E0FB681B69002B6BD1DD
:10B4300000237B6610E0FB68DA697B6E08331344F7
:10B44000184602F0E1FCF864FB6C002B01D00323EA
:10B45000ADE07B6E01337B667B6E012BEBD9FB6825
:10B46000DB691C7AFB689B69DB684FF484711846C2
:10B47000FFF724FC03463A6E1946204602F042FDCF
:10B48000F864FB6C002B01D0032390E0FB6D002BD4
:10B490000CD0FB68DB691B7AF96D184602F068FD79
:10B4A000F864FB6C002B01D0032380E0FB68DB69B0
:10B4B0005B7ABA6D796D184602F024FDF864FB6C76
:10B4C000002B01D0032372E0FB689B695B684C335F
:10B4D000002B19D0FB68DB695A7AFB689B695B68B3
:10B4E0004C331946104602F043FDF864FB6C002B08
:10B4F0000AD003235BE000BF381A0400E1B0020069
:10B50000FBB00200F0190400BB685B683B62BB68DB
:10B510001B687B62BB689B68BB62BB68DB68FB62C5
:10B52000FB689B69DB684FF488711846FFF7C6FB20
:10B5300003463B6300237B630023BB630023FB6361
:10B54000BB681B7D87F84030BB685B7D87F8413066
:10B55000BB689B697B64BB685B7F87F84830BB68CE
:10B560001B7F87F84930FB68986907F12001FB6869
:10B57000114A00F015FFF864FB6C002B01D0FB6C46
:10B5800015E0FB681B68184608F0A2FAF864FB6C2B
:10B59000002B01D0FB6C0AE0FB685B68184609F0E1
:10B5A000E3FAFB68DB69012283F82720FB6C18466D
:10B5B0006C37BD4690BD00BF51AE020080B58AB069
:10B5C00000AF78607B681B68184608F0ADFA7862B7
:10B5D0007B68DB69DA680132DA607B6A002B0AD1AA
:10B5E00000233B623B6A002B05D1434A4FF415719F
:10B5F000002006F04DFC7B689B68002B05D07B6823
:10B600009B681846FFF728FB08E07B68DB68002B87
:10B6100004D07B68DB681846FFF790F97B681B69EC
:10B62000002B2DD17B68DB691B7A184602F0BFFC2A
:10B63000F861FB69002B0CBF01230023DBB2BB6167
:10B64000BB69002B05D12C4A40F26521002006F091
:10B650001FFC7B68DB695B7A184602F0A8FCF86186
:10B66000FB69002B0CBF01230023DBB27B617B69EC
:10B67000002B05D1204A40F26721002006F008FC8B
:10B680007B68DB697A6A9A617B6898697B685A6A29
:10B690000023796A01F03AF838613B69002B0CBF4E
:10B6A00001230023DBB2FB60FB68002B05D1124AAB
:10B6B0004FF41B71002006F0EBFB7B681B69002B2D
:10B6C00015D07B68DB691B6A1846FFF773FB0346DE
:10B6D0005B08BB60BB68052B38BF0523BB607B687C
:10B6E0001B691B687A68B968184607F02BFA00BF17
:10B6F0002837BD4680BD00BFF019040080B584B076
:10B7000000AFF860B9607A60FB689B697A68B968D5
:10B71000184600F075FF034618461037BD4680BD39
:10B7200080B588B000AFF860B9607A60FB68DB690B
:10B73000D969FB68DB697A680A44DA61FB68DB690E
:10B74000DA69FB685B6A9A4237D1FB68DB69DB69BF
:10B750007A68D31ABA681344BB60FB68DB690022BD
:10B76000DA61FB681B68B968184608F017FAFB68CD
:10B77000DB69DA68013ADA60FB68DB69DB68002BB9
:10B780000ADA0023FB61FB69002B05D1164A4FF44E
:10B790002271002006F07CFBFB68DB6993F8263001
:10B7A000002B1CD0F868FFF723FB0346FB76FB68F1
:10B7B000DB69002283F8262011E0FB68DB69DA6987
:10B7C000FB685B6A9A420AD900237B617B69002B84
:10B7D00005D1054A40F29621002006F059FB00BF32
:10B7E0002037BD4680BD00BFF019040080B483B08F
:10B7F00000AF0346FB7197F90730002B0BDBFB7999
:10B8000003F01F02074997F907305B09012000FA8E
:10B8100002F241F8232000BF0C37BD465DF8047BDF
:10B82000704700BF00E100E080B483B000AF034682
:10B83000FB7197F90730002B0CDBFB7903F01F023B
:10B84000074997F907305B09012000FA02F26033DB
:10B8500041F8232000BF0C37BD465DF8047B7047DC
:10B8600000E100E080B483B000AF03463960FB71B3
:10B8700097F90730002B0ADB3B68DAB20C4997F9DD
:10B8800007305201D2B20B4483F800230AE03B6830
:10B89000DAB20849FB7903F00F03043B5201D2B23C
:10B8A0000B441A7600BF0C37BD465DF8047B704729
:10B8B00000E100E000ED00E080B483B000AF78600C
:10B8C0007B681B0B5BB218460C37BD465DF8047BEA
:10B8D000704780B485B000AF78600B467B807B8872
:10B8E0007A68134400221A607B887A6813441B68C4
:10B8F000FB60FB6800BF1437BD465DF8047B7047F2
:10B9000080B483B000AF78600B467B807B887A6818
:10B9100013441B68002B14BF01230023DBB218461D
:10B920000C37BD465DF8047B704780B483B000AF30
:10B9300078600B467B807B887A68134418460C3706
:10B94000BD465DF8047B704780B483B000AF78607B
:10B9500039607B683A68C3F8042300BF0C37BD46E2
:10B960005DF8047B704780B485B000AF78607B6879
:10B97000D3F88034FB607B68FA68C3F88024FB68E6
:10B9800018461437BD465DF8047B704780B483B019
:10B9900000AF78607B680822C3F8002500BF0C3731
:10B9A000BD465DF8047B704780B485B000AFF86099
:10B9B000B9607A60FB68BA68C3F80C25FB687A68DE
:10B9C000C3F8142500BF1437BD465DF8047B7047EB
:10B9D00080B485B000AFF860B9607A60FB68BA687F
:10B9E000C3F80825FB687A68C3F8102500BF143730
:10B9F000BD465DF8047B704780B483B000AF7860CB
:10BA00000B46FB70FB787A68134401221A6000BF72
:10BA10000C37BD465DF8047B704780B483B000AF3F
:10BA200078600B46FB70FA787B68134418460C3735
:10BA3000BD465DF8047B704780B483B000AF78608A
:10BA40000B46FB701346BB70FA78BB781343DBB22E
:10BA50001A467B68C3F86C2500BF0C37BD465DF8FD
:10BA6000047B704780B483B000AF786039607B6836
:10BA70003A68C3F8242500BF0C37BD465DF8047B47
:10BA8000704780B485B000AFF860B9607A60BA687A
:10BA9000FB68C3F84425FB687A68C3F8482500BFF3
:10BAA0001437BD465DF8047B704780B483B000AFA7
:10BAB00078607B68D3F84C3518460C37BD465DF886
:10BAC000047B704780B485B000AFF860B9607A60DD
:10BAD000BA68FB68C3F83425FB687A68C3F8382570
