:020000022000DC
:10600000000001207DF00200A5F00200A7F00200D0
:10601000A9F00200ABF00200ADF0020000000000A9
:10602000000000000000000000000000AFF00200CF
:10603000B1F0020000000000B3F00200B5F0020071
:10604000554B030005DD0200B15B0300B7F0020011
:10605000B7F00200B7F00200B95A0300B7F002002F
:10606000A1980200BD980200B7F0020099930200C7
:10607000B7F00200B7F00200B7F00200B7F002007C
:10608000B7F0020065200300B7F00200B7F002008D
:10609000B7F00200B7F0020079A2030085E4020025
:1060A000B7F00200B7F00200B7F00200B7F002004C
:1060B000B7F00200B7F0020000000000000000008E
:1060C000B7F00200B7F00200B7F00200B7F002002C
:1060D000B1930200B7F00200B7F002000000000028
:1060E00000000000000000000000000000000000B0
:1060F00000000000000000000000000000000000A0
:10610000000000000000000000000000000000008F
:10611000000000000000000000000000000000007F
:10612000000000000000000000000000000000006F
:10613000000000000000000000000000000000005F
:10614000000000000000000000000000000000004F
:10615000000000000000000000000000000000003F
:10616000000000000000000000000000000000002F
:10617000000000000000000000000000000000001F
:10618000000000000000000000000000000000000F
:1061900000000000000000000000000000000000FF
:1061A00000000000000000000000000000000000EF
:1061B00000000000000000000000000000000000DF
:1061C00000000000000000000000000000000000CF
:1061D00000000000000000000000000000000000BF
:1061E00000000000000000000000000000000000AF
:1061F000000000000000000000000000000000009F
:1062000010B5054C237833B9044B13B10448AFF3F0
:1062100000800123237010BDD09B002000000000EF
:10622000440B040008B5034B1BB103490348AFF30B
:10623000008008BD00000000D49B0020440B040037
:10624000A3F5803A704700BF174B002B08BF134BD4
:106250009D46FFF7F5FF00218B460F461348144A71
:10626000121A14F0E5FA0E4B002B00D098470D4B94
:10627000002B00D098470020002104000D000D489D
:10628000002802D00C48AFF3008014F08FFA2000F1
:10629000290010F051FF14F075FA00BF000008004B
:1062A000000000000000000000000120D09B002042
:1062B00030DB0020000000000000000080B586B048
:1062C00000AFF860B9601346FB80BB687B617B69F7
:1062D000DB68002B03D07B69DB68F868984700BF58
:1062E0001837BD4680BD80B586B000AF7860396094
:1062F0007B681A883B689B889A4218D13B680A33AE
:106300007B617B691A887B689B889A4210D13B68C5
:106310009B88FB8102233B737B699B793B747B6881
:106320009B6807F10C0211467868984700E000BFAF
:106330001837BD4680BD80B584B000AF7860396045
:106340007B681A883B689B889A4219D13B685A89B6
:106350007B689B889A4214D13B68DB89012B10D162
:106360003B689B887B8101233B723B681B7C3B73B2
:106370007B689B6807F1080211467868984700E03F
:1063800000BF1037BD4680BD80B586B000AF7860D5
:1063900039603B681B78002B58D13B689B8841F6DD
:1063A0000F02934252D13B689B79012B4ED10023BF
:1063B0003B733B685B88FB810023FB7524E0FA7D1F
:1063C00039681346DB0013445B000B440E331B8813
:1063D00042F61922934214D1FA7D39681346DB0044
:1063E00013445B000B4418331B883B82FA7D3968E9
:1063F0001346DB0013445B000B4416331B887B827F
:1064000007E0FB7D0133FB753B681B7AFA7D9A42FE
:10641000D5D37B681B884FF6FF7293420DD07B6803
:106420005B88002B09D17B689B88002B05D17B689A
:10643000023307F11002106818607B689B6807F14F
:106440000C0211467868984700BF02E03B681B7851
:10645000022B00BF1837BD4680BD000080B58CB050
:1064600000AF78600B46FB70FB78FB85FB8DDBB2E1
:106470003B72FB8D1B0A9BB2DBB27B7207F10C03F4
:1064800020220021184614F0D3F901233B730F4B4F
:106490007B617B68BB617B685B88FB8302237B84B9
:1064A00007F108037B6200233B8401233B777B6871
:1064B00018697B681A8807F10C03194612F0D0FDA1
:1064C000034618463037BD4680BD00BFBD6202009E
:1064D00080B584B000AF786039607B68002B01D153
:1064E0000E2325E03B68002B01D10E2320E0012381
:1064F000BB7341F60F03BB817B684FF6FF721A80B6
:106500007B6800225A807B6800229A803B681A6868
:106510007B689A603B685A687B68DA603B689A6877
:106520007B681A6107F10C03184611F0B3FE0346AD
:1065300018461037BD4680BD80B483B000AF786088
:1065400039607B681A883B689B889A4209D17B68CE
:106550004FF6FF721A807B6800225A807B68002207
:106560009A8000BF0C37BD465DF8047B704780B54C
:1065700084B000AF786039607B68002B1ED03B6828
:10658000002B1BD03B68FB607B681B88392B06D037
:10659000392B15DC112B0CD0362B05D010E0796887
:1065A000F868FFF7C8FE0CE07968F868FFF79BFE13
:1065B00007E07968F868FFF7BFFF02E000BF00E07E
:1065C00000BF1037BD4680BD80B582B000AF786097
:1065D0007B68002B01D10E230CE07B681B884FF6F3
:1065E000FF72934201D1082304E001217868FFF78C
:1065F00035FF034618460837BD4680BD80B58AB0D2
:1066000000AF78607B68002B01D10E2321E07B680E
:106610001B884FF6FF72934201D1082319E007F15E
:10662000080320220021184614F002F900233B72CF
:106630000A4B3B617B687B617B689B883B837B6803
:1066400018697B681A8807F10803194612F008FDDB
:10665000034618462837BD4680BD00BFBD62020014
:1066600080B584B000AFF8600B467A607B81FB6830
:10667000002B01D10E2312E0FB687A891A807B6817
:10668000002B04D0FB687A68023312681A60FB683A
:106690001B697A891146184612F076FD03461846A2
:1066A0001037BD4680BD75DF704700BF184676DFE6
:1066B000704700BF18467FDF704700BF18468FDF66
:1066C000704700BF184680B483B000AF78604FF0C9
:1066D000A04318460C37BD465DF8047B704780B573
:1066E00084B000AF78603B1D1846FFF7ECFFF86000
:1066F0007B68012202FA03F31946F86800F019F8E2
:1067000000BF1037BD4680BD80B584B000AF786053
:106710003B1D1846FFF7D7FFF8607B68012202FA9D
:1067200003F31946F86800F013F800BF1037BD46B0
:1067300080BD80B483B000AF786039607B683A6810
:10674000C3F8082500BF0C37BD465DF8047B7047D1
:1067500080B483B000AF786039607B683A68C3F872
:106760000C2500BF0C37BD465DF8047B7047000068
:1067700080B582B000AF0AF0ADFE78607B683B6008
:106780003B68002B04D0044A802138680AF0A8F83E
:1067900000BF0837BD4680BDD0E4030080B582B09D
:1067A00000AF7860044AB22178680AF099F800BF17
:1067B0000837BD4680BD00BFD0E4030080B584B07B
:1067C00000AF104813F00AF9F860FB68BB60BB68C3
:1067D000002B04D00C4ABB21B8680AF081F80120D4
:1067E00010F0A0FAF860FB687B607B68002B04D097
:1067F000054ABE2178680AF073F800BF1037BD461D
:1068000080BD00BFC8AD0020D0E40300F0B58BB060
:1068100004AF78607B681B78062B5ED801A252F823
:1068200023F000BF41680200DB680200DB68020061
:10683000DB680200BF680200596802007568020048
:10684000294A2A4BD31ADB081B0443F003032849C7
:10685000184609F0A1F843E07B685B683B613B693F
:10686000FB60FB68002B3AD0224AD221F8680AF07C
:1068700037F834E07B685B687B611B4A1B4BD31A9B
:10688000DB081B0443F003007B695B781D467B69D2
:106890009B781E467B69DB781A467B691B79194613
:1068A0007B695B791C467B699B7903930294019118
:1068B000009233462A46104909F0F4F810E00A4ADB
:1068C0000A4BD31ADB081B0443F003030B49184699
:1068D00009F062F8FFF772FF02E000BF00E000BFBE
:1068E00000BF1C37BD46F0BD9C0B04005C0B0400D0
:1068F0000CE50300D0E403001CE503004CE50300B5
:1069000080B58AB000AF3B1D10220021184613F05D
:106910008FFF01233B7201233B743B1D214A194623
:10692000214812F0FBFF38623B6AFB61FB69002BD8
:1069300004D01E4AFE21F86909F0D2FF00237B62D1
:1069400017E01B4A7B6A52F823301A46002116488A
:1069500012F009FE38623B6A7B617B69002B05D02F
:10696000124A40F20311786909F0BAFF7B6A0133D9
:106970007B627B6A032BE4DD012201210A4812F0CD
:106980001EFE38623B6ABB61BB69002B05D0074A1B
:106990004FF48471B86909F0A3FF00BF2837BD46E2
:1069A00080BD00BF0D680200C8AD0020D0E4030028
:1069B000D88F002080B582B000AF78607B685B889C
:1069C0001A4613465B001344DB00114A13447968EE
:1069D000184613F0BFF87B685B881A46342302FB25
:1069E00003F30C4A13447968184606F0EBFA7B6807
:1069F0005B881A4613469B0013449B00064A1344C7
:106A000079681846FFF7C0FC00BF0837BD4680BD57
:106A10001CAC00207CAC00204CAD0020B0B588B090
:106A200002AF786039603B681B78002B07D0002BE1
:106A3000C0F2FD80013B012B00F2F98033E03B689E
:106A400059883B6804331A467868FFF709FE786175
:106A50007B693B613B69002B05D0784A4FF4987104
:106A6000386909F03DFF7868FFF7C8FD78617B69F8
:106A7000FB60FB68002B05D0704A4FF49B71F868EF
:106A800009F02EFF7868FFF79FFD78617B69BB6096
:106A9000BB68002B00F0CD80684A4FF49D71B86848
:106AA00009F01EFFC5E0664A664BD31ADB081B04DB
:106AB00043F003003B681B791A46634908F07BFFEB
:106AC0003B681A793B685B881C46104605F0C8FC99
:106AD000F0EE407A5D4AE30013440433C3ED007ADC
:106AE000574A584BD31ADB081B0443F003003B689A
:106AF0005B881D463B685B88544ADB0013440433C3
:106B0000D3ED007AF5EEC07AF1EE10FA10D53B68BD
:106B10005B884E4ADB0013440433D3ED007ABFEEAA
:106B2000007AF4EEC77AF1EE10FA01DD484A00E08F
:106B3000484A3B685B884549DB000B440433D3ED8E
:106B4000007AFDEEE77A17EE904A3B685B883F4992
:106B5000DB000B440433D3ED007AF5EEC07AF1EE9E
:106B600010FA16DD3B685B883849DB000B440433C0
:106B700093ED007A3B685B883449DB000B440433B7
:106B8000D3ED007AFDEEE77AF8EEE77A77EE677AF2
:106B900015E03B685B882D49DB000B440433D3EDE3
:106BA000007AFDEEE77AB8EEE77A3B685B88274922
:106BB000DB000B440433D3ED007A77EE677A9FED68
:106BC000267A67EE877AFDEEE77A17EE903A019320
:106BD000009413462A46214908F02EFF3B685B8843
:106BE0001A4ADB0013440433D3ED007A3B685B8818
:106BF0001C46B0EE670A05F07FFC03461A46134BAD
:106C000003F834200E4A0F4BD31ADB081B0443F061
:106C100003003B685B8819463B685B881A460B4B50
:106C200013F832300A460E4908F0D8FE02E000BFE1
:106C300000E000BF00BF1837BD46B0BDD0E4030080
:106C40009C0B04005C0B04005CE50300EC9B002043
:106C50007CE5030080E503000000C84284E50300F2
:106C6000ACE5030080B586B000AF164B3B60164B19
:106C70007B60164BBB6000237B611AE07A69134688
:106C80009B0013449B00124A13443A46114618468F
:106C9000FFF71EFC38613B69FB60FB68002B05D0E9
:106CA0000C4A40F26311F86809F01AFE7B6901335F
:106CB0007B617B69032BE1D900BF00BF1837BD465C
:106CC00080BD00BF1D6A02009D6702002099002060
:106CD0004CAD0020D0E4030080B586B000AF7860F2
:106CE0003960304A304BD31ADB081B0443F00303EE
:106CF0002E49184608F050FE3B681B78022B3FD007
:106D0000022B4BDC002B01D0012B47E0254A264B00
:106D1000D31ADB081B0443F003032549184608F087
:106D20003BFE3B6859883B680E331A46786813F07F
:106D300095F878617B693B613B69002B05D01D4A62
:106D40004FF4BE71386909F0CBFD786813F068F82C
:106D500078617B69FB60FB68002B05D0154A40F227
:106D60007F11F86809F0BCFD0E4A0F4BD31ADB08FF
:106D70001B0443F003031049184608F00DFE0DE014
:106D8000084A094BD31ADB081B0443F003030B49E1
:106D9000184608F001FEFFF711FD00BF00BF1837CD
:106DA000BD4680BD9C0B04005C0B0400D0E50300D5
:106DB000E8E50300D0E40300FCE503002CE6030053
:106DC00080B5AAB000AF786039607B680433C7F83B
:106DD00098307B681B88103B462B00F2088201A28A
:106DE00052F823F0016F02007F700200EF71020081
:106DF000E5700200EF710200EF710200EF71020016
:106E0000EF710200EF710200EF710200EF710200FA
:106E1000C1700200EF710200EF710200EF71020019
:106E200017710200EF7102004F710200EF71020052
:106E3000EF710200EF710200EF710200EF710200CA
:106E4000EF710200EF710200EF710200EF710200BA
:106E5000EF710200EF710200EF710200EF710200AA
:106E6000EF710200EF710200EF710200EF7102009A
:106E7000EF710200EF710200EF710200EF7102008A
:106E8000EF710200EF710200EF710200EF7102007A
:106E90008F710200EF710200EF710200EF710200CA
:106EA000EF710200EF710200EF710200EF7102005A
:106EB000EF710200EF710200EF710200EF7102004A
:106EC000EF710200EF710200EF710200EF7102003A
:106ED000EF710200EF710200EF710200EF7102002A
:106EE000EF710200EF710200EF710200EF7102001A
:106EF000EF710200EF710200EF710200BF7102003A
:106F00007B689B881A4613465B001344DB00C04A2B
:106F100098187B689B880022194612F09FFFC7F8DB
:106F2000A400D7F8A430C7F88830D7F88830002BF1
:106F300006D0B84A40F2AF11D7F8880009F0D0FC6B
:106F4000D7F898301B881A46342302FB03F3B24A61
:106F50009818D7F898301B880022194606F066FB6F
:106F6000C7F8A400D7F8A430C7F88430D7F8843025
:106F7000002B06D0A74A40F2B311D7F8840009F0DD
:106F8000AFFCD7F898301B881A4613469B00134471
:106F90009B00A24A9818D7F898301B8800221946FF
:106FA000FFF75EFBC7F8A400D7F8A430C7F880301D
:106FB000D7F88030002B06D0964A40F2B711D7F8A8
:106FC000800009F08DFC06F055FD0346032B01D827
:106FD000FFF7F4FB07200FF0A5FEC7F8A400D7F8D1
:106FE000A430FB67FB6F002B05D08A4A4FF4E17198
:106FF000F86F09F075FC4FF413620021884813F014
:1070000017FC7B689B881946854811F0D7F9C7F8AB
:10701000A400D7F8A430BB67BB6F002B05D07D4A16
:1070200040F2C711B86F09F05BFC7E4B1B88A7F8D4
:1070300070307B689B8807F1700211461846FFF795
:107040003EFBC7F8A400D7F8A4307B677B6F002B0A
:1070500005D0704A40F2D111786F09F041FCD7F8A1
:1070600098301B881A4607F108036F49184614F038
:1070700051F807F10803184601F070FCC4E0D7F896
:1070800098301B881A4607F108036849184614F01F
:1070900041F807F10803184601F060FC644A654BAB
:1070A000D31ADB081B0443F00300D7F898301B8881
:1070B0001A46D7F898301B795F4908F08FFCA3E097
:1070C000D7F898301B79022B40F09380584A594BDF
:1070D000D31ADB081B0443F003035849184608F091
:1070E0005BFC86E07B689888002300228521FFF7FF
:1070F000E2FAC7F8A400D7F8A430C7F88C30D7F864
:107100008C30002B77D0434A40F2F511D7F88C0031
:1071100009F0E6FB6FE0D7F898301A88D7F8983076
:10712000043319461046FFF7BEFAC7F8A400D7F893
:10713000A430C7F89030D7F89030002B5DD0354A96
:107140004FF4FE71D7F8900009F0CAFB55E0002318
:1071500087F86C30002387F86D307B689B8807F1D7
:107160006C0211461846FFF7AAFAC7F8A400D7F830
:10717000A430C7F89430D7F89430002B3FD0254A7C
:107180004FF40271D7F8940009F0AAFB37E07B684E
:107190009B8813211846FFF78AFAC7F8A400D7F88E
:1071A000A430C7F89C30D7F89C30002B29D0194A5E
:1071B00040F21121D7F89C0009F092FB21E07B6896
:1071C0009B8813211846FFF772FAC7F8A400D7F876
:1071D000A430C7F8A030D7F8A030002B13D00D4A48
:1071E00040F21921D7F8A00009F07AFB0BE000BFAC
:1071F0000AE000BF08E000BF06E000BF04E000BFF7
:1072000002E000BF00E000BF00BFA837BD4680BD60
:107210001CAC0020D0E403007CAC00204CAD00206E
:10722000E88F0020B0E603003CE603004CE60300D4
:107230009C0B04005C0B040060E6030090E6030076
:1072400080B586B000AF12F091FF78617B693B6139
:107250003B69002B05D0164A4FF40C71386909F0D0
:107260003FFB00237B603B1D1946012013F038F8DB
:1072700078617B69FB60FB68002B05D00C4A40F20B
:107280003621F86809F02CFB3B1D184613F058F91D
:1072900078617B69BB60BB68002B05D0044A40F273
:1072A0003A21B86809F01CFB00BF1837BD4680BD05
:1072B000D0E4030080B582B000AF786039603B68ED
:1072C0001B8840F6772293421FD1124A124BD31AE1
:1072D000DB081B0443F003031049184608F05CFB6D
:1072E0003B689B88033B9AB20D4B1A80094A0A4BB4
:1072F000D31ADB081B0443F00300094B1B881A4612
:10730000074B1B88074908F069FB00BF0837BD46DB
:1073100080BD00BF9C0B04005C0B0400B4E60300BE
:1073200034990020D0E6030080B584B000AF124944
:10733000124811F0E2FAF860FB68BB60BB68002BF2
:1073400005D00F4A40F25221B86809F0C9FAF72176
:107350000A4811F0FEFAF860FB687B607B68002B3E
:1073600005D0074A40F25521786809F0B9FA00BF04
:107370001037BD4680BD00BFB57202009CAD002035
:10738000D0E4030080B584B000AF3B460822002162
:10739000184613F04DFA0C4B3B600C4B7B603B46A0
:1073A000184610F043FFF860FB68BB60BB68002B19
:1073B00005D0074A40F27D21B86809F091FA00BF74
:1073C0001037BD4680BD00BFB5690200209900207E
:1073D000D0E4030080B584B000AF786039603A68CB
:1073E0007968134809F034FCF860FB68042B0AD173
:1073F000104A114BD31ADB081B0443F003030F4957
:10740000184608F0C9FAFB68002B02D10C4800F0BE
:107410008FFBFB68BB60BB68002B05D0094A4FF4AB
:107420002F71B86809F05CFA00BF1037BD4680BD07
:107430000C9C00209C0B04005C0B040034E7030050
:107440008D7B0200D0E4030080B59AB002AF786073
:1074500039600B20FFF743F93B681B78013B072B92
:1074600000F2AE8101A252F823F000BF8D74020039
:10747000C1770200C1770200DD7702009F7402002D
:10748000C1770200FB7502007175020039687868E7
:1074900000F030FA3968786800F054FA9FE1002370
:1074A00087F85F305FE03C237B657A6D07F1080366
:1074B0000021184613F0BCF93B685B88A7F8403000
:1074C00001237B7297F85F303A681B011344043341
:1074D0001B6807EE903AB8EEE77ADFEDC46AC7EEB4
:1074E000267AC7ED0C7A97F85F303A681B0113448F
:1074F00008331B6807EE903AB8EEE77ADFEDBB6A17
:10750000C7EE267AC7ED0D7A97F85F303A681B010F
:1075100013440C331B6807EE903AB8EEE77ADFEDC0
:10752000B36AC7EE267AC7ED0E7A97F85F303A68ED
:107530001B01134410331B6807EE903AB8EEE77A4C
:10754000DFEDAA6AC7EE267AC7ED0F7A07F154027B
:1075500007F1080311461846FFF73CFF97F85F3024
:10756000013387F85F3097F85F30042B9BD936E101
:107570000C23BB653B68DB6807EE903AB8EEE77A10
:10758000DFED9B6AC7EE267AC7ED127A3B689B68EF
:1075900007EE903AB8EEE77ADFED956AC7EE267A05
:1075A000C7ED137A3B685B6807EE903AB8EEE77A6E
:1075B000DFED8F6AC7EE267AC7ED147A8D4A8E4BBF
:1075C000D31ADB081B0443F00300D7ED127AFDEE5B
:1075D000E77A17EE902AD7ED137AFDEEE77A17EEE9
:1075E000901AD7ED147AFDEEE77A17EE903A0093F1
:1075F0000B46824908F008FAF1E0002387F85E3074
:10760000D8E03C237B647A6C07F10803002118461C
:1076100013F00EF93B685B88A7F8403001233B72FA
:1076200097F85E2039681346DB0013445B000B4477
:107630000A33B3F9003007EE903AB8EEE77ADFED9F
:10764000706AC7EE267AC7ED037A97F85E2039682C
:107650001346DB0013445B000B440C33B3F90030DA
:1076600007EE903AB8EEE77ADFED656AC7EE267A64
:10767000C7ED047A97F85E2039681346DB0013449F
:107680005B000B440E33B3F9003007EE903AB8EECE
:10769000E77ADFED5B6AC7EE267AC7ED057A97F8E1
:1076A0005E2039681346DB0013445B000B4404334F
:1076B000B3F9003007EE903AB8EEE77ADFED516AA1
:1076C000C7EE267AC7ED067A97F85E20396813462A
:1076D000DB0013445B000B440633B3F9003007EEC4
:1076E000903AB8EEE77ADFED476AC7EE267AC7ED43
:1076F000077A97F85E2039681346DB0013445B0075
:107700000B440833B3F9003007EE903AB8EEE77A4D
:10771000DFED3C6AC7EE267AC7ED087A97F85E205F
:1077200039681346DB0013445B000B441033B3F994
:10773000003007EE903AB8EEE77AF3EE006AC7EE53
:10774000267AC7ED097A97F85E2039681346DB0080
:1077500013445B000B441233B3F9003007EE903A48
:10776000B8EEE77AF3EE006AC7EE267AC7ED0A7A3A
:1077700097F85E2039681346DB0013445B000B4426
:107780001433B3F9003007EE903AB8EEE77AF3EE2F
:10779000006AC7EE267AC7ED0B7A07F1440207F1BB
:1077A000080311461846FFF715FE97F85E300133BF
:1077B00087F85E3097F85E30042B7FF622AF0EE03C
:1077C0000C4A0D4BD31ADB081B0443F003003B6843
:1077D0001B781A460C4908F0EEF800E000BF0B20B9
:1077E000FEF792FF00BF6037BD4680BD0000804EAF
:1077F000000080479C0B04005C0B0400C4E70300FE
:107800000000004200008044D8E7030080B584B047
:1078100000AF134B3B600023FB6019E0FB68342290
:1078200002FB03F30F4A13443A461146184605F08B
:107830004FFDB860BB687B607B68002B05D00A4AAF
:1078400040F27131786809F04BF8FB680133FB6056
:10785000FB68032BE2D900BF00BF1037BD4680BDD7
:10786000497402007CAC0020D0E4030080B586B0EF
:1078700000AF164B3B60164B7B60164BBB60002382
:107880007B611AE07A6913465B001344DB00124AFD
:1078900013443A461146184612F0EEF938613B6936
:1078A000FB60FB68002B05D00C4A40F28631F8687B
:1078B00009F016F87B6901337B617B69032BE1DDFD
:1078C00000BF00BF1837BD4680BD00BFD96C0200A5
:1078D0009D670200209900201CAC0020D0E403002A
:1078E00080B500AFFFF7C2FFFFF790FFFFF7BAF9CF
:1078F00000BF80BD80B584B000AF786039603B6860
:1079000059883B6804331A460A4805F08FFEF86030
:10791000094A0A4BD31ADB081B0443F003003B68F7
:107920005B881A46064908F046F800BF1037BD4686
:1079300080BD00BF7CAC00209C0B04005C0B0400ED
:1079400000E8030080B588B000AF786039603B681C
:107950005B881A46342302FB03F32D4A134418466E
:1079600005F0B4FDF861FB69BB61BB69002B05D074
:10797000284A40F2A931B86908F0B2FF3B685B8839
:107980001A46342302FB03F3214A1344184605F038
:10799000BBFDF861FB697B617B69002B05D01D4A4B
:1079A00040F2AB31786908F09BFF3B685B881A4670
:1079B000342302FB03F3164A1344184605F0C2FDB4
:1079C000F861FB693B613B69002B05D0114A40F22D
:1079D000AD31386908F084FF3B685B881A46342370
:1079E00002FB03F30A4A1344184605F0C9FDF86187
:1079F000FB69FB60FB68002B05D0064A40F2AF3103
:107A0000F86808F06DFF00BF2037BD4680BD00BF9D
:107A10007CAC0020D0E4030084B080B582B000AF1D
:107A200007F1100C8CE80F000023FB711AE0FB79C2
:107A3000342202FB03F3114A134407F110011846E4
:107A400005F0BCFD38600E4A0E4BD31ADB081B0450
:107A500043F003033A680C49184607F0ACFFFB7982
:107A60000133FB71FB79032BE1D900BF00BF08375D
:107A7000BD46BDE8804004B0704700BF7CAC00202C
:107A80009C0B04005C0B0400F0E4030080B584B0A0
:107A900000AF0023FB601EE01349FA6813465B0049
:107AA0001344DB000B4402331B8813211846FEF7F6
:107AB000FEFDB860BB68082B0AD0BB687B607B68A2
:107AC000002B05D0094A40F2CF31786808F008FF52
:107AD000FB680133FB60FB68032BDDDD00BF00BFEB
:107AE0001037BD4680BD00BF1CAC0020D0E40300B1
:107AF00080B582B000AF4FF480520A490A4809F0BD
:107B00000AF878607B683B603B68002B05D0074A29
:107B100040F2DE31386808F0E3FE00BF0837BD46AA
:107B200080BD00BF1C9C00200C9C0020D0E4030002
:107B300080B584B000AF7860114B5B6C002B05D032
:107B40000F4B5B6C01330E4A536415E00C4B5B6CBE
:107B500001330B4A53640B4A0021002009F05EF9FF
:107B6000F860FB68BB60BB68002B05D0064A40F29A
:107B7000F131B86808F0B4FE00BF1037BD4680BDD3
:107B8000888F00208D7B0200D0E403002DE9F04FA8
:107B9000ADF2DC4D12AF07F59263A3F264431860B7
:107BA0000A4607F59263A3F266431A80FEE00023BB
:107BB00087F88F343C23C7F884341023C7F88834FF
:107BC00007F2844207F1340319467E4808F0FFFFAC
:107BD0000346002B40F0D68007F59263A3F25C4386
:107BE0005B78002B3CD007F59263A3F25C431B8FBC
:107BF0001E4607F59263A3F25C439B6A184615F094
:107C00004FFF04460D4607F59263A3F25C43DB6A1F
:107C1000184615F045FF8046894607F59263A3F2A2
:107C20005C431B6B184615F03BFF82468B4607F5FD
:107C30009263A3F25C435B6B184615F031FF02467A
:107C40000B4607F17000CDE90623CDE904ABCDE981
:107C50000289CDE9004532465B4913F05BFA89E0C1
:107C600007F59263A3F25C431B78002B00F082803F
:107C700007F59263A3F25C431B8F1E4607F59263E0
:107C8000A3F25C435B68184615F00AFFC7E90801D8
:107C900007F59263A3F25C439B68184615F000FF5A
:107CA000C7E9060107F59263A3F25C43DB68184657
:107CB00015F0F6FEC7E9040107F59263A3F25C43F1
:107CC0001B69184615F0ECFEC7E9020107F592633F
:107CD000A3F25C435B69184615F0E2FEC7E90001B8
:107CE00007F59263A3F25C439B69184615F0D8FE32
:107CF00082468B4607F59263A3F25C43DB69184624
:107D000015F0CEFE8046894607F59263A3F25C43E8
:107D10001B6A184615F0C4FE04460D4607F592632B
:107D2000A3F25C435B6A184615F0BAFE02460B46A6
:107D300007F17000CDE91023CDE90E45CDE90C899E
:107D4000CDE90AAB97ED007B8DED087B97ED027BCB
:107D50008DED067B97ED047B8DED047B97ED067B27
:107D60008DED027B97ED087B8DED007B3246174948
:107D700013F0D0F9012387F88F34154B5B6C013B6E
:107D8000134A536497F88F34002B0FD007F1700318
:107D9000184603F04CFF0346C7F8703407F58E62AF
:107DA00007F170031146184600F0FAFF084B5B6CB0
:107DB000002B7FF4FCAE00BF00BF07F29447BD4626
:107DC000BDE8F08F0C9C00203CE8030064E8030051
:107DD000888F002080B582B000AF354800F0BEFD2E
:107DE000344800F0BBFD344B1B78002B02D03348E5
:107DF00000F0B4FD304B5B78002B02D0304800F02F
:107E0000ADFD2D4B9B78002B02D02E4800F0A6FD37
:107E1000294B5B79002B02D02B4800F09FFD264BAD
:107E2000DB78002B02D0294800F098FD224B1B790B
:107E3000002B02D0264800F091FD1F4B9B69002BC0
:107E400019D0244800F08AFD1B4B9A693B46224911
:107E5000184613F05FF9214A214BD31ADB081B04A3
:107E600043F003033A461F49184607F0A4FD3B467A
:107E7000184600F073FD104B93F84C30002B02D0E5
:107E8000194800F06BFD0C4B1B7A002B02D01748F1
:107E900000F064FD084B9B79002B02D0144800F0E1
:107EA0005DFD034800F05AFD00BF0837BD4680BDA8
:107EB000ACE80300D8E80300888F0020ECE803005A
:107EC00008E9030028E9030044E9030060E903002E
:107ED00084E90300A8E90300C4E903009C0B040043
:107EE0005C0B0400CCE90300D8E90300ECE90300D3
:107EF0000CEA030080B5A6B000AF07F16403184692
:107F000005F0D0FD0023C7F894301BE0D7F894307B
:107F10005B0007F19802134433F8303CA7F8923025
:107F2000D7F894305A1CB7F8923038460A4913F003
:107F3000F1F83B46184600F011FDD7F894300133B4
:107F4000C7F894307B6ED7F894209A42DED300BFF6
:107F500000BF9837BD4680BD20EA030090B5ABB0A6
:107F600004AF234800F0FAFC07F16403184605F05B
:107F700099FD0023C7F894302DE0D7F894305B00CA
:107F800007F19802134433F8303CA7F89230B7F861
:107F90009240B7F89230174ADB00134404331B6851
:107FA000184615F07DFD02460B46B7F892101148B1
:107FB00010F8311038460291CDE9002322460E49CF
:107FC00013F0A8F83B46184600F0C8FCD7F89430E8
:107FD0000133C7F894307B6ED7F894209A42CCD303
:107FE000034800F0BBFC00BF9C37BD4690BD00BFFE
:107FF000ACE80300EC9B002044EA030080B483B0AB
:1080000000AF0346FB71044AFB79137200BF0C37C3
:10801000BD465DF8047B7047888F002080B483B034
:1080200000AF0346FB71054AFB7982F84C3000BF74
:108030000C37BD465DF8047B704700BF888F002079
:1080400080B483B000AF0346FB71044AFB79137020
:1080500000BF0C37BD465DF8047B7047888F002059
:1080600080B483B000AF0346FB71044AFB795370C0
:1080700000BF0C37BD465DF8047B7047888F002039
:1080800080B483B000AF0346FB71044AFB79937060
:1080900000BF0C37BD465DF8047B7047888F002019
:1080A00080B483B000AF0346FB71044AFB79D37000
:1080B00000BF0C37BD465DF8047B7047888F0020F9
:1080C00080B483B000AF0346FB71044AFB7913719F
:1080D00000BF0C37BD465DF8047B7047888F0020D9
:1080E00080B483B000AF0346FB71044AFB799371FF
:1080F00000BF0C37BD465DF8047B7047888F0020B9
:1081000080B483B000AF7860044A7B68936100BF9D
:108110000C37BD465DF8047B704700BF888F002098
:1081200080B400AF134B00221A70124B00225A7019
:10813000104B00229A700F4B0022DA700D4B002278
:108140001A710C4B00225A710A4B00229A61094B9A
:1081500000221A72074B0022DA71064B002283F8C4
:108160004C20044B00229A7100BFBD465DF8047B91
:10817000704700BF888F00202DE9B04F98B004AF42
:10818000834B1B7887F83030814B5B7887F8313030
:108190007F4B9B7887F832307D4B5B7987F83330A3
:1081A0007B4BDB7887F83430794B1B7987F8353097
:1081B000774B9B699BB2FB86754B9B7987F8383070
:1081C000734B1B7A87F83930714BDB7987F848306D
:1081D0006F4B93F84C3087F8493006F0E1FE0246C9
:1081E0000B466B49C1E90423694BD3E9042312F11F
:1081F000080443F100054FF47A524FF00003204683
:10820000294615F0CDFF02460B4612F5FA61B96218
:1082100043F10003FB625E4BD7E90A12C3E9041283
:108220005B4BD3E9044522462B464FF000004FF04C
:108230000001590141EAD261500102460B46B2EBFE
:10824000040863EB05094FF000024FF000034FEA0A
:10825000890343EA98734FEA88029046994618EBDF
:1082600004033B6149EB05037B614FF000024FF0D3
:108270000003D7E904452946CB00214643EA517360
:108280002146CA0012F5FA71396243F100037B629C
:10829000404A4FF00003D7E9080115F081FF02467C
:1082A0000B461046194602460B469418BC605B41CB
:1082B000FB60D7E9022312EB000A43EB010B4FF0FE
:1082C00000024FF000034FEA4B1343EADA634FEA30
:1082D0004A121AEB02043C604BEB03037B60D7E9C4
:1082E000004523461B18BB612B4641EB0303FB6192
:1082F000274BD7E90612C3E90412254BD3E904231F
:10830000C7E91023244A254BD31ADB081B0443F08A
:1083100003001F4BD3E9042313461A46204907F0F4
:108320004AFB1D4A1D4BD31ADB081B0443F0030311
:1083300097F849201B49184607F03DFB164A174B92
:10834000D31ADB081B0443F0030397F838201649BF
:10835000184607F030FB104A104BD31ADB081B04F9
:1083600043F003030A4A92791049184607F023FBA9
:108370006C4607F140030FCB84E80F0007F1300390
:108380000FCBFFF749FB00BF5037BD46BDE8B08FAC
:10839000888F0020A08601009C0B04005C0B040069
:1083A00084EA030098EA0300B0EA0300C8EA030085
:1083B00080B584B000AF78607B689BB2132118460B
:1083C000FEF775F9F860FB6843F2020293420AD1A6
:1083D000164A174BD31ADB081B0443F00303154955
:1083E000184607F0D9FAFB68082B0FD0FB6843F258
:1083F000020293420AD0FB68BB60BB68002B05D029
:108400000D4A4FF49E61B86808F06AFA074A084BB3
:10841000D31ADB081B0443F003030849184607F08E
:10842000BBFAFB6818461037BD4680BD9C0B0400A4
:108430005C0B0400DCEA0300D0E40300FCEA030068
:1084400080B483B000AF0346FB71FB7903F1804336
:1084500003F5C0431A460123136000BF0C37BD4625
:108460005DF8047B704780B483B000AF0346FB71B6
:10847000FB7903F1804303F5C04318460C37BD4632
:108480005DF8047B7047000080B485B000AF786071
:108490000A4A7B6803F5A27352F8233043F00303C2
:1084A000FB6006497B6803F5A273FA6841F8232054
:1084B00000BF1437BD465DF8047B70470060004084
:1084C00080B485B000AFF860B96011461A460B461B
:1084D000FB711346BB71184AFB6803F5A27352F88F
:1084E0002330154923F4981323F4F853FA6802F55E
:1084F000A27241F82230104AFB6803F5A27352F8C9
:108500002320BB681B0203F4F851FB791B0403F41E
:1085100040331943BB791B0503F480130B43064911
:108520001A43FB6803F5A27341F8232000BF1437F8
:10853000BD465DF8047B704700600040B0B586B072
:1085400000AF284B1B78002B47D106F029FDC7E967
:108550000401D7E9042312F1080443F100054FF4A4
:108560007A524FF000032046294615F019FE0246C4
:108570000B461346FB60FB684FF47A7202FB03F371
:1085800003F5FA73184AA2FB03239B0903F5FA6368
:10859000BB60BB68144AA2FB03239B094FF47A72A9
:1085A00002FB03F3BB600C20FFF75DFF0346194697
:1085B000B86805F02FFF78607B683B603B68002B54
:1085C00004D00A4A2C21386808F08AF96C20FFF799
:1085D00037FF044B01221A7000E000BF1837BD4678
:1085E000B0BD00BF30B20020D34D621080EB03005D
:1085F00080B400AF034B00221A7000BFBD465DF887
:10860000047B704730B2002080B400AF034B1B786E
:108610001846BD465DF8047B704700BF30B20020AD
:10862000B0B58AB000AF78607B68002B14BF01231F
:108630000023DBB27B627B6A002B04D1434A4821D2
:10864000002008F04DF97B681B78022B22D0022B0A
:108650006CDC002B02D0012B0ED067E03C4A3D4B76
:10866000D31ADB081B0443F003033B49184607F009
:1086700093F9FFF763FF64E0354A364BD31ADB0802
:108680001B0443F003033549184607F085F9FFF74B
:10869000AFFF56E0FFF7B8FF0346002B2CD07B68F6
:1086A0009B680A333B620C20FFF7DDFE0346194648
:1086B000386A05F0AFFEF861FB69002B11D0244A3F
:1086C000244BD31ADB081B0443F00303FA69244943
:1086D000184607F070F900BF07F014FA0346002BA4
:1086E000FAD1FB69BB61BB69002B08D0174A67212F
:1086F000B86908F0F5F802E06C20FFF7A1FE06F07B
:108700004FFCC7E90401D7E9042312F1080443F13F
:1087100000054FF47A524FF000032046294615F029
:108720003FFD02460B461346FB600AE00023BB6098
:10873000BB68002B04D1054A7521002008F0D0F851
:1087400000BF00BF2837BD46B0BD00BF80EB0300AF
:108750009C0B04005C0B0400A4EB0300B8EB0300CB
:10876000D0EB0300B0B58AB000AF0023032218217C
:108770000320FFF7A5FE0320FFF786FE294B07F134
:1087800008041D460FCD0FC42B68236007F10803B2
:10879000184606F0CFFA78627B6A3B623B6A002B90
:1087A00004D0214A9621386A08F09AF81F4A3B46BD
:1087B00092E803001860043319803B46184606F01F
:1087C00017FB78627B6AFB61FB69002B04D0164AB9
:1087D0009E21F86908F084F8154A164BD31ADB0875
:1087E0001B0443F003031449184607F0D5F8104A58
:1087F000104BD31ADB081B0443F003030F49184640
:1088000007F0CAF80A4A0B4BD31ADB081B0443F0E3
:1088100003030B49184607F0BFF800BF2837BD46D1
:10882000B0BD00BF80EC030080EB030094EC0300BC
:108830009C0B04005C0B0400ECEB030010EC030049
:1088400044EC0300B0B584B000AF06F0A9FBC7E963
:108850000201D7E9022312F1080443F100054FF4A5
:108860007A524FF000032046294615F099FC024643
:108870000B4613467B607B684FF47A7202FB03F36E
:1088800003F5FA730A4AA2FB03239B093B60094ADA
:10889000094BD31ADB081B0443F003007B683A68DA
:1088A000064907F09BF800BF1037BD46B0BD00BFBA
:1088B000D34D62109C0B04005C0B04009CEC030085
:1088C00080B582B000AF0346FB710748074B1B6AB7
:1088D0005A090123002100F05DFC054801F0E6FA89
:1088E00000BF0837BD4680BDC4EC03009CB5002026
:1088F000CCEC030080B584B000AF4FF48062124925
:10890000124808F008F9F860FB68BB60BB68002BF0
:1089100004D00F4A5021B86807F0E2FF4FF480728C
:108920000C490D4808F0F7F8F860FB687B607B683D
:10893000002B04D0064A5421786807F0D1FF00BF0D
:108940001037BD4680BD00BFDCB50020CCB500208F
:10895000F4EC0300F4BF0020E4BF002080B5C4B0F5
:1089600000AF07F58873A3F58673186007F5887361
:10897000A3F58673186812F0FFFB0346C7F80C31A5
:10898000D7F80C2107F58873A3F5867307F10C005F
:10899000196811F03FFF07F5867207F10C031146C5
:1089A000184600F0FDF900BF07F58877BD4680BD89
:1089B0002DE9F04389B002AF78600B46FB706B463F
:1089C0001E46F9780B46013B7B61CBB200229846EC
:1089D00091464FF000024FF000034FEAC90343EA0B
:1089E00058734FEAC802CBB200221C4615464FF01E
:1089F00000024FF00003EB0043EA5473E2000B4621
:108A00000733DB08DB00ADEB030D02AB00333B614A
:108A1000FB781A467968386911F0FCFE164A174B44
:108A2000D31ADB081B0443F003007B681B781A464B
:108A30007B6801331B7819467B6802331B780093EF
:108A40000B460F4906F0E0FF386911F097FE034628
:108A5000FB60094A094BD31ADB081B0443F00303EC
:108A6000FA680849184606F0A6FFFB68B54618469E
:108A70001C37BD46BDE8F0839C0B04005C0B040072
:108A800010ED03001CED030080B58AB000AF7860E4
:108A900039607B687B6200237B843B681B78032BF7
:108AA00000F2C98001A252F823F000BFED8A020053
:108AB000DF8B0200BD8A0200D58A0200614A624B48
:108AC000D31ADB081B0443F003036049184606F081
:108AD00063FFB3E05B4A5C4BD31ADB081B0443F033
:108AE00003035B49184606F057FFA7E0554A564B6B
:108AF000D31ADB081B0443F003035649184606F05B
:108B00004BFF3B689B68022B0AD94E4A4E4BD31A47
:108B1000DB081B0443F001034F49184606F03CFFF5
:108B20003B6859683B6808331A464C4808F090F88F
:108B3000F861FB697B617B69002B04D0484A99216D
:108B4000786907F0CDFEFB69002B11D03D4A3E4B02
:108B5000D31ADB081B0443F00303FA6941491846A2
:108B600006F029FF00BF06F0CDFF0346002BFAD127
:108B7000344A354BD31ADB081B0443F003003B682F
:108B80005B681B781A463B685B681B78364906F0C1
:108B900025FF2C4A2C4BD31ADB081B0443F003039C
:108BA0003249184606F0F8FE314B5B681A46002140
:108BB000002008F033F9F861FB693B613B69002B49
:108BC00004D0274AA621386907F08AFE3B68596815
:108BD0003B689B681A46786A01F0D4FC2EE04FF49B
:108BE0008063FB6007F10C031A462249224807F014
:108BF000EEFFF861FB69002B17D1FB681E4AC2F833
:108C0000143A1D4BD3F8143A1A461A491B4801F07E
:108C1000A7FCF861FB69BB61BB69002B0DD0104A52
:108C2000BE21B86907F05CFE07E00523FB61104B2D
:108C300000221A7001E000BF00E000BF00BF28372B
:108C4000BD4680BD9C0B04005C0B040020ED0300BE
:108C500040ED030068ED030088ED0300E4BF002051
:108C6000F4EC030090ED0300C4ED0300D4ED030029
:108C7000C4B50020DCBB0020CCB50020CCEC030048
:108C800080B58EB000AF7860FFF734FE224A7B6873
:108C9000536007F10C0320220021184611F0C8FD93
:108CA0000823FB6006233B614FF47A73FB610123C9
:108CB00087F820304FF080537B62062387F82930F5
:108CC00007F10C01154B164A144801F0B3F978630B
:108CD0007B6B3B633B6B002B04D0124AEF21386B5C
:108CE00007F0FEFD0D4801F09BFB0F4B1B781A4669
:108CF0000E490A4801F034FC78637B6BFB62FB6A27
:108D0000002B04D0074AF821F86A07F0E9FD00BFFC
:108D10003837BD4680BD00BFC4B50020CCEC030091
:108D2000898A0200F4EC030036990020389900206B
:108D300080B584B000AF786039603B68FE2B0BD9FA
:108D4000114A124BD31ADB081B0443F003033A68A1
:108D50000F49184606F02FFE0E4B01221A703A6892
:108D600079680D4801F0FCFBF860FB68BB60BB68EC
:108D7000002B05D0094A4FF48571B86807F0B0FDA3
:108D800000BF1037BD4680BD9C0B04005C0B040087
:108D9000E0ED0300C4B50020CCEC0300F4EC0300CC
:108DA00080B586B000AF7860396007F1080304220F
:108DB0003968184611F02EFD3A687968264807F0A0
:108DC00047FF78617B693B613B69002B05D0234AF3
:108DD0004FF48C71386907F083FD7B69042B0AD14D
:108DE0001F4A204BD31ADB081B0443F003031E4920
:108DF000184606F0D1FD7B69002B28D11B4B1B7850
:108E000083F00103DBB2002B21D007F108031A46DF
:108E10001749114807F0DBFE78617B69002B0BD105
:108E2000BB680D4AC2F8103A0B4BD3F8103A1946FA
:108E30000F48FFF77DFF0AE07B69FB60FB68002BB2
:108E400005D0064A4FF49D71F86807F049FD00BF50
:108E50001837BD4680BD00BFCCB50020F4EC030040
:108E60009C0B04005C0B040008EE0300C4B500205A
:108E7000DCB9002080B584B000AF786039603A6812
:108E80007968044807F0A3FEF860FB6818461037BD
:108E9000BD4680BDE4BF002080B584B000AF7860DF
:108EA0007968044807F07DFEF860FB6818461037C3
:108EB000BD4680BDE4BF002080B483B000AF034650
:108EC000FB7197F90730002B0BDBFB7903F01F02D6
:108ED000074997F907305B09012000FA02F241F8CF
:108EE000232000BF0C37BD465DF8047B704700BFF0
:108EF00000E100E080B483B000AF03463960FB714D
:108F000097F90730002B0ADB3B68DAB20C4997F976
:108F100007305201D2B20B4483F800230AE03B68C9
:108F2000DAB20849FB7903F00F03043B5201D2B2D5
:108F30000B441A7600BF0C37BD465DF8047B7047C2
:108F400000E100E000ED00E080B582B000AF034634
:108F50000A46FB711346BB71BA7997F9073011467F
:108F60001846FFF7C7FF00BF0837BD4680BD80B574
:108F700082B000AF0346FB7197F907301846FFF740
:108F80009BFF00BF0837BD4680BD80B485B000AFF1
:108F9000F860B9607A60FB68BA6802F5A87279680F
:108FA00043F8221000BF1437BD465DF8047B7047BC
:108FB00080B483B000AF786039607B683A68C3F8EA
:108FC000042300BF0C37BD465DF8047B704780B4B6
:108FD00083B000AF786039607B683A68C3F80823D3
:108FE00000BF0C37BD465DF8047B704780B483B08A
:108FF00000AF786039607B68D3F804233B68134086
:1090000018460C37BD465DF8047B704780B483B0CA
:1090100000AF78600B467B807B887A6813441B68BE
:1090200018460C37BD465DF8047B704780B485B0A8
:1090300000AF78600B467B807B887A6813440022FF
:109040001A607B887A6813441B68FB60FB6800BF6A
:109050001437BD465DF8047B704780B483B000AF21
:1090600078607B68D3F8043518460C37BD465DF848
:10907000047B704780B483B000AF786039607B6850
:109080003A68C3F8082500BF0C37BD465DF8047B7D
:10909000704780B483B000AF786039607B683A680D
:1090A000C3F8442300BF0C37BD465DF8047B70470E
:1090B00080B483B000AF786039607B683A68C3F8E9
:1090C000482300BF0C37BD465DF8047B70470000A5
:1090D00080B586B000AFF860B9607A60FB685B79F4
:1090E00019462A4A7B6842F82130FB685B791946A9
:1090F000274A0B465B000B4413441B78002B03D01C
:1091000008237B617B693DE0FB6893F90420BB6821
:109110009B7819461046FFF717FFFB6893F9043058
:109120001846FFF724FFFB681A68BB681B881946BE
:109130001046FFF79FFFFB685B791946BB681879FB
:10914000134A0B465B000B441344013302461A706A
:10915000FB685B791946BB68D8780D4A0B465B0003
:109160000B441344023302461A70FB685B791946BC
:10917000074A0B465B000B44134401221A7000237C
:109180007B617B6918461837BD4680BDF4C000205E
:10919000FCC0002080B58AB000AFF860B9607A608A
:1091A000FB704FF48032BB6802FA03F3BB61BB680B
:1091B0009BB250339BB29B00FB82FB681B68B96972
:1091C0001846FFF775FFFB681B68B9691846FFF77B
:1091D000FEFE7B6823F07F437B60FB685B7919466A
:1091E0002C4A0B465B000B44134401331B78002BC5
:1091F0002CD0FB681B687A68B9681846FFF7C5FE73
:10920000FB681B681846FFF728FF38623A6A7B68DC
:10921000D31AFB613A6A7B689A4205D2FB6903F173
:10922000FF1303F57F43FB61FB685B791946194A1D
:109230000B465B000B44134402331B781A46FB6950
:1092400093420ADA0D237B627B6A1FE0FB681B688E
:109250007A68B9681846FFF798FEFB78002B0CD0A7
:10926000FB681B68FA8A11461846FFF7DFFEFB68A9
:109270001B68B9691846FFF79BFEFB681B68B96954
:109280001846FFF706FF00237B627B6A18462837E3
:10929000BD4680BDFCC0002080B588B000AFF8603E
:1092A000B9607A604FF48033BB614FF4A073FB83E5
:1092B00000237B612CE0B969F868FFF797FE03464D
:1092C000002B1CD0FB8B1946F868FFF79FFE034666
:1092D000002B14D0B969F868FFF7EAFEB969F8689D
:1092E000FFF775FEFB8B1946F868FFF79FFE294ACA
:1092F000BB6852F823307A69D2B210469847BB69EE
:109300005B00BB61FB8B0433FB837B6901337B61B7
:109310007A697B689A42CED34FF48073FB83012134
:10932000F868FFF763FE0346002B12D0FB8B19464B
:10933000F868FFF76BFE0346002B0AD0FB8B19463B
:10934000F868FFF773FE134ABB6852F82330042015
:1093500098474FF48273FB830221F868FFF746FEBB
:109360000346002B12D0FB8B1946F868FFF74EFE20
:109370000346002B0AD0FB8B1946F868FFF756FE10
:10938000044ABB6852F823300520984700BF2037B5
:10939000BD4680BDF4C0002080B500AF032200218F
:1093A0000248FFF779FF00BF80BD00BF00B000405A
:1093B00080B500AF042201210248FFF76DFF00BF16
:1093C00080BD00BF0040024080B483B000AF0346C0
:1093D000FB7197F90730002B0BDBFB7903F01F02C1
:1093E000074997F907305B09012000FA02F241F8BA
:1093F000232000BF0C37BD465DF8047B704700BFDB
:1094000000E100E080B483B000AF03463960FB7137
:1094100097F90730002B0ADB3B68DAB20C4997F961
:1094200007305201D2B20B4483F800230AE03B68B4
:10943000DAB20849FB7903F00F03043B5201D2B2C0
:109440000B441A7600BF0C37BD465DF8047B7047AD
:1094500000E100E000ED00E080B483B000AF786090
:109460007B681B0B5BB218460C37BD465DF8047B6E
:10947000704780B582B000AF03460A46FB711346C1
:10948000BB71BA7997F9073011461846FFF7BAFF52
:1094900000BF0837BD4680BD80B582B000AF03462F
:1094A000FB7197F907301846FFF78EFF00BF0837AA
:1094B000BD4680BD80B483B000AF78600B46FB70C2
:1094C000FB787A68134401221A6000BF0C37BD464E
:1094D0005DF8047B704780B485B000AF78600B46C0
:1094E0007B807B887A68134400221A607B887A68C4
:1094F00013441B68FB60FB6800BF1437BD465DF872
:10950000047B704780B483B000AF78600B467B80EB
:109510007B887A6813441B68002B14BF0123002347
:10952000DBB218460C37BD465DF8047B704780B44B
:1095300083B000AF786039607B683A68C3F8042371
:1095400000BF0C37BD465DF8047B704780B483B024
:1095500000AF786039607B683A68C3F8082300BFC1
:109560000C37BD465DF8047B704780B483B000AF14
:10957000786039607B68D3F804233B681340002B84
:1095800014BF01230023DBB218460C37BD465DF83B
:10959000047B704780B483B000AF78600B46FB70EB
:1095A0007B68D3F8043523F00302FB7803F0030350
:1095B0001A437B68C3F8042500BF0C37BD465DF82D
:1095C000047B704780B483B000AF78600B46FB70BB
:1095D0007B68D3F8083523F00302FB7803F003031C
:1095E0001A437B68C3F8082500BF0C37BD465DF8F9
:1095F000047B704780B483B000AF78600B46FB708B
:109600007B68D3F8103523F00F02FB7803F00F03CB
:109610001A437B68C3F8102500BF0C37BD465DF8C0
:10962000047B704780B485B000AFF8600B467A6069
:10963000FB72FA7AFB6802F5A872796843F8221087
:1096400000BF1437BD465DF8047B704780B483B01B
:1096500000AF78607B689B0003F5A0739BB218464F
:109660000C37BD465DF8047B704780B483B000AF13
:1096700078604FF480327B6802FA03F318460C37A7
:10968000BD465DF8047B704790B589B000AFF860C7
:10969000B9607A60FB681B791A4613465B00134475
:1096A0009B00304A13447B617B691B7A002B03D0FB
:1096B0000823FB61FB6950E07B697A681A60BB682C
:1096C0005A687B695A600023FB760DE0FB681C68D2
:1096D000FB7E1846FFF7BAFF034619462046FFF700
:1096E000FAFEFB7E0133FB76FB685B79FA7E9A42D9
:1096F000ECD3FB681B681846FFF7AEFE03461A461C
:10970000BB68DB7819461046FFF7B3FEFB681B68A1
:109710001846FFF7A1FE03461846FFF7BDFEFB689B
:109720001A68BB685B7819461046FFF733FFFB6881
:109730001A68BB689B7819461046FFF743FFFB6821
:109740001A68BB681B7819461046FFF753FF7B6900
:1097500001221A720023FB61FB6918462437BD46BB
:1097600090BD00BF04C1002080B582B000AF78601A
:109770007B681B6800211846FFF79CFE7B681B79FD
:109780001946064A0B465B000B449B001344083302
:1097900002221A7000BF0837BD4680BD04C10020F8
:1097A00080B582B000AF78607B681B680C211846DA
:1097B000FFF780FE00BF0837BD4680BD90B587B07B
:1097C00000AFF8607A601A460B46FB721346BB7214
:1097D000FB7A1846FFF749FF7861BB7A002B11D05E
:1097E000FB681C68FB7A1846FFF730FF03461946F2
:1097F0002046FFF770FEFB681B6879691846FFF783
:1098000096FE05E0FB681B6879691846FFF79EFE27
:10981000FB681B68F97A7A681846FFF703FF00BFF8
:109820001C37BD4690BD80B586B000AFF860B9600A
:109830001346FB710023FB7528E0FB7D1846FFF7FC
:1098400005FF0346BB82FB7D1846FFF70EFF38611C
:10985000BB8A1946F868FFF755FE0346002B12D065
:109860003969F868FFF781FE0346002B0BD0BB8AED
:109870001946F868FFF72FFEBB681B68BA68516885
:10988000BA8A10469847FB7D0133FB75FA7DFB7958
:109890009A42D2D300BF00BF1837BD4680BD00003A
:1098A00080B500AF042203490348FFF7BCFF00BFA7
:1098B00080BD00BF04C100200080004080B500AF23
:1098C000042203490348FFF7AEFF00BF80BD00BF7D
:1098D00010C100200090004080B483B000AF034668
:1098E000FB7197F90730002B0BDBFB7903F01F02AC
:1098F000074997F907305B09012000FA02F241F8A5
:10990000232000BF0C37BD465DF8047B704700BFC5
:1099100000E100E080B483B000AF0346FB7197F92B
:109920000730002B12DBFB7903F01F020A4997F97D
:1099300007305B09012000FA02F2203341F82320AE
:10994000BFF34F8F00BFBFF36F8F00BF00BF0C3757
:10995000BD465DF8047B704700E100E080B582B051
:1099600000AF0346FB7197F907301846FFF7B4FFC5
:1099700000BF0837BD4680BD80B582B000AF03464A
:10998000FB7197F907301846FFF7C4FF00BF08378F
:10999000BD4680BD80B483B000AF78600B46FB70DD
:1099A000FB787A68134401221A6000BF0C37BD4669
:1099B0005DF8047B704780B483B000AF78600B46DD
:1099C000FB70FB787A68134418460C37BD465DF887
:1099D000047B704780B483B000AF78600B467B8017
:1099E0007B887A68134418460C37BD465DF8047BC3
:1099F000704780B483B000AF78607B689B0003F54C
:109A0000A0739BB218460C37BD465DF8047B7047C7
:109A100080B582B000AF78600B46FB707B681B6836
:109A2000FA7811461846FFF7C6FF0346184608376E
:109A3000BD4680BD90B583B000AF786039607B686B
:109A40001C683868FFF7D5FF034619462046FFF724
:109A5000C1FF034618460C37BD4690BD80B483B0A5
:109A600000AF78600B467B807A887B681344184689
:109A70000C37BD465DF8047B704780B483B000AFFF
:109A800078600B46FB70FA787B68134418460C37F5
:109A9000BD465DF8047B704780B483B000AF78604A
:109AA0000B46FB70FA787B6813441A460123136057
:109AB00000BF0C37BD465DF8047B704780B582B0AF
:109AC00000AF78607B681B6808211846FFF7E4FF49
:109AD00000BF0837BD4680BD80B582B000AF78605A
:109AE0000B46FB707B681B68FA7811461846FFF737
:109AF000C4FF034618460837BD4680BD80B582B016
:109B000000AF78600B467B807B681B687A881146C3
:109B10001846FFF7A3FF034618460837BD4680BD29
:109B200080B483B000AF78600B467B807B887A6816
:109B3000134418460C37BD465DF8047B704700009F
:109B400080B483B000AF0346FB71FB79034AD35C5A
:109B500018460C37BD465DF8047B70478CEE030059
:109B60002DE9F00F86B000AF786179690020884652
:109B70008146C7E902894FF000004FF00001C7E9B4
:109B80000001F9684E017E607E68B96846EAD166D8
:109B90007E60B96849013960D7E90001C7E902016F
:109BA0000146B1EB0804F96861EB09054FF00000CC
:109BB0004FF00001A90141EA9461A001021B61EB91
:109BC00005034FF000004FF00001D90041EA527147
:109BD000D00002460B4612EB080A43EB090B4FF08C
:109BE00000024FF000034FEACB1343EA5A634FEAF7
:109BF000CA1292469B46504659464FF000024FF01B
:109C00000003C20B42EA4142CB0B134618461837F9
:109C1000BD46BDE8F00F704780B582B000AF7860F8
:109C2000796800200A4603464FF000004FF000011B
:109C3000990341EA92419003054A4FF0000314F062
:109C4000AFFA02460B46134618460837BD4680BD9C
:109C500040420F0080B584B000AF78607B681B681D
:109C6000184608F089FC0346BB60BB68002B01D195
:109C700000231BE07B685B6807F108021146184669
:109C800009F06EFBF860FB68002B01D000230DE0AB
:109C90007B68DB69DA680132DA607B689869B968E9
:109CA0007B685B6A1A4601F0D2FC01231846103724
:109CB000BD4680BD80B596B000AF786039607B68E6
:109CC000FB633B681B78042B00F2D78001A252F89B
:109CD00023F000BF639D0200119D0200E99C020079
:109CE000059E0200319E0200012387F82C303B685C
:109CF0005B683B633B689B687B63FB6BDB691B6852
:109D0000FA6BD269526807F12C0110469847C7E0F8
:109D1000FB6BDB6993F82630002B40F0BA80F86BC0
:109D2000FFF798FF034683F00103DBB2002B00F03E
:109D3000B280FB6BDB6993F82530002B05D0FB6B01
:109D4000DB69012283F82620A5E00023BB64BB6CFD
:109D5000002B40F0A080544AE621002006F0C0FD10
:109D600099E03B689A68FB6BDB695B69D31A7B649B
:109D70007B6C002B3AD0FB6BDB691969FB6BDB69F1
:109D80007A6C0A441A61002387F820303B685A68CD
:109D9000FB6BDB695B6913447B627B6CBB62FB6BB7
:109DA000DB6900225A61FB6B5868FB6BDB69183377
:109DB0000022194609F078FB38653B6D002B0AD06C
:109DC0000023FB64FB6C002B05D1374A40F20B11DA
:109DD000002006F085FDFB6BDB691B68FA6BD2691E
:109DE000526807F120011046984756E000233B6473
:109DF0003B6C002B51D12C4A4FF48A71002006F0A5
:109E00006FFD4AE007F1140300221A605A609A605D
:109E100002233B753B681B793B76FB6BDB691B6858
:109E2000FA6BD269526807F114011046984737E07F
:109E30003B685A68FB6BDB695B69D31ABB63FB6BDE
:109E4000DB691969FB6BDB69BA6B0A441A6107F1BC
:109E5000080300221A605A609A6003233B723B6831
:109E60005B68FB60FB6BDB691B68FA6BD26952684D
:109E700007F108011046984712E000237B657B6DCF
:109E8000002B0CD1084A4FF49971002006F028FDF0
:109E900005E000BF04E000BF02E000BF00E000BF3B
:109EA00000BF5837BD4680BD3CEE030080B588B08A
:109EB00000AF78607B689B69DB681B0B5BB2184660
:109EC000FFF75AFD7B689B695B68D3F84C35FB61F3
:109ED0007B68DB691B69FA699A4227D97B68DB6971
:109EE0001B69FA69D31ABB6100233B737B68DB698A
:109EF0009A697B68DB695B6913443B61BB697B6181
:109F00007B68DB6959697B68DB69BA690A445A6115
:109F10007B68DB69FA691A617B68DB691B687A68B0
:109F2000D269526807F10C01104698477B689B691B
:109F3000DB681B0B5BB21846FFF710FD00BF203734
:109F4000BD4680BD80B582B000AF03463960FB805E
:109F50003868FFF7ABFF00BF0837BD4680BD80B54E
:109F600088B000AF78607B68FB6107F069FBB8617F
:109F7000FB69DB691B6A1846FFF74EFE03465B0868
:109F80007B617B69052B38BF05237B61FB69DB693E
:109F900093F8273083F00103DBB2002B45D1FB6936
:109FA0009B695B684C211846FFF7F4FCFB699B69D1
:109FB0005B68D3F84C353B61FB691B691B68FA6928
:109FC0007969184607F0E6FAFB695B691B683A692C
:109FD0009A420CD0FB695B693A691A60FB695B695C
:109FE000BA695A60FB695B6901221A721EE0FB695B
:109FF0005B695B681946B86907F011FBF860FB699B
:10A000005B691B7A002B11D0F868FFF7A9FD0246A7
:10A01000FB69DB691B6A9A4208D9FB695B6900220C
:10A020001A72F869FFF742FF00E000BF2037BD4613
:10A0300080BD000090B59BB000AFF860B9607A6059
:10A040003B60BB685B7F072B07D0FB681B69002B5D
:10A0500005D0BB685B7F052B01D90723D9E1FB68DD
:10A06000DB6993F82730002B01D00823D1E1FB688E
:10A07000DB697A681A60FB68DB6900221A61FB6899
:10A08000DB6900229A61FB68DB690022DA61FB6808
:10A09000DB6900225A61FB68DB690022DA60FB6839
:10A0A000DB693A685A60FB68DB69BA6812691A6250
:10A0B000FB68DB69002283F82620BB681A7DFB68F9
:10A0C000DB69012A0CBF01220022D2B283F82520CD
:10A0D00000233B660023FB650023BB6500237B65F3
:10A0E000FB689B68002B4CD09C4A07F1180392E850
:10A0F0000300186004331980BB685B7F1846FFF7C4
:10A100001FFD0346BB7600233B83FB689868FB6812
:10A110001A6A07F118031946FEF7DAFFF864FB6CB8
:10A12000002B01D0032374E1FB689868BB681B69AE
:10A130005A0901230021FFF72DF8F864FB6C002B6E
:10A1400001D0032365E1FB689B6800211846FFF7F7
:10A15000C3FC3866FB689B6808211846FFF7BCFC07
:10A16000F865FB689B6804211846FFF7B5FCB865E5
:10A17000FB689B684FF4A0711846FFF7BFFC786539
:10A1800084E0FB68DB68002B47D000233B7400238E
:10A190007B740023BB740623FB7400237B610423C0
:10A1A0003B74FB687B61BB685B7F1846FFF7C8FCAC
:10A1B0000346FB74FB68DB6807F11001684A184628
:10A1C000FFF762FAF864FB6C002B01D0032320E157
:10A1D000FB68D868BB681A6901230021FFF7EEFA13
:10A1E000FB68DB6800211846FFF712FC3866FB6845
:10A1F000DB680C211846FFF70BFCF865FB68DB6891
:10A2000010211846FFF704FCB865FB68DB680021E5
:10A210001846FFF70FFC786538E0FB681B69002BD8
:10A2200027D0FB68DB6993F8243083F00103DBB2AD
:10A23000002B11D0FB681B694A4A0021184607F021
:10A2400087F9F864FB6C002B01D0FB6CE1E0FB6844
:10A25000DB69012283F82420FB685B6900221A7203
:10A26000FB685B6900221A60FB685B6900225A6028
:10A270000CE000233B653B6D002B05D13A4A4FF4BF
:10A28000F271002006F02CFB0323C2E0FB681B697F
:10A29000002B6BD100237B6610E0FB68DA697B6ED4
:10A2A00008331344184602F035FBF864FB6C002BAE
:10A2B00001D00323ADE07B6E01337B667B6E012B07
:10A2C000EBD9FB68DB691C7AFB689B69DB684FF4A0
:10A2D00084711846FFF724FC03463A6E194620465F
:10A2E00002F096FBF864FB6C002B01D0032390E096
:10A2F000FB6D002B0CD0FB68DB691B7AF96D1846EF
:10A3000002F0BCFBF864FB6C002B01D0032380E05F
:10A31000FB68DB695B7ABA6D796D184602F078FBF1
:10A32000F864FB6C002B01D0032372E0FB689B698F
:10A330005B684C33002B19D0FB68DB695A7AFB68E9
:10A340009B695B684C331946104602F097FBF86432
:10A35000FB6C002B0AD003235BE000BF84EE0300FC
:10A36000459F02005F9F02003CEE0300BB685B68F4
:10A370003B62BB681B687B62BB689B68BB62BB6857
:10A38000DB68FB62FB689B69DB684FF488711846E9
:10A39000FFF7C6FB03463B6300237B630023BB63DD
:10A3A0000023FB63BB681B7D87F84030BB685B7D87
:10A3B00087F84130BB689B697B64BB685B7F87F82B
:10A3C0004830BB681B7F87F84930FB68986907F104
:10A3D0002001FB68114A00F015FFF864FB6C002BAC
:10A3E00001D0FB6C15E0FB681B68184608F098F874
:10A3F000F864FB6C002B01D0FB6C0AE0FB685B6827
:10A40000184609F0D9F8FB68DB69012283F8272098
:10A41000FB6C18466C37BD4690BD00BFB59C020072
:10A4200080B58AB000AF78607B681B68184608F07A
:10A43000A3F878627B68DB69DA680132DA607B6AEC
:10A44000002B0AD100233B623B6A002B05D1434A13
:10A450004FF41571002006F043FA7B689B68002BCF
:10A4600005D07B689B681846FFF728FB08E07B68EF
:10A47000DB68002B04D07B68DB681846FFF790F997
:10A480007B681B69002B2DD17B68DB691B7A184622
:10A4900002F013FBF861FB69002B0CBF01230023C2
:10A4A000DBB2BB61BB69002B05D12C4A40F26521B0
:10A4B000002006F015FA7B68DB695B7A184602F02B
:10A4C000FCFAF861FB69002B0CBF01230023DBB20F
:10A4D0007B617B69002B05D1204A40F26721002077
:10A4E00006F0FEF97B68DB697A6A9A617B68986995
:10A4F0007B685A6A0023796A01F03AF838613B694F
:10A50000002B0CBF01230023DBB2FB60FB68002B98
:10A5100005D1124A4FF41B71002006F0E1F97B6867
:10A520001B69002B15D07B68DB691B6A1846FFF797
:10A5300073FB03465B08BB60BB68052B38BF052374
:10A54000BB607B681B691B687A68B968184607F0AE
:10A5500021F800BF2837BD4680BD00BF3CEE030098
:10A5600080B584B000AFF860B9607A60FB689B6921
:10A570007A68B968184600F075FF03461846103728
:10A58000BD4680BD80B588B000AFF860B9607A6024
:10A59000FB68DB69D969FB68DB697A680A44DA61C0
:10A5A000FB68DB69DA69FB685B6A9A4237D1FB6852
:10A5B000DB69DB697A68D31ABA681344BB60FB684D
:10A5C000DB690022DA61FB681B68B968184608F08D
:10A5D0000DF8FB68DB69DA68013ADA60FB68DB6971
:10A5E000DB68002B0ADA0023FB61FB69002B05D135
:10A5F000164A4FF42271002006F072F9FB68DB69FD
:10A6000093F82630002B1CD0F868FFF723FB034695
:10A61000FB76FB68DB69002283F8262011E0FB68EB
:10A62000DB69DA69FB685B6A9A420AD900237B61BD
:10A630007B69002B05D1054A40F29621002006F0E7
:10A640004FF900BF2037BD4680BD00BF3CEE030080
:10A6500080B483B000AF0346FB7197F90730002B3D
:10A660000BDBFB7903F01F02074997F907305B0901
:10A67000012000FA02F241F8232000BF0C37BD464A
:10A680005DF8047B704700BF00E100E080B483B058
:10A6900000AF0346FB7197F90730002B0CDBFB7909
:10A6A00003F01F02074997F907305B09012000FA00
:10A6B00002F2603341F8232000BF0C37BD465DF83D
:10A6C000047B704700E100E080B483B000AF034634
:10A6D0003960FB7197F90730002B0ADB3B68DAB26F
:10A6E0000C4997F907305201D2B20B4483F800238A
:10A6F0000AE03B68DAB20849FB7903F00F03043B38
:10A700005201D2B20B441A7600BF0C37BD465DF839
:10A71000047B704700E100E000ED00E080B483B00E
:10A7200000AF78607B681B0B5BB218460C37BD46E8
:10A730005DF8047B704780B485B000AF78600B464D
:10A740007B807B887A68134400221A607B887A6851
:10A7500013441B68FB60FB6800BF1437BD465DF8FF
:10A76000047B704780B483B000AF78600B467B8079
:10A770007B887A6813441B68002B14BF01230023D5
:10A78000DBB218460C37BD465DF8047B704780B4D9
:10A7900083B000AF78600B467B807B887A68134477
:10A7A00018460C37BD465DF8047B704780B483B013
:10A7B00000AF786039607B683A68C3F8042300BF53
:10A7C0000C37BD465DF8047B704780B485B000AFA0
:10A7D00078607B68D3F88034FB607B68FA68C3F8E4
:10A7E0008024FB6818461437BD465DF8047B70472B
:10A7F00080B483B000AF78607B680822C3F800257E
:10A8000000BF0C37BD465DF8047B704780B485B04F
:10A8100000AFF860B9607A60FB68BA68C3F80C25CD
:10A82000FB687A68C3F8142500BF1437BD465DF88D
:10A83000047B704780B485B000AFF860B9607A607F
:10A84000FB68BA68C3F80825FB687A68C3F8102566
:10A8500000BF1437BD465DF8047B704780B483B0F9
:10A8600000AF78600B46FB70FB787A6813440122D6
:10A870001A6000BF0C37BD465DF8047B704780B49A
:10A8800083B000AF78600B46FB70FA787B681344A6
:10A8900018460C37BD465DF8047B704780B483B022
:10A8A00000AF78600B46FB701346BB70FA78BB783C
:10A8B0001343DBB21A467B68C3F86C2500BF0C3724
:10A8C000BD465DF8047B704780B483B000AF78600C
:10A8D00039607B683A68C3F8242500BF0C37BD4651
:10A8E0005DF8047B704780B485B000AFF860B96054
:10A8F0007A60BA68FB68C3F84425FB687A68C3F8D5
:10A90000482500BF1437BD465DF8047B704780B40E
:10A9100083B000AF78607B68D3F84C3518460C37AD
:10A92000BD465DF8047B704780B485B000AFF86029
:10A93000B9607A60BA68FB68C3F83425FB687A6846
:10A94000C3F8382500BF1437BD465DF8047B704757
:10A9500080B483B000AF0346FB71FB79DB0003F1E9
:10A96000804303F5F83318460C37BD465DF8047B89
:10A97000704780B483B000AF0346FB71FB79DB0006
:10A98000043303F1804303F5F83318460C37BD4612
:10A990005DF8047B704780B483B000AF0346FB7161
:10A9A000FB79012202FA03F318460C37BD465DF825
:10A9B000047B704780B582B000AF03460A46FB7146
:10A9C0001346BB71FB791846FFF7E5FF0246BB79DA
:10A9D0001946104602F084F9034618460837BD466A
:10A9E00080BD80B582B000AF0346FB71FB7918468D
:10A9F000FFF7AEFF034618460837BD4680BD80B559
:10AA000082B000AF0346FB71FB791846FFF7B1FF38
:10AA1000034618460837BD4680BD80B483B000AFFA
:10AA200078600B46FB70FB787A68134418460C3745
:10AA3000BD465DF8047B704780B483B000AF78609A
:10AA40000B467B807B887A68134418460C37BD46DA
:10AA50005DF8047B704780B483B000AF78600B462C
:10AA6000FB70FA787B6802F5A87253F8223018461A
:10AA70000C37BD465DF8047B704780B483B000AFEF
:10AA800078607B689B004033DBB218460C37BD46CC
:10AA90005DF8047B704780B483B000AF78607B685A
:10AAA0009B0003F5A0739BB218460C37BD465DF8BA
:10AAB000047B704780B582B000AF78600B46FB70B6
:10AAC0007B681B68FA7811461846FFF7A6FF034615
:10AAD00018460837BD4680BD90B583B000AF78609A
:10AAE00039607B681C683868FFF7C7FF0346194662
:10AAF0002046FFF792FF034618460C37BD4690BD2F
:10AB000090B583B000AF786039607B681C683868A6
:10AB1000FFF7C1FF034619462046FFF78DFF0346A6
:10AB200018460C37BD4690BD80B582B000AF786046
:10AB30000B46FB707B681B68FA7811461846FFF7D6
:10AB40008AFF034618460837BD4680BD80B483B0EF
:10AB500000AF78604FF0A04318460C37BD465DF853
:10AB6000047B704780B584B000AF7860084611461A
:10AB70001A460346FB700B46BB7013467B703B1DA9
:10AB80001846FFF7E3FFF860FA78BB785B001A43DA
:10AB90007B789B001A433B7E1B0242EA03013B7F0A
:10ABA0001B047A681943FB6802F5E07243F822102F
:10ABB00000BF1037BD4680BD80B584B002AF78605D
:10ABC00000230193002300930023012201217868D0
:10ABD000FFF7C8FF00BF0837BD4680BD80B584B011
:10ABE00002AF78600B46FB70FB78002201920022D6
:10ABF0000092002200217868FFF7B4FF00BF0837F9
:10AC0000BD4680BD80B584B000AF78603B1D18465E
:10AC1000FFF79CFFF8607B68012202FA03F31946F4
:10AC2000F86800F004F800BF1037BD4680BD80B45E
:10AC300083B000AF786039607B683A68C3F8082554
:10AC400000BF0C37BD465DF8047B704780B586B009
:10AC500000AFF860B9607A603B60F86801F05AFEB6
:10AC600078617B69002B01D004231CE0FB681B7812
:10AC70007A68B968184601F0CBFE78617B69002BD1
:10AC800001D003230FE03B68002B0BD0FB681B783F
:10AC90003968184601F0F2FE78617B69002B01D01B
:10ACA000032300E0002318461837BD4680BD80B559
:10ACB00086B000AFF8607A603B600B46FB72F868C4
:10ACC00001F05FFF78617B69002B01D004232CE049
:10ACD000FB681A78FB7A11461846FFF76BFE78611D
:10ACE0007B69002B01D003231FE097F82030002B55
:10ACF0000AD0FB681B78184601F0C8FF78617B69B1
:10AD0000002B01D0032310E0FB681B781846FFF7E7
:10AD100068FE02467B681A60FB681B781846FFF7DE
:10AD20006EFE02463B681A60002318461837BD467F
:10AD300080BD80B584B000AF78607B681B78184612
:10AD400001F0ECFEF8607B681B78184601F034FED9
:10AD5000F8607B6814221A7000BF1037BD4680BDB2
:10AD600080B584B000AF78607B681B78184601F02E
:10AD700055FFF8607B6806221A7000BF1037BD4689
:10AD800080BD80B584B000AF78600023FB6010E028
:10AD90007B681A68FB6813441B78132B06D87B6802
:10ADA0001A68FB6813441846FFF7C3FFFB680133BA
:10ADB000FB60FB68082BEBDD0023BB6013E07B68C6
:10ADC0001A68BB68134409331B78052B08D87B68C5
:10ADD0001A68BB680833134401331846FFF7C0FFF5
:10ADE000BB680133BB60BB68012BE8DD00BF00BF5F
:10ADF0001037BD4680BD80B584B000AF78607B68F9
:10AE00001B78184601F059FEF86000BF1037BD46A8
:10AE100080BD80B584B000AF78607B681B78184631
:10AE200001F07CFEF86000BF1037BD4680BD80B5E4
:10AE300084B000AF78600023FB6010E07B681A6884
:10AE4000FB6813441B78132B06D87B681A68FB68D1
:10AE500013441846FFF7CFFFFB680133FB60FB6824
:10AE6000072BEBDD00BF00BF1037BD4680BD80B5AE
:10AE700084B000AF78600823FB6010E07B681A683C
:10AE8000FB6813441B78132B06D87B681A68FB6891
:10AE900013441846FFF7AFFFFB680133FB60FB6804
:10AEA000082BEBDD00BF00BF1037BD4680BD80B56D
:10AEB00084B000AF78600823FB6010E07B681A68FC
:10AEC000FB6813441B78132B06D87B681A68FB6851
:10AED00013441846FFF79DFFFB680133FB60FB68D6
:10AEE000082BEBDD00BF00BF1037BD4680BDF0B5BD
:10AEF0008DB002AF786039600023BB6100237B61B5
:10AF000000233B610023FB6000233B6208E07B6879
:10AF10001A683B6A134414221A703B6A01333B627D
:10AF20003B6A082BF3DD0023FB6109E07B681A68AC
:10AF3000FB691344093306221A70FB690133FB6174
:10AF4000FB69012BF2DD7B681B6803F108047B6859
:10AF5000DB684FF490711846FFF719FC05467B68D3
:10AF6000DB6808211846FFF78AFC024600232946C1
:10AF70002046FFF76BFE78627B6A002B40F013815E
:10AF80007B681B681C1D7B68DB684FF48471184666
:10AF9000FFF7FDFB05467B68043308211846FFF7E1
:10AFA00089FD0246002329462046FFF74FFE7862BE
:10AFB0007B6A002B40F0F9807B681B685C1D7B6816
:10AFC000DB684FF488711846FFF7E1FB05467B68A4
:10AFD000DB6800211846FFF752FC06467B68043305
:10AFE00000211846FFF778FD0346324629462046E1
:10AFF000FFF72CFE78627B6A002B40F0D8803B681C
:10B000005B69002B71D03B68DB69002B6DD07B68DE
:10B010001B689C1D7B68DB684FF488711846FFF73E
:10B02000B6FB05467B68043300211846FFF754FD44
:10B0300002463B68DB6929462046FFF707FE786237
:10B040007B6A002B40F0B5807B681B6803F1090028
:10B050007B681B68597907F1140307F11802012472
:10B060000094FFF724FE78627B6A002B40F0A380F7
:10B070007B681B6803F10A007B681B68997907F1FC
:10B080000C0307F1100200240094FFF710FE786211
:10B090007B6A002B40F091807B681B689C1C3B689E
:10B0A0005D697B68DB6804211846FFF7E8FB06460C
:10B0B0007B68043301211846FFF70EFD0346324634
:10B0C00029462046FFF7C2FD78627B6A002B76D1C5
:10B0D0007B681B68D81C3B6859697A693B69FFF734
:10B0E000B5FD78627B6A002B6BD13B689B69002BB6
:10B0F00002D1FB68002B1FD07B681B685C1C7B683F
:10B10000DB684FF4A6711846FFF741FB0146FB6868
:10B11000002B02D13B689A6900E0FA68FB68002BBB
:10B1200002D03B689B6900E000232046FFF78EFDBC
:10B1300078627B6A002B46D13B681B69002B14D0D8
:10B140007B681B681D463B681C697B68DB680021C7
:10B150001846FFF794FB0246BB6921462846FFF7D5
:10B1600075FD78627B6A002B2FD13B68DB68B3F1F9
:10B17000FF3F2CD07B681B68DC1D7B6804330221F9
:10B180001846FFF7BDFC05463B68DB6818460AF029
:10B19000F2FA0246002329462046FFF757FD78625F
:10B1A0007B6A002B13E000BF12E000BF10E000BF7D
:10B1B0000EE000BF0CE000BF0AE000BF08E000BFE7
:10B1C00006E000BF04E000BF02E000BF00E000BFF7
:10B1D0007B6A002B01D17B6A03E07868FFF7D1FD21
:10B1E0007B6A18462C37BD46F0BD80B483B000AFF3
:10B1F00003463960FB8000BF0C37BD465DF8047B19
:10B200007047000080B58AB000AFF860B9607A601E
:10B210003B60FB68DB681846FFF780FA034687F857
:10B220002730FB681B6893F83C30002B01D00823C3
:10B2300008E1FB681B687A685A62FB681B68002299
:10B240009A61FB681B680022DA61FB681B680022B8
:10B250001A62FB681B680022DA60FB681B683A68A8
:10B260005A63FB681B68FF2283F83A20FB68DB689F
:10B27000764A934214BF01230023DBB21946744A75
:10B28000FB6842F82130BB681B681846FFF7BAFC20
:10B29000BB681B681846FFF78FFCBB685A68BB6821
:10B2A00093F82930002B01D0032300E00023194636
:10B2B0001046FFF793FCFB68DA68BB685B6A1946C7
:10B2C0001046FFF701FBFB68D868BB6893F82110B4
:10B2D000BB6893F820301A46FFF7E0FAFB68D8689D
:10B2E000BB681968BB685B681A46FFF78FFABB68D2
:10B2F00093F82030012B4BD1BB689B68B3F1FF3F23
:10B3000005D0BB689B6803211846FFF767FCBB6844
:10B31000DB68B3F1FF3F32D04E4A07F110031268E9
:10B32000114619800233120C1A700AF049F938627A
:10B330003B6A002B04D03B6A082B01D03B6A81E0BA
:10B34000BB68DB6807F11002114618460AF0A4F941
:10B3500038623B6A002B01D0032373E0BB68DB68D3
:10B3600018460AF0E3F9BB68DB681846FFF724FCCF
:10B37000BB68DA68FB681B68D2B283F83A20FB68C6
:10B38000D868BB689B681A464FF0FF31FFF752FA46
:10B3900097F92730022B0AD1FB68DB682E49184643
:10B3A0000AF026FC0346002B01D011234AE0FB687B
:10B3B000DB682A491846FFF7F9F9BB6893F828308B
:10B3C0001A4697F9273011461846FFF77DF997F985
:10B3D00027301846FFF75AF997F927301846FFF734
:10B3E00037F9FB68DB681846FFF702FA00233B7564
:10B3F00000237B750023BB750623FB750023BB610F
:10B4000001237B750323BB75FB68043307F114012B
:10B41000134A1846FEF738F9F861FB69002B01D092
:10B4200003230FE0B968F868FFF761FDF861FB6975
:10B43000002B01D0032305E0FB681B68012283F881
:10B440003C20002318462837BD4680BD0020004020
:10B450001CC10020A0EE030009BA0200100348003E
:10B46000EBB1020080B586B000AFF860B9607A60D9
:10B47000FB681B68DB68002B01D0112371E0FB68BF
:10B480001B68BA68DA60FB681B687A681A61FB6837
:10B490001B6800225A617B68FF2B06D87B68FB8201
:10B4A000FB681B6800221A871EE07B68FE332F4A68
:10B4B000A2FB0323DB093B617A683B69B2FBF3F231
:10B4C000FB681B6892B21A87FB681B68198FFB68C0
:10B4D0001B681B8F1A467B68B3FBF2F000FB02F27D
:10B4E0009B1A9BB20B44FB82FB68DB68FA8AB96843
:10B4F0001846FFF7F8F9FB68DB684FF4A8711846A7
:10B50000FFF719F9FB68DB6808211846FFF7A6F971
:10B510007B68FF2B24D900BFFB68DB684FF4A87160
:10B520001846FFF71FF9034683F00103DBB2002B37
:10B53000F2D1FB68DB684FF4A8711846FFF7FBF8FF
:10B54000F868FFF794FCFB68D868FB681B68DA684A
:10B55000FB8AD118FB681B681B8F1A46FFF7C3F9DB
:10B56000002318461837BD4680BD00BF818080800B
:10B5700080B586B000AFF860B9607A60FB70FB6898
:10B580001B689B69002B01D011235CE0FB681B68E2
:10B590007A681A63BB68002B0AD0FB681B68BA681C
:10B5A0009A61FB68DB687A68B9681846FFF7BCF9EE
:10B5B000FB6804331846FEF7D7F8FB6804331846D7
:10B5C000FEF7EEF8FB681B6800229A62FB681B68B6
:10B5D0000022DA62FB68DB684FF488711846FFF7D7
:10B5E000AAF8FB68DB684FF4A6711846FFF7A3F8CA
:10B5F000F868FFF71CFCFB681B6893F83A30FF2BD8
:10B6000014D07B68043B7B61FB681B6893F83A307D
:10B6100018460AF0D3F803461A4601231360FB6864
:10B62000181D00237A690221FEF7C8F8FB7883F021
:10B630000103DBB2002B05D0FB68DB680021184654
:10B64000FFF70CF9002318461837BD4680BD80B5BA
:10B6500086B000AFF860B9607A60FB681B68DB6990
:10B66000002B0BD1FB681B68BA68DA61FB68DB68EA
:10B670007A68B9681846FFF757F903E0FB681B685A
:10B68000BA681A62FB681B6893F83A30FF2B26D021
:10B69000FB68043300211846FFF746FA02467B6830
:10B6A0005B001344043B7B61FB68181D00237A692F
:10B6B0000221FEF783F8FB681B6893F83B3083F0A8
:10B6C0000103DBB2002B0AD0FB681B6893F83A3009
:10B6D00018460AF073F803461A460123136000BFA8
:10B6E0001837BD4680BD80B59AB000AF78607B68E2
:10B6F000DB684FF492711846FFF734F80346002BCD
:10B7000022D07B68DB684FF492711846FFF713F87C
:10B7100007F1380300221A605A609A60032387F801
:10B7200038307B68DB681846FFF74FF80346DBB21A
:10B7300087F83C307B681B685B6A7A681268526BDA
:10B7400007F13801104698477B68DB684FF4A67113
:10B750001846FFF707F80346002B19D07B68DB6813
:10B760004FF4A6711846FEF7E6FF07F12C030022FE
:10B770001A605A609A60012387F82C307B681B6836
:10B780005B6A7A681268526B07F12C011046984781
:10B790007B68DB684FF488711846FEF7E3FF0346C9
:10B7A000002B00F09D807B68DB684FF488711846A1
:10B7B000FEF7C1FF7B68043300211846FFF7B4F998
:10B7C000F8657B68043301211846FFF7ADF9B865C9
:10B7D0007B681B689B6AFA6DD31A7B657B681B6864
:10B7E000DB6ABA6DD31A3B657B681B68FA6D9A6297
:10B7F0007B681B68BA6DDA627B6D002B02D13B6DF2
:10B80000002B6DD07B681B681B6B7A6D934228BF41
:10B8100013467B667A6D7B6ED31A3B66002387F8EE
:10B8200020307B681B689B697B627B6EBB627B6898
:10B830001A687B681B68D2699A617B681B68002262
:10B84000DA617B681B681B6A002B14D07B681A685E
:10B850007B681B68126ADA617B681B6800221A62C7
:10B860007B68D8687B681B68D9697B681B681B6B21
:10B870001A46FFF759F87B681B685B6A7A6812689A
:10B88000526B07F12001104698473B6E002B09D1FF
:10B890007B681B681B6B7A6D9A4221D1FA6DBB6D78
:10B8A0009A421DD107F1140300221A605A609A606F
:10B8B00004233B753B6EBB617B681B685B6A7A68DF
:10B8C0001268526B07F11401104698477B681A689A
:10B8D0007B681B68D2699A617B681B680022DA6109
:10B8E0007B68DB684FF4AC711846FEF73BFF0346FC
:10B8F000002B1ED07B68DB684FF4AC711846FEF756
:10B900001AFF02233B727B681B68DB68FB607B6865
:10B910001B681B693B617B681B680022DA607B68DF
:10B920001B685B6A7A681268526B07F1080110465F
:10B9300098477B68DB684FF490711846FEF712FF5A
:10B940000346002B5CD07B68DB684FF4907118468F
:10B95000FEF7F1FE7B68DB681846FEF7D8FFF86457
:10B960007B681B6859697B681B68FA6C0A445A61DA
:10B970007B681B685A697B681B681B699A420DD1FA
:10B980007B68DB684FF4AC711846FEF7D4FE7B6829
:10B99000DB680C211846FEF761FF31E07B681B680D
:10B9A0001A697B681B685B69D31ABB64BB6CFF2B8D
:10B9B00003D87868FFF77BFA22E07B681B68DA68B7
:10B9C0007B681B685B6979680968098F0B441344BD
:10B9D0007B647B68DB684FF4A8711846FEF7C2FEF3
:10B9E0007B68DB684FF4A8711846FEF7A4FE7B68FD
:10B9F000D8687B681B681B8F1A46796CFEF773FF4B
:10BA000000BF6837BD4680BD80B500AF034B1B68E3
:10BA10001846FFF768FE00BF80BD00BF1CC10020B4
:10BA200080B483B000AF78604FF0A04318460C3765
:10BA3000BD465DF8047B704780B584B000AF786088
:10BA4000084611461A460346FB700B46BB70134668
:10BA50007B703B1D1846FFF7E3FFF860FA78BB7870
:10BA60005B001A437B789B001A433B7E1B0242EA31
:10BA700003013B7F1B047A681943FB6802F5E072FF
:10BA800043F8221000BF1037BD4680BD80B584B09A
:10BA900002AF78600023019300230093002301226A
:10BAA00001217868FFF7C8FF00BF0837BD4680BD99
:10BAB00080B586B000AF0346FB7100200BF032F971
:10BAC00078617B693B613B69002B04D00E4A2821D9
:10BAD000386904F005FFFB79002B0DD10BF0A8FAB3
