:020000022000DC
:106000000000012065E602008DE602008FE6020036
:1060100091E6020093E6020095E60200000000000F
:1060200000000000000000000000000097E60200F1
:1060300099E60200000000009BE602009DE60200D7
:1060400009410300DDD20200655103009FE6020012
:106050009FE602009FE602006D5003009FE60200EB
:1060600019910200359102009FE60200118C020096
:106070009FE602009FE602009FE602009FE6020004
:106080009FE60200191603009FE602009FE6020049
:106090009FE602009FE60200099603006DDA020007
:1060A0009FE602009FE602009FE602009FE60200D4
:1060B0009FE602009FE602000000000000000000D2
:1060C0009FE602009FE602009FE602009FE60200B4
:1060D000298C02009FE602009FE6020000000000FB
:1060E00000000000000000000000000000000000B0
:1060F00000000000000000000000000000000000A0
:10610000000000000000000000000000000000008F
:10611000000000000000000000000000000000007F
:10612000000000000000000000000000000000006F
:10613000000000000000000000000000000000005F
:10614000000000000000000000000000000000004F
:10615000000000000000000000000000000000003F
:10616000000000000000000000000000000000002F
:10617000000000000000000000000000000000001F
:10618000000000000000000000000000000000000F
:1061900000000000000000000000000000000000FF
:1061A00000000000000000000000000000000000EF
:1061B00000000000000000000000000000000000DF
:1061C00000000000000000000000000000000000CF
:1061D00000000000000000000000000000000000BF
:1061E00000000000000000000000000000000000AF
:1061F000000000000000000000000000000000009F
:1062000010B5054C237833B9044B13B10448AFF3F0
:1062100000800123237010BDC09B002000000000FF
:1062200084FC030008B5034B1BB103490348AFF3DB
:10623000008008BD00000000C49B002084FC030017
:10624000A3F5803A704700BF174B002B08BF134BD4
:106250009D46FFF7F5FF00218B460F461348144A71
:10626000121A13F0ADFC0E4B002B00D098470D4BCB
:10627000002B00D098470020002104000D000D489D
:10628000002802D00C48AFF3008013F057FC200028
:10629000290010F02BFA13F03DFC00BF00000800AD
:1062A000000000000000000000000120C09B002052
:1062B00030DA0020000000000000000075DF7047A9
:1062C00000BF184676DF704700BF18467FDF704773
:1062D00000BF18468FDF704700BF184680B483B0F8
:1062E00000AF78604FF0A04318460C37BD465DF80C
:1062F000047B704780B584B000AF78603B1D1846C2
:10630000FFF7ECFFF8607B68012202FA03F31946FD
:10631000F86800F019F800BF1037BD4680BD80B5A1
:1063200084B000AF78603B1D1846FFF7D7FFF860D8
:106330007B68012202FA03F31946F86800F013F8AB
:1063400000BF1037BD4680BD80B483B000AF786019
:1063500039607B683A68C3F8082500BF0C37BD4632
:106360005DF8047B704780B483B000AF786039601B
:106370007B683A68C3F80C2500BF0C37BD465DF852
:10638000047B704780B582B000AF0AF07DFB786077
:106390007B683B603B68002B04D0044A722138685C
:1063A00009F078FD00BF0837BD4680BDECD703007B
:1063B00080B582B000AF7860044AA421786809F003
:1063C00069FD00BF0837BD4680BD00BFECD70300A4
:1063D00080B584B000AF104812F0CCFCF860FB68C8
:1063E000BB60BB68002B04D00C4AAD21B86809F033
:1063F00051FD01200FF070FFF860FB687B607B6847
:10640000002B04D0054AB021786809F043FD00BF95
:106410001037BD4680BD00BF48AD0020ECD703005B
:10642000F0B58BB004AF78607B681B78062B13D077
:10643000062B44DC042B34D0052B40D17B685B68F1
:106440003B613B69FB60FB68002B3AD01F4ABE21D1
:10645000F86809F01FFD34E07B685B687B611C4ACB
:106460001C4BD31ADB081B0443F003007B695B78E9
:106470001D467B699B781E467B69DB781A467B69E3
:106480001B7919467B695B791C467B699B79039371
:1064900002940191009233462A460F4908F0DCFD30
:1064A00010E00B4A0B4BD31ADB081B0443F0030329
:1064B0000A49184608F064FDFFF78AFF02E000BFB2
:1064C00000E000BF00BF1C37BD46F0BDECD70300A5
:1064D000DCFC03009CFC030028D8030058D8030010
:1064E00080B588B000AF3B4610220021184613F05B
:1064F00067FB01233B7101233B733B46194A194655
:10650000194812F0DDFBF861FB69BB61BB69002B28
:1065100004D0164AEA21B86909F0BCFC144A0321E8
:10652000114812F044FAF861FB697B617B69002B2A
:1065300004D00E4AED21786909F0ACFC0022042158
:10654000094812F055FAF861FB693B613B69002B81
:1065500004D0064AF021386909F09CFC00BF2037BE
:10656000BD4680BD2164020048AD0020ECD7030089
:1065700034DD030080B582B000AF78607B685B8853
:106580001A4613465B001344DB000B4A1344796838
:10659000184612F0A7FC7B685B881A46342302FB7E
:1065A00003F3064A13447968184605F0F7FF00BF65
:1065B0000837BD4680BD00BFECAB00204CAC0020CE
:1065C00080B586B000AF78603960304A304BD31A5E
:1065D000DB081B0443F003032E49184608F0D0FCE7
:1065E0003B681B78022B3FD0022B4BDC002B01D0E9
:1065F000012B47E0254A264BD31ADB081B0443F046
:1066000003032549184608F0BBFC3B6859883B68E2
:106610000E331A46786812F0E9FD78617B693B61B8
:106620003B69002B05D01D4A40F21B11386909F067
:1066300031FC786812F0BCFD78617B69FB60FB6817
:10664000002B05D0154A4FF48F71F86809F022FC31
:106650000E4A0F4BD31ADB081B0443F00303104907
:10666000184608F08DFC0DE0084A094BD31ADB08E8
:106670001B0443F003030B49184608F081FCFFF7A5
:10668000A7FE00BF00BF1837BD4680BDDCFC03007D
:106690009CFC030068D8030080D80300ECD70300FB
:1066A00094D80300C4D8030080B5AAB000AF7860C6
:1066B00039607B680433C7F898307B681B883B2BB4
:1066C00062DC102BC0F2BC81103B2B2B00F2B88196
:1066D00001A252F823F000BF91670200D1680200C6
:1066E000416A020037690200416A0200416A020001
:1066F000416A0200416A0200416A0200416A0200E6
:10670000416A020013690200416A0200416A020004
:10671000416A020069690200416A0200A16902003F
:10672000416A0200416A0200416A0200416A0200B5
:10673000416A0200416A0200416A0200416A0200A5
:10674000416A0200416A0200416A0200416A020095
:10675000416A0200416A0200416A0200416A020085
:10676000416A0200416A0200416A0200416A020075
:10677000416A0200416A0200416A0200416A020065
:10678000416A0200E1690200562B00F0418157E1A5
:106790007B689B881A4613465B001344DB00B14AB2
:1067A00098187B689B880022194612F01FFDC7F8D5
:1067B000A000D7F8A030C7F88830D7F88830002B71
:1067C00006D0A94A4FF4A371D7F8880009F062FBFC
:1067D000D7F898301B881A46342302FB03F3A34AE8
:1067E0009818D7F898301B880022194606F00AFA44
:1067F000C7F8A000D7F8A030C7F88430D7F88430A5
:10680000002B06D0984A4FF4A571D7F8840009F000
:1068100041FB06F01BFC0346032B01D8FFF7D8FD14
:1068200007200FF059FDC7F8A000D7F8A030C7F82F
:106830008030D7F88030002B06D08B4A40F25511BB
:10684000D7F8800009F026FB4FF413620021884836
:1068500013F0B6F97B689B881946854811F04EF80D
:10686000C7F8A000D7F8A030FB67FB6F002B05D05E
:106870007D4A4FF4AD71F86F09F00CFB7D4B1B881E
:10688000A7F874307B689B8807F17402114618469C
:10689000FFF720FDC7F8A000D7F8A030BB67BB6F9B
:1068A000002B05D0704A4FF4B271B86F09F0F2FABC
:1068B000D7F898301B881A4607F10C036E49184622
:1068C00013F0F0FD07F10C03184601F05DFCC4E085
:1068D000D7F898301B881A4607F10C036749184609
:1068E00013F0E0FD07F10C03184601F04DFC644A7B
:1068F000644BD31ADB081B0443F00300D7F898302D
:106900001B881A46D7F898301B795F4908F05AFB64
:10691000A3E0D7F898301B79022B40F09380584AB7
:10692000584BD31ADB081B0443F00303574918469E
:1069300008F026FB86E07B689888002300228521EA
:10694000FFF7C4FCC7F8A000D7F8A030C7F88C3018
:10695000D7F88C30002B77D0434A4FF4C471D7F866
:106960008C0009F097FA6FE0D7F898301A88D7F8BA
:106970009830043319461046FFF7A0FCC7F8A00072
:10698000D7F8A030C7F89030D7F89030002B5DD002
:10699000354A40F28F11D7F8900009F07BFA55E0A4
:1069A000002387F87030002387F871307B689B885C
:1069B00007F1700211461846FFF78CFCC7F8A000DB
:1069C000D7F8A030C7F89430D7F89430002B3FD0D8
:1069D000254A40F29B11D7F8940009F05BFA37E0A2
:1069E0007B689B8813211846FFF76CFCC7F8A00052
:1069F000D7F8A030C7F89C30D7F89C30002B29D0AE
:106A0000194A4FF4D271D7F89C0009F043FA21E0FB
:106A10007B689B8813211846FFF754FCC7F8A00039
:106A2000D7F8A030C7F8A430D7F8A430002B13D083
:106A30000D4A4FF4D671D7F8A40009F02BFA0BE0F9
:106A400000BF0AE000BF08E000BF06E000BF04E0AE
:106A500000BF02E000BF00E000BF00BFA837BD4696
:106A600080BD00BFECAB0020ECD703004CAC002095
:106A7000D88F002048D90300D4D80300E4D80300FD
:106A8000DCFC03009CFC0300F8D8030028D90300B9
:106A900080B586B000AF12F031FD78617B693B6153
:106AA0003B69002B05D0164A40F2C311386909F042
:106AB000F1F900237B603B1D1946012012F0D8FD3F
:106AC00078617B69FB60FB68002B05D00C4A40F2C3
:106AD000C911F86809F0DEF93B1D184612F0F8FEFE
:106AE00078617B69BB60BB68002B05D0044A40F22B
:106AF000CD11B86809F0CEF900BF1837BD4680BD8A
:106B0000ECD7030080B582B000AF786039603B6895
:106B10001B8840F6772293421FD1124A124BD31A98
:106B2000DB081B0443F003031049184608F028FA59
:106B30003B689B88033B9AB20D4B1A80094A0A4B6B
:106B4000D31ADB081B0443F00300094B1B881A46C9
:106B5000074B1B88074908F035FA00BF0837BD46C8
:106B600080BD00BFDCFC03009CFC03004CD903008B
:106B70002499002068D9030080B584B000AF124981
:106B8000124811F05AF9F860FB68BB60BB68002B33
:106B900005D00F4A40F2E511B86809F07BF9F721FA
:106BA0000A4811F076F9F860FB687B607B68002B7F
:106BB00005D0074A4FF4F471786809F06BF900BF0B
:106BC0001037BD4680BD00BF056B02001CAD002024
:106BD000ECD7030080B584B000AF3B46082200210B
:106BE000184612F0EDFF0C4B3B600C4B7B603B46B4
:106BF000184610F0BBFDF860FB68BB60BB68002B5B
:106C000005D0074A4FF40471B86809F043F900BF92
:106C10001037BD4680BD00BF756502001099002089
:106C2000ECD7030090B585B000AF786039603A6862
:106C300079681B4809F0E6FAF8601A4A1A4BD31A29
:106C4000DB081B0443F00304154804F061FC034611
:106C50001A461649204608F0A2F9FB68042B0AD10F
:106C6000104A114BD31ADB081B0443F003031049ED
:106C7000184608F085F9FB68002B02D10D4800F09A
:106C800009FCFB68BB60BB68002B05D00A4A40F2D8
:106C90004F21B86809F0FEF800BF1437BD4690BD1B
:106CA000DC9B0020DCFC03009CFC0300CCD903002F
:106CB000DCD90300F1740200ECD7030080B582B088
:106CC00000AF78607B685B88002B12D12D4B1B6A6C
:106CD00001332C4A13622C4A2C4BD31ADB081B04B9
:106CE00043F00303274A126A2949184608F057F966
:106CF00043E07B685B88012B12D1224B5B6A013336
:106D0000204A5362204A214BD31ADB081B0443F06C
:106D100003031C4A526A1F49184608F040F92CE048
:106D20007B685B88022B12D1164B9B6A0133154A94
:106D30009362154A154BD31ADB081B0443F0030377
:106D4000104A926A1449184608F029F915E07B6840
:106D50005B88032B11D10B4BDB6A0133094AD362E9
:106D6000094A0A4BD31ADB081B0443F00303054A04
:106D7000D26A0A49184608F012F900BF0837BD4622
:106D800080BD00BF888F0020DCFC03009CFC03005A
:106D9000FCD9030018DA030034DA030050DA0300E8
:106DA00080B59AB002AF786039600B20FFF7A2FA85
:106DB0003868FFF783FF3B681B78013B072B00F225
:106DC000AD8101A252F823F0E96D02001D710200AD
:106DD0001D71020039710200FB6D02001D7102007D
:106DE000576F0200CD6E02003968786800F02EFA05
:106DF0003968786800F058FA9FE1002387F85F301F
:106E00005FE03C237B657A6D07F10803002118469B
:106E100012F0D6FE3B685B88A7F8403001237B72F6
:106E200097F85F303A681B01134404331B6807EE80
:106E3000903AB8EEE77ADFEDC46AC7EE267AC7ED7E
:106E40000C7A97F85F303A681B01134408331B68CB
:106E500007EE903AB8EEE77ADFEDBB6AC7EE267A26
:106E6000C7ED0D7A97F85F303A681B0113440C3375
:106E70001B6807EE903AB8EEE77ADFEDB36AC7EE2B
:106E8000267AC7ED0E7A97F85F303A681B011344F3
:106E900010331B6807EE903AB8EEE77ADFEDAA6A86
:106EA000C7EE267AC7ED0F7A07F1540207F10803FF
:106EB00011461846FFF7B6FE97F85F30013387F8A2
:106EC0005F3097F85F30042B9BD936E10C23BB650C
:106ED0003B68DB6807EE903AB8EEE77ADFED9B6A35
:106EE000C7EE267AC7ED127A3B689B6807EE903AA8
:106EF000B8EEE77ADFED956AC7EE267AC7ED137A2A
:106F00003B685B6807EE903AB8EEE77ADFED8F6A90
:106F1000C7EE267AC7ED147A8D4A8E4BD31ADB085A
:106F20001B0443F00300D7ED127AFDEEE77A17EE6B
:106F3000902AD7ED137AFDEEE77A17EE901AD7ED87
:106F4000147AFDEEE77A17EE903A00930B468249E9
:106F500008F04EF8F1E0002387F85E30D8E03C23DB
:106F60007B647A6C07F108030021184612F028FEB2
:106F70003B685B88A7F8403001233B7297F85E209E
:106F800039681346DB0013445B000B440A33B3F942
:106F9000003007EE903AB8EEE77ADFED706AC7EEA0
:106FA000267AC7ED037A97F85E2039681346DB002E
:106FB00013445B000B440C33B3F9003007EE903AF6
:106FC000B8EEE77ADFED656AC7EE267AC7ED047A98
:106FD00097F85E2039681346DB0013445B000B44CE
:106FE0000E33B3F9003007EE903AB8EEE77ADFEDF2
:106FF0005B6AC7EE267AC7ED057A97F85E20396896
:107000001346DB0013445B000B440433B3F9003038
:1070100007EE903AB8EEE77ADFED516AC7EE267ACE
:10702000C7ED067A97F85E2039681346DB001344F3
:107030005B000B440633B3F9003007EE903AB8EE2C
:10704000E77ADFED476AC7EE267AC7ED077A97F849
:107050005E2039681346DB0013445B000B440833A1
:10706000B3F9003007EE903AB8EEE77ADFED3C6A0C
:10707000C7EE267AC7ED087A97F85E20396813467E
:10708000DB0013445B000B441033B3F9003007EE10
:10709000903AB8EEE77AF3EE006AC7EE267AC7EDCB
:1070A000097A97F85E2039681346DB0013445B00C9
:1070B0000B441233B3F9003007EE903AB8EEE77A9A
:1070C000F3EE006AC7EE267AC7ED0A7A97F85E20DB
:1070D00039681346DB0013445B000B441433B3F9E7
:1070E000003007EE903AB8EEE77AF3EE006AC7EEAA
:1070F000267AC7ED0B7A07F1440207F1080311461F
:107100001846FFF78FFD97F85E30013387F85E3041
:1071100097F85E30042B7FF622AF0EE00C4A0D4B41
:10712000D31ADB081B0443F003003B681B781A46A4
:107130000C4907F034FF00E000BF0B20FFF7EFF829
:1071400000BF6037BD4680BD0000804E0000804714
:10715000DCFC03009CFC03006CDA0300000000422E
:107160000000804480DA030080B584B000AF134B88
:107170003B600023FB6019E0FB68342202FB03F351
:107180000F4A13443A461146184605F08DFBB86085
:10719000BB687B607B68002B05D00A4A4FF44171C5
:1071A000786808F077FEFB680133FB60FB68032B0F
:1071B000E2D900BF00BF1037BD4680BDA16D0200FF
:1071C0004CAC0020ECD7030080B586B000AF164B66
:1071D0003B60164B7B60164BBB6000237B611AE063
:1071E0007A6913465B001344DB00124A13443A46A3
:1071F0001146184611F008FF38613B69FB60FB68D7
:10720000002B05D00C4A40F21931F86808F042FE14
:107210007B6901337B617B69032BE1DD00BF00BF2C
:107220001837BD4680BD00BFC1650200B1630200D2
:1072300010990020ECAB0020ECD7030080B500AF24
:10724000FFF7C2FFFFF790FF00BF80BD80B584B09D
:1072500000AF786039603B685B881A46342302FBD4
:1072600003F30D4A98183B6859883B6804331A4663
:1072700005F0C8FCF860094A094BD31ADB081B0467
:1072800043F003003B685B881A46064907F087FE17
:1072900000BF1037BD4680BD4CAC0020DCFC0300B5
:1072A0009CFC0300A8DA030080B588B000AF7860CA
:1072B00039603B685B881A46342302FB03F32D4A8E
:1072C0001344184605F0EEFBF861FB69BB61BB692E
:1072D000002B05D0284A40F23B31B86908F0DAFDAE
:1072E0003B685B881A46342302FB03F3214A1344AC
:1072F000184605F0F5FBF861FB697B617B69002BA3
:1073000005D01D4A40F23D31786908F0C3FD3B6865
:107310005B881A46342302FB03F3164A13441846CB
:1073200005F0FCFBF861FB693B613B69002B05D074
:10733000114A40F23F31386908F0ACFD3B685B8888
:107340001A46342302FB03F30A4A1344184605F095
:1073500003FCF861FB69FB60FB68002B05D0064A63
:1073600040F24131F86808F095FD00BF2037BD4676
:1073700080BD00BF4CAC0020ECD7030084B080B5CA
:1073800082B000AF07F1100C8CE80F000023FB71F6
:107390001AE0FB79342202FB03F3114A134407F18C
:1073A0001001184605F0F6FB38600E4A0E4BD31A52
:1073B000DB081B0443F003033A680C49184607F046
:1073C000EEFDFB790133FB71FB79032BE1D900BFA3
:1073D00000BF0837BD46BDE8804004B0704700BF1D
:1073E0004CAC0020DCFC03009CFC03000CD8030028
:1073F00080B584B000AF0023FB601EE01349FA683B
:1074000013465B001344DB000B4402331B8813213B
:107410001846FEF757FFB860BB68082B0AD0BB6858
:107420007B607B68002B05D0094A40F261317868A7
:1074300008F030FDFB680133FB60FB68032BDDDDEA
:1074400000BF00BF1037BD4680BD00BFECAB0020C1
:10745000ECD7030080B582B000AF4FF480520A49E8
:107460000A4808F032FE78607B683B603B68002B7E
:1074700005D0074A4FF45C71386808F00BFD00BF77
:107480000837BD4680BD00BFEC9B0020DC9B002080
:10749000ECD7030080B584B000AF7860114B5B6C13
:1074A000002B05D00F4B5B6C01330E4A536415E083
:1074B0000C4B5B6C01330B4A53640B4A00210020D8
:1074C00008F086FFF860FB68BB60BB68002B05D046
:1074D000064A40F28331B86808F0DCFC00BF103780
:1074E000BD4680BD888F0020F1740200ECD70300F8
:1074F0002DE9F04FADF2DC4D12AF07F59263A3F228
:10750000644318600A4607F59263A3F266431A8043
:107510000EE1002387F88F343C23C7F8843410230E
:10752000C7F8883407F2844207F1340319468648C5
:1075300008F027FE0346002B40F0E680834A844B88
:10754000D31ADB081B0443F003047F4803F0E0FF79
:1075500003461A467F49204607F021FD07F592634E
:10756000A3F25C435B78002B3CD007F59263A3F257
:107570005C431B8F1E4607F59263A3F25C439B6A34
:10758000184615F04DFC04460D4607F59263A3F22C
:107590005C43DB6A184615F043FC8046894607F5D4
:1075A0009263A3F25C431B6B184615F039FC8246CC
:1075B0008B4607F59263A3F25C435B6B184615F0AC
:1075C0002FFC02460B4607F17000CDE90623CDE9FA
:1075D00004ABCDE90289CDE9004532465E4912F09F
:1075E00061FF89E007F59263A3F25C431B78002BEF
:1075F00000F0828007F59263A3F25C431B8F1E4666
:1076000007F59263A3F25C435B68184615F008FC2B
:10761000C7E9080107F59263A3F25C439B6818462B
:1076200015F0FEFBC7E9060107F59263A3F25C4380
:10763000DB68184615F0F4FBC7E9040107F592630F
:10764000A3F25C431B69184615F0EAFBC7E9020187
:1076500007F59263A3F25C435B69184615F0E0FB03
:10766000C7E9000107F59263A3F25C439B691846E2
:1076700015F0D6FB82468B4607F59263A3F25C4376
:10768000DB69184615F0CCFB8046894607F5926306
:10769000A3F25C431B6A184615F0C2FB04460D4674
:1076A00007F59263A3F25C435B6A184615F0B8FBDA
:1076B00002460B4607F17000CDE91023CDE90E45D7
:1076C000CDE90C89CDE90AAB97ED007B8DED087B08
:1076D00097ED027B8DED067B97ED047B8DED047BB2
:1076E00097ED067B8DED027B97ED087B8DED007BA2
:1076F00032461A4912F0D6FE012387F88F34184B10
:107700005B6C013B164A536497F88F34002B0FD003
:1077100007F17003184603F0C6FE0346C7F870343D
:1077200007F58E6207F170031146184600F074FFEA
:107730000B4B5B6C002B7FF4ECAE00BF00BF07F27D
:107740009447BD46BDE8F08FDC9B0020DCFC0300C5
:107750009CFC0300E4DA0300F4DA03001CDB030002
:10776000888F002080B582B000AF324800F00CFD59
:10777000314800F009FD314B1B78002B02D0304816
:1077800000F002FD2D4B5B78002B02D02D4800F05D
:10779000FBFC2A4B9B78002B02D02B4800F0F4FC1A
:1077A000264B5B79002B02D0284800F0EDFC234BE0
:1077B000DB78002B02D0264800F0E6FC1F4B1B793B
:1077C000002B02D0234800F0DFFC1C4B9B69002BF0
:1077D00019D0214800F0D8FC184B9A693B461F4944
:1077E000184612F05FFE1E4A1E4BD31ADB081B041C
:1077F00043F003033A461C49184607F0D0FB3B46CA
:10780000184600F0C1FC0D4B93F84C30002B02D011
:10781000164800F0B9FC094B1B7A002B02D0144823
:1078200000F0B2FC034800F0AFFC00BF0837BD46D3
:1078300080BD00BF64DB030090DB0300888F002065
:10784000A4DB0300C0DB0300E0DB0300FCDB030080
:1078500018DC03003CDC030060DC03007CDC03007C
:10786000DCFC03009CFC030084DC030090DC0300D0
:10787000A4DC030080B5A6B000AF07F1640318468E
:1078800005F0FCFB0023C7F894301BE0D7F89430D8
:107890005B0007F19802134433F8303CA7F89230AC
:1078A000D7F894305A1CB7F8923038460A4912F08B
:1078B000F9FD3B46184600F067FCD7F894300133D9
:1078C000C7F894307B6ED7F894209A42DED300BF7D
:1078D00000BF9837BD4680BDC4DC030080B483B0D0
:1078E00000AF0346FB71044AFB79137200BF0C37EB
:1078F000BD465DF8047B7047888F002080B483B05C
:1079000000AF0346FB71054AFB7982F84C3000BF9B
:107910000C37BD465DF8047B704700BF888F0020A0
:1079200080B483B000AF0346FB71044AFB79137047
:1079300000BF0C37BD465DF8047B7047888F002080
:1079400080B483B000AF0346FB71044AFB795370E7
:1079500000BF0C37BD465DF8047B7047888F002060
:1079600080B483B000AF0346FB71044AFB79937087
:1079700000BF0C37BD465DF8047B7047888F002040
:1079800080B483B000AF0346FB71044AFB79D37027
:1079900000BF0C37BD465DF8047B7047888F002020
:1079A00080B483B000AF0346FB71044AFB791371C6
:1079B00000BF0C37BD465DF8047B7047888F002000
:1079C00080B483B000AF0346FB71044AFB79537166
:1079D00000BF0C37BD465DF8047B7047888F0020E0
:1079E00080B483B000AF0346FB71044AFB79937106
:1079F00000BF0C37BD465DF8047B7047888F0020C0
:107A000080B483B000AF7860044A7B68936100BFA4
:107A10000C37BD465DF8047B704700BF888F00209F
:107A200080B400AF114B00221A70104B00225A7024
:107A30000E4B00229A700D4B0022DA700B4B002285
:107A40001A710A4B00225A71084B00229A61074BA7
:107A500000221A72054B0022DA71044B002283F8CF
:107A60004C2000BFBD465DF8047B7047888F002026
:107A70002DE9B04F98B004AF764B1B7887F83030C3
:107A8000744B5B7887F83130724B9B7887F83230D3
:107A9000704B5B7987F833306E4BDB7887F8343086
:107AA0006C4B1B7987F835306A4B9B699BB2FB8620
:107AB000684B9B7987F83830664B1B7A87F83930EA
:107AC000644BDB7987F84830624B93F84C3087F889
:107AD000493006F059FD02460B465E49C1E90423D0
:107AE0005C4BD3E9042312F1080443F100054FF481
:107AF0007A524FF000032046294615F0C1FC024699
:107B00000B4612F5FA61B96243F10003FB62514B77
:107B1000D7E90A12C3E904124E4BD3E904452246C1
:107B20002B464FF000004FF00001590141EAD261AD
:107B3000500102460B46B2EB040863EB05094FF017
:107B400000024FF000034FEA890343EA98734FEABB
:107B500088029046994618EB04033B6149EB050304
:107B60007B614FF000024FF00003D7E9044529463E
:107B7000CB00214643EA51732146CA0012F5FA713F
:107B8000396243F100037B62334A4FF00003D7E9C7
:107B9000080115F075FC02460B46104619460246D0
:107BA0000B469418BC605B41FB60D7E9022312EBE3
:107BB000000A43EB010B4FF000024FF000034FEAC5
:107BC0004B1343EADA634FEA4A121AEB02043C60B1
:107BD0004BEB03037B60D7E9004523461B18BB61D1
:107BE0002B4641EB0303FB611A4BD7E90612C3E9AD
:107BF0000412184BD3E90423C7E91023174A184B82
:107C0000D31ADB081B0443F00300124BD3E904230F
:107C100013461A46134907F0C2F9104A104BD31AFB
:107C2000DB081B0443F0030397F849200E4918466C
:107C300007F0B5F96C4607F140030FCB84E80F005D
:107C400007F130030FCBFFF799FB00BF5037BD465C
:107C5000BDE8B08F888F0020A0860100DCFC030007
:107C60009CFC0300E8DC0300FCDC030080B483B070
:107C700000AF0346FB71FB7903F1804303F5C0437A
:107C80001A460123136000BF0C37BD465DF8047B24
:107C9000704780B483B000AF0346FB71FB7903F1FA
:107CA000804303F5C04318460C37BD465DF8047B9E
:107CB0007047000080B485B000AF78600A4A7B68E6
:107CC00003F5A27352F8233043F00303FB60064927
:107CD0007B6803F5A273FA6841F8232000BF1437CC
:107CE000BD465DF8047B70470060004080B485B0FD
:107CF00000AFF860B96011461A460B46FB71134697
:107D0000BB71184AFB6803F5A27352F8233015497A
:107D100023F4981323F4F853FA6802F5A27241F899
:107D20002230104AFB6803F5A27352F82320BB6887
:107D30001B0203F4F851FB791B0403F4403319438D
:107D4000BB791B0503F480130B4306491A43FB68F8
:107D500003F5A27341F8232000BF1437BD465DF838
:107D6000047B704700600040B0B586B000AF284B80
:107D70001B78002B47D106F007FCC7E90401D7E9BF
:107D8000042312F1080443F100054FF47A524FF036
:107D900000032046294615F073FB02460B461346A6
:107DA000FB60FB684FF47A7202FB03F303F5FA738E
:107DB000184AA2FB03239B0903F5FA63BB60BB6867
:107DC000144AA2FB03239B094FF47A7202FB03F3CC
:107DD000BB600C20FFF75DFF03461946B86805F04D
:107DE00005FE78607B683B603B68002B04D00A4A44
:107DF0002C21386808F04EF86C20FFF737FF044B51
:107E000001221A7000E000BF1837BD46B0BD00BFA8
:107E100030B10020D34D621038DD030080B400AFD4
:107E2000034B00221A7000BFBD465DF8047B70470B
:107E300030B1002080B400AF034B1B781846BD461C
:107E40005DF8047B704700BF30B10020B0B58AB048
:107E500000AF78607B68002B14BF01230023DBB2E6
:107E60007B627B6A002B04D1434A4121002008F049
:107E700011F87B681B78022B22D0022B6CDC002BC4
:107E800002D0012B0ED067E03C4A3D4BD31ADB08F1
:107E90001B0443F003033B49184607F071F8FFF752
:107EA00063FF64E0354A364BD31ADB081B0443F00A
:107EB00003033549184607F063F8FFF7AFFF56E0B4
:107EC000FFF7B8FF0346002B2CD07B689B68043378
:107ED0003B620C20FFF7DDFE03461946386A05F0C9
:107EE00085FDF861FB69002B11D0244A244BD31A7D
:107EF000DB081B0443F00303FA692449184607F022
:107F00004EF800BF07F0D8F80346002BFAD1FB6902
:107F1000BB61BB69002B08D0174A6021B86907F024
:107F2000B9FF02E06C20FFF7A1FE06F02DFBC7E9C8
:107F30000401D7E9042312F1080443F100054FF4CA
:107F40007A524FF000032046294615F099FA02466E
:107F50000B461346FB600AE00023BB60BB68002BA6
:107F600004D1054A6E21002007F094FF00BF00BF36
:107F70002837BD46B0BD00BF38DD0300DCFC030080
:107F80009CFC03005CDD030070DD030088DD030062
:107F9000B0B58AB000AF0023032218210320FFF7F9
:107FA000A5FE0320FFF786FE294B07F108041D46B6
:107FB0000FCD0FC42B68236007F10803184606F0A5
:107FC000ADF978627B6A3B623B6A002B04D0214AA0
:107FD0008F21386A07F05EFF1F4A3B4692E8030094
:107FE0001860043319803B46184606F0F5F97862AC
:107FF0007B6AFB61FB69002B04D0164A9721F86964
:1080000007F048FF154A164BD31ADB081B0443F050
:1080100003031449184606F0B3FF104A104BD31A55
:10802000DB081B0443F003030F49184606F0A8FFC2
:108030000A4A0B4BD31ADB081B0443F003030B491A
:10804000184606F09DFF00BF2837BD46B0BD00BFF3
:1080500038DE030038DD03004CDE0300DCFC0300E7
:108060009CFC0300A4DD0300C8DD0300FCDD03006D
:10807000B0B584B000AF06F087FAC7E90201D7E9CE
:10808000022312F1080443F100054FF47A524FF035
:1080900000032046294615F0F3F902460B46134625
:1080A0007B607B684FF47A7202FB03F303F5FA738B
:1080B0000A4AA2FB03239B093B60094A094BD31AD6
:1080C000DB081B0443F003007B683A68064906F0AE
:1080D00079FF00BF1037BD46B0BD00BFD34D621061
:1080E000DCFC03009CFC030054DE030080B582B07E
:1080F00000AF0346FB710748074B1B6A5A0901236F
:10810000002100F083FC054801F00CFB00BF08379C
:10811000BD4680BD7CDE03009CB4002084DE0300ED
:1081200080B584B000AF4FF480621249124807F066
:10813000CCFFF860FB68BB60BB68002B04D00F4A23
:108140005021B86807F0A6FE4FF480720C490D4824
:1081500007F0BBFFF860FB687B607B68002B04D0F6
:10816000064A5421786807F095FE00BF1037BD46D7
:1081700080BD00BFDCB40020CCB40020ACDE030026
:10818000F4BE0020E4BE002080B5C4B000AF07F507
:108190008873A3F58673186007F58873A3F5867353
:1081A000186812F0A7F90346C7F80C31D7F80C216C
:1081B00007F58873A3F5867307F10C00196811F0B1
:1081C000F1FC07F5867207F10C031146184600F022
:1081D00023FA00BF07F58877BD4680BD2DE9F0433F
:1081E00089B002AF78600B46FB706B461E46F9788B
:1081F0000B46013B7B61CBB20022984691464FF083
:1082000000024FF000034FEAC90343EA58734FEAF4
:10821000C802CBB200221C4615464FF000024FF0B8
:108220000003EB0043EA5473E2000B460733DB081C
:10823000DB00ADEB030D02AB00333B61FB781A466C
:108240007968386911F0AEFC164A174BD31ADB086F
:108250001B0443F003007B681B781A467B680133DC
:108260001B7819467B6802331B7800930B460F4935
:1082700006F0BEFE386911F049FC0346FB73094A5B
:10828000094BD31ADB081B0443F00303FA7B0849AC
:10829000184606F084FEFB7BB54618461C37BD46E3
:1082A000BDE8F083DCFC03009CFC0300C8DE030097
:1082B000D4DE030080B58AB000AF786039607B6897
:1082C0007B6200237B843B681B78032B00F2DF80FA
:1082D00001A252F823F000BF198302000B840200B0
:1082E000E9820200018302006B4A6C4BD31ADB085F
:1082F0001B0443F003036A49184606F041FEC7E039
:10830000654A664BD31ADB081B0443F00303654937
:10831000184606F035FEBBE05F4A604BD31ADB0817
:108320001B0443F003036049184606F029FE3B682E
:108330009B68022B0AD9584A584BD31ADB081B04F6
:1083400043F001035949184606F01AFE3B68596884
:108350003B6808331A46564807F054FFF861FB693A
:108360007B617B69002B04D0524A9921786907F020
:1083700091FDFB69002B11D0474A484BD31ADB080B
:108380001B0443F00303FA694B49184606F007FE45
:1083900000BF06F091FE0346002BFAD13E4A3F4B48
:1083A000D31ADB081B0443F003003B685B681B78AF
:1083B0001A463B685B681B78404906F003FE364A64
:1083C000364BD31ADB081B0443F003033C49184621
:1083D00006F0D6FD3B4B5B681A460021002007F0F3
:1083E000F7FFF861FB693B613B69002B04D0314A20
:1083F000A621386907F04EFD3B6859683B689B68C9
:108400001A46786A01F0FAFC42E0234A234BD31A59
:10841000DB081B0443F003032B49184606F0B0FDAC
:108420004FF48063FB6007F10C031A462749284884
:1084300007F0A7FEF861FB69002B17D1FB68244AFF
:10844000C2F8143A224BD3F8143A1A461F4921486D
:1084500001F0C2FCF861FB69BB61BB69002B0AD06B
:10846000144ABE21B86907F015FD04E00523FB613D
:10847000144B00221A70084A084BD31ADB081B045D
:1084800043F003031449184606F07AFD00E000BFEC
:1084900000BF2837BD4680BDDCFC03009CFC030008
:1084A000D8DE0300F8DE030020DF030040DF030016
:1084B000E4BE0020ACDE030048DF03007CDF0300E5
:1084C0008CDF0300C4B4002098DF0300DCBA002076
:1084D000CCB4002084DE0300A8DF030080B58EB09A
:1084E00000AF7860FFF71CFE224A7B68536007F1FB
:1084F0000C0320220021184611F062FB0823FB60C8
:1085000006233B614FF47A73FB61012387F8203027
:108510004FF080537B62062387F8293007F10C0166
:10852000154B164A144801F0C1F978637B6B3B6325
:108530003B6B002B04D0124AEF21386B07F0AAFCEA
:108540000D4801F0A9FB0F4B1B781A460E490A484B
:1085500001F042FC78637B6BFB62FB6A002B04D06A
:10856000074AF821F86A07F095FC00BF3837BD4686
:1085700080BD00BFC4B4002084DE0300B5820200C9
:10858000ACDE0300269900202899002080B584B035
:1085900000AF786039603B68FE2B0BD9174A184B47
:1085A000D31ADB081B0443F003033A681549184645
:1085B00006F0F5FC144B01221A70104A104BD31A26
:1085C000DB081B0443F003031049184606F0D8FCEF
:1085D0003A6879680E4801F0FFFBF860FB68BB6001
:1085E000BB68002B05D00B4A4FF48571B86807F0C3
:1085F00051FC00BF1037BD4680BD00BFDCFC03004E
:108600009CFC0300B8DF0300C4B40020E0DF0300DB
:1086100084DE0300ACDE030080B586B000AF786076
:10862000396007F1080304223968184611F0BAFAD4
:108630003A687968264807F0E5FD78617B693B6117
:108640003B69002B05D0234A4FF48C71386907F041
:1086500021FC7B69042B0AD11F4A204BD31ADB086B
:108660001B0443F003031E49184606F089FC7B698E
:10867000002B28D11B4B1B7883F00103DBB2002BAE
:1086800021D007F108031A461749114807F079FD70
:1086900078617B69002B0BD1BB680D4AC2F8103A98
:1086A0000B4BD3F8103A19460F48FFF76FFF0AE05B
:1086B0007B69FB60FB68002B05D0064A4FF49D7177
:1086C000F86807F0E7FB00BF1837BD4680BD00BF64
:1086D000CCB40020ACDE0300DCFC03009CFC0300F7
:1086E000ECDF0300C4B40020DCB8002080B584B007
:1086F00000AF786039603A687968044807F041FD56
:10870000F860FB6818461037BD4680BDE4BE002007
:1087100080B584B000AF78607968044807F01BFD2D
:10872000F860FB6818461037BD4680BDE4BE0020E7
:1087300080B483B000AF0346FB7197F90730002B7C
:108740000BDBFB7903F01F02074997F907305B0940
:10875000012000FA02F241F8232000BF0C37BD4689
:108760005DF8047B704700BF00E100E080B483B097
:1087700000AF03463960FB7197F90730002B0ADB25
:108780003B68DAB20C4997F907305201D2B20B4478
:1087900083F800230AE03B68DAB20849FB7903F06A
:1087A0000F03043B5201D2B20B441A7600BF0C37C0
:1087B000BD465DF8047B704700E100E000ED00E09D
:1087C00080B582B000AF03460A46FB711346BB7109
:1087D000BA7997F9073011461846FFF7C7FF00BF6F
:1087E0000837BD4680BD80B582B000AF0346FB713F
:1087F00097F907301846FFF79BFF00BF0837BD46C3
:1088000080BD80B485B000AFF860B9607A60FB6865
:10881000BA6802F5A872796843F8221000BF1437CD
:10882000BD465DF8047B704780B483B000AF7860CC
:1088300039607B683A68C3F8042300BF0C37BD4633
:108840005DF8047B704780B483B000AF7860396016
:108850007B683A68C3F8082300BF0C37BD465DF853
:10886000047B704780B483B000AF786039607B6868
:10887000D3F804233B68134018460C37BD465DF817
:10888000047B704780B483B000AF78600B467B8078
:108890007B887A6813441B6818460C37BD465DF820
:1088A000047B704780B485B000AF78600B467B8056
:1088B0007B887A68134400221A607B887A681344A4
:1088C0001B68FB60FB6800BF1437BD465DF8047B86
:1088D000704780B483B000AF78607B68D3F804350C
:1088E00018460C37BD465DF8047B704780B483B0F2
:1088F00000AF786039607B683A68C3F8082500BF2C
:108900000C37BD465DF8047B704780B483B000AF80
:10891000786039607B683A68C3F8442300BF0C373D
:10892000BD465DF8047B704780B483B000AF7860CB
:1089300039607B683A68C3F8482300BF0C37BD46EE
:108940005DF8047B7047000080B586B000AFF8602A
:10895000B9607A60FB685B7919462A4A7B6842F8FD
:108960002130FB685B791946274A0B465B000B44B4
:1089700013441B78002B03D008237B617B693DE007
:10898000FB6893F90420BB689B7819461046FFF7F3
:1089900017FFFB6893F904301846FFF724FFFB68C4
:1089A0001A68BB681B8819461046FFF79FFFFB68D3
:1089B0005B791946BB681879134A0B465B000B4478
:1089C0001344013302461A70FB685B791946BB6891
:1089D000D8780D4A0B465B000B4413440233024621
:1089E0001A70FB685B791946074A0B465B000B441B
:1089F000134401221A7000237B617B6918461837E3
:108A0000BD4680BDF4BF0020FCBF002080B58AB009
:108A100000AFF860B9607A60FB704FF48032BB68D9
:108A200002FA03F3BB61BB689BB250339BB29B005D
:108A3000FB82FB681B68B9691846FFF775FFFB6886
:108A40001B68B9691846FFF7FEFE7B6823F07F4379
:108A50007B60FB685B7919462C4A0B465B000B4434
:108A6000134401331B78002B2CD0FB681B687A68F9
:108A7000B9681846FFF7C5FEFB681B681846FFF784
:108A800028FF38623A6A7B68D31AFB613A6A7B68CE
:108A90009A4205D2FB6903F1FF1303F57F43FB61A3
:108AA000FB685B791946194A0B465B000B4413447B
:108AB00002331B781A46FB6993420ADA0D237B6264
:108AC0007B6A1FE0FB681B687A68B9681846FFF785
:108AD00098FEFB78002B0CD0FB681B68FA8A1146C5
:108AE0001846FFF7DFFEFB681B68B9691846FFF7F9
:108AF0009BFEFB681B68B9691846FFF706FF002359
:108B00007B627B6A18462837BD4680BDFCBF0020CB
:108B100080B588B000AFF860B9607A604FF48033F8
:108B2000BB614FF4A073FB8300237B612CE0B96928
:108B3000F868FFF797FE0346002B1CD0FB8B194605
:108B4000F868FFF79FFE0346002B14D0B969F86858
:108B5000FFF7EAFEB969F868FFF775FEFB8B194667
:108B6000F868FFF79FFE294ABB6852F823307A69FC
:108B7000D2B210469847BB695B00BB61FB8B0433E4
:108B8000FB837B6901337B617A697B689A42CED330
:108B90004FF48073FB830121F868FFF763FE0346FF
:108BA000002B12D0FB8B1946F868FFF76BFE0346CB
:108BB000002B0AD0FB8B1946F868FFF773FE134AA7
:108BC000BB6852F82330042098474FF48273FB832C
:108BD0000221F868FFF746FE0346002B12D0FB8BFC
:108BE0001946F868FFF74EFE0346002B0AD0FB8BB0
:108BF0001946F868FFF756FE044ABB6852F823305E
:108C00000520984700BF2037BD4680BDF4BF002037
:108C100080B500AF032200210248FFF779FF00BFB3
:108C200080BD00BF00B0004080B500AF042201212C
:108C30000248FFF76DFF00BF80BD00BF004002404B
:108C400080B483B000AF0346FB7197F90730002B67
:108C50000BDBFB7903F01F02074997F907305B092B
:108C6000012000FA02F241F8232000BF0C37BD4674
:108C70005DF8047B704700BF00E100E080B483B082
:108C800000AF03463960FB7197F90730002B0ADB10
:108C90003B68DAB20C4997F907305201D2B20B4463
:108CA00083F800230AE03B68DAB20849FB7903F055
:108CB0000F03043B5201D2B20B441A7600BF0C37AB
:108CC000BD465DF8047B704700E100E000ED00E088
:108CD00080B483B000AF78607B681B0B5BB2184632
:108CE0000C37BD465DF8047B704780B582B000AF9D
:108CF00003460A46FB711346BB71BA7997F90730F0
:108D000011461846FFF7BAFF00BF0837BD4680BDC1
:108D100080B582B000AF0346FB7197F90730184663
:108D2000FFF78EFF00BF0837BD4680BD80B483B01B
:108D300000AF78600B46FB70FB787A681344012221
:108D40001A6000BF0C37BD465DF8047B704780B4E5
:108D500085B000AF78600B467B807B887A681344CF
:108D600000221A607B887A6813441B68FB60FB68EA
:108D700000BF1437BD465DF8047B704780B483B0F4
:108D800000AF78600B467B807B887A6813441B6851
:108D9000002B14BF01230023DBB218460C37BD465D
:108DA0005DF8047B704780B483B000AF78603960B1
:108DB0007B683A68C3F8042300BF0C37BD465DF8F2
:108DC000047B704780B483B000AF786039607B6803
:108DD0003A68C3F8082300BF0C37BD465DF8047B32
:108DE000704780B483B000AF786039607B68D3F897
:108DF00004233B681340002B14BF01230023DBB284
:108E000018460C37BD465DF8047B704780B483B0CC
:108E100000AF78600B46FB707B68D3F8043523F015
:108E20000302FB7803F003031A437B68C3F80425AD
:108E300000BF0C37BD465DF8047B704780B483B03B
:108E400000AF78600B46FB707B68D3F8083523F0E1
:108E50000302FB7803F003031A437B68C3F8082579
:108E600000BF0C37BD465DF8047B704780B483B00B
:108E700000AF78600B46FB707B68D3F8103523F0A9
:108E80000F02FB7803F00F031A437B68C3F8102529
:108E900000BF0C37BD465DF8047B704780B485B0D9
:108EA00000AFF8600B467A60FB72FA7AFB6802F555
:108EB000A872796843F8221000BF1437BD465DF8E8
:108EC000047B704780B483B000AF78607B689B0000
:108ED00003F5A0739BB218460C37BD465DF8047BC2
:108EE000704780B483B000AF78604FF480327B6805
:108EF00002FA03F318460C37BD465DF8047B704751
:108F000090B589B000AFF860B9607A60FB681B79F2
:108F10001A4613465B0013449B00304A13447B619E
:108F20007B691B7A002B03D00823FB61FB6950E0AF
:108F30007B697A681A60BB685A687B695A6000234B
:108F4000FB760DE0FB681C68FB7E1846FFF7BAFF56
:108F5000034619462046FFF7FAFEFB7E0133FB76F7
:108F6000FB685B79FA7E9A42ECD3FB681B68184673
:108F7000FFF7AEFE03461A46BB68DB78194610467B
:108F8000FFF7B3FEFB681B681846FFF7A1FE034618
:108F90001846FFF7BDFEFB681A68BB685B78194688
:108FA0001046FFF733FFFB681A68BB689B781946C9
:108FB0001046FFF743FFFB681A68BB681B78194629
:108FC0001046FFF753FF7B6901221A720023FB61F1
:108FD000FB6918462437BD4690BD00BF04C0002081
:108FE00080B582B000AF78607B681B6800211846AE
:108FF000FFF79CFE7B681B791946064A0B465B000F
:109000000B449B001344083302221A7000BF083738
:10901000BD4680BD04C0002080B582B000AF78603E
:109020007B681B680C211846FFF780FE00BF0837DD
:10903000BD4680BD90B587B000AFF8607A601A4633
:109040000B46FB721346BB72FB7A1846FFF749FFCB
:109050007861BB7A002B11D0FB681C68FB7A18463C
:10906000FFF730FF034619462046FFF770FEFB6806
:109070001B6879691846FFF796FE05E0FB681B68D8
:1090800079691846FFF79EFEFB681B68F97A7A68D3
:109090001846FFF703FF00BF1C37BD4690BD80B5E3
:1090A00086B000AFF860B9601346FB710023FB7512
:1090B00028E0FB7D1846FFF705FF0346BB82FB7DDA
:1090C0001846FFF70EFF3861BB8A1946F868FFF7AC
:1090D00055FE0346002B12D03969F868FFF781FE70
:1090E0000346002B0BD0BB8A1946F868FFF72FFE0A
:1090F000BB681B68BA685168BA8A10469847FB7DFE
:109100000133FB75FA7DFB799A42D2D300BF00BFD1
:109110001837BD4680BD000080B500AF042203496A
:109120000348FFF7BCFF00BF80BD00BF04C00020A4
:109130000080004080B500AF042203490348FFF7D8
:10914000AEFF00BF80BD00BF10C0002000900040F7
:1091500080B483B000AF0346FB7197F90730002B52
:109160000BDBFB7903F01F02074997F907305B0916
:10917000012000FA02F241F8232000BF0C37BD465F
:109180005DF8047B704700BF00E100E080B483B06D
:1091900000AF0346FB7197F90730002B12DBFB7918
:1091A00003F01F020A4997F907305B09012000FA12
:1091B00002F2203341F82320BFF34F8F00BFBFF3EB
:1091C0006F8F00BF00BF0C37BD465DF8047B704752
:1091D00000E100E080B582B000AF0346FB7197F973
:1091E00007301846FFF7B4FF00BF0837BD4680BD03
:1091F00080B582B000AF0346FB7197F9073018467F
:10920000FFF7C4FF00BF0837BD4680BD80B483B000
:1092100000AF78600B46FB70FB787A68134401223C
:109220001A6000BF0C37BD465DF8047B704780B400
:1092300083B000AF78600B46FB70FB787A6813440C
:1092400018460C37BD465DF8047B704780B483B088
:1092500000AF78600B467B807B887A6813441846A1
:109260000C37BD465DF8047B704780B483B000AF17
:1092700078607B689B0003F5A0739BB218460C379F
:10928000BD465DF8047B704780B582B000AF786062
:109290000B46FB707B681B68FA7811461846FFF78F
:1092A000C6FF034618460837BD4680BD90B583B05B
:1092B00000AF786039607B681C683868FFF7D5FFBD
:1092C000034619462046FFF7C1FF034618460C37F0
:1092D000BD4690BD80B483B000AF78600B467B8004
:1092E0007A887B68134418460C37BD465DF8047BCA
:1092F000704780B483B000AF78600B46FB70FA789B
:109300007B68134418460C37BD465DF8047B7047F4
:1093100080B483B000AF78600B46FB70FA787B684E
:1093200013441A460123136000BF0C37BD465DF895
:10933000047B704780B582B000AF78607B681B68A3
:1093400008211846FFF7E4FF00BF0837BD4680BD7F
:1093500080B582B000AF78600B46FB707B681B68FD
:10936000FA7811461846FFF7C4FF03461846083737
:10937000BD4680BD80B582B000AF78600B467B8073
:109380007B681B687A8811461846FFF7A3FF0346DF
:1093900018460837BD4680BD80B483B000AF786002
:1093A0000B467B807B887A68134418460C37BD4691
:1093B0005DF8047B7047000080B483B000AF0346C3
:1093C000FB71FB79034AD35C18460C37BD465DF848
:1093D000047B704770E003002DE9F00F86B000AF0A
:1093E00078617969002088468146C7E902894FF093
:1093F00000004FF00001C7E90001F9684E017E60EE
:109400007E68B96846EAD1667E60B968490139600C
:10941000D7E90001C7E902010146B1EB0804F96888
:1094200061EB09054FF000004FF00001A90141EA8E
:109430009461A001021B61EB05034FF000004FF0A7
:109440000001D90041EA5271D00002460B4612EBEE
:10945000080A43EB090B4FF000024FF000034FEAFC
:10946000CB1343EA5A634FEACA1292469B465046D0
:1094700059464FF000024FF00003C20B42EA41424E
:10948000CB0B134618461837BD46BDE8F00F7047A2
:1094900080B582B000AF7860796800200A46034644
:1094A0004FF000004FF00001990341EA9241900310
:1094B000054A4FF0000313F0E3FF02460B46134644
:1094C00018460837BD4680BD40420F0080B584B0C5
:1094D00000AF78607B681B68184608F027FB0346DE
:1094E000BB60BB68002B01D100231BE07B685B687D
:1094F00007F108021146184609F00CFAF860FB68FB
:10950000002B01D000230DE07B68DB69DA680132B3
:10951000DA607B689869B9687B685B6A1A4601F013
:10952000D2FC012318461037BD4680BD80B596B0E9
:1095300000AF786039607B68FB633B681B78042B65
:1095400000F2D78001A252F823F000BFDB950200A1
:1095500089950200619502007D960200A99602009D
:10956000012387F82C303B685B683B633B689B6852
:109570007B63FB6BDB691B68FA6BD269526807F18E
:109580002C0110469847C7E0FB6BDB6993F8263047
:10959000002B40F0BA80F86BFFF798FF034683F08A
:1095A0000103DBB2002B00F0B280FB6BDB6993F8A8
:1095B0002530002B05D0FB6BDB69012283F82620C8
:1095C000A5E00023BB64BB6C002B40F0A080544A94
:1095D000E621002006F05EFC99E03B689A68FB6B90
:1095E000DB695B69D31A7B647B6C002B3AD0FB6B25
:1095F000DB691969FB6BDB697A6C0A441A61002329
:1096000087F820303B685A68FB6BDB695B69134461
:109610007B627B6CBB62FB6BDB6900225A61FB6B7C
:109620005868FB6BDB6918330022194609F016FAFB
:1096300038653B6D002B0AD00023FB64FB6C002BCC
:1096400005D1374A40F20B11002006F023FCFB6BDA
:10965000DB691B68FA6BD269526807F1200110467A
:10966000984756E000233B643B6C002B51D12C4AB9
:109670004FF48A71002006F00DFC4AE007F1140354
:1096800000221A605A609A6002233B753B681B797E
:109690003B76FB6BDB691B68FA6BD269526807F19A
:1096A00014011046984737E03B685A68FB6BDB694A
:1096B0005B69D31ABB63FB6BDB691969FB6BDB6905
:1096C000BA6B0A441A6107F1080300221A605A6053
:1096D0009A6003233B723B685B68FB60FB6BDB6952
:1096E0001B68FA6BD269526807F108011046984767
:1096F00012E000237B657B6D002B0CD1084A4FF4F0
:109700009971002006F0C6FB05E000BF04E000BF31
:1097100002E000BF00E000BF00BF5837BD4680BD7B
:1097200020E0030080B588B000AF78607B689B695B
:10973000DB681B0B5BB21846FFF75AFD7B689B6921
:109740005B68D3F84C35FB617B68DB691B69FA69A0
:109750009A4227D97B68DB691B69FA69D31ABB6116
:1097600000233B737B68DB699A697B68DB695B6913
:1097700013443B61BB697B617B68DB6959697B682A
:10978000DB69BA690A445A617B68DB69FA691A6164
:109790007B68DB691B687A68D269526807F10C0143
:1097A000104698477B689B69DB681B0B5BB21846C9
:1097B000FFF710FD00BF2037BD4680BD80B582B0E9
:1097C00000AF03463960FB803868FFF7ABFF00BF8E
:1097D0000837BD4680BD80B588B000AF78607B6833
:1097E000FB6107F007FAB861FB69DB691B6A184681
:1097F000FFF74EFE03465B087B617B69052B38BF94
:1098000005237B61FB69DB6993F8273083F0010353
:10981000DBB2002B45D1FB699B695B684C21184684
:10982000FFF7F4FCFB699B695B68D3F84C353B613F
:10983000FB691B691B68FA697969184607F084F9A6
:10984000FB695B691B683A699A420CD0FB695B69EA
:109850003A691A60FB695B69BA695A60FB695B69BE
:1098600001221A721EE0FB695B695B681946B869E0
:1098700007F0AFF9F860FB695B691B7A002B11D028
:10988000F868FFF7A9FD0246FB69DB691B6A9A428B
:1098900008D9FB695B6900221A72F869FFF742FF79
:1098A00000E000BF2037BD4680BD000090B59BB0F2
:1098B00000AFF860B9607A603B60BB685B7F072BE4
:1098C00007D0FB681B69002B05D0BB685B7F052BAD
:1098D00001D90723D9E1FB68DB6993F82730002B16
:1098E00001D00823D1E1FB68DB697A681A60FB6864
:1098F000DB6900221A61FB68DB6900229A61FB6860
:10990000DB690022DA61FB68DB6900225A61FB68CF
:10991000DB690022DA60FB68DB693A685A60FB6841
:10992000DB69BA6812691A62FB68DB69002283F896
:109930002620BB681A7DFB68DB69012A0CBF012267
:109940000022D2B283F8252000233B660023FB656A
:109950000023BB6500237B65FB689B68002B4CD014
:109960009C4A07F1180392E8030018600433198039
:10997000BB685B7F1846FFF71FFD0346BB760023DD
:109980003B83FB689868FB681A6A07F1180319465D
:10999000FEF7DAFFF864FB6C002B01D0032374E1BF
:1099A000FB689868BB681B695A0901230021FFF70F
:1099B0002DF8F864FB6C002B01D0032365E1FB68F4
:1099C0009B6800211846FFF7C3FC3866FB689B685C
:1099D00008211846FFF7BCFCF865FB689B6804216A
:1099E0001846FFF7B5FCB865FB689B684FF4A0719B
:1099F0001846FFF7BFFC786584E0FB68DB68002B46
:109A000047D000233B7400237B740023BB740623E0
:109A1000FB7400237B6104233B74FB687B61BB68A0
:109A20005B7F1846FFF7C8FC0346FB74FB68DB68E6
:109A300007F11001684A1846FFF762FAF864FB6CF8
:109A4000002B01D0032320E1FB68D868BB681A69AA
:109A500001230021FFF7EEFAFB68DB6800211846BE
:109A6000FFF712FC3866FB68DB680C211846FFF72D
:109A70000BFCF865FB68DB6810211846FFF704FC57
:109A8000B865FB68DB6800211846FFF70FFC7865B6
:109A900038E0FB681B69002B27D0FB68DB6993F873
:109AA000243083F00103DBB2002B11D0FB681B696B
:109AB0004A4A0021184607F025F8F864FB6C002B91
:109AC00001D0FB6CE1E0FB68DB69012283F8242014
:109AD000FB685B6900221A72FB685B6900221A60EE
:109AE000FB685B6900225A600CE000233B653B6D1C
:109AF000002B05D13A4A4FF4F271002006F0CAF962
:109B00000323C2E0FB681B69002B6BD100237B663B
:109B100010E0FB68DA697B6E08331344184602F0E4
:109B2000E5F9F864FB6C002B01D00323ADE07B6EFC
:109B300001337B667B6E012BEBD9FB68DB691C7AFA
:109B4000FB689B69DB684FF484711846FFF724FCBF
:109B500003463A6E1946204602F046FAF864FB6C5A
:109B6000002B01D0032390E0FB6D002B0CD0FB6891
:109B7000DB691B7AF96D184602F06CFAF864FB6C2D
:109B8000002B01D0032380E0FB68DB695B7ABA6DB0
:109B9000796D184602F028FAF864FB6C002B01D0AE
:109BA000032372E0FB689B695B684C33002B19D080
:109BB000FB68DB695A7AFB689B695B684C33194622
:109BC000104602F047FAF864FB6C002B0AD003231E
:109BD0005BE000BF68E00300BD970200D79702007A
:109BE00020E00300BB685B683B62BB681B687B626C
:109BF000BB689B68BB62BB68DB68FB62FB689B69F8
:109C0000DB684FF488711846FFF7C6FB03463B63D9
:109C100000237B630023BB630023FB63BB681B7DC6
:109C200087F84030BB685B7D87F84130BB689B6933
:109C30007B64BB685B7F87F84830BB681B7F87F815
:109C40004930FB68986907F12001FB68114A00F070
:109C500015FFF864FB6C002B01D0FB6C15E0FB6872
:109C60001B68184607F036FFF864FB6C002B01D028
:109C7000FB6C0AE0FB685B68184608F077FFFB683E
:109C8000DB69012283F82720FB6C18466C37BD4640
:109C900090BD00BF2D95020080B58AB000AF7860FE
:109CA0007B681B68184607F041FF78627B68DB69B8
:109CB000DA680132DA607B6A002B0AD100233B624A
:109CC0003B6A002B05D1434A4FF41571002006F082
:109CD000E1F87B689B68002B05D07B689B68184681
:109CE000FFF728FB08E07B68DB68002B04D07B686B
:109CF000DB681846FFF790F97B681B69002B2DD1B4
:109D00007B68DB691B7A184602F0C3F9F861FB69CE
:109D1000002B0CBF01230023DBB2BB61BB69002B0E
:109D200005D12C4A40F26521002006F0B3F87B688B
:109D3000DB695B7A184602F0ACF9F861FB69002B2D
:109D40000CBF01230023DBB27B617B69002B05D1B3
:109D5000204A40F26721002006F09CF87B68DB690E
:109D60007A6A9A617B6898697B685A6A0023796A83
:109D700001F03AF838613B69002B0CBF0123002346
:109D8000DBB2FB60FB68002B05D1124A4FF41B715C
:109D9000002006F07FF87B681B69002B15D07B68DC
:109DA000DB691B6A1846FFF773FB03465B08BB6061
:109DB000BB68052B38BF0523BB607B681B691B682C
:109DC0007A68B968184606F0BFFE00BF2837BD465E
:109DD00080BD00BF20E0030080B584B000AFF86014
:109DE000B9607A60FB689B697A68B968184600F0C8
:109DF00075FF034618461037BD4680BD80B588B054
:109E000000AFF860B9607A60FB68DB69D969FB680C
:109E1000DB697A680A44DA61FB68DB69DA69FB6846
:109E20005B6A9A4237D1FB68DB69DB697A68D31ACF
:109E3000BA681344BB60FB68DB690022DA61FB6827
:109E40001B68B968184607F0ABFEFB68DB69DA6887
:109E5000013ADA60FB68DB69DB68002B0ADA002371
:109E6000FB61FB69002B05D1164A4FF422710020DB
:109E700006F010F8FB68DB6993F82630002B1CD045
:109E8000F868FFF723FB0346FB76FB68DB690022DB
:109E900083F8262011E0FB68DB69DA69FB685B6AFE
:109EA0009A420AD900237B617B69002B05D1054AC0
:109EB00040F29621002005F0EDFF00BF2037BD469F
:109EC00080BD00BF20E0030080B483B000AF034634
:109ED000FB7197F90730002B0BDBFB7903F01F02B6
:109EE000074997F907305B09012000FA02F241F8AF
:109EF000232000BF0C37BD465DF8047B704700BFD0
:109F000000E100E080B483B000AF0346FB7197F935
:109F10000730002B0CDBFB7903F01F02074997F990
:109F200007305B09012000FA02F2603341F8232078
:109F300000BF0C37BD465DF8047B704700E100E0D0
:109F400080B483B000AF03463960FB7197F90730E6
:109F5000002B0ADB3B68DAB20C4997F90730520153
:109F6000D2B20B4483F800230AE03B68DAB2084916
:109F7000FB7903F00F03043B5201D2B20B441A7673
:109F800000BF0C37BD465DF8047B704700E100E080
:109F900000ED00E080B483B000AF78607B681B0BFD
:109FA0005BB218460C37BD465DF8047B704780B441
:109FB00085B000AF78600B467B807B887A6813445D
:109FC00000221A607B887A6813441B68FB60FB6878
:109FD00000BF1437BD465DF8047B704780B483B082
:109FE00000AF78600B467B807B887A6813441B68DF
:109FF000002B14BF01230023DBB218460C37BD46EB
:10A000005DF8047B704780B483B000AF78600B4686
:10A010007B807B887A68134418460C37BD465DF810
:10A02000047B704780B483B000AF786039607B6890
:10A030003A68C3F8042300BF0C37BD465DF8047BC3
:10A04000704780B485B000AF78607B68D3F8803407
:10A05000FB607B68FA68C3F88024FB6818461437F5
:10A06000BD465DF8047B704780B483B000AF786074
:10A070007B680822C3F8002500BF0C37BD465DF899
:10A08000047B704780B485B000AFF860B9607A6037
:10A09000FB68BA68C3F80C25FB687A68C3F8142516
:10A0A00000BF1437BD465DF8047B704780B485B0AF
:10A0B00000AFF860B9607A60FB68BA68C3F8082539
:10A0C000FB687A68C3F8102500BF1437BD465DF8F9
:10A0D000047B704780B483B000AF78600B46FB70A0
:10A0E000FB787A68134401221A6000BF0C37BD4622
:10A0F0005DF8047B704780B483B000AF78600B4696
:10A10000FB70FA787B68134418460C37BD465DF83F
:10A11000047B704780B483B000AF78600B46FB705F
:10A120001346BB70FA78BB781343DBB21A467B68E0
:10A13000C3F86C2500BF0C37BD465DF8047B704743
:10A1400080B483B000AF786039607B683A68C3F848
:10A15000242500BF0C37BD465DF8047B704780B4F2
:10A1600085B000AFF860B9607A60BA68FB68C3F880
:10A170004425FB687A68C3F8482500BF1437BD46FC
:10A180005DF8047B704780B483B000AF78607B6873
:10A19000D3F84C3518460C37BD465DF8047B704744
:10A1A00080B485B000AFF860B9607A60BA68FB68C7
:10A1B000C3F83425FB687A68C3F8382500BF143724
:10A1C000BD465DF8047B704780B483B000AF0346A2
:10A1D000FB71FB79DB0003F1804303F5F83318468C
:10A1E0000C37BD465DF8047B704780B483B000AF88
:10A1F0000346FB71FB79DB00043303F1804303F575
:10A20000F83318460C37BD465DF8047B704780B4C0
:10A2100083B000AF0346FB71FB79012202FA03F31E
:10A2200018460C37BD465DF8047B704780B582B098
:10A2300000AF03460A46FB711346BB71FB79184613
:10A24000FFF7E5FF0246BB791946104602F034F8E5
:10A25000034618460837BD4680BD80B582B000AFC2
:10A260000346FB71FB791846FFF7AEFF034618461D
:10A270000837BD4680BD80B582B000AF0346FB7194
:10A28000FB791846FFF7B1FF034618460837BD466D
:10A2900080BD80B483B000AF78600B46FB70FB7864
:10A2A0007A68134418460C37BD465DF8047B704746
:10A2B00080B483B000AF78600B467B807B887A687F
:10A2C000134418460C37BD465DF8047B704780B4D4
:10A2D00083B000AF78600B46FB70FA787B6802F5BC
:10A2E000A87253F8223018460C37BD465DF8047B3F
:10A2F000704780B483B000AF78607B689B004033C8
:10A30000DBB218460C37BD465DF8047B704780B45D
:10A3100083B000AF78607B689B0003F5A0739BB2AD
:10A3200018460C37BD465DF8047B704780B582B097
:10A3300000AF78600B46FB707B681B68FA781146AB
:10A340001846FFF7A6FF034618460837BD4680BDEE
:10A3500090B583B000AF786039607B681C6838685E
:10A36000FFF7C7FF034619462046FFF792FF034653
:10A3700018460C37BD4690BD90B583B000AF7860ED
:10A3800039607B681C683868FFF7C1FF03461946CF
:10A390002046FFF78DFF034618460C37BD4690BD9B
:10A3A00080B582B000AF78600B46FB707B681B689D
:10A3B000FA7811461846FFF78AFF03461846083711
:10A3C000BD4680BD80B483B000AF78604FF0A0433D
:10A3D00018460C37BD465DF8047B704780B584B0E5
:10A3E00000AF7860084611461A460346FB700B46DC
:10A3F000BB7013467B703B1D1846FFF7E3FFF86008
:10A40000FA78BB785B001A437B789B001A433B7E4B
:10A410001B0242EA03013B7F1B047A681943FB6875
:10A4200002F5E07243F8221000BF1037BD4680BD30
:10A4300080B584B002AF78600023019300230093BD
:10A440000023012201217868FFF7C8FF00BF083709
:10A45000BD4680BD80B584B002AF78600B46FB700E
:10A46000FB780022019200220092002200217868ED
:10A47000FFF7B4FF00BF0837BD4680BD80B584B08C
:10A4800000AF78603B1D1846FFF79CFFF8607B68C3
:10A49000012202FA03F31946F86800F004F800BF3D
:10A4A0001037BD4680BD80B483B000AF786039609E
:10A4B0007B683A68C3F8082500BF0C37BD465DF8D5
:10A4C000047B704780B586B000AFF860B9607A60F1
:10A4D0003B60F86801F00AFD78617B69002B01D0D0
:10A4E00004231CE0FB681B787A68B968184601F001
:10A4F0007BFD78617B69002B01D003230FE03B6873
:10A50000002B0BD0FB681B783968184601F0A2FDC0
:10A5100078617B69002B01D0032300E000231846FB
:10A520001837BD4680BD80B586B000AFF8607A6050
:10A530003B600B46FB72F86801F00FFE78617B69A7
:10A54000002B01D004232CE0FB681A78FB7A11461B
:10A550001846FFF76BFE78617B69002B01D003235F
:10A560001FE097F82030002B0AD0FB681B781846B4
:10A5700001F078FE78617B69002B01D0032310E0A5
:10A58000FB681B781846FFF768FE02467B681A6076
:10A59000FB681B781846FFF76EFE02463B681A60A0
:10A5A000002318461837BD4680BD80B584B000AF83
:10A5B00078607B681B78184601F09CFDF8607B682A
:10A5C0001B78184601F0E4FCF8607B6814221A70CE
:10A5D00000BF1037BD4680BD80B584B000AF786045
:10A5E0007B681B78184601F005FEF8607B68062240
:10A5F0001A7000BF1037BD4680BD80B584B000AF73
:10A6000078600023FB6010E07B681A68FB681344E5
:10A610001B78132B06D87B681A68FB68134418460E
:10A62000FFF7C3FFFB680133FB60FB68082BEBDD22
:10A630000023BB6013E07B681A68BB6813440933CE
:10A640001B78052B08D87B681A68BB68083313444D
:10A6500001331846FFF7C0FFBB680133BB60BB681E
:10A66000012BE8DD00BF00BF1037BD4680BD80B5BF
:10A6700084B000AF78607B681B78184601F009FD54
:10A68000F86000BF1037BD4680BD80B584B000AF14
:10A6900078607B681B78184601F02CFDF86000BFDD
:10A6A0001037BD4680BD80B584B000AF7860002310
:10A6B000FB6010E07B681A68FB6813441B78132B5F
:10A6C00006D87B681A68FB6813441846FFF7CFFF6B
:10A6D000FB680133FB60FB68072BEBDD00BF00BFAD
:10A6E0001037BD4680BD80B584B000AF78600823C8
:10A6F000FB6010E07B681A68FB6813441B78132B1F
:10A7000006D87B681A68FB6813441846FFF7AFFF4A
:10A71000FB680133FB60FB68082BEBDD00BF00BF6B
:10A720001037BD4680BD80B584B000AF7860082387
:10A73000FB6010E07B681A68FB6813441B78132BDE
:10A7400006D87B681A68FB6813441846FFF79DFF1C
:10A75000FB680133FB60FB68082BEBDD00BF00BF2B
:10A760001037BD4680BDF0B58DB002AF786039605E
:10A770000023BB6100237B6100233B610023FB605E
:10A7800000233B6208E07B681A683B6A134414228A
:10A790001A703B6A01333B623B6A082BF3DD0023EE
:10A7A000FB6109E07B681A68FB69134409330622E0
:10A7B0001A70FB690133FB61FB69012BF2DD7B68D9
:10A7C0001B6803F108047B68DB684FF4907118463E
:10A7D000FFF719FC05467B68DB6808211846FFF780
:10A7E0008AFC0246002329462046FFF76BFE78626A
:10A7F0007B6A002B40F013817B681B681C1D7B6803
:10A80000DB684FF484711846FFF7FDFB05467B6853
:10A81000043308211846FFF789FD02460023294624
:10A820002046FFF74FFE78627B6A002B40F0F980EC
:10A830007B681B685C1D7B68DB684FF48871184679
:10A84000FFF7E1FB05467B68DB6800211846FFF750
:10A8500052FC06467B68043300211846FFF778FD5A
:10A860000346324629462046FFF72CFE78627B6A73
:10A87000002B40F0D8803B685B69002B71D03B68AF
:10A88000DB69002B6DD07B681B689C1D7B68DB68D7
:10A890004FF488711846FFF7B6FB05467B68043312
:10A8A00000211846FFF754FD02463B68DB69294644
:10A8B0002046FFF707FE78627B6A002B40F0B580E8
:10A8C0007B681B6803F109007B681B68597907F1F5
:10A8D000140307F1180201240094FFF724FE7862A4
:10A8E0007B6A002B40F0A3807B681B6803F10A00A1
:10A8F0007B681B68997907F10C0307F110020024AB
:10A900000094FFF710FE78627B6A002B40F0918084
:10A910007B681B689C1C3B685D697B68DB68042165
:10A920001846FFF7E8FB06467B680433012118460A
:10A93000FFF70EFD0346324629462046FFF7C2FDCB
:10A9400078627B6A002B76D17B681B68D81C3B68D9
:10A9500059697A693B69FFF7B5FD78627B6A002B1C
:10A960006BD13B689B69002B02D1FB68002B1FD089
:10A970007B681B685C1C7B68DB684FF4A67118461B
:10A98000FFF741FB0146FB68002B02D13B689A6947
:10A9900000E0FA68FB68002B02D03B689B6900E08E
:10A9A00000232046FFF78EFD78627B6A002B46D19C
:10A9B0003B681B69002B14D07B681B681D463B68F5
:10A9C0001C697B68DB6800211846FFF794FB024690
:10A9D000BB6921462846FFF775FD78627B6A002B2C
:10A9E0002FD13B68DB68B3F1FF3F2CD07B681B683D
:10A9F000DC1D7B68043302211846FFF7BDFC0546C9
:10AA00003B68DB6818460AF090F9024600232946A5
:10AA10002046FFF757FD78627B6A002B13E000BFEA
:10AA200012E000BF10E000BF0EE000BF0CE000BF6E
:10AA30000AE000BF08E000BF06E000BF04E000BF7E
:10AA400002E000BF00E000BF7B6A002B01D17B6AFF
:10AA500003E07868FFF7D1FD7B6A18462C37BD46C6
:10AA6000F0BD80B483B000AF03463960FB8000BF07
:10AA70000C37BD465DF8047B7047000080B58AB096
:10AA800000AFF860B9607A603B60FB68DB6818462D
:10AA9000FFF780FA034687F82730FB681B6893F8B6
:10AAA0003C30002B01D0082308E1FB681B687A6862
:10AAB0005A62FB681B6800229A61FB681B680022CF
:10AAC000DA61FB681B6800221A62FB681B680022BF
:10AAD000DA60FB681B683A685A63FB681B68FF22F0
:10AAE00083F83A20FB68DB68764A934214BF01235F
:10AAF0000023DBB21946744AFB6842F82130BB6878
:10AB00001B681846FFF7BAFCBB681B681846FFF7BE
:10AB10008FFCBB685A68BB6893F82930002B01D0C2
:10AB2000032300E0002319461046FFF793FCFB685F
:10AB3000DA68BB685B6A19461046FFF701FBFB68E1
:10AB4000D868BB6893F82110BB6893F820301A4688
:10AB5000FFF7E0FAFB68D868BB681968BB685B68F8
:10AB60001A46FFF78FFABB6893F82030012B4BD1C0
:10AB7000BB689B68B3F1FF3F05D0BB689B680321AE
:10AB80001846FFF767FCBB68DB68B3F1FF3F32D0C4
:10AB90004E4A07F110031268114619800233120C55
:10ABA0001A7009F0E7FF38623B6A002B04D03B6A59
:10ABB000082B01D03B6A81E0BB68DB6807F110021B
:10ABC000114618460AF042F838623B6A002B01D061
:10ABD000032373E0BB68DB6818460AF081F8BB68A2
:10ABE000DB681846FFF724FCBB68DA68FB681B6863
:10ABF000D2B283F83A20FB68D868BB689B681A46D3
:10AC00004FF0FF31FFF752FA97F92730022B0AD1A4
:10AC1000FB68DB682E4918460AF0C4FA0346002B8D
:10AC200001D011234AE0FB68DB682A491846FFF788
:10AC3000F9F9BB6893F828301A4697F9273011467E
:10AC40001846FFF77DF997F927301846FFF75AF9AC
:10AC500097F927301846FFF737F9FB68DB68184685
:10AC6000FFF702FA00233B7500237B750023BB75B9
:10AC70000623FB750023BB6101237B750323BB7592
:10AC8000FB68043307F11401134A1846FEF738F93C
:10AC9000F861FB69002B01D003230FE0B968F86865
:10ACA000FFF761FDF861FB69002B01D0032305E08C
:10ACB000FB681B68012283F83C20002318462837D4
:10ACC000BD4680BD002000401CC0002084E0030081
:10ACD00081B202001003480063AA020080B586B06A
:10ACE00000AFF860B9607A60FB681B68DB68002B16
:10ACF00001D0112371E0FB681B68BA68DA60FB6859
:10AD00001B687A681A61FB681B6800225A617B68BD
:10AD1000FF2B06D87B68FB82FB681B6800221A8722
:10AD20001EE07B68FE332F4AA2FB0323DB093B6155
:10AD30007A683B69B2FBF3F2FB681B6892B21A8730
:10AD4000FB681B68198FFB681B681B8F1A467B68A2
:10AD5000B3FBF2F000FB02F29B1A9BB20B44FB82A6
:10AD6000FB68DB68FA8AB9681846FFF7F8F9FB68F0
:10AD7000DB684FF4A8711846FFF719F9FB68DB6828
:10AD800008211846FFF7A6F97B68FF2B24D900BFDE
:10AD9000FB68DB684FF4A8711846FFF71FF90346FC
:10ADA00083F00103DBB2002BF2D1FB68DB684FF4C8
:10ADB000A8711846FFF7FBF8F868FFF794FCFB68EA
:10ADC000D868FB681B68DA68FB8AD118FB681B68C7
:10ADD0001B8F1A46FFF7C3F9002318461837BD46E4
:10ADE00080BD00BF8180808080B586B000AFF860F4
:10ADF000B9607A60FB70FB681B689B69002B01D00F
:10AE000011235CE0FB681B687A681A63BB68002B3F
:10AE10000AD0FB681B68BA689A61FB68DB687A68CD
:10AE2000B9681846FFF7BCF9FB6804331846FEF70B
:10AE3000D7F8FB6804331846FEF7EEF8FB681B688A
:10AE400000229A62FB681B680022DA62FB68DB68FA
:10AE50004FF488711846FFF7AAF8FB68DB684FF4D7
:10AE6000A6711846FFF7A3F8F868FFF71CFCFB680B
:10AE70001B6893F83A30FF2B14D07B68043B7B614E
:10AE8000FB681B6893F83A30184609F071FF0346D7
:10AE90001A4601231360FB68181D00237A690221FA
:10AEA000FEF7C8F8FB7883F00103DBB2002B05D076
:10AEB000FB68DB6800211846FFF70CF900231846F1
:10AEC0001837BD4680BD80B586B000AFF860B96068
:10AED0007A60FB681B68DB69002B0BD1FB681B6881
:10AEE000BA68DA61FB68DB687A68B9681846FFF708
:10AEF00057F903E0FB681B68BA681A62FB681B68B5
:10AF000093F83A30FF2B26D0FB6804330021184613
:10AF1000FFF746FA02467B685B001344043B7B6103
:10AF2000FB68181D00237A690221FEF783F8FB688D
:10AF30001B6893F83B3083F00103DBB2002B0AD08F
:10AF4000FB681B6893F83A30184609F011FF034676
:10AF50001A460123136000BF1837BD4680BD80B577
:10AF60009AB000AF78607B68DB684FF49271184646
:10AF7000FFF734F80346002B22D07B68DB684FF4E0
:10AF800092711846FFF713F807F1380300221A6090
:10AF90005A609A60032387F838307B68DB6818466C
:10AFA000FFF74FF80346DBB287F83C307B681B683D
:10AFB0005B6A7A681268526B07F13801104698474D
:10AFC0007B68DB684FF4A6711846FFF707F8034665
:10AFD000002B19D07B68DB684FF4A6711846FEF78A
:10AFE000E6FF07F12C0300221A605A609A600123E1
:10AFF00087F82C307B681B685B6A7A681268526B32
:10B0000007F12C01104698477B68DB684FF4887184
:10B010001846FEF7E3FF0346002B00F09D807B6897
:10B02000DB684FF488711846FEF7C1FF7B68043374
:10B0300000211846FFF7B4F9F8657B680433012155
:10B040001846FFF7ADF9B8657B681B689B6AFA6D17
:10B05000D31A7B657B681B68DB6ABA6DD31A3B65C4
:10B060007B681B68FA6D9A627B681B68BA6DDA624E
:10B070007B6D002B02D13B6D002B6DD07B681B6874
:10B080001B6B7A6D934228BF13467B667A6D7B6E8D
:10B09000D31A3B66002387F820307B681B689B69C6
:10B0A0007B627B6EBB627B681A687B681B68D269B7
:10B0B0009A617B681B680022DA617B681B681B6AE7
:10B0C000002B14D07B681A687B681B68126ADA61EF
:10B0D0007B681B6800221A627B68D8687B681B68E3
:10B0E000D9697B681B681B6B1A46FFF759F87B68A8
:10B0F0001B685B6A7A681268526B07F12001104680
:10B1000098473B6E002B09D17B681B681B6B7A6DDF
:10B110009A4221D1FA6DBB6D9A421DD107F11403F9
:10B1200000221A605A609A6004233B753B6EBB6133
:10B130007B681B685B6A7A681268526B07F11401BE
:10B14000104698477B681A687B681B68D2699A61C9
:10B150007B681B680022DA617B68DB684FF4AC71A6
:10B160001846FEF73BFF0346002B1ED07B68DB68CA
:10B170004FF4AC711846FEF71AFF02233B727B684E
:10B180001B68DB68FB607B681B681B693B617B6835
:10B190001B680022DA607B681B685B6A7A68126849
:10B1A000526B07F10801104698477B68DB684FF443
:10B1B00090711846FEF712FF0346002B5CD07B68A7
:10B1C000DB684FF490711846FEF7F1FE7B68DB6890
:10B1D0001846FEF7D8FFF8647B681B6859697B68DE
:10B1E0001B68FA6C0A445A617B681B685A697B6861
:10B1F0001B681B699A420DD17B68DB684FF4AC7108
:10B200001846FEF7D4FE7B68DB680C211846FEF773
:10B2100061FF31E07B681B681A697B681B685B69AA
:10B22000D31ABB64BB6CFF2B03D87868FFF77BFA9B
:10B2300022E07B681B68DA687B681B685B69796859
:10B240000968098F0B4413447B647B68DB684FF407
:10B25000A8711846FEF7C2FE7B68DB684FF4A87140
:10B260001846FEF7A4FE7B68D8687B681B681B8FB6
:10B270001A46796CFEF773FF00BF6837BD4680BD84
:10B2800080B500AF034B1B681846FFF768FE00BF90
:10B2900080BD00BF1CC0002080B483B000AF7860C8
:10B2A0004FF0A04318460C37BD465DF8047B70474D
:10B2B00080B584B000AF7860084611461A46034650
:10B2C000FB700B46BB7013467B703B1D1846FFF7A7
:10B2D000E3FFF860FA78BB785B001A437B789B0049
:10B2E0001A433B7E1B0242EA03013B7F1B047A6840
:10B2F0001943FB6802F5E07243F8221000BF1037D3
:10B30000BD4680BD80B584B002AF78600023019354
:10B31000002300930023012201217868FFF7C8FF72
:10B3200000BF0837BD4680BD80B586B000AF03467C
:10B33000FB7100200AF0D0FF78617B693B613B69BB
:10B34000002B04D00E4A2621386904F0A3FDFB79B6
:10B35000002B0DD10BF046F978617B69FB60FB682F
:10B36000002B07D0064A2D21F86804F093FD01E078
:10B3700000BF00E000BF012318461837BD4680BD5E
:10B3800088E0030080B582B000AF0346FB71FB7913
:10B39000043B0D2B38D801A252F823F003B402006D
:10B3A00009B4020009B4020009B4020009B40200A1
:10B3B00009B40200FBB3020009B4020009B40200A0
:10B3C00009B40200D5B3020009B4020009B40200B6
:10B3D000F5B30200FCF724FBFCF74AFB0D4A0E4BC9
:10B3E000D31ADB081B0443F003030C49184603F08F
:10B3F000C7FD0AE0FCF73CFE07E0002007F0F8F983
:10B4000003E0FBF7F5FF00E000BF00BF0837BD46D3
:10B4100080BD00BFDCFC03009CFC0300A4E0030033
:10B4200080B584B000AF114903200AF06FFFF860C7
:10B43000FB68BB60BB68002B04D00D4A7A21B8685A
:10B4400004F028FDFB1C194600200BF02FF9F860D2
:10B45000FB687B607B68002B04D0054A7D217868FF
:10B4600004F018FD00BF1037BD4680BD85B3020053
:10B4700088E0030080B500AF1220FFF743FF1420DF
:10B48000FFF740FF1620FFF73DFF0A20FFF73AFFC6
:10B490000B20FFF737FF0C20FFF734FF1320FFF7D7
:10B4A00031FF00BF80BD80B485B000AF786000235D
:10B4B000FB60FB680133FB607A68FB6813441B7810
:10B4C0000A2BF6D1FB680133FB60FB681846143782
:10B4D000BD465DF8047B704780B582B000AF0A4A74
:10B4E000C821082004F036FF78607B683B603B6829
:10B4F000002B04D0054AAD21386804F0CBFC00BF16
:10B500000837BD4680BD00BF24C0002088E003008E
:10B5100080B485B000AF78607B689B68FB607B6817
:10B52000DA68FB68D31A18461437BD465DF8047B09
:10B53000704780B500AF03F0BFFD034683F0010301
:10B54000DBB2002B01D007F0FBF800BF80BD00008C
:10B5500080B582B000AF07F0DBF878607B683B60B5
:10B560003B68002B04D0044AC921386804F092FCDF
:10B5700000BF0837BD4680BD88E0030080B582B0BB
:10B5800000AF4FF48041002003F04CFA78607B68F4
:10B590003B603B68002B04D00A4AD021386804F095
:10B5A00079FC03F0C7F9084A084BD31ADB081B04DF
:10B5B00043F003030649184603F0E2FC00BF0837D6
:10B5C000BD4680BD88E00300DCFC03009CFC03005A
:10B5D000C0E0030080B58AB000AF78600B467B8086
:10B5E000BEE23B7E0A2B00F0C5823B7E613B162B00
:10B5F00000F29B8201A252F823F000BF91B8020032
:10B600002BBB02002BBB020043B80200EDB90200C5
:10B6100039BA020073B8020059B602002DB7020011
:10B620002BBB02002BBB0200FFB60200AFB802002A
:10B630002BBB02002BBB0200E3B60200CDB8020018
:10B640000BBA0200FDBA02002BBB02002BBB0200AA
:10B650002BBB0200CDBA0200BD4ABE4BD31ADB0899
:10B660001B0443F00303BC49184603F089FCBB48A4
:10B67000FCF78AFDBA48FCF787FDB848FCF784FD63
:10B68000B848FCF781FDB848FCF77EFDB748FCF7E9
:10B690007BFDB748FCF778FDB648FCF775FDB6486A
:10B6A000FCF772FDB548FCF76FFDB548FCF76CFD83
:10B6B000B448FCF769FDB448FCF766FDB348FCF7F5
:10B6C00063FDA648FCF760FDB148FCF75DFDA348AB
:10B6D000FCF75AFDAF48FCF757FDA048FCF754FDB6
:10B6E0003EE29B4A9B4BD31ADB081B0443F0030347
:10B6F000A949184603F044FCFCF734F830E2944AB8
:10B70000944BD31ADB081B0443F00303A3491846E8
:10B7100003F036FC9148FCF737FDA148FCF734FDF7
:10B72000FCF7A8F88D48FCF72FFD19E2884A894BF1
:10B73000D31ADB081B0443F003039A49184603F0AD
:10B740001FFC07F114031846FCF7E2FF78623B7D0B
:10B75000302B36D0312B67D17D4A7E4BD31ADB0894
:10B760001B0443F003039049184603F009FC4FF013
:10B77000FF3002F0BBFE78627B6A3B623B6A002BC3
:10B7800005D08A4A40F23111386A04F083FBFCF795
:10B79000EBFA6F4A6F4BD31ADB081B0443F0030329
:10B7A0008349184603F0ECFB0120FCF797F86B483F
:10B7B000FCF7EAFC7F48FCF7E7FC6848FCF7E4FC90
:10B7C0003EE0634A634BD31ADB081B0443F00303D8
:10B7D0007949184603F0D4FB02F0CCFE7862FCF7FE
:10B7E0001DFB7B6AFB61FB69002B05D06F4A4FF4A0
:10B7F000A271F86904F04EFB554A564BD31ADB0888
:10B800001B0443F003036D49184603F0B9FB002005
:10B81000FCF764F85148FCF7B7FC6948FCF7B4FC46
:10B820004E48FCF7B1FC0BE0494A4A4BD31ADB08FF
:10B830001B0443F003036349184603F0A1FB00BF58
:10B840008EE1434A434BD31ADB081B0443F0030346
:10B850005D49184603F094FB4048FCF795FC5B48B3
:10B86000FCF792FC3D48FCF78FFC0120FCF746F802
:10B8700076E1374A374BD31ADB081B0443F0030346
:10B880005349184603F07CFB0120FCF749F867E1B7
:10B890002F4A304BD31ADB081B0443F003034D49F6
:10B8A000184603F06DFB0120FCF74AF858E1284ADE
:10B8B000284BD31ADB081B0443F003034649184600
:10B8C00003F05EFB0120FCF74BF849E1204A214BD5
:10B8D000D31ADB081B0443F003034049184603F066
:10B8E0004FFB07F110031846FCF712FF78623B7C10
:10B8F000362B02D0392B0FD01DE0154A154BD31A29
:10B90000DB081B0443F003033549184603F038FBFA
:10B910000120FCF735F81AE00D4A0E4BD31ADB086C
:10B920001B0443F003032F49184603F029FB0120B1
:10B93000FCF736F80BE0064A064BD31ADB081B046B
:10B9400043F003032849184603F01AFB00BF07E140
:10B95000DCFC03009CFC0300DCE00300F0E00300DF
:10B960001CE1030048E103004CE1030064E1030033
:10B970008CE10300A8E10300CCE10300F4E1030043
:10B9800018E203003CE2030068E2030094E20300D3
:10B99000B4E20300F0E203003CE3030054E30300DD
:10B9A00068E3030084E3030098E3030088E00300F6
:10B9B000B4E30300DCE30300F8E3030014E4030052
:10B9C0003CE4030058E403007CE4030090E403003B
:10B9D000A0E40300B4E40300C8E40300DCE40300D3
:10B9E000F0E4030004E5030018E50300644A654B36
:10B9F000D31ADB081B0443F003036349184603F022
:10BA0000BFFA0120FBF7DCFFAAE05D4A5D4BD31AC9
:10BA1000DB081B0443F003035C49184603F0B0FA4B
:10BA20005B48FCF7B1FB5B48FCF7AEFB5848FCF702
:10BA3000ABFBFBF7F5FF93E0514A524BD31ADB08FF
:10BA40001B0443F003035449184603F099FA0323F7
:10BA5000FB6007F10C0207F1080311461846FCF7DA
:10BA600045FE78627B6A002B23D107F1080303218E
:10BA70001846FCF7B3FB0346FB76414A414BD31A09
:10BA8000DB081B0443F00303FA7E4449184603F025
:10BA900086FAFB7E1846FBF7B3FF394A394BD31AB7
:10BAA000DB081B0443F003033D49184603F068FA22
:10BAB00056E0334A334BD31ADB081B0443F003032D
:10BAC0007A6A3849184603F06AFA49E02C4A2D4B45
:10BAD000D31ADB081B0443F003033349184603F071
